{
	"contracts/Lottery System/Lottery.sol": {
		"Lottery": {
			"abi": [
				{
					"inputs": [],
					"stateMutability": "nonpayable",
					"type": "constructor"
				},
				{
					"inputs": [],
					"name": "getBalance",
					"outputs": [
						{
							"internalType": "uint256",
							"name": "",
							"type": "uint256"
						}
					],
					"stateMutability": "view",
					"type": "function"
				},
				{
					"inputs": [],
					"name": "getRandomAddress",
					"outputs": [
						{
							"internalType": "uint256",
							"name": "",
							"type": "uint256"
						}
					],
					"stateMutability": "view",
					"type": "function"
				},
				{
					"inputs": [],
					"name": "manager",
					"outputs": [
						{
							"internalType": "address",
							"name": "",
							"type": "address"
						}
					],
					"stateMutability": "view",
					"type": "function"
				},
				{
					"inputs": [
						{
							"internalType": "uint256",
							"name": "",
							"type": "uint256"
						}
					],
					"name": "participants",
					"outputs": [
						{
							"internalType": "address payable",
							"name": "",
							"type": "address"
						}
					],
					"stateMutability": "view",
					"type": "function"
				},
				{
					"inputs": [],
					"name": "pickWinner",
					"outputs": [],
					"stateMutability": "nonpayable",
					"type": "function"
				},
				{
					"stateMutability": "payable",
					"type": "receive"
				}
			],
			"devdoc": {
				"kind": "dev",
				"methods": {},
				"version": 1
			},
			"evm": {
				"assembly": "    /* \"contracts/Lottery System/Lottery.sol\":59:1161  contract Lottery {... */\n  mstore(0x40, 0x80)\n    /* \"contracts/Lottery System/Lottery.sol\":187:240  constructor() {... */\n  callvalue\n  dup1\n  iszero\n  tag_1\n  jumpi\n  0x00\n  dup1\n  revert\ntag_1:\n  pop\n    /* \"contracts/Lottery System/Lottery.sol\":222:232  msg.sender */\n  caller\n    /* \"contracts/Lottery System/Lottery.sol\":212:219  manager */\n  0x00\n  dup1\n    /* \"contracts/Lottery System/Lottery.sol\":212:232  manager = msg.sender */\n  0x0100\n  exp\n  dup2\n  sload\n  dup2\n  0xffffffffffffffffffffffffffffffffffffffff\n  mul\n  not\n  and\n  swap1\n  dup4\n  0xffffffffffffffffffffffffffffffffffffffff\n  and\n  mul\n  or\n  swap1\n  sstore\n  pop\n    /* \"contracts/Lottery System/Lottery.sol\":59:1161  contract Lottery {... */\n  dataSize(sub_0)\n  dup1\n  dataOffset(sub_0)\n  0x00\n  codecopy\n  0x00\n  return\nstop\n\nsub_0: assembly {\n        /* \"contracts/Lottery System/Lottery.sol\":59:1161  contract Lottery {... */\n      mstore(0x40, 0x80)\n      jumpi(tag_1, lt(calldatasize, 0x04))\n      shr(0xe0, calldataload(0x00))\n      dup1\n      0x12065fe0\n      eq\n      tag_3\n      jumpi\n      dup1\n      0x35c1d349\n      eq\n      tag_4\n      jumpi\n      dup1\n      0x481c6a75\n      eq\n      tag_5\n      jumpi\n      dup1\n      0x5d495aea\n      eq\n      tag_6\n      jumpi\n      dup1\n      0xedd0eb06\n      eq\n      tag_7\n      jumpi\n      jump(tag_2)\n    tag_1:\n      jumpi(tag_2, calldatasize)\n        /* \"contracts/Lottery System/Lottery.sol\":451:458  1 ether */\n      0x0de0b6b3a7640000\n        /* \"contracts/Lottery System/Lottery.sol\":438:447  msg.value */\n      callvalue\n        /* \"contracts/Lottery System/Lottery.sol\":438:458  msg.value >= 1 ether */\n      lt\n      iszero\n        /* \"contracts/Lottery System/Lottery.sol\":430:459  require(msg.value >= 1 ether) */\n      tag_10\n      jumpi\n      0x00\n      dup1\n      revert\n    tag_10:\n        /* \"contracts/Lottery System/Lottery.sol\":531:543  participants */\n      0x01\n        /* \"contracts/Lottery System/Lottery.sol\":557:567  msg.sender */\n      caller\n        /* \"contracts/Lottery System/Lottery.sol\":531:569  participants.push(payable(msg.sender)) */\n      swap1\n      dup1\n      0x01\n      dup2\n      sload\n      add\n      dup1\n      dup3\n      sstore\n      dup1\n      swap2\n      pop\n      pop\n      0x01\n      swap1\n      sub\n      swap1\n      0x00\n      mstore\n      keccak256(0x00, 0x20)\n      add\n      0x00\n      swap1\n      swap2\n      swap1\n      swap2\n      swap1\n      swap2\n      0x0100\n      exp\n      dup2\n      sload\n      dup2\n      0xffffffffffffffffffffffffffffffffffffffff\n      mul\n      not\n      and\n      swap1\n      dup4\n      0xffffffffffffffffffffffffffffffffffffffff\n      and\n      mul\n      or\n      swap1\n      sstore\n      stop\n        /* \"contracts/Lottery System/Lottery.sol\":59:1161  contract Lottery {... */\n    tag_2:\n      0x00\n      dup1\n      revert\n        /* \"contracts/Lottery System/Lottery.sol\":660:767  function getBalance() public view onlyOwner returns(uint256){... */\n    tag_3:\n      callvalue\n      dup1\n      iszero\n      tag_12\n      jumpi\n      0x00\n      dup1\n      revert\n    tag_12:\n      pop\n      tag_13\n      tag_14\n      jump\t// in\n    tag_13:\n      mload(0x40)\n      tag_15\n      swap2\n      swap1\n      tag_16\n      jump\t// in\n    tag_15:\n      mload(0x40)\n      dup1\n      swap2\n      sub\n      swap1\n      return\n        /* \"contracts/Lottery System/Lottery.sol\":112:149  address payable[] public participants */\n    tag_4:\n      callvalue\n      dup1\n      iszero\n      tag_17\n      jumpi\n      0x00\n      dup1\n      revert\n    tag_17:\n      pop\n      tag_18\n      0x04\n      dup1\n      calldatasize\n      sub\n      dup2\n      add\n      swap1\n      tag_19\n      swap2\n      swap1\n      tag_20\n      jump\t// in\n    tag_19:\n      tag_21\n      jump\t// in\n    tag_18:\n      mload(0x40)\n      tag_22\n      swap2\n      swap1\n      tag_23\n      jump\t// in\n    tag_22:\n      mload(0x40)\n      dup1\n      swap2\n      sub\n      swap1\n      return\n        /* \"contracts/Lottery System/Lottery.sol\":83:105  address public manager */\n    tag_5:\n      callvalue\n      dup1\n      iszero\n      tag_24\n      jumpi\n      0x00\n      dup1\n      revert\n    tag_24:\n      pop\n      tag_25\n      tag_26\n      jump\t// in\n    tag_25:\n      mload(0x40)\n      tag_27\n      swap2\n      swap1\n      tag_28\n      jump\t// in\n    tag_27:\n      mload(0x40)\n      dup1\n      swap2\n      sub\n      swap1\n      return\n        /* \"contracts/Lottery System/Lottery.sol\":941:1152  function pickWinner() public onlyOwner {... */\n    tag_6:\n      callvalue\n      dup1\n      iszero\n      tag_29\n      jumpi\n      0x00\n      dup1\n      revert\n    tag_29:\n      pop\n      tag_30\n      tag_31\n      jump\t// in\n    tag_30:\n      stop\n        /* \"contracts/Lottery System/Lottery.sol\":775:935  function getRandomAddress() public view returns(uint){... */\n    tag_7:\n      callvalue\n      dup1\n      iszero\n      tag_32\n      jumpi\n      0x00\n      dup1\n      revert\n    tag_32:\n      pop\n      tag_33\n      tag_34\n      jump\t// in\n    tag_33:\n      mload(0x40)\n      tag_35\n      swap2\n      swap1\n      tag_16\n      jump\t// in\n    tag_35:\n      mload(0x40)\n      dup1\n      swap2\n      sub\n      swap1\n      return\n        /* \"contracts/Lottery System/Lottery.sol\":660:767  function getBalance() public view onlyOwner returns(uint256){... */\n    tag_14:\n        /* \"contracts/Lottery System/Lottery.sol\":712:719  uint256 */\n      0x00\n        /* \"contracts/Lottery System/Lottery.sol\":300:307  manager */\n      dup1\n      0x00\n      swap1\n      sload\n      swap1\n      0x0100\n      exp\n      swap1\n      div\n      0xffffffffffffffffffffffffffffffffffffffff\n      and\n        /* \"contracts/Lottery System/Lottery.sol\":286:307  msg.sender == manager */\n      0xffffffffffffffffffffffffffffffffffffffff\n      and\n        /* \"contracts/Lottery System/Lottery.sol\":286:296  msg.sender */\n      caller\n        /* \"contracts/Lottery System/Lottery.sol\":286:307  msg.sender == manager */\n      0xffffffffffffffffffffffffffffffffffffffff\n      and\n      eq\n        /* \"contracts/Lottery System/Lottery.sol\":278:364  require(msg.sender == manager,\"Only owners are able to see the total number of funds\") */\n      tag_37\n      jumpi\n      mload(0x40)\n      0x08c379a000000000000000000000000000000000000000000000000000000000\n      dup2\n      mstore\n      0x04\n      add\n      tag_38\n      swap1\n      tag_39\n      jump\t// in\n    tag_38:\n      mload(0x40)\n      dup1\n      swap2\n      sub\n      swap1\n      revert\n    tag_37:\n        /* \"contracts/Lottery System/Lottery.sol\":738:759  address(this).balance */\n      selfbalance\n        /* \"contracts/Lottery System/Lottery.sol\":731:759  return address(this).balance */\n      swap1\n      pop\n        /* \"contracts/Lottery System/Lottery.sol\":660:767  function getBalance() public view onlyOwner returns(uint256){... */\n      swap1\n      jump\t// out\n        /* \"contracts/Lottery System/Lottery.sol\":112:149  address payable[] public participants */\n    tag_21:\n      0x01\n      dup2\n      dup2\n      sload\n      dup2\n      lt\n      tag_41\n      jumpi\n      0x00\n      dup1\n      revert\n    tag_41:\n      swap1\n      0x00\n      mstore\n      keccak256(0x00, 0x20)\n      add\n      0x00\n      swap2\n      pop\n      sload\n      swap1\n      0x0100\n      exp\n      swap1\n      div\n      0xffffffffffffffffffffffffffffffffffffffff\n      and\n      dup2\n      jump\t// out\n        /* \"contracts/Lottery System/Lottery.sol\":83:105  address public manager */\n    tag_26:\n      0x00\n      dup1\n      sload\n      swap1\n      0x0100\n      exp\n      swap1\n      div\n      0xffffffffffffffffffffffffffffffffffffffff\n      and\n      dup2\n      jump\t// out\n        /* \"contracts/Lottery System/Lottery.sol\":941:1152  function pickWinner() public onlyOwner {... */\n    tag_31:\n        /* \"contracts/Lottery System/Lottery.sol\":300:307  manager */\n      0x00\n      dup1\n      sload\n      swap1\n      0x0100\n      exp\n      swap1\n      div\n      0xffffffffffffffffffffffffffffffffffffffff\n      and\n        /* \"contracts/Lottery System/Lottery.sol\":286:307  msg.sender == manager */\n      0xffffffffffffffffffffffffffffffffffffffff\n      and\n        /* \"contracts/Lottery System/Lottery.sol\":286:296  msg.sender */\n      caller\n        /* \"contracts/Lottery System/Lottery.sol\":286:307  msg.sender == manager */\n      0xffffffffffffffffffffffffffffffffffffffff\n      and\n      eq\n        /* \"contracts/Lottery System/Lottery.sol\":278:364  require(msg.sender == manager,\"Only owners are able to see the total number of funds\") */\n      tag_44\n      jumpi\n      mload(0x40)\n      0x08c379a000000000000000000000000000000000000000000000000000000000\n      dup2\n      mstore\n      0x04\n      add\n      tag_45\n      swap1\n      tag_39\n      jump\t// in\n    tag_45:\n      mload(0x40)\n      dup1\n      swap2\n      sub\n      swap1\n      revert\n    tag_44:\n        /* \"contracts/Lottery System/Lottery.sol\":991:997  uint r */\n      0x00\n        /* \"contracts/Lottery System/Lottery.sol\":1000:1018  getRandomAddress() */\n      tag_47\n        /* \"contracts/Lottery System/Lottery.sol\":1000:1016  getRandomAddress */\n      tag_34\n        /* \"contracts/Lottery System/Lottery.sol\":1000:1018  getRandomAddress() */\n      jump\t// in\n    tag_47:\n        /* \"contracts/Lottery System/Lottery.sol\":991:1018  uint r = getRandomAddress() */\n      swap1\n      pop\n        /* \"contracts/Lottery System/Lottery.sol\":1029:1039  uint index */\n      0x00\n        /* \"contracts/Lottery System/Lottery.sol\":1046:1058  participants */\n      0x01\n        /* \"contracts/Lottery System/Lottery.sol\":1046:1065  participants.length */\n      dup1\n      sload\n      swap1\n      pop\n        /* \"contracts/Lottery System/Lottery.sol\":1042:1043  r */\n      dup3\n        /* \"contracts/Lottery System/Lottery.sol\":1042:1065  r % participants.length */\n      tag_48\n      swap2\n      swap1\n      tag_49\n      jump\t// in\n    tag_48:\n        /* \"contracts/Lottery System/Lottery.sol\":1029:1065  uint index = r % participants.length */\n      swap1\n      pop\n        /* \"contracts/Lottery System/Lottery.sol\":1085:1097  participants */\n      0x01\n        /* \"contracts/Lottery System/Lottery.sol\":1098:1103  index */\n      dup2\n        /* \"contracts/Lottery System/Lottery.sol\":1085:1104  participants[index] */\n      dup2\n      sload\n      dup2\n      lt\n      tag_50\n      jumpi\n      tag_51\n      tag_52\n      jump\t// in\n    tag_51:\n    tag_50:\n      swap1\n      0x00\n      mstore\n      keccak256(0x00, 0x20)\n      add\n      0x00\n      swap1\n      sload\n      swap1\n      0x0100\n      exp\n      swap1\n      div\n      0xffffffffffffffffffffffffffffffffffffffff\n      and\n        /* \"contracts/Lottery System/Lottery.sol\":1076:1082  winner */\n      0x02\n      0x00\n        /* \"contracts/Lottery System/Lottery.sol\":1076:1104  winner = participants[index] */\n      0x0100\n      exp\n      dup2\n      sload\n      dup2\n      0xffffffffffffffffffffffffffffffffffffffff\n      mul\n      not\n      and\n      swap1\n      dup4\n      0xffffffffffffffffffffffffffffffffffffffff\n      and\n      mul\n      or\n      swap1\n      sstore\n      pop\n        /* \"contracts/Lottery System/Lottery.sol\":1115:1121  winner */\n      0x02\n      0x00\n      swap1\n      sload\n      swap1\n      0x0100\n      exp\n      swap1\n      div\n      0xffffffffffffffffffffffffffffffffffffffff\n      and\n        /* \"contracts/Lottery System/Lottery.sol\":1115:1130  winner.transfer */\n      0xffffffffffffffffffffffffffffffffffffffff\n      and\n        /* \"contracts/Lottery System/Lottery.sol\":1115:1144  winner.transfer(getBalance()) */\n      0x08fc\n        /* \"contracts/Lottery System/Lottery.sol\":1131:1143  getBalance() */\n      tag_54\n        /* \"contracts/Lottery System/Lottery.sol\":1131:1141  getBalance */\n      tag_14\n        /* \"contracts/Lottery System/Lottery.sol\":1131:1143  getBalance() */\n      jump\t// in\n    tag_54:\n        /* \"contracts/Lottery System/Lottery.sol\":1115:1144  winner.transfer(getBalance()) */\n      swap1\n      dup2\n      iszero\n      mul\n      swap1\n      mload(0x40)\n      0x00\n      mload(0x40)\n      dup1\n      dup4\n      sub\n      dup2\n      dup6\n      dup9\n      dup9\n      call\n      swap4\n      pop\n      pop\n      pop\n      pop\n      iszero\n      dup1\n      iszero\n      tag_56\n      jumpi\n      returndatasize\n      0x00\n      dup1\n      returndatacopy\n      revert(0x00, returndatasize)\n    tag_56:\n      pop\n        /* \"contracts/Lottery System/Lottery.sol\":980:1152  {... */\n      pop\n      pop\n        /* \"contracts/Lottery System/Lottery.sol\":941:1152  function pickWinner() public onlyOwner {... */\n      jump\t// out\n        /* \"contracts/Lottery System/Lottery.sol\":775:935  function getRandomAddress() public view returns(uint){... */\n    tag_34:\n        /* \"contracts/Lottery System/Lottery.sol\":823:827  uint */\n      0x00\n        /* \"contracts/Lottery System/Lottery.sol\":878:893  block.timestamp */\n      timestamp\n        /* \"contracts/Lottery System/Lottery.sol\":894:910  block.difficulty */\n      difficulty\n        /* \"contracts/Lottery System/Lottery.sol\":912:924  participants */\n      0x01\n        /* \"contracts/Lottery System/Lottery.sol\":861:925  abi.encodePacked(block.timestamp,block.difficulty, participants) */\n      add(0x20, mload(0x40))\n      tag_58\n      swap4\n      swap3\n      swap2\n      swap1\n      tag_59\n      jump\t// in\n    tag_58:\n      mload(0x40)\n      0x20\n      dup2\n      dup4\n      sub\n      sub\n      dup2\n      mstore\n      swap1\n      0x40\n      mstore\n        /* \"contracts/Lottery System/Lottery.sol\":851:926  keccak256(abi.encodePacked(block.timestamp,block.difficulty, participants)) */\n      dup1\n      mload\n      swap1\n      0x20\n      add\n      keccak256\n        /* \"contracts/Lottery System/Lottery.sol\":846:927  uint(keccak256(abi.encodePacked(block.timestamp,block.difficulty, participants))) */\n      0x00\n      shr\n        /* \"contracts/Lottery System/Lottery.sol\":839:927  return uint(keccak256(abi.encodePacked(block.timestamp,block.difficulty, participants))) */\n      swap1\n      pop\n        /* \"contracts/Lottery System/Lottery.sol\":775:935  function getRandomAddress() public view returns(uint){... */\n      swap1\n      jump\t// out\n        /* \"#utility.yul\":7:84   */\n    tag_60:\n        /* \"#utility.yul\":44:51   */\n      0x00\n        /* \"#utility.yul\":73:78   */\n      dup2\n        /* \"#utility.yul\":62:78   */\n      swap1\n      pop\n        /* \"#utility.yul\":7:84   */\n      swap2\n      swap1\n      pop\n      jump\t// out\n        /* \"#utility.yul\":90:208   */\n    tag_61:\n        /* \"#utility.yul\":177:201   */\n      tag_92\n        /* \"#utility.yul\":195:200   */\n      dup2\n        /* \"#utility.yul\":177:201   */\n      tag_60\n      jump\t// in\n    tag_92:\n        /* \"#utility.yul\":172:175   */\n      dup3\n        /* \"#utility.yul\":165:202   */\n      mstore\n        /* \"#utility.yul\":90:208   */\n      pop\n      pop\n      jump\t// out\n        /* \"#utility.yul\":214:436   */\n    tag_16:\n        /* \"#utility.yul\":307:311   */\n      0x00\n        /* \"#utility.yul\":345:347   */\n      0x20\n        /* \"#utility.yul\":334:343   */\n      dup3\n        /* \"#utility.yul\":330:348   */\n      add\n        /* \"#utility.yul\":322:348   */\n      swap1\n      pop\n        /* \"#utility.yul\":358:429   */\n      tag_94\n        /* \"#utility.yul\":426:427   */\n      0x00\n        /* \"#utility.yul\":415:424   */\n      dup4\n        /* \"#utility.yul\":411:428   */\n      add\n        /* \"#utility.yul\":402:408   */\n      dup5\n        /* \"#utility.yul\":358:429   */\n      tag_61\n      jump\t// in\n    tag_94:\n        /* \"#utility.yul\":214:436   */\n      swap3\n      swap2\n      pop\n      pop\n      jump\t// out\n        /* \"#utility.yul\":523:640   */\n    tag_63:\n        /* \"#utility.yul\":632:633   */\n      0x00\n        /* \"#utility.yul\":629:630   */\n      dup1\n        /* \"#utility.yul\":622:634   */\n      revert\n        /* \"#utility.yul\":769:891   */\n    tag_65:\n        /* \"#utility.yul\":842:866   */\n      tag_99\n        /* \"#utility.yul\":860:865   */\n      dup2\n        /* \"#utility.yul\":842:866   */\n      tag_60\n      jump\t// in\n    tag_99:\n        /* \"#utility.yul\":835:840   */\n      dup2\n        /* \"#utility.yul\":832:867   */\n      eq\n        /* \"#utility.yul\":822:885   */\n      tag_100\n      jumpi\n        /* \"#utility.yul\":881:882   */\n      0x00\n        /* \"#utility.yul\":878:879   */\n      dup1\n        /* \"#utility.yul\":871:883   */\n      revert\n        /* \"#utility.yul\":822:885   */\n    tag_100:\n        /* \"#utility.yul\":769:891   */\n      pop\n      jump\t// out\n        /* \"#utility.yul\":897:1036   */\n    tag_66:\n        /* \"#utility.yul\":943:948   */\n      0x00\n        /* \"#utility.yul\":981:987   */\n      dup2\n        /* \"#utility.yul\":968:988   */\n      calldataload\n        /* \"#utility.yul\":959:988   */\n      swap1\n      pop\n        /* \"#utility.yul\":997:1030   */\n      tag_102\n        /* \"#utility.yul\":1024:1029   */\n      dup2\n        /* \"#utility.yul\":997:1030   */\n      tag_65\n      jump\t// in\n    tag_102:\n        /* \"#utility.yul\":897:1036   */\n      swap3\n      swap2\n      pop\n      pop\n      jump\t// out\n        /* \"#utility.yul\":1042:1371   */\n    tag_20:\n        /* \"#utility.yul\":1101:1107   */\n      0x00\n        /* \"#utility.yul\":1150:1152   */\n      0x20\n        /* \"#utility.yul\":1138:1147   */\n      dup3\n        /* \"#utility.yul\":1129:1136   */\n      dup5\n        /* \"#utility.yul\":1125:1148   */\n      sub\n        /* \"#utility.yul\":1121:1153   */\n      slt\n        /* \"#utility.yul\":1118:1237   */\n      iszero\n      tag_104\n      jumpi\n        /* \"#utility.yul\":1156:1235   */\n      tag_105\n      tag_63\n      jump\t// in\n    tag_105:\n        /* \"#utility.yul\":1118:1237   */\n    tag_104:\n        /* \"#utility.yul\":1276:1277   */\n      0x00\n        /* \"#utility.yul\":1301:1354   */\n      tag_106\n        /* \"#utility.yul\":1346:1353   */\n      dup5\n        /* \"#utility.yul\":1337:1343   */\n      dup3\n        /* \"#utility.yul\":1326:1335   */\n      dup6\n        /* \"#utility.yul\":1322:1344   */\n      add\n        /* \"#utility.yul\":1301:1354   */\n      tag_66\n      jump\t// in\n    tag_106:\n        /* \"#utility.yul\":1291:1354   */\n      swap2\n      pop\n        /* \"#utility.yul\":1247:1364   */\n      pop\n        /* \"#utility.yul\":1042:1371   */\n      swap3\n      swap2\n      pop\n      pop\n      jump\t// out\n        /* \"#utility.yul\":1377:1503   */\n    tag_67:\n        /* \"#utility.yul\":1414:1421   */\n      0x00\n        /* \"#utility.yul\":1454:1496   */\n      0xffffffffffffffffffffffffffffffffffffffff\n        /* \"#utility.yul\":1447:1452   */\n      dup3\n        /* \"#utility.yul\":1443:1497   */\n      and\n        /* \"#utility.yul\":1432:1497   */\n      swap1\n      pop\n        /* \"#utility.yul\":1377:1503   */\n      swap2\n      swap1\n      pop\n      jump\t// out\n        /* \"#utility.yul\":1509:1613   */\n    tag_68:\n        /* \"#utility.yul\":1554:1561   */\n      0x00\n        /* \"#utility.yul\":1583:1607   */\n      tag_109\n        /* \"#utility.yul\":1601:1606   */\n      dup3\n        /* \"#utility.yul\":1583:1607   */\n      tag_67\n      jump\t// in\n    tag_109:\n        /* \"#utility.yul\":1572:1607   */\n      swap1\n      pop\n        /* \"#utility.yul\":1509:1613   */\n      swap2\n      swap1\n      pop\n      jump\t// out\n        /* \"#utility.yul\":1619:1761   */\n    tag_69:\n        /* \"#utility.yul\":1722:1754   */\n      tag_111\n        /* \"#utility.yul\":1748:1753   */\n      dup2\n        /* \"#utility.yul\":1722:1754   */\n      tag_68\n      jump\t// in\n    tag_111:\n        /* \"#utility.yul\":1717:1720   */\n      dup3\n        /* \"#utility.yul\":1710:1755   */\n      mstore\n        /* \"#utility.yul\":1619:1761   */\n      pop\n      pop\n      jump\t// out\n        /* \"#utility.yul\":1767:2021   */\n    tag_23:\n        /* \"#utility.yul\":1876:1880   */\n      0x00\n        /* \"#utility.yul\":1914:1916   */\n      0x20\n        /* \"#utility.yul\":1903:1912   */\n      dup3\n        /* \"#utility.yul\":1899:1917   */\n      add\n        /* \"#utility.yul\":1891:1917   */\n      swap1\n      pop\n        /* \"#utility.yul\":1927:2014   */\n      tag_113\n        /* \"#utility.yul\":2011:2012   */\n      0x00\n        /* \"#utility.yul\":2000:2009   */\n      dup4\n        /* \"#utility.yul\":1996:2013   */\n      add\n        /* \"#utility.yul\":1987:1993   */\n      dup5\n        /* \"#utility.yul\":1927:2014   */\n      tag_69\n      jump\t// in\n    tag_113:\n        /* \"#utility.yul\":1767:2021   */\n      swap3\n      swap2\n      pop\n      pop\n      jump\t// out\n        /* \"#utility.yul\":2027:2123   */\n    tag_70:\n        /* \"#utility.yul\":2064:2071   */\n      0x00\n        /* \"#utility.yul\":2093:2117   */\n      tag_115\n        /* \"#utility.yul\":2111:2116   */\n      dup3\n        /* \"#utility.yul\":2093:2117   */\n      tag_67\n      jump\t// in\n    tag_115:\n        /* \"#utility.yul\":2082:2117   */\n      swap1\n      pop\n        /* \"#utility.yul\":2027:2123   */\n      swap2\n      swap1\n      pop\n      jump\t// out\n        /* \"#utility.yul\":2129:2247   */\n    tag_71:\n        /* \"#utility.yul\":2216:2240   */\n      tag_117\n        /* \"#utility.yul\":2234:2239   */\n      dup2\n        /* \"#utility.yul\":2216:2240   */\n      tag_70\n      jump\t// in\n    tag_117:\n        /* \"#utility.yul\":2211:2214   */\n      dup3\n        /* \"#utility.yul\":2204:2241   */\n      mstore\n        /* \"#utility.yul\":2129:2247   */\n      pop\n      pop\n      jump\t// out\n        /* \"#utility.yul\":2253:2475   */\n    tag_28:\n        /* \"#utility.yul\":2346:2350   */\n      0x00\n        /* \"#utility.yul\":2384:2386   */\n      0x20\n        /* \"#utility.yul\":2373:2382   */\n      dup3\n        /* \"#utility.yul\":2369:2387   */\n      add\n        /* \"#utility.yul\":2361:2387   */\n      swap1\n      pop\n        /* \"#utility.yul\":2397:2468   */\n      tag_119\n        /* \"#utility.yul\":2465:2466   */\n      0x00\n        /* \"#utility.yul\":2454:2463   */\n      dup4\n        /* \"#utility.yul\":2450:2467   */\n      add\n        /* \"#utility.yul\":2441:2447   */\n      dup5\n        /* \"#utility.yul\":2397:2468   */\n      tag_71\n      jump\t// in\n    tag_119:\n        /* \"#utility.yul\":2253:2475   */\n      swap3\n      swap2\n      pop\n      pop\n      jump\t// out\n        /* \"#utility.yul\":2481:2650   */\n    tag_72:\n        /* \"#utility.yul\":2565:2576   */\n      0x00\n        /* \"#utility.yul\":2599:2605   */\n      dup3\n        /* \"#utility.yul\":2594:2597   */\n      dup3\n        /* \"#utility.yul\":2587:2606   */\n      mstore\n        /* \"#utility.yul\":2639:2643   */\n      0x20\n        /* \"#utility.yul\":2634:2637   */\n      dup3\n        /* \"#utility.yul\":2630:2644   */\n      add\n        /* \"#utility.yul\":2615:2644   */\n      swap1\n      pop\n        /* \"#utility.yul\":2481:2650   */\n      swap3\n      swap2\n      pop\n      pop\n      jump\t// out\n        /* \"#utility.yul\":2656:2896   */\n    tag_73:\n        /* \"#utility.yul\":2796:2830   */\n      0x4f6e6c79206f776e657273206172652061626c6520746f207365652074686520\n        /* \"#utility.yul\":2792:2793   */\n      0x00\n        /* \"#utility.yul\":2784:2790   */\n      dup3\n        /* \"#utility.yul\":2780:2794   */\n      add\n        /* \"#utility.yul\":2773:2831   */\n      mstore\n        /* \"#utility.yul\":2865:2888   */\n      0x746f74616c206e756d626572206f662066756e64730000000000000000000000\n        /* \"#utility.yul\":2860:2862   */\n      0x20\n        /* \"#utility.yul\":2852:2858   */\n      dup3\n        /* \"#utility.yul\":2848:2863   */\n      add\n        /* \"#utility.yul\":2841:2889   */\n      mstore\n        /* \"#utility.yul\":2656:2896   */\n      pop\n      jump\t// out\n        /* \"#utility.yul\":2902:3268   */\n    tag_74:\n        /* \"#utility.yul\":3044:3047   */\n      0x00\n        /* \"#utility.yul\":3065:3132   */\n      tag_123\n        /* \"#utility.yul\":3129:3131   */\n      0x35\n        /* \"#utility.yul\":3124:3127   */\n      dup4\n        /* \"#utility.yul\":3065:3132   */\n      tag_72\n      jump\t// in\n    tag_123:\n        /* \"#utility.yul\":3058:3132   */\n      swap2\n      pop\n        /* \"#utility.yul\":3141:3234   */\n      tag_124\n        /* \"#utility.yul\":3230:3233   */\n      dup3\n        /* \"#utility.yul\":3141:3234   */\n      tag_73\n      jump\t// in\n    tag_124:\n        /* \"#utility.yul\":3259:3261   */\n      0x40\n        /* \"#utility.yul\":3254:3257   */\n      dup3\n        /* \"#utility.yul\":3250:3262   */\n      add\n        /* \"#utility.yul\":3243:3262   */\n      swap1\n      pop\n        /* \"#utility.yul\":2902:3268   */\n      swap2\n      swap1\n      pop\n      jump\t// out\n        /* \"#utility.yul\":3274:3693   */\n    tag_39:\n        /* \"#utility.yul\":3440:3444   */\n      0x00\n        /* \"#utility.yul\":3478:3480   */\n      0x20\n        /* \"#utility.yul\":3467:3476   */\n      dup3\n        /* \"#utility.yul\":3463:3481   */\n      add\n        /* \"#utility.yul\":3455:3481   */\n      swap1\n      pop\n        /* \"#utility.yul\":3527:3536   */\n      dup2\n        /* \"#utility.yul\":3521:3525   */\n      dup2\n        /* \"#utility.yul\":3517:3537   */\n      sub\n        /* \"#utility.yul\":3513:3514   */\n      0x00\n        /* \"#utility.yul\":3502:3511   */\n      dup4\n        /* \"#utility.yul\":3498:3515   */\n      add\n        /* \"#utility.yul\":3491:3538   */\n      mstore\n        /* \"#utility.yul\":3555:3686   */\n      tag_126\n        /* \"#utility.yul\":3681:3685   */\n      dup2\n        /* \"#utility.yul\":3555:3686   */\n      tag_74\n      jump\t// in\n    tag_126:\n        /* \"#utility.yul\":3547:3686   */\n      swap1\n      pop\n        /* \"#utility.yul\":3274:3693   */\n      swap2\n      swap1\n      pop\n      jump\t// out\n        /* \"#utility.yul\":3699:3879   */\n    tag_75:\n        /* \"#utility.yul\":3747:3824   */\n      0x4e487b7100000000000000000000000000000000000000000000000000000000\n        /* \"#utility.yul\":3744:3745   */\n      0x00\n        /* \"#utility.yul\":3737:3825   */\n      mstore\n        /* \"#utility.yul\":3844:3848   */\n      0x12\n        /* \"#utility.yul\":3841:3842   */\n      0x04\n        /* \"#utility.yul\":3834:3849   */\n      mstore\n        /* \"#utility.yul\":3868:3872   */\n      0x24\n        /* \"#utility.yul\":3865:3866   */\n      0x00\n        /* \"#utility.yul\":3858:3873   */\n      revert\n        /* \"#utility.yul\":3885:4061   */\n    tag_49:\n        /* \"#utility.yul\":3917:3918   */\n      0x00\n        /* \"#utility.yul\":3934:3954   */\n      tag_129\n        /* \"#utility.yul\":3952:3953   */\n      dup3\n        /* \"#utility.yul\":3934:3954   */\n      tag_60\n      jump\t// in\n    tag_129:\n        /* \"#utility.yul\":3929:3954   */\n      swap2\n      pop\n        /* \"#utility.yul\":3968:3988   */\n      tag_130\n        /* \"#utility.yul\":3986:3987   */\n      dup4\n        /* \"#utility.yul\":3968:3988   */\n      tag_60\n      jump\t// in\n    tag_130:\n        /* \"#utility.yul\":3963:3988   */\n      swap3\n      pop\n        /* \"#utility.yul\":4007:4008   */\n      dup3\n        /* \"#utility.yul\":3997:4032   */\n      tag_131\n      jumpi\n        /* \"#utility.yul\":4012:4030   */\n      tag_132\n      tag_75\n      jump\t// in\n    tag_132:\n        /* \"#utility.yul\":3997:4032   */\n    tag_131:\n        /* \"#utility.yul\":4053:4054   */\n      dup3\n        /* \"#utility.yul\":4050:4051   */\n      dup3\n        /* \"#utility.yul\":4046:4055   */\n      mod\n        /* \"#utility.yul\":4041:4055   */\n      swap1\n      pop\n        /* \"#utility.yul\":3885:4061   */\n      swap3\n      swap2\n      pop\n      pop\n      jump\t// out\n        /* \"#utility.yul\":4067:4247   */\n    tag_52:\n        /* \"#utility.yul\":4115:4192   */\n      0x4e487b7100000000000000000000000000000000000000000000000000000000\n        /* \"#utility.yul\":4112:4113   */\n      0x00\n        /* \"#utility.yul\":4105:4193   */\n      mstore\n        /* \"#utility.yul\":4212:4216   */\n      0x32\n        /* \"#utility.yul\":4209:4210   */\n      0x04\n        /* \"#utility.yul\":4202:4217   */\n      mstore\n        /* \"#utility.yul\":4236:4240   */\n      0x24\n        /* \"#utility.yul\":4233:4234   */\n      0x00\n        /* \"#utility.yul\":4226:4241   */\n      revert\n        /* \"#utility.yul\":4253:4332   */\n    tag_76:\n        /* \"#utility.yul\":4292:4299   */\n      0x00\n        /* \"#utility.yul\":4321:4326   */\n      dup2\n        /* \"#utility.yul\":4310:4326   */\n      swap1\n      pop\n        /* \"#utility.yul\":4253:4332   */\n      swap2\n      swap1\n      pop\n      jump\t// out\n        /* \"#utility.yul\":4338:4495   */\n    tag_77:\n        /* \"#utility.yul\":4443:4488   */\n      tag_136\n        /* \"#utility.yul\":4463:4487   */\n      tag_137\n        /* \"#utility.yul\":4481:4486   */\n      dup3\n        /* \"#utility.yul\":4463:4487   */\n      tag_60\n      jump\t// in\n    tag_137:\n        /* \"#utility.yul\":4443:4488   */\n      tag_76\n      jump\t// in\n    tag_136:\n        /* \"#utility.yul\":4438:4441   */\n      dup3\n        /* \"#utility.yul\":4431:4489   */\n      mstore\n        /* \"#utility.yul\":4338:4495   */\n      pop\n      pop\n      jump\t// out\n        /* \"#utility.yul\":4501:4620   */\n    tag_78:\n        /* \"#utility.yul\":4573:4579   */\n      0x00\n        /* \"#utility.yul\":4607:4612   */\n      dup2\n        /* \"#utility.yul\":4601:4613   */\n      sload\n        /* \"#utility.yul\":4591:4613   */\n      swap1\n      pop\n        /* \"#utility.yul\":4501:4620   */\n      swap2\n      swap1\n      pop\n      jump\t// out\n        /* \"#utility.yul\":4626:4797   */\n    tag_79:\n        /* \"#utility.yul\":4751:4762   */\n      0x00\n        /* \"#utility.yul\":4788:4791   */\n      dup2\n        /* \"#utility.yul\":4773:4791   */\n      swap1\n      pop\n        /* \"#utility.yul\":4626:4797   */\n      swap3\n      swap2\n      pop\n      pop\n      jump\t// out\n        /* \"#utility.yul\":4803:4967   */\n    tag_80:\n        /* \"#utility.yul\":4875:4879   */\n      0x00\n        /* \"#utility.yul\":4898:4901   */\n      dup2\n        /* \"#utility.yul\":4890:4901   */\n      swap1\n      pop\n        /* \"#utility.yul\":4921:4924   */\n      dup2\n        /* \"#utility.yul\":4918:4919   */\n      0x00\n        /* \"#utility.yul\":4911:4925   */\n      mstore\n        /* \"#utility.yul\":4955:4959   */\n      0x20\n        /* \"#utility.yul\":4952:4953   */\n      0x00\n        /* \"#utility.yul\":4942:4960   */\n      keccak256\n        /* \"#utility.yul\":4934:4960   */\n      swap1\n      pop\n        /* \"#utility.yul\":4803:4967   */\n      swap2\n      swap1\n      pop\n      jump\t// out\n        /* \"#utility.yul\":4973:5113   */\n    tag_81:\n        /* \"#utility.yul\":5074:5106   */\n      tag_142\n        /* \"#utility.yul\":5100:5105   */\n      dup2\n        /* \"#utility.yul\":5074:5106   */\n      tag_68\n      jump\t// in\n    tag_142:\n        /* \"#utility.yul\":5069:5072   */\n      dup3\n        /* \"#utility.yul\":5062:5107   */\n      mstore\n        /* \"#utility.yul\":4973:5113   */\n      pop\n      pop\n      jump\t// out\n        /* \"#utility.yul\":5119:5346   */\n    tag_82:\n        /* \"#utility.yul\":5212:5222   */\n      0x00\n        /* \"#utility.yul\":5233:5303   */\n      tag_144\n        /* \"#utility.yul\":5299:5302   */\n      dup4\n        /* \"#utility.yul\":5291:5297   */\n      dup4\n        /* \"#utility.yul\":5233:5303   */\n      tag_81\n      jump\t// in\n    tag_144:\n        /* \"#utility.yul\":5335:5339   */\n      0x20\n        /* \"#utility.yul\":5330:5333   */\n      dup4\n        /* \"#utility.yul\":5326:5340   */\n      add\n        /* \"#utility.yul\":5312:5340   */\n      swap1\n      pop\n        /* \"#utility.yul\":5119:5346   */\n      swap3\n      swap2\n      pop\n      pop\n      jump\t// out\n        /* \"#utility.yul\":5352:5454   */\n    tag_83:\n        /* \"#utility.yul\":5394:5402   */\n      0x00\n        /* \"#utility.yul\":5441:5446   */\n      dup2\n        /* \"#utility.yul\":5438:5439   */\n      0x00\n        /* \"#utility.yul\":5434:5447   */\n      shr\n        /* \"#utility.yul\":5413:5447   */\n      swap1\n      pop\n        /* \"#utility.yul\":5352:5454   */\n      swap2\n      swap1\n      pop\n      jump\t// out\n        /* \"#utility.yul\":5460:5607   */\n    tag_84:\n        /* \"#utility.yul\":5518:5525   */\n      0x00\n        /* \"#utility.yul\":5558:5600   */\n      0xffffffffffffffffffffffffffffffffffffffff\n        /* \"#utility.yul\":5551:5556   */\n      dup3\n        /* \"#utility.yul\":5547:5601   */\n      and\n        /* \"#utility.yul\":5536:5601   */\n      swap1\n      pop\n        /* \"#utility.yul\":5460:5607   */\n      swap2\n      swap1\n      pop\n      jump\t// out\n        /* \"#utility.yul\":5613:5795   */\n    tag_85:\n        /* \"#utility.yul\":5690:5695   */\n      0x00\n        /* \"#utility.yul\":5715:5789   */\n      tag_148\n        /* \"#utility.yul\":5754:5788   */\n      tag_149\n        /* \"#utility.yul\":5777:5787   */\n      dup4\n        /* \"#utility.yul\":5754:5788   */\n      tag_83\n      jump\t// in\n    tag_149:\n        /* \"#utility.yul\":5715:5789   */\n      tag_84\n      jump\t// in\n    tag_148:\n        /* \"#utility.yul\":5706:5789   */\n      swap1\n      pop\n        /* \"#utility.yul\":5613:5795   */\n      swap2\n      swap1\n      pop\n      jump\t// out\n        /* \"#utility.yul\":5801:5961   */\n    tag_86:\n        /* \"#utility.yul\":5864:5869   */\n      0x00\n        /* \"#utility.yul\":5889:5954   */\n      tag_151\n        /* \"#utility.yul\":5948:5952   */\n      dup3\n        /* \"#utility.yul\":5942:5953   */\n      sload\n        /* \"#utility.yul\":5889:5954   */\n      tag_85\n      jump\t// in\n    tag_151:\n        /* \"#utility.yul\":5880:5954   */\n      swap1\n      pop\n        /* \"#utility.yul\":5801:5961   */\n      swap2\n      swap1\n      pop\n      jump\t// out\n        /* \"#utility.yul\":5967:6085   */\n    tag_87:\n        /* \"#utility.yul\":6042:6046   */\n      0x00\n        /* \"#utility.yul\":6074:6078   */\n      0x01\n        /* \"#utility.yul\":6069:6072   */\n      dup3\n        /* \"#utility.yul\":6065:6079   */\n      add\n        /* \"#utility.yul\":6057:6079   */\n      swap1\n      pop\n        /* \"#utility.yul\":5967:6085   */\n      swap2\n      swap1\n      pop\n      jump\t// out\n        /* \"#utility.yul\":6137:7004   */\n    tag_88:\n        /* \"#utility.yul\":6287:6290   */\n      0x00\n        /* \"#utility.yul\":6316:6375   */\n      tag_154\n        /* \"#utility.yul\":6369:6374   */\n      dup3\n        /* \"#utility.yul\":6316:6375   */\n      tag_78\n      jump\t// in\n    tag_154:\n        /* \"#utility.yul\":6391:6503   */\n      tag_155\n        /* \"#utility.yul\":6496:6502   */\n      dup2\n        /* \"#utility.yul\":6491:6494   */\n      dup6\n        /* \"#utility.yul\":6391:6503   */\n      tag_79\n      jump\t// in\n    tag_155:\n        /* \"#utility.yul\":6384:6503   */\n      swap4\n      pop\n        /* \"#utility.yul\":6527:6588   */\n      tag_156\n        /* \"#utility.yul\":6582:6587   */\n      dup4\n        /* \"#utility.yul\":6527:6588   */\n      tag_80\n      jump\t// in\n    tag_156:\n        /* \"#utility.yul\":6611:6618   */\n      dup1\n        /* \"#utility.yul\":6642:6643   */\n      0x00\n        /* \"#utility.yul\":6627:6979   */\n    tag_157:\n        /* \"#utility.yul\":6652:6658   */\n      dup4\n        /* \"#utility.yul\":6649:6650   */\n      dup2\n        /* \"#utility.yul\":6646:6659   */\n      lt\n        /* \"#utility.yul\":6627:6979   */\n      iszero\n      tag_159\n      jumpi\n        /* \"#utility.yul\":6722:6774   */\n      tag_160\n        /* \"#utility.yul\":6767:6773   */\n      dup3\n        /* \"#utility.yul\":6722:6774   */\n      tag_86\n      jump\t// in\n    tag_160:\n        /* \"#utility.yul\":6794:6881   */\n      tag_161\n        /* \"#utility.yul\":6877:6880   */\n      dup9\n        /* \"#utility.yul\":6862:6875   */\n      dup3\n        /* \"#utility.yul\":6794:6881   */\n      tag_82\n      jump\t// in\n    tag_161:\n        /* \"#utility.yul\":6787:6881   */\n      swap8\n      pop\n        /* \"#utility.yul\":6904:6969   */\n      tag_162\n        /* \"#utility.yul\":6962:6968   */\n      dup4\n        /* \"#utility.yul\":6904:6969   */\n      tag_87\n      jump\t// in\n    tag_162:\n        /* \"#utility.yul\":6894:6969   */\n      swap3\n      pop\n        /* \"#utility.yul\":6687:6979   */\n      pop\n        /* \"#utility.yul\":6674:6675   */\n      0x01\n        /* \"#utility.yul\":6671:6672   */\n      dup2\n        /* \"#utility.yul\":6667:6676   */\n      add\n        /* \"#utility.yul\":6662:6676   */\n      swap1\n      pop\n        /* \"#utility.yul\":6627:6979   */\n      jump(tag_157)\n    tag_159:\n        /* \"#utility.yul\":6631:6645   */\n      pop\n        /* \"#utility.yul\":6995:6998   */\n      dup6\n        /* \"#utility.yul\":6988:6998   */\n      swap4\n      pop\n        /* \"#utility.yul\":6292:7004   */\n      pop\n      pop\n      pop\n        /* \"#utility.yul\":6137:7004   */\n      swap3\n      swap2\n      pop\n      pop\n      jump\t// out\n        /* \"#utility.yul\":7010:7653   */\n    tag_59:\n        /* \"#utility.yul\":7241:7244   */\n      0x00\n        /* \"#utility.yul\":7256:7331   */\n      tag_164\n        /* \"#utility.yul\":7327:7330   */\n      dup3\n        /* \"#utility.yul\":7318:7324   */\n      dup7\n        /* \"#utility.yul\":7256:7331   */\n      tag_77\n      jump\t// in\n    tag_164:\n        /* \"#utility.yul\":7356:7358   */\n      0x20\n        /* \"#utility.yul\":7351:7354   */\n      dup3\n        /* \"#utility.yul\":7347:7359   */\n      add\n        /* \"#utility.yul\":7340:7359   */\n      swap2\n      pop\n        /* \"#utility.yul\":7369:7444   */\n      tag_165\n        /* \"#utility.yul\":7440:7443   */\n      dup3\n        /* \"#utility.yul\":7431:7437   */\n      dup6\n        /* \"#utility.yul\":7369:7444   */\n      tag_77\n      jump\t// in\n    tag_165:\n        /* \"#utility.yul\":7469:7471   */\n      0x20\n        /* \"#utility.yul\":7464:7467   */\n      dup3\n        /* \"#utility.yul\":7460:7472   */\n      add\n        /* \"#utility.yul\":7453:7472   */\n      swap2\n      pop\n        /* \"#utility.yul\":7489:7627   */\n      tag_166\n        /* \"#utility.yul\":7623:7626   */\n      dup3\n        /* \"#utility.yul\":7614:7620   */\n      dup5\n        /* \"#utility.yul\":7489:7627   */\n      tag_88\n      jump\t// in\n    tag_166:\n        /* \"#utility.yul\":7482:7627   */\n      swap2\n      pop\n        /* \"#utility.yul\":7644:7647   */\n      dup2\n        /* \"#utility.yul\":7637:7647   */\n      swap1\n      pop\n        /* \"#utility.yul\":7010:7653   */\n      swap5\n      swap4\n      pop\n      pop\n      pop\n      pop\n      jump\t// out\n\n    auxdata: 0xa26469706673582212202dadf66c9c6bed58abb57ea94de1244353f4ae6d2291bad6f0aa64e4c3fadf2c64736f6c634300080d0033\n}\n",
				"bytecode": {
					"linkReferences": {},
					"object": "608060405234801561001057600080fd5b50336000806101000a81548173ffffffffffffffffffffffffffffffffffffffff021916908373ffffffffffffffffffffffffffffffffffffffff160217905550610882806100606000396000f3fe60806040526004361061004e5760003560e01c806312065fe0146100d157806335c1d349146100fc578063481c6a75146101395780635d495aea14610164578063edd0eb061461017b576100cc565b366100cc57670de0b6b3a764000034101561006857600080fd5b6001339080600181540180825580915050600190039060005260206000200160009091909190916101000a81548173ffffffffffffffffffffffffffffffffffffffff021916908373ffffffffffffffffffffffffffffffffffffffff1602179055005b600080fd5b3480156100dd57600080fd5b506100e66101a6565b6040516100f39190610491565b60405180910390f35b34801561010857600080fd5b50610123600480360381019061011e91906104dd565b61023d565b604051610130919061054b565b60405180910390f35b34801561014557600080fd5b5061014e61027c565b60405161015b9190610587565b60405180910390f35b34801561017057600080fd5b506101796102a0565b005b34801561018757600080fd5b50610190610442565b60405161019d9190610491565b60405180910390f35b60008060009054906101000a900473ffffffffffffffffffffffffffffffffffffffff1673ffffffffffffffffffffffffffffffffffffffff163373ffffffffffffffffffffffffffffffffffffffff1614610237576040517f08c379a000000000000000000000000000000000000000000000000000000000815260040161022e90610625565b60405180910390fd5b47905090565b6001818154811061024d57600080fd5b906000526020600020016000915054906101000a900473ffffffffffffffffffffffffffffffffffffffff1681565b60008054906101000a900473ffffffffffffffffffffffffffffffffffffffff1681565b60008054906101000a900473ffffffffffffffffffffffffffffffffffffffff1673ffffffffffffffffffffffffffffffffffffffff163373ffffffffffffffffffffffffffffffffffffffff161461032e576040517f08c379a000000000000000000000000000000000000000000000000000000000815260040161032590610625565b60405180910390fd5b6000610338610442565b905060006001805490508261034d9190610674565b905060018181548110610363576103626106a5565b5b9060005260206000200160009054906101000a900473ffffffffffffffffffffffffffffffffffffffff16600260006101000a81548173ffffffffffffffffffffffffffffffffffffffff021916908373ffffffffffffffffffffffffffffffffffffffff160217905550600260009054906101000a900473ffffffffffffffffffffffffffffffffffffffff1673ffffffffffffffffffffffffffffffffffffffff166108fc6104126101a6565b9081150290604051600060405180830381858888f1935050505015801561043d573d6000803e3d6000fd5b505050565b60004244600160405160200161045a93929190610813565b6040516020818303038152906040528051906020012060001c905090565b6000819050919050565b61048b81610478565b82525050565b60006020820190506104a66000830184610482565b92915050565b600080fd5b6104ba81610478565b81146104c557600080fd5b50565b6000813590506104d7816104b1565b92915050565b6000602082840312156104f3576104f26104ac565b5b6000610501848285016104c8565b91505092915050565b600073ffffffffffffffffffffffffffffffffffffffff82169050919050565b60006105358261050a565b9050919050565b6105458161052a565b82525050565b6000602082019050610560600083018461053c565b92915050565b60006105718261050a565b9050919050565b61058181610566565b82525050565b600060208201905061059c6000830184610578565b92915050565b600082825260208201905092915050565b7f4f6e6c79206f776e657273206172652061626c6520746f20736565207468652060008201527f746f74616c206e756d626572206f662066756e64730000000000000000000000602082015250565b600061060f6035836105a2565b915061061a826105b3565b604082019050919050565b6000602082019050818103600083015261063e81610602565b9050919050565b7f4e487b7100000000000000000000000000000000000000000000000000000000600052601260045260246000fd5b600061067f82610478565b915061068a83610478565b92508261069a57610699610645565b5b828206905092915050565b7f4e487b7100000000000000000000000000000000000000000000000000000000600052603260045260246000fd5b6000819050919050565b6106ef6106ea82610478565b6106d4565b82525050565b600081549050919050565b600081905092915050565b60008190508160005260206000209050919050565b6107298161052a565b82525050565b600061073b8383610720565b60208301905092915050565b60008160001c9050919050565b600073ffffffffffffffffffffffffffffffffffffffff82169050919050565b600061078761078283610747565b610754565b9050919050565b600061079a8254610774565b9050919050565b6000600182019050919050565b60006107b9826106f5565b6107c38185610700565b93506107ce8361070b565b8060005b83811015610806576107e38261078e565b6107ed888261072f565b97506107f8836107a1565b9250506001810190506107d2565b5085935050505092915050565b600061081f82866106de565b60208201915061082f82856106de565b60208201915061083f82846107ae565b915081905094935050505056fea26469706673582212202dadf66c9c6bed58abb57ea94de1244353f4ae6d2291bad6f0aa64e4c3fadf2c64736f6c634300080d0033",
					"opcodes": "PUSH1 0x80 PUSH1 0x40 MSTORE CALLVALUE DUP1 ISZERO PUSH2 0x10 JUMPI PUSH1 0x0 DUP1 REVERT JUMPDEST POP CALLER PUSH1 0x0 DUP1 PUSH2 0x100 EXP DUP2 SLOAD DUP2 PUSH20 0xFFFFFFFFFFFFFFFFFFFFFFFFFFFFFFFFFFFFFFFF MUL NOT AND SWAP1 DUP4 PUSH20 0xFFFFFFFFFFFFFFFFFFFFFFFFFFFFFFFFFFFFFFFF AND MUL OR SWAP1 SSTORE POP PUSH2 0x882 DUP1 PUSH2 0x60 PUSH1 0x0 CODECOPY PUSH1 0x0 RETURN INVALID PUSH1 0x80 PUSH1 0x40 MSTORE PUSH1 0x4 CALLDATASIZE LT PUSH2 0x4E JUMPI PUSH1 0x0 CALLDATALOAD PUSH1 0xE0 SHR DUP1 PUSH4 0x12065FE0 EQ PUSH2 0xD1 JUMPI DUP1 PUSH4 0x35C1D349 EQ PUSH2 0xFC JUMPI DUP1 PUSH4 0x481C6A75 EQ PUSH2 0x139 JUMPI DUP1 PUSH4 0x5D495AEA EQ PUSH2 0x164 JUMPI DUP1 PUSH4 0xEDD0EB06 EQ PUSH2 0x17B JUMPI PUSH2 0xCC JUMP JUMPDEST CALLDATASIZE PUSH2 0xCC JUMPI PUSH8 0xDE0B6B3A7640000 CALLVALUE LT ISZERO PUSH2 0x68 JUMPI PUSH1 0x0 DUP1 REVERT JUMPDEST PUSH1 0x1 CALLER SWAP1 DUP1 PUSH1 0x1 DUP2 SLOAD ADD DUP1 DUP3 SSTORE DUP1 SWAP2 POP POP PUSH1 0x1 SWAP1 SUB SWAP1 PUSH1 0x0 MSTORE PUSH1 0x20 PUSH1 0x0 KECCAK256 ADD PUSH1 0x0 SWAP1 SWAP2 SWAP1 SWAP2 SWAP1 SWAP2 PUSH2 0x100 EXP DUP2 SLOAD DUP2 PUSH20 0xFFFFFFFFFFFFFFFFFFFFFFFFFFFFFFFFFFFFFFFF MUL NOT AND SWAP1 DUP4 PUSH20 0xFFFFFFFFFFFFFFFFFFFFFFFFFFFFFFFFFFFFFFFF AND MUL OR SWAP1 SSTORE STOP JUMPDEST PUSH1 0x0 DUP1 REVERT JUMPDEST CALLVALUE DUP1 ISZERO PUSH2 0xDD JUMPI PUSH1 0x0 DUP1 REVERT JUMPDEST POP PUSH2 0xE6 PUSH2 0x1A6 JUMP JUMPDEST PUSH1 0x40 MLOAD PUSH2 0xF3 SWAP2 SWAP1 PUSH2 0x491 JUMP JUMPDEST PUSH1 0x40 MLOAD DUP1 SWAP2 SUB SWAP1 RETURN JUMPDEST CALLVALUE DUP1 ISZERO PUSH2 0x108 JUMPI PUSH1 0x0 DUP1 REVERT JUMPDEST POP PUSH2 0x123 PUSH1 0x4 DUP1 CALLDATASIZE SUB DUP2 ADD SWAP1 PUSH2 0x11E SWAP2 SWAP1 PUSH2 0x4DD JUMP JUMPDEST PUSH2 0x23D JUMP JUMPDEST PUSH1 0x40 MLOAD PUSH2 0x130 SWAP2 SWAP1 PUSH2 0x54B JUMP JUMPDEST PUSH1 0x40 MLOAD DUP1 SWAP2 SUB SWAP1 RETURN JUMPDEST CALLVALUE DUP1 ISZERO PUSH2 0x145 JUMPI PUSH1 0x0 DUP1 REVERT JUMPDEST POP PUSH2 0x14E PUSH2 0x27C JUMP JUMPDEST PUSH1 0x40 MLOAD PUSH2 0x15B SWAP2 SWAP1 PUSH2 0x587 JUMP JUMPDEST PUSH1 0x40 MLOAD DUP1 SWAP2 SUB SWAP1 RETURN JUMPDEST CALLVALUE DUP1 ISZERO PUSH2 0x170 JUMPI PUSH1 0x0 DUP1 REVERT JUMPDEST POP PUSH2 0x179 PUSH2 0x2A0 JUMP JUMPDEST STOP JUMPDEST CALLVALUE DUP1 ISZERO PUSH2 0x187 JUMPI PUSH1 0x0 DUP1 REVERT JUMPDEST POP PUSH2 0x190 PUSH2 0x442 JUMP JUMPDEST PUSH1 0x40 MLOAD PUSH2 0x19D SWAP2 SWAP1 PUSH2 0x491 JUMP JUMPDEST PUSH1 0x40 MLOAD DUP1 SWAP2 SUB SWAP1 RETURN JUMPDEST PUSH1 0x0 DUP1 PUSH1 0x0 SWAP1 SLOAD SWAP1 PUSH2 0x100 EXP SWAP1 DIV PUSH20 0xFFFFFFFFFFFFFFFFFFFFFFFFFFFFFFFFFFFFFFFF AND PUSH20 0xFFFFFFFFFFFFFFFFFFFFFFFFFFFFFFFFFFFFFFFF AND CALLER PUSH20 0xFFFFFFFFFFFFFFFFFFFFFFFFFFFFFFFFFFFFFFFF AND EQ PUSH2 0x237 JUMPI PUSH1 0x40 MLOAD PUSH32 0x8C379A000000000000000000000000000000000000000000000000000000000 DUP2 MSTORE PUSH1 0x4 ADD PUSH2 0x22E SWAP1 PUSH2 0x625 JUMP JUMPDEST PUSH1 0x40 MLOAD DUP1 SWAP2 SUB SWAP1 REVERT JUMPDEST SELFBALANCE SWAP1 POP SWAP1 JUMP JUMPDEST PUSH1 0x1 DUP2 DUP2 SLOAD DUP2 LT PUSH2 0x24D JUMPI PUSH1 0x0 DUP1 REVERT JUMPDEST SWAP1 PUSH1 0x0 MSTORE PUSH1 0x20 PUSH1 0x0 KECCAK256 ADD PUSH1 0x0 SWAP2 POP SLOAD SWAP1 PUSH2 0x100 EXP SWAP1 DIV PUSH20 0xFFFFFFFFFFFFFFFFFFFFFFFFFFFFFFFFFFFFFFFF AND DUP2 JUMP JUMPDEST PUSH1 0x0 DUP1 SLOAD SWAP1 PUSH2 0x100 EXP SWAP1 DIV PUSH20 0xFFFFFFFFFFFFFFFFFFFFFFFFFFFFFFFFFFFFFFFF AND DUP2 JUMP JUMPDEST PUSH1 0x0 DUP1 SLOAD SWAP1 PUSH2 0x100 EXP SWAP1 DIV PUSH20 0xFFFFFFFFFFFFFFFFFFFFFFFFFFFFFFFFFFFFFFFF AND PUSH20 0xFFFFFFFFFFFFFFFFFFFFFFFFFFFFFFFFFFFFFFFF AND CALLER PUSH20 0xFFFFFFFFFFFFFFFFFFFFFFFFFFFFFFFFFFFFFFFF AND EQ PUSH2 0x32E JUMPI PUSH1 0x40 MLOAD PUSH32 0x8C379A000000000000000000000000000000000000000000000000000000000 DUP2 MSTORE PUSH1 0x4 ADD PUSH2 0x325 SWAP1 PUSH2 0x625 JUMP JUMPDEST PUSH1 0x40 MLOAD DUP1 SWAP2 SUB SWAP1 REVERT JUMPDEST PUSH1 0x0 PUSH2 0x338 PUSH2 0x442 JUMP JUMPDEST SWAP1 POP PUSH1 0x0 PUSH1 0x1 DUP1 SLOAD SWAP1 POP DUP3 PUSH2 0x34D SWAP2 SWAP1 PUSH2 0x674 JUMP JUMPDEST SWAP1 POP PUSH1 0x1 DUP2 DUP2 SLOAD DUP2 LT PUSH2 0x363 JUMPI PUSH2 0x362 PUSH2 0x6A5 JUMP JUMPDEST JUMPDEST SWAP1 PUSH1 0x0 MSTORE PUSH1 0x20 PUSH1 0x0 KECCAK256 ADD PUSH1 0x0 SWAP1 SLOAD SWAP1 PUSH2 0x100 EXP SWAP1 DIV PUSH20 0xFFFFFFFFFFFFFFFFFFFFFFFFFFFFFFFFFFFFFFFF AND PUSH1 0x2 PUSH1 0x0 PUSH2 0x100 EXP DUP2 SLOAD DUP2 PUSH20 0xFFFFFFFFFFFFFFFFFFFFFFFFFFFFFFFFFFFFFFFF MUL NOT AND SWAP1 DUP4 PUSH20 0xFFFFFFFFFFFFFFFFFFFFFFFFFFFFFFFFFFFFFFFF AND MUL OR SWAP1 SSTORE POP PUSH1 0x2 PUSH1 0x0 SWAP1 SLOAD SWAP1 PUSH2 0x100 EXP SWAP1 DIV PUSH20 0xFFFFFFFFFFFFFFFFFFFFFFFFFFFFFFFFFFFFFFFF AND PUSH20 0xFFFFFFFFFFFFFFFFFFFFFFFFFFFFFFFFFFFFFFFF AND PUSH2 0x8FC PUSH2 0x412 PUSH2 0x1A6 JUMP JUMPDEST SWAP1 DUP2 ISZERO MUL SWAP1 PUSH1 0x40 MLOAD PUSH1 0x0 PUSH1 0x40 MLOAD DUP1 DUP4 SUB DUP2 DUP6 DUP9 DUP9 CALL SWAP4 POP POP POP POP ISZERO DUP1 ISZERO PUSH2 0x43D JUMPI RETURNDATASIZE PUSH1 0x0 DUP1 RETURNDATACOPY RETURNDATASIZE PUSH1 0x0 REVERT JUMPDEST POP POP POP JUMP JUMPDEST PUSH1 0x0 TIMESTAMP DIFFICULTY PUSH1 0x1 PUSH1 0x40 MLOAD PUSH1 0x20 ADD PUSH2 0x45A SWAP4 SWAP3 SWAP2 SWAP1 PUSH2 0x813 JUMP JUMPDEST PUSH1 0x40 MLOAD PUSH1 0x20 DUP2 DUP4 SUB SUB DUP2 MSTORE SWAP1 PUSH1 0x40 MSTORE DUP1 MLOAD SWAP1 PUSH1 0x20 ADD KECCAK256 PUSH1 0x0 SHR SWAP1 POP SWAP1 JUMP JUMPDEST PUSH1 0x0 DUP2 SWAP1 POP SWAP2 SWAP1 POP JUMP JUMPDEST PUSH2 0x48B DUP2 PUSH2 0x478 JUMP JUMPDEST DUP3 MSTORE POP POP JUMP JUMPDEST PUSH1 0x0 PUSH1 0x20 DUP3 ADD SWAP1 POP PUSH2 0x4A6 PUSH1 0x0 DUP4 ADD DUP5 PUSH2 0x482 JUMP JUMPDEST SWAP3 SWAP2 POP POP JUMP JUMPDEST PUSH1 0x0 DUP1 REVERT JUMPDEST PUSH2 0x4BA DUP2 PUSH2 0x478 JUMP JUMPDEST DUP2 EQ PUSH2 0x4C5 JUMPI PUSH1 0x0 DUP1 REVERT JUMPDEST POP JUMP JUMPDEST PUSH1 0x0 DUP2 CALLDATALOAD SWAP1 POP PUSH2 0x4D7 DUP2 PUSH2 0x4B1 JUMP JUMPDEST SWAP3 SWAP2 POP POP JUMP JUMPDEST PUSH1 0x0 PUSH1 0x20 DUP3 DUP5 SUB SLT ISZERO PUSH2 0x4F3 JUMPI PUSH2 0x4F2 PUSH2 0x4AC JUMP JUMPDEST JUMPDEST PUSH1 0x0 PUSH2 0x501 DUP5 DUP3 DUP6 ADD PUSH2 0x4C8 JUMP JUMPDEST SWAP2 POP POP SWAP3 SWAP2 POP POP JUMP JUMPDEST PUSH1 0x0 PUSH20 0xFFFFFFFFFFFFFFFFFFFFFFFFFFFFFFFFFFFFFFFF DUP3 AND SWAP1 POP SWAP2 SWAP1 POP JUMP JUMPDEST PUSH1 0x0 PUSH2 0x535 DUP3 PUSH2 0x50A JUMP JUMPDEST SWAP1 POP SWAP2 SWAP1 POP JUMP JUMPDEST PUSH2 0x545 DUP2 PUSH2 0x52A JUMP JUMPDEST DUP3 MSTORE POP POP JUMP JUMPDEST PUSH1 0x0 PUSH1 0x20 DUP3 ADD SWAP1 POP PUSH2 0x560 PUSH1 0x0 DUP4 ADD DUP5 PUSH2 0x53C JUMP JUMPDEST SWAP3 SWAP2 POP POP JUMP JUMPDEST PUSH1 0x0 PUSH2 0x571 DUP3 PUSH2 0x50A JUMP JUMPDEST SWAP1 POP SWAP2 SWAP1 POP JUMP JUMPDEST PUSH2 0x581 DUP2 PUSH2 0x566 JUMP JUMPDEST DUP3 MSTORE POP POP JUMP JUMPDEST PUSH1 0x0 PUSH1 0x20 DUP3 ADD SWAP1 POP PUSH2 0x59C PUSH1 0x0 DUP4 ADD DUP5 PUSH2 0x578 JUMP JUMPDEST SWAP3 SWAP2 POP POP JUMP JUMPDEST PUSH1 0x0 DUP3 DUP3 MSTORE PUSH1 0x20 DUP3 ADD SWAP1 POP SWAP3 SWAP2 POP POP JUMP JUMPDEST PUSH32 0x4F6E6C79206F776E657273206172652061626C6520746F207365652074686520 PUSH1 0x0 DUP3 ADD MSTORE PUSH32 0x746F74616C206E756D626572206F662066756E64730000000000000000000000 PUSH1 0x20 DUP3 ADD MSTORE POP JUMP JUMPDEST PUSH1 0x0 PUSH2 0x60F PUSH1 0x35 DUP4 PUSH2 0x5A2 JUMP JUMPDEST SWAP2 POP PUSH2 0x61A DUP3 PUSH2 0x5B3 JUMP JUMPDEST PUSH1 0x40 DUP3 ADD SWAP1 POP SWAP2 SWAP1 POP JUMP JUMPDEST PUSH1 0x0 PUSH1 0x20 DUP3 ADD SWAP1 POP DUP2 DUP2 SUB PUSH1 0x0 DUP4 ADD MSTORE PUSH2 0x63E DUP2 PUSH2 0x602 JUMP JUMPDEST SWAP1 POP SWAP2 SWAP1 POP JUMP JUMPDEST PUSH32 0x4E487B7100000000000000000000000000000000000000000000000000000000 PUSH1 0x0 MSTORE PUSH1 0x12 PUSH1 0x4 MSTORE PUSH1 0x24 PUSH1 0x0 REVERT JUMPDEST PUSH1 0x0 PUSH2 0x67F DUP3 PUSH2 0x478 JUMP JUMPDEST SWAP2 POP PUSH2 0x68A DUP4 PUSH2 0x478 JUMP JUMPDEST SWAP3 POP DUP3 PUSH2 0x69A JUMPI PUSH2 0x699 PUSH2 0x645 JUMP JUMPDEST JUMPDEST DUP3 DUP3 MOD SWAP1 POP SWAP3 SWAP2 POP POP JUMP JUMPDEST PUSH32 0x4E487B7100000000000000000000000000000000000000000000000000000000 PUSH1 0x0 MSTORE PUSH1 0x32 PUSH1 0x4 MSTORE PUSH1 0x24 PUSH1 0x0 REVERT JUMPDEST PUSH1 0x0 DUP2 SWAP1 POP SWAP2 SWAP1 POP JUMP JUMPDEST PUSH2 0x6EF PUSH2 0x6EA DUP3 PUSH2 0x478 JUMP JUMPDEST PUSH2 0x6D4 JUMP JUMPDEST DUP3 MSTORE POP POP JUMP JUMPDEST PUSH1 0x0 DUP2 SLOAD SWAP1 POP SWAP2 SWAP1 POP JUMP JUMPDEST PUSH1 0x0 DUP2 SWAP1 POP SWAP3 SWAP2 POP POP JUMP JUMPDEST PUSH1 0x0 DUP2 SWAP1 POP DUP2 PUSH1 0x0 MSTORE PUSH1 0x20 PUSH1 0x0 KECCAK256 SWAP1 POP SWAP2 SWAP1 POP JUMP JUMPDEST PUSH2 0x729 DUP2 PUSH2 0x52A JUMP JUMPDEST DUP3 MSTORE POP POP JUMP JUMPDEST PUSH1 0x0 PUSH2 0x73B DUP4 DUP4 PUSH2 0x720 JUMP JUMPDEST PUSH1 0x20 DUP4 ADD SWAP1 POP SWAP3 SWAP2 POP POP JUMP JUMPDEST PUSH1 0x0 DUP2 PUSH1 0x0 SHR SWAP1 POP SWAP2 SWAP1 POP JUMP JUMPDEST PUSH1 0x0 PUSH20 0xFFFFFFFFFFFFFFFFFFFFFFFFFFFFFFFFFFFFFFFF DUP3 AND SWAP1 POP SWAP2 SWAP1 POP JUMP JUMPDEST PUSH1 0x0 PUSH2 0x787 PUSH2 0x782 DUP4 PUSH2 0x747 JUMP JUMPDEST PUSH2 0x754 JUMP JUMPDEST SWAP1 POP SWAP2 SWAP1 POP JUMP JUMPDEST PUSH1 0x0 PUSH2 0x79A DUP3 SLOAD PUSH2 0x774 JUMP JUMPDEST SWAP1 POP SWAP2 SWAP1 POP JUMP JUMPDEST PUSH1 0x0 PUSH1 0x1 DUP3 ADD SWAP1 POP SWAP2 SWAP1 POP JUMP JUMPDEST PUSH1 0x0 PUSH2 0x7B9 DUP3 PUSH2 0x6F5 JUMP JUMPDEST PUSH2 0x7C3 DUP2 DUP6 PUSH2 0x700 JUMP JUMPDEST SWAP4 POP PUSH2 0x7CE DUP4 PUSH2 0x70B JUMP JUMPDEST DUP1 PUSH1 0x0 JUMPDEST DUP4 DUP2 LT ISZERO PUSH2 0x806 JUMPI PUSH2 0x7E3 DUP3 PUSH2 0x78E JUMP JUMPDEST PUSH2 0x7ED DUP9 DUP3 PUSH2 0x72F JUMP JUMPDEST SWAP8 POP PUSH2 0x7F8 DUP4 PUSH2 0x7A1 JUMP JUMPDEST SWAP3 POP POP PUSH1 0x1 DUP2 ADD SWAP1 POP PUSH2 0x7D2 JUMP JUMPDEST POP DUP6 SWAP4 POP POP POP POP SWAP3 SWAP2 POP POP JUMP JUMPDEST PUSH1 0x0 PUSH2 0x81F DUP3 DUP7 PUSH2 0x6DE JUMP JUMPDEST PUSH1 0x20 DUP3 ADD SWAP2 POP PUSH2 0x82F DUP3 DUP6 PUSH2 0x6DE JUMP JUMPDEST PUSH1 0x20 DUP3 ADD SWAP2 POP PUSH2 0x83F DUP3 DUP5 PUSH2 0x7AE JUMP JUMPDEST SWAP2 POP DUP2 SWAP1 POP SWAP5 SWAP4 POP POP POP POP JUMP INVALID LOG2 PUSH5 0x6970667358 0x22 SLT KECCAK256 0x2D 0xAD 0xF6 PUSH13 0x9C6BED58ABB57EA94DE1244353 DELEGATECALL 0xAE PUSH14 0x2291BAD6F0AA64E4C3FADF2C6473 PUSH16 0x6C634300080D00330000000000000000 "
				},
				"gasEstimates": {
					"creation": {
						"codeDepositCost": "435600",
						"executionCost": "24740",
						"totalCost": "460340"
					},
					"external": {
						"getBalance()": "2602",
						"getRandomAddress()": "infinite",
						"manager()": "2533",
						"participants(uint256)": "4956",
						"pickWinner()": "infinite"
					}
				},
				"methodIdentifiers": {
					"getBalance()": "12065fe0",
					"getRandomAddress()": "edd0eb06",
					"manager()": "481c6a75",
					"participants(uint256)": "35c1d349",
					"pickWinner()": "5d495aea"
				}
			},
			"userdoc": {
				"kind": "user",
				"methods": {},
				"version": 1
			}
		}
	}
}