{
	"contracts/Lottery System/Lottery.sol": {
		"Lottery": {
			"abi": [
				{
					"inputs": [],
					"stateMutability": "nonpayable",
					"type": "constructor"
				},
				{
					"inputs": [],
					"name": "getBalance",
					"outputs": [
						{
							"internalType": "uint256",
							"name": "",
							"type": "uint256"
						}
					],
					"stateMutability": "view",
					"type": "function"
				},
				{
					"inputs": [],
					"name": "getRandomAddress",
					"outputs": [
						{
							"internalType": "uint256",
							"name": "",
							"type": "uint256"
						}
					],
					"stateMutability": "view",
					"type": "function"
				},
				{
					"inputs": [],
					"name": "manager",
					"outputs": [
						{
							"internalType": "address",
							"name": "",
							"type": "address"
						}
					],
					"stateMutability": "view",
					"type": "function"
				},
				{
					"inputs": [
						{
							"internalType": "uint256",
							"name": "",
							"type": "uint256"
						}
					],
					"name": "participants",
					"outputs": [
						{
							"internalType": "address payable",
							"name": "",
							"type": "address"
						}
					],
					"stateMutability": "view",
					"type": "function"
				},
				{
					"inputs": [],
					"name": "pickWinner",
					"outputs": [],
					"stateMutability": "nonpayable",
					"type": "function"
				},
				{
					"stateMutability": "payable",
					"type": "receive"
				}
			],
			"devdoc": {
				"kind": "dev",
				"methods": {},
				"version": 1
			},
			"evm": {
				"assembly": "    /* \"contracts/Lottery System/Lottery.sol\":59:1261  contract Lottery {... */\n  mstore(0x40, 0x80)\n    /* \"contracts/Lottery System/Lottery.sol\":230:283  constructor() {... */\n  callvalue\n  dup1\n  iszero\n  tag_1\n  jumpi\n  0x00\n  dup1\n  revert\ntag_1:\n  pop\n    /* \"contracts/Lottery System/Lottery.sol\":265:275  msg.sender */\n  caller\n    /* \"contracts/Lottery System/Lottery.sol\":255:262  manager */\n  0x00\n  dup1\n    /* \"contracts/Lottery System/Lottery.sol\":255:275  manager = msg.sender */\n  0x0100\n  exp\n  dup2\n  sload\n  dup2\n  0xffffffffffffffffffffffffffffffffffffffff\n  mul\n  not\n  and\n  swap1\n  dup4\n  0xffffffffffffffffffffffffffffffffffffffff\n  and\n  mul\n  or\n  swap1\n  sstore\n  pop\n    /* \"contracts/Lottery System/Lottery.sol\":59:1261  contract Lottery {... */\n  dataSize(sub_0)\n  dup1\n  dataOffset(sub_0)\n  0x00\n  codecopy\n  0x00\n  return\nstop\n\nsub_0: assembly {\n        /* \"contracts/Lottery System/Lottery.sol\":59:1261  contract Lottery {... */\n      mstore(0x40, 0x80)\n      jumpi(tag_1, lt(calldatasize, 0x04))\n      shr(0xe0, calldataload(0x00))\n      dup1\n      0x12065fe0\n      eq\n      tag_3\n      jumpi\n      dup1\n      0x35c1d349\n      eq\n      tag_4\n      jumpi\n      dup1\n      0x481c6a75\n      eq\n      tag_5\n      jumpi\n      dup1\n      0x5d495aea\n      eq\n      tag_6\n      jumpi\n      dup1\n      0xedd0eb06\n      eq\n      tag_7\n      jumpi\n      jump(tag_2)\n    tag_1:\n      jumpi(tag_2, calldatasize)\n        /* \"contracts/Lottery System/Lottery.sol\":494:501  1 ether */\n      0x0de0b6b3a7640000\n        /* \"contracts/Lottery System/Lottery.sol\":481:490  msg.value */\n      callvalue\n        /* \"contracts/Lottery System/Lottery.sol\":481:501  msg.value >= 1 ether */\n      lt\n      iszero\n        /* \"contracts/Lottery System/Lottery.sol\":473:502  require(msg.value >= 1 ether) */\n      tag_10\n      jumpi\n      0x00\n      dup1\n      revert\n    tag_10:\n        /* \"contracts/Lottery System/Lottery.sol\":574:586  participants */\n      0x01\n        /* \"contracts/Lottery System/Lottery.sol\":600:610  msg.sender */\n      caller\n        /* \"contracts/Lottery System/Lottery.sol\":574:612  participants.push(payable(msg.sender)) */\n      swap1\n      dup1\n      0x01\n      dup2\n      sload\n      add\n      dup1\n      dup3\n      sstore\n      dup1\n      swap2\n      pop\n      pop\n      0x01\n      swap1\n      sub\n      swap1\n      0x00\n      mstore\n      keccak256(0x00, 0x20)\n      add\n      0x00\n      swap1\n      swap2\n      swap1\n      swap2\n      swap1\n      swap2\n      0x0100\n      exp\n      dup2\n      sload\n      dup2\n      0xffffffffffffffffffffffffffffffffffffffff\n      mul\n      not\n      and\n      swap1\n      dup4\n      0xffffffffffffffffffffffffffffffffffffffff\n      and\n      mul\n      or\n      swap1\n      sstore\n      stop\n        /* \"contracts/Lottery System/Lottery.sol\":59:1261  contract Lottery {... */\n    tag_2:\n      0x00\n      dup1\n      revert\n        /* \"contracts/Lottery System/Lottery.sol\":703:810  function getBalance() public view onlyOwner returns(uint256){... */\n    tag_3:\n      callvalue\n      dup1\n      iszero\n      tag_12\n      jumpi\n      0x00\n      dup1\n      revert\n    tag_12:\n      pop\n      tag_13\n      tag_14\n      jump\t// in\n    tag_13:\n      mload(0x40)\n      tag_15\n      swap2\n      swap1\n      tag_16\n      jump\t// in\n    tag_15:\n      mload(0x40)\n      dup1\n      swap2\n      sub\n      swap1\n      return\n        /* \"contracts/Lottery System/Lottery.sol\":112:149  address payable[] public participants */\n    tag_4:\n      callvalue\n      dup1\n      iszero\n      tag_17\n      jumpi\n      0x00\n      dup1\n      revert\n    tag_17:\n      pop\n      tag_18\n      0x04\n      dup1\n      calldatasize\n      sub\n      dup2\n      add\n      swap1\n      tag_19\n      swap2\n      swap1\n      tag_20\n      jump\t// in\n    tag_19:\n      tag_21\n      jump\t// in\n    tag_18:\n      mload(0x40)\n      tag_22\n      swap2\n      swap1\n      tag_23\n      jump\t// in\n    tag_22:\n      mload(0x40)\n      dup1\n      swap2\n      sub\n      swap1\n      return\n        /* \"contracts/Lottery System/Lottery.sol\":83:105  address public manager */\n    tag_5:\n      callvalue\n      dup1\n      iszero\n      tag_24\n      jumpi\n      0x00\n      dup1\n      revert\n    tag_24:\n      pop\n      tag_25\n      tag_26\n      jump\t// in\n    tag_25:\n      mload(0x40)\n      tag_27\n      swap2\n      swap1\n      tag_28\n      jump\t// in\n    tag_27:\n      mload(0x40)\n      dup1\n      swap2\n      sub\n      swap1\n      return\n        /* \"contracts/Lottery System/Lottery.sol\":991:1252  function pickWinner() public onlyOwner {... */\n    tag_6:\n      callvalue\n      dup1\n      iszero\n      tag_29\n      jumpi\n      0x00\n      dup1\n      revert\n    tag_29:\n      pop\n      tag_30\n      tag_31\n      jump\t// in\n    tag_30:\n      stop\n        /* \"contracts/Lottery System/Lottery.sol\":818:985  function getRandomAddress() public view returns(uint){... */\n    tag_7:\n      callvalue\n      dup1\n      iszero\n      tag_32\n      jumpi\n      0x00\n      dup1\n      revert\n    tag_32:\n      pop\n      tag_33\n      tag_34\n      jump\t// in\n    tag_33:\n      mload(0x40)\n      tag_35\n      swap2\n      swap1\n      tag_16\n      jump\t// in\n    tag_35:\n      mload(0x40)\n      dup1\n      swap2\n      sub\n      swap1\n      return\n        /* \"contracts/Lottery System/Lottery.sol\":703:810  function getBalance() public view onlyOwner returns(uint256){... */\n    tag_14:\n        /* \"contracts/Lottery System/Lottery.sol\":755:762  uint256 */\n      0x00\n        /* \"contracts/Lottery System/Lottery.sol\":343:350  manager */\n      dup1\n      0x00\n      swap1\n      sload\n      swap1\n      0x0100\n      exp\n      swap1\n      div\n      0xffffffffffffffffffffffffffffffffffffffff\n      and\n        /* \"contracts/Lottery System/Lottery.sol\":329:350  msg.sender == manager */\n      0xffffffffffffffffffffffffffffffffffffffff\n      and\n        /* \"contracts/Lottery System/Lottery.sol\":329:339  msg.sender */\n      caller\n        /* \"contracts/Lottery System/Lottery.sol\":329:350  msg.sender == manager */\n      0xffffffffffffffffffffffffffffffffffffffff\n      and\n      eq\n        /* \"contracts/Lottery System/Lottery.sol\":321:407  require(msg.sender == manager,\"Only owners are able to see the total number of funds\") */\n      tag_37\n      jumpi\n      mload(0x40)\n      0x08c379a000000000000000000000000000000000000000000000000000000000\n      dup2\n      mstore\n      0x04\n      add\n      tag_38\n      swap1\n      tag_39\n      jump\t// in\n    tag_38:\n      mload(0x40)\n      dup1\n      swap2\n      sub\n      swap1\n      revert\n    tag_37:\n        /* \"contracts/Lottery System/Lottery.sol\":781:802  address(this).balance */\n      selfbalance\n        /* \"contracts/Lottery System/Lottery.sol\":774:802  return address(this).balance */\n      swap1\n      pop\n        /* \"contracts/Lottery System/Lottery.sol\":703:810  function getBalance() public view onlyOwner returns(uint256){... */\n      swap1\n      jump\t// out\n        /* \"contracts/Lottery System/Lottery.sol\":112:149  address payable[] public participants */\n    tag_21:\n      0x01\n      dup2\n      dup2\n      sload\n      dup2\n      lt\n      tag_41\n      jumpi\n      0x00\n      dup1\n      revert\n    tag_41:\n      swap1\n      0x00\n      mstore\n      keccak256(0x00, 0x20)\n      add\n      0x00\n      swap2\n      pop\n      sload\n      swap1\n      0x0100\n      exp\n      swap1\n      div\n      0xffffffffffffffffffffffffffffffffffffffff\n      and\n      dup2\n      jump\t// out\n        /* \"contracts/Lottery System/Lottery.sol\":83:105  address public manager */\n    tag_26:\n      0x00\n      dup1\n      sload\n      swap1\n      0x0100\n      exp\n      swap1\n      div\n      0xffffffffffffffffffffffffffffffffffffffff\n      and\n      dup2\n      jump\t// out\n        /* \"contracts/Lottery System/Lottery.sol\":991:1252  function pickWinner() public onlyOwner {... */\n    tag_31:\n        /* \"contracts/Lottery System/Lottery.sol\":343:350  manager */\n      0x00\n      dup1\n      sload\n      swap1\n      0x0100\n      exp\n      swap1\n      div\n      0xffffffffffffffffffffffffffffffffffffffff\n      and\n        /* \"contracts/Lottery System/Lottery.sol\":329:350  msg.sender == manager */\n      0xffffffffffffffffffffffffffffffffffffffff\n      and\n        /* \"contracts/Lottery System/Lottery.sol\":329:339  msg.sender */\n      caller\n        /* \"contracts/Lottery System/Lottery.sol\":329:350  msg.sender == manager */\n      0xffffffffffffffffffffffffffffffffffffffff\n      and\n      eq\n        /* \"contracts/Lottery System/Lottery.sol\":321:407  require(msg.sender == manager,\"Only owners are able to see the total number of funds\") */\n      tag_44\n      jumpi\n      mload(0x40)\n      0x08c379a000000000000000000000000000000000000000000000000000000000\n      dup2\n      mstore\n      0x04\n      add\n      tag_45\n      swap1\n      tag_39\n      jump\t// in\n    tag_45:\n      mload(0x40)\n      dup1\n      swap2\n      sub\n      swap1\n      revert\n    tag_44:\n        /* \"contracts/Lottery System/Lottery.sol\":1041:1047  uint r */\n      0x00\n        /* \"contracts/Lottery System/Lottery.sol\":1050:1068  getRandomAddress() */\n      tag_47\n        /* \"contracts/Lottery System/Lottery.sol\":1050:1066  getRandomAddress */\n      tag_34\n        /* \"contracts/Lottery System/Lottery.sol\":1050:1068  getRandomAddress() */\n      jump\t// in\n    tag_47:\n        /* \"contracts/Lottery System/Lottery.sol\":1041:1068  uint r = getRandomAddress() */\n      swap1\n      pop\n        /* \"contracts/Lottery System/Lottery.sol\":1079:1089  uint index */\n      0x00\n        /* \"contracts/Lottery System/Lottery.sol\":1096:1108  participants */\n      0x01\n        /* \"contracts/Lottery System/Lottery.sol\":1096:1115  participants.length */\n      dup1\n      sload\n      swap1\n      pop\n        /* \"contracts/Lottery System/Lottery.sol\":1092:1093  r */\n      dup3\n        /* \"contracts/Lottery System/Lottery.sol\":1092:1115  r % participants.length */\n      tag_48\n      swap2\n      swap1\n      tag_49\n      jump\t// in\n    tag_48:\n        /* \"contracts/Lottery System/Lottery.sol\":1079:1115  uint index = r % participants.length */\n      swap1\n      pop\n        /* \"contracts/Lottery System/Lottery.sol\":1135:1147  participants */\n      0x01\n        /* \"contracts/Lottery System/Lottery.sol\":1148:1153  index */\n      dup2\n        /* \"contracts/Lottery System/Lottery.sol\":1135:1154  participants[index] */\n      dup2\n      sload\n      dup2\n      lt\n      tag_50\n      jumpi\n      tag_51\n      tag_52\n      jump\t// in\n    tag_51:\n    tag_50:\n      swap1\n      0x00\n      mstore\n      keccak256(0x00, 0x20)\n      add\n      0x00\n      swap1\n      sload\n      swap1\n      0x0100\n      exp\n      swap1\n      div\n      0xffffffffffffffffffffffffffffffffffffffff\n      and\n        /* \"contracts/Lottery System/Lottery.sol\":1126:1132  winner */\n      0x02\n      0x00\n        /* \"contracts/Lottery System/Lottery.sol\":1126:1154  winner = participants[index] */\n      0x0100\n      exp\n      dup2\n      sload\n      dup2\n      0xffffffffffffffffffffffffffffffffffffffff\n      mul\n      not\n      and\n      swap1\n      dup4\n      0xffffffffffffffffffffffffffffffffffffffff\n      and\n      mul\n      or\n      swap1\n      sstore\n      pop\n        /* \"contracts/Lottery System/Lottery.sol\":1165:1171  winner */\n      0x02\n      0x00\n      swap1\n      sload\n      swap1\n      0x0100\n      exp\n      swap1\n      div\n      0xffffffffffffffffffffffffffffffffffffffff\n      and\n        /* \"contracts/Lottery System/Lottery.sol\":1165:1180  winner.transfer */\n      0xffffffffffffffffffffffffffffffffffffffff\n      and\n        /* \"contracts/Lottery System/Lottery.sol\":1165:1194  winner.transfer(getBalance()) */\n      0x08fc\n        /* \"contracts/Lottery System/Lottery.sol\":1181:1193  getBalance() */\n      tag_54\n        /* \"contracts/Lottery System/Lottery.sol\":1181:1191  getBalance */\n      tag_14\n        /* \"contracts/Lottery System/Lottery.sol\":1181:1193  getBalance() */\n      jump\t// in\n    tag_54:\n        /* \"contracts/Lottery System/Lottery.sol\":1165:1194  winner.transfer(getBalance()) */\n      swap1\n      dup2\n      iszero\n      mul\n      swap1\n      mload(0x40)\n      0x00\n      mload(0x40)\n      dup1\n      dup4\n      sub\n      dup2\n      dup6\n      dup9\n      dup9\n      call\n      swap4\n      pop\n      pop\n      pop\n      pop\n      iszero\n      dup1\n      iszero\n      tag_56\n      jumpi\n      returndatasize\n      0x00\n      dup1\n      returndatacopy\n      revert(0x00, returndatasize)\n    tag_56:\n      pop\n        /* \"contracts/Lottery System/Lottery.sol\":1242:1243  0 */\n      0x00\n        /* \"contracts/Lottery System/Lottery.sol\":1220:1244  new address payable[](0) */\n      0xffffffffffffffff\n      dup2\n      gt\n      iszero\n      tag_57\n      jumpi\n      tag_58\n      tag_59\n      jump\t// in\n    tag_58:\n    tag_57:\n      mload(0x40)\n      swap1\n      dup1\n      dup3\n      mstore\n      dup1\n      0x20\n      mul\n      0x20\n      add\n      dup3\n      add\n      0x40\n      mstore\n      dup1\n      iszero\n      tag_60\n      jumpi\n      dup2\n      0x20\n      add\n      0x20\n      dup3\n      mul\n      dup1\n      calldatasize\n      dup4\n      calldatacopy\n      dup1\n      dup3\n      add\n      swap2\n      pop\n      pop\n      swap1\n      pop\n    tag_60:\n      pop\n        /* \"contracts/Lottery System/Lottery.sol\":1205:1217  participants */\n      0x01\n        /* \"contracts/Lottery System/Lottery.sol\":1205:1244  participants = new address payable[](0) */\n      swap1\n      dup1\n      mload\n      swap1\n      0x20\n      add\n      swap1\n      tag_61\n      swap3\n      swap2\n      swap1\n      tag_62\n      jump\t// in\n    tag_61:\n      pop\n        /* \"contracts/Lottery System/Lottery.sol\":1030:1252  {... */\n      pop\n      pop\n        /* \"contracts/Lottery System/Lottery.sol\":991:1252  function pickWinner() public onlyOwner {... */\n      jump\t// out\n        /* \"contracts/Lottery System/Lottery.sol\":818:985  function getRandomAddress() public view returns(uint){... */\n    tag_34:\n        /* \"contracts/Lottery System/Lottery.sol\":866:870  uint */\n      0x00\n        /* \"contracts/Lottery System/Lottery.sol\":921:936  block.timestamp */\n      timestamp\n        /* \"contracts/Lottery System/Lottery.sol\":937:953  block.difficulty */\n      difficulty\n        /* \"contracts/Lottery System/Lottery.sol\":955:967  participants */\n      0x01\n        /* \"contracts/Lottery System/Lottery.sol\":955:974  participants.length */\n      dup1\n      sload\n      swap1\n      pop\n        /* \"contracts/Lottery System/Lottery.sol\":904:975  abi.encodePacked(block.timestamp,block.difficulty, participants.length) */\n      add(0x20, mload(0x40))\n      tag_64\n      swap4\n      swap3\n      swap2\n      swap1\n      tag_65\n      jump\t// in\n    tag_64:\n      mload(0x40)\n      0x20\n      dup2\n      dup4\n      sub\n      sub\n      dup2\n      mstore\n      swap1\n      0x40\n      mstore\n        /* \"contracts/Lottery System/Lottery.sol\":894:976  keccak256(abi.encodePacked(block.timestamp,block.difficulty, participants.length)) */\n      dup1\n      mload\n      swap1\n      0x20\n      add\n      keccak256\n        /* \"contracts/Lottery System/Lottery.sol\":889:977  uint(keccak256(abi.encodePacked(block.timestamp,block.difficulty, participants.length))) */\n      0x00\n      shr\n        /* \"contracts/Lottery System/Lottery.sol\":882:977  return uint(keccak256(abi.encodePacked(block.timestamp,block.difficulty, participants.length))) */\n      swap1\n      pop\n        /* \"contracts/Lottery System/Lottery.sol\":818:985  function getRandomAddress() public view returns(uint){... */\n      swap1\n      jump\t// out\n    tag_62:\n      dup3\n      dup1\n      sload\n      dup3\n      dup3\n      sstore\n      swap1\n      0x00\n      mstore\n      keccak256(0x00, 0x20)\n      swap1\n      dup2\n      add\n      swap3\n      dup3\n      iszero\n      tag_66\n      jumpi\n      swap2\n      0x20\n      mul\n      dup3\n      add\n    tag_67:\n      dup3\n      dup2\n      gt\n      iszero\n      tag_68\n      jumpi\n      dup3\n      mload\n      dup3\n      exp(0x0100, 0x00)\n      dup2\n      sload\n      dup2\n      0xffffffffffffffffffffffffffffffffffffffff\n      mul\n      not\n      and\n      swap1\n      dup4\n      0xffffffffffffffffffffffffffffffffffffffff\n      and\n      mul\n      or\n      swap1\n      sstore\n      pop\n      swap2\n      0x20\n      add\n      swap2\n      swap1\n      0x01\n      add\n      swap1\n      jump(tag_67)\n    tag_68:\n    tag_66:\n      pop\n      swap1\n      pop\n      tag_69\n      swap2\n      swap1\n      tag_70\n      jump\t// in\n    tag_69:\n      pop\n      swap1\n      jump\t// out\n    tag_70:\n    tag_71:\n      dup1\n      dup3\n      gt\n      iszero\n      tag_72\n      jumpi\n      0x00\n      dup2\n      0x00\n      swap1\n      sstore\n      pop\n      0x01\n      add\n      jump(tag_71)\n    tag_72:\n      pop\n      swap1\n      jump\t// out\n        /* \"#utility.yul\":7:84   */\n    tag_73:\n        /* \"#utility.yul\":44:51   */\n      0x00\n        /* \"#utility.yul\":73:78   */\n      dup2\n        /* \"#utility.yul\":62:78   */\n      swap1\n      pop\n        /* \"#utility.yul\":7:84   */\n      swap2\n      swap1\n      pop\n      jump\t// out\n        /* \"#utility.yul\":90:208   */\n    tag_74:\n        /* \"#utility.yul\":177:201   */\n      tag_94\n        /* \"#utility.yul\":195:200   */\n      dup2\n        /* \"#utility.yul\":177:201   */\n      tag_73\n      jump\t// in\n    tag_94:\n        /* \"#utility.yul\":172:175   */\n      dup3\n        /* \"#utility.yul\":165:202   */\n      mstore\n        /* \"#utility.yul\":90:208   */\n      pop\n      pop\n      jump\t// out\n        /* \"#utility.yul\":214:436   */\n    tag_16:\n        /* \"#utility.yul\":307:311   */\n      0x00\n        /* \"#utility.yul\":345:347   */\n      0x20\n        /* \"#utility.yul\":334:343   */\n      dup3\n        /* \"#utility.yul\":330:348   */\n      add\n        /* \"#utility.yul\":322:348   */\n      swap1\n      pop\n        /* \"#utility.yul\":358:429   */\n      tag_96\n        /* \"#utility.yul\":426:427   */\n      0x00\n        /* \"#utility.yul\":415:424   */\n      dup4\n        /* \"#utility.yul\":411:428   */\n      add\n        /* \"#utility.yul\":402:408   */\n      dup5\n        /* \"#utility.yul\":358:429   */\n      tag_74\n      jump\t// in\n    tag_96:\n        /* \"#utility.yul\":214:436   */\n      swap3\n      swap2\n      pop\n      pop\n      jump\t// out\n        /* \"#utility.yul\":523:640   */\n    tag_76:\n        /* \"#utility.yul\":632:633   */\n      0x00\n        /* \"#utility.yul\":629:630   */\n      dup1\n        /* \"#utility.yul\":622:634   */\n      revert\n        /* \"#utility.yul\":769:891   */\n    tag_78:\n        /* \"#utility.yul\":842:866   */\n      tag_101\n        /* \"#utility.yul\":860:865   */\n      dup2\n        /* \"#utility.yul\":842:866   */\n      tag_73\n      jump\t// in\n    tag_101:\n        /* \"#utility.yul\":835:840   */\n      dup2\n        /* \"#utility.yul\":832:867   */\n      eq\n        /* \"#utility.yul\":822:885   */\n      tag_102\n      jumpi\n        /* \"#utility.yul\":881:882   */\n      0x00\n        /* \"#utility.yul\":878:879   */\n      dup1\n        /* \"#utility.yul\":871:883   */\n      revert\n        /* \"#utility.yul\":822:885   */\n    tag_102:\n        /* \"#utility.yul\":769:891   */\n      pop\n      jump\t// out\n        /* \"#utility.yul\":897:1036   */\n    tag_79:\n        /* \"#utility.yul\":943:948   */\n      0x00\n        /* \"#utility.yul\":981:987   */\n      dup2\n        /* \"#utility.yul\":968:988   */\n      calldataload\n        /* \"#utility.yul\":959:988   */\n      swap1\n      pop\n        /* \"#utility.yul\":997:1030   */\n      tag_104\n        /* \"#utility.yul\":1024:1029   */\n      dup2\n        /* \"#utility.yul\":997:1030   */\n      tag_78\n      jump\t// in\n    tag_104:\n        /* \"#utility.yul\":897:1036   */\n      swap3\n      swap2\n      pop\n      pop\n      jump\t// out\n        /* \"#utility.yul\":1042:1371   */\n    tag_20:\n        /* \"#utility.yul\":1101:1107   */\n      0x00\n        /* \"#utility.yul\":1150:1152   */\n      0x20\n        /* \"#utility.yul\":1138:1147   */\n      dup3\n        /* \"#utility.yul\":1129:1136   */\n      dup5\n        /* \"#utility.yul\":1125:1148   */\n      sub\n        /* \"#utility.yul\":1121:1153   */\n      slt\n        /* \"#utility.yul\":1118:1237   */\n      iszero\n      tag_106\n      jumpi\n        /* \"#utility.yul\":1156:1235   */\n      tag_107\n      tag_76\n      jump\t// in\n    tag_107:\n        /* \"#utility.yul\":1118:1237   */\n    tag_106:\n        /* \"#utility.yul\":1276:1277   */\n      0x00\n        /* \"#utility.yul\":1301:1354   */\n      tag_108\n        /* \"#utility.yul\":1346:1353   */\n      dup5\n        /* \"#utility.yul\":1337:1343   */\n      dup3\n        /* \"#utility.yul\":1326:1335   */\n      dup6\n        /* \"#utility.yul\":1322:1344   */\n      add\n        /* \"#utility.yul\":1301:1354   */\n      tag_79\n      jump\t// in\n    tag_108:\n        /* \"#utility.yul\":1291:1354   */\n      swap2\n      pop\n        /* \"#utility.yul\":1247:1364   */\n      pop\n        /* \"#utility.yul\":1042:1371   */\n      swap3\n      swap2\n      pop\n      pop\n      jump\t// out\n        /* \"#utility.yul\":1377:1503   */\n    tag_80:\n        /* \"#utility.yul\":1414:1421   */\n      0x00\n        /* \"#utility.yul\":1454:1496   */\n      0xffffffffffffffffffffffffffffffffffffffff\n        /* \"#utility.yul\":1447:1452   */\n      dup3\n        /* \"#utility.yul\":1443:1497   */\n      and\n        /* \"#utility.yul\":1432:1497   */\n      swap1\n      pop\n        /* \"#utility.yul\":1377:1503   */\n      swap2\n      swap1\n      pop\n      jump\t// out\n        /* \"#utility.yul\":1509:1613   */\n    tag_81:\n        /* \"#utility.yul\":1554:1561   */\n      0x00\n        /* \"#utility.yul\":1583:1607   */\n      tag_111\n        /* \"#utility.yul\":1601:1606   */\n      dup3\n        /* \"#utility.yul\":1583:1607   */\n      tag_80\n      jump\t// in\n    tag_111:\n        /* \"#utility.yul\":1572:1607   */\n      swap1\n      pop\n        /* \"#utility.yul\":1509:1613   */\n      swap2\n      swap1\n      pop\n      jump\t// out\n        /* \"#utility.yul\":1619:1761   */\n    tag_82:\n        /* \"#utility.yul\":1722:1754   */\n      tag_113\n        /* \"#utility.yul\":1748:1753   */\n      dup2\n        /* \"#utility.yul\":1722:1754   */\n      tag_81\n      jump\t// in\n    tag_113:\n        /* \"#utility.yul\":1717:1720   */\n      dup3\n        /* \"#utility.yul\":1710:1755   */\n      mstore\n        /* \"#utility.yul\":1619:1761   */\n      pop\n      pop\n      jump\t// out\n        /* \"#utility.yul\":1767:2021   */\n    tag_23:\n        /* \"#utility.yul\":1876:1880   */\n      0x00\n        /* \"#utility.yul\":1914:1916   */\n      0x20\n        /* \"#utility.yul\":1903:1912   */\n      dup3\n        /* \"#utility.yul\":1899:1917   */\n      add\n        /* \"#utility.yul\":1891:1917   */\n      swap1\n      pop\n        /* \"#utility.yul\":1927:2014   */\n      tag_115\n        /* \"#utility.yul\":2011:2012   */\n      0x00\n        /* \"#utility.yul\":2000:2009   */\n      dup4\n        /* \"#utility.yul\":1996:2013   */\n      add\n        /* \"#utility.yul\":1987:1993   */\n      dup5\n        /* \"#utility.yul\":1927:2014   */\n      tag_82\n      jump\t// in\n    tag_115:\n        /* \"#utility.yul\":1767:2021   */\n      swap3\n      swap2\n      pop\n      pop\n      jump\t// out\n        /* \"#utility.yul\":2027:2123   */\n    tag_83:\n        /* \"#utility.yul\":2064:2071   */\n      0x00\n        /* \"#utility.yul\":2093:2117   */\n      tag_117\n        /* \"#utility.yul\":2111:2116   */\n      dup3\n        /* \"#utility.yul\":2093:2117   */\n      tag_80\n      jump\t// in\n    tag_117:\n        /* \"#utility.yul\":2082:2117   */\n      swap1\n      pop\n        /* \"#utility.yul\":2027:2123   */\n      swap2\n      swap1\n      pop\n      jump\t// out\n        /* \"#utility.yul\":2129:2247   */\n    tag_84:\n        /* \"#utility.yul\":2216:2240   */\n      tag_119\n        /* \"#utility.yul\":2234:2239   */\n      dup2\n        /* \"#utility.yul\":2216:2240   */\n      tag_83\n      jump\t// in\n    tag_119:\n        /* \"#utility.yul\":2211:2214   */\n      dup3\n        /* \"#utility.yul\":2204:2241   */\n      mstore\n        /* \"#utility.yul\":2129:2247   */\n      pop\n      pop\n      jump\t// out\n        /* \"#utility.yul\":2253:2475   */\n    tag_28:\n        /* \"#utility.yul\":2346:2350   */\n      0x00\n        /* \"#utility.yul\":2384:2386   */\n      0x20\n        /* \"#utility.yul\":2373:2382   */\n      dup3\n        /* \"#utility.yul\":2369:2387   */\n      add\n        /* \"#utility.yul\":2361:2387   */\n      swap1\n      pop\n        /* \"#utility.yul\":2397:2468   */\n      tag_121\n        /* \"#utility.yul\":2465:2466   */\n      0x00\n        /* \"#utility.yul\":2454:2463   */\n      dup4\n        /* \"#utility.yul\":2450:2467   */\n      add\n        /* \"#utility.yul\":2441:2447   */\n      dup5\n        /* \"#utility.yul\":2397:2468   */\n      tag_84\n      jump\t// in\n    tag_121:\n        /* \"#utility.yul\":2253:2475   */\n      swap3\n      swap2\n      pop\n      pop\n      jump\t// out\n        /* \"#utility.yul\":2481:2650   */\n    tag_85:\n        /* \"#utility.yul\":2565:2576   */\n      0x00\n        /* \"#utility.yul\":2599:2605   */\n      dup3\n        /* \"#utility.yul\":2594:2597   */\n      dup3\n        /* \"#utility.yul\":2587:2606   */\n      mstore\n        /* \"#utility.yul\":2639:2643   */\n      0x20\n        /* \"#utility.yul\":2634:2637   */\n      dup3\n        /* \"#utility.yul\":2630:2644   */\n      add\n        /* \"#utility.yul\":2615:2644   */\n      swap1\n      pop\n        /* \"#utility.yul\":2481:2650   */\n      swap3\n      swap2\n      pop\n      pop\n      jump\t// out\n        /* \"#utility.yul\":2656:2896   */\n    tag_86:\n        /* \"#utility.yul\":2796:2830   */\n      0x4f6e6c79206f776e657273206172652061626c6520746f207365652074686520\n        /* \"#utility.yul\":2792:2793   */\n      0x00\n        /* \"#utility.yul\":2784:2790   */\n      dup3\n        /* \"#utility.yul\":2780:2794   */\n      add\n        /* \"#utility.yul\":2773:2831   */\n      mstore\n        /* \"#utility.yul\":2865:2888   */\n      0x746f74616c206e756d626572206f662066756e64730000000000000000000000\n        /* \"#utility.yul\":2860:2862   */\n      0x20\n        /* \"#utility.yul\":2852:2858   */\n      dup3\n        /* \"#utility.yul\":2848:2863   */\n      add\n        /* \"#utility.yul\":2841:2889   */\n      mstore\n        /* \"#utility.yul\":2656:2896   */\n      pop\n      jump\t// out\n        /* \"#utility.yul\":2902:3268   */\n    tag_87:\n        /* \"#utility.yul\":3044:3047   */\n      0x00\n        /* \"#utility.yul\":3065:3132   */\n      tag_125\n        /* \"#utility.yul\":3129:3131   */\n      0x35\n        /* \"#utility.yul\":3124:3127   */\n      dup4\n        /* \"#utility.yul\":3065:3132   */\n      tag_85\n      jump\t// in\n    tag_125:\n        /* \"#utility.yul\":3058:3132   */\n      swap2\n      pop\n        /* \"#utility.yul\":3141:3234   */\n      tag_126\n        /* \"#utility.yul\":3230:3233   */\n      dup3\n        /* \"#utility.yul\":3141:3234   */\n      tag_86\n      jump\t// in\n    tag_126:\n        /* \"#utility.yul\":3259:3261   */\n      0x40\n        /* \"#utility.yul\":3254:3257   */\n      dup3\n        /* \"#utility.yul\":3250:3262   */\n      add\n        /* \"#utility.yul\":3243:3262   */\n      swap1\n      pop\n        /* \"#utility.yul\":2902:3268   */\n      swap2\n      swap1\n      pop\n      jump\t// out\n        /* \"#utility.yul\":3274:3693   */\n    tag_39:\n        /* \"#utility.yul\":3440:3444   */\n      0x00\n        /* \"#utility.yul\":3478:3480   */\n      0x20\n        /* \"#utility.yul\":3467:3476   */\n      dup3\n        /* \"#utility.yul\":3463:3481   */\n      add\n        /* \"#utility.yul\":3455:3481   */\n      swap1\n      pop\n        /* \"#utility.yul\":3527:3536   */\n      dup2\n        /* \"#utility.yul\":3521:3525   */\n      dup2\n        /* \"#utility.yul\":3517:3537   */\n      sub\n        /* \"#utility.yul\":3513:3514   */\n      0x00\n        /* \"#utility.yul\":3502:3511   */\n      dup4\n        /* \"#utility.yul\":3498:3515   */\n      add\n        /* \"#utility.yul\":3491:3538   */\n      mstore\n        /* \"#utility.yul\":3555:3686   */\n      tag_128\n        /* \"#utility.yul\":3681:3685   */\n      dup2\n        /* \"#utility.yul\":3555:3686   */\n      tag_87\n      jump\t// in\n    tag_128:\n        /* \"#utility.yul\":3547:3686   */\n      swap1\n      pop\n        /* \"#utility.yul\":3274:3693   */\n      swap2\n      swap1\n      pop\n      jump\t// out\n        /* \"#utility.yul\":3699:3879   */\n    tag_88:\n        /* \"#utility.yul\":3747:3824   */\n      0x4e487b7100000000000000000000000000000000000000000000000000000000\n        /* \"#utility.yul\":3744:3745   */\n      0x00\n        /* \"#utility.yul\":3737:3825   */\n      mstore\n        /* \"#utility.yul\":3844:3848   */\n      0x12\n        /* \"#utility.yul\":3841:3842   */\n      0x04\n        /* \"#utility.yul\":3834:3849   */\n      mstore\n        /* \"#utility.yul\":3868:3872   */\n      0x24\n        /* \"#utility.yul\":3865:3866   */\n      0x00\n        /* \"#utility.yul\":3858:3873   */\n      revert\n        /* \"#utility.yul\":3885:4061   */\n    tag_49:\n        /* \"#utility.yul\":3917:3918   */\n      0x00\n        /* \"#utility.yul\":3934:3954   */\n      tag_131\n        /* \"#utility.yul\":3952:3953   */\n      dup3\n        /* \"#utility.yul\":3934:3954   */\n      tag_73\n      jump\t// in\n    tag_131:\n        /* \"#utility.yul\":3929:3954   */\n      swap2\n      pop\n        /* \"#utility.yul\":3968:3988   */\n      tag_132\n        /* \"#utility.yul\":3986:3987   */\n      dup4\n        /* \"#utility.yul\":3968:3988   */\n      tag_73\n      jump\t// in\n    tag_132:\n        /* \"#utility.yul\":3963:3988   */\n      swap3\n      pop\n        /* \"#utility.yul\":4007:4008   */\n      dup3\n        /* \"#utility.yul\":3997:4032   */\n      tag_133\n      jumpi\n        /* \"#utility.yul\":4012:4030   */\n      tag_134\n      tag_88\n      jump\t// in\n    tag_134:\n        /* \"#utility.yul\":3997:4032   */\n    tag_133:\n        /* \"#utility.yul\":4053:4054   */\n      dup3\n        /* \"#utility.yul\":4050:4051   */\n      dup3\n        /* \"#utility.yul\":4046:4055   */\n      mod\n        /* \"#utility.yul\":4041:4055   */\n      swap1\n      pop\n        /* \"#utility.yul\":3885:4061   */\n      swap3\n      swap2\n      pop\n      pop\n      jump\t// out\n        /* \"#utility.yul\":4067:4247   */\n    tag_52:\n        /* \"#utility.yul\":4115:4192   */\n      0x4e487b7100000000000000000000000000000000000000000000000000000000\n        /* \"#utility.yul\":4112:4113   */\n      0x00\n        /* \"#utility.yul\":4105:4193   */\n      mstore\n        /* \"#utility.yul\":4212:4216   */\n      0x32\n        /* \"#utility.yul\":4209:4210   */\n      0x04\n        /* \"#utility.yul\":4202:4217   */\n      mstore\n        /* \"#utility.yul\":4236:4240   */\n      0x24\n        /* \"#utility.yul\":4233:4234   */\n      0x00\n        /* \"#utility.yul\":4226:4241   */\n      revert\n        /* \"#utility.yul\":4253:4433   */\n    tag_59:\n        /* \"#utility.yul\":4301:4378   */\n      0x4e487b7100000000000000000000000000000000000000000000000000000000\n        /* \"#utility.yul\":4298:4299   */\n      0x00\n        /* \"#utility.yul\":4291:4379   */\n      mstore\n        /* \"#utility.yul\":4398:4402   */\n      0x41\n        /* \"#utility.yul\":4395:4396   */\n      0x04\n        /* \"#utility.yul\":4388:4403   */\n      mstore\n        /* \"#utility.yul\":4422:4426   */\n      0x24\n        /* \"#utility.yul\":4419:4420   */\n      0x00\n        /* \"#utility.yul\":4412:4427   */\n      revert\n        /* \"#utility.yul\":4439:4518   */\n    tag_89:\n        /* \"#utility.yul\":4478:4485   */\n      0x00\n        /* \"#utility.yul\":4507:4512   */\n      dup2\n        /* \"#utility.yul\":4496:4512   */\n      swap1\n      pop\n        /* \"#utility.yul\":4439:4518   */\n      swap2\n      swap1\n      pop\n      jump\t// out\n        /* \"#utility.yul\":4524:4681   */\n    tag_90:\n        /* \"#utility.yul\":4629:4674   */\n      tag_139\n        /* \"#utility.yul\":4649:4673   */\n      tag_140\n        /* \"#utility.yul\":4667:4672   */\n      dup3\n        /* \"#utility.yul\":4649:4673   */\n      tag_73\n      jump\t// in\n    tag_140:\n        /* \"#utility.yul\":4629:4674   */\n      tag_89\n      jump\t// in\n    tag_139:\n        /* \"#utility.yul\":4624:4627   */\n      dup3\n        /* \"#utility.yul\":4617:4675   */\n      mstore\n        /* \"#utility.yul\":4524:4681   */\n      pop\n      pop\n      jump\t// out\n        /* \"#utility.yul\":4687:5225   */\n    tag_65:\n        /* \"#utility.yul\":4855:4858   */\n      0x00\n        /* \"#utility.yul\":4870:4945   */\n      tag_142\n        /* \"#utility.yul\":4941:4944   */\n      dup3\n        /* \"#utility.yul\":4932:4938   */\n      dup7\n        /* \"#utility.yul\":4870:4945   */\n      tag_90\n      jump\t// in\n    tag_142:\n        /* \"#utility.yul\":4970:4972   */\n      0x20\n        /* \"#utility.yul\":4965:4968   */\n      dup3\n        /* \"#utility.yul\":4961:4973   */\n      add\n        /* \"#utility.yul\":4954:4973   */\n      swap2\n      pop\n        /* \"#utility.yul\":4983:5058   */\n      tag_143\n        /* \"#utility.yul\":5054:5057   */\n      dup3\n        /* \"#utility.yul\":5045:5051   */\n      dup6\n        /* \"#utility.yul\":4983:5058   */\n      tag_90\n      jump\t// in\n    tag_143:\n        /* \"#utility.yul\":5083:5085   */\n      0x20\n        /* \"#utility.yul\":5078:5081   */\n      dup3\n        /* \"#utility.yul\":5074:5086   */\n      add\n        /* \"#utility.yul\":5067:5086   */\n      swap2\n      pop\n        /* \"#utility.yul\":5096:5171   */\n      tag_144\n        /* \"#utility.yul\":5167:5170   */\n      dup3\n        /* \"#utility.yul\":5158:5164   */\n      dup5\n        /* \"#utility.yul\":5096:5171   */\n      tag_90\n      jump\t// in\n    tag_144:\n        /* \"#utility.yul\":5196:5198   */\n      0x20\n        /* \"#utility.yul\":5191:5194   */\n      dup3\n        /* \"#utility.yul\":5187:5199   */\n      add\n        /* \"#utility.yul\":5180:5199   */\n      swap2\n      pop\n        /* \"#utility.yul\":5216:5219   */\n      dup2\n        /* \"#utility.yul\":5209:5219   */\n      swap1\n      pop\n        /* \"#utility.yul\":4687:5225   */\n      swap5\n      swap4\n      pop\n      pop\n      pop\n      pop\n      jump\t// out\n\n    auxdata: 0xa26469706673582212201328c8faeda2fadbfede667c4f5593a088b729691c30972c83efe59bd227243f64736f6c634300080d0033\n}\n",
				"bytecode": {
					"linkReferences": {},
					"object": "608060405234801561001057600080fd5b50336000806101000a81548173ffffffffffffffffffffffffffffffffffffffff021916908373ffffffffffffffffffffffffffffffffffffffff1602179055506108a2806100606000396000f3fe60806040526004361061004e5760003560e01c806312065fe0146100d157806335c1d349146100fc578063481c6a75146101395780635d495aea14610164578063edd0eb061461017b576100cc565b366100cc57670de0b6b3a764000034101561006857600080fd5b6001339080600181540180825580915050600190039060005260206000200160009091909190916101000a81548173ffffffffffffffffffffffffffffffffffffffff021916908373ffffffffffffffffffffffffffffffffffffffff1602179055005b600080fd5b3480156100dd57600080fd5b506100e66101a6565b6040516100f3919061059c565b60405180910390f35b34801561010857600080fd5b50610123600480360381019061011e91906105e8565b61023d565b6040516101309190610656565b60405180910390f35b34801561014557600080fd5b5061014e61027c565b60405161015b9190610692565b60405180910390f35b34801561017057600080fd5b506101796102a0565b005b34801561018757600080fd5b506101906104a2565b60405161019d919061059c565b60405180910390f35b60008060009054906101000a900473ffffffffffffffffffffffffffffffffffffffff1673ffffffffffffffffffffffffffffffffffffffff163373ffffffffffffffffffffffffffffffffffffffff1614610237576040517f08c379a000000000000000000000000000000000000000000000000000000000815260040161022e90610730565b60405180910390fd5b47905090565b6001818154811061024d57600080fd5b906000526020600020016000915054906101000a900473ffffffffffffffffffffffffffffffffffffffff1681565b60008054906101000a900473ffffffffffffffffffffffffffffffffffffffff1681565b60008054906101000a900473ffffffffffffffffffffffffffffffffffffffff1673ffffffffffffffffffffffffffffffffffffffff163373ffffffffffffffffffffffffffffffffffffffff161461032e576040517f08c379a000000000000000000000000000000000000000000000000000000000815260040161032590610730565b60405180910390fd5b60006103386104a2565b905060006001805490508261034d919061077f565b905060018181548110610363576103626107b0565b5b9060005260206000200160009054906101000a900473ffffffffffffffffffffffffffffffffffffffff16600260006101000a81548173ffffffffffffffffffffffffffffffffffffffff021916908373ffffffffffffffffffffffffffffffffffffffff160217905550600260009054906101000a900473ffffffffffffffffffffffffffffffffffffffff1673ffffffffffffffffffffffffffffffffffffffff166108fc6104126101a6565b9081150290604051600060405180830381858888f1935050505015801561043d573d6000803e3d6000fd5b50600067ffffffffffffffff811115610459576104586107df565b5b6040519080825280602002602001820160405280156104875781602001602082028036833780820191505090505b506001908051906020019061049d9291906104dc565b505050565b600042446001805490506040516020016104be9392919061082f565b6040516020818303038152906040528051906020012060001c905090565b828054828255906000526020600020908101928215610555579160200282015b828111156105545782518260006101000a81548173ffffffffffffffffffffffffffffffffffffffff021916908373ffffffffffffffffffffffffffffffffffffffff160217905550916020019190600101906104fc565b5b5090506105629190610566565b5090565b5b8082111561057f576000816000905550600101610567565b5090565b6000819050919050565b61059681610583565b82525050565b60006020820190506105b1600083018461058d565b92915050565b600080fd5b6105c581610583565b81146105d057600080fd5b50565b6000813590506105e2816105bc565b92915050565b6000602082840312156105fe576105fd6105b7565b5b600061060c848285016105d3565b91505092915050565b600073ffffffffffffffffffffffffffffffffffffffff82169050919050565b600061064082610615565b9050919050565b61065081610635565b82525050565b600060208201905061066b6000830184610647565b92915050565b600061067c82610615565b9050919050565b61068c81610671565b82525050565b60006020820190506106a76000830184610683565b92915050565b600082825260208201905092915050565b7f4f6e6c79206f776e657273206172652061626c6520746f20736565207468652060008201527f746f74616c206e756d626572206f662066756e64730000000000000000000000602082015250565b600061071a6035836106ad565b9150610725826106be565b604082019050919050565b600060208201905081810360008301526107498161070d565b9050919050565b7f4e487b7100000000000000000000000000000000000000000000000000000000600052601260045260246000fd5b600061078a82610583565b915061079583610583565b9250826107a5576107a4610750565b5b828206905092915050565b7f4e487b7100000000000000000000000000000000000000000000000000000000600052603260045260246000fd5b7f4e487b7100000000000000000000000000000000000000000000000000000000600052604160045260246000fd5b6000819050919050565b61082961082482610583565b61080e565b82525050565b600061083b8286610818565b60208201915061084b8285610818565b60208201915061085b8284610818565b60208201915081905094935050505056fea26469706673582212201328c8faeda2fadbfede667c4f5593a088b729691c30972c83efe59bd227243f64736f6c634300080d0033",
					"opcodes": "PUSH1 0x80 PUSH1 0x40 MSTORE CALLVALUE DUP1 ISZERO PUSH2 0x10 JUMPI PUSH1 0x0 DUP1 REVERT JUMPDEST POP CALLER PUSH1 0x0 DUP1 PUSH2 0x100 EXP DUP2 SLOAD DUP2 PUSH20 0xFFFFFFFFFFFFFFFFFFFFFFFFFFFFFFFFFFFFFFFF MUL NOT AND SWAP1 DUP4 PUSH20 0xFFFFFFFFFFFFFFFFFFFFFFFFFFFFFFFFFFFFFFFF AND MUL OR SWAP1 SSTORE POP PUSH2 0x8A2 DUP1 PUSH2 0x60 PUSH1 0x0 CODECOPY PUSH1 0x0 RETURN INVALID PUSH1 0x80 PUSH1 0x40 MSTORE PUSH1 0x4 CALLDATASIZE LT PUSH2 0x4E JUMPI PUSH1 0x0 CALLDATALOAD PUSH1 0xE0 SHR DUP1 PUSH4 0x12065FE0 EQ PUSH2 0xD1 JUMPI DUP1 PUSH4 0x35C1D349 EQ PUSH2 0xFC JUMPI DUP1 PUSH4 0x481C6A75 EQ PUSH2 0x139 JUMPI DUP1 PUSH4 0x5D495AEA EQ PUSH2 0x164 JUMPI DUP1 PUSH4 0xEDD0EB06 EQ PUSH2 0x17B JUMPI PUSH2 0xCC JUMP JUMPDEST CALLDATASIZE PUSH2 0xCC JUMPI PUSH8 0xDE0B6B3A7640000 CALLVALUE LT ISZERO PUSH2 0x68 JUMPI PUSH1 0x0 DUP1 REVERT JUMPDEST PUSH1 0x1 CALLER SWAP1 DUP1 PUSH1 0x1 DUP2 SLOAD ADD DUP1 DUP3 SSTORE DUP1 SWAP2 POP POP PUSH1 0x1 SWAP1 SUB SWAP1 PUSH1 0x0 MSTORE PUSH1 0x20 PUSH1 0x0 KECCAK256 ADD PUSH1 0x0 SWAP1 SWAP2 SWAP1 SWAP2 SWAP1 SWAP2 PUSH2 0x100 EXP DUP2 SLOAD DUP2 PUSH20 0xFFFFFFFFFFFFFFFFFFFFFFFFFFFFFFFFFFFFFFFF MUL NOT AND SWAP1 DUP4 PUSH20 0xFFFFFFFFFFFFFFFFFFFFFFFFFFFFFFFFFFFFFFFF AND MUL OR SWAP1 SSTORE STOP JUMPDEST PUSH1 0x0 DUP1 REVERT JUMPDEST CALLVALUE DUP1 ISZERO PUSH2 0xDD JUMPI PUSH1 0x0 DUP1 REVERT JUMPDEST POP PUSH2 0xE6 PUSH2 0x1A6 JUMP JUMPDEST PUSH1 0x40 MLOAD PUSH2 0xF3 SWAP2 SWAP1 PUSH2 0x59C JUMP JUMPDEST PUSH1 0x40 MLOAD DUP1 SWAP2 SUB SWAP1 RETURN JUMPDEST CALLVALUE DUP1 ISZERO PUSH2 0x108 JUMPI PUSH1 0x0 DUP1 REVERT JUMPDEST POP PUSH2 0x123 PUSH1 0x4 DUP1 CALLDATASIZE SUB DUP2 ADD SWAP1 PUSH2 0x11E SWAP2 SWAP1 PUSH2 0x5E8 JUMP JUMPDEST PUSH2 0x23D JUMP JUMPDEST PUSH1 0x40 MLOAD PUSH2 0x130 SWAP2 SWAP1 PUSH2 0x656 JUMP JUMPDEST PUSH1 0x40 MLOAD DUP1 SWAP2 SUB SWAP1 RETURN JUMPDEST CALLVALUE DUP1 ISZERO PUSH2 0x145 JUMPI PUSH1 0x0 DUP1 REVERT JUMPDEST POP PUSH2 0x14E PUSH2 0x27C JUMP JUMPDEST PUSH1 0x40 MLOAD PUSH2 0x15B SWAP2 SWAP1 PUSH2 0x692 JUMP JUMPDEST PUSH1 0x40 MLOAD DUP1 SWAP2 SUB SWAP1 RETURN JUMPDEST CALLVALUE DUP1 ISZERO PUSH2 0x170 JUMPI PUSH1 0x0 DUP1 REVERT JUMPDEST POP PUSH2 0x179 PUSH2 0x2A0 JUMP JUMPDEST STOP JUMPDEST CALLVALUE DUP1 ISZERO PUSH2 0x187 JUMPI PUSH1 0x0 DUP1 REVERT JUMPDEST POP PUSH2 0x190 PUSH2 0x4A2 JUMP JUMPDEST PUSH1 0x40 MLOAD PUSH2 0x19D SWAP2 SWAP1 PUSH2 0x59C JUMP JUMPDEST PUSH1 0x40 MLOAD DUP1 SWAP2 SUB SWAP1 RETURN JUMPDEST PUSH1 0x0 DUP1 PUSH1 0x0 SWAP1 SLOAD SWAP1 PUSH2 0x100 EXP SWAP1 DIV PUSH20 0xFFFFFFFFFFFFFFFFFFFFFFFFFFFFFFFFFFFFFFFF AND PUSH20 0xFFFFFFFFFFFFFFFFFFFFFFFFFFFFFFFFFFFFFFFF AND CALLER PUSH20 0xFFFFFFFFFFFFFFFFFFFFFFFFFFFFFFFFFFFFFFFF AND EQ PUSH2 0x237 JUMPI PUSH1 0x40 MLOAD PUSH32 0x8C379A000000000000000000000000000000000000000000000000000000000 DUP2 MSTORE PUSH1 0x4 ADD PUSH2 0x22E SWAP1 PUSH2 0x730 JUMP JUMPDEST PUSH1 0x40 MLOAD DUP1 SWAP2 SUB SWAP1 REVERT JUMPDEST SELFBALANCE SWAP1 POP SWAP1 JUMP JUMPDEST PUSH1 0x1 DUP2 DUP2 SLOAD DUP2 LT PUSH2 0x24D JUMPI PUSH1 0x0 DUP1 REVERT JUMPDEST SWAP1 PUSH1 0x0 MSTORE PUSH1 0x20 PUSH1 0x0 KECCAK256 ADD PUSH1 0x0 SWAP2 POP SLOAD SWAP1 PUSH2 0x100 EXP SWAP1 DIV PUSH20 0xFFFFFFFFFFFFFFFFFFFFFFFFFFFFFFFFFFFFFFFF AND DUP2 JUMP JUMPDEST PUSH1 0x0 DUP1 SLOAD SWAP1 PUSH2 0x100 EXP SWAP1 DIV PUSH20 0xFFFFFFFFFFFFFFFFFFFFFFFFFFFFFFFFFFFFFFFF AND DUP2 JUMP JUMPDEST PUSH1 0x0 DUP1 SLOAD SWAP1 PUSH2 0x100 EXP SWAP1 DIV PUSH20 0xFFFFFFFFFFFFFFFFFFFFFFFFFFFFFFFFFFFFFFFF AND PUSH20 0xFFFFFFFFFFFFFFFFFFFFFFFFFFFFFFFFFFFFFFFF AND CALLER PUSH20 0xFFFFFFFFFFFFFFFFFFFFFFFFFFFFFFFFFFFFFFFF AND EQ PUSH2 0x32E JUMPI PUSH1 0x40 MLOAD PUSH32 0x8C379A000000000000000000000000000000000000000000000000000000000 DUP2 MSTORE PUSH1 0x4 ADD PUSH2 0x325 SWAP1 PUSH2 0x730 JUMP JUMPDEST PUSH1 0x40 MLOAD DUP1 SWAP2 SUB SWAP1 REVERT JUMPDEST PUSH1 0x0 PUSH2 0x338 PUSH2 0x4A2 JUMP JUMPDEST SWAP1 POP PUSH1 0x0 PUSH1 0x1 DUP1 SLOAD SWAP1 POP DUP3 PUSH2 0x34D SWAP2 SWAP1 PUSH2 0x77F JUMP JUMPDEST SWAP1 POP PUSH1 0x1 DUP2 DUP2 SLOAD DUP2 LT PUSH2 0x363 JUMPI PUSH2 0x362 PUSH2 0x7B0 JUMP JUMPDEST JUMPDEST SWAP1 PUSH1 0x0 MSTORE PUSH1 0x20 PUSH1 0x0 KECCAK256 ADD PUSH1 0x0 SWAP1 SLOAD SWAP1 PUSH2 0x100 EXP SWAP1 DIV PUSH20 0xFFFFFFFFFFFFFFFFFFFFFFFFFFFFFFFFFFFFFFFF AND PUSH1 0x2 PUSH1 0x0 PUSH2 0x100 EXP DUP2 SLOAD DUP2 PUSH20 0xFFFFFFFFFFFFFFFFFFFFFFFFFFFFFFFFFFFFFFFF MUL NOT AND SWAP1 DUP4 PUSH20 0xFFFFFFFFFFFFFFFFFFFFFFFFFFFFFFFFFFFFFFFF AND MUL OR SWAP1 SSTORE POP PUSH1 0x2 PUSH1 0x0 SWAP1 SLOAD SWAP1 PUSH2 0x100 EXP SWAP1 DIV PUSH20 0xFFFFFFFFFFFFFFFFFFFFFFFFFFFFFFFFFFFFFFFF AND PUSH20 0xFFFFFFFFFFFFFFFFFFFFFFFFFFFFFFFFFFFFFFFF AND PUSH2 0x8FC PUSH2 0x412 PUSH2 0x1A6 JUMP JUMPDEST SWAP1 DUP2 ISZERO MUL SWAP1 PUSH1 0x40 MLOAD PUSH1 0x0 PUSH1 0x40 MLOAD DUP1 DUP4 SUB DUP2 DUP6 DUP9 DUP9 CALL SWAP4 POP POP POP POP ISZERO DUP1 ISZERO PUSH2 0x43D JUMPI RETURNDATASIZE PUSH1 0x0 DUP1 RETURNDATACOPY RETURNDATASIZE PUSH1 0x0 REVERT JUMPDEST POP PUSH1 0x0 PUSH8 0xFFFFFFFFFFFFFFFF DUP2 GT ISZERO PUSH2 0x459 JUMPI PUSH2 0x458 PUSH2 0x7DF JUMP JUMPDEST JUMPDEST PUSH1 0x40 MLOAD SWAP1 DUP1 DUP3 MSTORE DUP1 PUSH1 0x20 MUL PUSH1 0x20 ADD DUP3 ADD PUSH1 0x40 MSTORE DUP1 ISZERO PUSH2 0x487 JUMPI DUP2 PUSH1 0x20 ADD PUSH1 0x20 DUP3 MUL DUP1 CALLDATASIZE DUP4 CALLDATACOPY DUP1 DUP3 ADD SWAP2 POP POP SWAP1 POP JUMPDEST POP PUSH1 0x1 SWAP1 DUP1 MLOAD SWAP1 PUSH1 0x20 ADD SWAP1 PUSH2 0x49D SWAP3 SWAP2 SWAP1 PUSH2 0x4DC JUMP JUMPDEST POP POP POP JUMP JUMPDEST PUSH1 0x0 TIMESTAMP DIFFICULTY PUSH1 0x1 DUP1 SLOAD SWAP1 POP PUSH1 0x40 MLOAD PUSH1 0x20 ADD PUSH2 0x4BE SWAP4 SWAP3 SWAP2 SWAP1 PUSH2 0x82F JUMP JUMPDEST PUSH1 0x40 MLOAD PUSH1 0x20 DUP2 DUP4 SUB SUB DUP2 MSTORE SWAP1 PUSH1 0x40 MSTORE DUP1 MLOAD SWAP1 PUSH1 0x20 ADD KECCAK256 PUSH1 0x0 SHR SWAP1 POP SWAP1 JUMP JUMPDEST DUP3 DUP1 SLOAD DUP3 DUP3 SSTORE SWAP1 PUSH1 0x0 MSTORE PUSH1 0x20 PUSH1 0x0 KECCAK256 SWAP1 DUP2 ADD SWAP3 DUP3 ISZERO PUSH2 0x555 JUMPI SWAP2 PUSH1 0x20 MUL DUP3 ADD JUMPDEST DUP3 DUP2 GT ISZERO PUSH2 0x554 JUMPI DUP3 MLOAD DUP3 PUSH1 0x0 PUSH2 0x100 EXP DUP2 SLOAD DUP2 PUSH20 0xFFFFFFFFFFFFFFFFFFFFFFFFFFFFFFFFFFFFFFFF MUL NOT AND SWAP1 DUP4 PUSH20 0xFFFFFFFFFFFFFFFFFFFFFFFFFFFFFFFFFFFFFFFF AND MUL OR SWAP1 SSTORE POP SWAP2 PUSH1 0x20 ADD SWAP2 SWAP1 PUSH1 0x1 ADD SWAP1 PUSH2 0x4FC JUMP JUMPDEST JUMPDEST POP SWAP1 POP PUSH2 0x562 SWAP2 SWAP1 PUSH2 0x566 JUMP JUMPDEST POP SWAP1 JUMP JUMPDEST JUMPDEST DUP1 DUP3 GT ISZERO PUSH2 0x57F JUMPI PUSH1 0x0 DUP2 PUSH1 0x0 SWAP1 SSTORE POP PUSH1 0x1 ADD PUSH2 0x567 JUMP JUMPDEST POP SWAP1 JUMP JUMPDEST PUSH1 0x0 DUP2 SWAP1 POP SWAP2 SWAP1 POP JUMP JUMPDEST PUSH2 0x596 DUP2 PUSH2 0x583 JUMP JUMPDEST DUP3 MSTORE POP POP JUMP JUMPDEST PUSH1 0x0 PUSH1 0x20 DUP3 ADD SWAP1 POP PUSH2 0x5B1 PUSH1 0x0 DUP4 ADD DUP5 PUSH2 0x58D JUMP JUMPDEST SWAP3 SWAP2 POP POP JUMP JUMPDEST PUSH1 0x0 DUP1 REVERT JUMPDEST PUSH2 0x5C5 DUP2 PUSH2 0x583 JUMP JUMPDEST DUP2 EQ PUSH2 0x5D0 JUMPI PUSH1 0x0 DUP1 REVERT JUMPDEST POP JUMP JUMPDEST PUSH1 0x0 DUP2 CALLDATALOAD SWAP1 POP PUSH2 0x5E2 DUP2 PUSH2 0x5BC JUMP JUMPDEST SWAP3 SWAP2 POP POP JUMP JUMPDEST PUSH1 0x0 PUSH1 0x20 DUP3 DUP5 SUB SLT ISZERO PUSH2 0x5FE JUMPI PUSH2 0x5FD PUSH2 0x5B7 JUMP JUMPDEST JUMPDEST PUSH1 0x0 PUSH2 0x60C DUP5 DUP3 DUP6 ADD PUSH2 0x5D3 JUMP JUMPDEST SWAP2 POP POP SWAP3 SWAP2 POP POP JUMP JUMPDEST PUSH1 0x0 PUSH20 0xFFFFFFFFFFFFFFFFFFFFFFFFFFFFFFFFFFFFFFFF DUP3 AND SWAP1 POP SWAP2 SWAP1 POP JUMP JUMPDEST PUSH1 0x0 PUSH2 0x640 DUP3 PUSH2 0x615 JUMP JUMPDEST SWAP1 POP SWAP2 SWAP1 POP JUMP JUMPDEST PUSH2 0x650 DUP2 PUSH2 0x635 JUMP JUMPDEST DUP3 MSTORE POP POP JUMP JUMPDEST PUSH1 0x0 PUSH1 0x20 DUP3 ADD SWAP1 POP PUSH2 0x66B PUSH1 0x0 DUP4 ADD DUP5 PUSH2 0x647 JUMP JUMPDEST SWAP3 SWAP2 POP POP JUMP JUMPDEST PUSH1 0x0 PUSH2 0x67C DUP3 PUSH2 0x615 JUMP JUMPDEST SWAP1 POP SWAP2 SWAP1 POP JUMP JUMPDEST PUSH2 0x68C DUP2 PUSH2 0x671 JUMP JUMPDEST DUP3 MSTORE POP POP JUMP JUMPDEST PUSH1 0x0 PUSH1 0x20 DUP3 ADD SWAP1 POP PUSH2 0x6A7 PUSH1 0x0 DUP4 ADD DUP5 PUSH2 0x683 JUMP JUMPDEST SWAP3 SWAP2 POP POP JUMP JUMPDEST PUSH1 0x0 DUP3 DUP3 MSTORE PUSH1 0x20 DUP3 ADD SWAP1 POP SWAP3 SWAP2 POP POP JUMP JUMPDEST PUSH32 0x4F6E6C79206F776E657273206172652061626C6520746F207365652074686520 PUSH1 0x0 DUP3 ADD MSTORE PUSH32 0x746F74616C206E756D626572206F662066756E64730000000000000000000000 PUSH1 0x20 DUP3 ADD MSTORE POP JUMP JUMPDEST PUSH1 0x0 PUSH2 0x71A PUSH1 0x35 DUP4 PUSH2 0x6AD JUMP JUMPDEST SWAP2 POP PUSH2 0x725 DUP3 PUSH2 0x6BE JUMP JUMPDEST PUSH1 0x40 DUP3 ADD SWAP1 POP SWAP2 SWAP1 POP JUMP JUMPDEST PUSH1 0x0 PUSH1 0x20 DUP3 ADD SWAP1 POP DUP2 DUP2 SUB PUSH1 0x0 DUP4 ADD MSTORE PUSH2 0x749 DUP2 PUSH2 0x70D JUMP JUMPDEST SWAP1 POP SWAP2 SWAP1 POP JUMP JUMPDEST PUSH32 0x4E487B7100000000000000000000000000000000000000000000000000000000 PUSH1 0x0 MSTORE PUSH1 0x12 PUSH1 0x4 MSTORE PUSH1 0x24 PUSH1 0x0 REVERT JUMPDEST PUSH1 0x0 PUSH2 0x78A DUP3 PUSH2 0x583 JUMP JUMPDEST SWAP2 POP PUSH2 0x795 DUP4 PUSH2 0x583 JUMP JUMPDEST SWAP3 POP DUP3 PUSH2 0x7A5 JUMPI PUSH2 0x7A4 PUSH2 0x750 JUMP JUMPDEST JUMPDEST DUP3 DUP3 MOD SWAP1 POP SWAP3 SWAP2 POP POP JUMP JUMPDEST PUSH32 0x4E487B7100000000000000000000000000000000000000000000000000000000 PUSH1 0x0 MSTORE PUSH1 0x32 PUSH1 0x4 MSTORE PUSH1 0x24 PUSH1 0x0 REVERT JUMPDEST PUSH32 0x4E487B7100000000000000000000000000000000000000000000000000000000 PUSH1 0x0 MSTORE PUSH1 0x41 PUSH1 0x4 MSTORE PUSH1 0x24 PUSH1 0x0 REVERT JUMPDEST PUSH1 0x0 DUP2 SWAP1 POP SWAP2 SWAP1 POP JUMP JUMPDEST PUSH2 0x829 PUSH2 0x824 DUP3 PUSH2 0x583 JUMP JUMPDEST PUSH2 0x80E JUMP JUMPDEST DUP3 MSTORE POP POP JUMP JUMPDEST PUSH1 0x0 PUSH2 0x83B DUP3 DUP7 PUSH2 0x818 JUMP JUMPDEST PUSH1 0x20 DUP3 ADD SWAP2 POP PUSH2 0x84B DUP3 DUP6 PUSH2 0x818 JUMP JUMPDEST PUSH1 0x20 DUP3 ADD SWAP2 POP PUSH2 0x85B DUP3 DUP5 PUSH2 0x818 JUMP JUMPDEST PUSH1 0x20 DUP3 ADD SWAP2 POP DUP2 SWAP1 POP SWAP5 SWAP4 POP POP POP POP JUMP INVALID LOG2 PUSH5 0x6970667358 0x22 SLT KECCAK256 SGT 0x28 0xC8 STATICCALL 0xED LOG2 STATICCALL 0xDB INVALID 0xDE PUSH7 0x7C4F5593A088B7 0x29 PUSH10 0x1C30972C83EFE59BD227 0x24 EXTCODEHASH PUSH5 0x736F6C6343 STOP ADDMOD 0xD STOP CALLER "
				},
				"gasEstimates": {
					"creation": {
						"codeDepositCost": "442000",
						"executionCost": "24746",
						"totalCost": "466746"
					},
					"external": {
						"getBalance()": "2602",
						"getRandomAddress()": "infinite",
						"manager()": "2533",
						"participants(uint256)": "4956",
						"pickWinner()": "infinite"
					}
				},
				"methodIdentifiers": {
					"getBalance()": "12065fe0",
					"getRandomAddress()": "edd0eb06",
					"manager()": "481c6a75",
					"participants(uint256)": "35c1d349",
					"pickWinner()": "5d495aea"
				}
			},
			"userdoc": {
				"kind": "user",
				"methods": {},
				"version": 1
			}
		}
	}
}