{
	"contracts/Lottery System/Lottery.sol": {
		"Lottery": {
			"abi": [
				{
					"inputs": [],
					"stateMutability": "nonpayable",
					"type": "constructor"
				},
				{
					"inputs": [
						{
							"internalType": "address",
							"name": "",
							"type": "address"
						}
					],
					"name": "ethCount",
					"outputs": [
						{
							"internalType": "uint256",
							"name": "",
							"type": "uint256"
						}
					],
					"stateMutability": "view",
					"type": "function"
				},
				{
					"inputs": [],
					"name": "getBalance",
					"outputs": [
						{
							"internalType": "uint256",
							"name": "",
							"type": "uint256"
						}
					],
					"stateMutability": "view",
					"type": "function"
				},
				{
					"inputs": [],
					"name": "getRandomAddress",
					"outputs": [
						{
							"internalType": "uint256",
							"name": "",
							"type": "uint256"
						}
					],
					"stateMutability": "view",
					"type": "function"
				},
				{
					"inputs": [],
					"name": "manager",
					"outputs": [
						{
							"internalType": "address",
							"name": "",
							"type": "address"
						}
					],
					"stateMutability": "view",
					"type": "function"
				},
				{
					"inputs": [
						{
							"internalType": "uint256",
							"name": "",
							"type": "uint256"
						}
					],
					"name": "participants",
					"outputs": [
						{
							"internalType": "address payable",
							"name": "",
							"type": "address"
						}
					],
					"stateMutability": "view",
					"type": "function"
				},
				{
					"inputs": [],
					"name": "pickWinner",
					"outputs": [],
					"stateMutability": "nonpayable",
					"type": "function"
				},
				{
					"stateMutability": "payable",
					"type": "receive"
				}
			],
			"devdoc": {
				"kind": "dev",
				"methods": {},
				"version": 1
			},
			"evm": {
				"assembly": "    /* \"contracts/Lottery System/Lottery.sol\":59:1313  contract Lottery {... */\n  mstore(0x40, 0x80)\n    /* \"contracts/Lottery System/Lottery.sol\":237:290  constructor() {... */\n  callvalue\n  dup1\n  iszero\n  tag_1\n  jumpi\n  0x00\n  dup1\n  revert\ntag_1:\n  pop\n    /* \"contracts/Lottery System/Lottery.sol\":272:282  msg.sender */\n  caller\n    /* \"contracts/Lottery System/Lottery.sol\":262:269  manager */\n  0x00\n  dup1\n    /* \"contracts/Lottery System/Lottery.sol\":262:282  manager = msg.sender */\n  0x0100\n  exp\n  dup2\n  sload\n  dup2\n  0xffffffffffffffffffffffffffffffffffffffff\n  mul\n  not\n  and\n  swap1\n  dup4\n  0xffffffffffffffffffffffffffffffffffffffff\n  and\n  mul\n  or\n  swap1\n  sstore\n  pop\n    /* \"contracts/Lottery System/Lottery.sol\":59:1313  contract Lottery {... */\n  dataSize(sub_0)\n  dup1\n  dataOffset(sub_0)\n  0x00\n  codecopy\n  0x00\n  return\nstop\n\nsub_0: assembly {\n        /* \"contracts/Lottery System/Lottery.sol\":59:1313  contract Lottery {... */\n      mstore(0x40, 0x80)\n      jumpi(tag_1, lt(calldatasize, 0x04))\n      shr(0xe0, calldataload(0x00))\n      dup1\n      0x12065fe0\n      eq\n      tag_3\n      jumpi\n      dup1\n      0x35c1d349\n      eq\n      tag_4\n      jumpi\n      dup1\n      0x481c6a75\n      eq\n      tag_5\n      jumpi\n      dup1\n      0x5d495aea\n      eq\n      tag_6\n      jumpi\n      dup1\n      0x872a90d7\n      eq\n      tag_7\n      jumpi\n      dup1\n      0xedd0eb06\n      eq\n      tag_8\n      jumpi\n      jump(tag_2)\n    tag_1:\n      jumpi(tag_2, calldatasize)\n        /* \"contracts/Lottery System/Lottery.sol\":501:508  1 ether */\n      0x0de0b6b3a7640000\n        /* \"contracts/Lottery System/Lottery.sol\":488:497  msg.value */\n      callvalue\n        /* \"contracts/Lottery System/Lottery.sol\":488:508  msg.value >= 1 ether */\n      lt\n      iszero\n        /* \"contracts/Lottery System/Lottery.sol\":480:509  require(msg.value >= 1 ether) */\n      tag_11\n      jumpi\n      0x00\n      dup1\n      revert\n    tag_11:\n        /* \"contracts/Lottery System/Lottery.sol\":581:593  participants */\n      0x01\n        /* \"contracts/Lottery System/Lottery.sol\":607:617  msg.sender */\n      caller\n        /* \"contracts/Lottery System/Lottery.sol\":581:619  participants.push(payable(msg.sender)) */\n      swap1\n      dup1\n      0x01\n      dup2\n      sload\n      add\n      dup1\n      dup3\n      sstore\n      dup1\n      swap2\n      pop\n      pop\n      0x01\n      swap1\n      sub\n      swap1\n      0x00\n      mstore\n      keccak256(0x00, 0x20)\n      add\n      0x00\n      swap1\n      swap2\n      swap1\n      swap2\n      swap1\n      swap2\n      0x0100\n      exp\n      dup2\n      sload\n      dup2\n      0xffffffffffffffffffffffffffffffffffffffff\n      mul\n      not\n      and\n      swap1\n      dup4\n      0xffffffffffffffffffffffffffffffffffffffff\n      and\n      mul\n      or\n      swap1\n      sstore\n      pop\n        /* \"contracts/Lottery System/Lottery.sol\":729:738  msg.value */\n      callvalue\n        /* \"contracts/Lottery System/Lottery.sol\":705:713  ethCount */\n      0x03\n        /* \"contracts/Lottery System/Lottery.sol\":705:725  ethCount[msg.sender] */\n      0x00\n        /* \"contracts/Lottery System/Lottery.sol\":714:724  msg.sender */\n      caller\n        /* \"contracts/Lottery System/Lottery.sol\":705:725  ethCount[msg.sender] */\n      0xffffffffffffffffffffffffffffffffffffffff\n      and\n      0xffffffffffffffffffffffffffffffffffffffff\n      and\n      dup2\n      mstore\n      0x20\n      add\n      swap1\n      dup2\n      mstore\n      0x20\n      add\n      0x00\n      keccak256\n      0x00\n        /* \"contracts/Lottery System/Lottery.sol\":705:738  ethCount[msg.sender] += msg.value */\n      dup3\n      dup3\n      sload\n      tag_13\n      swap2\n      swap1\n      tag_14\n      jump\t// in\n    tag_13:\n      swap3\n      pop\n      pop\n      dup2\n      swap1\n      sstore\n      stop\n        /* \"contracts/Lottery System/Lottery.sol\":59:1313  contract Lottery {... */\n    tag_2:\n      0x00\n      dup1\n      revert\n        /* \"contracts/Lottery System/Lottery.sol\":755:862  function getBalance() public view onlyOwner returns(uint256){... */\n    tag_3:\n      callvalue\n      dup1\n      iszero\n      tag_15\n      jumpi\n      0x00\n      dup1\n      revert\n    tag_15:\n      pop\n      tag_16\n      tag_17\n      jump\t// in\n    tag_16:\n      mload(0x40)\n      tag_18\n      swap2\n      swap1\n      tag_19\n      jump\t// in\n    tag_18:\n      mload(0x40)\n      dup1\n      swap2\n      sub\n      swap1\n      return\n        /* \"contracts/Lottery System/Lottery.sol\":112:149  address payable[] public participants */\n    tag_4:\n      callvalue\n      dup1\n      iszero\n      tag_20\n      jumpi\n      0x00\n      dup1\n      revert\n    tag_20:\n      pop\n      tag_21\n      0x04\n      dup1\n      calldatasize\n      sub\n      dup2\n      add\n      swap1\n      tag_22\n      swap2\n      swap1\n      tag_23\n      jump\t// in\n    tag_22:\n      tag_24\n      jump\t// in\n    tag_21:\n      mload(0x40)\n      tag_25\n      swap2\n      swap1\n      tag_26\n      jump\t// in\n    tag_25:\n      mload(0x40)\n      dup1\n      swap2\n      sub\n      swap1\n      return\n        /* \"contracts/Lottery System/Lottery.sol\":83:105  address public manager */\n    tag_5:\n      callvalue\n      dup1\n      iszero\n      tag_27\n      jumpi\n      0x00\n      dup1\n      revert\n    tag_27:\n      pop\n      tag_28\n      tag_29\n      jump\t// in\n    tag_28:\n      mload(0x40)\n      tag_30\n      swap2\n      swap1\n      tag_31\n      jump\t// in\n    tag_30:\n      mload(0x40)\n      dup1\n      swap2\n      sub\n      swap1\n      return\n        /* \"contracts/Lottery System/Lottery.sol\":1043:1304  function pickWinner() public onlyOwner {... */\n    tag_6:\n      callvalue\n      dup1\n      iszero\n      tag_32\n      jumpi\n      0x00\n      dup1\n      revert\n    tag_32:\n      pop\n      tag_33\n      tag_34\n      jump\t// in\n    tag_33:\n      stop\n        /* \"contracts/Lottery System/Lottery.sol\":187:228  mapping(address=>uint256) public ethCount */\n    tag_7:\n      callvalue\n      dup1\n      iszero\n      tag_35\n      jumpi\n      0x00\n      dup1\n      revert\n    tag_35:\n      pop\n      tag_36\n      0x04\n      dup1\n      calldatasize\n      sub\n      dup2\n      add\n      swap1\n      tag_37\n      swap2\n      swap1\n      tag_38\n      jump\t// in\n    tag_37:\n      tag_39\n      jump\t// in\n    tag_36:\n      mload(0x40)\n      tag_40\n      swap2\n      swap1\n      tag_19\n      jump\t// in\n    tag_40:\n      mload(0x40)\n      dup1\n      swap2\n      sub\n      swap1\n      return\n        /* \"contracts/Lottery System/Lottery.sol\":870:1037  function getRandomAddress() public view returns(uint){... */\n    tag_8:\n      callvalue\n      dup1\n      iszero\n      tag_41\n      jumpi\n      0x00\n      dup1\n      revert\n    tag_41:\n      pop\n      tag_42\n      tag_43\n      jump\t// in\n    tag_42:\n      mload(0x40)\n      tag_44\n      swap2\n      swap1\n      tag_19\n      jump\t// in\n    tag_44:\n      mload(0x40)\n      dup1\n      swap2\n      sub\n      swap1\n      return\n        /* \"contracts/Lottery System/Lottery.sol\":755:862  function getBalance() public view onlyOwner returns(uint256){... */\n    tag_17:\n        /* \"contracts/Lottery System/Lottery.sol\":807:814  uint256 */\n      0x00\n        /* \"contracts/Lottery System/Lottery.sol\":350:357  manager */\n      dup1\n      0x00\n      swap1\n      sload\n      swap1\n      0x0100\n      exp\n      swap1\n      div\n      0xffffffffffffffffffffffffffffffffffffffff\n      and\n        /* \"contracts/Lottery System/Lottery.sol\":336:357  msg.sender == manager */\n      0xffffffffffffffffffffffffffffffffffffffff\n      and\n        /* \"contracts/Lottery System/Lottery.sol\":336:346  msg.sender */\n      caller\n        /* \"contracts/Lottery System/Lottery.sol\":336:357  msg.sender == manager */\n      0xffffffffffffffffffffffffffffffffffffffff\n      and\n      eq\n        /* \"contracts/Lottery System/Lottery.sol\":328:414  require(msg.sender == manager,\"Only owners are able to see the total number of funds\") */\n      tag_46\n      jumpi\n      mload(0x40)\n      0x08c379a000000000000000000000000000000000000000000000000000000000\n      dup2\n      mstore\n      0x04\n      add\n      tag_47\n      swap1\n      tag_48\n      jump\t// in\n    tag_47:\n      mload(0x40)\n      dup1\n      swap2\n      sub\n      swap1\n      revert\n    tag_46:\n        /* \"contracts/Lottery System/Lottery.sol\":833:854  address(this).balance */\n      selfbalance\n        /* \"contracts/Lottery System/Lottery.sol\":826:854  return address(this).balance */\n      swap1\n      pop\n        /* \"contracts/Lottery System/Lottery.sol\":755:862  function getBalance() public view onlyOwner returns(uint256){... */\n      swap1\n      jump\t// out\n        /* \"contracts/Lottery System/Lottery.sol\":112:149  address payable[] public participants */\n    tag_24:\n      0x01\n      dup2\n      dup2\n      sload\n      dup2\n      lt\n      tag_50\n      jumpi\n      0x00\n      dup1\n      revert\n    tag_50:\n      swap1\n      0x00\n      mstore\n      keccak256(0x00, 0x20)\n      add\n      0x00\n      swap2\n      pop\n      sload\n      swap1\n      0x0100\n      exp\n      swap1\n      div\n      0xffffffffffffffffffffffffffffffffffffffff\n      and\n      dup2\n      jump\t// out\n        /* \"contracts/Lottery System/Lottery.sol\":83:105  address public manager */\n    tag_29:\n      0x00\n      dup1\n      sload\n      swap1\n      0x0100\n      exp\n      swap1\n      div\n      0xffffffffffffffffffffffffffffffffffffffff\n      and\n      dup2\n      jump\t// out\n        /* \"contracts/Lottery System/Lottery.sol\":1043:1304  function pickWinner() public onlyOwner {... */\n    tag_34:\n        /* \"contracts/Lottery System/Lottery.sol\":350:357  manager */\n      0x00\n      dup1\n      sload\n      swap1\n      0x0100\n      exp\n      swap1\n      div\n      0xffffffffffffffffffffffffffffffffffffffff\n      and\n        /* \"contracts/Lottery System/Lottery.sol\":336:357  msg.sender == manager */\n      0xffffffffffffffffffffffffffffffffffffffff\n      and\n        /* \"contracts/Lottery System/Lottery.sol\":336:346  msg.sender */\n      caller\n        /* \"contracts/Lottery System/Lottery.sol\":336:357  msg.sender == manager */\n      0xffffffffffffffffffffffffffffffffffffffff\n      and\n      eq\n        /* \"contracts/Lottery System/Lottery.sol\":328:414  require(msg.sender == manager,\"Only owners are able to see the total number of funds\") */\n      tag_53\n      jumpi\n      mload(0x40)\n      0x08c379a000000000000000000000000000000000000000000000000000000000\n      dup2\n      mstore\n      0x04\n      add\n      tag_54\n      swap1\n      tag_48\n      jump\t// in\n    tag_54:\n      mload(0x40)\n      dup1\n      swap2\n      sub\n      swap1\n      revert\n    tag_53:\n        /* \"contracts/Lottery System/Lottery.sol\":1093:1099  uint r */\n      0x00\n        /* \"contracts/Lottery System/Lottery.sol\":1102:1120  getRandomAddress() */\n      tag_56\n        /* \"contracts/Lottery System/Lottery.sol\":1102:1118  getRandomAddress */\n      tag_43\n        /* \"contracts/Lottery System/Lottery.sol\":1102:1120  getRandomAddress() */\n      jump\t// in\n    tag_56:\n        /* \"contracts/Lottery System/Lottery.sol\":1093:1120  uint r = getRandomAddress() */\n      swap1\n      pop\n        /* \"contracts/Lottery System/Lottery.sol\":1131:1141  uint index */\n      0x00\n        /* \"contracts/Lottery System/Lottery.sol\":1148:1160  participants */\n      0x01\n        /* \"contracts/Lottery System/Lottery.sol\":1148:1167  participants.length */\n      dup1\n      sload\n      swap1\n      pop\n        /* \"contracts/Lottery System/Lottery.sol\":1144:1145  r */\n      dup3\n        /* \"contracts/Lottery System/Lottery.sol\":1144:1167  r % participants.length */\n      tag_57\n      swap2\n      swap1\n      tag_58\n      jump\t// in\n    tag_57:\n        /* \"contracts/Lottery System/Lottery.sol\":1131:1167  uint index = r % participants.length */\n      swap1\n      pop\n        /* \"contracts/Lottery System/Lottery.sol\":1187:1199  participants */\n      0x01\n        /* \"contracts/Lottery System/Lottery.sol\":1200:1205  index */\n      dup2\n        /* \"contracts/Lottery System/Lottery.sol\":1187:1206  participants[index] */\n      dup2\n      sload\n      dup2\n      lt\n      tag_59\n      jumpi\n      tag_60\n      tag_61\n      jump\t// in\n    tag_60:\n    tag_59:\n      swap1\n      0x00\n      mstore\n      keccak256(0x00, 0x20)\n      add\n      0x00\n      swap1\n      sload\n      swap1\n      0x0100\n      exp\n      swap1\n      div\n      0xffffffffffffffffffffffffffffffffffffffff\n      and\n        /* \"contracts/Lottery System/Lottery.sol\":1178:1184  winner */\n      0x02\n      0x00\n        /* \"contracts/Lottery System/Lottery.sol\":1178:1206  winner = participants[index] */\n      0x0100\n      exp\n      dup2\n      sload\n      dup2\n      0xffffffffffffffffffffffffffffffffffffffff\n      mul\n      not\n      and\n      swap1\n      dup4\n      0xffffffffffffffffffffffffffffffffffffffff\n      and\n      mul\n      or\n      swap1\n      sstore\n      pop\n        /* \"contracts/Lottery System/Lottery.sol\":1217:1223  winner */\n      0x02\n      0x00\n      swap1\n      sload\n      swap1\n      0x0100\n      exp\n      swap1\n      div\n      0xffffffffffffffffffffffffffffffffffffffff\n      and\n        /* \"contracts/Lottery System/Lottery.sol\":1217:1232  winner.transfer */\n      0xffffffffffffffffffffffffffffffffffffffff\n      and\n        /* \"contracts/Lottery System/Lottery.sol\":1217:1246  winner.transfer(getBalance()) */\n      0x08fc\n        /* \"contracts/Lottery System/Lottery.sol\":1233:1245  getBalance() */\n      tag_63\n        /* \"contracts/Lottery System/Lottery.sol\":1233:1243  getBalance */\n      tag_17\n        /* \"contracts/Lottery System/Lottery.sol\":1233:1245  getBalance() */\n      jump\t// in\n    tag_63:\n        /* \"contracts/Lottery System/Lottery.sol\":1217:1246  winner.transfer(getBalance()) */\n      swap1\n      dup2\n      iszero\n      mul\n      swap1\n      mload(0x40)\n      0x00\n      mload(0x40)\n      dup1\n      dup4\n      sub\n      dup2\n      dup6\n      dup9\n      dup9\n      call\n      swap4\n      pop\n      pop\n      pop\n      pop\n      iszero\n      dup1\n      iszero\n      tag_65\n      jumpi\n      returndatasize\n      0x00\n      dup1\n      returndatacopy\n      revert(0x00, returndatasize)\n    tag_65:\n      pop\n        /* \"contracts/Lottery System/Lottery.sol\":1294:1295  0 */\n      0x00\n        /* \"contracts/Lottery System/Lottery.sol\":1272:1296  new address payable[](0) */\n      0xffffffffffffffff\n      dup2\n      gt\n      iszero\n      tag_66\n      jumpi\n      tag_67\n      tag_68\n      jump\t// in\n    tag_67:\n    tag_66:\n      mload(0x40)\n      swap1\n      dup1\n      dup3\n      mstore\n      dup1\n      0x20\n      mul\n      0x20\n      add\n      dup3\n      add\n      0x40\n      mstore\n      dup1\n      iszero\n      tag_69\n      jumpi\n      dup2\n      0x20\n      add\n      0x20\n      dup3\n      mul\n      dup1\n      calldatasize\n      dup4\n      calldatacopy\n      dup1\n      dup3\n      add\n      swap2\n      pop\n      pop\n      swap1\n      pop\n    tag_69:\n      pop\n        /* \"contracts/Lottery System/Lottery.sol\":1257:1269  participants */\n      0x01\n        /* \"contracts/Lottery System/Lottery.sol\":1257:1296  participants = new address payable[](0) */\n      swap1\n      dup1\n      mload\n      swap1\n      0x20\n      add\n      swap1\n      tag_70\n      swap3\n      swap2\n      swap1\n      tag_71\n      jump\t// in\n    tag_70:\n      pop\n        /* \"contracts/Lottery System/Lottery.sol\":1082:1304  {... */\n      pop\n      pop\n        /* \"contracts/Lottery System/Lottery.sol\":1043:1304  function pickWinner() public onlyOwner {... */\n      jump\t// out\n        /* \"contracts/Lottery System/Lottery.sol\":187:228  mapping(address=>uint256) public ethCount */\n    tag_39:\n      mstore(0x20, 0x03)\n      dup1\n      0x00\n      mstore\n      keccak256(0x00, 0x40)\n      0x00\n      swap2\n      pop\n      swap1\n      pop\n      sload\n      dup2\n      jump\t// out\n        /* \"contracts/Lottery System/Lottery.sol\":870:1037  function getRandomAddress() public view returns(uint){... */\n    tag_43:\n        /* \"contracts/Lottery System/Lottery.sol\":918:922  uint */\n      0x00\n        /* \"contracts/Lottery System/Lottery.sol\":973:988  block.timestamp */\n      timestamp\n        /* \"contracts/Lottery System/Lottery.sol\":989:1005  block.difficulty */\n      difficulty\n        /* \"contracts/Lottery System/Lottery.sol\":1007:1019  participants */\n      0x01\n        /* \"contracts/Lottery System/Lottery.sol\":1007:1026  participants.length */\n      dup1\n      sload\n      swap1\n      pop\n        /* \"contracts/Lottery System/Lottery.sol\":956:1027  abi.encodePacked(block.timestamp,block.difficulty, participants.length) */\n      add(0x20, mload(0x40))\n      tag_73\n      swap4\n      swap3\n      swap2\n      swap1\n      tag_74\n      jump\t// in\n    tag_73:\n      mload(0x40)\n      0x20\n      dup2\n      dup4\n      sub\n      sub\n      dup2\n      mstore\n      swap1\n      0x40\n      mstore\n        /* \"contracts/Lottery System/Lottery.sol\":946:1028  keccak256(abi.encodePacked(block.timestamp,block.difficulty, participants.length)) */\n      dup1\n      mload\n      swap1\n      0x20\n      add\n      keccak256\n        /* \"contracts/Lottery System/Lottery.sol\":941:1029  uint(keccak256(abi.encodePacked(block.timestamp,block.difficulty, participants.length))) */\n      0x00\n      shr\n        /* \"contracts/Lottery System/Lottery.sol\":934:1029  return uint(keccak256(abi.encodePacked(block.timestamp,block.difficulty, participants.length))) */\n      swap1\n      pop\n        /* \"contracts/Lottery System/Lottery.sol\":870:1037  function getRandomAddress() public view returns(uint){... */\n      swap1\n      jump\t// out\n    tag_71:\n      dup3\n      dup1\n      sload\n      dup3\n      dup3\n      sstore\n      swap1\n      0x00\n      mstore\n      keccak256(0x00, 0x20)\n      swap1\n      dup2\n      add\n      swap3\n      dup3\n      iszero\n      tag_75\n      jumpi\n      swap2\n      0x20\n      mul\n      dup3\n      add\n    tag_76:\n      dup3\n      dup2\n      gt\n      iszero\n      tag_77\n      jumpi\n      dup3\n      mload\n      dup3\n      exp(0x0100, 0x00)\n      dup2\n      sload\n      dup2\n      0xffffffffffffffffffffffffffffffffffffffff\n      mul\n      not\n      and\n      swap1\n      dup4\n      0xffffffffffffffffffffffffffffffffffffffff\n      and\n      mul\n      or\n      swap1\n      sstore\n      pop\n      swap2\n      0x20\n      add\n      swap2\n      swap1\n      0x01\n      add\n      swap1\n      jump(tag_76)\n    tag_77:\n    tag_75:\n      pop\n      swap1\n      pop\n      tag_78\n      swap2\n      swap1\n      tag_79\n      jump\t// in\n    tag_78:\n      pop\n      swap1\n      jump\t// out\n    tag_79:\n    tag_80:\n      dup1\n      dup3\n      gt\n      iszero\n      tag_81\n      jumpi\n      0x00\n      dup2\n      0x00\n      swap1\n      sstore\n      pop\n      0x01\n      add\n      jump(tag_80)\n    tag_81:\n      pop\n      swap1\n      jump\t// out\n        /* \"#utility.yul\":7:84   */\n    tag_82:\n        /* \"#utility.yul\":44:51   */\n      0x00\n        /* \"#utility.yul\":73:78   */\n      dup2\n        /* \"#utility.yul\":62:78   */\n      swap1\n      pop\n        /* \"#utility.yul\":7:84   */\n      swap2\n      swap1\n      pop\n      jump\t// out\n        /* \"#utility.yul\":90:270   */\n    tag_83:\n        /* \"#utility.yul\":138:215   */\n      0x4e487b7100000000000000000000000000000000000000000000000000000000\n        /* \"#utility.yul\":135:136   */\n      0x00\n        /* \"#utility.yul\":128:216   */\n      mstore\n        /* \"#utility.yul\":235:239   */\n      0x11\n        /* \"#utility.yul\":232:233   */\n      0x04\n        /* \"#utility.yul\":225:240   */\n      mstore\n        /* \"#utility.yul\":259:263   */\n      0x24\n        /* \"#utility.yul\":256:257   */\n      0x00\n        /* \"#utility.yul\":249:264   */\n      revert\n        /* \"#utility.yul\":276:581   */\n    tag_14:\n        /* \"#utility.yul\":316:319   */\n      0x00\n        /* \"#utility.yul\":335:355   */\n      tag_107\n        /* \"#utility.yul\":353:354   */\n      dup3\n        /* \"#utility.yul\":335:355   */\n      tag_82\n      jump\t// in\n    tag_107:\n        /* \"#utility.yul\":330:355   */\n      swap2\n      pop\n        /* \"#utility.yul\":369:389   */\n      tag_108\n        /* \"#utility.yul\":387:388   */\n      dup4\n        /* \"#utility.yul\":369:389   */\n      tag_82\n      jump\t// in\n    tag_108:\n        /* \"#utility.yul\":364:389   */\n      swap3\n      pop\n        /* \"#utility.yul\":523:524   */\n      dup3\n        /* \"#utility.yul\":455:521   */\n      0xffffffffffffffffffffffffffffffffffffffffffffffffffffffffffffffff\n        /* \"#utility.yul\":451:525   */\n      sub\n        /* \"#utility.yul\":448:449   */\n      dup3\n        /* \"#utility.yul\":445:526   */\n      gt\n        /* \"#utility.yul\":442:549   */\n      iszero\n      tag_109\n      jumpi\n        /* \"#utility.yul\":529:547   */\n      tag_110\n      tag_83\n      jump\t// in\n    tag_110:\n        /* \"#utility.yul\":442:549   */\n    tag_109:\n        /* \"#utility.yul\":573:574   */\n      dup3\n        /* \"#utility.yul\":570:571   */\n      dup3\n        /* \"#utility.yul\":566:575   */\n      add\n        /* \"#utility.yul\":559:575   */\n      swap1\n      pop\n        /* \"#utility.yul\":276:581   */\n      swap3\n      swap2\n      pop\n      pop\n      jump\t// out\n        /* \"#utility.yul\":587:705   */\n    tag_84:\n        /* \"#utility.yul\":674:698   */\n      tag_112\n        /* \"#utility.yul\":692:697   */\n      dup2\n        /* \"#utility.yul\":674:698   */\n      tag_82\n      jump\t// in\n    tag_112:\n        /* \"#utility.yul\":669:672   */\n      dup3\n        /* \"#utility.yul\":662:699   */\n      mstore\n        /* \"#utility.yul\":587:705   */\n      pop\n      pop\n      jump\t// out\n        /* \"#utility.yul\":711:933   */\n    tag_19:\n        /* \"#utility.yul\":804:808   */\n      0x00\n        /* \"#utility.yul\":842:844   */\n      0x20\n        /* \"#utility.yul\":831:840   */\n      dup3\n        /* \"#utility.yul\":827:845   */\n      add\n        /* \"#utility.yul\":819:845   */\n      swap1\n      pop\n        /* \"#utility.yul\":855:926   */\n      tag_114\n        /* \"#utility.yul\":923:924   */\n      0x00\n        /* \"#utility.yul\":912:921   */\n      dup4\n        /* \"#utility.yul\":908:925   */\n      add\n        /* \"#utility.yul\":899:905   */\n      dup5\n        /* \"#utility.yul\":855:926   */\n      tag_84\n      jump\t// in\n    tag_114:\n        /* \"#utility.yul\":711:933   */\n      swap3\n      swap2\n      pop\n      pop\n      jump\t// out\n        /* \"#utility.yul\":1020:1137   */\n    tag_86:\n        /* \"#utility.yul\":1129:1130   */\n      0x00\n        /* \"#utility.yul\":1126:1127   */\n      dup1\n        /* \"#utility.yul\":1119:1131   */\n      revert\n        /* \"#utility.yul\":1266:1388   */\n    tag_88:\n        /* \"#utility.yul\":1339:1363   */\n      tag_119\n        /* \"#utility.yul\":1357:1362   */\n      dup2\n        /* \"#utility.yul\":1339:1363   */\n      tag_82\n      jump\t// in\n    tag_119:\n        /* \"#utility.yul\":1332:1337   */\n      dup2\n        /* \"#utility.yul\":1329:1364   */\n      eq\n        /* \"#utility.yul\":1319:1382   */\n      tag_120\n      jumpi\n        /* \"#utility.yul\":1378:1379   */\n      0x00\n        /* \"#utility.yul\":1375:1376   */\n      dup1\n        /* \"#utility.yul\":1368:1380   */\n      revert\n        /* \"#utility.yul\":1319:1382   */\n    tag_120:\n        /* \"#utility.yul\":1266:1388   */\n      pop\n      jump\t// out\n        /* \"#utility.yul\":1394:1533   */\n    tag_89:\n        /* \"#utility.yul\":1440:1445   */\n      0x00\n        /* \"#utility.yul\":1478:1484   */\n      dup2\n        /* \"#utility.yul\":1465:1485   */\n      calldataload\n        /* \"#utility.yul\":1456:1485   */\n      swap1\n      pop\n        /* \"#utility.yul\":1494:1527   */\n      tag_122\n        /* \"#utility.yul\":1521:1526   */\n      dup2\n        /* \"#utility.yul\":1494:1527   */\n      tag_88\n      jump\t// in\n    tag_122:\n        /* \"#utility.yul\":1394:1533   */\n      swap3\n      swap2\n      pop\n      pop\n      jump\t// out\n        /* \"#utility.yul\":1539:1868   */\n    tag_23:\n        /* \"#utility.yul\":1598:1604   */\n      0x00\n        /* \"#utility.yul\":1647:1649   */\n      0x20\n        /* \"#utility.yul\":1635:1644   */\n      dup3\n        /* \"#utility.yul\":1626:1633   */\n      dup5\n        /* \"#utility.yul\":1622:1645   */\n      sub\n        /* \"#utility.yul\":1618:1650   */\n      slt\n        /* \"#utility.yul\":1615:1734   */\n      iszero\n      tag_124\n      jumpi\n        /* \"#utility.yul\":1653:1732   */\n      tag_125\n      tag_86\n      jump\t// in\n    tag_125:\n        /* \"#utility.yul\":1615:1734   */\n    tag_124:\n        /* \"#utility.yul\":1773:1774   */\n      0x00\n        /* \"#utility.yul\":1798:1851   */\n      tag_126\n        /* \"#utility.yul\":1843:1850   */\n      dup5\n        /* \"#utility.yul\":1834:1840   */\n      dup3\n        /* \"#utility.yul\":1823:1832   */\n      dup6\n        /* \"#utility.yul\":1819:1841   */\n      add\n        /* \"#utility.yul\":1798:1851   */\n      tag_89\n      jump\t// in\n    tag_126:\n        /* \"#utility.yul\":1788:1851   */\n      swap2\n      pop\n        /* \"#utility.yul\":1744:1861   */\n      pop\n        /* \"#utility.yul\":1539:1868   */\n      swap3\n      swap2\n      pop\n      pop\n      jump\t// out\n        /* \"#utility.yul\":1874:2000   */\n    tag_90:\n        /* \"#utility.yul\":1911:1918   */\n      0x00\n        /* \"#utility.yul\":1951:1993   */\n      0xffffffffffffffffffffffffffffffffffffffff\n        /* \"#utility.yul\":1944:1949   */\n      dup3\n        /* \"#utility.yul\":1940:1994   */\n      and\n        /* \"#utility.yul\":1929:1994   */\n      swap1\n      pop\n        /* \"#utility.yul\":1874:2000   */\n      swap2\n      swap1\n      pop\n      jump\t// out\n        /* \"#utility.yul\":2006:2110   */\n    tag_91:\n        /* \"#utility.yul\":2051:2058   */\n      0x00\n        /* \"#utility.yul\":2080:2104   */\n      tag_129\n        /* \"#utility.yul\":2098:2103   */\n      dup3\n        /* \"#utility.yul\":2080:2104   */\n      tag_90\n      jump\t// in\n    tag_129:\n        /* \"#utility.yul\":2069:2104   */\n      swap1\n      pop\n        /* \"#utility.yul\":2006:2110   */\n      swap2\n      swap1\n      pop\n      jump\t// out\n        /* \"#utility.yul\":2116:2258   */\n    tag_92:\n        /* \"#utility.yul\":2219:2251   */\n      tag_131\n        /* \"#utility.yul\":2245:2250   */\n      dup2\n        /* \"#utility.yul\":2219:2251   */\n      tag_91\n      jump\t// in\n    tag_131:\n        /* \"#utility.yul\":2214:2217   */\n      dup3\n        /* \"#utility.yul\":2207:2252   */\n      mstore\n        /* \"#utility.yul\":2116:2258   */\n      pop\n      pop\n      jump\t// out\n        /* \"#utility.yul\":2264:2518   */\n    tag_26:\n        /* \"#utility.yul\":2373:2377   */\n      0x00\n        /* \"#utility.yul\":2411:2413   */\n      0x20\n        /* \"#utility.yul\":2400:2409   */\n      dup3\n        /* \"#utility.yul\":2396:2414   */\n      add\n        /* \"#utility.yul\":2388:2414   */\n      swap1\n      pop\n        /* \"#utility.yul\":2424:2511   */\n      tag_133\n        /* \"#utility.yul\":2508:2509   */\n      0x00\n        /* \"#utility.yul\":2497:2506   */\n      dup4\n        /* \"#utility.yul\":2493:2510   */\n      add\n        /* \"#utility.yul\":2484:2490   */\n      dup5\n        /* \"#utility.yul\":2424:2511   */\n      tag_92\n      jump\t// in\n    tag_133:\n        /* \"#utility.yul\":2264:2518   */\n      swap3\n      swap2\n      pop\n      pop\n      jump\t// out\n        /* \"#utility.yul\":2524:2620   */\n    tag_93:\n        /* \"#utility.yul\":2561:2568   */\n      0x00\n        /* \"#utility.yul\":2590:2614   */\n      tag_135\n        /* \"#utility.yul\":2608:2613   */\n      dup3\n        /* \"#utility.yul\":2590:2614   */\n      tag_90\n      jump\t// in\n    tag_135:\n        /* \"#utility.yul\":2579:2614   */\n      swap1\n      pop\n        /* \"#utility.yul\":2524:2620   */\n      swap2\n      swap1\n      pop\n      jump\t// out\n        /* \"#utility.yul\":2626:2744   */\n    tag_94:\n        /* \"#utility.yul\":2713:2737   */\n      tag_137\n        /* \"#utility.yul\":2731:2736   */\n      dup2\n        /* \"#utility.yul\":2713:2737   */\n      tag_93\n      jump\t// in\n    tag_137:\n        /* \"#utility.yul\":2708:2711   */\n      dup3\n        /* \"#utility.yul\":2701:2738   */\n      mstore\n        /* \"#utility.yul\":2626:2744   */\n      pop\n      pop\n      jump\t// out\n        /* \"#utility.yul\":2750:2972   */\n    tag_31:\n        /* \"#utility.yul\":2843:2847   */\n      0x00\n        /* \"#utility.yul\":2881:2883   */\n      0x20\n        /* \"#utility.yul\":2870:2879   */\n      dup3\n        /* \"#utility.yul\":2866:2884   */\n      add\n        /* \"#utility.yul\":2858:2884   */\n      swap1\n      pop\n        /* \"#utility.yul\":2894:2965   */\n      tag_139\n        /* \"#utility.yul\":2962:2963   */\n      0x00\n        /* \"#utility.yul\":2951:2960   */\n      dup4\n        /* \"#utility.yul\":2947:2964   */\n      add\n        /* \"#utility.yul\":2938:2944   */\n      dup5\n        /* \"#utility.yul\":2894:2965   */\n      tag_94\n      jump\t// in\n    tag_139:\n        /* \"#utility.yul\":2750:2972   */\n      swap3\n      swap2\n      pop\n      pop\n      jump\t// out\n        /* \"#utility.yul\":2978:3100   */\n    tag_95:\n        /* \"#utility.yul\":3051:3075   */\n      tag_141\n        /* \"#utility.yul\":3069:3074   */\n      dup2\n        /* \"#utility.yul\":3051:3075   */\n      tag_93\n      jump\t// in\n    tag_141:\n        /* \"#utility.yul\":3044:3049   */\n      dup2\n        /* \"#utility.yul\":3041:3076   */\n      eq\n        /* \"#utility.yul\":3031:3094   */\n      tag_142\n      jumpi\n        /* \"#utility.yul\":3090:3091   */\n      0x00\n        /* \"#utility.yul\":3087:3088   */\n      dup1\n        /* \"#utility.yul\":3080:3092   */\n      revert\n        /* \"#utility.yul\":3031:3094   */\n    tag_142:\n        /* \"#utility.yul\":2978:3100   */\n      pop\n      jump\t// out\n        /* \"#utility.yul\":3106:3245   */\n    tag_96:\n        /* \"#utility.yul\":3152:3157   */\n      0x00\n        /* \"#utility.yul\":3190:3196   */\n      dup2\n        /* \"#utility.yul\":3177:3197   */\n      calldataload\n        /* \"#utility.yul\":3168:3197   */\n      swap1\n      pop\n        /* \"#utility.yul\":3206:3239   */\n      tag_144\n        /* \"#utility.yul\":3233:3238   */\n      dup2\n        /* \"#utility.yul\":3206:3239   */\n      tag_95\n      jump\t// in\n    tag_144:\n        /* \"#utility.yul\":3106:3245   */\n      swap3\n      swap2\n      pop\n      pop\n      jump\t// out\n        /* \"#utility.yul\":3251:3580   */\n    tag_38:\n        /* \"#utility.yul\":3310:3316   */\n      0x00\n        /* \"#utility.yul\":3359:3361   */\n      0x20\n        /* \"#utility.yul\":3347:3356   */\n      dup3\n        /* \"#utility.yul\":3338:3345   */\n      dup5\n        /* \"#utility.yul\":3334:3357   */\n      sub\n        /* \"#utility.yul\":3330:3362   */\n      slt\n        /* \"#utility.yul\":3327:3446   */\n      iszero\n      tag_146\n      jumpi\n        /* \"#utility.yul\":3365:3444   */\n      tag_147\n      tag_86\n      jump\t// in\n    tag_147:\n        /* \"#utility.yul\":3327:3446   */\n    tag_146:\n        /* \"#utility.yul\":3485:3486   */\n      0x00\n        /* \"#utility.yul\":3510:3563   */\n      tag_148\n        /* \"#utility.yul\":3555:3562   */\n      dup5\n        /* \"#utility.yul\":3546:3552   */\n      dup3\n        /* \"#utility.yul\":3535:3544   */\n      dup6\n        /* \"#utility.yul\":3531:3553   */\n      add\n        /* \"#utility.yul\":3510:3563   */\n      tag_96\n      jump\t// in\n    tag_148:\n        /* \"#utility.yul\":3500:3563   */\n      swap2\n      pop\n        /* \"#utility.yul\":3456:3573   */\n      pop\n        /* \"#utility.yul\":3251:3580   */\n      swap3\n      swap2\n      pop\n      pop\n      jump\t// out\n        /* \"#utility.yul\":3586:3755   */\n    tag_97:\n        /* \"#utility.yul\":3670:3681   */\n      0x00\n        /* \"#utility.yul\":3704:3710   */\n      dup3\n        /* \"#utility.yul\":3699:3702   */\n      dup3\n        /* \"#utility.yul\":3692:3711   */\n      mstore\n        /* \"#utility.yul\":3744:3748   */\n      0x20\n        /* \"#utility.yul\":3739:3742   */\n      dup3\n        /* \"#utility.yul\":3735:3749   */\n      add\n        /* \"#utility.yul\":3720:3749   */\n      swap1\n      pop\n        /* \"#utility.yul\":3586:3755   */\n      swap3\n      swap2\n      pop\n      pop\n      jump\t// out\n        /* \"#utility.yul\":3761:4001   */\n    tag_98:\n        /* \"#utility.yul\":3901:3935   */\n      0x4f6e6c79206f776e657273206172652061626c6520746f207365652074686520\n        /* \"#utility.yul\":3897:3898   */\n      0x00\n        /* \"#utility.yul\":3889:3895   */\n      dup3\n        /* \"#utility.yul\":3885:3899   */\n      add\n        /* \"#utility.yul\":3878:3936   */\n      mstore\n        /* \"#utility.yul\":3970:3993   */\n      0x746f74616c206e756d626572206f662066756e64730000000000000000000000\n        /* \"#utility.yul\":3965:3967   */\n      0x20\n        /* \"#utility.yul\":3957:3963   */\n      dup3\n        /* \"#utility.yul\":3953:3968   */\n      add\n        /* \"#utility.yul\":3946:3994   */\n      mstore\n        /* \"#utility.yul\":3761:4001   */\n      pop\n      jump\t// out\n        /* \"#utility.yul\":4007:4373   */\n    tag_99:\n        /* \"#utility.yul\":4149:4152   */\n      0x00\n        /* \"#utility.yul\":4170:4237   */\n      tag_152\n        /* \"#utility.yul\":4234:4236   */\n      0x35\n        /* \"#utility.yul\":4229:4232   */\n      dup4\n        /* \"#utility.yul\":4170:4237   */\n      tag_97\n      jump\t// in\n    tag_152:\n        /* \"#utility.yul\":4163:4237   */\n      swap2\n      pop\n        /* \"#utility.yul\":4246:4339   */\n      tag_153\n        /* \"#utility.yul\":4335:4338   */\n      dup3\n        /* \"#utility.yul\":4246:4339   */\n      tag_98\n      jump\t// in\n    tag_153:\n        /* \"#utility.yul\":4364:4366   */\n      0x40\n        /* \"#utility.yul\":4359:4362   */\n      dup3\n        /* \"#utility.yul\":4355:4367   */\n      add\n        /* \"#utility.yul\":4348:4367   */\n      swap1\n      pop\n        /* \"#utility.yul\":4007:4373   */\n      swap2\n      swap1\n      pop\n      jump\t// out\n        /* \"#utility.yul\":4379:4798   */\n    tag_48:\n        /* \"#utility.yul\":4545:4549   */\n      0x00\n        /* \"#utility.yul\":4583:4585   */\n      0x20\n        /* \"#utility.yul\":4572:4581   */\n      dup3\n        /* \"#utility.yul\":4568:4586   */\n      add\n        /* \"#utility.yul\":4560:4586   */\n      swap1\n      pop\n        /* \"#utility.yul\":4632:4641   */\n      dup2\n        /* \"#utility.yul\":4626:4630   */\n      dup2\n        /* \"#utility.yul\":4622:4642   */\n      sub\n        /* \"#utility.yul\":4618:4619   */\n      0x00\n        /* \"#utility.yul\":4607:4616   */\n      dup4\n        /* \"#utility.yul\":4603:4620   */\n      add\n        /* \"#utility.yul\":4596:4643   */\n      mstore\n        /* \"#utility.yul\":4660:4791   */\n      tag_155\n        /* \"#utility.yul\":4786:4790   */\n      dup2\n        /* \"#utility.yul\":4660:4791   */\n      tag_99\n      jump\t// in\n    tag_155:\n        /* \"#utility.yul\":4652:4791   */\n      swap1\n      pop\n        /* \"#utility.yul\":4379:4798   */\n      swap2\n      swap1\n      pop\n      jump\t// out\n        /* \"#utility.yul\":4804:4984   */\n    tag_100:\n        /* \"#utility.yul\":4852:4929   */\n      0x4e487b7100000000000000000000000000000000000000000000000000000000\n        /* \"#utility.yul\":4849:4850   */\n      0x00\n        /* \"#utility.yul\":4842:4930   */\n      mstore\n        /* \"#utility.yul\":4949:4953   */\n      0x12\n        /* \"#utility.yul\":4946:4947   */\n      0x04\n        /* \"#utility.yul\":4939:4954   */\n      mstore\n        /* \"#utility.yul\":4973:4977   */\n      0x24\n        /* \"#utility.yul\":4970:4971   */\n      0x00\n        /* \"#utility.yul\":4963:4978   */\n      revert\n        /* \"#utility.yul\":4990:5166   */\n    tag_58:\n        /* \"#utility.yul\":5022:5023   */\n      0x00\n        /* \"#utility.yul\":5039:5059   */\n      tag_158\n        /* \"#utility.yul\":5057:5058   */\n      dup3\n        /* \"#utility.yul\":5039:5059   */\n      tag_82\n      jump\t// in\n    tag_158:\n        /* \"#utility.yul\":5034:5059   */\n      swap2\n      pop\n        /* \"#utility.yul\":5073:5093   */\n      tag_159\n        /* \"#utility.yul\":5091:5092   */\n      dup4\n        /* \"#utility.yul\":5073:5093   */\n      tag_82\n      jump\t// in\n    tag_159:\n        /* \"#utility.yul\":5068:5093   */\n      swap3\n      pop\n        /* \"#utility.yul\":5112:5113   */\n      dup3\n        /* \"#utility.yul\":5102:5137   */\n      tag_160\n      jumpi\n        /* \"#utility.yul\":5117:5135   */\n      tag_161\n      tag_100\n      jump\t// in\n    tag_161:\n        /* \"#utility.yul\":5102:5137   */\n    tag_160:\n        /* \"#utility.yul\":5158:5159   */\n      dup3\n        /* \"#utility.yul\":5155:5156   */\n      dup3\n        /* \"#utility.yul\":5151:5160   */\n      mod\n        /* \"#utility.yul\":5146:5160   */\n      swap1\n      pop\n        /* \"#utility.yul\":4990:5166   */\n      swap3\n      swap2\n      pop\n      pop\n      jump\t// out\n        /* \"#utility.yul\":5172:5352   */\n    tag_61:\n        /* \"#utility.yul\":5220:5297   */\n      0x4e487b7100000000000000000000000000000000000000000000000000000000\n        /* \"#utility.yul\":5217:5218   */\n      0x00\n        /* \"#utility.yul\":5210:5298   */\n      mstore\n        /* \"#utility.yul\":5317:5321   */\n      0x32\n        /* \"#utility.yul\":5314:5315   */\n      0x04\n        /* \"#utility.yul\":5307:5322   */\n      mstore\n        /* \"#utility.yul\":5341:5345   */\n      0x24\n        /* \"#utility.yul\":5338:5339   */\n      0x00\n        /* \"#utility.yul\":5331:5346   */\n      revert\n        /* \"#utility.yul\":5358:5538   */\n    tag_68:\n        /* \"#utility.yul\":5406:5483   */\n      0x4e487b7100000000000000000000000000000000000000000000000000000000\n        /* \"#utility.yul\":5403:5404   */\n      0x00\n        /* \"#utility.yul\":5396:5484   */\n      mstore\n        /* \"#utility.yul\":5503:5507   */\n      0x41\n        /* \"#utility.yul\":5500:5501   */\n      0x04\n        /* \"#utility.yul\":5493:5508   */\n      mstore\n        /* \"#utility.yul\":5527:5531   */\n      0x24\n        /* \"#utility.yul\":5524:5525   */\n      0x00\n        /* \"#utility.yul\":5517:5532   */\n      revert\n        /* \"#utility.yul\":5544:5623   */\n    tag_101:\n        /* \"#utility.yul\":5583:5590   */\n      0x00\n        /* \"#utility.yul\":5612:5617   */\n      dup2\n        /* \"#utility.yul\":5601:5617   */\n      swap1\n      pop\n        /* \"#utility.yul\":5544:5623   */\n      swap2\n      swap1\n      pop\n      jump\t// out\n        /* \"#utility.yul\":5629:5786   */\n    tag_102:\n        /* \"#utility.yul\":5734:5779   */\n      tag_166\n        /* \"#utility.yul\":5754:5778   */\n      tag_167\n        /* \"#utility.yul\":5772:5777   */\n      dup3\n        /* \"#utility.yul\":5754:5778   */\n      tag_82\n      jump\t// in\n    tag_167:\n        /* \"#utility.yul\":5734:5779   */\n      tag_101\n      jump\t// in\n    tag_166:\n        /* \"#utility.yul\":5729:5732   */\n      dup3\n        /* \"#utility.yul\":5722:5780   */\n      mstore\n        /* \"#utility.yul\":5629:5786   */\n      pop\n      pop\n      jump\t// out\n        /* \"#utility.yul\":5792:6330   */\n    tag_74:\n        /* \"#utility.yul\":5960:5963   */\n      0x00\n        /* \"#utility.yul\":5975:6050   */\n      tag_169\n        /* \"#utility.yul\":6046:6049   */\n      dup3\n        /* \"#utility.yul\":6037:6043   */\n      dup7\n        /* \"#utility.yul\":5975:6050   */\n      tag_102\n      jump\t// in\n    tag_169:\n        /* \"#utility.yul\":6075:6077   */\n      0x20\n        /* \"#utility.yul\":6070:6073   */\n      dup3\n        /* \"#utility.yul\":6066:6078   */\n      add\n        /* \"#utility.yul\":6059:6078   */\n      swap2\n      pop\n        /* \"#utility.yul\":6088:6163   */\n      tag_170\n        /* \"#utility.yul\":6159:6162   */\n      dup3\n        /* \"#utility.yul\":6150:6156   */\n      dup6\n        /* \"#utility.yul\":6088:6163   */\n      tag_102\n      jump\t// in\n    tag_170:\n        /* \"#utility.yul\":6188:6190   */\n      0x20\n        /* \"#utility.yul\":6183:6186   */\n      dup3\n        /* \"#utility.yul\":6179:6191   */\n      add\n        /* \"#utility.yul\":6172:6191   */\n      swap2\n      pop\n        /* \"#utility.yul\":6201:6276   */\n      tag_171\n        /* \"#utility.yul\":6272:6275   */\n      dup3\n        /* \"#utility.yul\":6263:6269   */\n      dup5\n        /* \"#utility.yul\":6201:6276   */\n      tag_102\n      jump\t// in\n    tag_171:\n        /* \"#utility.yul\":6301:6303   */\n      0x20\n        /* \"#utility.yul\":6296:6299   */\n      dup3\n        /* \"#utility.yul\":6292:6304   */\n      add\n        /* \"#utility.yul\":6285:6304   */\n      swap2\n      pop\n        /* \"#utility.yul\":6321:6324   */\n      dup2\n        /* \"#utility.yul\":6314:6324   */\n      swap1\n      pop\n        /* \"#utility.yul\":5792:6330   */\n      swap5\n      swap4\n      pop\n      pop\n      pop\n      pop\n      jump\t// out\n\n    auxdata: 0xa264697066735822122087226388eae9c74f2d205d4c77a48b7b64b4d99745d0be513e70add286b3f52e64736f6c634300080d0033\n}\n",
				"bytecode": {
					"linkReferences": {},
					"object": "608060405234801561001057600080fd5b50336000806101000a81548173ffffffffffffffffffffffffffffffffffffffff021916908373ffffffffffffffffffffffffffffffffffffffff160217905550610a36806100606000396000f3fe6080604052600436106100595760003560e01c806312065fe01461013257806335c1d3491461015d578063481c6a751461019a5780635d495aea146101c5578063872a90d7146101dc578063edd0eb06146102195761012d565b3661012d57670de0b6b3a764000034101561007357600080fd5b6001339080600181540180825580915050600190039060005260206000200160009091909190916101000a81548173ffffffffffffffffffffffffffffffffffffffff021916908373ffffffffffffffffffffffffffffffffffffffff16021790555034600360003373ffffffffffffffffffffffffffffffffffffffff1673ffffffffffffffffffffffffffffffffffffffff16815260200190815260200160002060008282546101259190610672565b925050819055005b600080fd5b34801561013e57600080fd5b50610147610244565b60405161015491906106d7565b60405180910390f35b34801561016957600080fd5b50610184600480360381019061017f9190610723565b6102db565b6040516101919190610791565b60405180910390f35b3480156101a657600080fd5b506101af61031a565b6040516101bc91906107cd565b60405180910390f35b3480156101d157600080fd5b506101da61033e565b005b3480156101e857600080fd5b5061020360048036038101906101fe9190610814565b610540565b60405161021091906106d7565b60405180910390f35b34801561022557600080fd5b5061022e610558565b60405161023b91906106d7565b60405180910390f35b60008060009054906101000a900473ffffffffffffffffffffffffffffffffffffffff1673ffffffffffffffffffffffffffffffffffffffff163373ffffffffffffffffffffffffffffffffffffffff16146102d5576040517f08c379a00000000000000000000000000000000000000000000000000000000081526004016102cc906108c4565b60405180910390fd5b47905090565b600181815481106102eb57600080fd5b906000526020600020016000915054906101000a900473ffffffffffffffffffffffffffffffffffffffff1681565b60008054906101000a900473ffffffffffffffffffffffffffffffffffffffff1681565b60008054906101000a900473ffffffffffffffffffffffffffffffffffffffff1673ffffffffffffffffffffffffffffffffffffffff163373ffffffffffffffffffffffffffffffffffffffff16146103cc576040517f08c379a00000000000000000000000000000000000000000000000000000000081526004016103c3906108c4565b60405180910390fd5b60006103d6610558565b90506000600180549050826103eb9190610913565b90506001818154811061040157610400610944565b5b9060005260206000200160009054906101000a900473ffffffffffffffffffffffffffffffffffffffff16600260006101000a81548173ffffffffffffffffffffffffffffffffffffffff021916908373ffffffffffffffffffffffffffffffffffffffff160217905550600260009054906101000a900473ffffffffffffffffffffffffffffffffffffffff1673ffffffffffffffffffffffffffffffffffffffff166108fc6104b0610244565b9081150290604051600060405180830381858888f193505050501580156104db573d6000803e3d6000fd5b50600067ffffffffffffffff8111156104f7576104f6610973565b5b6040519080825280602002602001820160405280156105255781602001602082028036833780820191505090505b506001908051906020019061053b929190610592565b505050565b60036020528060005260406000206000915090505481565b60004244600180549050604051602001610574939291906109c3565b6040516020818303038152906040528051906020012060001c905090565b82805482825590600052602060002090810192821561060b579160200282015b8281111561060a5782518260006101000a81548173ffffffffffffffffffffffffffffffffffffffff021916908373ffffffffffffffffffffffffffffffffffffffff160217905550916020019190600101906105b2565b5b509050610618919061061c565b5090565b5b8082111561063557600081600090555060010161061d565b5090565b6000819050919050565b7f4e487b7100000000000000000000000000000000000000000000000000000000600052601160045260246000fd5b600061067d82610639565b915061068883610639565b9250827fffffffffffffffffffffffffffffffffffffffffffffffffffffffffffffffff038211156106bd576106bc610643565b5b828201905092915050565b6106d181610639565b82525050565b60006020820190506106ec60008301846106c8565b92915050565b600080fd5b61070081610639565b811461070b57600080fd5b50565b60008135905061071d816106f7565b92915050565b600060208284031215610739576107386106f2565b5b60006107478482850161070e565b91505092915050565b600073ffffffffffffffffffffffffffffffffffffffff82169050919050565b600061077b82610750565b9050919050565b61078b81610770565b82525050565b60006020820190506107a66000830184610782565b92915050565b60006107b782610750565b9050919050565b6107c7816107ac565b82525050565b60006020820190506107e260008301846107be565b92915050565b6107f1816107ac565b81146107fc57600080fd5b50565b60008135905061080e816107e8565b92915050565b60006020828403121561082a576108296106f2565b5b6000610838848285016107ff565b91505092915050565b600082825260208201905092915050565b7f4f6e6c79206f776e657273206172652061626c6520746f20736565207468652060008201527f746f74616c206e756d626572206f662066756e64730000000000000000000000602082015250565b60006108ae603583610841565b91506108b982610852565b604082019050919050565b600060208201905081810360008301526108dd816108a1565b9050919050565b7f4e487b7100000000000000000000000000000000000000000000000000000000600052601260045260246000fd5b600061091e82610639565b915061092983610639565b925082610939576109386108e4565b5b828206905092915050565b7f4e487b7100000000000000000000000000000000000000000000000000000000600052603260045260246000fd5b7f4e487b7100000000000000000000000000000000000000000000000000000000600052604160045260246000fd5b6000819050919050565b6109bd6109b882610639565b6109a2565b82525050565b60006109cf82866109ac565b6020820191506109df82856109ac565b6020820191506109ef82846109ac565b60208201915081905094935050505056fea264697066735822122087226388eae9c74f2d205d4c77a48b7b64b4d99745d0be513e70add286b3f52e64736f6c634300080d0033",
					"opcodes": "PUSH1 0x80 PUSH1 0x40 MSTORE CALLVALUE DUP1 ISZERO PUSH2 0x10 JUMPI PUSH1 0x0 DUP1 REVERT JUMPDEST POP CALLER PUSH1 0x0 DUP1 PUSH2 0x100 EXP DUP2 SLOAD DUP2 PUSH20 0xFFFFFFFFFFFFFFFFFFFFFFFFFFFFFFFFFFFFFFFF MUL NOT AND SWAP1 DUP4 PUSH20 0xFFFFFFFFFFFFFFFFFFFFFFFFFFFFFFFFFFFFFFFF AND MUL OR SWAP1 SSTORE POP PUSH2 0xA36 DUP1 PUSH2 0x60 PUSH1 0x0 CODECOPY PUSH1 0x0 RETURN INVALID PUSH1 0x80 PUSH1 0x40 MSTORE PUSH1 0x4 CALLDATASIZE LT PUSH2 0x59 JUMPI PUSH1 0x0 CALLDATALOAD PUSH1 0xE0 SHR DUP1 PUSH4 0x12065FE0 EQ PUSH2 0x132 JUMPI DUP1 PUSH4 0x35C1D349 EQ PUSH2 0x15D JUMPI DUP1 PUSH4 0x481C6A75 EQ PUSH2 0x19A JUMPI DUP1 PUSH4 0x5D495AEA EQ PUSH2 0x1C5 JUMPI DUP1 PUSH4 0x872A90D7 EQ PUSH2 0x1DC JUMPI DUP1 PUSH4 0xEDD0EB06 EQ PUSH2 0x219 JUMPI PUSH2 0x12D JUMP JUMPDEST CALLDATASIZE PUSH2 0x12D JUMPI PUSH8 0xDE0B6B3A7640000 CALLVALUE LT ISZERO PUSH2 0x73 JUMPI PUSH1 0x0 DUP1 REVERT JUMPDEST PUSH1 0x1 CALLER SWAP1 DUP1 PUSH1 0x1 DUP2 SLOAD ADD DUP1 DUP3 SSTORE DUP1 SWAP2 POP POP PUSH1 0x1 SWAP1 SUB SWAP1 PUSH1 0x0 MSTORE PUSH1 0x20 PUSH1 0x0 KECCAK256 ADD PUSH1 0x0 SWAP1 SWAP2 SWAP1 SWAP2 SWAP1 SWAP2 PUSH2 0x100 EXP DUP2 SLOAD DUP2 PUSH20 0xFFFFFFFFFFFFFFFFFFFFFFFFFFFFFFFFFFFFFFFF MUL NOT AND SWAP1 DUP4 PUSH20 0xFFFFFFFFFFFFFFFFFFFFFFFFFFFFFFFFFFFFFFFF AND MUL OR SWAP1 SSTORE POP CALLVALUE PUSH1 0x3 PUSH1 0x0 CALLER PUSH20 0xFFFFFFFFFFFFFFFFFFFFFFFFFFFFFFFFFFFFFFFF AND PUSH20 0xFFFFFFFFFFFFFFFFFFFFFFFFFFFFFFFFFFFFFFFF AND DUP2 MSTORE PUSH1 0x20 ADD SWAP1 DUP2 MSTORE PUSH1 0x20 ADD PUSH1 0x0 KECCAK256 PUSH1 0x0 DUP3 DUP3 SLOAD PUSH2 0x125 SWAP2 SWAP1 PUSH2 0x672 JUMP JUMPDEST SWAP3 POP POP DUP2 SWAP1 SSTORE STOP JUMPDEST PUSH1 0x0 DUP1 REVERT JUMPDEST CALLVALUE DUP1 ISZERO PUSH2 0x13E JUMPI PUSH1 0x0 DUP1 REVERT JUMPDEST POP PUSH2 0x147 PUSH2 0x244 JUMP JUMPDEST PUSH1 0x40 MLOAD PUSH2 0x154 SWAP2 SWAP1 PUSH2 0x6D7 JUMP JUMPDEST PUSH1 0x40 MLOAD DUP1 SWAP2 SUB SWAP1 RETURN JUMPDEST CALLVALUE DUP1 ISZERO PUSH2 0x169 JUMPI PUSH1 0x0 DUP1 REVERT JUMPDEST POP PUSH2 0x184 PUSH1 0x4 DUP1 CALLDATASIZE SUB DUP2 ADD SWAP1 PUSH2 0x17F SWAP2 SWAP1 PUSH2 0x723 JUMP JUMPDEST PUSH2 0x2DB JUMP JUMPDEST PUSH1 0x40 MLOAD PUSH2 0x191 SWAP2 SWAP1 PUSH2 0x791 JUMP JUMPDEST PUSH1 0x40 MLOAD DUP1 SWAP2 SUB SWAP1 RETURN JUMPDEST CALLVALUE DUP1 ISZERO PUSH2 0x1A6 JUMPI PUSH1 0x0 DUP1 REVERT JUMPDEST POP PUSH2 0x1AF PUSH2 0x31A JUMP JUMPDEST PUSH1 0x40 MLOAD PUSH2 0x1BC SWAP2 SWAP1 PUSH2 0x7CD JUMP JUMPDEST PUSH1 0x40 MLOAD DUP1 SWAP2 SUB SWAP1 RETURN JUMPDEST CALLVALUE DUP1 ISZERO PUSH2 0x1D1 JUMPI PUSH1 0x0 DUP1 REVERT JUMPDEST POP PUSH2 0x1DA PUSH2 0x33E JUMP JUMPDEST STOP JUMPDEST CALLVALUE DUP1 ISZERO PUSH2 0x1E8 JUMPI PUSH1 0x0 DUP1 REVERT JUMPDEST POP PUSH2 0x203 PUSH1 0x4 DUP1 CALLDATASIZE SUB DUP2 ADD SWAP1 PUSH2 0x1FE SWAP2 SWAP1 PUSH2 0x814 JUMP JUMPDEST PUSH2 0x540 JUMP JUMPDEST PUSH1 0x40 MLOAD PUSH2 0x210 SWAP2 SWAP1 PUSH2 0x6D7 JUMP JUMPDEST PUSH1 0x40 MLOAD DUP1 SWAP2 SUB SWAP1 RETURN JUMPDEST CALLVALUE DUP1 ISZERO PUSH2 0x225 JUMPI PUSH1 0x0 DUP1 REVERT JUMPDEST POP PUSH2 0x22E PUSH2 0x558 JUMP JUMPDEST PUSH1 0x40 MLOAD PUSH2 0x23B SWAP2 SWAP1 PUSH2 0x6D7 JUMP JUMPDEST PUSH1 0x40 MLOAD DUP1 SWAP2 SUB SWAP1 RETURN JUMPDEST PUSH1 0x0 DUP1 PUSH1 0x0 SWAP1 SLOAD SWAP1 PUSH2 0x100 EXP SWAP1 DIV PUSH20 0xFFFFFFFFFFFFFFFFFFFFFFFFFFFFFFFFFFFFFFFF AND PUSH20 0xFFFFFFFFFFFFFFFFFFFFFFFFFFFFFFFFFFFFFFFF AND CALLER PUSH20 0xFFFFFFFFFFFFFFFFFFFFFFFFFFFFFFFFFFFFFFFF AND EQ PUSH2 0x2D5 JUMPI PUSH1 0x40 MLOAD PUSH32 0x8C379A000000000000000000000000000000000000000000000000000000000 DUP2 MSTORE PUSH1 0x4 ADD PUSH2 0x2CC SWAP1 PUSH2 0x8C4 JUMP JUMPDEST PUSH1 0x40 MLOAD DUP1 SWAP2 SUB SWAP1 REVERT JUMPDEST SELFBALANCE SWAP1 POP SWAP1 JUMP JUMPDEST PUSH1 0x1 DUP2 DUP2 SLOAD DUP2 LT PUSH2 0x2EB JUMPI PUSH1 0x0 DUP1 REVERT JUMPDEST SWAP1 PUSH1 0x0 MSTORE PUSH1 0x20 PUSH1 0x0 KECCAK256 ADD PUSH1 0x0 SWAP2 POP SLOAD SWAP1 PUSH2 0x100 EXP SWAP1 DIV PUSH20 0xFFFFFFFFFFFFFFFFFFFFFFFFFFFFFFFFFFFFFFFF AND DUP2 JUMP JUMPDEST PUSH1 0x0 DUP1 SLOAD SWAP1 PUSH2 0x100 EXP SWAP1 DIV PUSH20 0xFFFFFFFFFFFFFFFFFFFFFFFFFFFFFFFFFFFFFFFF AND DUP2 JUMP JUMPDEST PUSH1 0x0 DUP1 SLOAD SWAP1 PUSH2 0x100 EXP SWAP1 DIV PUSH20 0xFFFFFFFFFFFFFFFFFFFFFFFFFFFFFFFFFFFFFFFF AND PUSH20 0xFFFFFFFFFFFFFFFFFFFFFFFFFFFFFFFFFFFFFFFF AND CALLER PUSH20 0xFFFFFFFFFFFFFFFFFFFFFFFFFFFFFFFFFFFFFFFF AND EQ PUSH2 0x3CC JUMPI PUSH1 0x40 MLOAD PUSH32 0x8C379A000000000000000000000000000000000000000000000000000000000 DUP2 MSTORE PUSH1 0x4 ADD PUSH2 0x3C3 SWAP1 PUSH2 0x8C4 JUMP JUMPDEST PUSH1 0x40 MLOAD DUP1 SWAP2 SUB SWAP1 REVERT JUMPDEST PUSH1 0x0 PUSH2 0x3D6 PUSH2 0x558 JUMP JUMPDEST SWAP1 POP PUSH1 0x0 PUSH1 0x1 DUP1 SLOAD SWAP1 POP DUP3 PUSH2 0x3EB SWAP2 SWAP1 PUSH2 0x913 JUMP JUMPDEST SWAP1 POP PUSH1 0x1 DUP2 DUP2 SLOAD DUP2 LT PUSH2 0x401 JUMPI PUSH2 0x400 PUSH2 0x944 JUMP JUMPDEST JUMPDEST SWAP1 PUSH1 0x0 MSTORE PUSH1 0x20 PUSH1 0x0 KECCAK256 ADD PUSH1 0x0 SWAP1 SLOAD SWAP1 PUSH2 0x100 EXP SWAP1 DIV PUSH20 0xFFFFFFFFFFFFFFFFFFFFFFFFFFFFFFFFFFFFFFFF AND PUSH1 0x2 PUSH1 0x0 PUSH2 0x100 EXP DUP2 SLOAD DUP2 PUSH20 0xFFFFFFFFFFFFFFFFFFFFFFFFFFFFFFFFFFFFFFFF MUL NOT AND SWAP1 DUP4 PUSH20 0xFFFFFFFFFFFFFFFFFFFFFFFFFFFFFFFFFFFFFFFF AND MUL OR SWAP1 SSTORE POP PUSH1 0x2 PUSH1 0x0 SWAP1 SLOAD SWAP1 PUSH2 0x100 EXP SWAP1 DIV PUSH20 0xFFFFFFFFFFFFFFFFFFFFFFFFFFFFFFFFFFFFFFFF AND PUSH20 0xFFFFFFFFFFFFFFFFFFFFFFFFFFFFFFFFFFFFFFFF AND PUSH2 0x8FC PUSH2 0x4B0 PUSH2 0x244 JUMP JUMPDEST SWAP1 DUP2 ISZERO MUL SWAP1 PUSH1 0x40 MLOAD PUSH1 0x0 PUSH1 0x40 MLOAD DUP1 DUP4 SUB DUP2 DUP6 DUP9 DUP9 CALL SWAP4 POP POP POP POP ISZERO DUP1 ISZERO PUSH2 0x4DB JUMPI RETURNDATASIZE PUSH1 0x0 DUP1 RETURNDATACOPY RETURNDATASIZE PUSH1 0x0 REVERT JUMPDEST POP PUSH1 0x0 PUSH8 0xFFFFFFFFFFFFFFFF DUP2 GT ISZERO PUSH2 0x4F7 JUMPI PUSH2 0x4F6 PUSH2 0x973 JUMP JUMPDEST JUMPDEST PUSH1 0x40 MLOAD SWAP1 DUP1 DUP3 MSTORE DUP1 PUSH1 0x20 MUL PUSH1 0x20 ADD DUP3 ADD PUSH1 0x40 MSTORE DUP1 ISZERO PUSH2 0x525 JUMPI DUP2 PUSH1 0x20 ADD PUSH1 0x20 DUP3 MUL DUP1 CALLDATASIZE DUP4 CALLDATACOPY DUP1 DUP3 ADD SWAP2 POP POP SWAP1 POP JUMPDEST POP PUSH1 0x1 SWAP1 DUP1 MLOAD SWAP1 PUSH1 0x20 ADD SWAP1 PUSH2 0x53B SWAP3 SWAP2 SWAP1 PUSH2 0x592 JUMP JUMPDEST POP POP POP JUMP JUMPDEST PUSH1 0x3 PUSH1 0x20 MSTORE DUP1 PUSH1 0x0 MSTORE PUSH1 0x40 PUSH1 0x0 KECCAK256 PUSH1 0x0 SWAP2 POP SWAP1 POP SLOAD DUP2 JUMP JUMPDEST PUSH1 0x0 TIMESTAMP DIFFICULTY PUSH1 0x1 DUP1 SLOAD SWAP1 POP PUSH1 0x40 MLOAD PUSH1 0x20 ADD PUSH2 0x574 SWAP4 SWAP3 SWAP2 SWAP1 PUSH2 0x9C3 JUMP JUMPDEST PUSH1 0x40 MLOAD PUSH1 0x20 DUP2 DUP4 SUB SUB DUP2 MSTORE SWAP1 PUSH1 0x40 MSTORE DUP1 MLOAD SWAP1 PUSH1 0x20 ADD KECCAK256 PUSH1 0x0 SHR SWAP1 POP SWAP1 JUMP JUMPDEST DUP3 DUP1 SLOAD DUP3 DUP3 SSTORE SWAP1 PUSH1 0x0 MSTORE PUSH1 0x20 PUSH1 0x0 KECCAK256 SWAP1 DUP2 ADD SWAP3 DUP3 ISZERO PUSH2 0x60B JUMPI SWAP2 PUSH1 0x20 MUL DUP3 ADD JUMPDEST DUP3 DUP2 GT ISZERO PUSH2 0x60A JUMPI DUP3 MLOAD DUP3 PUSH1 0x0 PUSH2 0x100 EXP DUP2 SLOAD DUP2 PUSH20 0xFFFFFFFFFFFFFFFFFFFFFFFFFFFFFFFFFFFFFFFF MUL NOT AND SWAP1 DUP4 PUSH20 0xFFFFFFFFFFFFFFFFFFFFFFFFFFFFFFFFFFFFFFFF AND MUL OR SWAP1 SSTORE POP SWAP2 PUSH1 0x20 ADD SWAP2 SWAP1 PUSH1 0x1 ADD SWAP1 PUSH2 0x5B2 JUMP JUMPDEST JUMPDEST POP SWAP1 POP PUSH2 0x618 SWAP2 SWAP1 PUSH2 0x61C JUMP JUMPDEST POP SWAP1 JUMP JUMPDEST JUMPDEST DUP1 DUP3 GT ISZERO PUSH2 0x635 JUMPI PUSH1 0x0 DUP2 PUSH1 0x0 SWAP1 SSTORE POP PUSH1 0x1 ADD PUSH2 0x61D JUMP JUMPDEST POP SWAP1 JUMP JUMPDEST PUSH1 0x0 DUP2 SWAP1 POP SWAP2 SWAP1 POP JUMP JUMPDEST PUSH32 0x4E487B7100000000000000000000000000000000000000000000000000000000 PUSH1 0x0 MSTORE PUSH1 0x11 PUSH1 0x4 MSTORE PUSH1 0x24 PUSH1 0x0 REVERT JUMPDEST PUSH1 0x0 PUSH2 0x67D DUP3 PUSH2 0x639 JUMP JUMPDEST SWAP2 POP PUSH2 0x688 DUP4 PUSH2 0x639 JUMP JUMPDEST SWAP3 POP DUP3 PUSH32 0xFFFFFFFFFFFFFFFFFFFFFFFFFFFFFFFFFFFFFFFFFFFFFFFFFFFFFFFFFFFFFFFF SUB DUP3 GT ISZERO PUSH2 0x6BD JUMPI PUSH2 0x6BC PUSH2 0x643 JUMP JUMPDEST JUMPDEST DUP3 DUP3 ADD SWAP1 POP SWAP3 SWAP2 POP POP JUMP JUMPDEST PUSH2 0x6D1 DUP2 PUSH2 0x639 JUMP JUMPDEST DUP3 MSTORE POP POP JUMP JUMPDEST PUSH1 0x0 PUSH1 0x20 DUP3 ADD SWAP1 POP PUSH2 0x6EC PUSH1 0x0 DUP4 ADD DUP5 PUSH2 0x6C8 JUMP JUMPDEST SWAP3 SWAP2 POP POP JUMP JUMPDEST PUSH1 0x0 DUP1 REVERT JUMPDEST PUSH2 0x700 DUP2 PUSH2 0x639 JUMP JUMPDEST DUP2 EQ PUSH2 0x70B JUMPI PUSH1 0x0 DUP1 REVERT JUMPDEST POP JUMP JUMPDEST PUSH1 0x0 DUP2 CALLDATALOAD SWAP1 POP PUSH2 0x71D DUP2 PUSH2 0x6F7 JUMP JUMPDEST SWAP3 SWAP2 POP POP JUMP JUMPDEST PUSH1 0x0 PUSH1 0x20 DUP3 DUP5 SUB SLT ISZERO PUSH2 0x739 JUMPI PUSH2 0x738 PUSH2 0x6F2 JUMP JUMPDEST JUMPDEST PUSH1 0x0 PUSH2 0x747 DUP5 DUP3 DUP6 ADD PUSH2 0x70E JUMP JUMPDEST SWAP2 POP POP SWAP3 SWAP2 POP POP JUMP JUMPDEST PUSH1 0x0 PUSH20 0xFFFFFFFFFFFFFFFFFFFFFFFFFFFFFFFFFFFFFFFF DUP3 AND SWAP1 POP SWAP2 SWAP1 POP JUMP JUMPDEST PUSH1 0x0 PUSH2 0x77B DUP3 PUSH2 0x750 JUMP JUMPDEST SWAP1 POP SWAP2 SWAP1 POP JUMP JUMPDEST PUSH2 0x78B DUP2 PUSH2 0x770 JUMP JUMPDEST DUP3 MSTORE POP POP JUMP JUMPDEST PUSH1 0x0 PUSH1 0x20 DUP3 ADD SWAP1 POP PUSH2 0x7A6 PUSH1 0x0 DUP4 ADD DUP5 PUSH2 0x782 JUMP JUMPDEST SWAP3 SWAP2 POP POP JUMP JUMPDEST PUSH1 0x0 PUSH2 0x7B7 DUP3 PUSH2 0x750 JUMP JUMPDEST SWAP1 POP SWAP2 SWAP1 POP JUMP JUMPDEST PUSH2 0x7C7 DUP2 PUSH2 0x7AC JUMP JUMPDEST DUP3 MSTORE POP POP JUMP JUMPDEST PUSH1 0x0 PUSH1 0x20 DUP3 ADD SWAP1 POP PUSH2 0x7E2 PUSH1 0x0 DUP4 ADD DUP5 PUSH2 0x7BE JUMP JUMPDEST SWAP3 SWAP2 POP POP JUMP JUMPDEST PUSH2 0x7F1 DUP2 PUSH2 0x7AC JUMP JUMPDEST DUP2 EQ PUSH2 0x7FC JUMPI PUSH1 0x0 DUP1 REVERT JUMPDEST POP JUMP JUMPDEST PUSH1 0x0 DUP2 CALLDATALOAD SWAP1 POP PUSH2 0x80E DUP2 PUSH2 0x7E8 JUMP JUMPDEST SWAP3 SWAP2 POP POP JUMP JUMPDEST PUSH1 0x0 PUSH1 0x20 DUP3 DUP5 SUB SLT ISZERO PUSH2 0x82A JUMPI PUSH2 0x829 PUSH2 0x6F2 JUMP JUMPDEST JUMPDEST PUSH1 0x0 PUSH2 0x838 DUP5 DUP3 DUP6 ADD PUSH2 0x7FF JUMP JUMPDEST SWAP2 POP POP SWAP3 SWAP2 POP POP JUMP JUMPDEST PUSH1 0x0 DUP3 DUP3 MSTORE PUSH1 0x20 DUP3 ADD SWAP1 POP SWAP3 SWAP2 POP POP JUMP JUMPDEST PUSH32 0x4F6E6C79206F776E657273206172652061626C6520746F207365652074686520 PUSH1 0x0 DUP3 ADD MSTORE PUSH32 0x746F74616C206E756D626572206F662066756E64730000000000000000000000 PUSH1 0x20 DUP3 ADD MSTORE POP JUMP JUMPDEST PUSH1 0x0 PUSH2 0x8AE PUSH1 0x35 DUP4 PUSH2 0x841 JUMP JUMPDEST SWAP2 POP PUSH2 0x8B9 DUP3 PUSH2 0x852 JUMP JUMPDEST PUSH1 0x40 DUP3 ADD SWAP1 POP SWAP2 SWAP1 POP JUMP JUMPDEST PUSH1 0x0 PUSH1 0x20 DUP3 ADD SWAP1 POP DUP2 DUP2 SUB PUSH1 0x0 DUP4 ADD MSTORE PUSH2 0x8DD DUP2 PUSH2 0x8A1 JUMP JUMPDEST SWAP1 POP SWAP2 SWAP1 POP JUMP JUMPDEST PUSH32 0x4E487B7100000000000000000000000000000000000000000000000000000000 PUSH1 0x0 MSTORE PUSH1 0x12 PUSH1 0x4 MSTORE PUSH1 0x24 PUSH1 0x0 REVERT JUMPDEST PUSH1 0x0 PUSH2 0x91E DUP3 PUSH2 0x639 JUMP JUMPDEST SWAP2 POP PUSH2 0x929 DUP4 PUSH2 0x639 JUMP JUMPDEST SWAP3 POP DUP3 PUSH2 0x939 JUMPI PUSH2 0x938 PUSH2 0x8E4 JUMP JUMPDEST JUMPDEST DUP3 DUP3 MOD SWAP1 POP SWAP3 SWAP2 POP POP JUMP JUMPDEST PUSH32 0x4E487B7100000000000000000000000000000000000000000000000000000000 PUSH1 0x0 MSTORE PUSH1 0x32 PUSH1 0x4 MSTORE PUSH1 0x24 PUSH1 0x0 REVERT JUMPDEST PUSH32 0x4E487B7100000000000000000000000000000000000000000000000000000000 PUSH1 0x0 MSTORE PUSH1 0x41 PUSH1 0x4 MSTORE PUSH1 0x24 PUSH1 0x0 REVERT JUMPDEST PUSH1 0x0 DUP2 SWAP1 POP SWAP2 SWAP1 POP JUMP JUMPDEST PUSH2 0x9BD PUSH2 0x9B8 DUP3 PUSH2 0x639 JUMP JUMPDEST PUSH2 0x9A2 JUMP JUMPDEST DUP3 MSTORE POP POP JUMP JUMPDEST PUSH1 0x0 PUSH2 0x9CF DUP3 DUP7 PUSH2 0x9AC JUMP JUMPDEST PUSH1 0x20 DUP3 ADD SWAP2 POP PUSH2 0x9DF DUP3 DUP6 PUSH2 0x9AC JUMP JUMPDEST PUSH1 0x20 DUP3 ADD SWAP2 POP PUSH2 0x9EF DUP3 DUP5 PUSH2 0x9AC JUMP JUMPDEST PUSH1 0x20 DUP3 ADD SWAP2 POP DUP2 SWAP1 POP SWAP5 SWAP4 POP POP POP POP JUMP INVALID LOG2 PUSH5 0x6970667358 0x22 SLT KECCAK256 DUP8 0x22 PUSH4 0x88EAE9C7 0x4F 0x2D KECCAK256 0x5D 0x4C PUSH24 0xA48B7B64B4D99745D0BE513E70ADD286B3F52E64736F6C63 NUMBER STOP ADDMOD 0xD STOP CALLER "
				},
				"gasEstimates": {
					"creation": {
						"codeDepositCost": "522800",
						"executionCost": "24822",
						"totalCost": "547622"
					},
					"external": {
						"ethCount(address)": "2880",
						"getBalance()": "2602",
						"getRandomAddress()": "infinite",
						"manager()": "2533",
						"participants(uint256)": "4956",
						"pickWinner()": "infinite"
					}
				},
				"methodIdentifiers": {
					"ethCount(address)": "872a90d7",
					"getBalance()": "12065fe0",
					"getRandomAddress()": "edd0eb06",
					"manager()": "481c6a75",
					"participants(uint256)": "35c1d349",
					"pickWinner()": "5d495aea"
				}
			},
			"userdoc": {
				"kind": "user",
				"methods": {},
				"version": 1
			}
		}
	}
}