{
	"contracts/Crowd_Funding/Crowd_Funding.sol": {
		"CrowdFunding": {
			"abi": [
				{
					"inputs": [
						{
							"internalType": "uint256",
							"name": "_target",
							"type": "uint256"
						},
						{
							"internalType": "uint256",
							"name": "_deadline",
							"type": "uint256"
						},
						{
							"internalType": "uint256",
							"name": "_minimumContribution",
							"type": "uint256"
						}
					],
					"stateMutability": "nonpayable",
					"type": "constructor"
				},
				{
					"inputs": [
						{
							"internalType": "uint256",
							"name": "",
							"type": "uint256"
						}
					],
					"name": "addresses",
					"outputs": [
						{
							"internalType": "address payable",
							"name": "",
							"type": "address"
						}
					],
					"stateMutability": "view",
					"type": "function"
				},
				{
					"inputs": [
						{
							"internalType": "address",
							"name": "",
							"type": "address"
						}
					],
					"name": "contributors",
					"outputs": [
						{
							"internalType": "uint256",
							"name": "",
							"type": "uint256"
						}
					],
					"stateMutability": "view",
					"type": "function"
				},
				{
					"inputs": [],
					"name": "deadline",
					"outputs": [
						{
							"internalType": "uint256",
							"name": "",
							"type": "uint256"
						}
					],
					"stateMutability": "view",
					"type": "function"
				},
				{
					"inputs": [],
					"name": "getContractBalance",
					"outputs": [
						{
							"internalType": "uint256",
							"name": "",
							"type": "uint256"
						}
					],
					"stateMutability": "view",
					"type": "function"
				},
				{
					"inputs": [],
					"name": "manager",
					"outputs": [
						{
							"internalType": "address",
							"name": "",
							"type": "address"
						}
					],
					"stateMutability": "view",
					"type": "function"
				},
				{
					"inputs": [],
					"name": "minimumContribution",
					"outputs": [
						{
							"internalType": "uint256",
							"name": "",
							"type": "uint256"
						}
					],
					"stateMutability": "view",
					"type": "function"
				},
				{
					"inputs": [],
					"name": "noOfContributors",
					"outputs": [
						{
							"internalType": "uint256",
							"name": "",
							"type": "uint256"
						}
					],
					"stateMutability": "view",
					"type": "function"
				},
				{
					"inputs": [],
					"name": "raisedAmount",
					"outputs": [
						{
							"internalType": "uint256",
							"name": "",
							"type": "uint256"
						}
					],
					"stateMutability": "view",
					"type": "function"
				},
				{
					"inputs": [],
					"name": "refund",
					"outputs": [],
					"stateMutability": "nonpayable",
					"type": "function"
				},
				{
					"inputs": [],
					"name": "refundToAll",
					"outputs": [],
					"stateMutability": "nonpayable",
					"type": "function"
				},
				{
					"inputs": [],
					"name": "sendEth",
					"outputs": [],
					"stateMutability": "payable",
					"type": "function"
				},
				{
					"inputs": [],
					"name": "target",
					"outputs": [
						{
							"internalType": "uint256",
							"name": "",
							"type": "uint256"
						}
					],
					"stateMutability": "view",
					"type": "function"
				}
			],
			"devdoc": {
				"kind": "dev",
				"methods": {},
				"version": 1
			},
			"evm": {
				"assembly": "    /* \"contracts/Crowd_Funding/Crowd_Funding.sol\":59:1972  contract CrowdFunding {... */\n  mstore(0x40, 0x80)\n    /* \"contracts/Crowd_Funding/Crowd_Funding.sol\":368:605  constructor(uint _target, uint _deadline, uint _minimumContribution) {... */\n  callvalue\n  dup1\n  iszero\n  tag_1\n  jumpi\n  0x00\n  dup1\n  revert\ntag_1:\n  pop\n  mload(0x40)\n  sub(codesize, bytecodeSize)\n  dup1\n  bytecodeSize\n  dup4\n  codecopy\n  dup2\n  dup2\n  add\n  0x40\n  mstore\n  dup2\n  add\n  swap1\n  tag_2\n  swap2\n  swap1\n  tag_3\n  jump\t// in\ntag_2:\n    /* \"contracts/Crowd_Funding/Crowd_Funding.sol\":457:464  _target */\n  dup3\n    /* \"contracts/Crowd_Funding/Crowd_Funding.sol\":448:454  target */\n  0x03\n    /* \"contracts/Crowd_Funding/Crowd_Funding.sol\":448:464  target = _target */\n  dup2\n  swap1\n  sstore\n  pop\n    /* \"contracts/Crowd_Funding/Crowd_Funding.sol\":502:511  _deadline */\n  dup2\n    /* \"contracts/Crowd_Funding/Crowd_Funding.sol\":486:501  block.timestamp */\n  timestamp\n    /* \"contracts/Crowd_Funding/Crowd_Funding.sol\":486:511  block.timestamp+_deadline */\n  tag_6\n  swap2\n  swap1\n  tag_7\n  jump\t// in\ntag_6:\n    /* \"contracts/Crowd_Funding/Crowd_Funding.sol\":475:483  deadline */\n  0x02\n    /* \"contracts/Crowd_Funding/Crowd_Funding.sol\":475:511  deadline = block.timestamp+_deadline */\n  dup2\n  swap1\n  sstore\n  pop\n    /* \"contracts/Crowd_Funding/Crowd_Funding.sol\":544:564  _minimumContribution */\n  dup1\n    /* \"contracts/Crowd_Funding/Crowd_Funding.sol\":522:541  minimumContribution */\n  0x01\n    /* \"contracts/Crowd_Funding/Crowd_Funding.sol\":522:564  minimumContribution = _minimumContribution */\n  dup2\n  swap1\n  sstore\n  pop\n    /* \"contracts/Crowd_Funding/Crowd_Funding.sol\":585:595  msg.sender */\n  caller\n    /* \"contracts/Crowd_Funding/Crowd_Funding.sol\":575:582  manager */\n  0x00\n  dup1\n    /* \"contracts/Crowd_Funding/Crowd_Funding.sol\":575:595  manager = msg.sender */\n  0x0100\n  exp\n  dup2\n  sload\n  dup2\n  0xffffffffffffffffffffffffffffffffffffffff\n  mul\n  not\n  and\n  swap1\n  dup4\n  0xffffffffffffffffffffffffffffffffffffffff\n  and\n  mul\n  or\n  swap1\n  sstore\n  pop\n    /* \"contracts/Crowd_Funding/Crowd_Funding.sol\":368:605  constructor(uint _target, uint _deadline, uint _minimumContribution) {... */\n  pop\n  pop\n  pop\n    /* \"contracts/Crowd_Funding/Crowd_Funding.sol\":59:1972  contract CrowdFunding {... */\n  jump(tag_8)\n    /* \"#utility.yul\":88:205   */\ntag_10:\n    /* \"#utility.yul\":197:198   */\n  0x00\n    /* \"#utility.yul\":194:195   */\n  dup1\n    /* \"#utility.yul\":187:199   */\n  revert\n    /* \"#utility.yul\":334:411   */\ntag_12:\n    /* \"#utility.yul\":371:378   */\n  0x00\n    /* \"#utility.yul\":400:405   */\n  dup2\n    /* \"#utility.yul\":389:405   */\n  swap1\n  pop\n    /* \"#utility.yul\":334:411   */\n  swap2\n  swap1\n  pop\n  jump\t// out\n    /* \"#utility.yul\":417:539   */\ntag_13:\n    /* \"#utility.yul\":490:514   */\n  tag_22\n    /* \"#utility.yul\":508:513   */\n  dup2\n    /* \"#utility.yul\":490:514   */\n  tag_12\n  jump\t// in\ntag_22:\n    /* \"#utility.yul\":483:488   */\n  dup2\n    /* \"#utility.yul\":480:515   */\n  eq\n    /* \"#utility.yul\":470:533   */\n  tag_23\n  jumpi\n    /* \"#utility.yul\":529:530   */\n  0x00\n    /* \"#utility.yul\":526:527   */\n  dup1\n    /* \"#utility.yul\":519:531   */\n  revert\n    /* \"#utility.yul\":470:533   */\ntag_23:\n    /* \"#utility.yul\":417:539   */\n  pop\n  jump\t// out\n    /* \"#utility.yul\":545:688   */\ntag_14:\n    /* \"#utility.yul\":602:607   */\n  0x00\n    /* \"#utility.yul\":633:639   */\n  dup2\n    /* \"#utility.yul\":627:640   */\n  mload\n    /* \"#utility.yul\":618:640   */\n  swap1\n  pop\n    /* \"#utility.yul\":649:682   */\n  tag_25\n    /* \"#utility.yul\":676:681   */\n  dup2\n    /* \"#utility.yul\":649:682   */\n  tag_13\n  jump\t// in\ntag_25:\n    /* \"#utility.yul\":545:688   */\n  swap3\n  swap2\n  pop\n  pop\n  jump\t// out\n    /* \"#utility.yul\":694:1357   */\ntag_3:\n    /* \"#utility.yul\":782:788   */\n  0x00\n    /* \"#utility.yul\":790:796   */\n  dup1\n    /* \"#utility.yul\":798:804   */\n  0x00\n    /* \"#utility.yul\":847:849   */\n  0x60\n    /* \"#utility.yul\":835:844   */\n  dup5\n    /* \"#utility.yul\":826:833   */\n  dup7\n    /* \"#utility.yul\":822:845   */\n  sub\n    /* \"#utility.yul\":818:850   */\n  slt\n    /* \"#utility.yul\":815:934   */\n  iszero\n  tag_27\n  jumpi\n    /* \"#utility.yul\":853:932   */\n  tag_28\n  tag_10\n  jump\t// in\ntag_28:\n    /* \"#utility.yul\":815:934   */\ntag_27:\n    /* \"#utility.yul\":973:974   */\n  0x00\n    /* \"#utility.yul\":998:1062   */\n  tag_29\n    /* \"#utility.yul\":1054:1061   */\n  dup7\n    /* \"#utility.yul\":1045:1051   */\n  dup3\n    /* \"#utility.yul\":1034:1043   */\n  dup8\n    /* \"#utility.yul\":1030:1052   */\n  add\n    /* \"#utility.yul\":998:1062   */\n  tag_14\n  jump\t// in\ntag_29:\n    /* \"#utility.yul\":988:1062   */\n  swap4\n  pop\n    /* \"#utility.yul\":944:1072   */\n  pop\n    /* \"#utility.yul\":1111:1113   */\n  0x20\n    /* \"#utility.yul\":1137:1201   */\n  tag_30\n    /* \"#utility.yul\":1193:1200   */\n  dup7\n    /* \"#utility.yul\":1184:1190   */\n  dup3\n    /* \"#utility.yul\":1173:1182   */\n  dup8\n    /* \"#utility.yul\":1169:1191   */\n  add\n    /* \"#utility.yul\":1137:1201   */\n  tag_14\n  jump\t// in\ntag_30:\n    /* \"#utility.yul\":1127:1201   */\n  swap3\n  pop\n    /* \"#utility.yul\":1082:1211   */\n  pop\n    /* \"#utility.yul\":1250:1252   */\n  0x40\n    /* \"#utility.yul\":1276:1340   */\n  tag_31\n    /* \"#utility.yul\":1332:1339   */\n  dup7\n    /* \"#utility.yul\":1323:1329   */\n  dup3\n    /* \"#utility.yul\":1312:1321   */\n  dup8\n    /* \"#utility.yul\":1308:1330   */\n  add\n    /* \"#utility.yul\":1276:1340   */\n  tag_14\n  jump\t// in\ntag_31:\n    /* \"#utility.yul\":1266:1340   */\n  swap2\n  pop\n    /* \"#utility.yul\":1221:1350   */\n  pop\n    /* \"#utility.yul\":694:1357   */\n  swap3\n  pop\n  swap3\n  pop\n  swap3\n  jump\t// out\n    /* \"#utility.yul\":1363:1543   */\ntag_15:\n    /* \"#utility.yul\":1411:1488   */\n  0x4e487b7100000000000000000000000000000000000000000000000000000000\n    /* \"#utility.yul\":1408:1409   */\n  0x00\n    /* \"#utility.yul\":1401:1489   */\n  mstore\n    /* \"#utility.yul\":1508:1512   */\n  0x11\n    /* \"#utility.yul\":1505:1506   */\n  0x04\n    /* \"#utility.yul\":1498:1513   */\n  mstore\n    /* \"#utility.yul\":1532:1536   */\n  0x24\n    /* \"#utility.yul\":1529:1530   */\n  0x00\n    /* \"#utility.yul\":1522:1537   */\n  revert\n    /* \"#utility.yul\":1549:1854   */\ntag_7:\n    /* \"#utility.yul\":1589:1592   */\n  0x00\n    /* \"#utility.yul\":1608:1628   */\n  tag_34\n    /* \"#utility.yul\":1626:1627   */\n  dup3\n    /* \"#utility.yul\":1608:1628   */\n  tag_12\n  jump\t// in\ntag_34:\n    /* \"#utility.yul\":1603:1628   */\n  swap2\n  pop\n    /* \"#utility.yul\":1642:1662   */\n  tag_35\n    /* \"#utility.yul\":1660:1661   */\n  dup4\n    /* \"#utility.yul\":1642:1662   */\n  tag_12\n  jump\t// in\ntag_35:\n    /* \"#utility.yul\":1637:1662   */\n  swap3\n  pop\n    /* \"#utility.yul\":1796:1797   */\n  dup3\n    /* \"#utility.yul\":1728:1794   */\n  0xffffffffffffffffffffffffffffffffffffffffffffffffffffffffffffffff\n    /* \"#utility.yul\":1724:1798   */\n  sub\n    /* \"#utility.yul\":1721:1722   */\n  dup3\n    /* \"#utility.yul\":1718:1799   */\n  gt\n    /* \"#utility.yul\":1715:1822   */\n  iszero\n  tag_36\n  jumpi\n    /* \"#utility.yul\":1802:1820   */\n  tag_37\n  tag_15\n  jump\t// in\ntag_37:\n    /* \"#utility.yul\":1715:1822   */\ntag_36:\n    /* \"#utility.yul\":1846:1847   */\n  dup3\n    /* \"#utility.yul\":1843:1844   */\n  dup3\n    /* \"#utility.yul\":1839:1848   */\n  add\n    /* \"#utility.yul\":1832:1848   */\n  swap1\n  pop\n    /* \"#utility.yul\":1549:1854   */\n  swap3\n  swap2\n  pop\n  pop\n  jump\t// out\n    /* \"contracts/Crowd_Funding/Crowd_Funding.sol\":59:1972  contract CrowdFunding {... */\ntag_8:\n  dataSize(sub_0)\n  dup1\n  dataOffset(sub_0)\n  0x00\n  codecopy\n  0x00\n  return\nstop\n\nsub_0: assembly {\n        /* \"contracts/Crowd_Funding/Crowd_Funding.sol\":59:1972  contract CrowdFunding {... */\n      mstore(0x40, 0x80)\n      jumpi(tag_1, lt(calldatasize, 0x04))\n      shr(0xe0, calldataload(0x00))\n      dup1\n      0x6f9fb98a\n      gt\n      tag_14\n      jumpi\n      dup1\n      0x6f9fb98a\n      eq\n      tag_8\n      jumpi\n      dup1\n      0x937e09b1\n      eq\n      tag_9\n      jumpi\n      dup1\n      0xc59ee1dc\n      eq\n      tag_10\n      jumpi\n      dup1\n      0xd4b83992\n      eq\n      tag_11\n      jumpi\n      dup1\n      0xdbddd8db\n      eq\n      tag_12\n      jumpi\n      dup1\n      0xedf26d9b\n      eq\n      tag_13\n      jumpi\n      jump(tag_1)\n    tag_14:\n      dup1\n      0x06e99fef\n      eq\n      tag_2\n      jumpi\n      dup1\n      0x1f6d4942\n      eq\n      tag_3\n      jumpi\n      dup1\n      0x29dcb0cf\n      eq\n      tag_4\n      jumpi\n      dup1\n      0x481c6a75\n      eq\n      tag_5\n      jumpi\n      dup1\n      0x4e260f6f\n      eq\n      tag_6\n      jumpi\n      dup1\n      0x590e1ae3\n      eq\n      tag_7\n      jumpi\n    tag_1:\n      0x00\n      dup1\n      revert\n        /* \"contracts/Crowd_Funding/Crowd_Funding.sol\":613:1061  function sendEth() public payable {... */\n    tag_2:\n      tag_15\n      tag_16\n      jump\t// in\n    tag_15:\n      stop\n        /* \"contracts/Crowd_Funding/Crowd_Funding.sol\":316:359  mapping (address=>uint) public contributors */\n    tag_3:\n      callvalue\n      dup1\n      iszero\n      tag_17\n      jumpi\n      0x00\n      dup1\n      revert\n    tag_17:\n      pop\n      tag_18\n      0x04\n      dup1\n      calldatasize\n      sub\n      dup2\n      add\n      swap1\n      tag_19\n      swap2\n      swap1\n      tag_20\n      jump\t// in\n    tag_19:\n      tag_21\n      jump\t// in\n    tag_18:\n      mload(0x40)\n      tag_22\n      swap2\n      swap1\n      tag_23\n      jump\t// in\n    tag_22:\n      mload(0x40)\n      dup1\n      swap2\n      sub\n      swap1\n      return\n        /* \"contracts/Crowd_Funding/Crowd_Funding.sol\":155:175  uint public deadline */\n    tag_4:\n      callvalue\n      dup1\n      iszero\n      tag_24\n      jumpi\n      0x00\n      dup1\n      revert\n    tag_24:\n      pop\n      tag_25\n      tag_26\n      jump\t// in\n    tag_25:\n      mload(0x40)\n      tag_27\n      swap2\n      swap1\n      tag_23\n      jump\t// in\n    tag_27:\n      mload(0x40)\n      dup1\n      swap2\n      sub\n      swap1\n      return\n        /* \"contracts/Crowd_Funding/Crowd_Funding.sol\":88:110  address public manager */\n    tag_5:\n      callvalue\n      dup1\n      iszero\n      tag_28\n      jumpi\n      0x00\n      dup1\n      revert\n    tag_28:\n      pop\n      tag_29\n      tag_30\n      jump\t// in\n    tag_29:\n      mload(0x40)\n      tag_31\n      swap2\n      swap1\n      tag_32\n      jump\t// in\n    tag_31:\n      mload(0x40)\n      dup1\n      swap2\n      sub\n      swap1\n      return\n        /* \"contracts/Crowd_Funding/Crowd_Funding.sol\":238:266  uint public noOfContributors */\n    tag_6:\n      callvalue\n      dup1\n      iszero\n      tag_33\n      jumpi\n      0x00\n      dup1\n      revert\n    tag_33:\n      pop\n      tag_34\n      tag_35\n      jump\t// in\n    tag_34:\n      mload(0x40)\n      tag_36\n      swap2\n      swap1\n      tag_23\n      jump\t// in\n    tag_36:\n      mload(0x40)\n      dup1\n      swap2\n      sub\n      swap1\n      return\n        /* \"contracts/Crowd_Funding/Crowd_Funding.sol\":1583:1967  function refund() public {... */\n    tag_7:\n      callvalue\n      dup1\n      iszero\n      tag_37\n      jumpi\n      0x00\n      dup1\n      revert\n    tag_37:\n      pop\n      tag_38\n      tag_39\n      jump\t// in\n    tag_38:\n      stop\n        /* \"contracts/Crowd_Funding/Crowd_Funding.sol\":1069:1175  function getContractBalance() public view returns(uint256) {... */\n    tag_8:\n      callvalue\n      dup1\n      iszero\n      tag_40\n      jumpi\n      0x00\n      dup1\n      revert\n    tag_40:\n      pop\n      tag_41\n      tag_42\n      jump\t// in\n    tag_41:\n      mload(0x40)\n      tag_43\n      swap2\n      swap1\n      tag_23\n      jump\t// in\n    tag_43:\n      mload(0x40)\n      dup1\n      swap2\n      sub\n      swap1\n      return\n        /* \"contracts/Crowd_Funding/Crowd_Funding.sol\":117:148  uint public minimumContribution */\n    tag_9:\n      callvalue\n      dup1\n      iszero\n      tag_44\n      jumpi\n      0x00\n      dup1\n      revert\n    tag_44:\n      pop\n      tag_45\n      tag_46\n      jump\t// in\n    tag_45:\n      mload(0x40)\n      tag_47\n      swap2\n      swap1\n      tag_23\n      jump\t// in\n    tag_47:\n      mload(0x40)\n      dup1\n      swap2\n      sub\n      swap1\n      return\n        /* \"contracts/Crowd_Funding/Crowd_Funding.sol\":207:231  uint public raisedAmount */\n    tag_10:\n      callvalue\n      dup1\n      iszero\n      tag_48\n      jumpi\n      0x00\n      dup1\n      revert\n    tag_48:\n      pop\n      tag_49\n      tag_50\n      jump\t// in\n    tag_49:\n      mload(0x40)\n      tag_51\n      swap2\n      swap1\n      tag_23\n      jump\t// in\n    tag_51:\n      mload(0x40)\n      dup1\n      swap2\n      sub\n      swap1\n      return\n        /* \"contracts/Crowd_Funding/Crowd_Funding.sol\":182:200  uint public target */\n    tag_11:\n      callvalue\n      dup1\n      iszero\n      tag_52\n      jumpi\n      0x00\n      dup1\n      revert\n    tag_52:\n      pop\n      tag_53\n      tag_54\n      jump\t// in\n    tag_53:\n      mload(0x40)\n      tag_55\n      swap2\n      swap1\n      tag_23\n      jump\t// in\n    tag_55:\n      mload(0x40)\n      dup1\n      swap2\n      sub\n      swap1\n      return\n        /* \"contracts/Crowd_Funding/Crowd_Funding.sol\":1183:1575  function refundToAll() public {... */\n    tag_12:\n      callvalue\n      dup1\n      iszero\n      tag_56\n      jumpi\n      0x00\n      dup1\n      revert\n    tag_56:\n      pop\n      tag_57\n      tag_58\n      jump\t// in\n    tag_57:\n      stop\n        /* \"contracts/Crowd_Funding/Crowd_Funding.sol\":273:307  address payable[] public addresses */\n    tag_13:\n      callvalue\n      dup1\n      iszero\n      tag_59\n      jumpi\n      0x00\n      dup1\n      revert\n    tag_59:\n      pop\n      tag_60\n      0x04\n      dup1\n      calldatasize\n      sub\n      dup2\n      add\n      swap1\n      tag_61\n      swap2\n      swap1\n      tag_62\n      jump\t// in\n    tag_61:\n      tag_63\n      jump\t// in\n    tag_60:\n      mload(0x40)\n      tag_64\n      swap2\n      swap1\n      tag_65\n      jump\t// in\n    tag_64:\n      mload(0x40)\n      dup1\n      swap2\n      sub\n      swap1\n      return\n        /* \"contracts/Crowd_Funding/Crowd_Funding.sol\":613:1061  function sendEth() public payable {... */\n    tag_16:\n        /* \"contracts/Crowd_Funding/Crowd_Funding.sol\":684:692  deadline */\n      sload(0x02)\n        /* \"contracts/Crowd_Funding/Crowd_Funding.sol\":666:681  block.timestamp */\n      timestamp\n        /* \"contracts/Crowd_Funding/Crowd_Funding.sol\":666:692  block.timestamp < deadline */\n      lt\n        /* \"contracts/Crowd_Funding/Crowd_Funding.sol\":658:715  require(block.timestamp < deadline,\"Deadline has passed\") */\n      tag_67\n      jumpi\n      mload(0x40)\n      0x08c379a000000000000000000000000000000000000000000000000000000000\n      dup2\n      mstore\n      0x04\n      add\n      tag_68\n      swap1\n      tag_69\n      jump\t// in\n    tag_68:\n      mload(0x40)\n      dup1\n      swap2\n      sub\n      swap1\n      revert\n    tag_67:\n        /* \"contracts/Crowd_Funding/Crowd_Funding.sol\":747:766  minimumContribution */\n      sload(0x01)\n        /* \"contracts/Crowd_Funding/Crowd_Funding.sol\":734:743  msg.value */\n      callvalue\n        /* \"contracts/Crowd_Funding/Crowd_Funding.sol\":734:766  msg.value >= minimumContribution */\n      lt\n      iszero\n        /* \"contracts/Crowd_Funding/Crowd_Funding.sol\":726:802  require(msg.value >= minimumContribution,\"Minimum contribution has not met\") */\n      tag_70\n      jumpi\n      mload(0x40)\n      0x08c379a000000000000000000000000000000000000000000000000000000000\n      dup2\n      mstore\n      0x04\n      add\n      tag_71\n      swap1\n      tag_72\n      jump\t// in\n    tag_71:\n      mload(0x40)\n      dup1\n      swap2\n      sub\n      swap1\n      revert\n    tag_70:\n        /* \"contracts/Crowd_Funding/Crowd_Funding.sol\":844:845  0 */\n      0x00\n        /* \"contracts/Crowd_Funding/Crowd_Funding.sol\":816:828  contributors */\n      0x07\n        /* \"contracts/Crowd_Funding/Crowd_Funding.sol\":816:840  contributors[msg.sender] */\n      0x00\n        /* \"contracts/Crowd_Funding/Crowd_Funding.sol\":829:839  msg.sender */\n      caller\n        /* \"contracts/Crowd_Funding/Crowd_Funding.sol\":816:840  contributors[msg.sender] */\n      0xffffffffffffffffffffffffffffffffffffffff\n      and\n      0xffffffffffffffffffffffffffffffffffffffff\n      and\n      dup2\n      mstore\n      0x20\n      add\n      swap1\n      dup2\n      mstore\n      0x20\n      add\n      0x00\n      keccak256\n      sload\n        /* \"contracts/Crowd_Funding/Crowd_Funding.sol\":816:845  contributors[msg.sender] == 0 */\n      sub\n        /* \"contracts/Crowd_Funding/Crowd_Funding.sol\":813:951  if(contributors[msg.sender] == 0)... */\n      tag_73\n      jumpi\n        /* \"contracts/Crowd_Funding/Crowd_Funding.sol\":871:887  noOfContributors */\n      0x05\n      0x00\n        /* \"contracts/Crowd_Funding/Crowd_Funding.sol\":871:889  noOfContributors++ */\n      dup2\n      sload\n      dup1\n      swap3\n      swap2\n      swap1\n      tag_74\n      swap1\n      tag_75\n      jump\t// in\n    tag_74:\n      swap2\n      swap1\n      pop\n      sstore\n      pop\n        /* \"contracts/Crowd_Funding/Crowd_Funding.sol\":904:913  addresses */\n      0x06\n        /* \"contracts/Crowd_Funding/Crowd_Funding.sol\":927:937  msg.sender */\n      caller\n        /* \"contracts/Crowd_Funding/Crowd_Funding.sol\":904:939  addresses.push(payable(msg.sender)) */\n      swap1\n      dup1\n      0x01\n      dup2\n      sload\n      add\n      dup1\n      dup3\n      sstore\n      dup1\n      swap2\n      pop\n      pop\n      0x01\n      swap1\n      sub\n      swap1\n      0x00\n      mstore\n      keccak256(0x00, 0x20)\n      add\n      0x00\n      swap1\n      swap2\n      swap1\n      swap2\n      swap1\n      swap2\n      0x0100\n      exp\n      dup2\n      sload\n      dup2\n      0xffffffffffffffffffffffffffffffffffffffff\n      mul\n      not\n      and\n      swap1\n      dup4\n      0xffffffffffffffffffffffffffffffffffffffff\n      and\n      mul\n      or\n      swap1\n      sstore\n      pop\n        /* \"contracts/Crowd_Funding/Crowd_Funding.sol\":813:951  if(contributors[msg.sender] == 0)... */\n    tag_73:\n        /* \"contracts/Crowd_Funding/Crowd_Funding.sol\":999:1008  msg.value */\n      callvalue\n        /* \"contracts/Crowd_Funding/Crowd_Funding.sol\":971:983  contributors */\n      0x07\n        /* \"contracts/Crowd_Funding/Crowd_Funding.sol\":971:995  contributors[msg.sender] */\n      0x00\n        /* \"contracts/Crowd_Funding/Crowd_Funding.sol\":984:994  msg.sender */\n      caller\n        /* \"contracts/Crowd_Funding/Crowd_Funding.sol\":971:995  contributors[msg.sender] */\n      0xffffffffffffffffffffffffffffffffffffffff\n      and\n      0xffffffffffffffffffffffffffffffffffffffff\n      and\n      dup2\n      mstore\n      0x20\n      add\n      swap1\n      dup2\n      mstore\n      0x20\n      add\n      0x00\n      keccak256\n      0x00\n        /* \"contracts/Crowd_Funding/Crowd_Funding.sol\":971:1008  contributors[msg.sender] += msg.value */\n      dup3\n      dup3\n      sload\n      tag_77\n      swap2\n      swap1\n      tag_78\n      jump\t// in\n    tag_77:\n      swap3\n      pop\n      pop\n      dup2\n      swap1\n      sstore\n      pop\n        /* \"contracts/Crowd_Funding/Crowd_Funding.sol\":1033:1042  msg.value */\n      callvalue\n        /* \"contracts/Crowd_Funding/Crowd_Funding.sol\":1019:1031  raisedAmount */\n      0x04\n      0x00\n        /* \"contracts/Crowd_Funding/Crowd_Funding.sol\":1019:1042  raisedAmount+=msg.value */\n      dup3\n      dup3\n      sload\n      tag_79\n      swap2\n      swap1\n      tag_78\n      jump\t// in\n    tag_79:\n      swap3\n      pop\n      pop\n      dup2\n      swap1\n      sstore\n      pop\n        /* \"contracts/Crowd_Funding/Crowd_Funding.sol\":613:1061  function sendEth() public payable {... */\n      jump\t// out\n        /* \"contracts/Crowd_Funding/Crowd_Funding.sol\":316:359  mapping (address=>uint) public contributors */\n    tag_21:\n      mstore(0x20, 0x07)\n      dup1\n      0x00\n      mstore\n      keccak256(0x00, 0x40)\n      0x00\n      swap2\n      pop\n      swap1\n      pop\n      sload\n      dup2\n      jump\t// out\n        /* \"contracts/Crowd_Funding/Crowd_Funding.sol\":155:175  uint public deadline */\n    tag_26:\n      sload(0x02)\n      dup2\n      jump\t// out\n        /* \"contracts/Crowd_Funding/Crowd_Funding.sol\":88:110  address public manager */\n    tag_30:\n      0x00\n      dup1\n      sload\n      swap1\n      0x0100\n      exp\n      swap1\n      div\n      0xffffffffffffffffffffffffffffffffffffffff\n      and\n      dup2\n      jump\t// out\n        /* \"contracts/Crowd_Funding/Crowd_Funding.sol\":238:266  uint public noOfContributors */\n    tag_35:\n      sload(0x05)\n      dup2\n      jump\t// out\n        /* \"contracts/Crowd_Funding/Crowd_Funding.sol\":1583:1967  function refund() public {... */\n    tag_39:\n        /* \"contracts/Crowd_Funding/Crowd_Funding.sol\":1645:1653  deadline */\n      sload(0x02)\n        /* \"contracts/Crowd_Funding/Crowd_Funding.sol\":1627:1642  block.timestamp */\n      timestamp\n        /* \"contracts/Crowd_Funding/Crowd_Funding.sol\":1627:1653  block.timestamp > deadline */\n      gt\n        /* \"contracts/Crowd_Funding/Crowd_Funding.sol\":1619:1684  require(block.timestamp > deadline,\"Deadline has not yet passed\") */\n      tag_81\n      jumpi\n      mload(0x40)\n      0x08c379a000000000000000000000000000000000000000000000000000000000\n      dup2\n      mstore\n      0x04\n      add\n      tag_82\n      swap1\n      tag_83\n      jump\t// in\n    tag_82:\n      mload(0x40)\n      dup1\n      swap2\n      sub\n      swap1\n      revert\n    tag_81:\n        /* \"contracts/Crowd_Funding/Crowd_Funding.sol\":1728:1729  0 */\n      0x00\n        /* \"contracts/Crowd_Funding/Crowd_Funding.sol\":1703:1715  contributors */\n      0x07\n        /* \"contracts/Crowd_Funding/Crowd_Funding.sol\":1703:1727  contributors[msg.sender] */\n      0x00\n        /* \"contracts/Crowd_Funding/Crowd_Funding.sol\":1716:1726  msg.sender */\n      caller\n        /* \"contracts/Crowd_Funding/Crowd_Funding.sol\":1703:1727  contributors[msg.sender] */\n      0xffffffffffffffffffffffffffffffffffffffff\n      and\n      0xffffffffffffffffffffffffffffffffffffffff\n      and\n      dup2\n      mstore\n      0x20\n      add\n      swap1\n      dup2\n      mstore\n      0x20\n      add\n      0x00\n      keccak256\n      sload\n        /* \"contracts/Crowd_Funding/Crowd_Funding.sol\":1703:1729  contributors[msg.sender]>0 */\n      gt\n        /* \"contracts/Crowd_Funding/Crowd_Funding.sol\":1695:1757  require(contributors[msg.sender]>0,\"You have not contributed\") */\n      tag_84\n      jumpi\n      mload(0x40)\n      0x08c379a000000000000000000000000000000000000000000000000000000000\n      dup2\n      mstore\n      0x04\n      add\n      tag_85\n      swap1\n      tag_86\n      jump\t// in\n    tag_85:\n      mload(0x40)\n      dup1\n      swap2\n      sub\n      swap1\n      revert\n    tag_84:\n        /* \"contracts/Crowd_Funding/Crowd_Funding.sol\":1785:1797  raisedAmount */\n      sload(0x04)\n        /* \"contracts/Crowd_Funding/Crowd_Funding.sol\":1776:1782  target */\n      sload(0x03)\n        /* \"contracts/Crowd_Funding/Crowd_Funding.sol\":1776:1797  target < raisedAmount */\n      lt\n        /* \"contracts/Crowd_Funding/Crowd_Funding.sol\":1768:1824  require(target < raisedAmount,\"Target has not met yet.\") */\n      tag_87\n      jumpi\n      mload(0x40)\n      0x08c379a000000000000000000000000000000000000000000000000000000000\n      dup2\n      mstore\n      0x04\n      add\n      tag_88\n      swap1\n      tag_89\n      jump\t// in\n    tag_88:\n      mload(0x40)\n      dup1\n      swap2\n      sub\n      swap1\n      revert\n    tag_87:\n        /* \"contracts/Crowd_Funding/Crowd_Funding.sol\":1837:1857  address payable user */\n      0x00\n        /* \"contracts/Crowd_Funding/Crowd_Funding.sol\":1868:1878  msg.sender */\n      caller\n        /* \"contracts/Crowd_Funding/Crowd_Funding.sol\":1837:1879  address payable user = payable(msg.sender) */\n      swap1\n      pop\n        /* \"contracts/Crowd_Funding/Crowd_Funding.sol\":1890:1894  user */\n      dup1\n        /* \"contracts/Crowd_Funding/Crowd_Funding.sol\":1890:1903  user.transfer */\n      0xffffffffffffffffffffffffffffffffffffffff\n      and\n        /* \"contracts/Crowd_Funding/Crowd_Funding.sol\":1890:1923  user.transfer(contributors[user]) */\n      0x08fc\n        /* \"contracts/Crowd_Funding/Crowd_Funding.sol\":1904:1916  contributors */\n      0x07\n        /* \"contracts/Crowd_Funding/Crowd_Funding.sol\":1904:1922  contributors[user] */\n      0x00\n        /* \"contracts/Crowd_Funding/Crowd_Funding.sol\":1917:1921  user */\n      dup5\n        /* \"contracts/Crowd_Funding/Crowd_Funding.sol\":1904:1922  contributors[user] */\n      0xffffffffffffffffffffffffffffffffffffffff\n      and\n      0xffffffffffffffffffffffffffffffffffffffff\n      and\n      dup2\n      mstore\n      0x20\n      add\n      swap1\n      dup2\n      mstore\n      0x20\n      add\n      0x00\n      keccak256\n      sload\n        /* \"contracts/Crowd_Funding/Crowd_Funding.sol\":1890:1923  user.transfer(contributors[user]) */\n      swap1\n      dup2\n      iszero\n      mul\n      swap1\n      mload(0x40)\n      0x00\n      mload(0x40)\n      dup1\n      dup4\n      sub\n      dup2\n      dup6\n      dup9\n      dup9\n      call\n      swap4\n      pop\n      pop\n      pop\n      pop\n      iszero\n      dup1\n      iszero\n      tag_91\n      jumpi\n      returndatasize\n      0x00\n      dup1\n      returndatacopy\n      revert(0x00, returndatasize)\n    tag_91:\n      pop\n        /* \"contracts/Crowd_Funding/Crowd_Funding.sol\":1608:1967  {... */\n      pop\n        /* \"contracts/Crowd_Funding/Crowd_Funding.sol\":1583:1967  function refund() public {... */\n      jump\t// out\n        /* \"contracts/Crowd_Funding/Crowd_Funding.sol\":1069:1175  function getContractBalance() public view returns(uint256) {... */\n    tag_42:\n        /* \"contracts/Crowd_Funding/Crowd_Funding.sol\":1119:1126  uint256 */\n      0x00\n        /* \"contracts/Crowd_Funding/Crowd_Funding.sol\":1146:1167  address(this).balance */\n      selfbalance\n        /* \"contracts/Crowd_Funding/Crowd_Funding.sol\":1139:1167  return address(this).balance */\n      swap1\n      pop\n        /* \"contracts/Crowd_Funding/Crowd_Funding.sol\":1069:1175  function getContractBalance() public view returns(uint256) {... */\n      swap1\n      jump\t// out\n        /* \"contracts/Crowd_Funding/Crowd_Funding.sol\":117:148  uint public minimumContribution */\n    tag_46:\n      sload(0x01)\n      dup2\n      jump\t// out\n        /* \"contracts/Crowd_Funding/Crowd_Funding.sol\":207:231  uint public raisedAmount */\n    tag_50:\n      sload(0x04)\n      dup2\n      jump\t// out\n        /* \"contracts/Crowd_Funding/Crowd_Funding.sol\":182:200  uint public target */\n    tag_54:\n      sload(0x03)\n      dup2\n      jump\t// out\n        /* \"contracts/Crowd_Funding/Crowd_Funding.sol\":1183:1575  function refundToAll() public {... */\n    tag_58:\n        /* \"contracts/Crowd_Funding/Crowd_Funding.sol\":1243:1253  msg.sender */\n      caller\n        /* \"contracts/Crowd_Funding/Crowd_Funding.sol\":1232:1253  manager == msg.sender */\n      0xffffffffffffffffffffffffffffffffffffffff\n      and\n        /* \"contracts/Crowd_Funding/Crowd_Funding.sol\":1232:1239  manager */\n      0x00\n      dup1\n      sload\n      swap1\n      0x0100\n      exp\n      swap1\n      div\n      0xffffffffffffffffffffffffffffffffffffffff\n      and\n        /* \"contracts/Crowd_Funding/Crowd_Funding.sol\":1232:1253  manager == msg.sender */\n      0xffffffffffffffffffffffffffffffffffffffff\n      and\n      eq\n        /* \"contracts/Crowd_Funding/Crowd_Funding.sol\":1224:1281  require(manager == msg.sender,\"Only manager can refund.\") */\n      tag_94\n      jumpi\n      mload(0x40)\n      0x08c379a000000000000000000000000000000000000000000000000000000000\n      dup2\n      mstore\n      0x04\n      add\n      tag_95\n      swap1\n      tag_96\n      jump\t// in\n    tag_95:\n      mload(0x40)\n      dup1\n      swap2\n      sub\n      swap1\n      revert\n    tag_94:\n        /* \"contracts/Crowd_Funding/Crowd_Funding.sol\":1318:1326  deadline */\n      sload(0x02)\n        /* \"contracts/Crowd_Funding/Crowd_Funding.sol\":1300:1315  block.timestamp */\n      timestamp\n        /* \"contracts/Crowd_Funding/Crowd_Funding.sol\":1300:1326  block.timestamp > deadline */\n      gt\n        /* \"contracts/Crowd_Funding/Crowd_Funding.sol\":1292:1358  require(block.timestamp > deadline,\"Deadline has not yet passed.\") */\n      tag_97\n      jumpi\n      mload(0x40)\n      0x08c379a000000000000000000000000000000000000000000000000000000000\n      dup2\n      mstore\n      0x04\n      add\n      tag_98\n      swap1\n      tag_99\n      jump\t// in\n    tag_98:\n      mload(0x40)\n      dup1\n      swap2\n      sub\n      swap1\n      revert\n    tag_97:\n        /* \"contracts/Crowd_Funding/Crowd_Funding.sol\":1386:1398  raisedAmount */\n      sload(0x04)\n        /* \"contracts/Crowd_Funding/Crowd_Funding.sol\":1377:1383  target */\n      sload(0x03)\n        /* \"contracts/Crowd_Funding/Crowd_Funding.sol\":1377:1398  target < raisedAmount */\n      lt\n        /* \"contracts/Crowd_Funding/Crowd_Funding.sol\":1369:1425  require(target < raisedAmount,\"Target has not met yet.\") */\n      tag_100\n      jumpi\n      mload(0x40)\n      0x08c379a000000000000000000000000000000000000000000000000000000000\n      dup2\n      mstore\n      0x04\n      add\n      tag_101\n      swap1\n      tag_89\n      jump\t// in\n    tag_101:\n      mload(0x40)\n      dup1\n      swap2\n      sub\n      swap1\n      revert\n    tag_100:\n        /* \"contracts/Crowd_Funding/Crowd_Funding.sol\":1442:1448  uint i */\n      0x00\n        /* \"contracts/Crowd_Funding/Crowd_Funding.sol\":1438:1566  for(uint i=0 ; i < noOfContributors ; i++)... */\n    tag_102:\n        /* \"contracts/Crowd_Funding/Crowd_Funding.sol\":1457:1473  noOfContributors */\n      sload(0x05)\n        /* \"contracts/Crowd_Funding/Crowd_Funding.sol\":1453:1454  i */\n      dup2\n        /* \"contracts/Crowd_Funding/Crowd_Funding.sol\":1453:1473  i < noOfContributors */\n      lt\n        /* \"contracts/Crowd_Funding/Crowd_Funding.sol\":1438:1566  for(uint i=0 ; i < noOfContributors ; i++)... */\n      iszero\n      tag_103\n      jumpi\n        /* \"contracts/Crowd_Funding/Crowd_Funding.sol\":1505:1514  addresses */\n      0x06\n        /* \"contracts/Crowd_Funding/Crowd_Funding.sol\":1515:1516  i */\n      dup2\n        /* \"contracts/Crowd_Funding/Crowd_Funding.sol\":1505:1517  addresses[i] */\n      dup2\n      sload\n      dup2\n      lt\n      tag_105\n      jumpi\n      tag_106\n      tag_107\n      jump\t// in\n    tag_106:\n    tag_105:\n      swap1\n      0x00\n      mstore\n      keccak256(0x00, 0x20)\n      add\n      0x00\n      swap1\n      sload\n      swap1\n      0x0100\n      exp\n      swap1\n      div\n      0xffffffffffffffffffffffffffffffffffffffff\n      and\n        /* \"contracts/Crowd_Funding/Crowd_Funding.sol\":1505:1526  addresses[i].transfer */\n      0xffffffffffffffffffffffffffffffffffffffff\n      and\n        /* \"contracts/Crowd_Funding/Crowd_Funding.sol\":1505:1554  addresses[i].transfer(contributors[addresses[i]]) */\n      0x08fc\n        /* \"contracts/Crowd_Funding/Crowd_Funding.sol\":1527:1539  contributors */\n      0x07\n        /* \"contracts/Crowd_Funding/Crowd_Funding.sol\":1527:1553  contributors[addresses[i]] */\n      0x00\n        /* \"contracts/Crowd_Funding/Crowd_Funding.sol\":1540:1549  addresses */\n      0x06\n        /* \"contracts/Crowd_Funding/Crowd_Funding.sol\":1550:1551  i */\n      dup6\n        /* \"contracts/Crowd_Funding/Crowd_Funding.sol\":1540:1552  addresses[i] */\n      dup2\n      sload\n      dup2\n      lt\n      tag_109\n      jumpi\n      tag_110\n      tag_107\n      jump\t// in\n    tag_110:\n    tag_109:\n      swap1\n      0x00\n      mstore\n      keccak256(0x00, 0x20)\n      add\n      0x00\n      swap1\n      sload\n      swap1\n      0x0100\n      exp\n      swap1\n      div\n      0xffffffffffffffffffffffffffffffffffffffff\n      and\n        /* \"contracts/Crowd_Funding/Crowd_Funding.sol\":1527:1553  contributors[addresses[i]] */\n      0xffffffffffffffffffffffffffffffffffffffff\n      and\n      0xffffffffffffffffffffffffffffffffffffffff\n      and\n      dup2\n      mstore\n      0x20\n      add\n      swap1\n      dup2\n      mstore\n      0x20\n      add\n      0x00\n      keccak256\n      sload\n        /* \"contracts/Crowd_Funding/Crowd_Funding.sol\":1505:1554  addresses[i].transfer(contributors[addresses[i]]) */\n      swap1\n      dup2\n      iszero\n      mul\n      swap1\n      mload(0x40)\n      0x00\n      mload(0x40)\n      dup1\n      dup4\n      sub\n      dup2\n      dup6\n      dup9\n      dup9\n      call\n      swap4\n      pop\n      pop\n      pop\n      pop\n      iszero\n      dup1\n      iszero\n      tag_113\n      jumpi\n      returndatasize\n      0x00\n      dup1\n      returndatacopy\n      revert(0x00, returndatasize)\n    tag_113:\n      pop\n        /* \"contracts/Crowd_Funding/Crowd_Funding.sol\":1476:1479  i++ */\n      dup1\n      dup1\n      tag_114\n      swap1\n      tag_75\n      jump\t// in\n    tag_114:\n      swap2\n      pop\n      pop\n        /* \"contracts/Crowd_Funding/Crowd_Funding.sol\":1438:1566  for(uint i=0 ; i < noOfContributors ; i++)... */\n      jump(tag_102)\n    tag_103:\n      pop\n        /* \"contracts/Crowd_Funding/Crowd_Funding.sol\":1183:1575  function refundToAll() public {... */\n      jump\t// out\n        /* \"contracts/Crowd_Funding/Crowd_Funding.sol\":273:307  address payable[] public addresses */\n    tag_63:\n      0x06\n      dup2\n      dup2\n      sload\n      dup2\n      lt\n      tag_115\n      jumpi\n      0x00\n      dup1\n      revert\n    tag_115:\n      swap1\n      0x00\n      mstore\n      keccak256(0x00, 0x20)\n      add\n      0x00\n      swap2\n      pop\n      sload\n      swap1\n      0x0100\n      exp\n      swap1\n      div\n      0xffffffffffffffffffffffffffffffffffffffff\n      and\n      dup2\n      jump\t// out\n        /* \"#utility.yul\":88:205   */\n    tag_118:\n        /* \"#utility.yul\":197:198   */\n      0x00\n        /* \"#utility.yul\":194:195   */\n      dup1\n        /* \"#utility.yul\":187:199   */\n      revert\n        /* \"#utility.yul\":334:460   */\n    tag_120:\n        /* \"#utility.yul\":371:378   */\n      0x00\n        /* \"#utility.yul\":411:453   */\n      0xffffffffffffffffffffffffffffffffffffffff\n        /* \"#utility.yul\":404:409   */\n      dup3\n        /* \"#utility.yul\":400:454   */\n      and\n        /* \"#utility.yul\":389:454   */\n      swap1\n      pop\n        /* \"#utility.yul\":334:460   */\n      swap2\n      swap1\n      pop\n      jump\t// out\n        /* \"#utility.yul\":466:562   */\n    tag_121:\n        /* \"#utility.yul\":503:510   */\n      0x00\n        /* \"#utility.yul\":532:556   */\n      tag_153\n        /* \"#utility.yul\":550:555   */\n      dup3\n        /* \"#utility.yul\":532:556   */\n      tag_120\n      jump\t// in\n    tag_153:\n        /* \"#utility.yul\":521:556   */\n      swap1\n      pop\n        /* \"#utility.yul\":466:562   */\n      swap2\n      swap1\n      pop\n      jump\t// out\n        /* \"#utility.yul\":568:690   */\n    tag_122:\n        /* \"#utility.yul\":641:665   */\n      tag_155\n        /* \"#utility.yul\":659:664   */\n      dup2\n        /* \"#utility.yul\":641:665   */\n      tag_121\n      jump\t// in\n    tag_155:\n        /* \"#utility.yul\":634:639   */\n      dup2\n        /* \"#utility.yul\":631:666   */\n      eq\n        /* \"#utility.yul\":621:684   */\n      tag_156\n      jumpi\n        /* \"#utility.yul\":680:681   */\n      0x00\n        /* \"#utility.yul\":677:678   */\n      dup1\n        /* \"#utility.yul\":670:682   */\n      revert\n        /* \"#utility.yul\":621:684   */\n    tag_156:\n        /* \"#utility.yul\":568:690   */\n      pop\n      jump\t// out\n        /* \"#utility.yul\":696:835   */\n    tag_123:\n        /* \"#utility.yul\":742:747   */\n      0x00\n        /* \"#utility.yul\":780:786   */\n      dup2\n        /* \"#utility.yul\":767:787   */\n      calldataload\n        /* \"#utility.yul\":758:787   */\n      swap1\n      pop\n        /* \"#utility.yul\":796:829   */\n      tag_158\n        /* \"#utility.yul\":823:828   */\n      dup2\n        /* \"#utility.yul\":796:829   */\n      tag_122\n      jump\t// in\n    tag_158:\n        /* \"#utility.yul\":696:835   */\n      swap3\n      swap2\n      pop\n      pop\n      jump\t// out\n        /* \"#utility.yul\":841:1170   */\n    tag_20:\n        /* \"#utility.yul\":900:906   */\n      0x00\n        /* \"#utility.yul\":949:951   */\n      0x20\n        /* \"#utility.yul\":937:946   */\n      dup3\n        /* \"#utility.yul\":928:935   */\n      dup5\n        /* \"#utility.yul\":924:947   */\n      sub\n        /* \"#utility.yul\":920:952   */\n      slt\n        /* \"#utility.yul\":917:1036   */\n      iszero\n      tag_160\n      jumpi\n        /* \"#utility.yul\":955:1034   */\n      tag_161\n      tag_118\n      jump\t// in\n    tag_161:\n        /* \"#utility.yul\":917:1036   */\n    tag_160:\n        /* \"#utility.yul\":1075:1076   */\n      0x00\n        /* \"#utility.yul\":1100:1153   */\n      tag_162\n        /* \"#utility.yul\":1145:1152   */\n      dup5\n        /* \"#utility.yul\":1136:1142   */\n      dup3\n        /* \"#utility.yul\":1125:1134   */\n      dup6\n        /* \"#utility.yul\":1121:1143   */\n      add\n        /* \"#utility.yul\":1100:1153   */\n      tag_123\n      jump\t// in\n    tag_162:\n        /* \"#utility.yul\":1090:1153   */\n      swap2\n      pop\n        /* \"#utility.yul\":1046:1163   */\n      pop\n        /* \"#utility.yul\":841:1170   */\n      swap3\n      swap2\n      pop\n      pop\n      jump\t// out\n        /* \"#utility.yul\":1176:1253   */\n    tag_124:\n        /* \"#utility.yul\":1213:1220   */\n      0x00\n        /* \"#utility.yul\":1242:1247   */\n      dup2\n        /* \"#utility.yul\":1231:1247   */\n      swap1\n      pop\n        /* \"#utility.yul\":1176:1253   */\n      swap2\n      swap1\n      pop\n      jump\t// out\n        /* \"#utility.yul\":1259:1377   */\n    tag_125:\n        /* \"#utility.yul\":1346:1370   */\n      tag_165\n        /* \"#utility.yul\":1364:1369   */\n      dup2\n        /* \"#utility.yul\":1346:1370   */\n      tag_124\n      jump\t// in\n    tag_165:\n        /* \"#utility.yul\":1341:1344   */\n      dup3\n        /* \"#utility.yul\":1334:1371   */\n      mstore\n        /* \"#utility.yul\":1259:1377   */\n      pop\n      pop\n      jump\t// out\n        /* \"#utility.yul\":1383:1605   */\n    tag_23:\n        /* \"#utility.yul\":1476:1480   */\n      0x00\n        /* \"#utility.yul\":1514:1516   */\n      0x20\n        /* \"#utility.yul\":1503:1512   */\n      dup3\n        /* \"#utility.yul\":1499:1517   */\n      add\n        /* \"#utility.yul\":1491:1517   */\n      swap1\n      pop\n        /* \"#utility.yul\":1527:1598   */\n      tag_167\n        /* \"#utility.yul\":1595:1596   */\n      0x00\n        /* \"#utility.yul\":1584:1593   */\n      dup4\n        /* \"#utility.yul\":1580:1597   */\n      add\n        /* \"#utility.yul\":1571:1577   */\n      dup5\n        /* \"#utility.yul\":1527:1598   */\n      tag_125\n      jump\t// in\n    tag_167:\n        /* \"#utility.yul\":1383:1605   */\n      swap3\n      swap2\n      pop\n      pop\n      jump\t// out\n        /* \"#utility.yul\":1611:1729   */\n    tag_126:\n        /* \"#utility.yul\":1698:1722   */\n      tag_169\n        /* \"#utility.yul\":1716:1721   */\n      dup2\n        /* \"#utility.yul\":1698:1722   */\n      tag_121\n      jump\t// in\n    tag_169:\n        /* \"#utility.yul\":1693:1696   */\n      dup3\n        /* \"#utility.yul\":1686:1723   */\n      mstore\n        /* \"#utility.yul\":1611:1729   */\n      pop\n      pop\n      jump\t// out\n        /* \"#utility.yul\":1735:1957   */\n    tag_32:\n        /* \"#utility.yul\":1828:1832   */\n      0x00\n        /* \"#utility.yul\":1866:1868   */\n      0x20\n        /* \"#utility.yul\":1855:1864   */\n      dup3\n        /* \"#utility.yul\":1851:1869   */\n      add\n        /* \"#utility.yul\":1843:1869   */\n      swap1\n      pop\n        /* \"#utility.yul\":1879:1950   */\n      tag_171\n        /* \"#utility.yul\":1947:1948   */\n      0x00\n        /* \"#utility.yul\":1936:1945   */\n      dup4\n        /* \"#utility.yul\":1932:1949   */\n      add\n        /* \"#utility.yul\":1923:1929   */\n      dup5\n        /* \"#utility.yul\":1879:1950   */\n      tag_126\n      jump\t// in\n    tag_171:\n        /* \"#utility.yul\":1735:1957   */\n      swap3\n      swap2\n      pop\n      pop\n      jump\t// out\n        /* \"#utility.yul\":1963:2085   */\n    tag_127:\n        /* \"#utility.yul\":2036:2060   */\n      tag_173\n        /* \"#utility.yul\":2054:2059   */\n      dup2\n        /* \"#utility.yul\":2036:2060   */\n      tag_124\n      jump\t// in\n    tag_173:\n        /* \"#utility.yul\":2029:2034   */\n      dup2\n        /* \"#utility.yul\":2026:2061   */\n      eq\n        /* \"#utility.yul\":2016:2079   */\n      tag_174\n      jumpi\n        /* \"#utility.yul\":2075:2076   */\n      0x00\n        /* \"#utility.yul\":2072:2073   */\n      dup1\n        /* \"#utility.yul\":2065:2077   */\n      revert\n        /* \"#utility.yul\":2016:2079   */\n    tag_174:\n        /* \"#utility.yul\":1963:2085   */\n      pop\n      jump\t// out\n        /* \"#utility.yul\":2091:2230   */\n    tag_128:\n        /* \"#utility.yul\":2137:2142   */\n      0x00\n        /* \"#utility.yul\":2175:2181   */\n      dup2\n        /* \"#utility.yul\":2162:2182   */\n      calldataload\n        /* \"#utility.yul\":2153:2182   */\n      swap1\n      pop\n        /* \"#utility.yul\":2191:2224   */\n      tag_176\n        /* \"#utility.yul\":2218:2223   */\n      dup2\n        /* \"#utility.yul\":2191:2224   */\n      tag_127\n      jump\t// in\n    tag_176:\n        /* \"#utility.yul\":2091:2230   */\n      swap3\n      swap2\n      pop\n      pop\n      jump\t// out\n        /* \"#utility.yul\":2236:2565   */\n    tag_62:\n        /* \"#utility.yul\":2295:2301   */\n      0x00\n        /* \"#utility.yul\":2344:2346   */\n      0x20\n        /* \"#utility.yul\":2332:2341   */\n      dup3\n        /* \"#utility.yul\":2323:2330   */\n      dup5\n        /* \"#utility.yul\":2319:2342   */\n      sub\n        /* \"#utility.yul\":2315:2347   */\n      slt\n        /* \"#utility.yul\":2312:2431   */\n      iszero\n      tag_178\n      jumpi\n        /* \"#utility.yul\":2350:2429   */\n      tag_179\n      tag_118\n      jump\t// in\n    tag_179:\n        /* \"#utility.yul\":2312:2431   */\n    tag_178:\n        /* \"#utility.yul\":2470:2471   */\n      0x00\n        /* \"#utility.yul\":2495:2548   */\n      tag_180\n        /* \"#utility.yul\":2540:2547   */\n      dup5\n        /* \"#utility.yul\":2531:2537   */\n      dup3\n        /* \"#utility.yul\":2520:2529   */\n      dup6\n        /* \"#utility.yul\":2516:2538   */\n      add\n        /* \"#utility.yul\":2495:2548   */\n      tag_128\n      jump\t// in\n    tag_180:\n        /* \"#utility.yul\":2485:2548   */\n      swap2\n      pop\n        /* \"#utility.yul\":2441:2558   */\n      pop\n        /* \"#utility.yul\":2236:2565   */\n      swap3\n      swap2\n      pop\n      pop\n      jump\t// out\n        /* \"#utility.yul\":2571:2675   */\n    tag_129:\n        /* \"#utility.yul\":2616:2623   */\n      0x00\n        /* \"#utility.yul\":2645:2669   */\n      tag_182\n        /* \"#utility.yul\":2663:2668   */\n      dup3\n        /* \"#utility.yul\":2645:2669   */\n      tag_120\n      jump\t// in\n    tag_182:\n        /* \"#utility.yul\":2634:2669   */\n      swap1\n      pop\n        /* \"#utility.yul\":2571:2675   */\n      swap2\n      swap1\n      pop\n      jump\t// out\n        /* \"#utility.yul\":2681:2823   */\n    tag_130:\n        /* \"#utility.yul\":2784:2816   */\n      tag_184\n        /* \"#utility.yul\":2810:2815   */\n      dup2\n        /* \"#utility.yul\":2784:2816   */\n      tag_129\n      jump\t// in\n    tag_184:\n        /* \"#utility.yul\":2779:2782   */\n      dup3\n        /* \"#utility.yul\":2772:2817   */\n      mstore\n        /* \"#utility.yul\":2681:2823   */\n      pop\n      pop\n      jump\t// out\n        /* \"#utility.yul\":2829:3083   */\n    tag_65:\n        /* \"#utility.yul\":2938:2942   */\n      0x00\n        /* \"#utility.yul\":2976:2978   */\n      0x20\n        /* \"#utility.yul\":2965:2974   */\n      dup3\n        /* \"#utility.yul\":2961:2979   */\n      add\n        /* \"#utility.yul\":2953:2979   */\n      swap1\n      pop\n        /* \"#utility.yul\":2989:3076   */\n      tag_186\n        /* \"#utility.yul\":3073:3074   */\n      0x00\n        /* \"#utility.yul\":3062:3071   */\n      dup4\n        /* \"#utility.yul\":3058:3075   */\n      add\n        /* \"#utility.yul\":3049:3055   */\n      dup5\n        /* \"#utility.yul\":2989:3076   */\n      tag_130\n      jump\t// in\n    tag_186:\n        /* \"#utility.yul\":2829:3083   */\n      swap3\n      swap2\n      pop\n      pop\n      jump\t// out\n        /* \"#utility.yul\":3089:3258   */\n    tag_131:\n        /* \"#utility.yul\":3173:3184   */\n      0x00\n        /* \"#utility.yul\":3207:3213   */\n      dup3\n        /* \"#utility.yul\":3202:3205   */\n      dup3\n        /* \"#utility.yul\":3195:3214   */\n      mstore\n        /* \"#utility.yul\":3247:3251   */\n      0x20\n        /* \"#utility.yul\":3242:3245   */\n      dup3\n        /* \"#utility.yul\":3238:3252   */\n      add\n        /* \"#utility.yul\":3223:3252   */\n      swap1\n      pop\n        /* \"#utility.yul\":3089:3258   */\n      swap3\n      swap2\n      pop\n      pop\n      jump\t// out\n        /* \"#utility.yul\":3264:3433   */\n    tag_132:\n        /* \"#utility.yul\":3404:3425   */\n      0x446561646c696e65206861732070617373656400000000000000000000000000\n        /* \"#utility.yul\":3400:3401   */\n      0x00\n        /* \"#utility.yul\":3392:3398   */\n      dup3\n        /* \"#utility.yul\":3388:3402   */\n      add\n        /* \"#utility.yul\":3381:3426   */\n      mstore\n        /* \"#utility.yul\":3264:3433   */\n      pop\n      jump\t// out\n        /* \"#utility.yul\":3439:3805   */\n    tag_133:\n        /* \"#utility.yul\":3581:3584   */\n      0x00\n        /* \"#utility.yul\":3602:3669   */\n      tag_190\n        /* \"#utility.yul\":3666:3668   */\n      0x13\n        /* \"#utility.yul\":3661:3664   */\n      dup4\n        /* \"#utility.yul\":3602:3669   */\n      tag_131\n      jump\t// in\n    tag_190:\n        /* \"#utility.yul\":3595:3669   */\n      swap2\n      pop\n        /* \"#utility.yul\":3678:3771   */\n      tag_191\n        /* \"#utility.yul\":3767:3770   */\n      dup3\n        /* \"#utility.yul\":3678:3771   */\n      tag_132\n      jump\t// in\n    tag_191:\n        /* \"#utility.yul\":3796:3798   */\n      0x20\n        /* \"#utility.yul\":3791:3794   */\n      dup3\n        /* \"#utility.yul\":3787:3799   */\n      add\n        /* \"#utility.yul\":3780:3799   */\n      swap1\n      pop\n        /* \"#utility.yul\":3439:3805   */\n      swap2\n      swap1\n      pop\n      jump\t// out\n        /* \"#utility.yul\":3811:4230   */\n    tag_69:\n        /* \"#utility.yul\":3977:3981   */\n      0x00\n        /* \"#utility.yul\":4015:4017   */\n      0x20\n        /* \"#utility.yul\":4004:4013   */\n      dup3\n        /* \"#utility.yul\":4000:4018   */\n      add\n        /* \"#utility.yul\":3992:4018   */\n      swap1\n      pop\n        /* \"#utility.yul\":4064:4073   */\n      dup2\n        /* \"#utility.yul\":4058:4062   */\n      dup2\n        /* \"#utility.yul\":4054:4074   */\n      sub\n        /* \"#utility.yul\":4050:4051   */\n      0x00\n        /* \"#utility.yul\":4039:4048   */\n      dup4\n        /* \"#utility.yul\":4035:4052   */\n      add\n        /* \"#utility.yul\":4028:4075   */\n      mstore\n        /* \"#utility.yul\":4092:4223   */\n      tag_193\n        /* \"#utility.yul\":4218:4222   */\n      dup2\n        /* \"#utility.yul\":4092:4223   */\n      tag_133\n      jump\t// in\n    tag_193:\n        /* \"#utility.yul\":4084:4223   */\n      swap1\n      pop\n        /* \"#utility.yul\":3811:4230   */\n      swap2\n      swap1\n      pop\n      jump\t// out\n        /* \"#utility.yul\":4236:4418   */\n    tag_134:\n        /* \"#utility.yul\":4376:4410   */\n      0x4d696e696d756d20636f6e747269627574696f6e20686173206e6f74206d6574\n        /* \"#utility.yul\":4372:4373   */\n      0x00\n        /* \"#utility.yul\":4364:4370   */\n      dup3\n        /* \"#utility.yul\":4360:4374   */\n      add\n        /* \"#utility.yul\":4353:4411   */\n      mstore\n        /* \"#utility.yul\":4236:4418   */\n      pop\n      jump\t// out\n        /* \"#utility.yul\":4424:4790   */\n    tag_135:\n        /* \"#utility.yul\":4566:4569   */\n      0x00\n        /* \"#utility.yul\":4587:4654   */\n      tag_196\n        /* \"#utility.yul\":4651:4653   */\n      0x20\n        /* \"#utility.yul\":4646:4649   */\n      dup4\n        /* \"#utility.yul\":4587:4654   */\n      tag_131\n      jump\t// in\n    tag_196:\n        /* \"#utility.yul\":4580:4654   */\n      swap2\n      pop\n        /* \"#utility.yul\":4663:4756   */\n      tag_197\n        /* \"#utility.yul\":4752:4755   */\n      dup3\n        /* \"#utility.yul\":4663:4756   */\n      tag_134\n      jump\t// in\n    tag_197:\n        /* \"#utility.yul\":4781:4783   */\n      0x20\n        /* \"#utility.yul\":4776:4779   */\n      dup3\n        /* \"#utility.yul\":4772:4784   */\n      add\n        /* \"#utility.yul\":4765:4784   */\n      swap1\n      pop\n        /* \"#utility.yul\":4424:4790   */\n      swap2\n      swap1\n      pop\n      jump\t// out\n        /* \"#utility.yul\":4796:5215   */\n    tag_72:\n        /* \"#utility.yul\":4962:4966   */\n      0x00\n        /* \"#utility.yul\":5000:5002   */\n      0x20\n        /* \"#utility.yul\":4989:4998   */\n      dup3\n        /* \"#utility.yul\":4985:5003   */\n      add\n        /* \"#utility.yul\":4977:5003   */\n      swap1\n      pop\n        /* \"#utility.yul\":5049:5058   */\n      dup2\n        /* \"#utility.yul\":5043:5047   */\n      dup2\n        /* \"#utility.yul\":5039:5059   */\n      sub\n        /* \"#utility.yul\":5035:5036   */\n      0x00\n        /* \"#utility.yul\":5024:5033   */\n      dup4\n        /* \"#utility.yul\":5020:5037   */\n      add\n        /* \"#utility.yul\":5013:5060   */\n      mstore\n        /* \"#utility.yul\":5077:5208   */\n      tag_199\n        /* \"#utility.yul\":5203:5207   */\n      dup2\n        /* \"#utility.yul\":5077:5208   */\n      tag_135\n      jump\t// in\n    tag_199:\n        /* \"#utility.yul\":5069:5208   */\n      swap1\n      pop\n        /* \"#utility.yul\":4796:5215   */\n      swap2\n      swap1\n      pop\n      jump\t// out\n        /* \"#utility.yul\":5221:5401   */\n    tag_136:\n        /* \"#utility.yul\":5269:5346   */\n      0x4e487b7100000000000000000000000000000000000000000000000000000000\n        /* \"#utility.yul\":5266:5267   */\n      0x00\n        /* \"#utility.yul\":5259:5347   */\n      mstore\n        /* \"#utility.yul\":5366:5370   */\n      0x11\n        /* \"#utility.yul\":5363:5364   */\n      0x04\n        /* \"#utility.yul\":5356:5371   */\n      mstore\n        /* \"#utility.yul\":5390:5394   */\n      0x24\n        /* \"#utility.yul\":5387:5388   */\n      0x00\n        /* \"#utility.yul\":5380:5395   */\n      revert\n        /* \"#utility.yul\":5407:5640   */\n    tag_75:\n        /* \"#utility.yul\":5446:5449   */\n      0x00\n        /* \"#utility.yul\":5469:5493   */\n      tag_202\n        /* \"#utility.yul\":5487:5492   */\n      dup3\n        /* \"#utility.yul\":5469:5493   */\n      tag_124\n      jump\t// in\n    tag_202:\n        /* \"#utility.yul\":5460:5493   */\n      swap2\n      pop\n        /* \"#utility.yul\":5515:5581   */\n      0xffffffffffffffffffffffffffffffffffffffffffffffffffffffffffffffff\n        /* \"#utility.yul\":5508:5513   */\n      dup3\n        /* \"#utility.yul\":5505:5582   */\n      sub\n        /* \"#utility.yul\":5502:5605   */\n      tag_203\n      jumpi\n        /* \"#utility.yul\":5585:5603   */\n      tag_204\n      tag_136\n      jump\t// in\n    tag_204:\n        /* \"#utility.yul\":5502:5605   */\n    tag_203:\n        /* \"#utility.yul\":5632:5633   */\n      0x01\n        /* \"#utility.yul\":5625:5630   */\n      dup3\n        /* \"#utility.yul\":5621:5634   */\n      add\n        /* \"#utility.yul\":5614:5634   */\n      swap1\n      pop\n        /* \"#utility.yul\":5407:5640   */\n      swap2\n      swap1\n      pop\n      jump\t// out\n        /* \"#utility.yul\":5646:5951   */\n    tag_78:\n        /* \"#utility.yul\":5686:5689   */\n      0x00\n        /* \"#utility.yul\":5705:5725   */\n      tag_206\n        /* \"#utility.yul\":5723:5724   */\n      dup3\n        /* \"#utility.yul\":5705:5725   */\n      tag_124\n      jump\t// in\n    tag_206:\n        /* \"#utility.yul\":5700:5725   */\n      swap2\n      pop\n        /* \"#utility.yul\":5739:5759   */\n      tag_207\n        /* \"#utility.yul\":5757:5758   */\n      dup4\n        /* \"#utility.yul\":5739:5759   */\n      tag_124\n      jump\t// in\n    tag_207:\n        /* \"#utility.yul\":5734:5759   */\n      swap3\n      pop\n        /* \"#utility.yul\":5893:5894   */\n      dup3\n        /* \"#utility.yul\":5825:5891   */\n      0xffffffffffffffffffffffffffffffffffffffffffffffffffffffffffffffff\n        /* \"#utility.yul\":5821:5895   */\n      sub\n        /* \"#utility.yul\":5818:5819   */\n      dup3\n        /* \"#utility.yul\":5815:5896   */\n      gt\n        /* \"#utility.yul\":5812:5919   */\n      iszero\n      tag_208\n      jumpi\n        /* \"#utility.yul\":5899:5917   */\n      tag_209\n      tag_136\n      jump\t// in\n    tag_209:\n        /* \"#utility.yul\":5812:5919   */\n    tag_208:\n        /* \"#utility.yul\":5943:5944   */\n      dup3\n        /* \"#utility.yul\":5940:5941   */\n      dup3\n        /* \"#utility.yul\":5936:5945   */\n      add\n        /* \"#utility.yul\":5929:5945   */\n      swap1\n      pop\n        /* \"#utility.yul\":5646:5951   */\n      swap3\n      swap2\n      pop\n      pop\n      jump\t// out\n        /* \"#utility.yul\":5957:6134   */\n    tag_137:\n        /* \"#utility.yul\":6097:6126   */\n      0x446561646c696e6520686173206e6f7420796574207061737365640000000000\n        /* \"#utility.yul\":6093:6094   */\n      0x00\n        /* \"#utility.yul\":6085:6091   */\n      dup3\n        /* \"#utility.yul\":6081:6095   */\n      add\n        /* \"#utility.yul\":6074:6127   */\n      mstore\n        /* \"#utility.yul\":5957:6134   */\n      pop\n      jump\t// out\n        /* \"#utility.yul\":6140:6506   */\n    tag_138:\n        /* \"#utility.yul\":6282:6285   */\n      0x00\n        /* \"#utility.yul\":6303:6370   */\n      tag_212\n        /* \"#utility.yul\":6367:6369   */\n      0x1b\n        /* \"#utility.yul\":6362:6365   */\n      dup4\n        /* \"#utility.yul\":6303:6370   */\n      tag_131\n      jump\t// in\n    tag_212:\n        /* \"#utility.yul\":6296:6370   */\n      swap2\n      pop\n        /* \"#utility.yul\":6379:6472   */\n      tag_213\n        /* \"#utility.yul\":6468:6471   */\n      dup3\n        /* \"#utility.yul\":6379:6472   */\n      tag_137\n      jump\t// in\n    tag_213:\n        /* \"#utility.yul\":6497:6499   */\n      0x20\n        /* \"#utility.yul\":6492:6495   */\n      dup3\n        /* \"#utility.yul\":6488:6500   */\n      add\n        /* \"#utility.yul\":6481:6500   */\n      swap1\n      pop\n        /* \"#utility.yul\":6140:6506   */\n      swap2\n      swap1\n      pop\n      jump\t// out\n        /* \"#utility.yul\":6512:6931   */\n    tag_83:\n        /* \"#utility.yul\":6678:6682   */\n      0x00\n        /* \"#utility.yul\":6716:6718   */\n      0x20\n        /* \"#utility.yul\":6705:6714   */\n      dup3\n        /* \"#utility.yul\":6701:6719   */\n      add\n        /* \"#utility.yul\":6693:6719   */\n      swap1\n      pop\n        /* \"#utility.yul\":6765:6774   */\n      dup2\n        /* \"#utility.yul\":6759:6763   */\n      dup2\n        /* \"#utility.yul\":6755:6775   */\n      sub\n        /* \"#utility.yul\":6751:6752   */\n      0x00\n        /* \"#utility.yul\":6740:6749   */\n      dup4\n        /* \"#utility.yul\":6736:6753   */\n      add\n        /* \"#utility.yul\":6729:6776   */\n      mstore\n        /* \"#utility.yul\":6793:6924   */\n      tag_215\n        /* \"#utility.yul\":6919:6923   */\n      dup2\n        /* \"#utility.yul\":6793:6924   */\n      tag_138\n      jump\t// in\n    tag_215:\n        /* \"#utility.yul\":6785:6924   */\n      swap1\n      pop\n        /* \"#utility.yul\":6512:6931   */\n      swap2\n      swap1\n      pop\n      jump\t// out\n        /* \"#utility.yul\":6937:7111   */\n    tag_139:\n        /* \"#utility.yul\":7077:7103   */\n      0x596f752068617665206e6f7420636f6e74726962757465640000000000000000\n        /* \"#utility.yul\":7073:7074   */\n      0x00\n        /* \"#utility.yul\":7065:7071   */\n      dup3\n        /* \"#utility.yul\":7061:7075   */\n      add\n        /* \"#utility.yul\":7054:7104   */\n      mstore\n        /* \"#utility.yul\":6937:7111   */\n      pop\n      jump\t// out\n        /* \"#utility.yul\":7117:7483   */\n    tag_140:\n        /* \"#utility.yul\":7259:7262   */\n      0x00\n        /* \"#utility.yul\":7280:7347   */\n      tag_218\n        /* \"#utility.yul\":7344:7346   */\n      0x18\n        /* \"#utility.yul\":7339:7342   */\n      dup4\n        /* \"#utility.yul\":7280:7347   */\n      tag_131\n      jump\t// in\n    tag_218:\n        /* \"#utility.yul\":7273:7347   */\n      swap2\n      pop\n        /* \"#utility.yul\":7356:7449   */\n      tag_219\n        /* \"#utility.yul\":7445:7448   */\n      dup3\n        /* \"#utility.yul\":7356:7449   */\n      tag_139\n      jump\t// in\n    tag_219:\n        /* \"#utility.yul\":7474:7476   */\n      0x20\n        /* \"#utility.yul\":7469:7472   */\n      dup3\n        /* \"#utility.yul\":7465:7477   */\n      add\n        /* \"#utility.yul\":7458:7477   */\n      swap1\n      pop\n        /* \"#utility.yul\":7117:7483   */\n      swap2\n      swap1\n      pop\n      jump\t// out\n        /* \"#utility.yul\":7489:7908   */\n    tag_86:\n        /* \"#utility.yul\":7655:7659   */\n      0x00\n        /* \"#utility.yul\":7693:7695   */\n      0x20\n        /* \"#utility.yul\":7682:7691   */\n      dup3\n        /* \"#utility.yul\":7678:7696   */\n      add\n        /* \"#utility.yul\":7670:7696   */\n      swap1\n      pop\n        /* \"#utility.yul\":7742:7751   */\n      dup2\n        /* \"#utility.yul\":7736:7740   */\n      dup2\n        /* \"#utility.yul\":7732:7752   */\n      sub\n        /* \"#utility.yul\":7728:7729   */\n      0x00\n        /* \"#utility.yul\":7717:7726   */\n      dup4\n        /* \"#utility.yul\":7713:7730   */\n      add\n        /* \"#utility.yul\":7706:7753   */\n      mstore\n        /* \"#utility.yul\":7770:7901   */\n      tag_221\n        /* \"#utility.yul\":7896:7900   */\n      dup2\n        /* \"#utility.yul\":7770:7901   */\n      tag_140\n      jump\t// in\n    tag_221:\n        /* \"#utility.yul\":7762:7901   */\n      swap1\n      pop\n        /* \"#utility.yul\":7489:7908   */\n      swap2\n      swap1\n      pop\n      jump\t// out\n        /* \"#utility.yul\":7914:8087   */\n    tag_141:\n        /* \"#utility.yul\":8054:8079   */\n      0x54617267657420686173206e6f74206d6574207965742e000000000000000000\n        /* \"#utility.yul\":8050:8051   */\n      0x00\n        /* \"#utility.yul\":8042:8048   */\n      dup3\n        /* \"#utility.yul\":8038:8052   */\n      add\n        /* \"#utility.yul\":8031:8080   */\n      mstore\n        /* \"#utility.yul\":7914:8087   */\n      pop\n      jump\t// out\n        /* \"#utility.yul\":8093:8459   */\n    tag_142:\n        /* \"#utility.yul\":8235:8238   */\n      0x00\n        /* \"#utility.yul\":8256:8323   */\n      tag_224\n        /* \"#utility.yul\":8320:8322   */\n      0x17\n        /* \"#utility.yul\":8315:8318   */\n      dup4\n        /* \"#utility.yul\":8256:8323   */\n      tag_131\n      jump\t// in\n    tag_224:\n        /* \"#utility.yul\":8249:8323   */\n      swap2\n      pop\n        /* \"#utility.yul\":8332:8425   */\n      tag_225\n        /* \"#utility.yul\":8421:8424   */\n      dup3\n        /* \"#utility.yul\":8332:8425   */\n      tag_141\n      jump\t// in\n    tag_225:\n        /* \"#utility.yul\":8450:8452   */\n      0x20\n        /* \"#utility.yul\":8445:8448   */\n      dup3\n        /* \"#utility.yul\":8441:8453   */\n      add\n        /* \"#utility.yul\":8434:8453   */\n      swap1\n      pop\n        /* \"#utility.yul\":8093:8459   */\n      swap2\n      swap1\n      pop\n      jump\t// out\n        /* \"#utility.yul\":8465:8884   */\n    tag_89:\n        /* \"#utility.yul\":8631:8635   */\n      0x00\n        /* \"#utility.yul\":8669:8671   */\n      0x20\n        /* \"#utility.yul\":8658:8667   */\n      dup3\n        /* \"#utility.yul\":8654:8672   */\n      add\n        /* \"#utility.yul\":8646:8672   */\n      swap1\n      pop\n        /* \"#utility.yul\":8718:8727   */\n      dup2\n        /* \"#utility.yul\":8712:8716   */\n      dup2\n        /* \"#utility.yul\":8708:8728   */\n      sub\n        /* \"#utility.yul\":8704:8705   */\n      0x00\n        /* \"#utility.yul\":8693:8702   */\n      dup4\n        /* \"#utility.yul\":8689:8706   */\n      add\n        /* \"#utility.yul\":8682:8729   */\n      mstore\n        /* \"#utility.yul\":8746:8877   */\n      tag_227\n        /* \"#utility.yul\":8872:8876   */\n      dup2\n        /* \"#utility.yul\":8746:8877   */\n      tag_142\n      jump\t// in\n    tag_227:\n        /* \"#utility.yul\":8738:8877   */\n      swap1\n      pop\n        /* \"#utility.yul\":8465:8884   */\n      swap2\n      swap1\n      pop\n      jump\t// out\n        /* \"#utility.yul\":8890:9064   */\n    tag_143:\n        /* \"#utility.yul\":9030:9056   */\n      0x4f6e6c79206d616e616765722063616e20726566756e642e0000000000000000\n        /* \"#utility.yul\":9026:9027   */\n      0x00\n        /* \"#utility.yul\":9018:9024   */\n      dup3\n        /* \"#utility.yul\":9014:9028   */\n      add\n        /* \"#utility.yul\":9007:9057   */\n      mstore\n        /* \"#utility.yul\":8890:9064   */\n      pop\n      jump\t// out\n        /* \"#utility.yul\":9070:9436   */\n    tag_144:\n        /* \"#utility.yul\":9212:9215   */\n      0x00\n        /* \"#utility.yul\":9233:9300   */\n      tag_230\n        /* \"#utility.yul\":9297:9299   */\n      0x18\n        /* \"#utility.yul\":9292:9295   */\n      dup4\n        /* \"#utility.yul\":9233:9300   */\n      tag_131\n      jump\t// in\n    tag_230:\n        /* \"#utility.yul\":9226:9300   */\n      swap2\n      pop\n        /* \"#utility.yul\":9309:9402   */\n      tag_231\n        /* \"#utility.yul\":9398:9401   */\n      dup3\n        /* \"#utility.yul\":9309:9402   */\n      tag_143\n      jump\t// in\n    tag_231:\n        /* \"#utility.yul\":9427:9429   */\n      0x20\n        /* \"#utility.yul\":9422:9425   */\n      dup3\n        /* \"#utility.yul\":9418:9430   */\n      add\n        /* \"#utility.yul\":9411:9430   */\n      swap1\n      pop\n        /* \"#utility.yul\":9070:9436   */\n      swap2\n      swap1\n      pop\n      jump\t// out\n        /* \"#utility.yul\":9442:9861   */\n    tag_96:\n        /* \"#utility.yul\":9608:9612   */\n      0x00\n        /* \"#utility.yul\":9646:9648   */\n      0x20\n        /* \"#utility.yul\":9635:9644   */\n      dup3\n        /* \"#utility.yul\":9631:9649   */\n      add\n        /* \"#utility.yul\":9623:9649   */\n      swap1\n      pop\n        /* \"#utility.yul\":9695:9704   */\n      dup2\n        /* \"#utility.yul\":9689:9693   */\n      dup2\n        /* \"#utility.yul\":9685:9705   */\n      sub\n        /* \"#utility.yul\":9681:9682   */\n      0x00\n        /* \"#utility.yul\":9670:9679   */\n      dup4\n        /* \"#utility.yul\":9666:9683   */\n      add\n        /* \"#utility.yul\":9659:9706   */\n      mstore\n        /* \"#utility.yul\":9723:9854   */\n      tag_233\n        /* \"#utility.yul\":9849:9853   */\n      dup2\n        /* \"#utility.yul\":9723:9854   */\n      tag_144\n      jump\t// in\n    tag_233:\n        /* \"#utility.yul\":9715:9854   */\n      swap1\n      pop\n        /* \"#utility.yul\":9442:9861   */\n      swap2\n      swap1\n      pop\n      jump\t// out\n        /* \"#utility.yul\":9867:10045   */\n    tag_145:\n        /* \"#utility.yul\":10007:10037   */\n      0x446561646c696e6520686173206e6f7420796574207061737365642e00000000\n        /* \"#utility.yul\":10003:10004   */\n      0x00\n        /* \"#utility.yul\":9995:10001   */\n      dup3\n        /* \"#utility.yul\":9991:10005   */\n      add\n        /* \"#utility.yul\":9984:10038   */\n      mstore\n        /* \"#utility.yul\":9867:10045   */\n      pop\n      jump\t// out\n        /* \"#utility.yul\":10051:10417   */\n    tag_146:\n        /* \"#utility.yul\":10193:10196   */\n      0x00\n        /* \"#utility.yul\":10214:10281   */\n      tag_236\n        /* \"#utility.yul\":10278:10280   */\n      0x1c\n        /* \"#utility.yul\":10273:10276   */\n      dup4\n        /* \"#utility.yul\":10214:10281   */\n      tag_131\n      jump\t// in\n    tag_236:\n        /* \"#utility.yul\":10207:10281   */\n      swap2\n      pop\n        /* \"#utility.yul\":10290:10383   */\n      tag_237\n        /* \"#utility.yul\":10379:10382   */\n      dup3\n        /* \"#utility.yul\":10290:10383   */\n      tag_145\n      jump\t// in\n    tag_237:\n        /* \"#utility.yul\":10408:10410   */\n      0x20\n        /* \"#utility.yul\":10403:10406   */\n      dup3\n        /* \"#utility.yul\":10399:10411   */\n      add\n        /* \"#utility.yul\":10392:10411   */\n      swap1\n      pop\n        /* \"#utility.yul\":10051:10417   */\n      swap2\n      swap1\n      pop\n      jump\t// out\n        /* \"#utility.yul\":10423:10842   */\n    tag_99:\n        /* \"#utility.yul\":10589:10593   */\n      0x00\n        /* \"#utility.yul\":10627:10629   */\n      0x20\n        /* \"#utility.yul\":10616:10625   */\n      dup3\n        /* \"#utility.yul\":10612:10630   */\n      add\n        /* \"#utility.yul\":10604:10630   */\n      swap1\n      pop\n        /* \"#utility.yul\":10676:10685   */\n      dup2\n        /* \"#utility.yul\":10670:10674   */\n      dup2\n        /* \"#utility.yul\":10666:10686   */\n      sub\n        /* \"#utility.yul\":10662:10663   */\n      0x00\n        /* \"#utility.yul\":10651:10660   */\n      dup4\n        /* \"#utility.yul\":10647:10664   */\n      add\n        /* \"#utility.yul\":10640:10687   */\n      mstore\n        /* \"#utility.yul\":10704:10835   */\n      tag_239\n        /* \"#utility.yul\":10830:10834   */\n      dup2\n        /* \"#utility.yul\":10704:10835   */\n      tag_146\n      jump\t// in\n    tag_239:\n        /* \"#utility.yul\":10696:10835   */\n      swap1\n      pop\n        /* \"#utility.yul\":10423:10842   */\n      swap2\n      swap1\n      pop\n      jump\t// out\n        /* \"#utility.yul\":10848:11028   */\n    tag_107:\n        /* \"#utility.yul\":10896:10973   */\n      0x4e487b7100000000000000000000000000000000000000000000000000000000\n        /* \"#utility.yul\":10893:10894   */\n      0x00\n        /* \"#utility.yul\":10886:10974   */\n      mstore\n        /* \"#utility.yul\":10993:10997   */\n      0x32\n        /* \"#utility.yul\":10990:10991   */\n      0x04\n        /* \"#utility.yul\":10983:10998   */\n      mstore\n        /* \"#utility.yul\":11017:11021   */\n      0x24\n        /* \"#utility.yul\":11014:11015   */\n      0x00\n        /* \"#utility.yul\":11007:11022   */\n      revert\n\n    auxdata: 0xa2646970667358221220826defb56fdeb122d7290d25fab36fe8c05f2ccc857e10a45eea68804009559564736f6c634300080d0033\n}\n",
				"bytecode": {
					"linkReferences": {},
					"object": "60806040523480156200001157600080fd5b5060405162001054380380620010548339818101604052810190620000379190620000e2565b8260038190555081426200004c91906200016d565b60028190555080600181905550336000806101000a81548173ffffffffffffffffffffffffffffffffffffffff021916908373ffffffffffffffffffffffffffffffffffffffff160217905550505050620001ca565b600080fd5b6000819050919050565b620000bc81620000a7565b8114620000c857600080fd5b50565b600081519050620000dc81620000b1565b92915050565b600080600060608486031215620000fe57620000fd620000a2565b5b60006200010e86828701620000cb565b93505060206200012186828701620000cb565b92505060406200013486828701620000cb565b9150509250925092565b7f4e487b7100000000000000000000000000000000000000000000000000000000600052601160045260246000fd5b60006200017a82620000a7565b91506200018783620000a7565b9250827fffffffffffffffffffffffffffffffffffffffffffffffffffffffffffffffff03821115620001bf57620001be6200013e565b5b828201905092915050565b610e7a80620001da6000396000f3fe6080604052600436106100a75760003560e01c80636f9fb98a116100645780636f9fb98a1461018b578063937e09b1146101b6578063c59ee1dc146101e1578063d4b839921461020c578063dbddd8db14610237578063edf26d9b1461024e576100a7565b806306e99fef146100ac5780631f6d4942146100b657806329dcb0cf146100f3578063481c6a751461011e5780634e260f6f14610149578063590e1ae314610174575b600080fd5b6100b461028b565b005b3480156100c257600080fd5b506100dd60048036038101906100d89190610923565b610448565b6040516100ea9190610969565b60405180910390f35b3480156100ff57600080fd5b50610108610460565b6040516101159190610969565b60405180910390f35b34801561012a57600080fd5b50610133610466565b6040516101409190610993565b60405180910390f35b34801561015557600080fd5b5061015e61048a565b60405161016b9190610969565b60405180910390f35b34801561018057600080fd5b50610189610490565b005b34801561019757600080fd5b506101a061062a565b6040516101ad9190610969565b60405180910390f35b3480156101c257600080fd5b506101cb610632565b6040516101d89190610969565b60405180910390f35b3480156101ed57600080fd5b506101f6610638565b6040516102039190610969565b60405180910390f35b34801561021857600080fd5b5061022161063e565b60405161022e9190610969565b60405180910390f35b34801561024357600080fd5b5061024c610644565b005b34801561025a57600080fd5b50610275600480360381019061027091906109da565b610881565b6040516102829190610a28565b60405180910390f35b60025442106102cf576040517f08c379a00000000000000000000000000000000000000000000000000000000081526004016102c690610aa0565b60405180910390fd5b600154341015610314576040517f08c379a000000000000000000000000000000000000000000000000000000000815260040161030b90610b0c565b60405180910390fd5b6000600760003373ffffffffffffffffffffffffffffffffffffffff1673ffffffffffffffffffffffffffffffffffffffff16815260200190815260200160002054036103d7576005600081548092919061036e90610b5b565b91905055506006339080600181540180825580915050600190039060005260206000200160009091909190916101000a81548173ffffffffffffffffffffffffffffffffffffffff021916908373ffffffffffffffffffffffffffffffffffffffff1602179055505b34600760003373ffffffffffffffffffffffffffffffffffffffff1673ffffffffffffffffffffffffffffffffffffffff16815260200190815260200160002060008282546104269190610ba3565b92505081905550346004600082825461043f9190610ba3565b92505081905550565b60076020528060005260406000206000915090505481565b60025481565b60008054906101000a900473ffffffffffffffffffffffffffffffffffffffff1681565b60055481565b60025442116104d4576040517f08c379a00000000000000000000000000000000000000000000000000000000081526004016104cb90610c45565b60405180910390fd5b6000600760003373ffffffffffffffffffffffffffffffffffffffff1673ffffffffffffffffffffffffffffffffffffffff1681526020019081526020016000205411610556576040517f08c379a000000000000000000000000000000000000000000000000000000000815260040161054d90610cb1565b60405180910390fd5b6004546003541061059c576040517f08c379a000000000000000000000000000000000000000000000000000000000815260040161059390610d1d565b60405180910390fd5b60003390508073ffffffffffffffffffffffffffffffffffffffff166108fc600760008473ffffffffffffffffffffffffffffffffffffffff1673ffffffffffffffffffffffffffffffffffffffff168152602001908152602001600020549081150290604051600060405180830381858888f19350505050158015610626573d6000803e3d6000fd5b5050565b600047905090565b60015481565b60045481565b60035481565b3373ffffffffffffffffffffffffffffffffffffffff1660008054906101000a900473ffffffffffffffffffffffffffffffffffffffff1673ffffffffffffffffffffffffffffffffffffffff16146106d2576040517f08c379a00000000000000000000000000000000000000000000000000000000081526004016106c990610d89565b60405180910390fd5b6002544211610716576040517f08c379a000000000000000000000000000000000000000000000000000000000815260040161070d90610df5565b60405180910390fd5b6004546003541061075c576040517f08c379a000000000000000000000000000000000000000000000000000000000815260040161075390610d1d565b60405180910390fd5b60005b60055481101561087e576006818154811061077d5761077c610e15565b5b9060005260206000200160009054906101000a900473ffffffffffffffffffffffffffffffffffffffff1673ffffffffffffffffffffffffffffffffffffffff166108fc60076000600685815481106107d9576107d8610e15565b5b9060005260206000200160009054906101000a900473ffffffffffffffffffffffffffffffffffffffff1673ffffffffffffffffffffffffffffffffffffffff1673ffffffffffffffffffffffffffffffffffffffff168152602001908152602001600020549081150290604051600060405180830381858888f1935050505015801561086a573d6000803e3d6000fd5b50808061087690610b5b565b91505061075f565b50565b6006818154811061089157600080fd5b906000526020600020016000915054906101000a900473ffffffffffffffffffffffffffffffffffffffff1681565b600080fd5b600073ffffffffffffffffffffffffffffffffffffffff82169050919050565b60006108f0826108c5565b9050919050565b610900816108e5565b811461090b57600080fd5b50565b60008135905061091d816108f7565b92915050565b600060208284031215610939576109386108c0565b5b60006109478482850161090e565b91505092915050565b6000819050919050565b61096381610950565b82525050565b600060208201905061097e600083018461095a565b92915050565b61098d816108e5565b82525050565b60006020820190506109a86000830184610984565b92915050565b6109b781610950565b81146109c257600080fd5b50565b6000813590506109d4816109ae565b92915050565b6000602082840312156109f0576109ef6108c0565b5b60006109fe848285016109c5565b91505092915050565b6000610a12826108c5565b9050919050565b610a2281610a07565b82525050565b6000602082019050610a3d6000830184610a19565b92915050565b600082825260208201905092915050565b7f446561646c696e65206861732070617373656400000000000000000000000000600082015250565b6000610a8a601383610a43565b9150610a9582610a54565b602082019050919050565b60006020820190508181036000830152610ab981610a7d565b9050919050565b7f4d696e696d756d20636f6e747269627574696f6e20686173206e6f74206d6574600082015250565b6000610af6602083610a43565b9150610b0182610ac0565b602082019050919050565b60006020820190508181036000830152610b2581610ae9565b9050919050565b7f4e487b7100000000000000000000000000000000000000000000000000000000600052601160045260246000fd5b6000610b6682610950565b91507fffffffffffffffffffffffffffffffffffffffffffffffffffffffffffffffff8203610b9857610b97610b2c565b5b600182019050919050565b6000610bae82610950565b9150610bb983610950565b9250827fffffffffffffffffffffffffffffffffffffffffffffffffffffffffffffffff03821115610bee57610bed610b2c565b5b828201905092915050565b7f446561646c696e6520686173206e6f7420796574207061737365640000000000600082015250565b6000610c2f601b83610a43565b9150610c3a82610bf9565b602082019050919050565b60006020820190508181036000830152610c5e81610c22565b9050919050565b7f596f752068617665206e6f7420636f6e74726962757465640000000000000000600082015250565b6000610c9b601883610a43565b9150610ca682610c65565b602082019050919050565b60006020820190508181036000830152610cca81610c8e565b9050919050565b7f54617267657420686173206e6f74206d6574207965742e000000000000000000600082015250565b6000610d07601783610a43565b9150610d1282610cd1565b602082019050919050565b60006020820190508181036000830152610d3681610cfa565b9050919050565b7f4f6e6c79206d616e616765722063616e20726566756e642e0000000000000000600082015250565b6000610d73601883610a43565b9150610d7e82610d3d565b602082019050919050565b60006020820190508181036000830152610da281610d66565b9050919050565b7f446561646c696e6520686173206e6f7420796574207061737365642e00000000600082015250565b6000610ddf601c83610a43565b9150610dea82610da9565b602082019050919050565b60006020820190508181036000830152610e0e81610dd2565b9050919050565b7f4e487b7100000000000000000000000000000000000000000000000000000000600052603260045260246000fdfea2646970667358221220826defb56fdeb122d7290d25fab36fe8c05f2ccc857e10a45eea68804009559564736f6c634300080d0033",
					"opcodes": "PUSH1 0x80 PUSH1 0x40 MSTORE CALLVALUE DUP1 ISZERO PUSH3 0x11 JUMPI PUSH1 0x0 DUP1 REVERT JUMPDEST POP PUSH1 0x40 MLOAD PUSH3 0x1054 CODESIZE SUB DUP1 PUSH3 0x1054 DUP4 CODECOPY DUP2 DUP2 ADD PUSH1 0x40 MSTORE DUP2 ADD SWAP1 PUSH3 0x37 SWAP2 SWAP1 PUSH3 0xE2 JUMP JUMPDEST DUP3 PUSH1 0x3 DUP2 SWAP1 SSTORE POP DUP2 TIMESTAMP PUSH3 0x4C SWAP2 SWAP1 PUSH3 0x16D JUMP JUMPDEST PUSH1 0x2 DUP2 SWAP1 SSTORE POP DUP1 PUSH1 0x1 DUP2 SWAP1 SSTORE POP CALLER PUSH1 0x0 DUP1 PUSH2 0x100 EXP DUP2 SLOAD DUP2 PUSH20 0xFFFFFFFFFFFFFFFFFFFFFFFFFFFFFFFFFFFFFFFF MUL NOT AND SWAP1 DUP4 PUSH20 0xFFFFFFFFFFFFFFFFFFFFFFFFFFFFFFFFFFFFFFFF AND MUL OR SWAP1 SSTORE POP POP POP POP PUSH3 0x1CA JUMP JUMPDEST PUSH1 0x0 DUP1 REVERT JUMPDEST PUSH1 0x0 DUP2 SWAP1 POP SWAP2 SWAP1 POP JUMP JUMPDEST PUSH3 0xBC DUP2 PUSH3 0xA7 JUMP JUMPDEST DUP2 EQ PUSH3 0xC8 JUMPI PUSH1 0x0 DUP1 REVERT JUMPDEST POP JUMP JUMPDEST PUSH1 0x0 DUP2 MLOAD SWAP1 POP PUSH3 0xDC DUP2 PUSH3 0xB1 JUMP JUMPDEST SWAP3 SWAP2 POP POP JUMP JUMPDEST PUSH1 0x0 DUP1 PUSH1 0x0 PUSH1 0x60 DUP5 DUP7 SUB SLT ISZERO PUSH3 0xFE JUMPI PUSH3 0xFD PUSH3 0xA2 JUMP JUMPDEST JUMPDEST PUSH1 0x0 PUSH3 0x10E DUP7 DUP3 DUP8 ADD PUSH3 0xCB JUMP JUMPDEST SWAP4 POP POP PUSH1 0x20 PUSH3 0x121 DUP7 DUP3 DUP8 ADD PUSH3 0xCB JUMP JUMPDEST SWAP3 POP POP PUSH1 0x40 PUSH3 0x134 DUP7 DUP3 DUP8 ADD PUSH3 0xCB JUMP JUMPDEST SWAP2 POP POP SWAP3 POP SWAP3 POP SWAP3 JUMP JUMPDEST PUSH32 0x4E487B7100000000000000000000000000000000000000000000000000000000 PUSH1 0x0 MSTORE PUSH1 0x11 PUSH1 0x4 MSTORE PUSH1 0x24 PUSH1 0x0 REVERT JUMPDEST PUSH1 0x0 PUSH3 0x17A DUP3 PUSH3 0xA7 JUMP JUMPDEST SWAP2 POP PUSH3 0x187 DUP4 PUSH3 0xA7 JUMP JUMPDEST SWAP3 POP DUP3 PUSH32 0xFFFFFFFFFFFFFFFFFFFFFFFFFFFFFFFFFFFFFFFFFFFFFFFFFFFFFFFFFFFFFFFF SUB DUP3 GT ISZERO PUSH3 0x1BF JUMPI PUSH3 0x1BE PUSH3 0x13E JUMP JUMPDEST JUMPDEST DUP3 DUP3 ADD SWAP1 POP SWAP3 SWAP2 POP POP JUMP JUMPDEST PUSH2 0xE7A DUP1 PUSH3 0x1DA PUSH1 0x0 CODECOPY PUSH1 0x0 RETURN INVALID PUSH1 0x80 PUSH1 0x40 MSTORE PUSH1 0x4 CALLDATASIZE LT PUSH2 0xA7 JUMPI PUSH1 0x0 CALLDATALOAD PUSH1 0xE0 SHR DUP1 PUSH4 0x6F9FB98A GT PUSH2 0x64 JUMPI DUP1 PUSH4 0x6F9FB98A EQ PUSH2 0x18B JUMPI DUP1 PUSH4 0x937E09B1 EQ PUSH2 0x1B6 JUMPI DUP1 PUSH4 0xC59EE1DC EQ PUSH2 0x1E1 JUMPI DUP1 PUSH4 0xD4B83992 EQ PUSH2 0x20C JUMPI DUP1 PUSH4 0xDBDDD8DB EQ PUSH2 0x237 JUMPI DUP1 PUSH4 0xEDF26D9B EQ PUSH2 0x24E JUMPI PUSH2 0xA7 JUMP JUMPDEST DUP1 PUSH4 0x6E99FEF EQ PUSH2 0xAC JUMPI DUP1 PUSH4 0x1F6D4942 EQ PUSH2 0xB6 JUMPI DUP1 PUSH4 0x29DCB0CF EQ PUSH2 0xF3 JUMPI DUP1 PUSH4 0x481C6A75 EQ PUSH2 0x11E JUMPI DUP1 PUSH4 0x4E260F6F EQ PUSH2 0x149 JUMPI DUP1 PUSH4 0x590E1AE3 EQ PUSH2 0x174 JUMPI JUMPDEST PUSH1 0x0 DUP1 REVERT JUMPDEST PUSH2 0xB4 PUSH2 0x28B JUMP JUMPDEST STOP JUMPDEST CALLVALUE DUP1 ISZERO PUSH2 0xC2 JUMPI PUSH1 0x0 DUP1 REVERT JUMPDEST POP PUSH2 0xDD PUSH1 0x4 DUP1 CALLDATASIZE SUB DUP2 ADD SWAP1 PUSH2 0xD8 SWAP2 SWAP1 PUSH2 0x923 JUMP JUMPDEST PUSH2 0x448 JUMP JUMPDEST PUSH1 0x40 MLOAD PUSH2 0xEA SWAP2 SWAP1 PUSH2 0x969 JUMP JUMPDEST PUSH1 0x40 MLOAD DUP1 SWAP2 SUB SWAP1 RETURN JUMPDEST CALLVALUE DUP1 ISZERO PUSH2 0xFF JUMPI PUSH1 0x0 DUP1 REVERT JUMPDEST POP PUSH2 0x108 PUSH2 0x460 JUMP JUMPDEST PUSH1 0x40 MLOAD PUSH2 0x115 SWAP2 SWAP1 PUSH2 0x969 JUMP JUMPDEST PUSH1 0x40 MLOAD DUP1 SWAP2 SUB SWAP1 RETURN JUMPDEST CALLVALUE DUP1 ISZERO PUSH2 0x12A JUMPI PUSH1 0x0 DUP1 REVERT JUMPDEST POP PUSH2 0x133 PUSH2 0x466 JUMP JUMPDEST PUSH1 0x40 MLOAD PUSH2 0x140 SWAP2 SWAP1 PUSH2 0x993 JUMP JUMPDEST PUSH1 0x40 MLOAD DUP1 SWAP2 SUB SWAP1 RETURN JUMPDEST CALLVALUE DUP1 ISZERO PUSH2 0x155 JUMPI PUSH1 0x0 DUP1 REVERT JUMPDEST POP PUSH2 0x15E PUSH2 0x48A JUMP JUMPDEST PUSH1 0x40 MLOAD PUSH2 0x16B SWAP2 SWAP1 PUSH2 0x969 JUMP JUMPDEST PUSH1 0x40 MLOAD DUP1 SWAP2 SUB SWAP1 RETURN JUMPDEST CALLVALUE DUP1 ISZERO PUSH2 0x180 JUMPI PUSH1 0x0 DUP1 REVERT JUMPDEST POP PUSH2 0x189 PUSH2 0x490 JUMP JUMPDEST STOP JUMPDEST CALLVALUE DUP1 ISZERO PUSH2 0x197 JUMPI PUSH1 0x0 DUP1 REVERT JUMPDEST POP PUSH2 0x1A0 PUSH2 0x62A JUMP JUMPDEST PUSH1 0x40 MLOAD PUSH2 0x1AD SWAP2 SWAP1 PUSH2 0x969 JUMP JUMPDEST PUSH1 0x40 MLOAD DUP1 SWAP2 SUB SWAP1 RETURN JUMPDEST CALLVALUE DUP1 ISZERO PUSH2 0x1C2 JUMPI PUSH1 0x0 DUP1 REVERT JUMPDEST POP PUSH2 0x1CB PUSH2 0x632 JUMP JUMPDEST PUSH1 0x40 MLOAD PUSH2 0x1D8 SWAP2 SWAP1 PUSH2 0x969 JUMP JUMPDEST PUSH1 0x40 MLOAD DUP1 SWAP2 SUB SWAP1 RETURN JUMPDEST CALLVALUE DUP1 ISZERO PUSH2 0x1ED JUMPI PUSH1 0x0 DUP1 REVERT JUMPDEST POP PUSH2 0x1F6 PUSH2 0x638 JUMP JUMPDEST PUSH1 0x40 MLOAD PUSH2 0x203 SWAP2 SWAP1 PUSH2 0x969 JUMP JUMPDEST PUSH1 0x40 MLOAD DUP1 SWAP2 SUB SWAP1 RETURN JUMPDEST CALLVALUE DUP1 ISZERO PUSH2 0x218 JUMPI PUSH1 0x0 DUP1 REVERT JUMPDEST POP PUSH2 0x221 PUSH2 0x63E JUMP JUMPDEST PUSH1 0x40 MLOAD PUSH2 0x22E SWAP2 SWAP1 PUSH2 0x969 JUMP JUMPDEST PUSH1 0x40 MLOAD DUP1 SWAP2 SUB SWAP1 RETURN JUMPDEST CALLVALUE DUP1 ISZERO PUSH2 0x243 JUMPI PUSH1 0x0 DUP1 REVERT JUMPDEST POP PUSH2 0x24C PUSH2 0x644 JUMP JUMPDEST STOP JUMPDEST CALLVALUE DUP1 ISZERO PUSH2 0x25A JUMPI PUSH1 0x0 DUP1 REVERT JUMPDEST POP PUSH2 0x275 PUSH1 0x4 DUP1 CALLDATASIZE SUB DUP2 ADD SWAP1 PUSH2 0x270 SWAP2 SWAP1 PUSH2 0x9DA JUMP JUMPDEST PUSH2 0x881 JUMP JUMPDEST PUSH1 0x40 MLOAD PUSH2 0x282 SWAP2 SWAP1 PUSH2 0xA28 JUMP JUMPDEST PUSH1 0x40 MLOAD DUP1 SWAP2 SUB SWAP1 RETURN JUMPDEST PUSH1 0x2 SLOAD TIMESTAMP LT PUSH2 0x2CF JUMPI PUSH1 0x40 MLOAD PUSH32 0x8C379A000000000000000000000000000000000000000000000000000000000 DUP2 MSTORE PUSH1 0x4 ADD PUSH2 0x2C6 SWAP1 PUSH2 0xAA0 JUMP JUMPDEST PUSH1 0x40 MLOAD DUP1 SWAP2 SUB SWAP1 REVERT JUMPDEST PUSH1 0x1 SLOAD CALLVALUE LT ISZERO PUSH2 0x314 JUMPI PUSH1 0x40 MLOAD PUSH32 0x8C379A000000000000000000000000000000000000000000000000000000000 DUP2 MSTORE PUSH1 0x4 ADD PUSH2 0x30B SWAP1 PUSH2 0xB0C JUMP JUMPDEST PUSH1 0x40 MLOAD DUP1 SWAP2 SUB SWAP1 REVERT JUMPDEST PUSH1 0x0 PUSH1 0x7 PUSH1 0x0 CALLER PUSH20 0xFFFFFFFFFFFFFFFFFFFFFFFFFFFFFFFFFFFFFFFF AND PUSH20 0xFFFFFFFFFFFFFFFFFFFFFFFFFFFFFFFFFFFFFFFF AND DUP2 MSTORE PUSH1 0x20 ADD SWAP1 DUP2 MSTORE PUSH1 0x20 ADD PUSH1 0x0 KECCAK256 SLOAD SUB PUSH2 0x3D7 JUMPI PUSH1 0x5 PUSH1 0x0 DUP2 SLOAD DUP1 SWAP3 SWAP2 SWAP1 PUSH2 0x36E SWAP1 PUSH2 0xB5B JUMP JUMPDEST SWAP2 SWAP1 POP SSTORE POP PUSH1 0x6 CALLER SWAP1 DUP1 PUSH1 0x1 DUP2 SLOAD ADD DUP1 DUP3 SSTORE DUP1 SWAP2 POP POP PUSH1 0x1 SWAP1 SUB SWAP1 PUSH1 0x0 MSTORE PUSH1 0x20 PUSH1 0x0 KECCAK256 ADD PUSH1 0x0 SWAP1 SWAP2 SWAP1 SWAP2 SWAP1 SWAP2 PUSH2 0x100 EXP DUP2 SLOAD DUP2 PUSH20 0xFFFFFFFFFFFFFFFFFFFFFFFFFFFFFFFFFFFFFFFF MUL NOT AND SWAP1 DUP4 PUSH20 0xFFFFFFFFFFFFFFFFFFFFFFFFFFFFFFFFFFFFFFFF AND MUL OR SWAP1 SSTORE POP JUMPDEST CALLVALUE PUSH1 0x7 PUSH1 0x0 CALLER PUSH20 0xFFFFFFFFFFFFFFFFFFFFFFFFFFFFFFFFFFFFFFFF AND PUSH20 0xFFFFFFFFFFFFFFFFFFFFFFFFFFFFFFFFFFFFFFFF AND DUP2 MSTORE PUSH1 0x20 ADD SWAP1 DUP2 MSTORE PUSH1 0x20 ADD PUSH1 0x0 KECCAK256 PUSH1 0x0 DUP3 DUP3 SLOAD PUSH2 0x426 SWAP2 SWAP1 PUSH2 0xBA3 JUMP JUMPDEST SWAP3 POP POP DUP2 SWAP1 SSTORE POP CALLVALUE PUSH1 0x4 PUSH1 0x0 DUP3 DUP3 SLOAD PUSH2 0x43F SWAP2 SWAP1 PUSH2 0xBA3 JUMP JUMPDEST SWAP3 POP POP DUP2 SWAP1 SSTORE POP JUMP JUMPDEST PUSH1 0x7 PUSH1 0x20 MSTORE DUP1 PUSH1 0x0 MSTORE PUSH1 0x40 PUSH1 0x0 KECCAK256 PUSH1 0x0 SWAP2 POP SWAP1 POP SLOAD DUP2 JUMP JUMPDEST PUSH1 0x2 SLOAD DUP2 JUMP JUMPDEST PUSH1 0x0 DUP1 SLOAD SWAP1 PUSH2 0x100 EXP SWAP1 DIV PUSH20 0xFFFFFFFFFFFFFFFFFFFFFFFFFFFFFFFFFFFFFFFF AND DUP2 JUMP JUMPDEST PUSH1 0x5 SLOAD DUP2 JUMP JUMPDEST PUSH1 0x2 SLOAD TIMESTAMP GT PUSH2 0x4D4 JUMPI PUSH1 0x40 MLOAD PUSH32 0x8C379A000000000000000000000000000000000000000000000000000000000 DUP2 MSTORE PUSH1 0x4 ADD PUSH2 0x4CB SWAP1 PUSH2 0xC45 JUMP JUMPDEST PUSH1 0x40 MLOAD DUP1 SWAP2 SUB SWAP1 REVERT JUMPDEST PUSH1 0x0 PUSH1 0x7 PUSH1 0x0 CALLER PUSH20 0xFFFFFFFFFFFFFFFFFFFFFFFFFFFFFFFFFFFFFFFF AND PUSH20 0xFFFFFFFFFFFFFFFFFFFFFFFFFFFFFFFFFFFFFFFF AND DUP2 MSTORE PUSH1 0x20 ADD SWAP1 DUP2 MSTORE PUSH1 0x20 ADD PUSH1 0x0 KECCAK256 SLOAD GT PUSH2 0x556 JUMPI PUSH1 0x40 MLOAD PUSH32 0x8C379A000000000000000000000000000000000000000000000000000000000 DUP2 MSTORE PUSH1 0x4 ADD PUSH2 0x54D SWAP1 PUSH2 0xCB1 JUMP JUMPDEST PUSH1 0x40 MLOAD DUP1 SWAP2 SUB SWAP1 REVERT JUMPDEST PUSH1 0x4 SLOAD PUSH1 0x3 SLOAD LT PUSH2 0x59C JUMPI PUSH1 0x40 MLOAD PUSH32 0x8C379A000000000000000000000000000000000000000000000000000000000 DUP2 MSTORE PUSH1 0x4 ADD PUSH2 0x593 SWAP1 PUSH2 0xD1D JUMP JUMPDEST PUSH1 0x40 MLOAD DUP1 SWAP2 SUB SWAP1 REVERT JUMPDEST PUSH1 0x0 CALLER SWAP1 POP DUP1 PUSH20 0xFFFFFFFFFFFFFFFFFFFFFFFFFFFFFFFFFFFFFFFF AND PUSH2 0x8FC PUSH1 0x7 PUSH1 0x0 DUP5 PUSH20 0xFFFFFFFFFFFFFFFFFFFFFFFFFFFFFFFFFFFFFFFF AND PUSH20 0xFFFFFFFFFFFFFFFFFFFFFFFFFFFFFFFFFFFFFFFF AND DUP2 MSTORE PUSH1 0x20 ADD SWAP1 DUP2 MSTORE PUSH1 0x20 ADD PUSH1 0x0 KECCAK256 SLOAD SWAP1 DUP2 ISZERO MUL SWAP1 PUSH1 0x40 MLOAD PUSH1 0x0 PUSH1 0x40 MLOAD DUP1 DUP4 SUB DUP2 DUP6 DUP9 DUP9 CALL SWAP4 POP POP POP POP ISZERO DUP1 ISZERO PUSH2 0x626 JUMPI RETURNDATASIZE PUSH1 0x0 DUP1 RETURNDATACOPY RETURNDATASIZE PUSH1 0x0 REVERT JUMPDEST POP POP JUMP JUMPDEST PUSH1 0x0 SELFBALANCE SWAP1 POP SWAP1 JUMP JUMPDEST PUSH1 0x1 SLOAD DUP2 JUMP JUMPDEST PUSH1 0x4 SLOAD DUP2 JUMP JUMPDEST PUSH1 0x3 SLOAD DUP2 JUMP JUMPDEST CALLER PUSH20 0xFFFFFFFFFFFFFFFFFFFFFFFFFFFFFFFFFFFFFFFF AND PUSH1 0x0 DUP1 SLOAD SWAP1 PUSH2 0x100 EXP SWAP1 DIV PUSH20 0xFFFFFFFFFFFFFFFFFFFFFFFFFFFFFFFFFFFFFFFF AND PUSH20 0xFFFFFFFFFFFFFFFFFFFFFFFFFFFFFFFFFFFFFFFF AND EQ PUSH2 0x6D2 JUMPI PUSH1 0x40 MLOAD PUSH32 0x8C379A000000000000000000000000000000000000000000000000000000000 DUP2 MSTORE PUSH1 0x4 ADD PUSH2 0x6C9 SWAP1 PUSH2 0xD89 JUMP JUMPDEST PUSH1 0x40 MLOAD DUP1 SWAP2 SUB SWAP1 REVERT JUMPDEST PUSH1 0x2 SLOAD TIMESTAMP GT PUSH2 0x716 JUMPI PUSH1 0x40 MLOAD PUSH32 0x8C379A000000000000000000000000000000000000000000000000000000000 DUP2 MSTORE PUSH1 0x4 ADD PUSH2 0x70D SWAP1 PUSH2 0xDF5 JUMP JUMPDEST PUSH1 0x40 MLOAD DUP1 SWAP2 SUB SWAP1 REVERT JUMPDEST PUSH1 0x4 SLOAD PUSH1 0x3 SLOAD LT PUSH2 0x75C JUMPI PUSH1 0x40 MLOAD PUSH32 0x8C379A000000000000000000000000000000000000000000000000000000000 DUP2 MSTORE PUSH1 0x4 ADD PUSH2 0x753 SWAP1 PUSH2 0xD1D JUMP JUMPDEST PUSH1 0x40 MLOAD DUP1 SWAP2 SUB SWAP1 REVERT JUMPDEST PUSH1 0x0 JUMPDEST PUSH1 0x5 SLOAD DUP2 LT ISZERO PUSH2 0x87E JUMPI PUSH1 0x6 DUP2 DUP2 SLOAD DUP2 LT PUSH2 0x77D JUMPI PUSH2 0x77C PUSH2 0xE15 JUMP JUMPDEST JUMPDEST SWAP1 PUSH1 0x0 MSTORE PUSH1 0x20 PUSH1 0x0 KECCAK256 ADD PUSH1 0x0 SWAP1 SLOAD SWAP1 PUSH2 0x100 EXP SWAP1 DIV PUSH20 0xFFFFFFFFFFFFFFFFFFFFFFFFFFFFFFFFFFFFFFFF AND PUSH20 0xFFFFFFFFFFFFFFFFFFFFFFFFFFFFFFFFFFFFFFFF AND PUSH2 0x8FC PUSH1 0x7 PUSH1 0x0 PUSH1 0x6 DUP6 DUP2 SLOAD DUP2 LT PUSH2 0x7D9 JUMPI PUSH2 0x7D8 PUSH2 0xE15 JUMP JUMPDEST JUMPDEST SWAP1 PUSH1 0x0 MSTORE PUSH1 0x20 PUSH1 0x0 KECCAK256 ADD PUSH1 0x0 SWAP1 SLOAD SWAP1 PUSH2 0x100 EXP SWAP1 DIV PUSH20 0xFFFFFFFFFFFFFFFFFFFFFFFFFFFFFFFFFFFFFFFF AND PUSH20 0xFFFFFFFFFFFFFFFFFFFFFFFFFFFFFFFFFFFFFFFF AND PUSH20 0xFFFFFFFFFFFFFFFFFFFFFFFFFFFFFFFFFFFFFFFF AND DUP2 MSTORE PUSH1 0x20 ADD SWAP1 DUP2 MSTORE PUSH1 0x20 ADD PUSH1 0x0 KECCAK256 SLOAD SWAP1 DUP2 ISZERO MUL SWAP1 PUSH1 0x40 MLOAD PUSH1 0x0 PUSH1 0x40 MLOAD DUP1 DUP4 SUB DUP2 DUP6 DUP9 DUP9 CALL SWAP4 POP POP POP POP ISZERO DUP1 ISZERO PUSH2 0x86A JUMPI RETURNDATASIZE PUSH1 0x0 DUP1 RETURNDATACOPY RETURNDATASIZE PUSH1 0x0 REVERT JUMPDEST POP DUP1 DUP1 PUSH2 0x876 SWAP1 PUSH2 0xB5B JUMP JUMPDEST SWAP2 POP POP PUSH2 0x75F JUMP JUMPDEST POP JUMP JUMPDEST PUSH1 0x6 DUP2 DUP2 SLOAD DUP2 LT PUSH2 0x891 JUMPI PUSH1 0x0 DUP1 REVERT JUMPDEST SWAP1 PUSH1 0x0 MSTORE PUSH1 0x20 PUSH1 0x0 KECCAK256 ADD PUSH1 0x0 SWAP2 POP SLOAD SWAP1 PUSH2 0x100 EXP SWAP1 DIV PUSH20 0xFFFFFFFFFFFFFFFFFFFFFFFFFFFFFFFFFFFFFFFF AND DUP2 JUMP JUMPDEST PUSH1 0x0 DUP1 REVERT JUMPDEST PUSH1 0x0 PUSH20 0xFFFFFFFFFFFFFFFFFFFFFFFFFFFFFFFFFFFFFFFF DUP3 AND SWAP1 POP SWAP2 SWAP1 POP JUMP JUMPDEST PUSH1 0x0 PUSH2 0x8F0 DUP3 PUSH2 0x8C5 JUMP JUMPDEST SWAP1 POP SWAP2 SWAP1 POP JUMP JUMPDEST PUSH2 0x900 DUP2 PUSH2 0x8E5 JUMP JUMPDEST DUP2 EQ PUSH2 0x90B JUMPI PUSH1 0x0 DUP1 REVERT JUMPDEST POP JUMP JUMPDEST PUSH1 0x0 DUP2 CALLDATALOAD SWAP1 POP PUSH2 0x91D DUP2 PUSH2 0x8F7 JUMP JUMPDEST SWAP3 SWAP2 POP POP JUMP JUMPDEST PUSH1 0x0 PUSH1 0x20 DUP3 DUP5 SUB SLT ISZERO PUSH2 0x939 JUMPI PUSH2 0x938 PUSH2 0x8C0 JUMP JUMPDEST JUMPDEST PUSH1 0x0 PUSH2 0x947 DUP5 DUP3 DUP6 ADD PUSH2 0x90E JUMP JUMPDEST SWAP2 POP POP SWAP3 SWAP2 POP POP JUMP JUMPDEST PUSH1 0x0 DUP2 SWAP1 POP SWAP2 SWAP1 POP JUMP JUMPDEST PUSH2 0x963 DUP2 PUSH2 0x950 JUMP JUMPDEST DUP3 MSTORE POP POP JUMP JUMPDEST PUSH1 0x0 PUSH1 0x20 DUP3 ADD SWAP1 POP PUSH2 0x97E PUSH1 0x0 DUP4 ADD DUP5 PUSH2 0x95A JUMP JUMPDEST SWAP3 SWAP2 POP POP JUMP JUMPDEST PUSH2 0x98D DUP2 PUSH2 0x8E5 JUMP JUMPDEST DUP3 MSTORE POP POP JUMP JUMPDEST PUSH1 0x0 PUSH1 0x20 DUP3 ADD SWAP1 POP PUSH2 0x9A8 PUSH1 0x0 DUP4 ADD DUP5 PUSH2 0x984 JUMP JUMPDEST SWAP3 SWAP2 POP POP JUMP JUMPDEST PUSH2 0x9B7 DUP2 PUSH2 0x950 JUMP JUMPDEST DUP2 EQ PUSH2 0x9C2 JUMPI PUSH1 0x0 DUP1 REVERT JUMPDEST POP JUMP JUMPDEST PUSH1 0x0 DUP2 CALLDATALOAD SWAP1 POP PUSH2 0x9D4 DUP2 PUSH2 0x9AE JUMP JUMPDEST SWAP3 SWAP2 POP POP JUMP JUMPDEST PUSH1 0x0 PUSH1 0x20 DUP3 DUP5 SUB SLT ISZERO PUSH2 0x9F0 JUMPI PUSH2 0x9EF PUSH2 0x8C0 JUMP JUMPDEST JUMPDEST PUSH1 0x0 PUSH2 0x9FE DUP5 DUP3 DUP6 ADD PUSH2 0x9C5 JUMP JUMPDEST SWAP2 POP POP SWAP3 SWAP2 POP POP JUMP JUMPDEST PUSH1 0x0 PUSH2 0xA12 DUP3 PUSH2 0x8C5 JUMP JUMPDEST SWAP1 POP SWAP2 SWAP1 POP JUMP JUMPDEST PUSH2 0xA22 DUP2 PUSH2 0xA07 JUMP JUMPDEST DUP3 MSTORE POP POP JUMP JUMPDEST PUSH1 0x0 PUSH1 0x20 DUP3 ADD SWAP1 POP PUSH2 0xA3D PUSH1 0x0 DUP4 ADD DUP5 PUSH2 0xA19 JUMP JUMPDEST SWAP3 SWAP2 POP POP JUMP JUMPDEST PUSH1 0x0 DUP3 DUP3 MSTORE PUSH1 0x20 DUP3 ADD SWAP1 POP SWAP3 SWAP2 POP POP JUMP JUMPDEST PUSH32 0x446561646C696E65206861732070617373656400000000000000000000000000 PUSH1 0x0 DUP3 ADD MSTORE POP JUMP JUMPDEST PUSH1 0x0 PUSH2 0xA8A PUSH1 0x13 DUP4 PUSH2 0xA43 JUMP JUMPDEST SWAP2 POP PUSH2 0xA95 DUP3 PUSH2 0xA54 JUMP JUMPDEST PUSH1 0x20 DUP3 ADD SWAP1 POP SWAP2 SWAP1 POP JUMP JUMPDEST PUSH1 0x0 PUSH1 0x20 DUP3 ADD SWAP1 POP DUP2 DUP2 SUB PUSH1 0x0 DUP4 ADD MSTORE PUSH2 0xAB9 DUP2 PUSH2 0xA7D JUMP JUMPDEST SWAP1 POP SWAP2 SWAP1 POP JUMP JUMPDEST PUSH32 0x4D696E696D756D20636F6E747269627574696F6E20686173206E6F74206D6574 PUSH1 0x0 DUP3 ADD MSTORE POP JUMP JUMPDEST PUSH1 0x0 PUSH2 0xAF6 PUSH1 0x20 DUP4 PUSH2 0xA43 JUMP JUMPDEST SWAP2 POP PUSH2 0xB01 DUP3 PUSH2 0xAC0 JUMP JUMPDEST PUSH1 0x20 DUP3 ADD SWAP1 POP SWAP2 SWAP1 POP JUMP JUMPDEST PUSH1 0x0 PUSH1 0x20 DUP3 ADD SWAP1 POP DUP2 DUP2 SUB PUSH1 0x0 DUP4 ADD MSTORE PUSH2 0xB25 DUP2 PUSH2 0xAE9 JUMP JUMPDEST SWAP1 POP SWAP2 SWAP1 POP JUMP JUMPDEST PUSH32 0x4E487B7100000000000000000000000000000000000000000000000000000000 PUSH1 0x0 MSTORE PUSH1 0x11 PUSH1 0x4 MSTORE PUSH1 0x24 PUSH1 0x0 REVERT JUMPDEST PUSH1 0x0 PUSH2 0xB66 DUP3 PUSH2 0x950 JUMP JUMPDEST SWAP2 POP PUSH32 0xFFFFFFFFFFFFFFFFFFFFFFFFFFFFFFFFFFFFFFFFFFFFFFFFFFFFFFFFFFFFFFFF DUP3 SUB PUSH2 0xB98 JUMPI PUSH2 0xB97 PUSH2 0xB2C JUMP JUMPDEST JUMPDEST PUSH1 0x1 DUP3 ADD SWAP1 POP SWAP2 SWAP1 POP JUMP JUMPDEST PUSH1 0x0 PUSH2 0xBAE DUP3 PUSH2 0x950 JUMP JUMPDEST SWAP2 POP PUSH2 0xBB9 DUP4 PUSH2 0x950 JUMP JUMPDEST SWAP3 POP DUP3 PUSH32 0xFFFFFFFFFFFFFFFFFFFFFFFFFFFFFFFFFFFFFFFFFFFFFFFFFFFFFFFFFFFFFFFF SUB DUP3 GT ISZERO PUSH2 0xBEE JUMPI PUSH2 0xBED PUSH2 0xB2C JUMP JUMPDEST JUMPDEST DUP3 DUP3 ADD SWAP1 POP SWAP3 SWAP2 POP POP JUMP JUMPDEST PUSH32 0x446561646C696E6520686173206E6F7420796574207061737365640000000000 PUSH1 0x0 DUP3 ADD MSTORE POP JUMP JUMPDEST PUSH1 0x0 PUSH2 0xC2F PUSH1 0x1B DUP4 PUSH2 0xA43 JUMP JUMPDEST SWAP2 POP PUSH2 0xC3A DUP3 PUSH2 0xBF9 JUMP JUMPDEST PUSH1 0x20 DUP3 ADD SWAP1 POP SWAP2 SWAP1 POP JUMP JUMPDEST PUSH1 0x0 PUSH1 0x20 DUP3 ADD SWAP1 POP DUP2 DUP2 SUB PUSH1 0x0 DUP4 ADD MSTORE PUSH2 0xC5E DUP2 PUSH2 0xC22 JUMP JUMPDEST SWAP1 POP SWAP2 SWAP1 POP JUMP JUMPDEST PUSH32 0x596F752068617665206E6F7420636F6E74726962757465640000000000000000 PUSH1 0x0 DUP3 ADD MSTORE POP JUMP JUMPDEST PUSH1 0x0 PUSH2 0xC9B PUSH1 0x18 DUP4 PUSH2 0xA43 JUMP JUMPDEST SWAP2 POP PUSH2 0xCA6 DUP3 PUSH2 0xC65 JUMP JUMPDEST PUSH1 0x20 DUP3 ADD SWAP1 POP SWAP2 SWAP1 POP JUMP JUMPDEST PUSH1 0x0 PUSH1 0x20 DUP3 ADD SWAP1 POP DUP2 DUP2 SUB PUSH1 0x0 DUP4 ADD MSTORE PUSH2 0xCCA DUP2 PUSH2 0xC8E JUMP JUMPDEST SWAP1 POP SWAP2 SWAP1 POP JUMP JUMPDEST PUSH32 0x54617267657420686173206E6F74206D6574207965742E000000000000000000 PUSH1 0x0 DUP3 ADD MSTORE POP JUMP JUMPDEST PUSH1 0x0 PUSH2 0xD07 PUSH1 0x17 DUP4 PUSH2 0xA43 JUMP JUMPDEST SWAP2 POP PUSH2 0xD12 DUP3 PUSH2 0xCD1 JUMP JUMPDEST PUSH1 0x20 DUP3 ADD SWAP1 POP SWAP2 SWAP1 POP JUMP JUMPDEST PUSH1 0x0 PUSH1 0x20 DUP3 ADD SWAP1 POP DUP2 DUP2 SUB PUSH1 0x0 DUP4 ADD MSTORE PUSH2 0xD36 DUP2 PUSH2 0xCFA JUMP JUMPDEST SWAP1 POP SWAP2 SWAP1 POP JUMP JUMPDEST PUSH32 0x4F6E6C79206D616E616765722063616E20726566756E642E0000000000000000 PUSH1 0x0 DUP3 ADD MSTORE POP JUMP JUMPDEST PUSH1 0x0 PUSH2 0xD73 PUSH1 0x18 DUP4 PUSH2 0xA43 JUMP JUMPDEST SWAP2 POP PUSH2 0xD7E DUP3 PUSH2 0xD3D JUMP JUMPDEST PUSH1 0x20 DUP3 ADD SWAP1 POP SWAP2 SWAP1 POP JUMP JUMPDEST PUSH1 0x0 PUSH1 0x20 DUP3 ADD SWAP1 POP DUP2 DUP2 SUB PUSH1 0x0 DUP4 ADD MSTORE PUSH2 0xDA2 DUP2 PUSH2 0xD66 JUMP JUMPDEST SWAP1 POP SWAP2 SWAP1 POP JUMP JUMPDEST PUSH32 0x446561646C696E6520686173206E6F7420796574207061737365642E00000000 PUSH1 0x0 DUP3 ADD MSTORE POP JUMP JUMPDEST PUSH1 0x0 PUSH2 0xDDF PUSH1 0x1C DUP4 PUSH2 0xA43 JUMP JUMPDEST SWAP2 POP PUSH2 0xDEA DUP3 PUSH2 0xDA9 JUMP JUMPDEST PUSH1 0x20 DUP3 ADD SWAP1 POP SWAP2 SWAP1 POP JUMP JUMPDEST PUSH1 0x0 PUSH1 0x20 DUP3 ADD SWAP1 POP DUP2 DUP2 SUB PUSH1 0x0 DUP4 ADD MSTORE PUSH2 0xE0E DUP2 PUSH2 0xDD2 JUMP JUMPDEST SWAP1 POP SWAP2 SWAP1 POP JUMP JUMPDEST PUSH32 0x4E487B7100000000000000000000000000000000000000000000000000000000 PUSH1 0x0 MSTORE PUSH1 0x32 PUSH1 0x4 MSTORE PUSH1 0x24 PUSH1 0x0 REVERT INVALID LOG2 PUSH5 0x6970667358 0x22 SLT KECCAK256 DUP3 PUSH14 0xEFB56FDEB122D7290D25FAB36FE8 0xC0 0x5F 0x2C 0xCC DUP6 PUSH31 0x10A45EEA68804009559564736F6C634300080D003300000000000000000000 "
				},
				"gasEstimates": {
					"creation": {
						"codeDepositCost": "741200",
						"executionCost": "infinite",
						"totalCost": "infinite"
					},
					"external": {
						"addresses(uint256)": "5066",
						"contributors(address)": "2837",
						"deadline()": "2474",
						"getContractBalance()": "339",
						"manager()": "2578",
						"minimumContribution()": "2451",
						"noOfContributors()": "2518",
						"raisedAmount()": "2473",
						"refund()": "infinite",
						"refundToAll()": "infinite",
						"sendEth()": "infinite",
						"target()": "2495"
					}
				},
				"methodIdentifiers": {
					"addresses(uint256)": "edf26d9b",
					"contributors(address)": "1f6d4942",
					"deadline()": "29dcb0cf",
					"getContractBalance()": "6f9fb98a",
					"manager()": "481c6a75",
					"minimumContribution()": "937e09b1",
					"noOfContributors()": "4e260f6f",
					"raisedAmount()": "c59ee1dc",
					"refund()": "590e1ae3",
					"refundToAll()": "dbddd8db",
					"sendEth()": "06e99fef",
					"target()": "d4b83992"
				}
			},
			"userdoc": {
				"kind": "user",
				"methods": {},
				"version": 1
			}
		}
	}
}