{
	"contracts/Crowd_Funding/Crowd_Funding.sol": {
		"CrowdFunding": {
			"abi": [
				{
					"inputs": [
						{
							"internalType": "uint256",
							"name": "_target",
							"type": "uint256"
						},
						{
							"internalType": "uint256",
							"name": "_deadline",
							"type": "uint256"
						},
						{
							"internalType": "uint256",
							"name": "_minimumContribution",
							"type": "uint256"
						}
					],
					"stateMutability": "nonpayable",
					"type": "constructor"
				},
				{
					"inputs": [
						{
							"internalType": "uint256",
							"name": "",
							"type": "uint256"
						}
					],
					"name": "addresses",
					"outputs": [
						{
							"internalType": "address payable",
							"name": "",
							"type": "address"
						}
					],
					"stateMutability": "view",
					"type": "function"
				},
				{
					"inputs": [
						{
							"internalType": "address",
							"name": "",
							"type": "address"
						}
					],
					"name": "contributors",
					"outputs": [
						{
							"internalType": "uint256",
							"name": "",
							"type": "uint256"
						}
					],
					"stateMutability": "view",
					"type": "function"
				},
				{
					"inputs": [],
					"name": "deadline",
					"outputs": [
						{
							"internalType": "uint256",
							"name": "",
							"type": "uint256"
						}
					],
					"stateMutability": "view",
					"type": "function"
				},
				{
					"inputs": [],
					"name": "getContractBalance",
					"outputs": [
						{
							"internalType": "uint256",
							"name": "",
							"type": "uint256"
						}
					],
					"stateMutability": "view",
					"type": "function"
				},
				{
					"inputs": [],
					"name": "manager",
					"outputs": [
						{
							"internalType": "address",
							"name": "",
							"type": "address"
						}
					],
					"stateMutability": "view",
					"type": "function"
				},
				{
					"inputs": [],
					"name": "minimumContribution",
					"outputs": [
						{
							"internalType": "uint256",
							"name": "",
							"type": "uint256"
						}
					],
					"stateMutability": "view",
					"type": "function"
				},
				{
					"inputs": [],
					"name": "noOfContributors",
					"outputs": [
						{
							"internalType": "uint256",
							"name": "",
							"type": "uint256"
						}
					],
					"stateMutability": "view",
					"type": "function"
				},
				{
					"inputs": [],
					"name": "raisedAmount",
					"outputs": [
						{
							"internalType": "uint256",
							"name": "",
							"type": "uint256"
						}
					],
					"stateMutability": "view",
					"type": "function"
				},
				{
					"inputs": [],
					"name": "refund",
					"outputs": [],
					"stateMutability": "nonpayable",
					"type": "function"
				},
				{
					"inputs": [],
					"name": "sendEth",
					"outputs": [],
					"stateMutability": "payable",
					"type": "function"
				},
				{
					"inputs": [],
					"name": "target",
					"outputs": [
						{
							"internalType": "uint256",
							"name": "",
							"type": "uint256"
						}
					],
					"stateMutability": "view",
					"type": "function"
				}
			],
			"devdoc": {
				"kind": "dev",
				"methods": {},
				"version": 1
			},
			"evm": {
				"assembly": "    /* \"contracts/Crowd_Funding/Crowd_Funding.sol\":59:1507  contract CrowdFunding {... */\n  mstore(0x40, 0x80)\n    /* \"contracts/Crowd_Funding/Crowd_Funding.sol\":368:605  constructor(uint _target, uint _deadline, uint _minimumContribution) {... */\n  callvalue\n  dup1\n  iszero\n  tag_1\n  jumpi\n  0x00\n  dup1\n  revert\ntag_1:\n  pop\n  mload(0x40)\n  sub(codesize, bytecodeSize)\n  dup1\n  bytecodeSize\n  dup4\n  codecopy\n  dup2\n  dup2\n  add\n  0x40\n  mstore\n  dup2\n  add\n  swap1\n  tag_2\n  swap2\n  swap1\n  tag_3\n  jump\t// in\ntag_2:\n    /* \"contracts/Crowd_Funding/Crowd_Funding.sol\":457:464  _target */\n  dup3\n    /* \"contracts/Crowd_Funding/Crowd_Funding.sol\":448:454  target */\n  0x03\n    /* \"contracts/Crowd_Funding/Crowd_Funding.sol\":448:464  target = _target */\n  dup2\n  swap1\n  sstore\n  pop\n    /* \"contracts/Crowd_Funding/Crowd_Funding.sol\":502:511  _deadline */\n  dup2\n    /* \"contracts/Crowd_Funding/Crowd_Funding.sol\":486:501  block.timestamp */\n  timestamp\n    /* \"contracts/Crowd_Funding/Crowd_Funding.sol\":486:511  block.timestamp+_deadline */\n  tag_6\n  swap2\n  swap1\n  tag_7\n  jump\t// in\ntag_6:\n    /* \"contracts/Crowd_Funding/Crowd_Funding.sol\":475:483  deadline */\n  0x02\n    /* \"contracts/Crowd_Funding/Crowd_Funding.sol\":475:511  deadline = block.timestamp+_deadline */\n  dup2\n  swap1\n  sstore\n  pop\n    /* \"contracts/Crowd_Funding/Crowd_Funding.sol\":544:564  _minimumContribution */\n  dup1\n    /* \"contracts/Crowd_Funding/Crowd_Funding.sol\":522:541  minimumContribution */\n  0x01\n    /* \"contracts/Crowd_Funding/Crowd_Funding.sol\":522:564  minimumContribution = _minimumContribution */\n  dup2\n  swap1\n  sstore\n  pop\n    /* \"contracts/Crowd_Funding/Crowd_Funding.sol\":585:595  msg.sender */\n  caller\n    /* \"contracts/Crowd_Funding/Crowd_Funding.sol\":575:582  manager */\n  0x00\n  dup1\n    /* \"contracts/Crowd_Funding/Crowd_Funding.sol\":575:595  manager = msg.sender */\n  0x0100\n  exp\n  dup2\n  sload\n  dup2\n  0xffffffffffffffffffffffffffffffffffffffff\n  mul\n  not\n  and\n  swap1\n  dup4\n  0xffffffffffffffffffffffffffffffffffffffff\n  and\n  mul\n  or\n  swap1\n  sstore\n  pop\n    /* \"contracts/Crowd_Funding/Crowd_Funding.sol\":368:605  constructor(uint _target, uint _deadline, uint _minimumContribution) {... */\n  pop\n  pop\n  pop\n    /* \"contracts/Crowd_Funding/Crowd_Funding.sol\":59:1507  contract CrowdFunding {... */\n  jump(tag_8)\n    /* \"#utility.yul\":88:205   */\ntag_10:\n    /* \"#utility.yul\":197:198   */\n  0x00\n    /* \"#utility.yul\":194:195   */\n  dup1\n    /* \"#utility.yul\":187:199   */\n  revert\n    /* \"#utility.yul\":334:411   */\ntag_12:\n    /* \"#utility.yul\":371:378   */\n  0x00\n    /* \"#utility.yul\":400:405   */\n  dup2\n    /* \"#utility.yul\":389:405   */\n  swap1\n  pop\n    /* \"#utility.yul\":334:411   */\n  swap2\n  swap1\n  pop\n  jump\t// out\n    /* \"#utility.yul\":417:539   */\ntag_13:\n    /* \"#utility.yul\":490:514   */\n  tag_22\n    /* \"#utility.yul\":508:513   */\n  dup2\n    /* \"#utility.yul\":490:514   */\n  tag_12\n  jump\t// in\ntag_22:\n    /* \"#utility.yul\":483:488   */\n  dup2\n    /* \"#utility.yul\":480:515   */\n  eq\n    /* \"#utility.yul\":470:533   */\n  tag_23\n  jumpi\n    /* \"#utility.yul\":529:530   */\n  0x00\n    /* \"#utility.yul\":526:527   */\n  dup1\n    /* \"#utility.yul\":519:531   */\n  revert\n    /* \"#utility.yul\":470:533   */\ntag_23:\n    /* \"#utility.yul\":417:539   */\n  pop\n  jump\t// out\n    /* \"#utility.yul\":545:688   */\ntag_14:\n    /* \"#utility.yul\":602:607   */\n  0x00\n    /* \"#utility.yul\":633:639   */\n  dup2\n    /* \"#utility.yul\":627:640   */\n  mload\n    /* \"#utility.yul\":618:640   */\n  swap1\n  pop\n    /* \"#utility.yul\":649:682   */\n  tag_25\n    /* \"#utility.yul\":676:681   */\n  dup2\n    /* \"#utility.yul\":649:682   */\n  tag_13\n  jump\t// in\ntag_25:\n    /* \"#utility.yul\":545:688   */\n  swap3\n  swap2\n  pop\n  pop\n  jump\t// out\n    /* \"#utility.yul\":694:1357   */\ntag_3:\n    /* \"#utility.yul\":782:788   */\n  0x00\n    /* \"#utility.yul\":790:796   */\n  dup1\n    /* \"#utility.yul\":798:804   */\n  0x00\n    /* \"#utility.yul\":847:849   */\n  0x60\n    /* \"#utility.yul\":835:844   */\n  dup5\n    /* \"#utility.yul\":826:833   */\n  dup7\n    /* \"#utility.yul\":822:845   */\n  sub\n    /* \"#utility.yul\":818:850   */\n  slt\n    /* \"#utility.yul\":815:934   */\n  iszero\n  tag_27\n  jumpi\n    /* \"#utility.yul\":853:932   */\n  tag_28\n  tag_10\n  jump\t// in\ntag_28:\n    /* \"#utility.yul\":815:934   */\ntag_27:\n    /* \"#utility.yul\":973:974   */\n  0x00\n    /* \"#utility.yul\":998:1062   */\n  tag_29\n    /* \"#utility.yul\":1054:1061   */\n  dup7\n    /* \"#utility.yul\":1045:1051   */\n  dup3\n    /* \"#utility.yul\":1034:1043   */\n  dup8\n    /* \"#utility.yul\":1030:1052   */\n  add\n    /* \"#utility.yul\":998:1062   */\n  tag_14\n  jump\t// in\ntag_29:\n    /* \"#utility.yul\":988:1062   */\n  swap4\n  pop\n    /* \"#utility.yul\":944:1072   */\n  pop\n    /* \"#utility.yul\":1111:1113   */\n  0x20\n    /* \"#utility.yul\":1137:1201   */\n  tag_30\n    /* \"#utility.yul\":1193:1200   */\n  dup7\n    /* \"#utility.yul\":1184:1190   */\n  dup3\n    /* \"#utility.yul\":1173:1182   */\n  dup8\n    /* \"#utility.yul\":1169:1191   */\n  add\n    /* \"#utility.yul\":1137:1201   */\n  tag_14\n  jump\t// in\ntag_30:\n    /* \"#utility.yul\":1127:1201   */\n  swap3\n  pop\n    /* \"#utility.yul\":1082:1211   */\n  pop\n    /* \"#utility.yul\":1250:1252   */\n  0x40\n    /* \"#utility.yul\":1276:1340   */\n  tag_31\n    /* \"#utility.yul\":1332:1339   */\n  dup7\n    /* \"#utility.yul\":1323:1329   */\n  dup3\n    /* \"#utility.yul\":1312:1321   */\n  dup8\n    /* \"#utility.yul\":1308:1330   */\n  add\n    /* \"#utility.yul\":1276:1340   */\n  tag_14\n  jump\t// in\ntag_31:\n    /* \"#utility.yul\":1266:1340   */\n  swap2\n  pop\n    /* \"#utility.yul\":1221:1350   */\n  pop\n    /* \"#utility.yul\":694:1357   */\n  swap3\n  pop\n  swap3\n  pop\n  swap3\n  jump\t// out\n    /* \"#utility.yul\":1363:1543   */\ntag_15:\n    /* \"#utility.yul\":1411:1488   */\n  0x4e487b7100000000000000000000000000000000000000000000000000000000\n    /* \"#utility.yul\":1408:1409   */\n  0x00\n    /* \"#utility.yul\":1401:1489   */\n  mstore\n    /* \"#utility.yul\":1508:1512   */\n  0x11\n    /* \"#utility.yul\":1505:1506   */\n  0x04\n    /* \"#utility.yul\":1498:1513   */\n  mstore\n    /* \"#utility.yul\":1532:1536   */\n  0x24\n    /* \"#utility.yul\":1529:1530   */\n  0x00\n    /* \"#utility.yul\":1522:1537   */\n  revert\n    /* \"#utility.yul\":1549:1854   */\ntag_7:\n    /* \"#utility.yul\":1589:1592   */\n  0x00\n    /* \"#utility.yul\":1608:1628   */\n  tag_34\n    /* \"#utility.yul\":1626:1627   */\n  dup3\n    /* \"#utility.yul\":1608:1628   */\n  tag_12\n  jump\t// in\ntag_34:\n    /* \"#utility.yul\":1603:1628   */\n  swap2\n  pop\n    /* \"#utility.yul\":1642:1662   */\n  tag_35\n    /* \"#utility.yul\":1660:1661   */\n  dup4\n    /* \"#utility.yul\":1642:1662   */\n  tag_12\n  jump\t// in\ntag_35:\n    /* \"#utility.yul\":1637:1662   */\n  swap3\n  pop\n    /* \"#utility.yul\":1796:1797   */\n  dup3\n    /* \"#utility.yul\":1728:1794   */\n  0xffffffffffffffffffffffffffffffffffffffffffffffffffffffffffffffff\n    /* \"#utility.yul\":1724:1798   */\n  sub\n    /* \"#utility.yul\":1721:1722   */\n  dup3\n    /* \"#utility.yul\":1718:1799   */\n  gt\n    /* \"#utility.yul\":1715:1822   */\n  iszero\n  tag_36\n  jumpi\n    /* \"#utility.yul\":1802:1820   */\n  tag_37\n  tag_15\n  jump\t// in\ntag_37:\n    /* \"#utility.yul\":1715:1822   */\ntag_36:\n    /* \"#utility.yul\":1846:1847   */\n  dup3\n    /* \"#utility.yul\":1843:1844   */\n  dup3\n    /* \"#utility.yul\":1839:1848   */\n  add\n    /* \"#utility.yul\":1832:1848   */\n  swap1\n  pop\n    /* \"#utility.yul\":1549:1854   */\n  swap3\n  swap2\n  pop\n  pop\n  jump\t// out\n    /* \"contracts/Crowd_Funding/Crowd_Funding.sol\":59:1507  contract CrowdFunding {... */\ntag_8:\n  dataSize(sub_0)\n  dup1\n  dataOffset(sub_0)\n  0x00\n  codecopy\n  0x00\n  return\nstop\n\nsub_0: assembly {\n        /* \"contracts/Crowd_Funding/Crowd_Funding.sol\":59:1507  contract CrowdFunding {... */\n      mstore(0x40, 0x80)\n      jumpi(tag_1, lt(calldatasize, 0x04))\n      shr(0xe0, calldataload(0x00))\n      dup1\n      0x590e1ae3\n      gt\n      tag_13\n      jumpi\n      dup1\n      0x590e1ae3\n      eq\n      tag_7\n      jumpi\n      dup1\n      0x6f9fb98a\n      eq\n      tag_8\n      jumpi\n      dup1\n      0x937e09b1\n      eq\n      tag_9\n      jumpi\n      dup1\n      0xc59ee1dc\n      eq\n      tag_10\n      jumpi\n      dup1\n      0xd4b83992\n      eq\n      tag_11\n      jumpi\n      dup1\n      0xedf26d9b\n      eq\n      tag_12\n      jumpi\n      jump(tag_1)\n    tag_13:\n      dup1\n      0x06e99fef\n      eq\n      tag_2\n      jumpi\n      dup1\n      0x1f6d4942\n      eq\n      tag_3\n      jumpi\n      dup1\n      0x29dcb0cf\n      eq\n      tag_4\n      jumpi\n      dup1\n      0x481c6a75\n      eq\n      tag_5\n      jumpi\n      dup1\n      0x4e260f6f\n      eq\n      tag_6\n      jumpi\n    tag_1:\n      0x00\n      dup1\n      revert\n        /* \"contracts/Crowd_Funding/Crowd_Funding.sol\":613:1061  function sendEth() public payable {... */\n    tag_2:\n      tag_14\n      tag_15\n      jump\t// in\n    tag_14:\n      stop\n        /* \"contracts/Crowd_Funding/Crowd_Funding.sol\":316:359  mapping (address=>uint) public contributors */\n    tag_3:\n      callvalue\n      dup1\n      iszero\n      tag_16\n      jumpi\n      0x00\n      dup1\n      revert\n    tag_16:\n      pop\n      tag_17\n      0x04\n      dup1\n      calldatasize\n      sub\n      dup2\n      add\n      swap1\n      tag_18\n      swap2\n      swap1\n      tag_19\n      jump\t// in\n    tag_18:\n      tag_20\n      jump\t// in\n    tag_17:\n      mload(0x40)\n      tag_21\n      swap2\n      swap1\n      tag_22\n      jump\t// in\n    tag_21:\n      mload(0x40)\n      dup1\n      swap2\n      sub\n      swap1\n      return\n        /* \"contracts/Crowd_Funding/Crowd_Funding.sol\":155:175  uint public deadline */\n    tag_4:\n      callvalue\n      dup1\n      iszero\n      tag_23\n      jumpi\n      0x00\n      dup1\n      revert\n    tag_23:\n      pop\n      tag_24\n      tag_25\n      jump\t// in\n    tag_24:\n      mload(0x40)\n      tag_26\n      swap2\n      swap1\n      tag_22\n      jump\t// in\n    tag_26:\n      mload(0x40)\n      dup1\n      swap2\n      sub\n      swap1\n      return\n        /* \"contracts/Crowd_Funding/Crowd_Funding.sol\":88:110  address public manager */\n    tag_5:\n      callvalue\n      dup1\n      iszero\n      tag_27\n      jumpi\n      0x00\n      dup1\n      revert\n    tag_27:\n      pop\n      tag_28\n      tag_29\n      jump\t// in\n    tag_28:\n      mload(0x40)\n      tag_30\n      swap2\n      swap1\n      tag_31\n      jump\t// in\n    tag_30:\n      mload(0x40)\n      dup1\n      swap2\n      sub\n      swap1\n      return\n        /* \"contracts/Crowd_Funding/Crowd_Funding.sol\":238:266  uint public noOfContributors */\n    tag_6:\n      callvalue\n      dup1\n      iszero\n      tag_32\n      jumpi\n      0x00\n      dup1\n      revert\n    tag_32:\n      pop\n      tag_33\n      tag_34\n      jump\t// in\n    tag_33:\n      mload(0x40)\n      tag_35\n      swap2\n      swap1\n      tag_22\n      jump\t// in\n    tag_35:\n      mload(0x40)\n      dup1\n      swap2\n      sub\n      swap1\n      return\n        /* \"contracts/Crowd_Funding/Crowd_Funding.sol\":1183:1502  function refund() public {... */\n    tag_7:\n      callvalue\n      dup1\n      iszero\n      tag_36\n      jumpi\n      0x00\n      dup1\n      revert\n    tag_36:\n      pop\n      tag_37\n      tag_38\n      jump\t// in\n    tag_37:\n      stop\n        /* \"contracts/Crowd_Funding/Crowd_Funding.sol\":1069:1175  function getContractBalance() public view returns(uint256) {... */\n    tag_8:\n      callvalue\n      dup1\n      iszero\n      tag_39\n      jumpi\n      0x00\n      dup1\n      revert\n    tag_39:\n      pop\n      tag_40\n      tag_41\n      jump\t// in\n    tag_40:\n      mload(0x40)\n      tag_42\n      swap2\n      swap1\n      tag_22\n      jump\t// in\n    tag_42:\n      mload(0x40)\n      dup1\n      swap2\n      sub\n      swap1\n      return\n        /* \"contracts/Crowd_Funding/Crowd_Funding.sol\":117:148  uint public minimumContribution */\n    tag_9:\n      callvalue\n      dup1\n      iszero\n      tag_43\n      jumpi\n      0x00\n      dup1\n      revert\n    tag_43:\n      pop\n      tag_44\n      tag_45\n      jump\t// in\n    tag_44:\n      mload(0x40)\n      tag_46\n      swap2\n      swap1\n      tag_22\n      jump\t// in\n    tag_46:\n      mload(0x40)\n      dup1\n      swap2\n      sub\n      swap1\n      return\n        /* \"contracts/Crowd_Funding/Crowd_Funding.sol\":207:231  uint public raisedAmount */\n    tag_10:\n      callvalue\n      dup1\n      iszero\n      tag_47\n      jumpi\n      0x00\n      dup1\n      revert\n    tag_47:\n      pop\n      tag_48\n      tag_49\n      jump\t// in\n    tag_48:\n      mload(0x40)\n      tag_50\n      swap2\n      swap1\n      tag_22\n      jump\t// in\n    tag_50:\n      mload(0x40)\n      dup1\n      swap2\n      sub\n      swap1\n      return\n        /* \"contracts/Crowd_Funding/Crowd_Funding.sol\":182:200  uint public target */\n    tag_11:\n      callvalue\n      dup1\n      iszero\n      tag_51\n      jumpi\n      0x00\n      dup1\n      revert\n    tag_51:\n      pop\n      tag_52\n      tag_53\n      jump\t// in\n    tag_52:\n      mload(0x40)\n      tag_54\n      swap2\n      swap1\n      tag_22\n      jump\t// in\n    tag_54:\n      mload(0x40)\n      dup1\n      swap2\n      sub\n      swap1\n      return\n        /* \"contracts/Crowd_Funding/Crowd_Funding.sol\":273:307  address payable[] public addresses */\n    tag_12:\n      callvalue\n      dup1\n      iszero\n      tag_55\n      jumpi\n      0x00\n      dup1\n      revert\n    tag_55:\n      pop\n      tag_56\n      0x04\n      dup1\n      calldatasize\n      sub\n      dup2\n      add\n      swap1\n      tag_57\n      swap2\n      swap1\n      tag_58\n      jump\t// in\n    tag_57:\n      tag_59\n      jump\t// in\n    tag_56:\n      mload(0x40)\n      tag_60\n      swap2\n      swap1\n      tag_61\n      jump\t// in\n    tag_60:\n      mload(0x40)\n      dup1\n      swap2\n      sub\n      swap1\n      return\n        /* \"contracts/Crowd_Funding/Crowd_Funding.sol\":613:1061  function sendEth() public payable {... */\n    tag_15:\n        /* \"contracts/Crowd_Funding/Crowd_Funding.sol\":684:692  deadline */\n      sload(0x02)\n        /* \"contracts/Crowd_Funding/Crowd_Funding.sol\":666:681  block.timestamp */\n      timestamp\n        /* \"contracts/Crowd_Funding/Crowd_Funding.sol\":666:692  block.timestamp < deadline */\n      lt\n        /* \"contracts/Crowd_Funding/Crowd_Funding.sol\":658:715  require(block.timestamp < deadline,\"Deadline has passed\") */\n      tag_63\n      jumpi\n      mload(0x40)\n      0x08c379a000000000000000000000000000000000000000000000000000000000\n      dup2\n      mstore\n      0x04\n      add\n      tag_64\n      swap1\n      tag_65\n      jump\t// in\n    tag_64:\n      mload(0x40)\n      dup1\n      swap2\n      sub\n      swap1\n      revert\n    tag_63:\n        /* \"contracts/Crowd_Funding/Crowd_Funding.sol\":747:766  minimumContribution */\n      sload(0x01)\n        /* \"contracts/Crowd_Funding/Crowd_Funding.sol\":734:743  msg.value */\n      callvalue\n        /* \"contracts/Crowd_Funding/Crowd_Funding.sol\":734:766  msg.value >= minimumContribution */\n      lt\n      iszero\n        /* \"contracts/Crowd_Funding/Crowd_Funding.sol\":726:802  require(msg.value >= minimumContribution,\"Minimum contribution has not met\") */\n      tag_66\n      jumpi\n      mload(0x40)\n      0x08c379a000000000000000000000000000000000000000000000000000000000\n      dup2\n      mstore\n      0x04\n      add\n      tag_67\n      swap1\n      tag_68\n      jump\t// in\n    tag_67:\n      mload(0x40)\n      dup1\n      swap2\n      sub\n      swap1\n      revert\n    tag_66:\n        /* \"contracts/Crowd_Funding/Crowd_Funding.sol\":844:845  0 */\n      0x00\n        /* \"contracts/Crowd_Funding/Crowd_Funding.sol\":816:828  contributors */\n      0x07\n        /* \"contracts/Crowd_Funding/Crowd_Funding.sol\":816:840  contributors[msg.sender] */\n      0x00\n        /* \"contracts/Crowd_Funding/Crowd_Funding.sol\":829:839  msg.sender */\n      caller\n        /* \"contracts/Crowd_Funding/Crowd_Funding.sol\":816:840  contributors[msg.sender] */\n      0xffffffffffffffffffffffffffffffffffffffff\n      and\n      0xffffffffffffffffffffffffffffffffffffffff\n      and\n      dup2\n      mstore\n      0x20\n      add\n      swap1\n      dup2\n      mstore\n      0x20\n      add\n      0x00\n      keccak256\n      sload\n        /* \"contracts/Crowd_Funding/Crowd_Funding.sol\":816:845  contributors[msg.sender] == 0 */\n      sub\n        /* \"contracts/Crowd_Funding/Crowd_Funding.sol\":813:951  if(contributors[msg.sender] == 0)... */\n      tag_69\n      jumpi\n        /* \"contracts/Crowd_Funding/Crowd_Funding.sol\":871:887  noOfContributors */\n      0x05\n      0x00\n        /* \"contracts/Crowd_Funding/Crowd_Funding.sol\":871:889  noOfContributors++ */\n      dup2\n      sload\n      dup1\n      swap3\n      swap2\n      swap1\n      tag_70\n      swap1\n      tag_71\n      jump\t// in\n    tag_70:\n      swap2\n      swap1\n      pop\n      sstore\n      pop\n        /* \"contracts/Crowd_Funding/Crowd_Funding.sol\":904:913  addresses */\n      0x06\n        /* \"contracts/Crowd_Funding/Crowd_Funding.sol\":927:937  msg.sender */\n      caller\n        /* \"contracts/Crowd_Funding/Crowd_Funding.sol\":904:939  addresses.push(payable(msg.sender)) */\n      swap1\n      dup1\n      0x01\n      dup2\n      sload\n      add\n      dup1\n      dup3\n      sstore\n      dup1\n      swap2\n      pop\n      pop\n      0x01\n      swap1\n      sub\n      swap1\n      0x00\n      mstore\n      keccak256(0x00, 0x20)\n      add\n      0x00\n      swap1\n      swap2\n      swap1\n      swap2\n      swap1\n      swap2\n      0x0100\n      exp\n      dup2\n      sload\n      dup2\n      0xffffffffffffffffffffffffffffffffffffffff\n      mul\n      not\n      and\n      swap1\n      dup4\n      0xffffffffffffffffffffffffffffffffffffffff\n      and\n      mul\n      or\n      swap1\n      sstore\n      pop\n        /* \"contracts/Crowd_Funding/Crowd_Funding.sol\":813:951  if(contributors[msg.sender] == 0)... */\n    tag_69:\n        /* \"contracts/Crowd_Funding/Crowd_Funding.sol\":999:1008  msg.value */\n      callvalue\n        /* \"contracts/Crowd_Funding/Crowd_Funding.sol\":971:983  contributors */\n      0x07\n        /* \"contracts/Crowd_Funding/Crowd_Funding.sol\":971:995  contributors[msg.sender] */\n      0x00\n        /* \"contracts/Crowd_Funding/Crowd_Funding.sol\":984:994  msg.sender */\n      caller\n        /* \"contracts/Crowd_Funding/Crowd_Funding.sol\":971:995  contributors[msg.sender] */\n      0xffffffffffffffffffffffffffffffffffffffff\n      and\n      0xffffffffffffffffffffffffffffffffffffffff\n      and\n      dup2\n      mstore\n      0x20\n      add\n      swap1\n      dup2\n      mstore\n      0x20\n      add\n      0x00\n      keccak256\n      0x00\n        /* \"contracts/Crowd_Funding/Crowd_Funding.sol\":971:1008  contributors[msg.sender] += msg.value */\n      dup3\n      dup3\n      sload\n      tag_73\n      swap2\n      swap1\n      tag_74\n      jump\t// in\n    tag_73:\n      swap3\n      pop\n      pop\n      dup2\n      swap1\n      sstore\n      pop\n        /* \"contracts/Crowd_Funding/Crowd_Funding.sol\":1033:1042  msg.value */\n      callvalue\n        /* \"contracts/Crowd_Funding/Crowd_Funding.sol\":1019:1031  raisedAmount */\n      0x04\n      0x00\n        /* \"contracts/Crowd_Funding/Crowd_Funding.sol\":1019:1042  raisedAmount+=msg.value */\n      dup3\n      dup3\n      sload\n      tag_75\n      swap2\n      swap1\n      tag_74\n      jump\t// in\n    tag_75:\n      swap3\n      pop\n      pop\n      dup2\n      swap1\n      sstore\n      pop\n        /* \"contracts/Crowd_Funding/Crowd_Funding.sol\":613:1061  function sendEth() public payable {... */\n      jump\t// out\n        /* \"contracts/Crowd_Funding/Crowd_Funding.sol\":316:359  mapping (address=>uint) public contributors */\n    tag_20:\n      mstore(0x20, 0x07)\n      dup1\n      0x00\n      mstore\n      keccak256(0x00, 0x40)\n      0x00\n      swap2\n      pop\n      swap1\n      pop\n      sload\n      dup2\n      jump\t// out\n        /* \"contracts/Crowd_Funding/Crowd_Funding.sol\":155:175  uint public deadline */\n    tag_25:\n      sload(0x02)\n      dup2\n      jump\t// out\n        /* \"contracts/Crowd_Funding/Crowd_Funding.sol\":88:110  address public manager */\n    tag_29:\n      0x00\n      dup1\n      sload\n      swap1\n      0x0100\n      exp\n      swap1\n      div\n      0xffffffffffffffffffffffffffffffffffffffff\n      and\n      dup2\n      jump\t// out\n        /* \"contracts/Crowd_Funding/Crowd_Funding.sol\":238:266  uint public noOfContributors */\n    tag_34:\n      sload(0x05)\n      dup2\n      jump\t// out\n        /* \"contracts/Crowd_Funding/Crowd_Funding.sol\":1183:1502  function refund() public {... */\n    tag_38:\n        /* \"contracts/Crowd_Funding/Crowd_Funding.sol\":1238:1248  msg.sender */\n      caller\n        /* \"contracts/Crowd_Funding/Crowd_Funding.sol\":1227:1248  manager == msg.sender */\n      0xffffffffffffffffffffffffffffffffffffffff\n      and\n        /* \"contracts/Crowd_Funding/Crowd_Funding.sol\":1227:1234  manager */\n      0x00\n      dup1\n      sload\n      swap1\n      0x0100\n      exp\n      swap1\n      div\n      0xffffffffffffffffffffffffffffffffffffffff\n      and\n        /* \"contracts/Crowd_Funding/Crowd_Funding.sol\":1227:1248  manager == msg.sender */\n      0xffffffffffffffffffffffffffffffffffffffff\n      and\n      eq\n        /* \"contracts/Crowd_Funding/Crowd_Funding.sol\":1219:1276  require(manager == msg.sender,\"Only manager can refund.\") */\n      tag_77\n      jumpi\n      mload(0x40)\n      0x08c379a000000000000000000000000000000000000000000000000000000000\n      dup2\n      mstore\n      0x04\n      add\n      tag_78\n      swap1\n      tag_79\n      jump\t// in\n    tag_78:\n      mload(0x40)\n      dup1\n      swap2\n      sub\n      swap1\n      revert\n    tag_77:\n        /* \"contracts/Crowd_Funding/Crowd_Funding.sol\":1313:1321  deadline */\n      sload(0x02)\n        /* \"contracts/Crowd_Funding/Crowd_Funding.sol\":1295:1310  block.timestamp */\n      timestamp\n        /* \"contracts/Crowd_Funding/Crowd_Funding.sol\":1295:1321  block.timestamp > deadline */\n      gt\n        /* \"contracts/Crowd_Funding/Crowd_Funding.sol\":1287:1352  require(block.timestamp > deadline,\"Deadline has not yet passed\") */\n      tag_80\n      jumpi\n      mload(0x40)\n      0x08c379a000000000000000000000000000000000000000000000000000000000\n      dup2\n      mstore\n      0x04\n      add\n      tag_81\n      swap1\n      tag_82\n      jump\t// in\n    tag_81:\n      mload(0x40)\n      dup1\n      swap2\n      sub\n      swap1\n      revert\n    tag_80:\n        /* \"contracts/Crowd_Funding/Crowd_Funding.sol\":1369:1375  uint i */\n      0x00\n        /* \"contracts/Crowd_Funding/Crowd_Funding.sol\":1365:1493  for(uint i=0 ; i < noOfContributors ; i++)... */\n    tag_83:\n        /* \"contracts/Crowd_Funding/Crowd_Funding.sol\":1384:1400  noOfContributors */\n      sload(0x05)\n        /* \"contracts/Crowd_Funding/Crowd_Funding.sol\":1380:1381  i */\n      dup2\n        /* \"contracts/Crowd_Funding/Crowd_Funding.sol\":1380:1400  i < noOfContributors */\n      lt\n        /* \"contracts/Crowd_Funding/Crowd_Funding.sol\":1365:1493  for(uint i=0 ; i < noOfContributors ; i++)... */\n      iszero\n      tag_84\n      jumpi\n        /* \"contracts/Crowd_Funding/Crowd_Funding.sol\":1432:1441  addresses */\n      0x06\n        /* \"contracts/Crowd_Funding/Crowd_Funding.sol\":1442:1443  i */\n      dup2\n        /* \"contracts/Crowd_Funding/Crowd_Funding.sol\":1432:1444  addresses[i] */\n      dup2\n      sload\n      dup2\n      lt\n      tag_86\n      jumpi\n      tag_87\n      tag_88\n      jump\t// in\n    tag_87:\n    tag_86:\n      swap1\n      0x00\n      mstore\n      keccak256(0x00, 0x20)\n      add\n      0x00\n      swap1\n      sload\n      swap1\n      0x0100\n      exp\n      swap1\n      div\n      0xffffffffffffffffffffffffffffffffffffffff\n      and\n        /* \"contracts/Crowd_Funding/Crowd_Funding.sol\":1432:1453  addresses[i].transfer */\n      0xffffffffffffffffffffffffffffffffffffffff\n      and\n        /* \"contracts/Crowd_Funding/Crowd_Funding.sol\":1432:1481  addresses[i].transfer(contributors[addresses[i]]) */\n      0x08fc\n        /* \"contracts/Crowd_Funding/Crowd_Funding.sol\":1454:1466  contributors */\n      0x07\n        /* \"contracts/Crowd_Funding/Crowd_Funding.sol\":1454:1480  contributors[addresses[i]] */\n      0x00\n        /* \"contracts/Crowd_Funding/Crowd_Funding.sol\":1467:1476  addresses */\n      0x06\n        /* \"contracts/Crowd_Funding/Crowd_Funding.sol\":1477:1478  i */\n      dup6\n        /* \"contracts/Crowd_Funding/Crowd_Funding.sol\":1467:1479  addresses[i] */\n      dup2\n      sload\n      dup2\n      lt\n      tag_90\n      jumpi\n      tag_91\n      tag_88\n      jump\t// in\n    tag_91:\n    tag_90:\n      swap1\n      0x00\n      mstore\n      keccak256(0x00, 0x20)\n      add\n      0x00\n      swap1\n      sload\n      swap1\n      0x0100\n      exp\n      swap1\n      div\n      0xffffffffffffffffffffffffffffffffffffffff\n      and\n        /* \"contracts/Crowd_Funding/Crowd_Funding.sol\":1454:1480  contributors[addresses[i]] */\n      0xffffffffffffffffffffffffffffffffffffffff\n      and\n      0xffffffffffffffffffffffffffffffffffffffff\n      and\n      dup2\n      mstore\n      0x20\n      add\n      swap1\n      dup2\n      mstore\n      0x20\n      add\n      0x00\n      keccak256\n      sload\n        /* \"contracts/Crowd_Funding/Crowd_Funding.sol\":1432:1481  addresses[i].transfer(contributors[addresses[i]]) */\n      swap1\n      dup2\n      iszero\n      mul\n      swap1\n      mload(0x40)\n      0x00\n      mload(0x40)\n      dup1\n      dup4\n      sub\n      dup2\n      dup6\n      dup9\n      dup9\n      call\n      swap4\n      pop\n      pop\n      pop\n      pop\n      iszero\n      dup1\n      iszero\n      tag_94\n      jumpi\n      returndatasize\n      0x00\n      dup1\n      returndatacopy\n      revert(0x00, returndatasize)\n    tag_94:\n      pop\n        /* \"contracts/Crowd_Funding/Crowd_Funding.sol\":1403:1406  i++ */\n      dup1\n      dup1\n      tag_95\n      swap1\n      tag_71\n      jump\t// in\n    tag_95:\n      swap2\n      pop\n      pop\n        /* \"contracts/Crowd_Funding/Crowd_Funding.sol\":1365:1493  for(uint i=0 ; i < noOfContributors ; i++)... */\n      jump(tag_83)\n    tag_84:\n      pop\n        /* \"contracts/Crowd_Funding/Crowd_Funding.sol\":1183:1502  function refund() public {... */\n      jump\t// out\n        /* \"contracts/Crowd_Funding/Crowd_Funding.sol\":1069:1175  function getContractBalance() public view returns(uint256) {... */\n    tag_41:\n        /* \"contracts/Crowd_Funding/Crowd_Funding.sol\":1119:1126  uint256 */\n      0x00\n        /* \"contracts/Crowd_Funding/Crowd_Funding.sol\":1146:1167  address(this).balance */\n      selfbalance\n        /* \"contracts/Crowd_Funding/Crowd_Funding.sol\":1139:1167  return address(this).balance */\n      swap1\n      pop\n        /* \"contracts/Crowd_Funding/Crowd_Funding.sol\":1069:1175  function getContractBalance() public view returns(uint256) {... */\n      swap1\n      jump\t// out\n        /* \"contracts/Crowd_Funding/Crowd_Funding.sol\":117:148  uint public minimumContribution */\n    tag_45:\n      sload(0x01)\n      dup2\n      jump\t// out\n        /* \"contracts/Crowd_Funding/Crowd_Funding.sol\":207:231  uint public raisedAmount */\n    tag_49:\n      sload(0x04)\n      dup2\n      jump\t// out\n        /* \"contracts/Crowd_Funding/Crowd_Funding.sol\":182:200  uint public target */\n    tag_53:\n      sload(0x03)\n      dup2\n      jump\t// out\n        /* \"contracts/Crowd_Funding/Crowd_Funding.sol\":273:307  address payable[] public addresses */\n    tag_59:\n      0x06\n      dup2\n      dup2\n      sload\n      dup2\n      lt\n      tag_97\n      jumpi\n      0x00\n      dup1\n      revert\n    tag_97:\n      swap1\n      0x00\n      mstore\n      keccak256(0x00, 0x20)\n      add\n      0x00\n      swap2\n      pop\n      sload\n      swap1\n      0x0100\n      exp\n      swap1\n      div\n      0xffffffffffffffffffffffffffffffffffffffff\n      and\n      dup2\n      jump\t// out\n        /* \"#utility.yul\":88:205   */\n    tag_100:\n        /* \"#utility.yul\":197:198   */\n      0x00\n        /* \"#utility.yul\":194:195   */\n      dup1\n        /* \"#utility.yul\":187:199   */\n      revert\n        /* \"#utility.yul\":334:460   */\n    tag_102:\n        /* \"#utility.yul\":371:378   */\n      0x00\n        /* \"#utility.yul\":411:453   */\n      0xffffffffffffffffffffffffffffffffffffffff\n        /* \"#utility.yul\":404:409   */\n      dup3\n        /* \"#utility.yul\":400:454   */\n      and\n        /* \"#utility.yul\":389:454   */\n      swap1\n      pop\n        /* \"#utility.yul\":334:460   */\n      swap2\n      swap1\n      pop\n      jump\t// out\n        /* \"#utility.yul\":466:562   */\n    tag_103:\n        /* \"#utility.yul\":503:510   */\n      0x00\n        /* \"#utility.yul\":532:556   */\n      tag_129\n        /* \"#utility.yul\":550:555   */\n      dup3\n        /* \"#utility.yul\":532:556   */\n      tag_102\n      jump\t// in\n    tag_129:\n        /* \"#utility.yul\":521:556   */\n      swap1\n      pop\n        /* \"#utility.yul\":466:562   */\n      swap2\n      swap1\n      pop\n      jump\t// out\n        /* \"#utility.yul\":568:690   */\n    tag_104:\n        /* \"#utility.yul\":641:665   */\n      tag_131\n        /* \"#utility.yul\":659:664   */\n      dup2\n        /* \"#utility.yul\":641:665   */\n      tag_103\n      jump\t// in\n    tag_131:\n        /* \"#utility.yul\":634:639   */\n      dup2\n        /* \"#utility.yul\":631:666   */\n      eq\n        /* \"#utility.yul\":621:684   */\n      tag_132\n      jumpi\n        /* \"#utility.yul\":680:681   */\n      0x00\n        /* \"#utility.yul\":677:678   */\n      dup1\n        /* \"#utility.yul\":670:682   */\n      revert\n        /* \"#utility.yul\":621:684   */\n    tag_132:\n        /* \"#utility.yul\":568:690   */\n      pop\n      jump\t// out\n        /* \"#utility.yul\":696:835   */\n    tag_105:\n        /* \"#utility.yul\":742:747   */\n      0x00\n        /* \"#utility.yul\":780:786   */\n      dup2\n        /* \"#utility.yul\":767:787   */\n      calldataload\n        /* \"#utility.yul\":758:787   */\n      swap1\n      pop\n        /* \"#utility.yul\":796:829   */\n      tag_134\n        /* \"#utility.yul\":823:828   */\n      dup2\n        /* \"#utility.yul\":796:829   */\n      tag_104\n      jump\t// in\n    tag_134:\n        /* \"#utility.yul\":696:835   */\n      swap3\n      swap2\n      pop\n      pop\n      jump\t// out\n        /* \"#utility.yul\":841:1170   */\n    tag_19:\n        /* \"#utility.yul\":900:906   */\n      0x00\n        /* \"#utility.yul\":949:951   */\n      0x20\n        /* \"#utility.yul\":937:946   */\n      dup3\n        /* \"#utility.yul\":928:935   */\n      dup5\n        /* \"#utility.yul\":924:947   */\n      sub\n        /* \"#utility.yul\":920:952   */\n      slt\n        /* \"#utility.yul\":917:1036   */\n      iszero\n      tag_136\n      jumpi\n        /* \"#utility.yul\":955:1034   */\n      tag_137\n      tag_100\n      jump\t// in\n    tag_137:\n        /* \"#utility.yul\":917:1036   */\n    tag_136:\n        /* \"#utility.yul\":1075:1076   */\n      0x00\n        /* \"#utility.yul\":1100:1153   */\n      tag_138\n        /* \"#utility.yul\":1145:1152   */\n      dup5\n        /* \"#utility.yul\":1136:1142   */\n      dup3\n        /* \"#utility.yul\":1125:1134   */\n      dup6\n        /* \"#utility.yul\":1121:1143   */\n      add\n        /* \"#utility.yul\":1100:1153   */\n      tag_105\n      jump\t// in\n    tag_138:\n        /* \"#utility.yul\":1090:1153   */\n      swap2\n      pop\n        /* \"#utility.yul\":1046:1163   */\n      pop\n        /* \"#utility.yul\":841:1170   */\n      swap3\n      swap2\n      pop\n      pop\n      jump\t// out\n        /* \"#utility.yul\":1176:1253   */\n    tag_106:\n        /* \"#utility.yul\":1213:1220   */\n      0x00\n        /* \"#utility.yul\":1242:1247   */\n      dup2\n        /* \"#utility.yul\":1231:1247   */\n      swap1\n      pop\n        /* \"#utility.yul\":1176:1253   */\n      swap2\n      swap1\n      pop\n      jump\t// out\n        /* \"#utility.yul\":1259:1377   */\n    tag_107:\n        /* \"#utility.yul\":1346:1370   */\n      tag_141\n        /* \"#utility.yul\":1364:1369   */\n      dup2\n        /* \"#utility.yul\":1346:1370   */\n      tag_106\n      jump\t// in\n    tag_141:\n        /* \"#utility.yul\":1341:1344   */\n      dup3\n        /* \"#utility.yul\":1334:1371   */\n      mstore\n        /* \"#utility.yul\":1259:1377   */\n      pop\n      pop\n      jump\t// out\n        /* \"#utility.yul\":1383:1605   */\n    tag_22:\n        /* \"#utility.yul\":1476:1480   */\n      0x00\n        /* \"#utility.yul\":1514:1516   */\n      0x20\n        /* \"#utility.yul\":1503:1512   */\n      dup3\n        /* \"#utility.yul\":1499:1517   */\n      add\n        /* \"#utility.yul\":1491:1517   */\n      swap1\n      pop\n        /* \"#utility.yul\":1527:1598   */\n      tag_143\n        /* \"#utility.yul\":1595:1596   */\n      0x00\n        /* \"#utility.yul\":1584:1593   */\n      dup4\n        /* \"#utility.yul\":1580:1597   */\n      add\n        /* \"#utility.yul\":1571:1577   */\n      dup5\n        /* \"#utility.yul\":1527:1598   */\n      tag_107\n      jump\t// in\n    tag_143:\n        /* \"#utility.yul\":1383:1605   */\n      swap3\n      swap2\n      pop\n      pop\n      jump\t// out\n        /* \"#utility.yul\":1611:1729   */\n    tag_108:\n        /* \"#utility.yul\":1698:1722   */\n      tag_145\n        /* \"#utility.yul\":1716:1721   */\n      dup2\n        /* \"#utility.yul\":1698:1722   */\n      tag_103\n      jump\t// in\n    tag_145:\n        /* \"#utility.yul\":1693:1696   */\n      dup3\n        /* \"#utility.yul\":1686:1723   */\n      mstore\n        /* \"#utility.yul\":1611:1729   */\n      pop\n      pop\n      jump\t// out\n        /* \"#utility.yul\":1735:1957   */\n    tag_31:\n        /* \"#utility.yul\":1828:1832   */\n      0x00\n        /* \"#utility.yul\":1866:1868   */\n      0x20\n        /* \"#utility.yul\":1855:1864   */\n      dup3\n        /* \"#utility.yul\":1851:1869   */\n      add\n        /* \"#utility.yul\":1843:1869   */\n      swap1\n      pop\n        /* \"#utility.yul\":1879:1950   */\n      tag_147\n        /* \"#utility.yul\":1947:1948   */\n      0x00\n        /* \"#utility.yul\":1936:1945   */\n      dup4\n        /* \"#utility.yul\":1932:1949   */\n      add\n        /* \"#utility.yul\":1923:1929   */\n      dup5\n        /* \"#utility.yul\":1879:1950   */\n      tag_108\n      jump\t// in\n    tag_147:\n        /* \"#utility.yul\":1735:1957   */\n      swap3\n      swap2\n      pop\n      pop\n      jump\t// out\n        /* \"#utility.yul\":1963:2085   */\n    tag_109:\n        /* \"#utility.yul\":2036:2060   */\n      tag_149\n        /* \"#utility.yul\":2054:2059   */\n      dup2\n        /* \"#utility.yul\":2036:2060   */\n      tag_106\n      jump\t// in\n    tag_149:\n        /* \"#utility.yul\":2029:2034   */\n      dup2\n        /* \"#utility.yul\":2026:2061   */\n      eq\n        /* \"#utility.yul\":2016:2079   */\n      tag_150\n      jumpi\n        /* \"#utility.yul\":2075:2076   */\n      0x00\n        /* \"#utility.yul\":2072:2073   */\n      dup1\n        /* \"#utility.yul\":2065:2077   */\n      revert\n        /* \"#utility.yul\":2016:2079   */\n    tag_150:\n        /* \"#utility.yul\":1963:2085   */\n      pop\n      jump\t// out\n        /* \"#utility.yul\":2091:2230   */\n    tag_110:\n        /* \"#utility.yul\":2137:2142   */\n      0x00\n        /* \"#utility.yul\":2175:2181   */\n      dup2\n        /* \"#utility.yul\":2162:2182   */\n      calldataload\n        /* \"#utility.yul\":2153:2182   */\n      swap1\n      pop\n        /* \"#utility.yul\":2191:2224   */\n      tag_152\n        /* \"#utility.yul\":2218:2223   */\n      dup2\n        /* \"#utility.yul\":2191:2224   */\n      tag_109\n      jump\t// in\n    tag_152:\n        /* \"#utility.yul\":2091:2230   */\n      swap3\n      swap2\n      pop\n      pop\n      jump\t// out\n        /* \"#utility.yul\":2236:2565   */\n    tag_58:\n        /* \"#utility.yul\":2295:2301   */\n      0x00\n        /* \"#utility.yul\":2344:2346   */\n      0x20\n        /* \"#utility.yul\":2332:2341   */\n      dup3\n        /* \"#utility.yul\":2323:2330   */\n      dup5\n        /* \"#utility.yul\":2319:2342   */\n      sub\n        /* \"#utility.yul\":2315:2347   */\n      slt\n        /* \"#utility.yul\":2312:2431   */\n      iszero\n      tag_154\n      jumpi\n        /* \"#utility.yul\":2350:2429   */\n      tag_155\n      tag_100\n      jump\t// in\n    tag_155:\n        /* \"#utility.yul\":2312:2431   */\n    tag_154:\n        /* \"#utility.yul\":2470:2471   */\n      0x00\n        /* \"#utility.yul\":2495:2548   */\n      tag_156\n        /* \"#utility.yul\":2540:2547   */\n      dup5\n        /* \"#utility.yul\":2531:2537   */\n      dup3\n        /* \"#utility.yul\":2520:2529   */\n      dup6\n        /* \"#utility.yul\":2516:2538   */\n      add\n        /* \"#utility.yul\":2495:2548   */\n      tag_110\n      jump\t// in\n    tag_156:\n        /* \"#utility.yul\":2485:2548   */\n      swap2\n      pop\n        /* \"#utility.yul\":2441:2558   */\n      pop\n        /* \"#utility.yul\":2236:2565   */\n      swap3\n      swap2\n      pop\n      pop\n      jump\t// out\n        /* \"#utility.yul\":2571:2675   */\n    tag_111:\n        /* \"#utility.yul\":2616:2623   */\n      0x00\n        /* \"#utility.yul\":2645:2669   */\n      tag_158\n        /* \"#utility.yul\":2663:2668   */\n      dup3\n        /* \"#utility.yul\":2645:2669   */\n      tag_102\n      jump\t// in\n    tag_158:\n        /* \"#utility.yul\":2634:2669   */\n      swap1\n      pop\n        /* \"#utility.yul\":2571:2675   */\n      swap2\n      swap1\n      pop\n      jump\t// out\n        /* \"#utility.yul\":2681:2823   */\n    tag_112:\n        /* \"#utility.yul\":2784:2816   */\n      tag_160\n        /* \"#utility.yul\":2810:2815   */\n      dup2\n        /* \"#utility.yul\":2784:2816   */\n      tag_111\n      jump\t// in\n    tag_160:\n        /* \"#utility.yul\":2779:2782   */\n      dup3\n        /* \"#utility.yul\":2772:2817   */\n      mstore\n        /* \"#utility.yul\":2681:2823   */\n      pop\n      pop\n      jump\t// out\n        /* \"#utility.yul\":2829:3083   */\n    tag_61:\n        /* \"#utility.yul\":2938:2942   */\n      0x00\n        /* \"#utility.yul\":2976:2978   */\n      0x20\n        /* \"#utility.yul\":2965:2974   */\n      dup3\n        /* \"#utility.yul\":2961:2979   */\n      add\n        /* \"#utility.yul\":2953:2979   */\n      swap1\n      pop\n        /* \"#utility.yul\":2989:3076   */\n      tag_162\n        /* \"#utility.yul\":3073:3074   */\n      0x00\n        /* \"#utility.yul\":3062:3071   */\n      dup4\n        /* \"#utility.yul\":3058:3075   */\n      add\n        /* \"#utility.yul\":3049:3055   */\n      dup5\n        /* \"#utility.yul\":2989:3076   */\n      tag_112\n      jump\t// in\n    tag_162:\n        /* \"#utility.yul\":2829:3083   */\n      swap3\n      swap2\n      pop\n      pop\n      jump\t// out\n        /* \"#utility.yul\":3089:3258   */\n    tag_113:\n        /* \"#utility.yul\":3173:3184   */\n      0x00\n        /* \"#utility.yul\":3207:3213   */\n      dup3\n        /* \"#utility.yul\":3202:3205   */\n      dup3\n        /* \"#utility.yul\":3195:3214   */\n      mstore\n        /* \"#utility.yul\":3247:3251   */\n      0x20\n        /* \"#utility.yul\":3242:3245   */\n      dup3\n        /* \"#utility.yul\":3238:3252   */\n      add\n        /* \"#utility.yul\":3223:3252   */\n      swap1\n      pop\n        /* \"#utility.yul\":3089:3258   */\n      swap3\n      swap2\n      pop\n      pop\n      jump\t// out\n        /* \"#utility.yul\":3264:3433   */\n    tag_114:\n        /* \"#utility.yul\":3404:3425   */\n      0x446561646c696e65206861732070617373656400000000000000000000000000\n        /* \"#utility.yul\":3400:3401   */\n      0x00\n        /* \"#utility.yul\":3392:3398   */\n      dup3\n        /* \"#utility.yul\":3388:3402   */\n      add\n        /* \"#utility.yul\":3381:3426   */\n      mstore\n        /* \"#utility.yul\":3264:3433   */\n      pop\n      jump\t// out\n        /* \"#utility.yul\":3439:3805   */\n    tag_115:\n        /* \"#utility.yul\":3581:3584   */\n      0x00\n        /* \"#utility.yul\":3602:3669   */\n      tag_166\n        /* \"#utility.yul\":3666:3668   */\n      0x13\n        /* \"#utility.yul\":3661:3664   */\n      dup4\n        /* \"#utility.yul\":3602:3669   */\n      tag_113\n      jump\t// in\n    tag_166:\n        /* \"#utility.yul\":3595:3669   */\n      swap2\n      pop\n        /* \"#utility.yul\":3678:3771   */\n      tag_167\n        /* \"#utility.yul\":3767:3770   */\n      dup3\n        /* \"#utility.yul\":3678:3771   */\n      tag_114\n      jump\t// in\n    tag_167:\n        /* \"#utility.yul\":3796:3798   */\n      0x20\n        /* \"#utility.yul\":3791:3794   */\n      dup3\n        /* \"#utility.yul\":3787:3799   */\n      add\n        /* \"#utility.yul\":3780:3799   */\n      swap1\n      pop\n        /* \"#utility.yul\":3439:3805   */\n      swap2\n      swap1\n      pop\n      jump\t// out\n        /* \"#utility.yul\":3811:4230   */\n    tag_65:\n        /* \"#utility.yul\":3977:3981   */\n      0x00\n        /* \"#utility.yul\":4015:4017   */\n      0x20\n        /* \"#utility.yul\":4004:4013   */\n      dup3\n        /* \"#utility.yul\":4000:4018   */\n      add\n        /* \"#utility.yul\":3992:4018   */\n      swap1\n      pop\n        /* \"#utility.yul\":4064:4073   */\n      dup2\n        /* \"#utility.yul\":4058:4062   */\n      dup2\n        /* \"#utility.yul\":4054:4074   */\n      sub\n        /* \"#utility.yul\":4050:4051   */\n      0x00\n        /* \"#utility.yul\":4039:4048   */\n      dup4\n        /* \"#utility.yul\":4035:4052   */\n      add\n        /* \"#utility.yul\":4028:4075   */\n      mstore\n        /* \"#utility.yul\":4092:4223   */\n      tag_169\n        /* \"#utility.yul\":4218:4222   */\n      dup2\n        /* \"#utility.yul\":4092:4223   */\n      tag_115\n      jump\t// in\n    tag_169:\n        /* \"#utility.yul\":4084:4223   */\n      swap1\n      pop\n        /* \"#utility.yul\":3811:4230   */\n      swap2\n      swap1\n      pop\n      jump\t// out\n        /* \"#utility.yul\":4236:4418   */\n    tag_116:\n        /* \"#utility.yul\":4376:4410   */\n      0x4d696e696d756d20636f6e747269627574696f6e20686173206e6f74206d6574\n        /* \"#utility.yul\":4372:4373   */\n      0x00\n        /* \"#utility.yul\":4364:4370   */\n      dup3\n        /* \"#utility.yul\":4360:4374   */\n      add\n        /* \"#utility.yul\":4353:4411   */\n      mstore\n        /* \"#utility.yul\":4236:4418   */\n      pop\n      jump\t// out\n        /* \"#utility.yul\":4424:4790   */\n    tag_117:\n        /* \"#utility.yul\":4566:4569   */\n      0x00\n        /* \"#utility.yul\":4587:4654   */\n      tag_172\n        /* \"#utility.yul\":4651:4653   */\n      0x20\n        /* \"#utility.yul\":4646:4649   */\n      dup4\n        /* \"#utility.yul\":4587:4654   */\n      tag_113\n      jump\t// in\n    tag_172:\n        /* \"#utility.yul\":4580:4654   */\n      swap2\n      pop\n        /* \"#utility.yul\":4663:4756   */\n      tag_173\n        /* \"#utility.yul\":4752:4755   */\n      dup3\n        /* \"#utility.yul\":4663:4756   */\n      tag_116\n      jump\t// in\n    tag_173:\n        /* \"#utility.yul\":4781:4783   */\n      0x20\n        /* \"#utility.yul\":4776:4779   */\n      dup3\n        /* \"#utility.yul\":4772:4784   */\n      add\n        /* \"#utility.yul\":4765:4784   */\n      swap1\n      pop\n        /* \"#utility.yul\":4424:4790   */\n      swap2\n      swap1\n      pop\n      jump\t// out\n        /* \"#utility.yul\":4796:5215   */\n    tag_68:\n        /* \"#utility.yul\":4962:4966   */\n      0x00\n        /* \"#utility.yul\":5000:5002   */\n      0x20\n        /* \"#utility.yul\":4989:4998   */\n      dup3\n        /* \"#utility.yul\":4985:5003   */\n      add\n        /* \"#utility.yul\":4977:5003   */\n      swap1\n      pop\n        /* \"#utility.yul\":5049:5058   */\n      dup2\n        /* \"#utility.yul\":5043:5047   */\n      dup2\n        /* \"#utility.yul\":5039:5059   */\n      sub\n        /* \"#utility.yul\":5035:5036   */\n      0x00\n        /* \"#utility.yul\":5024:5033   */\n      dup4\n        /* \"#utility.yul\":5020:5037   */\n      add\n        /* \"#utility.yul\":5013:5060   */\n      mstore\n        /* \"#utility.yul\":5077:5208   */\n      tag_175\n        /* \"#utility.yul\":5203:5207   */\n      dup2\n        /* \"#utility.yul\":5077:5208   */\n      tag_117\n      jump\t// in\n    tag_175:\n        /* \"#utility.yul\":5069:5208   */\n      swap1\n      pop\n        /* \"#utility.yul\":4796:5215   */\n      swap2\n      swap1\n      pop\n      jump\t// out\n        /* \"#utility.yul\":5221:5401   */\n    tag_118:\n        /* \"#utility.yul\":5269:5346   */\n      0x4e487b7100000000000000000000000000000000000000000000000000000000\n        /* \"#utility.yul\":5266:5267   */\n      0x00\n        /* \"#utility.yul\":5259:5347   */\n      mstore\n        /* \"#utility.yul\":5366:5370   */\n      0x11\n        /* \"#utility.yul\":5363:5364   */\n      0x04\n        /* \"#utility.yul\":5356:5371   */\n      mstore\n        /* \"#utility.yul\":5390:5394   */\n      0x24\n        /* \"#utility.yul\":5387:5388   */\n      0x00\n        /* \"#utility.yul\":5380:5395   */\n      revert\n        /* \"#utility.yul\":5407:5640   */\n    tag_71:\n        /* \"#utility.yul\":5446:5449   */\n      0x00\n        /* \"#utility.yul\":5469:5493   */\n      tag_178\n        /* \"#utility.yul\":5487:5492   */\n      dup3\n        /* \"#utility.yul\":5469:5493   */\n      tag_106\n      jump\t// in\n    tag_178:\n        /* \"#utility.yul\":5460:5493   */\n      swap2\n      pop\n        /* \"#utility.yul\":5515:5581   */\n      0xffffffffffffffffffffffffffffffffffffffffffffffffffffffffffffffff\n        /* \"#utility.yul\":5508:5513   */\n      dup3\n        /* \"#utility.yul\":5505:5582   */\n      sub\n        /* \"#utility.yul\":5502:5605   */\n      tag_179\n      jumpi\n        /* \"#utility.yul\":5585:5603   */\n      tag_180\n      tag_118\n      jump\t// in\n    tag_180:\n        /* \"#utility.yul\":5502:5605   */\n    tag_179:\n        /* \"#utility.yul\":5632:5633   */\n      0x01\n        /* \"#utility.yul\":5625:5630   */\n      dup3\n        /* \"#utility.yul\":5621:5634   */\n      add\n        /* \"#utility.yul\":5614:5634   */\n      swap1\n      pop\n        /* \"#utility.yul\":5407:5640   */\n      swap2\n      swap1\n      pop\n      jump\t// out\n        /* \"#utility.yul\":5646:5951   */\n    tag_74:\n        /* \"#utility.yul\":5686:5689   */\n      0x00\n        /* \"#utility.yul\":5705:5725   */\n      tag_182\n        /* \"#utility.yul\":5723:5724   */\n      dup3\n        /* \"#utility.yul\":5705:5725   */\n      tag_106\n      jump\t// in\n    tag_182:\n        /* \"#utility.yul\":5700:5725   */\n      swap2\n      pop\n        /* \"#utility.yul\":5739:5759   */\n      tag_183\n        /* \"#utility.yul\":5757:5758   */\n      dup4\n        /* \"#utility.yul\":5739:5759   */\n      tag_106\n      jump\t// in\n    tag_183:\n        /* \"#utility.yul\":5734:5759   */\n      swap3\n      pop\n        /* \"#utility.yul\":5893:5894   */\n      dup3\n        /* \"#utility.yul\":5825:5891   */\n      0xffffffffffffffffffffffffffffffffffffffffffffffffffffffffffffffff\n        /* \"#utility.yul\":5821:5895   */\n      sub\n        /* \"#utility.yul\":5818:5819   */\n      dup3\n        /* \"#utility.yul\":5815:5896   */\n      gt\n        /* \"#utility.yul\":5812:5919   */\n      iszero\n      tag_184\n      jumpi\n        /* \"#utility.yul\":5899:5917   */\n      tag_185\n      tag_118\n      jump\t// in\n    tag_185:\n        /* \"#utility.yul\":5812:5919   */\n    tag_184:\n        /* \"#utility.yul\":5943:5944   */\n      dup3\n        /* \"#utility.yul\":5940:5941   */\n      dup3\n        /* \"#utility.yul\":5936:5945   */\n      add\n        /* \"#utility.yul\":5929:5945   */\n      swap1\n      pop\n        /* \"#utility.yul\":5646:5951   */\n      swap3\n      swap2\n      pop\n      pop\n      jump\t// out\n        /* \"#utility.yul\":5957:6131   */\n    tag_119:\n        /* \"#utility.yul\":6097:6123   */\n      0x4f6e6c79206d616e616765722063616e20726566756e642e0000000000000000\n        /* \"#utility.yul\":6093:6094   */\n      0x00\n        /* \"#utility.yul\":6085:6091   */\n      dup3\n        /* \"#utility.yul\":6081:6095   */\n      add\n        /* \"#utility.yul\":6074:6124   */\n      mstore\n        /* \"#utility.yul\":5957:6131   */\n      pop\n      jump\t// out\n        /* \"#utility.yul\":6137:6503   */\n    tag_120:\n        /* \"#utility.yul\":6279:6282   */\n      0x00\n        /* \"#utility.yul\":6300:6367   */\n      tag_188\n        /* \"#utility.yul\":6364:6366   */\n      0x18\n        /* \"#utility.yul\":6359:6362   */\n      dup4\n        /* \"#utility.yul\":6300:6367   */\n      tag_113\n      jump\t// in\n    tag_188:\n        /* \"#utility.yul\":6293:6367   */\n      swap2\n      pop\n        /* \"#utility.yul\":6376:6469   */\n      tag_189\n        /* \"#utility.yul\":6465:6468   */\n      dup3\n        /* \"#utility.yul\":6376:6469   */\n      tag_119\n      jump\t// in\n    tag_189:\n        /* \"#utility.yul\":6494:6496   */\n      0x20\n        /* \"#utility.yul\":6489:6492   */\n      dup3\n        /* \"#utility.yul\":6485:6497   */\n      add\n        /* \"#utility.yul\":6478:6497   */\n      swap1\n      pop\n        /* \"#utility.yul\":6137:6503   */\n      swap2\n      swap1\n      pop\n      jump\t// out\n        /* \"#utility.yul\":6509:6928   */\n    tag_79:\n        /* \"#utility.yul\":6675:6679   */\n      0x00\n        /* \"#utility.yul\":6713:6715   */\n      0x20\n        /* \"#utility.yul\":6702:6711   */\n      dup3\n        /* \"#utility.yul\":6698:6716   */\n      add\n        /* \"#utility.yul\":6690:6716   */\n      swap1\n      pop\n        /* \"#utility.yul\":6762:6771   */\n      dup2\n        /* \"#utility.yul\":6756:6760   */\n      dup2\n        /* \"#utility.yul\":6752:6772   */\n      sub\n        /* \"#utility.yul\":6748:6749   */\n      0x00\n        /* \"#utility.yul\":6737:6746   */\n      dup4\n        /* \"#utility.yul\":6733:6750   */\n      add\n        /* \"#utility.yul\":6726:6773   */\n      mstore\n        /* \"#utility.yul\":6790:6921   */\n      tag_191\n        /* \"#utility.yul\":6916:6920   */\n      dup2\n        /* \"#utility.yul\":6790:6921   */\n      tag_120\n      jump\t// in\n    tag_191:\n        /* \"#utility.yul\":6782:6921   */\n      swap1\n      pop\n        /* \"#utility.yul\":6509:6928   */\n      swap2\n      swap1\n      pop\n      jump\t// out\n        /* \"#utility.yul\":6934:7111   */\n    tag_121:\n        /* \"#utility.yul\":7074:7103   */\n      0x446561646c696e6520686173206e6f7420796574207061737365640000000000\n        /* \"#utility.yul\":7070:7071   */\n      0x00\n        /* \"#utility.yul\":7062:7068   */\n      dup3\n        /* \"#utility.yul\":7058:7072   */\n      add\n        /* \"#utility.yul\":7051:7104   */\n      mstore\n        /* \"#utility.yul\":6934:7111   */\n      pop\n      jump\t// out\n        /* \"#utility.yul\":7117:7483   */\n    tag_122:\n        /* \"#utility.yul\":7259:7262   */\n      0x00\n        /* \"#utility.yul\":7280:7347   */\n      tag_194\n        /* \"#utility.yul\":7344:7346   */\n      0x1b\n        /* \"#utility.yul\":7339:7342   */\n      dup4\n        /* \"#utility.yul\":7280:7347   */\n      tag_113\n      jump\t// in\n    tag_194:\n        /* \"#utility.yul\":7273:7347   */\n      swap2\n      pop\n        /* \"#utility.yul\":7356:7449   */\n      tag_195\n        /* \"#utility.yul\":7445:7448   */\n      dup3\n        /* \"#utility.yul\":7356:7449   */\n      tag_121\n      jump\t// in\n    tag_195:\n        /* \"#utility.yul\":7474:7476   */\n      0x20\n        /* \"#utility.yul\":7469:7472   */\n      dup3\n        /* \"#utility.yul\":7465:7477   */\n      add\n        /* \"#utility.yul\":7458:7477   */\n      swap1\n      pop\n        /* \"#utility.yul\":7117:7483   */\n      swap2\n      swap1\n      pop\n      jump\t// out\n        /* \"#utility.yul\":7489:7908   */\n    tag_82:\n        /* \"#utility.yul\":7655:7659   */\n      0x00\n        /* \"#utility.yul\":7693:7695   */\n      0x20\n        /* \"#utility.yul\":7682:7691   */\n      dup3\n        /* \"#utility.yul\":7678:7696   */\n      add\n        /* \"#utility.yul\":7670:7696   */\n      swap1\n      pop\n        /* \"#utility.yul\":7742:7751   */\n      dup2\n        /* \"#utility.yul\":7736:7740   */\n      dup2\n        /* \"#utility.yul\":7732:7752   */\n      sub\n        /* \"#utility.yul\":7728:7729   */\n      0x00\n        /* \"#utility.yul\":7717:7726   */\n      dup4\n        /* \"#utility.yul\":7713:7730   */\n      add\n        /* \"#utility.yul\":7706:7753   */\n      mstore\n        /* \"#utility.yul\":7770:7901   */\n      tag_197\n        /* \"#utility.yul\":7896:7900   */\n      dup2\n        /* \"#utility.yul\":7770:7901   */\n      tag_122\n      jump\t// in\n    tag_197:\n        /* \"#utility.yul\":7762:7901   */\n      swap1\n      pop\n        /* \"#utility.yul\":7489:7908   */\n      swap2\n      swap1\n      pop\n      jump\t// out\n        /* \"#utility.yul\":7914:8094   */\n    tag_88:\n        /* \"#utility.yul\":7962:8039   */\n      0x4e487b7100000000000000000000000000000000000000000000000000000000\n        /* \"#utility.yul\":7959:7960   */\n      0x00\n        /* \"#utility.yul\":7952:8040   */\n      mstore\n        /* \"#utility.yul\":8059:8063   */\n      0x32\n        /* \"#utility.yul\":8056:8057   */\n      0x04\n        /* \"#utility.yul\":8049:8064   */\n      mstore\n        /* \"#utility.yul\":8083:8087   */\n      0x24\n        /* \"#utility.yul\":8080:8081   */\n      0x00\n        /* \"#utility.yul\":8073:8088   */\n      revert\n\n    auxdata: 0xa2646970667358221220286d10d440437458078061297f61bcb75cb9e881480ffd5ffcac1fc19665d6b064736f6c634300080d0033\n}\n",
				"bytecode": {
					"linkReferences": {},
					"object": "60806040523480156200001157600080fd5b5060405162000d0e38038062000d0e8339818101604052810190620000379190620000e2565b8260038190555081426200004c91906200016d565b60028190555080600181905550336000806101000a81548173ffffffffffffffffffffffffffffffffffffffff021916908373ffffffffffffffffffffffffffffffffffffffff160217905550505050620001ca565b600080fd5b6000819050919050565b620000bc81620000a7565b8114620000c857600080fd5b50565b600081519050620000dc81620000b1565b92915050565b600080600060608486031215620000fe57620000fd620000a2565b5b60006200010e86828701620000cb565b93505060206200012186828701620000cb565b92505060406200013486828701620000cb565b9150509250925092565b7f4e487b7100000000000000000000000000000000000000000000000000000000600052601160045260246000fd5b60006200017a82620000a7565b91506200018783620000a7565b9250827fffffffffffffffffffffffffffffffffffffffffffffffffffffffffffffffff03821115620001bf57620001be6200013e565b5b828201905092915050565b610b3480620001da6000396000f3fe60806040526004361061009c5760003560e01c8063590e1ae311610064578063590e1ae3146101695780636f9fb98a14610180578063937e09b1146101ab578063c59ee1dc146101d6578063d4b8399214610201578063edf26d9b1461022c5761009c565b806306e99fef146100a15780631f6d4942146100ab57806329dcb0cf146100e8578063481c6a75146101135780634e260f6f1461013e575b600080fd5b6100a9610269565b005b3480156100b757600080fd5b506100d260048036038101906100cd9190610721565b610426565b6040516100df9190610767565b60405180910390f35b3480156100f457600080fd5b506100fd61043e565b60405161010a9190610767565b60405180910390f35b34801561011f57600080fd5b50610128610444565b6040516101359190610791565b60405180910390f35b34801561014a57600080fd5b50610153610468565b6040516101609190610767565b60405180910390f35b34801561017557600080fd5b5061017e61046e565b005b34801561018c57600080fd5b50610195610665565b6040516101a29190610767565b60405180910390f35b3480156101b757600080fd5b506101c061066d565b6040516101cd9190610767565b60405180910390f35b3480156101e257600080fd5b506101eb610673565b6040516101f89190610767565b60405180910390f35b34801561020d57600080fd5b50610216610679565b6040516102239190610767565b60405180910390f35b34801561023857600080fd5b50610253600480360381019061024e91906107d8565b61067f565b6040516102609190610826565b60405180910390f35b60025442106102ad576040517f08c379a00000000000000000000000000000000000000000000000000000000081526004016102a49061089e565b60405180910390fd5b6001543410156102f2576040517f08c379a00000000000000000000000000000000000000000000000000000000081526004016102e99061090a565b60405180910390fd5b6000600760003373ffffffffffffffffffffffffffffffffffffffff1673ffffffffffffffffffffffffffffffffffffffff16815260200190815260200160002054036103b5576005600081548092919061034c90610959565b91905055506006339080600181540180825580915050600190039060005260206000200160009091909190916101000a81548173ffffffffffffffffffffffffffffffffffffffff021916908373ffffffffffffffffffffffffffffffffffffffff1602179055505b34600760003373ffffffffffffffffffffffffffffffffffffffff1673ffffffffffffffffffffffffffffffffffffffff168152602001908152602001600020600082825461040491906109a1565b92505081905550346004600082825461041d91906109a1565b92505081905550565b60076020528060005260406000206000915090505481565b60025481565b60008054906101000a900473ffffffffffffffffffffffffffffffffffffffff1681565b60055481565b3373ffffffffffffffffffffffffffffffffffffffff1660008054906101000a900473ffffffffffffffffffffffffffffffffffffffff1673ffffffffffffffffffffffffffffffffffffffff16146104fc576040517f08c379a00000000000000000000000000000000000000000000000000000000081526004016104f390610a43565b60405180910390fd5b6002544211610540576040517f08c379a000000000000000000000000000000000000000000000000000000000815260040161053790610aaf565b60405180910390fd5b60005b600554811015610662576006818154811061056157610560610acf565b5b9060005260206000200160009054906101000a900473ffffffffffffffffffffffffffffffffffffffff1673ffffffffffffffffffffffffffffffffffffffff166108fc60076000600685815481106105bd576105bc610acf565b5b9060005260206000200160009054906101000a900473ffffffffffffffffffffffffffffffffffffffff1673ffffffffffffffffffffffffffffffffffffffff1673ffffffffffffffffffffffffffffffffffffffff168152602001908152602001600020549081150290604051600060405180830381858888f1935050505015801561064e573d6000803e3d6000fd5b50808061065a90610959565b915050610543565b50565b600047905090565b60015481565b60045481565b60035481565b6006818154811061068f57600080fd5b906000526020600020016000915054906101000a900473ffffffffffffffffffffffffffffffffffffffff1681565b600080fd5b600073ffffffffffffffffffffffffffffffffffffffff82169050919050565b60006106ee826106c3565b9050919050565b6106fe816106e3565b811461070957600080fd5b50565b60008135905061071b816106f5565b92915050565b600060208284031215610737576107366106be565b5b60006107458482850161070c565b91505092915050565b6000819050919050565b6107618161074e565b82525050565b600060208201905061077c6000830184610758565b92915050565b61078b816106e3565b82525050565b60006020820190506107a66000830184610782565b92915050565b6107b58161074e565b81146107c057600080fd5b50565b6000813590506107d2816107ac565b92915050565b6000602082840312156107ee576107ed6106be565b5b60006107fc848285016107c3565b91505092915050565b6000610810826106c3565b9050919050565b61082081610805565b82525050565b600060208201905061083b6000830184610817565b92915050565b600082825260208201905092915050565b7f446561646c696e65206861732070617373656400000000000000000000000000600082015250565b6000610888601383610841565b915061089382610852565b602082019050919050565b600060208201905081810360008301526108b78161087b565b9050919050565b7f4d696e696d756d20636f6e747269627574696f6e20686173206e6f74206d6574600082015250565b60006108f4602083610841565b91506108ff826108be565b602082019050919050565b60006020820190508181036000830152610923816108e7565b9050919050565b7f4e487b7100000000000000000000000000000000000000000000000000000000600052601160045260246000fd5b60006109648261074e565b91507fffffffffffffffffffffffffffffffffffffffffffffffffffffffffffffffff82036109965761099561092a565b5b600182019050919050565b60006109ac8261074e565b91506109b78361074e565b9250827fffffffffffffffffffffffffffffffffffffffffffffffffffffffffffffffff038211156109ec576109eb61092a565b5b828201905092915050565b7f4f6e6c79206d616e616765722063616e20726566756e642e0000000000000000600082015250565b6000610a2d601883610841565b9150610a38826109f7565b602082019050919050565b60006020820190508181036000830152610a5c81610a20565b9050919050565b7f446561646c696e6520686173206e6f7420796574207061737365640000000000600082015250565b6000610a99601b83610841565b9150610aa482610a63565b602082019050919050565b60006020820190508181036000830152610ac881610a8c565b9050919050565b7f4e487b7100000000000000000000000000000000000000000000000000000000600052603260045260246000fdfea2646970667358221220286d10d440437458078061297f61bcb75cb9e881480ffd5ffcac1fc19665d6b064736f6c634300080d0033",
					"opcodes": "PUSH1 0x80 PUSH1 0x40 MSTORE CALLVALUE DUP1 ISZERO PUSH3 0x11 JUMPI PUSH1 0x0 DUP1 REVERT JUMPDEST POP PUSH1 0x40 MLOAD PUSH3 0xD0E CODESIZE SUB DUP1 PUSH3 0xD0E DUP4 CODECOPY DUP2 DUP2 ADD PUSH1 0x40 MSTORE DUP2 ADD SWAP1 PUSH3 0x37 SWAP2 SWAP1 PUSH3 0xE2 JUMP JUMPDEST DUP3 PUSH1 0x3 DUP2 SWAP1 SSTORE POP DUP2 TIMESTAMP PUSH3 0x4C SWAP2 SWAP1 PUSH3 0x16D JUMP JUMPDEST PUSH1 0x2 DUP2 SWAP1 SSTORE POP DUP1 PUSH1 0x1 DUP2 SWAP1 SSTORE POP CALLER PUSH1 0x0 DUP1 PUSH2 0x100 EXP DUP2 SLOAD DUP2 PUSH20 0xFFFFFFFFFFFFFFFFFFFFFFFFFFFFFFFFFFFFFFFF MUL NOT AND SWAP1 DUP4 PUSH20 0xFFFFFFFFFFFFFFFFFFFFFFFFFFFFFFFFFFFFFFFF AND MUL OR SWAP1 SSTORE POP POP POP POP PUSH3 0x1CA JUMP JUMPDEST PUSH1 0x0 DUP1 REVERT JUMPDEST PUSH1 0x0 DUP2 SWAP1 POP SWAP2 SWAP1 POP JUMP JUMPDEST PUSH3 0xBC DUP2 PUSH3 0xA7 JUMP JUMPDEST DUP2 EQ PUSH3 0xC8 JUMPI PUSH1 0x0 DUP1 REVERT JUMPDEST POP JUMP JUMPDEST PUSH1 0x0 DUP2 MLOAD SWAP1 POP PUSH3 0xDC DUP2 PUSH3 0xB1 JUMP JUMPDEST SWAP3 SWAP2 POP POP JUMP JUMPDEST PUSH1 0x0 DUP1 PUSH1 0x0 PUSH1 0x60 DUP5 DUP7 SUB SLT ISZERO PUSH3 0xFE JUMPI PUSH3 0xFD PUSH3 0xA2 JUMP JUMPDEST JUMPDEST PUSH1 0x0 PUSH3 0x10E DUP7 DUP3 DUP8 ADD PUSH3 0xCB JUMP JUMPDEST SWAP4 POP POP PUSH1 0x20 PUSH3 0x121 DUP7 DUP3 DUP8 ADD PUSH3 0xCB JUMP JUMPDEST SWAP3 POP POP PUSH1 0x40 PUSH3 0x134 DUP7 DUP3 DUP8 ADD PUSH3 0xCB JUMP JUMPDEST SWAP2 POP POP SWAP3 POP SWAP3 POP SWAP3 JUMP JUMPDEST PUSH32 0x4E487B7100000000000000000000000000000000000000000000000000000000 PUSH1 0x0 MSTORE PUSH1 0x11 PUSH1 0x4 MSTORE PUSH1 0x24 PUSH1 0x0 REVERT JUMPDEST PUSH1 0x0 PUSH3 0x17A DUP3 PUSH3 0xA7 JUMP JUMPDEST SWAP2 POP PUSH3 0x187 DUP4 PUSH3 0xA7 JUMP JUMPDEST SWAP3 POP DUP3 PUSH32 0xFFFFFFFFFFFFFFFFFFFFFFFFFFFFFFFFFFFFFFFFFFFFFFFFFFFFFFFFFFFFFFFF SUB DUP3 GT ISZERO PUSH3 0x1BF JUMPI PUSH3 0x1BE PUSH3 0x13E JUMP JUMPDEST JUMPDEST DUP3 DUP3 ADD SWAP1 POP SWAP3 SWAP2 POP POP JUMP JUMPDEST PUSH2 0xB34 DUP1 PUSH3 0x1DA PUSH1 0x0 CODECOPY PUSH1 0x0 RETURN INVALID PUSH1 0x80 PUSH1 0x40 MSTORE PUSH1 0x4 CALLDATASIZE LT PUSH2 0x9C JUMPI PUSH1 0x0 CALLDATALOAD PUSH1 0xE0 SHR DUP1 PUSH4 0x590E1AE3 GT PUSH2 0x64 JUMPI DUP1 PUSH4 0x590E1AE3 EQ PUSH2 0x169 JUMPI DUP1 PUSH4 0x6F9FB98A EQ PUSH2 0x180 JUMPI DUP1 PUSH4 0x937E09B1 EQ PUSH2 0x1AB JUMPI DUP1 PUSH4 0xC59EE1DC EQ PUSH2 0x1D6 JUMPI DUP1 PUSH4 0xD4B83992 EQ PUSH2 0x201 JUMPI DUP1 PUSH4 0xEDF26D9B EQ PUSH2 0x22C JUMPI PUSH2 0x9C JUMP JUMPDEST DUP1 PUSH4 0x6E99FEF EQ PUSH2 0xA1 JUMPI DUP1 PUSH4 0x1F6D4942 EQ PUSH2 0xAB JUMPI DUP1 PUSH4 0x29DCB0CF EQ PUSH2 0xE8 JUMPI DUP1 PUSH4 0x481C6A75 EQ PUSH2 0x113 JUMPI DUP1 PUSH4 0x4E260F6F EQ PUSH2 0x13E JUMPI JUMPDEST PUSH1 0x0 DUP1 REVERT JUMPDEST PUSH2 0xA9 PUSH2 0x269 JUMP JUMPDEST STOP JUMPDEST CALLVALUE DUP1 ISZERO PUSH2 0xB7 JUMPI PUSH1 0x0 DUP1 REVERT JUMPDEST POP PUSH2 0xD2 PUSH1 0x4 DUP1 CALLDATASIZE SUB DUP2 ADD SWAP1 PUSH2 0xCD SWAP2 SWAP1 PUSH2 0x721 JUMP JUMPDEST PUSH2 0x426 JUMP JUMPDEST PUSH1 0x40 MLOAD PUSH2 0xDF SWAP2 SWAP1 PUSH2 0x767 JUMP JUMPDEST PUSH1 0x40 MLOAD DUP1 SWAP2 SUB SWAP1 RETURN JUMPDEST CALLVALUE DUP1 ISZERO PUSH2 0xF4 JUMPI PUSH1 0x0 DUP1 REVERT JUMPDEST POP PUSH2 0xFD PUSH2 0x43E JUMP JUMPDEST PUSH1 0x40 MLOAD PUSH2 0x10A SWAP2 SWAP1 PUSH2 0x767 JUMP JUMPDEST PUSH1 0x40 MLOAD DUP1 SWAP2 SUB SWAP1 RETURN JUMPDEST CALLVALUE DUP1 ISZERO PUSH2 0x11F JUMPI PUSH1 0x0 DUP1 REVERT JUMPDEST POP PUSH2 0x128 PUSH2 0x444 JUMP JUMPDEST PUSH1 0x40 MLOAD PUSH2 0x135 SWAP2 SWAP1 PUSH2 0x791 JUMP JUMPDEST PUSH1 0x40 MLOAD DUP1 SWAP2 SUB SWAP1 RETURN JUMPDEST CALLVALUE DUP1 ISZERO PUSH2 0x14A JUMPI PUSH1 0x0 DUP1 REVERT JUMPDEST POP PUSH2 0x153 PUSH2 0x468 JUMP JUMPDEST PUSH1 0x40 MLOAD PUSH2 0x160 SWAP2 SWAP1 PUSH2 0x767 JUMP JUMPDEST PUSH1 0x40 MLOAD DUP1 SWAP2 SUB SWAP1 RETURN JUMPDEST CALLVALUE DUP1 ISZERO PUSH2 0x175 JUMPI PUSH1 0x0 DUP1 REVERT JUMPDEST POP PUSH2 0x17E PUSH2 0x46E JUMP JUMPDEST STOP JUMPDEST CALLVALUE DUP1 ISZERO PUSH2 0x18C JUMPI PUSH1 0x0 DUP1 REVERT JUMPDEST POP PUSH2 0x195 PUSH2 0x665 JUMP JUMPDEST PUSH1 0x40 MLOAD PUSH2 0x1A2 SWAP2 SWAP1 PUSH2 0x767 JUMP JUMPDEST PUSH1 0x40 MLOAD DUP1 SWAP2 SUB SWAP1 RETURN JUMPDEST CALLVALUE DUP1 ISZERO PUSH2 0x1B7 JUMPI PUSH1 0x0 DUP1 REVERT JUMPDEST POP PUSH2 0x1C0 PUSH2 0x66D JUMP JUMPDEST PUSH1 0x40 MLOAD PUSH2 0x1CD SWAP2 SWAP1 PUSH2 0x767 JUMP JUMPDEST PUSH1 0x40 MLOAD DUP1 SWAP2 SUB SWAP1 RETURN JUMPDEST CALLVALUE DUP1 ISZERO PUSH2 0x1E2 JUMPI PUSH1 0x0 DUP1 REVERT JUMPDEST POP PUSH2 0x1EB PUSH2 0x673 JUMP JUMPDEST PUSH1 0x40 MLOAD PUSH2 0x1F8 SWAP2 SWAP1 PUSH2 0x767 JUMP JUMPDEST PUSH1 0x40 MLOAD DUP1 SWAP2 SUB SWAP1 RETURN JUMPDEST CALLVALUE DUP1 ISZERO PUSH2 0x20D JUMPI PUSH1 0x0 DUP1 REVERT JUMPDEST POP PUSH2 0x216 PUSH2 0x679 JUMP JUMPDEST PUSH1 0x40 MLOAD PUSH2 0x223 SWAP2 SWAP1 PUSH2 0x767 JUMP JUMPDEST PUSH1 0x40 MLOAD DUP1 SWAP2 SUB SWAP1 RETURN JUMPDEST CALLVALUE DUP1 ISZERO PUSH2 0x238 JUMPI PUSH1 0x0 DUP1 REVERT JUMPDEST POP PUSH2 0x253 PUSH1 0x4 DUP1 CALLDATASIZE SUB DUP2 ADD SWAP1 PUSH2 0x24E SWAP2 SWAP1 PUSH2 0x7D8 JUMP JUMPDEST PUSH2 0x67F JUMP JUMPDEST PUSH1 0x40 MLOAD PUSH2 0x260 SWAP2 SWAP1 PUSH2 0x826 JUMP JUMPDEST PUSH1 0x40 MLOAD DUP1 SWAP2 SUB SWAP1 RETURN JUMPDEST PUSH1 0x2 SLOAD TIMESTAMP LT PUSH2 0x2AD JUMPI PUSH1 0x40 MLOAD PUSH32 0x8C379A000000000000000000000000000000000000000000000000000000000 DUP2 MSTORE PUSH1 0x4 ADD PUSH2 0x2A4 SWAP1 PUSH2 0x89E JUMP JUMPDEST PUSH1 0x40 MLOAD DUP1 SWAP2 SUB SWAP1 REVERT JUMPDEST PUSH1 0x1 SLOAD CALLVALUE LT ISZERO PUSH2 0x2F2 JUMPI PUSH1 0x40 MLOAD PUSH32 0x8C379A000000000000000000000000000000000000000000000000000000000 DUP2 MSTORE PUSH1 0x4 ADD PUSH2 0x2E9 SWAP1 PUSH2 0x90A JUMP JUMPDEST PUSH1 0x40 MLOAD DUP1 SWAP2 SUB SWAP1 REVERT JUMPDEST PUSH1 0x0 PUSH1 0x7 PUSH1 0x0 CALLER PUSH20 0xFFFFFFFFFFFFFFFFFFFFFFFFFFFFFFFFFFFFFFFF AND PUSH20 0xFFFFFFFFFFFFFFFFFFFFFFFFFFFFFFFFFFFFFFFF AND DUP2 MSTORE PUSH1 0x20 ADD SWAP1 DUP2 MSTORE PUSH1 0x20 ADD PUSH1 0x0 KECCAK256 SLOAD SUB PUSH2 0x3B5 JUMPI PUSH1 0x5 PUSH1 0x0 DUP2 SLOAD DUP1 SWAP3 SWAP2 SWAP1 PUSH2 0x34C SWAP1 PUSH2 0x959 JUMP JUMPDEST SWAP2 SWAP1 POP SSTORE POP PUSH1 0x6 CALLER SWAP1 DUP1 PUSH1 0x1 DUP2 SLOAD ADD DUP1 DUP3 SSTORE DUP1 SWAP2 POP POP PUSH1 0x1 SWAP1 SUB SWAP1 PUSH1 0x0 MSTORE PUSH1 0x20 PUSH1 0x0 KECCAK256 ADD PUSH1 0x0 SWAP1 SWAP2 SWAP1 SWAP2 SWAP1 SWAP2 PUSH2 0x100 EXP DUP2 SLOAD DUP2 PUSH20 0xFFFFFFFFFFFFFFFFFFFFFFFFFFFFFFFFFFFFFFFF MUL NOT AND SWAP1 DUP4 PUSH20 0xFFFFFFFFFFFFFFFFFFFFFFFFFFFFFFFFFFFFFFFF AND MUL OR SWAP1 SSTORE POP JUMPDEST CALLVALUE PUSH1 0x7 PUSH1 0x0 CALLER PUSH20 0xFFFFFFFFFFFFFFFFFFFFFFFFFFFFFFFFFFFFFFFF AND PUSH20 0xFFFFFFFFFFFFFFFFFFFFFFFFFFFFFFFFFFFFFFFF AND DUP2 MSTORE PUSH1 0x20 ADD SWAP1 DUP2 MSTORE PUSH1 0x20 ADD PUSH1 0x0 KECCAK256 PUSH1 0x0 DUP3 DUP3 SLOAD PUSH2 0x404 SWAP2 SWAP1 PUSH2 0x9A1 JUMP JUMPDEST SWAP3 POP POP DUP2 SWAP1 SSTORE POP CALLVALUE PUSH1 0x4 PUSH1 0x0 DUP3 DUP3 SLOAD PUSH2 0x41D SWAP2 SWAP1 PUSH2 0x9A1 JUMP JUMPDEST SWAP3 POP POP DUP2 SWAP1 SSTORE POP JUMP JUMPDEST PUSH1 0x7 PUSH1 0x20 MSTORE DUP1 PUSH1 0x0 MSTORE PUSH1 0x40 PUSH1 0x0 KECCAK256 PUSH1 0x0 SWAP2 POP SWAP1 POP SLOAD DUP2 JUMP JUMPDEST PUSH1 0x2 SLOAD DUP2 JUMP JUMPDEST PUSH1 0x0 DUP1 SLOAD SWAP1 PUSH2 0x100 EXP SWAP1 DIV PUSH20 0xFFFFFFFFFFFFFFFFFFFFFFFFFFFFFFFFFFFFFFFF AND DUP2 JUMP JUMPDEST PUSH1 0x5 SLOAD DUP2 JUMP JUMPDEST CALLER PUSH20 0xFFFFFFFFFFFFFFFFFFFFFFFFFFFFFFFFFFFFFFFF AND PUSH1 0x0 DUP1 SLOAD SWAP1 PUSH2 0x100 EXP SWAP1 DIV PUSH20 0xFFFFFFFFFFFFFFFFFFFFFFFFFFFFFFFFFFFFFFFF AND PUSH20 0xFFFFFFFFFFFFFFFFFFFFFFFFFFFFFFFFFFFFFFFF AND EQ PUSH2 0x4FC JUMPI PUSH1 0x40 MLOAD PUSH32 0x8C379A000000000000000000000000000000000000000000000000000000000 DUP2 MSTORE PUSH1 0x4 ADD PUSH2 0x4F3 SWAP1 PUSH2 0xA43 JUMP JUMPDEST PUSH1 0x40 MLOAD DUP1 SWAP2 SUB SWAP1 REVERT JUMPDEST PUSH1 0x2 SLOAD TIMESTAMP GT PUSH2 0x540 JUMPI PUSH1 0x40 MLOAD PUSH32 0x8C379A000000000000000000000000000000000000000000000000000000000 DUP2 MSTORE PUSH1 0x4 ADD PUSH2 0x537 SWAP1 PUSH2 0xAAF JUMP JUMPDEST PUSH1 0x40 MLOAD DUP1 SWAP2 SUB SWAP1 REVERT JUMPDEST PUSH1 0x0 JUMPDEST PUSH1 0x5 SLOAD DUP2 LT ISZERO PUSH2 0x662 JUMPI PUSH1 0x6 DUP2 DUP2 SLOAD DUP2 LT PUSH2 0x561 JUMPI PUSH2 0x560 PUSH2 0xACF JUMP JUMPDEST JUMPDEST SWAP1 PUSH1 0x0 MSTORE PUSH1 0x20 PUSH1 0x0 KECCAK256 ADD PUSH1 0x0 SWAP1 SLOAD SWAP1 PUSH2 0x100 EXP SWAP1 DIV PUSH20 0xFFFFFFFFFFFFFFFFFFFFFFFFFFFFFFFFFFFFFFFF AND PUSH20 0xFFFFFFFFFFFFFFFFFFFFFFFFFFFFFFFFFFFFFFFF AND PUSH2 0x8FC PUSH1 0x7 PUSH1 0x0 PUSH1 0x6 DUP6 DUP2 SLOAD DUP2 LT PUSH2 0x5BD JUMPI PUSH2 0x5BC PUSH2 0xACF JUMP JUMPDEST JUMPDEST SWAP1 PUSH1 0x0 MSTORE PUSH1 0x20 PUSH1 0x0 KECCAK256 ADD PUSH1 0x0 SWAP1 SLOAD SWAP1 PUSH2 0x100 EXP SWAP1 DIV PUSH20 0xFFFFFFFFFFFFFFFFFFFFFFFFFFFFFFFFFFFFFFFF AND PUSH20 0xFFFFFFFFFFFFFFFFFFFFFFFFFFFFFFFFFFFFFFFF AND PUSH20 0xFFFFFFFFFFFFFFFFFFFFFFFFFFFFFFFFFFFFFFFF AND DUP2 MSTORE PUSH1 0x20 ADD SWAP1 DUP2 MSTORE PUSH1 0x20 ADD PUSH1 0x0 KECCAK256 SLOAD SWAP1 DUP2 ISZERO MUL SWAP1 PUSH1 0x40 MLOAD PUSH1 0x0 PUSH1 0x40 MLOAD DUP1 DUP4 SUB DUP2 DUP6 DUP9 DUP9 CALL SWAP4 POP POP POP POP ISZERO DUP1 ISZERO PUSH2 0x64E JUMPI RETURNDATASIZE PUSH1 0x0 DUP1 RETURNDATACOPY RETURNDATASIZE PUSH1 0x0 REVERT JUMPDEST POP DUP1 DUP1 PUSH2 0x65A SWAP1 PUSH2 0x959 JUMP JUMPDEST SWAP2 POP POP PUSH2 0x543 JUMP JUMPDEST POP JUMP JUMPDEST PUSH1 0x0 SELFBALANCE SWAP1 POP SWAP1 JUMP JUMPDEST PUSH1 0x1 SLOAD DUP2 JUMP JUMPDEST PUSH1 0x4 SLOAD DUP2 JUMP JUMPDEST PUSH1 0x3 SLOAD DUP2 JUMP JUMPDEST PUSH1 0x6 DUP2 DUP2 SLOAD DUP2 LT PUSH2 0x68F JUMPI PUSH1 0x0 DUP1 REVERT JUMPDEST SWAP1 PUSH1 0x0 MSTORE PUSH1 0x20 PUSH1 0x0 KECCAK256 ADD PUSH1 0x0 SWAP2 POP SLOAD SWAP1 PUSH2 0x100 EXP SWAP1 DIV PUSH20 0xFFFFFFFFFFFFFFFFFFFFFFFFFFFFFFFFFFFFFFFF AND DUP2 JUMP JUMPDEST PUSH1 0x0 DUP1 REVERT JUMPDEST PUSH1 0x0 PUSH20 0xFFFFFFFFFFFFFFFFFFFFFFFFFFFFFFFFFFFFFFFF DUP3 AND SWAP1 POP SWAP2 SWAP1 POP JUMP JUMPDEST PUSH1 0x0 PUSH2 0x6EE DUP3 PUSH2 0x6C3 JUMP JUMPDEST SWAP1 POP SWAP2 SWAP1 POP JUMP JUMPDEST PUSH2 0x6FE DUP2 PUSH2 0x6E3 JUMP JUMPDEST DUP2 EQ PUSH2 0x709 JUMPI PUSH1 0x0 DUP1 REVERT JUMPDEST POP JUMP JUMPDEST PUSH1 0x0 DUP2 CALLDATALOAD SWAP1 POP PUSH2 0x71B DUP2 PUSH2 0x6F5 JUMP JUMPDEST SWAP3 SWAP2 POP POP JUMP JUMPDEST PUSH1 0x0 PUSH1 0x20 DUP3 DUP5 SUB SLT ISZERO PUSH2 0x737 JUMPI PUSH2 0x736 PUSH2 0x6BE JUMP JUMPDEST JUMPDEST PUSH1 0x0 PUSH2 0x745 DUP5 DUP3 DUP6 ADD PUSH2 0x70C JUMP JUMPDEST SWAP2 POP POP SWAP3 SWAP2 POP POP JUMP JUMPDEST PUSH1 0x0 DUP2 SWAP1 POP SWAP2 SWAP1 POP JUMP JUMPDEST PUSH2 0x761 DUP2 PUSH2 0x74E JUMP JUMPDEST DUP3 MSTORE POP POP JUMP JUMPDEST PUSH1 0x0 PUSH1 0x20 DUP3 ADD SWAP1 POP PUSH2 0x77C PUSH1 0x0 DUP4 ADD DUP5 PUSH2 0x758 JUMP JUMPDEST SWAP3 SWAP2 POP POP JUMP JUMPDEST PUSH2 0x78B DUP2 PUSH2 0x6E3 JUMP JUMPDEST DUP3 MSTORE POP POP JUMP JUMPDEST PUSH1 0x0 PUSH1 0x20 DUP3 ADD SWAP1 POP PUSH2 0x7A6 PUSH1 0x0 DUP4 ADD DUP5 PUSH2 0x782 JUMP JUMPDEST SWAP3 SWAP2 POP POP JUMP JUMPDEST PUSH2 0x7B5 DUP2 PUSH2 0x74E JUMP JUMPDEST DUP2 EQ PUSH2 0x7C0 JUMPI PUSH1 0x0 DUP1 REVERT JUMPDEST POP JUMP JUMPDEST PUSH1 0x0 DUP2 CALLDATALOAD SWAP1 POP PUSH2 0x7D2 DUP2 PUSH2 0x7AC JUMP JUMPDEST SWAP3 SWAP2 POP POP JUMP JUMPDEST PUSH1 0x0 PUSH1 0x20 DUP3 DUP5 SUB SLT ISZERO PUSH2 0x7EE JUMPI PUSH2 0x7ED PUSH2 0x6BE JUMP JUMPDEST JUMPDEST PUSH1 0x0 PUSH2 0x7FC DUP5 DUP3 DUP6 ADD PUSH2 0x7C3 JUMP JUMPDEST SWAP2 POP POP SWAP3 SWAP2 POP POP JUMP JUMPDEST PUSH1 0x0 PUSH2 0x810 DUP3 PUSH2 0x6C3 JUMP JUMPDEST SWAP1 POP SWAP2 SWAP1 POP JUMP JUMPDEST PUSH2 0x820 DUP2 PUSH2 0x805 JUMP JUMPDEST DUP3 MSTORE POP POP JUMP JUMPDEST PUSH1 0x0 PUSH1 0x20 DUP3 ADD SWAP1 POP PUSH2 0x83B PUSH1 0x0 DUP4 ADD DUP5 PUSH2 0x817 JUMP JUMPDEST SWAP3 SWAP2 POP POP JUMP JUMPDEST PUSH1 0x0 DUP3 DUP3 MSTORE PUSH1 0x20 DUP3 ADD SWAP1 POP SWAP3 SWAP2 POP POP JUMP JUMPDEST PUSH32 0x446561646C696E65206861732070617373656400000000000000000000000000 PUSH1 0x0 DUP3 ADD MSTORE POP JUMP JUMPDEST PUSH1 0x0 PUSH2 0x888 PUSH1 0x13 DUP4 PUSH2 0x841 JUMP JUMPDEST SWAP2 POP PUSH2 0x893 DUP3 PUSH2 0x852 JUMP JUMPDEST PUSH1 0x20 DUP3 ADD SWAP1 POP SWAP2 SWAP1 POP JUMP JUMPDEST PUSH1 0x0 PUSH1 0x20 DUP3 ADD SWAP1 POP DUP2 DUP2 SUB PUSH1 0x0 DUP4 ADD MSTORE PUSH2 0x8B7 DUP2 PUSH2 0x87B JUMP JUMPDEST SWAP1 POP SWAP2 SWAP1 POP JUMP JUMPDEST PUSH32 0x4D696E696D756D20636F6E747269627574696F6E20686173206E6F74206D6574 PUSH1 0x0 DUP3 ADD MSTORE POP JUMP JUMPDEST PUSH1 0x0 PUSH2 0x8F4 PUSH1 0x20 DUP4 PUSH2 0x841 JUMP JUMPDEST SWAP2 POP PUSH2 0x8FF DUP3 PUSH2 0x8BE JUMP JUMPDEST PUSH1 0x20 DUP3 ADD SWAP1 POP SWAP2 SWAP1 POP JUMP JUMPDEST PUSH1 0x0 PUSH1 0x20 DUP3 ADD SWAP1 POP DUP2 DUP2 SUB PUSH1 0x0 DUP4 ADD MSTORE PUSH2 0x923 DUP2 PUSH2 0x8E7 JUMP JUMPDEST SWAP1 POP SWAP2 SWAP1 POP JUMP JUMPDEST PUSH32 0x4E487B7100000000000000000000000000000000000000000000000000000000 PUSH1 0x0 MSTORE PUSH1 0x11 PUSH1 0x4 MSTORE PUSH1 0x24 PUSH1 0x0 REVERT JUMPDEST PUSH1 0x0 PUSH2 0x964 DUP3 PUSH2 0x74E JUMP JUMPDEST SWAP2 POP PUSH32 0xFFFFFFFFFFFFFFFFFFFFFFFFFFFFFFFFFFFFFFFFFFFFFFFFFFFFFFFFFFFFFFFF DUP3 SUB PUSH2 0x996 JUMPI PUSH2 0x995 PUSH2 0x92A JUMP JUMPDEST JUMPDEST PUSH1 0x1 DUP3 ADD SWAP1 POP SWAP2 SWAP1 POP JUMP JUMPDEST PUSH1 0x0 PUSH2 0x9AC DUP3 PUSH2 0x74E JUMP JUMPDEST SWAP2 POP PUSH2 0x9B7 DUP4 PUSH2 0x74E JUMP JUMPDEST SWAP3 POP DUP3 PUSH32 0xFFFFFFFFFFFFFFFFFFFFFFFFFFFFFFFFFFFFFFFFFFFFFFFFFFFFFFFFFFFFFFFF SUB DUP3 GT ISZERO PUSH2 0x9EC JUMPI PUSH2 0x9EB PUSH2 0x92A JUMP JUMPDEST JUMPDEST DUP3 DUP3 ADD SWAP1 POP SWAP3 SWAP2 POP POP JUMP JUMPDEST PUSH32 0x4F6E6C79206D616E616765722063616E20726566756E642E0000000000000000 PUSH1 0x0 DUP3 ADD MSTORE POP JUMP JUMPDEST PUSH1 0x0 PUSH2 0xA2D PUSH1 0x18 DUP4 PUSH2 0x841 JUMP JUMPDEST SWAP2 POP PUSH2 0xA38 DUP3 PUSH2 0x9F7 JUMP JUMPDEST PUSH1 0x20 DUP3 ADD SWAP1 POP SWAP2 SWAP1 POP JUMP JUMPDEST PUSH1 0x0 PUSH1 0x20 DUP3 ADD SWAP1 POP DUP2 DUP2 SUB PUSH1 0x0 DUP4 ADD MSTORE PUSH2 0xA5C DUP2 PUSH2 0xA20 JUMP JUMPDEST SWAP1 POP SWAP2 SWAP1 POP JUMP JUMPDEST PUSH32 0x446561646C696E6520686173206E6F7420796574207061737365640000000000 PUSH1 0x0 DUP3 ADD MSTORE POP JUMP JUMPDEST PUSH1 0x0 PUSH2 0xA99 PUSH1 0x1B DUP4 PUSH2 0x841 JUMP JUMPDEST SWAP2 POP PUSH2 0xAA4 DUP3 PUSH2 0xA63 JUMP JUMPDEST PUSH1 0x20 DUP3 ADD SWAP1 POP SWAP2 SWAP1 POP JUMP JUMPDEST PUSH1 0x0 PUSH1 0x20 DUP3 ADD SWAP1 POP DUP2 DUP2 SUB PUSH1 0x0 DUP4 ADD MSTORE PUSH2 0xAC8 DUP2 PUSH2 0xA8C JUMP JUMPDEST SWAP1 POP SWAP2 SWAP1 POP JUMP JUMPDEST PUSH32 0x4E487B7100000000000000000000000000000000000000000000000000000000 PUSH1 0x0 MSTORE PUSH1 0x32 PUSH1 0x4 MSTORE PUSH1 0x24 PUSH1 0x0 REVERT INVALID LOG2 PUSH5 0x6970667358 0x22 SLT KECCAK256 0x28 PUSH14 0x10D440437458078061297F61BCB7 0x5C 0xB9 0xE8 DUP2 BASEFEE 0xF REVERT 0x5F 0xFC 0xAC 0x1F 0xC1 SWAP7 PUSH6 0xD6B064736F6C PUSH4 0x4300080D STOP CALLER "
				},
				"gasEstimates": {
					"creation": {
						"codeDepositCost": "573600",
						"executionCost": "infinite",
						"totalCost": "infinite"
					},
					"external": {
						"addresses(uint256)": "5066",
						"contributors(address)": "2837",
						"deadline()": "2474",
						"getContractBalance()": "361",
						"manager()": "2578",
						"minimumContribution()": "2473",
						"noOfContributors()": "2518",
						"raisedAmount()": "2495",
						"refund()": "infinite",
						"sendEth()": "infinite",
						"target()": "2517"
					}
				},
				"methodIdentifiers": {
					"addresses(uint256)": "edf26d9b",
					"contributors(address)": "1f6d4942",
					"deadline()": "29dcb0cf",
					"getContractBalance()": "6f9fb98a",
					"manager()": "481c6a75",
					"minimumContribution()": "937e09b1",
					"noOfContributors()": "4e260f6f",
					"raisedAmount()": "c59ee1dc",
					"refund()": "590e1ae3",
					"sendEth()": "06e99fef",
					"target()": "d4b83992"
				}
			},
			"userdoc": {
				"kind": "user",
				"methods": {},
				"version": 1
			}
		}
	}
}