{
	"contracts/Crowd_Funding/Crowd_Funding.sol": {
		"CrowdFunding": {
			"abi": [
				{
					"inputs": [
						{
							"internalType": "uint256",
							"name": "_target",
							"type": "uint256"
						},
						{
							"internalType": "uint256",
							"name": "_deadline",
							"type": "uint256"
						},
						{
							"internalType": "uint256",
							"name": "_minimumContribution",
							"type": "uint256"
						}
					],
					"stateMutability": "nonpayable",
					"type": "constructor"
				},
				{
					"inputs": [
						{
							"internalType": "uint256",
							"name": "",
							"type": "uint256"
						}
					],
					"name": "addresses",
					"outputs": [
						{
							"internalType": "address payable",
							"name": "",
							"type": "address"
						}
					],
					"stateMutability": "view",
					"type": "function"
				},
				{
					"inputs": [
						{
							"internalType": "address",
							"name": "",
							"type": "address"
						}
					],
					"name": "contributors",
					"outputs": [
						{
							"internalType": "uint256",
							"name": "",
							"type": "uint256"
						}
					],
					"stateMutability": "view",
					"type": "function"
				},
				{
					"inputs": [
						{
							"internalType": "string",
							"name": "_description",
							"type": "string"
						},
						{
							"internalType": "address payable",
							"name": "_recipient",
							"type": "address"
						},
						{
							"internalType": "uint256",
							"name": "_value",
							"type": "uint256"
						}
					],
					"name": "createRequests",
					"outputs": [],
					"stateMutability": "nonpayable",
					"type": "function"
				},
				{
					"inputs": [],
					"name": "deadline",
					"outputs": [
						{
							"internalType": "uint256",
							"name": "",
							"type": "uint256"
						}
					],
					"stateMutability": "view",
					"type": "function"
				},
				{
					"inputs": [],
					"name": "getContractBalance",
					"outputs": [
						{
							"internalType": "uint256",
							"name": "",
							"type": "uint256"
						}
					],
					"stateMutability": "view",
					"type": "function"
				},
				{
					"inputs": [
						{
							"internalType": "uint256",
							"name": "requestNo",
							"type": "uint256"
						}
					],
					"name": "makePayment",
					"outputs": [],
					"stateMutability": "nonpayable",
					"type": "function"
				},
				{
					"inputs": [],
					"name": "manager",
					"outputs": [
						{
							"internalType": "address",
							"name": "",
							"type": "address"
						}
					],
					"stateMutability": "view",
					"type": "function"
				},
				{
					"inputs": [],
					"name": "minimumContribution",
					"outputs": [
						{
							"internalType": "uint256",
							"name": "",
							"type": "uint256"
						}
					],
					"stateMutability": "view",
					"type": "function"
				},
				{
					"inputs": [],
					"name": "noOfContributors",
					"outputs": [
						{
							"internalType": "uint256",
							"name": "",
							"type": "uint256"
						}
					],
					"stateMutability": "view",
					"type": "function"
				},
				{
					"inputs": [],
					"name": "numRequests",
					"outputs": [
						{
							"internalType": "uint256",
							"name": "",
							"type": "uint256"
						}
					],
					"stateMutability": "view",
					"type": "function"
				},
				{
					"inputs": [],
					"name": "raisedAmount",
					"outputs": [
						{
							"internalType": "uint256",
							"name": "",
							"type": "uint256"
						}
					],
					"stateMutability": "view",
					"type": "function"
				},
				{
					"inputs": [],
					"name": "refund",
					"outputs": [],
					"stateMutability": "nonpayable",
					"type": "function"
				},
				{
					"inputs": [],
					"name": "refundToAll",
					"outputs": [],
					"stateMutability": "nonpayable",
					"type": "function"
				},
				{
					"inputs": [
						{
							"internalType": "uint256",
							"name": "",
							"type": "uint256"
						}
					],
					"name": "requests",
					"outputs": [
						{
							"internalType": "string",
							"name": "description",
							"type": "string"
						},
						{
							"internalType": "address payable",
							"name": "recipient",
							"type": "address"
						},
						{
							"internalType": "uint256",
							"name": "value",
							"type": "uint256"
						},
						{
							"internalType": "bool",
							"name": "completed",
							"type": "bool"
						},
						{
							"internalType": "uint256",
							"name": "noOfVoters",
							"type": "uint256"
						}
					],
					"stateMutability": "view",
					"type": "function"
				},
				{
					"inputs": [],
					"name": "sendEth",
					"outputs": [],
					"stateMutability": "payable",
					"type": "function"
				},
				{
					"inputs": [],
					"name": "target",
					"outputs": [
						{
							"internalType": "uint256",
							"name": "",
							"type": "uint256"
						}
					],
					"stateMutability": "view",
					"type": "function"
				},
				{
					"inputs": [
						{
							"internalType": "uint256",
							"name": "requestNo",
							"type": "uint256"
						}
					],
					"name": "voteRequest",
					"outputs": [],
					"stateMutability": "nonpayable",
					"type": "function"
				}
			],
			"devdoc": {
				"kind": "dev",
				"methods": {},
				"version": 1
			},
			"evm": {
				"assembly": "    /* \"contracts/Crowd_Funding/Crowd_Funding.sol\":59:3652  contract CrowdFunding {... */\n  mstore(0x40, 0x80)\n    /* \"contracts/Crowd_Funding/Crowd_Funding.sol\":652:889  constructor(uint _target, uint _deadline, uint _minimumContribution) {... */\n  callvalue\n  dup1\n  iszero\n  tag_1\n  jumpi\n  0x00\n  dup1\n  revert\ntag_1:\n  pop\n  mload(0x40)\n  sub(codesize, bytecodeSize)\n  dup1\n  bytecodeSize\n  dup4\n  codecopy\n  dup2\n  dup2\n  add\n  0x40\n  mstore\n  dup2\n  add\n  swap1\n  tag_2\n  swap2\n  swap1\n  tag_3\n  jump\t// in\ntag_2:\n    /* \"contracts/Crowd_Funding/Crowd_Funding.sol\":741:748  _target */\n  dup3\n    /* \"contracts/Crowd_Funding/Crowd_Funding.sol\":732:738  target */\n  0x03\n    /* \"contracts/Crowd_Funding/Crowd_Funding.sol\":732:748  target = _target */\n  dup2\n  swap1\n  sstore\n  pop\n    /* \"contracts/Crowd_Funding/Crowd_Funding.sol\":786:795  _deadline */\n  dup2\n    /* \"contracts/Crowd_Funding/Crowd_Funding.sol\":770:785  block.timestamp */\n  timestamp\n    /* \"contracts/Crowd_Funding/Crowd_Funding.sol\":770:795  block.timestamp+_deadline */\n  tag_6\n  swap2\n  swap1\n  tag_7\n  jump\t// in\ntag_6:\n    /* \"contracts/Crowd_Funding/Crowd_Funding.sol\":759:767  deadline */\n  0x02\n    /* \"contracts/Crowd_Funding/Crowd_Funding.sol\":759:795  deadline = block.timestamp+_deadline */\n  dup2\n  swap1\n  sstore\n  pop\n    /* \"contracts/Crowd_Funding/Crowd_Funding.sol\":828:848  _minimumContribution */\n  dup1\n    /* \"contracts/Crowd_Funding/Crowd_Funding.sol\":806:825  minimumContribution */\n  0x01\n    /* \"contracts/Crowd_Funding/Crowd_Funding.sol\":806:848  minimumContribution = _minimumContribution */\n  dup2\n  swap1\n  sstore\n  pop\n    /* \"contracts/Crowd_Funding/Crowd_Funding.sol\":869:879  msg.sender */\n  caller\n    /* \"contracts/Crowd_Funding/Crowd_Funding.sol\":859:866  manager */\n  0x00\n  dup1\n    /* \"contracts/Crowd_Funding/Crowd_Funding.sol\":859:879  manager = msg.sender */\n  0x0100\n  exp\n  dup2\n  sload\n  dup2\n  0xffffffffffffffffffffffffffffffffffffffff\n  mul\n  not\n  and\n  swap1\n  dup4\n  0xffffffffffffffffffffffffffffffffffffffff\n  and\n  mul\n  or\n  swap1\n  sstore\n  pop\n    /* \"contracts/Crowd_Funding/Crowd_Funding.sol\":652:889  constructor(uint _target, uint _deadline, uint _minimumContribution) {... */\n  pop\n  pop\n  pop\n    /* \"contracts/Crowd_Funding/Crowd_Funding.sol\":59:3652  contract CrowdFunding {... */\n  jump(tag_8)\n    /* \"#utility.yul\":88:205   */\ntag_10:\n    /* \"#utility.yul\":197:198   */\n  0x00\n    /* \"#utility.yul\":194:195   */\n  dup1\n    /* \"#utility.yul\":187:199   */\n  revert\n    /* \"#utility.yul\":334:411   */\ntag_12:\n    /* \"#utility.yul\":371:378   */\n  0x00\n    /* \"#utility.yul\":400:405   */\n  dup2\n    /* \"#utility.yul\":389:405   */\n  swap1\n  pop\n    /* \"#utility.yul\":334:411   */\n  swap2\n  swap1\n  pop\n  jump\t// out\n    /* \"#utility.yul\":417:539   */\ntag_13:\n    /* \"#utility.yul\":490:514   */\n  tag_22\n    /* \"#utility.yul\":508:513   */\n  dup2\n    /* \"#utility.yul\":490:514   */\n  tag_12\n  jump\t// in\ntag_22:\n    /* \"#utility.yul\":483:488   */\n  dup2\n    /* \"#utility.yul\":480:515   */\n  eq\n    /* \"#utility.yul\":470:533   */\n  tag_23\n  jumpi\n    /* \"#utility.yul\":529:530   */\n  0x00\n    /* \"#utility.yul\":526:527   */\n  dup1\n    /* \"#utility.yul\":519:531   */\n  revert\n    /* \"#utility.yul\":470:533   */\ntag_23:\n    /* \"#utility.yul\":417:539   */\n  pop\n  jump\t// out\n    /* \"#utility.yul\":545:688   */\ntag_14:\n    /* \"#utility.yul\":602:607   */\n  0x00\n    /* \"#utility.yul\":633:639   */\n  dup2\n    /* \"#utility.yul\":627:640   */\n  mload\n    /* \"#utility.yul\":618:640   */\n  swap1\n  pop\n    /* \"#utility.yul\":649:682   */\n  tag_25\n    /* \"#utility.yul\":676:681   */\n  dup2\n    /* \"#utility.yul\":649:682   */\n  tag_13\n  jump\t// in\ntag_25:\n    /* \"#utility.yul\":545:688   */\n  swap3\n  swap2\n  pop\n  pop\n  jump\t// out\n    /* \"#utility.yul\":694:1357   */\ntag_3:\n    /* \"#utility.yul\":782:788   */\n  0x00\n    /* \"#utility.yul\":790:796   */\n  dup1\n    /* \"#utility.yul\":798:804   */\n  0x00\n    /* \"#utility.yul\":847:849   */\n  0x60\n    /* \"#utility.yul\":835:844   */\n  dup5\n    /* \"#utility.yul\":826:833   */\n  dup7\n    /* \"#utility.yul\":822:845   */\n  sub\n    /* \"#utility.yul\":818:850   */\n  slt\n    /* \"#utility.yul\":815:934   */\n  iszero\n  tag_27\n  jumpi\n    /* \"#utility.yul\":853:932   */\n  tag_28\n  tag_10\n  jump\t// in\ntag_28:\n    /* \"#utility.yul\":815:934   */\ntag_27:\n    /* \"#utility.yul\":973:974   */\n  0x00\n    /* \"#utility.yul\":998:1062   */\n  tag_29\n    /* \"#utility.yul\":1054:1061   */\n  dup7\n    /* \"#utility.yul\":1045:1051   */\n  dup3\n    /* \"#utility.yul\":1034:1043   */\n  dup8\n    /* \"#utility.yul\":1030:1052   */\n  add\n    /* \"#utility.yul\":998:1062   */\n  tag_14\n  jump\t// in\ntag_29:\n    /* \"#utility.yul\":988:1062   */\n  swap4\n  pop\n    /* \"#utility.yul\":944:1072   */\n  pop\n    /* \"#utility.yul\":1111:1113   */\n  0x20\n    /* \"#utility.yul\":1137:1201   */\n  tag_30\n    /* \"#utility.yul\":1193:1200   */\n  dup7\n    /* \"#utility.yul\":1184:1190   */\n  dup3\n    /* \"#utility.yul\":1173:1182   */\n  dup8\n    /* \"#utility.yul\":1169:1191   */\n  add\n    /* \"#utility.yul\":1137:1201   */\n  tag_14\n  jump\t// in\ntag_30:\n    /* \"#utility.yul\":1127:1201   */\n  swap3\n  pop\n    /* \"#utility.yul\":1082:1211   */\n  pop\n    /* \"#utility.yul\":1250:1252   */\n  0x40\n    /* \"#utility.yul\":1276:1340   */\n  tag_31\n    /* \"#utility.yul\":1332:1339   */\n  dup7\n    /* \"#utility.yul\":1323:1329   */\n  dup3\n    /* \"#utility.yul\":1312:1321   */\n  dup8\n    /* \"#utility.yul\":1308:1330   */\n  add\n    /* \"#utility.yul\":1276:1340   */\n  tag_14\n  jump\t// in\ntag_31:\n    /* \"#utility.yul\":1266:1340   */\n  swap2\n  pop\n    /* \"#utility.yul\":1221:1350   */\n  pop\n    /* \"#utility.yul\":694:1357   */\n  swap3\n  pop\n  swap3\n  pop\n  swap3\n  jump\t// out\n    /* \"#utility.yul\":1363:1543   */\ntag_15:\n    /* \"#utility.yul\":1411:1488   */\n  0x4e487b7100000000000000000000000000000000000000000000000000000000\n    /* \"#utility.yul\":1408:1409   */\n  0x00\n    /* \"#utility.yul\":1401:1489   */\n  mstore\n    /* \"#utility.yul\":1508:1512   */\n  0x11\n    /* \"#utility.yul\":1505:1506   */\n  0x04\n    /* \"#utility.yul\":1498:1513   */\n  mstore\n    /* \"#utility.yul\":1532:1536   */\n  0x24\n    /* \"#utility.yul\":1529:1530   */\n  0x00\n    /* \"#utility.yul\":1522:1537   */\n  revert\n    /* \"#utility.yul\":1549:1854   */\ntag_7:\n    /* \"#utility.yul\":1589:1592   */\n  0x00\n    /* \"#utility.yul\":1608:1628   */\n  tag_34\n    /* \"#utility.yul\":1626:1627   */\n  dup3\n    /* \"#utility.yul\":1608:1628   */\n  tag_12\n  jump\t// in\ntag_34:\n    /* \"#utility.yul\":1603:1628   */\n  swap2\n  pop\n    /* \"#utility.yul\":1642:1662   */\n  tag_35\n    /* \"#utility.yul\":1660:1661   */\n  dup4\n    /* \"#utility.yul\":1642:1662   */\n  tag_12\n  jump\t// in\ntag_35:\n    /* \"#utility.yul\":1637:1662   */\n  swap3\n  pop\n    /* \"#utility.yul\":1796:1797   */\n  dup3\n    /* \"#utility.yul\":1728:1794   */\n  0xffffffffffffffffffffffffffffffffffffffffffffffffffffffffffffffff\n    /* \"#utility.yul\":1724:1798   */\n  sub\n    /* \"#utility.yul\":1721:1722   */\n  dup3\n    /* \"#utility.yul\":1718:1799   */\n  gt\n    /* \"#utility.yul\":1715:1822   */\n  iszero\n  tag_36\n  jumpi\n    /* \"#utility.yul\":1802:1820   */\n  tag_37\n  tag_15\n  jump\t// in\ntag_37:\n    /* \"#utility.yul\":1715:1822   */\ntag_36:\n    /* \"#utility.yul\":1846:1847   */\n  dup3\n    /* \"#utility.yul\":1843:1844   */\n  dup3\n    /* \"#utility.yul\":1839:1848   */\n  add\n    /* \"#utility.yul\":1832:1848   */\n  swap1\n  pop\n    /* \"#utility.yul\":1549:1854   */\n  swap3\n  swap2\n  pop\n  pop\n  jump\t// out\n    /* \"contracts/Crowd_Funding/Crowd_Funding.sol\":59:3652  contract CrowdFunding {... */\ntag_8:\n  dataSize(sub_0)\n  dup1\n  dataOffset(sub_0)\n  0x00\n  codecopy\n  0x00\n  return\nstop\n\nsub_0: assembly {\n        /* \"contracts/Crowd_Funding/Crowd_Funding.sol\":59:3652  contract CrowdFunding {... */\n      mstore(0x40, 0x80)\n      jumpi(tag_1, lt(calldatasize, 0x04))\n      shr(0xe0, calldataload(0x00))\n      dup1\n      0x590e1ae3\n      gt\n      tag_19\n      jumpi\n      dup1\n      0x9fb42b1f\n      gt\n      tag_20\n      jumpi\n      dup1\n      0x9fb42b1f\n      eq\n      tag_14\n      jumpi\n      dup1\n      0xc59ee1dc\n      eq\n      tag_15\n      jumpi\n      dup1\n      0xd4b83992\n      eq\n      tag_16\n      jumpi\n      dup1\n      0xdbddd8db\n      eq\n      tag_17\n      jumpi\n      dup1\n      0xedf26d9b\n      eq\n      tag_18\n      jumpi\n      jump(tag_1)\n    tag_20:\n      dup1\n      0x590e1ae3\n      eq\n      tag_10\n      jumpi\n      dup1\n      0x6f9fb98a\n      eq\n      tag_11\n      jumpi\n      dup1\n      0x81d12c58\n      eq\n      tag_12\n      jumpi\n      dup1\n      0x937e09b1\n      eq\n      tag_13\n      jumpi\n      jump(tag_1)\n    tag_19:\n      dup1\n      0x481c6a75\n      gt\n      tag_21\n      jumpi\n      dup1\n      0x481c6a75\n      eq\n      tag_6\n      jumpi\n      dup1\n      0x4cb6f4a5\n      eq\n      tag_7\n      jumpi\n      dup1\n      0x4e260f6f\n      eq\n      tag_8\n      jumpi\n      dup1\n      0x5114cb52\n      eq\n      tag_9\n      jumpi\n      jump(tag_1)\n    tag_21:\n      dup1\n      0x06e99fef\n      eq\n      tag_2\n      jumpi\n      dup1\n      0x1f6d4942\n      eq\n      tag_3\n      jumpi\n      dup1\n      0x29dcb0cf\n      eq\n      tag_4\n      jumpi\n      dup1\n      0x3eb7647b\n      eq\n      tag_5\n      jumpi\n    tag_1:\n      0x00\n      dup1\n      revert\n        /* \"contracts/Crowd_Funding/Crowd_Funding.sol\":977:1425  function sendEth() public payable {... */\n    tag_2:\n      tag_22\n      tag_23\n      jump\t// in\n    tag_22:\n      stop\n        /* \"contracts/Crowd_Funding/Crowd_Funding.sol\":600:643  mapping (address=>uint) public contributors */\n    tag_3:\n      callvalue\n      dup1\n      iszero\n      tag_24\n      jumpi\n      0x00\n      dup1\n      revert\n    tag_24:\n      pop\n      tag_25\n      0x04\n      dup1\n      calldatasize\n      sub\n      dup2\n      add\n      swap1\n      tag_26\n      swap2\n      swap1\n      tag_27\n      jump\t// in\n    tag_26:\n      tag_28\n      jump\t// in\n    tag_25:\n      mload(0x40)\n      tag_29\n      swap2\n      swap1\n      tag_30\n      jump\t// in\n    tag_29:\n      mload(0x40)\n      dup1\n      swap2\n      sub\n      swap1\n      return\n        /* \"contracts/Crowd_Funding/Crowd_Funding.sol\":155:175  uint public deadline */\n    tag_4:\n      callvalue\n      dup1\n      iszero\n      tag_31\n      jumpi\n      0x00\n      dup1\n      revert\n    tag_31:\n      pop\n      tag_32\n      tag_33\n      jump\t// in\n    tag_32:\n      mload(0x40)\n      tag_34\n      swap2\n      swap1\n      tag_30\n      jump\t// in\n    tag_34:\n      mload(0x40)\n      dup1\n      swap2\n      sub\n      swap1\n      return\n        /* \"contracts/Crowd_Funding/Crowd_Funding.sol\":2407:2810  function createRequests(string memory _description,address payable _recipient,uint _value) public onlyManager{... */\n    tag_5:\n      callvalue\n      dup1\n      iszero\n      tag_35\n      jumpi\n      0x00\n      dup1\n      revert\n    tag_35:\n      pop\n      tag_36\n      0x04\n      dup1\n      calldatasize\n      sub\n      dup2\n      add\n      swap1\n      tag_37\n      swap2\n      swap1\n      tag_38\n      jump\t// in\n    tag_37:\n      tag_39\n      jump\t// in\n    tag_36:\n      stop\n        /* \"contracts/Crowd_Funding/Crowd_Funding.sol\":88:110  address public manager */\n    tag_6:\n      callvalue\n      dup1\n      iszero\n      tag_40\n      jumpi\n      0x00\n      dup1\n      revert\n    tag_40:\n      pop\n      tag_41\n      tag_42\n      jump\t// in\n    tag_41:\n      mload(0x40)\n      tag_43\n      swap2\n      swap1\n      tag_44\n      jump\t// in\n    tag_43:\n      mload(0x40)\n      dup1\n      swap2\n      sub\n      swap1\n      return\n        /* \"contracts/Crowd_Funding/Crowd_Funding.sol\":2818:3174  function voteRequest(uint256 requestNo) public {... */\n    tag_7:\n      callvalue\n      dup1\n      iszero\n      tag_45\n      jumpi\n      0x00\n      dup1\n      revert\n    tag_45:\n      pop\n      tag_46\n      0x04\n      dup1\n      calldatasize\n      sub\n      dup2\n      add\n      swap1\n      tag_47\n      swap2\n      swap1\n      tag_48\n      jump\t// in\n    tag_47:\n      tag_49\n      jump\t// in\n    tag_46:\n      stop\n        /* \"contracts/Crowd_Funding/Crowd_Funding.sol\":238:266  uint public noOfContributors */\n    tag_8:\n      callvalue\n      dup1\n      iszero\n      tag_50\n      jumpi\n      0x00\n      dup1\n      revert\n    tag_50:\n      pop\n      tag_51\n      tag_52\n      jump\t// in\n    tag_51:\n      mload(0x40)\n      tag_53\n      swap2\n      swap1\n      tag_30\n      jump\t// in\n    tag_53:\n      mload(0x40)\n      dup1\n      swap2\n      sub\n      swap1\n      return\n        /* \"contracts/Crowd_Funding/Crowd_Funding.sol\":3182:3645  function makePayment(uint requestNo) public {... */\n    tag_9:\n      callvalue\n      dup1\n      iszero\n      tag_54\n      jumpi\n      0x00\n      dup1\n      revert\n    tag_54:\n      pop\n      tag_55\n      0x04\n      dup1\n      calldatasize\n      sub\n      dup2\n      add\n      swap1\n      tag_56\n      swap2\n      swap1\n      tag_48\n      jump\t// in\n    tag_56:\n      tag_57\n      jump\t// in\n    tag_55:\n      stop\n        /* \"contracts/Crowd_Funding/Crowd_Funding.sol\":1947:2399  function refund() public {... */\n    tag_10:\n      callvalue\n      dup1\n      iszero\n      tag_58\n      jumpi\n      0x00\n      dup1\n      revert\n    tag_58:\n      pop\n      tag_59\n      tag_60\n      jump\t// in\n    tag_59:\n      stop\n        /* \"contracts/Crowd_Funding/Crowd_Funding.sol\":1433:1539  function getContractBalance() public view returns(uint256) {... */\n    tag_11:\n      callvalue\n      dup1\n      iszero\n      tag_61\n      jumpi\n      0x00\n      dup1\n      revert\n    tag_61:\n      pop\n      tag_62\n      tag_63\n      jump\t// in\n    tag_62:\n      mload(0x40)\n      tag_64\n      swap2\n      swap1\n      tag_30\n      jump\t// in\n    tag_64:\n      mload(0x40)\n      dup1\n      swap2\n      sub\n      swap1\n      return\n        /* \"contracts/Crowd_Funding/Crowd_Funding.sol\":522:560  mapping(uint=>Request) public requests */\n    tag_12:\n      callvalue\n      dup1\n      iszero\n      tag_65\n      jumpi\n      0x00\n      dup1\n      revert\n    tag_65:\n      pop\n      tag_66\n      0x04\n      dup1\n      calldatasize\n      sub\n      dup2\n      add\n      swap1\n      tag_67\n      swap2\n      swap1\n      tag_48\n      jump\t// in\n    tag_67:\n      tag_68\n      jump\t// in\n    tag_66:\n      mload(0x40)\n      tag_69\n      swap6\n      swap5\n      swap4\n      swap3\n      swap2\n      swap1\n      tag_70\n      jump\t// in\n    tag_69:\n      mload(0x40)\n      dup1\n      swap2\n      sub\n      swap1\n      return\n        /* \"contracts/Crowd_Funding/Crowd_Funding.sol\":117:148  uint public minimumContribution */\n    tag_13:\n      callvalue\n      dup1\n      iszero\n      tag_71\n      jumpi\n      0x00\n      dup1\n      revert\n    tag_71:\n      pop\n      tag_72\n      tag_73\n      jump\t// in\n    tag_72:\n      mload(0x40)\n      tag_74\n      swap2\n      swap1\n      tag_30\n      jump\t// in\n    tag_74:\n      mload(0x40)\n      dup1\n      swap2\n      sub\n      swap1\n      return\n        /* \"contracts/Crowd_Funding/Crowd_Funding.sol\":567:590  uint public numRequests */\n    tag_14:\n      callvalue\n      dup1\n      iszero\n      tag_75\n      jumpi\n      0x00\n      dup1\n      revert\n    tag_75:\n      pop\n      tag_76\n      tag_77\n      jump\t// in\n    tag_76:\n      mload(0x40)\n      tag_78\n      swap2\n      swap1\n      tag_30\n      jump\t// in\n    tag_78:\n      mload(0x40)\n      dup1\n      swap2\n      sub\n      swap1\n      return\n        /* \"contracts/Crowd_Funding/Crowd_Funding.sol\":207:231  uint public raisedAmount */\n    tag_15:\n      callvalue\n      dup1\n      iszero\n      tag_79\n      jumpi\n      0x00\n      dup1\n      revert\n    tag_79:\n      pop\n      tag_80\n      tag_81\n      jump\t// in\n    tag_80:\n      mload(0x40)\n      tag_82\n      swap2\n      swap1\n      tag_30\n      jump\t// in\n    tag_82:\n      mload(0x40)\n      dup1\n      swap2\n      sub\n      swap1\n      return\n        /* \"contracts/Crowd_Funding/Crowd_Funding.sol\":182:200  uint public target */\n    tag_16:\n      callvalue\n      dup1\n      iszero\n      tag_83\n      jumpi\n      0x00\n      dup1\n      revert\n    tag_83:\n      pop\n      tag_84\n      tag_85\n      jump\t// in\n    tag_84:\n      mload(0x40)\n      tag_86\n      swap2\n      swap1\n      tag_30\n      jump\t// in\n    tag_86:\n      mload(0x40)\n      dup1\n      swap2\n      sub\n      swap1\n      return\n        /* \"contracts/Crowd_Funding/Crowd_Funding.sol\":1547:1939  function refundToAll() public {... */\n    tag_17:\n      callvalue\n      dup1\n      iszero\n      tag_87\n      jumpi\n      0x00\n      dup1\n      revert\n    tag_87:\n      pop\n      tag_88\n      tag_89\n      jump\t// in\n    tag_88:\n      stop\n        /* \"contracts/Crowd_Funding/Crowd_Funding.sol\":273:307  address payable[] public addresses */\n    tag_18:\n      callvalue\n      dup1\n      iszero\n      tag_90\n      jumpi\n      0x00\n      dup1\n      revert\n    tag_90:\n      pop\n      tag_91\n      0x04\n      dup1\n      calldatasize\n      sub\n      dup2\n      add\n      swap1\n      tag_92\n      swap2\n      swap1\n      tag_48\n      jump\t// in\n    tag_92:\n      tag_93\n      jump\t// in\n    tag_91:\n      mload(0x40)\n      tag_94\n      swap2\n      swap1\n      tag_95\n      jump\t// in\n    tag_94:\n      mload(0x40)\n      dup1\n      swap2\n      sub\n      swap1\n      return\n        /* \"contracts/Crowd_Funding/Crowd_Funding.sol\":977:1425  function sendEth() public payable {... */\n    tag_23:\n        /* \"contracts/Crowd_Funding/Crowd_Funding.sol\":1048:1056  deadline */\n      sload(0x02)\n        /* \"contracts/Crowd_Funding/Crowd_Funding.sol\":1030:1045  block.timestamp */\n      timestamp\n        /* \"contracts/Crowd_Funding/Crowd_Funding.sol\":1030:1056  block.timestamp < deadline */\n      lt\n        /* \"contracts/Crowd_Funding/Crowd_Funding.sol\":1022:1079  require(block.timestamp < deadline,\"Deadline has passed\") */\n      tag_97\n      jumpi\n      mload(0x40)\n      0x08c379a000000000000000000000000000000000000000000000000000000000\n      dup2\n      mstore\n      0x04\n      add\n      tag_98\n      swap1\n      tag_99\n      jump\t// in\n    tag_98:\n      mload(0x40)\n      dup1\n      swap2\n      sub\n      swap1\n      revert\n    tag_97:\n        /* \"contracts/Crowd_Funding/Crowd_Funding.sol\":1111:1130  minimumContribution */\n      sload(0x01)\n        /* \"contracts/Crowd_Funding/Crowd_Funding.sol\":1098:1107  msg.value */\n      callvalue\n        /* \"contracts/Crowd_Funding/Crowd_Funding.sol\":1098:1130  msg.value >= minimumContribution */\n      lt\n      iszero\n        /* \"contracts/Crowd_Funding/Crowd_Funding.sol\":1090:1166  require(msg.value >= minimumContribution,\"Minimum contribution has not met\") */\n      tag_100\n      jumpi\n      mload(0x40)\n      0x08c379a000000000000000000000000000000000000000000000000000000000\n      dup2\n      mstore\n      0x04\n      add\n      tag_101\n      swap1\n      tag_102\n      jump\t// in\n    tag_101:\n      mload(0x40)\n      dup1\n      swap2\n      sub\n      swap1\n      revert\n    tag_100:\n        /* \"contracts/Crowd_Funding/Crowd_Funding.sol\":1208:1209  0 */\n      0x00\n        /* \"contracts/Crowd_Funding/Crowd_Funding.sol\":1180:1192  contributors */\n      0x09\n        /* \"contracts/Crowd_Funding/Crowd_Funding.sol\":1180:1204  contributors[msg.sender] */\n      0x00\n        /* \"contracts/Crowd_Funding/Crowd_Funding.sol\":1193:1203  msg.sender */\n      caller\n        /* \"contracts/Crowd_Funding/Crowd_Funding.sol\":1180:1204  contributors[msg.sender] */\n      0xffffffffffffffffffffffffffffffffffffffff\n      and\n      0xffffffffffffffffffffffffffffffffffffffff\n      and\n      dup2\n      mstore\n      0x20\n      add\n      swap1\n      dup2\n      mstore\n      0x20\n      add\n      0x00\n      keccak256\n      sload\n        /* \"contracts/Crowd_Funding/Crowd_Funding.sol\":1180:1209  contributors[msg.sender] == 0 */\n      sub\n        /* \"contracts/Crowd_Funding/Crowd_Funding.sol\":1177:1315  if(contributors[msg.sender] == 0)... */\n      tag_103\n      jumpi\n        /* \"contracts/Crowd_Funding/Crowd_Funding.sol\":1235:1251  noOfContributors */\n      0x05\n      0x00\n        /* \"contracts/Crowd_Funding/Crowd_Funding.sol\":1235:1253  noOfContributors++ */\n      dup2\n      sload\n      dup1\n      swap3\n      swap2\n      swap1\n      tag_104\n      swap1\n      tag_105\n      jump\t// in\n    tag_104:\n      swap2\n      swap1\n      pop\n      sstore\n      pop\n        /* \"contracts/Crowd_Funding/Crowd_Funding.sol\":1268:1277  addresses */\n      0x06\n        /* \"contracts/Crowd_Funding/Crowd_Funding.sol\":1291:1301  msg.sender */\n      caller\n        /* \"contracts/Crowd_Funding/Crowd_Funding.sol\":1268:1303  addresses.push(payable(msg.sender)) */\n      swap1\n      dup1\n      0x01\n      dup2\n      sload\n      add\n      dup1\n      dup3\n      sstore\n      dup1\n      swap2\n      pop\n      pop\n      0x01\n      swap1\n      sub\n      swap1\n      0x00\n      mstore\n      keccak256(0x00, 0x20)\n      add\n      0x00\n      swap1\n      swap2\n      swap1\n      swap2\n      swap1\n      swap2\n      0x0100\n      exp\n      dup2\n      sload\n      dup2\n      0xffffffffffffffffffffffffffffffffffffffff\n      mul\n      not\n      and\n      swap1\n      dup4\n      0xffffffffffffffffffffffffffffffffffffffff\n      and\n      mul\n      or\n      swap1\n      sstore\n      pop\n        /* \"contracts/Crowd_Funding/Crowd_Funding.sol\":1177:1315  if(contributors[msg.sender] == 0)... */\n    tag_103:\n        /* \"contracts/Crowd_Funding/Crowd_Funding.sol\":1363:1372  msg.value */\n      callvalue\n        /* \"contracts/Crowd_Funding/Crowd_Funding.sol\":1335:1347  contributors */\n      0x09\n        /* \"contracts/Crowd_Funding/Crowd_Funding.sol\":1335:1359  contributors[msg.sender] */\n      0x00\n        /* \"contracts/Crowd_Funding/Crowd_Funding.sol\":1348:1358  msg.sender */\n      caller\n        /* \"contracts/Crowd_Funding/Crowd_Funding.sol\":1335:1359  contributors[msg.sender] */\n      0xffffffffffffffffffffffffffffffffffffffff\n      and\n      0xffffffffffffffffffffffffffffffffffffffff\n      and\n      dup2\n      mstore\n      0x20\n      add\n      swap1\n      dup2\n      mstore\n      0x20\n      add\n      0x00\n      keccak256\n      0x00\n        /* \"contracts/Crowd_Funding/Crowd_Funding.sol\":1335:1372  contributors[msg.sender] += msg.value */\n      dup3\n      dup3\n      sload\n      tag_107\n      swap2\n      swap1\n      tag_108\n      jump\t// in\n    tag_107:\n      swap3\n      pop\n      pop\n      dup2\n      swap1\n      sstore\n      pop\n        /* \"contracts/Crowd_Funding/Crowd_Funding.sol\":1397:1406  msg.value */\n      callvalue\n        /* \"contracts/Crowd_Funding/Crowd_Funding.sol\":1383:1395  raisedAmount */\n      0x04\n      0x00\n        /* \"contracts/Crowd_Funding/Crowd_Funding.sol\":1383:1406  raisedAmount+=msg.value */\n      dup3\n      dup3\n      sload\n      tag_109\n      swap2\n      swap1\n      tag_108\n      jump\t// in\n    tag_109:\n      swap3\n      pop\n      pop\n      dup2\n      swap1\n      sstore\n      pop\n        /* \"contracts/Crowd_Funding/Crowd_Funding.sol\":977:1425  function sendEth() public payable {... */\n      jump\t// out\n        /* \"contracts/Crowd_Funding/Crowd_Funding.sol\":600:643  mapping (address=>uint) public contributors */\n    tag_28:\n      mstore(0x20, 0x09)\n      dup1\n      0x00\n      mstore\n      keccak256(0x00, 0x40)\n      0x00\n      swap2\n      pop\n      swap1\n      pop\n      sload\n      dup2\n      jump\t// out\n        /* \"contracts/Crowd_Funding/Crowd_Funding.sol\":155:175  uint public deadline */\n    tag_33:\n      sload(0x02)\n      dup2\n      jump\t// out\n        /* \"contracts/Crowd_Funding/Crowd_Funding.sol\":2407:2810  function createRequests(string memory _description,address payable _recipient,uint _value) public onlyManager{... */\n    tag_39:\n        /* \"contracts/Crowd_Funding/Crowd_Funding.sol\":939:949  msg.sender */\n      caller\n        /* \"contracts/Crowd_Funding/Crowd_Funding.sol\":929:936  manager */\n      0x00\n      dup1\n        /* \"contracts/Crowd_Funding/Crowd_Funding.sol\":929:949  manager = msg.sender */\n      0x0100\n      exp\n      dup2\n      sload\n      dup2\n      0xffffffffffffffffffffffffffffffffffffffff\n      mul\n      not\n      and\n      swap1\n      dup4\n      0xffffffffffffffffffffffffffffffffffffffff\n      and\n      mul\n      or\n      swap1\n      sstore\n      pop\n        /* \"contracts/Crowd_Funding/Crowd_Funding.sol\":2527:2553  Request storage newRequest */\n      0x00\n        /* \"contracts/Crowd_Funding/Crowd_Funding.sol\":2556:2564  requests */\n      0x07\n        /* \"contracts/Crowd_Funding/Crowd_Funding.sol\":2556:2577  requests[numRequests] */\n      0x00\n        /* \"contracts/Crowd_Funding/Crowd_Funding.sol\":2565:2576  numRequests */\n      sload(0x08)\n        /* \"contracts/Crowd_Funding/Crowd_Funding.sol\":2556:2577  requests[numRequests] */\n      dup2\n      mstore\n      0x20\n      add\n      swap1\n      dup2\n      mstore\n      0x20\n      add\n      0x00\n      keccak256\n        /* \"contracts/Crowd_Funding/Crowd_Funding.sol\":2527:2577  Request storage newRequest = requests[numRequests] */\n      swap1\n      pop\n        /* \"contracts/Crowd_Funding/Crowd_Funding.sol\":2588:2599  numRequests */\n      0x08\n      0x00\n        /* \"contracts/Crowd_Funding/Crowd_Funding.sol\":2588:2601  numRequests++ */\n      dup2\n      sload\n      dup1\n      swap3\n      swap2\n      swap1\n      tag_112\n      swap1\n      tag_105\n      jump\t// in\n    tag_112:\n      swap2\n      swap1\n      pop\n      sstore\n      pop\n        /* \"contracts/Crowd_Funding/Crowd_Funding.sol\":2635:2647  _description */\n      dup4\n        /* \"contracts/Crowd_Funding/Crowd_Funding.sol\":2612:2622  newRequest */\n      dup2\n        /* \"contracts/Crowd_Funding/Crowd_Funding.sol\":2612:2634  newRequest.description */\n      0x00\n      add\n        /* \"contracts/Crowd_Funding/Crowd_Funding.sol\":2612:2647  newRequest.description=_description */\n      swap1\n      dup1\n      mload\n      swap1\n      0x20\n      add\n      swap1\n      tag_113\n      swap3\n      swap2\n      swap1\n      tag_114\n      jump\t// in\n    tag_113:\n      pop\n        /* \"contracts/Crowd_Funding/Crowd_Funding.sol\":2679:2689  _recipient */\n      dup3\n        /* \"contracts/Crowd_Funding/Crowd_Funding.sol\":2658:2668  newRequest */\n      dup2\n        /* \"contracts/Crowd_Funding/Crowd_Funding.sol\":2658:2678  newRequest.recipient */\n      0x01\n      add\n      0x00\n        /* \"contracts/Crowd_Funding/Crowd_Funding.sol\":2658:2689  newRequest.recipient=_recipient */\n      0x0100\n      exp\n      dup2\n      sload\n      dup2\n      0xffffffffffffffffffffffffffffffffffffffff\n      mul\n      not\n      and\n      swap1\n      dup4\n      0xffffffffffffffffffffffffffffffffffffffff\n      and\n      mul\n      or\n      swap1\n      sstore\n      pop\n        /* \"contracts/Crowd_Funding/Crowd_Funding.sol\":2717:2723  _value */\n      dup2\n        /* \"contracts/Crowd_Funding/Crowd_Funding.sol\":2700:2710  newRequest */\n      dup2\n        /* \"contracts/Crowd_Funding/Crowd_Funding.sol\":2700:2716  newRequest.value */\n      0x02\n      add\n        /* \"contracts/Crowd_Funding/Crowd_Funding.sol\":2700:2723  newRequest.value=_value */\n      dup2\n      swap1\n      sstore\n      pop\n        /* \"contracts/Crowd_Funding/Crowd_Funding.sol\":2755:2760  false */\n      0x00\n        /* \"contracts/Crowd_Funding/Crowd_Funding.sol\":2734:2744  newRequest */\n      dup2\n        /* \"contracts/Crowd_Funding/Crowd_Funding.sol\":2734:2754  newRequest.completed */\n      0x03\n      add\n      0x00\n        /* \"contracts/Crowd_Funding/Crowd_Funding.sol\":2734:2760  newRequest.completed=false */\n      0x0100\n      exp\n      dup2\n      sload\n      dup2\n      0xff\n      mul\n      not\n      and\n      swap1\n      dup4\n      iszero\n      iszero\n      mul\n      or\n      swap1\n      sstore\n      pop\n        /* \"contracts/Crowd_Funding/Crowd_Funding.sol\":2793:2794  0 */\n      0x00\n        /* \"contracts/Crowd_Funding/Crowd_Funding.sol\":2771:2781  newRequest */\n      dup2\n        /* \"contracts/Crowd_Funding/Crowd_Funding.sol\":2771:2792  newRequest.noOfVoters */\n      0x04\n      add\n        /* \"contracts/Crowd_Funding/Crowd_Funding.sol\":2771:2794  newRequest.noOfVoters=0 */\n      dup2\n      swap1\n      sstore\n      pop\n        /* \"contracts/Crowd_Funding/Crowd_Funding.sol\":2516:2810  {... */\n      pop\n        /* \"contracts/Crowd_Funding/Crowd_Funding.sol\":2407:2810  function createRequests(string memory _description,address payable _recipient,uint _value) public onlyManager{... */\n      pop\n      pop\n      pop\n      jump\t// out\n        /* \"contracts/Crowd_Funding/Crowd_Funding.sol\":88:110  address public manager */\n    tag_42:\n      0x00\n      dup1\n      sload\n      swap1\n      0x0100\n      exp\n      swap1\n      div\n      0xffffffffffffffffffffffffffffffffffffffff\n      and\n      dup2\n      jump\t// out\n        /* \"contracts/Crowd_Funding/Crowd_Funding.sol\":2818:3174  function voteRequest(uint256 requestNo) public {... */\n    tag_49:\n        /* \"contracts/Crowd_Funding/Crowd_Funding.sol\":2911:2912  0 */\n      0x00\n        /* \"contracts/Crowd_Funding/Crowd_Funding.sol\":2884:2896  contributors */\n      0x09\n        /* \"contracts/Crowd_Funding/Crowd_Funding.sol\":2884:2908  contributors[msg.sender] */\n      0x00\n        /* \"contracts/Crowd_Funding/Crowd_Funding.sol\":2897:2907  msg.sender */\n      caller\n        /* \"contracts/Crowd_Funding/Crowd_Funding.sol\":2884:2908  contributors[msg.sender] */\n      0xffffffffffffffffffffffffffffffffffffffff\n      and\n      0xffffffffffffffffffffffffffffffffffffffff\n      and\n      dup2\n      mstore\n      0x20\n      add\n      swap1\n      dup2\n      mstore\n      0x20\n      add\n      0x00\n      keccak256\n      sload\n        /* \"contracts/Crowd_Funding/Crowd_Funding.sol\":2884:2912  contributors[msg.sender] > 0 */\n      gt\n        /* \"contracts/Crowd_Funding/Crowd_Funding.sol\":2876:2942  require(contributors[msg.sender] > 0,\"You are not a contributor.\") */\n      tag_116\n      jumpi\n      mload(0x40)\n      0x08c379a000000000000000000000000000000000000000000000000000000000\n      dup2\n      mstore\n      0x04\n      add\n      tag_117\n      swap1\n      tag_118\n      jump\t// in\n    tag_117:\n      mload(0x40)\n      dup1\n      swap2\n      sub\n      swap1\n      revert\n    tag_116:\n        /* \"contracts/Crowd_Funding/Crowd_Funding.sol\":2953:2980  Request storage thisRequest */\n      0x00\n        /* \"contracts/Crowd_Funding/Crowd_Funding.sol\":2983:2991  requests */\n      0x07\n        /* \"contracts/Crowd_Funding/Crowd_Funding.sol\":2983:3002  requests[requestNo] */\n      0x00\n        /* \"contracts/Crowd_Funding/Crowd_Funding.sol\":2992:3001  requestNo */\n      dup4\n        /* \"contracts/Crowd_Funding/Crowd_Funding.sol\":2983:3002  requests[requestNo] */\n      dup2\n      mstore\n      0x20\n      add\n      swap1\n      dup2\n      mstore\n      0x20\n      add\n      0x00\n      keccak256\n        /* \"contracts/Crowd_Funding/Crowd_Funding.sol\":2953:3002  Request storage thisRequest = requests[requestNo] */\n      swap1\n      pop\n        /* \"contracts/Crowd_Funding/Crowd_Funding.sol\":3055:3060  false */\n      0x00\n        /* \"contracts/Crowd_Funding/Crowd_Funding.sol\":3021:3060  thisRequest.voters[msg.sender] == false */\n      iszero\n      iszero\n        /* \"contracts/Crowd_Funding/Crowd_Funding.sol\":3021:3032  thisRequest */\n      dup2\n        /* \"contracts/Crowd_Funding/Crowd_Funding.sol\":3021:3039  thisRequest.voters */\n      0x05\n      add\n        /* \"contracts/Crowd_Funding/Crowd_Funding.sol\":3021:3051  thisRequest.voters[msg.sender] */\n      0x00\n        /* \"contracts/Crowd_Funding/Crowd_Funding.sol\":3040:3050  msg.sender */\n      caller\n        /* \"contracts/Crowd_Funding/Crowd_Funding.sol\":3021:3051  thisRequest.voters[msg.sender] */\n      0xffffffffffffffffffffffffffffffffffffffff\n      and\n      0xffffffffffffffffffffffffffffffffffffffff\n      and\n      dup2\n      mstore\n      0x20\n      add\n      swap1\n      dup2\n      mstore\n      0x20\n      add\n      0x00\n      keccak256\n      0x00\n      swap1\n      sload\n      swap1\n      0x0100\n      exp\n      swap1\n      div\n      0xff\n      and\n        /* \"contracts/Crowd_Funding/Crowd_Funding.sol\":3021:3060  thisRequest.voters[msg.sender] == false */\n      iszero\n      iszero\n      eq\n        /* \"contracts/Crowd_Funding/Crowd_Funding.sol\":3013:3083  require(thisRequest.voters[msg.sender] == false ,\"You already voted.\") */\n      tag_119\n      jumpi\n      mload(0x40)\n      0x08c379a000000000000000000000000000000000000000000000000000000000\n      dup2\n      mstore\n      0x04\n      add\n      tag_120\n      swap1\n      tag_121\n      jump\t// in\n    tag_120:\n      mload(0x40)\n      dup1\n      swap2\n      sub\n      swap1\n      revert\n    tag_119:\n        /* \"contracts/Crowd_Funding/Crowd_Funding.sol\":3127:3131  true */\n      0x01\n        /* \"contracts/Crowd_Funding/Crowd_Funding.sol\":3094:3105  thisRequest */\n      dup2\n        /* \"contracts/Crowd_Funding/Crowd_Funding.sol\":3094:3112  thisRequest.voters */\n      0x05\n      add\n        /* \"contracts/Crowd_Funding/Crowd_Funding.sol\":3094:3124  thisRequest.voters[msg.sender] */\n      0x00\n        /* \"contracts/Crowd_Funding/Crowd_Funding.sol\":3113:3123  msg.sender */\n      caller\n        /* \"contracts/Crowd_Funding/Crowd_Funding.sol\":3094:3124  thisRequest.voters[msg.sender] */\n      0xffffffffffffffffffffffffffffffffffffffff\n      and\n      0xffffffffffffffffffffffffffffffffffffffff\n      and\n      dup2\n      mstore\n      0x20\n      add\n      swap1\n      dup2\n      mstore\n      0x20\n      add\n      0x00\n      keccak256\n      0x00\n        /* \"contracts/Crowd_Funding/Crowd_Funding.sol\":3094:3131  thisRequest.voters[msg.sender] = true */\n      0x0100\n      exp\n      dup2\n      sload\n      dup2\n      0xff\n      mul\n      not\n      and\n      swap1\n      dup4\n      iszero\n      iszero\n      mul\n      or\n      swap1\n      sstore\n      pop\n        /* \"contracts/Crowd_Funding/Crowd_Funding.sol\":3142:3153  thisRequest */\n      dup1\n        /* \"contracts/Crowd_Funding/Crowd_Funding.sol\":3142:3164  thisRequest.noOfVoters */\n      0x04\n      add\n      0x00\n        /* \"contracts/Crowd_Funding/Crowd_Funding.sol\":3142:3166  thisRequest.noOfVoters++ */\n      dup2\n      sload\n      dup1\n      swap3\n      swap2\n      swap1\n      tag_122\n      swap1\n      tag_105\n      jump\t// in\n    tag_122:\n      swap2\n      swap1\n      pop\n      sstore\n      pop\n        /* \"contracts/Crowd_Funding/Crowd_Funding.sol\":2865:3174  {... */\n      pop\n        /* \"contracts/Crowd_Funding/Crowd_Funding.sol\":2818:3174  function voteRequest(uint256 requestNo) public {... */\n      pop\n      jump\t// out\n        /* \"contracts/Crowd_Funding/Crowd_Funding.sol\":238:266  uint public noOfContributors */\n    tag_52:\n      sload(0x05)\n      dup2\n      jump\t// out\n        /* \"contracts/Crowd_Funding/Crowd_Funding.sol\":3182:3645  function makePayment(uint requestNo) public {... */\n    tag_57:\n        /* \"contracts/Crowd_Funding/Crowd_Funding.sol\":3261:3267  target */\n      sload(0x03)\n        /* \"contracts/Crowd_Funding/Crowd_Funding.sol\":3245:3257  raisedAmount */\n      sload(0x04)\n        /* \"contracts/Crowd_Funding/Crowd_Funding.sol\":3245:3267  raisedAmount >= target */\n      lt\n      iszero\n        /* \"contracts/Crowd_Funding/Crowd_Funding.sol\":3237:3304  require(raisedAmount >= target,\"Target amount has not reahed yet.\") */\n      tag_124\n      jumpi\n      mload(0x40)\n      0x08c379a000000000000000000000000000000000000000000000000000000000\n      dup2\n      mstore\n      0x04\n      add\n      tag_125\n      swap1\n      tag_126\n      jump\t// in\n    tag_125:\n      mload(0x40)\n      dup1\n      swap2\n      sub\n      swap1\n      revert\n    tag_124:\n        /* \"contracts/Crowd_Funding/Crowd_Funding.sol\":3315:3342  Request storage thisRequest */\n      0x00\n        /* \"contracts/Crowd_Funding/Crowd_Funding.sol\":3345:3353  requests */\n      0x07\n        /* \"contracts/Crowd_Funding/Crowd_Funding.sol\":3345:3364  requests[requestNo] */\n      0x00\n        /* \"contracts/Crowd_Funding/Crowd_Funding.sol\":3354:3363  requestNo */\n      dup4\n        /* \"contracts/Crowd_Funding/Crowd_Funding.sol\":3345:3364  requests[requestNo] */\n      dup2\n      mstore\n      0x20\n      add\n      swap1\n      dup2\n      mstore\n      0x20\n      add\n      0x00\n      keccak256\n        /* \"contracts/Crowd_Funding/Crowd_Funding.sol\":3315:3364  Request storage thisRequest = requests[requestNo] */\n      swap1\n      pop\n        /* \"contracts/Crowd_Funding/Crowd_Funding.sol\":3425:3426  2 */\n      0x02\n        /* \"contracts/Crowd_Funding/Crowd_Funding.sol\":3408:3424  noOfContributors */\n      sload(0x05)\n        /* \"contracts/Crowd_Funding/Crowd_Funding.sol\":3408:3426  noOfContributors/2 */\n      tag_127\n      swap2\n      swap1\n      tag_128\n      jump\t// in\n    tag_127:\n        /* \"contracts/Crowd_Funding/Crowd_Funding.sol\":3383:3394  thisRequest */\n      dup2\n        /* \"contracts/Crowd_Funding/Crowd_Funding.sol\":3383:3405  thisRequest.noOfVoters */\n      0x04\n      add\n      sload\n        /* \"contracts/Crowd_Funding/Crowd_Funding.sol\":3383:3426  thisRequest.noOfVoters > noOfContributors/2 */\n      gt\n        /* \"contracts/Crowd_Funding/Crowd_Funding.sol\":3375:3455  require(thisRequest.noOfVoters > noOfContributors/2,\"Majority does not support\") */\n      tag_129\n      jumpi\n      mload(0x40)\n      0x08c379a000000000000000000000000000000000000000000000000000000000\n      dup2\n      mstore\n      0x04\n      add\n      tag_130\n      swap1\n      tag_131\n      jump\t// in\n    tag_130:\n      mload(0x40)\n      dup1\n      swap2\n      sub\n      swap1\n      revert\n    tag_129:\n        /* \"contracts/Crowd_Funding/Crowd_Funding.sol\":3499:3504  false */\n      0x00\n        /* \"contracts/Crowd_Funding/Crowd_Funding.sol\":3474:3504  thisRequest.completed == false */\n      iszero\n      iszero\n        /* \"contracts/Crowd_Funding/Crowd_Funding.sol\":3474:3485  thisRequest */\n      dup2\n        /* \"contracts/Crowd_Funding/Crowd_Funding.sol\":3474:3495  thisRequest.completed */\n      0x03\n      add\n      0x00\n      swap1\n      sload\n      swap1\n      0x0100\n      exp\n      swap1\n      div\n      0xff\n      and\n        /* \"contracts/Crowd_Funding/Crowd_Funding.sol\":3474:3504  thisRequest.completed == false */\n      iszero\n      iszero\n      eq\n        /* \"contracts/Crowd_Funding/Crowd_Funding.sol\":3466:3538  require(thisRequest.completed == false,\"The request has been completed\") */\n      tag_132\n      jumpi\n      mload(0x40)\n      0x08c379a000000000000000000000000000000000000000000000000000000000\n      dup2\n      mstore\n      0x04\n      add\n      tag_133\n      swap1\n      tag_134\n      jump\t// in\n    tag_133:\n      mload(0x40)\n      dup1\n      swap2\n      sub\n      swap1\n      revert\n    tag_132:\n        /* \"contracts/Crowd_Funding/Crowd_Funding.sol\":3549:3560  thisRequest */\n      dup1\n        /* \"contracts/Crowd_Funding/Crowd_Funding.sol\":3549:3570  thisRequest.recipient */\n      0x01\n      add\n      0x00\n      swap1\n      sload\n      swap1\n      0x0100\n      exp\n      swap1\n      div\n      0xffffffffffffffffffffffffffffffffffffffff\n      and\n        /* \"contracts/Crowd_Funding/Crowd_Funding.sol\":3549:3579  thisRequest.recipient.transfer */\n      0xffffffffffffffffffffffffffffffffffffffff\n      and\n        /* \"contracts/Crowd_Funding/Crowd_Funding.sol\":3549:3598  thisRequest.recipient.transfer(thisRequest.value) */\n      0x08fc\n        /* \"contracts/Crowd_Funding/Crowd_Funding.sol\":3580:3591  thisRequest */\n      dup3\n        /* \"contracts/Crowd_Funding/Crowd_Funding.sol\":3580:3597  thisRequest.value */\n      0x02\n      add\n      sload\n        /* \"contracts/Crowd_Funding/Crowd_Funding.sol\":3549:3598  thisRequest.recipient.transfer(thisRequest.value) */\n      swap1\n      dup2\n      iszero\n      mul\n      swap1\n      mload(0x40)\n      0x00\n      mload(0x40)\n      dup1\n      dup4\n      sub\n      dup2\n      dup6\n      dup9\n      dup9\n      call\n      swap4\n      pop\n      pop\n      pop\n      pop\n      iszero\n      dup1\n      iszero\n      tag_136\n      jumpi\n      returndatasize\n      0x00\n      dup1\n      returndatacopy\n      revert(0x00, returndatasize)\n    tag_136:\n      pop\n        /* \"contracts/Crowd_Funding/Crowd_Funding.sol\":3633:3637  true */\n      0x01\n        /* \"contracts/Crowd_Funding/Crowd_Funding.sol\":3609:3620  thisRequest */\n      dup2\n        /* \"contracts/Crowd_Funding/Crowd_Funding.sol\":3609:3630  thisRequest.completed */\n      0x03\n      add\n      0x00\n        /* \"contracts/Crowd_Funding/Crowd_Funding.sol\":3609:3637  thisRequest.completed = true */\n      0x0100\n      exp\n      dup2\n      sload\n      dup2\n      0xff\n      mul\n      not\n      and\n      swap1\n      dup4\n      iszero\n      iszero\n      mul\n      or\n      swap1\n      sstore\n      pop\n        /* \"contracts/Crowd_Funding/Crowd_Funding.sol\":3226:3645  {... */\n      pop\n        /* \"contracts/Crowd_Funding/Crowd_Funding.sol\":3182:3645  function makePayment(uint requestNo) public {... */\n      pop\n      jump\t// out\n        /* \"contracts/Crowd_Funding/Crowd_Funding.sol\":1947:2399  function refund() public {... */\n    tag_60:\n        /* \"contracts/Crowd_Funding/Crowd_Funding.sol\":2009:2017  deadline */\n      sload(0x02)\n        /* \"contracts/Crowd_Funding/Crowd_Funding.sol\":1991:2006  block.timestamp */\n      timestamp\n        /* \"contracts/Crowd_Funding/Crowd_Funding.sol\":1991:2017  block.timestamp > deadline */\n      gt\n        /* \"contracts/Crowd_Funding/Crowd_Funding.sol\":1983:2048  require(block.timestamp > deadline,\"Deadline has not yet passed\") */\n      tag_138\n      jumpi\n      mload(0x40)\n      0x08c379a000000000000000000000000000000000000000000000000000000000\n      dup2\n      mstore\n      0x04\n      add\n      tag_139\n      swap1\n      tag_140\n      jump\t// in\n    tag_139:\n      mload(0x40)\n      dup1\n      swap2\n      sub\n      swap1\n      revert\n    tag_138:\n        /* \"contracts/Crowd_Funding/Crowd_Funding.sol\":2092:2093  0 */\n      0x00\n        /* \"contracts/Crowd_Funding/Crowd_Funding.sol\":2067:2079  contributors */\n      0x09\n        /* \"contracts/Crowd_Funding/Crowd_Funding.sol\":2067:2091  contributors[msg.sender] */\n      0x00\n        /* \"contracts/Crowd_Funding/Crowd_Funding.sol\":2080:2090  msg.sender */\n      caller\n        /* \"contracts/Crowd_Funding/Crowd_Funding.sol\":2067:2091  contributors[msg.sender] */\n      0xffffffffffffffffffffffffffffffffffffffff\n      and\n      0xffffffffffffffffffffffffffffffffffffffff\n      and\n      dup2\n      mstore\n      0x20\n      add\n      swap1\n      dup2\n      mstore\n      0x20\n      add\n      0x00\n      keccak256\n      sload\n        /* \"contracts/Crowd_Funding/Crowd_Funding.sol\":2067:2093  contributors[msg.sender]>0 */\n      gt\n        /* \"contracts/Crowd_Funding/Crowd_Funding.sol\":2059:2121  require(contributors[msg.sender]>0,\"You have not contributed\") */\n      tag_141\n      jumpi\n      mload(0x40)\n      0x08c379a000000000000000000000000000000000000000000000000000000000\n      dup2\n      mstore\n      0x04\n      add\n      tag_142\n      swap1\n      tag_143\n      jump\t// in\n    tag_142:\n      mload(0x40)\n      dup1\n      swap2\n      sub\n      swap1\n      revert\n    tag_141:\n        /* \"contracts/Crowd_Funding/Crowd_Funding.sol\":2149:2161  raisedAmount */\n      sload(0x04)\n        /* \"contracts/Crowd_Funding/Crowd_Funding.sol\":2140:2146  target */\n      sload(0x03)\n        /* \"contracts/Crowd_Funding/Crowd_Funding.sol\":2140:2161  target < raisedAmount */\n      lt\n        /* \"contracts/Crowd_Funding/Crowd_Funding.sol\":2132:2188  require(target < raisedAmount,\"Target has not met yet.\") */\n      tag_144\n      jumpi\n      mload(0x40)\n      0x08c379a000000000000000000000000000000000000000000000000000000000\n      dup2\n      mstore\n      0x04\n      add\n      tag_145\n      swap1\n      tag_146\n      jump\t// in\n    tag_145:\n      mload(0x40)\n      dup1\n      swap2\n      sub\n      swap1\n      revert\n    tag_144:\n        /* \"contracts/Crowd_Funding/Crowd_Funding.sol\":2201:2221  address payable user */\n      0x00\n        /* \"contracts/Crowd_Funding/Crowd_Funding.sol\":2232:2242  msg.sender */\n      caller\n        /* \"contracts/Crowd_Funding/Crowd_Funding.sol\":2201:2243  address payable user = payable(msg.sender) */\n      swap1\n      pop\n        /* \"contracts/Crowd_Funding/Crowd_Funding.sol\":2254:2258  user */\n      dup1\n        /* \"contracts/Crowd_Funding/Crowd_Funding.sol\":2254:2267  user.transfer */\n      0xffffffffffffffffffffffffffffffffffffffff\n      and\n        /* \"contracts/Crowd_Funding/Crowd_Funding.sol\":2254:2287  user.transfer(contributors[user]) */\n      0x08fc\n        /* \"contracts/Crowd_Funding/Crowd_Funding.sol\":2268:2280  contributors */\n      0x09\n        /* \"contracts/Crowd_Funding/Crowd_Funding.sol\":2268:2286  contributors[user] */\n      0x00\n        /* \"contracts/Crowd_Funding/Crowd_Funding.sol\":2281:2285  user */\n      dup5\n        /* \"contracts/Crowd_Funding/Crowd_Funding.sol\":2268:2286  contributors[user] */\n      0xffffffffffffffffffffffffffffffffffffffff\n      and\n      0xffffffffffffffffffffffffffffffffffffffff\n      and\n      dup2\n      mstore\n      0x20\n      add\n      swap1\n      dup2\n      mstore\n      0x20\n      add\n      0x00\n      keccak256\n      sload\n        /* \"contracts/Crowd_Funding/Crowd_Funding.sol\":2254:2287  user.transfer(contributors[user]) */\n      swap1\n      dup2\n      iszero\n      mul\n      swap1\n      mload(0x40)\n      0x00\n      mload(0x40)\n      dup1\n      dup4\n      sub\n      dup2\n      dup6\n      dup9\n      dup9\n      call\n      swap4\n      pop\n      pop\n      pop\n      pop\n      iszero\n      dup1\n      iszero\n      tag_148\n      jumpi\n      returndatasize\n      0x00\n      dup1\n      returndatacopy\n      revert(0x00, returndatasize)\n    tag_148:\n      pop\n        /* \"contracts/Crowd_Funding/Crowd_Funding.sol\":2319:2320  0 */\n      0x00\n        /* \"contracts/Crowd_Funding/Crowd_Funding.sol\":2298:2310  contributors */\n      0x09\n        /* \"contracts/Crowd_Funding/Crowd_Funding.sol\":2298:2316  contributors[user] */\n      0x00\n        /* \"contracts/Crowd_Funding/Crowd_Funding.sol\":2311:2315  user */\n      dup4\n        /* \"contracts/Crowd_Funding/Crowd_Funding.sol\":2298:2316  contributors[user] */\n      0xffffffffffffffffffffffffffffffffffffffff\n      and\n      0xffffffffffffffffffffffffffffffffffffffff\n      and\n      dup2\n      mstore\n      0x20\n      add\n      swap1\n      dup2\n      mstore\n      0x20\n      add\n      0x00\n      keccak256\n        /* \"contracts/Crowd_Funding/Crowd_Funding.sol\":2298:2320  contributors[user] = 0 */\n      dup2\n      swap1\n      sstore\n      pop\n        /* \"contracts/Crowd_Funding/Crowd_Funding.sol\":2331:2347  noOfContributors */\n      0x05\n      0x00\n        /* \"contracts/Crowd_Funding/Crowd_Funding.sol\":2331:2349  noOfContributors-- */\n      dup2\n      sload\n      dup1\n      swap3\n      swap2\n      swap1\n      tag_149\n      swap1\n      tag_150\n      jump\t// in\n    tag_149:\n      swap2\n      swap1\n      pop\n      sstore\n      pop\n        /* \"contracts/Crowd_Funding/Crowd_Funding.sol\":1972:2399  {... */\n      pop\n        /* \"contracts/Crowd_Funding/Crowd_Funding.sol\":1947:2399  function refund() public {... */\n      jump\t// out\n        /* \"contracts/Crowd_Funding/Crowd_Funding.sol\":1433:1539  function getContractBalance() public view returns(uint256) {... */\n    tag_63:\n        /* \"contracts/Crowd_Funding/Crowd_Funding.sol\":1483:1490  uint256 */\n      0x00\n        /* \"contracts/Crowd_Funding/Crowd_Funding.sol\":1510:1531  address(this).balance */\n      selfbalance\n        /* \"contracts/Crowd_Funding/Crowd_Funding.sol\":1503:1531  return address(this).balance */\n      swap1\n      pop\n        /* \"contracts/Crowd_Funding/Crowd_Funding.sol\":1433:1539  function getContractBalance() public view returns(uint256) {... */\n      swap1\n      jump\t// out\n        /* \"contracts/Crowd_Funding/Crowd_Funding.sol\":522:560  mapping(uint=>Request) public requests */\n    tag_68:\n      mstore(0x20, 0x07)\n      dup1\n      0x00\n      mstore\n      keccak256(0x00, 0x40)\n      0x00\n      swap2\n      pop\n      swap1\n      pop\n      dup1\n      0x00\n      add\n      dup1\n      sload\n      tag_152\n      swap1\n      tag_153\n      jump\t// in\n    tag_152:\n      dup1\n      0x1f\n      add\n      0x20\n      dup1\n      swap2\n      div\n      mul\n      0x20\n      add\n      mload(0x40)\n      swap1\n      dup2\n      add\n      0x40\n      mstore\n      dup1\n      swap3\n      swap2\n      swap1\n      dup2\n      dup2\n      mstore\n      0x20\n      add\n      dup3\n      dup1\n      sload\n      tag_154\n      swap1\n      tag_153\n      jump\t// in\n    tag_154:\n      dup1\n      iszero\n      tag_155\n      jumpi\n      dup1\n      0x1f\n      lt\n      tag_156\n      jumpi\n      0x0100\n      dup1\n      dup4\n      sload\n      div\n      mul\n      dup4\n      mstore\n      swap2\n      0x20\n      add\n      swap2\n      jump(tag_155)\n    tag_156:\n      dup3\n      add\n      swap2\n      swap1\n      0x00\n      mstore\n      keccak256(0x00, 0x20)\n      swap1\n    tag_157:\n      dup2\n      sload\n      dup2\n      mstore\n      swap1\n      0x01\n      add\n      swap1\n      0x20\n      add\n      dup1\n      dup4\n      gt\n      tag_157\n      jumpi\n      dup3\n      swap1\n      sub\n      0x1f\n      and\n      dup3\n      add\n      swap2\n    tag_155:\n      pop\n      pop\n      pop\n      pop\n      pop\n      swap1\n      dup1\n      0x01\n      add\n      0x00\n      swap1\n      sload\n      swap1\n      0x0100\n      exp\n      swap1\n      div\n      0xffffffffffffffffffffffffffffffffffffffff\n      and\n      swap1\n      dup1\n      0x02\n      add\n      sload\n      swap1\n      dup1\n      0x03\n      add\n      0x00\n      swap1\n      sload\n      swap1\n      0x0100\n      exp\n      swap1\n      div\n      0xff\n      and\n      swap1\n      dup1\n      0x04\n      add\n      sload\n      swap1\n      pop\n      dup6\n      jump\t// out\n        /* \"contracts/Crowd_Funding/Crowd_Funding.sol\":117:148  uint public minimumContribution */\n    tag_73:\n      sload(0x01)\n      dup2\n      jump\t// out\n        /* \"contracts/Crowd_Funding/Crowd_Funding.sol\":567:590  uint public numRequests */\n    tag_77:\n      sload(0x08)\n      dup2\n      jump\t// out\n        /* \"contracts/Crowd_Funding/Crowd_Funding.sol\":207:231  uint public raisedAmount */\n    tag_81:\n      sload(0x04)\n      dup2\n      jump\t// out\n        /* \"contracts/Crowd_Funding/Crowd_Funding.sol\":182:200  uint public target */\n    tag_85:\n      sload(0x03)\n      dup2\n      jump\t// out\n        /* \"contracts/Crowd_Funding/Crowd_Funding.sol\":1547:1939  function refundToAll() public {... */\n    tag_89:\n        /* \"contracts/Crowd_Funding/Crowd_Funding.sol\":1607:1617  msg.sender */\n      caller\n        /* \"contracts/Crowd_Funding/Crowd_Funding.sol\":1596:1617  manager == msg.sender */\n      0xffffffffffffffffffffffffffffffffffffffff\n      and\n        /* \"contracts/Crowd_Funding/Crowd_Funding.sol\":1596:1603  manager */\n      0x00\n      dup1\n      sload\n      swap1\n      0x0100\n      exp\n      swap1\n      div\n      0xffffffffffffffffffffffffffffffffffffffff\n      and\n        /* \"contracts/Crowd_Funding/Crowd_Funding.sol\":1596:1617  manager == msg.sender */\n      0xffffffffffffffffffffffffffffffffffffffff\n      and\n      eq\n        /* \"contracts/Crowd_Funding/Crowd_Funding.sol\":1588:1645  require(manager == msg.sender,\"Only manager can refund.\") */\n      tag_159\n      jumpi\n      mload(0x40)\n      0x08c379a000000000000000000000000000000000000000000000000000000000\n      dup2\n      mstore\n      0x04\n      add\n      tag_160\n      swap1\n      tag_161\n      jump\t// in\n    tag_160:\n      mload(0x40)\n      dup1\n      swap2\n      sub\n      swap1\n      revert\n    tag_159:\n        /* \"contracts/Crowd_Funding/Crowd_Funding.sol\":1682:1690  deadline */\n      sload(0x02)\n        /* \"contracts/Crowd_Funding/Crowd_Funding.sol\":1664:1679  block.timestamp */\n      timestamp\n        /* \"contracts/Crowd_Funding/Crowd_Funding.sol\":1664:1690  block.timestamp > deadline */\n      gt\n        /* \"contracts/Crowd_Funding/Crowd_Funding.sol\":1656:1722  require(block.timestamp > deadline,\"Deadline has not yet passed.\") */\n      tag_162\n      jumpi\n      mload(0x40)\n      0x08c379a000000000000000000000000000000000000000000000000000000000\n      dup2\n      mstore\n      0x04\n      add\n      tag_163\n      swap1\n      tag_164\n      jump\t// in\n    tag_163:\n      mload(0x40)\n      dup1\n      swap2\n      sub\n      swap1\n      revert\n    tag_162:\n        /* \"contracts/Crowd_Funding/Crowd_Funding.sol\":1750:1762  raisedAmount */\n      sload(0x04)\n        /* \"contracts/Crowd_Funding/Crowd_Funding.sol\":1741:1747  target */\n      sload(0x03)\n        /* \"contracts/Crowd_Funding/Crowd_Funding.sol\":1741:1762  target < raisedAmount */\n      lt\n        /* \"contracts/Crowd_Funding/Crowd_Funding.sol\":1733:1789  require(target < raisedAmount,\"Target has not met yet.\") */\n      tag_165\n      jumpi\n      mload(0x40)\n      0x08c379a000000000000000000000000000000000000000000000000000000000\n      dup2\n      mstore\n      0x04\n      add\n      tag_166\n      swap1\n      tag_146\n      jump\t// in\n    tag_166:\n      mload(0x40)\n      dup1\n      swap2\n      sub\n      swap1\n      revert\n    tag_165:\n        /* \"contracts/Crowd_Funding/Crowd_Funding.sol\":1806:1812  uint i */\n      0x00\n        /* \"contracts/Crowd_Funding/Crowd_Funding.sol\":1802:1930  for(uint i=0 ; i < noOfContributors ; i++)... */\n    tag_167:\n        /* \"contracts/Crowd_Funding/Crowd_Funding.sol\":1821:1837  noOfContributors */\n      sload(0x05)\n        /* \"contracts/Crowd_Funding/Crowd_Funding.sol\":1817:1818  i */\n      dup2\n        /* \"contracts/Crowd_Funding/Crowd_Funding.sol\":1817:1837  i < noOfContributors */\n      lt\n        /* \"contracts/Crowd_Funding/Crowd_Funding.sol\":1802:1930  for(uint i=0 ; i < noOfContributors ; i++)... */\n      iszero\n      tag_168\n      jumpi\n        /* \"contracts/Crowd_Funding/Crowd_Funding.sol\":1869:1878  addresses */\n      0x06\n        /* \"contracts/Crowd_Funding/Crowd_Funding.sol\":1879:1880  i */\n      dup2\n        /* \"contracts/Crowd_Funding/Crowd_Funding.sol\":1869:1881  addresses[i] */\n      dup2\n      sload\n      dup2\n      lt\n      tag_170\n      jumpi\n      tag_171\n      tag_172\n      jump\t// in\n    tag_171:\n    tag_170:\n      swap1\n      0x00\n      mstore\n      keccak256(0x00, 0x20)\n      add\n      0x00\n      swap1\n      sload\n      swap1\n      0x0100\n      exp\n      swap1\n      div\n      0xffffffffffffffffffffffffffffffffffffffff\n      and\n        /* \"contracts/Crowd_Funding/Crowd_Funding.sol\":1869:1890  addresses[i].transfer */\n      0xffffffffffffffffffffffffffffffffffffffff\n      and\n        /* \"contracts/Crowd_Funding/Crowd_Funding.sol\":1869:1918  addresses[i].transfer(contributors[addresses[i]]) */\n      0x08fc\n        /* \"contracts/Crowd_Funding/Crowd_Funding.sol\":1891:1903  contributors */\n      0x09\n        /* \"contracts/Crowd_Funding/Crowd_Funding.sol\":1891:1917  contributors[addresses[i]] */\n      0x00\n        /* \"contracts/Crowd_Funding/Crowd_Funding.sol\":1904:1913  addresses */\n      0x06\n        /* \"contracts/Crowd_Funding/Crowd_Funding.sol\":1914:1915  i */\n      dup6\n        /* \"contracts/Crowd_Funding/Crowd_Funding.sol\":1904:1916  addresses[i] */\n      dup2\n      sload\n      dup2\n      lt\n      tag_174\n      jumpi\n      tag_175\n      tag_172\n      jump\t// in\n    tag_175:\n    tag_174:\n      swap1\n      0x00\n      mstore\n      keccak256(0x00, 0x20)\n      add\n      0x00\n      swap1\n      sload\n      swap1\n      0x0100\n      exp\n      swap1\n      div\n      0xffffffffffffffffffffffffffffffffffffffff\n      and\n        /* \"contracts/Crowd_Funding/Crowd_Funding.sol\":1891:1917  contributors[addresses[i]] */\n      0xffffffffffffffffffffffffffffffffffffffff\n      and\n      0xffffffffffffffffffffffffffffffffffffffff\n      and\n      dup2\n      mstore\n      0x20\n      add\n      swap1\n      dup2\n      mstore\n      0x20\n      add\n      0x00\n      keccak256\n      sload\n        /* \"contracts/Crowd_Funding/Crowd_Funding.sol\":1869:1918  addresses[i].transfer(contributors[addresses[i]]) */\n      swap1\n      dup2\n      iszero\n      mul\n      swap1\n      mload(0x40)\n      0x00\n      mload(0x40)\n      dup1\n      dup4\n      sub\n      dup2\n      dup6\n      dup9\n      dup9\n      call\n      swap4\n      pop\n      pop\n      pop\n      pop\n      iszero\n      dup1\n      iszero\n      tag_178\n      jumpi\n      returndatasize\n      0x00\n      dup1\n      returndatacopy\n      revert(0x00, returndatasize)\n    tag_178:\n      pop\n        /* \"contracts/Crowd_Funding/Crowd_Funding.sol\":1840:1843  i++ */\n      dup1\n      dup1\n      tag_179\n      swap1\n      tag_105\n      jump\t// in\n    tag_179:\n      swap2\n      pop\n      pop\n        /* \"contracts/Crowd_Funding/Crowd_Funding.sol\":1802:1930  for(uint i=0 ; i < noOfContributors ; i++)... */\n      jump(tag_167)\n    tag_168:\n      pop\n        /* \"contracts/Crowd_Funding/Crowd_Funding.sol\":1547:1939  function refundToAll() public {... */\n      jump\t// out\n        /* \"contracts/Crowd_Funding/Crowd_Funding.sol\":273:307  address payable[] public addresses */\n    tag_93:\n      0x06\n      dup2\n      dup2\n      sload\n      dup2\n      lt\n      tag_180\n      jumpi\n      0x00\n      dup1\n      revert\n    tag_180:\n      swap1\n      0x00\n      mstore\n      keccak256(0x00, 0x20)\n      add\n      0x00\n      swap2\n      pop\n      sload\n      swap1\n      0x0100\n      exp\n      swap1\n      div\n      0xffffffffffffffffffffffffffffffffffffffff\n      and\n      dup2\n      jump\t// out\n    tag_114:\n      dup3\n      dup1\n      sload\n      tag_182\n      swap1\n      tag_153\n      jump\t// in\n    tag_182:\n      swap1\n      0x00\n      mstore\n      keccak256(0x00, 0x20)\n      swap1\n      0x1f\n      add\n      0x20\n      swap1\n      div\n      dup2\n      add\n      swap3\n      dup3\n      tag_184\n      jumpi\n      0x00\n      dup6\n      sstore\n      jump(tag_183)\n    tag_184:\n      dup3\n      0x1f\n      lt\n      tag_185\n      jumpi\n      dup1\n      mload\n      not(0xff)\n      and\n      dup4\n      dup1\n      add\n      or\n      dup6\n      sstore\n      jump(tag_183)\n    tag_185:\n      dup3\n      dup1\n      add\n      0x01\n      add\n      dup6\n      sstore\n      dup3\n      iszero\n      tag_183\n      jumpi\n      swap2\n      dup3\n      add\n    tag_186:\n      dup3\n      dup2\n      gt\n      iszero\n      tag_187\n      jumpi\n      dup3\n      mload\n      dup3\n      sstore\n      swap2\n      0x20\n      add\n      swap2\n      swap1\n      0x01\n      add\n      swap1\n      jump(tag_186)\n    tag_187:\n    tag_183:\n      pop\n      swap1\n      pop\n      tag_188\n      swap2\n      swap1\n      tag_189\n      jump\t// in\n    tag_188:\n      pop\n      swap1\n      jump\t// out\n    tag_189:\n    tag_190:\n      dup1\n      dup3\n      gt\n      iszero\n      tag_191\n      jumpi\n      0x00\n      dup2\n      0x00\n      swap1\n      sstore\n      pop\n      0x01\n      add\n      jump(tag_190)\n    tag_191:\n      pop\n      swap1\n      jump\t// out\n        /* \"#utility.yul\":7:82   */\n    tag_192:\n        /* \"#utility.yul\":40:46   */\n      0x00\n        /* \"#utility.yul\":73:75   */\n      0x40\n        /* \"#utility.yul\":67:76   */\n      mload\n        /* \"#utility.yul\":57:76   */\n      swap1\n      pop\n        /* \"#utility.yul\":7:82   */\n      swap1\n      jump\t// out\n        /* \"#utility.yul\":88:205   */\n    tag_193:\n        /* \"#utility.yul\":197:198   */\n      0x00\n        /* \"#utility.yul\":194:195   */\n      dup1\n        /* \"#utility.yul\":187:199   */\n      revert\n        /* \"#utility.yul\":211:328   */\n    tag_194:\n        /* \"#utility.yul\":320:321   */\n      0x00\n        /* \"#utility.yul\":317:318   */\n      dup1\n        /* \"#utility.yul\":310:322   */\n      revert\n        /* \"#utility.yul\":334:460   */\n    tag_195:\n        /* \"#utility.yul\":371:378   */\n      0x00\n        /* \"#utility.yul\":411:453   */\n      0xffffffffffffffffffffffffffffffffffffffff\n        /* \"#utility.yul\":404:409   */\n      dup3\n        /* \"#utility.yul\":400:454   */\n      and\n        /* \"#utility.yul\":389:454   */\n      swap1\n      pop\n        /* \"#utility.yul\":334:460   */\n      swap2\n      swap1\n      pop\n      jump\t// out\n        /* \"#utility.yul\":466:562   */\n    tag_196:\n        /* \"#utility.yul\":503:510   */\n      0x00\n        /* \"#utility.yul\":532:556   */\n      tag_257\n        /* \"#utility.yul\":550:555   */\n      dup3\n        /* \"#utility.yul\":532:556   */\n      tag_195\n      jump\t// in\n    tag_257:\n        /* \"#utility.yul\":521:556   */\n      swap1\n      pop\n        /* \"#utility.yul\":466:562   */\n      swap2\n      swap1\n      pop\n      jump\t// out\n        /* \"#utility.yul\":568:690   */\n    tag_197:\n        /* \"#utility.yul\":641:665   */\n      tag_259\n        /* \"#utility.yul\":659:664   */\n      dup2\n        /* \"#utility.yul\":641:665   */\n      tag_196\n      jump\t// in\n    tag_259:\n        /* \"#utility.yul\":634:639   */\n      dup2\n        /* \"#utility.yul\":631:666   */\n      eq\n        /* \"#utility.yul\":621:684   */\n      tag_260\n      jumpi\n        /* \"#utility.yul\":680:681   */\n      0x00\n        /* \"#utility.yul\":677:678   */\n      dup1\n        /* \"#utility.yul\":670:682   */\n      revert\n        /* \"#utility.yul\":621:684   */\n    tag_260:\n        /* \"#utility.yul\":568:690   */\n      pop\n      jump\t// out\n        /* \"#utility.yul\":696:835   */\n    tag_198:\n        /* \"#utility.yul\":742:747   */\n      0x00\n        /* \"#utility.yul\":780:786   */\n      dup2\n        /* \"#utility.yul\":767:787   */\n      calldataload\n        /* \"#utility.yul\":758:787   */\n      swap1\n      pop\n        /* \"#utility.yul\":796:829   */\n      tag_262\n        /* \"#utility.yul\":823:828   */\n      dup2\n        /* \"#utility.yul\":796:829   */\n      tag_197\n      jump\t// in\n    tag_262:\n        /* \"#utility.yul\":696:835   */\n      swap3\n      swap2\n      pop\n      pop\n      jump\t// out\n        /* \"#utility.yul\":841:1170   */\n    tag_27:\n        /* \"#utility.yul\":900:906   */\n      0x00\n        /* \"#utility.yul\":949:951   */\n      0x20\n        /* \"#utility.yul\":937:946   */\n      dup3\n        /* \"#utility.yul\":928:935   */\n      dup5\n        /* \"#utility.yul\":924:947   */\n      sub\n        /* \"#utility.yul\":920:952   */\n      slt\n        /* \"#utility.yul\":917:1036   */\n      iszero\n      tag_264\n      jumpi\n        /* \"#utility.yul\":955:1034   */\n      tag_265\n      tag_193\n      jump\t// in\n    tag_265:\n        /* \"#utility.yul\":917:1036   */\n    tag_264:\n        /* \"#utility.yul\":1075:1076   */\n      0x00\n        /* \"#utility.yul\":1100:1153   */\n      tag_266\n        /* \"#utility.yul\":1145:1152   */\n      dup5\n        /* \"#utility.yul\":1136:1142   */\n      dup3\n        /* \"#utility.yul\":1125:1134   */\n      dup6\n        /* \"#utility.yul\":1121:1143   */\n      add\n        /* \"#utility.yul\":1100:1153   */\n      tag_198\n      jump\t// in\n    tag_266:\n        /* \"#utility.yul\":1090:1153   */\n      swap2\n      pop\n        /* \"#utility.yul\":1046:1163   */\n      pop\n        /* \"#utility.yul\":841:1170   */\n      swap3\n      swap2\n      pop\n      pop\n      jump\t// out\n        /* \"#utility.yul\":1176:1253   */\n    tag_199:\n        /* \"#utility.yul\":1213:1220   */\n      0x00\n        /* \"#utility.yul\":1242:1247   */\n      dup2\n        /* \"#utility.yul\":1231:1247   */\n      swap1\n      pop\n        /* \"#utility.yul\":1176:1253   */\n      swap2\n      swap1\n      pop\n      jump\t// out\n        /* \"#utility.yul\":1259:1377   */\n    tag_200:\n        /* \"#utility.yul\":1346:1370   */\n      tag_269\n        /* \"#utility.yul\":1364:1369   */\n      dup2\n        /* \"#utility.yul\":1346:1370   */\n      tag_199\n      jump\t// in\n    tag_269:\n        /* \"#utility.yul\":1341:1344   */\n      dup3\n        /* \"#utility.yul\":1334:1371   */\n      mstore\n        /* \"#utility.yul\":1259:1377   */\n      pop\n      pop\n      jump\t// out\n        /* \"#utility.yul\":1383:1605   */\n    tag_30:\n        /* \"#utility.yul\":1476:1480   */\n      0x00\n        /* \"#utility.yul\":1514:1516   */\n      0x20\n        /* \"#utility.yul\":1503:1512   */\n      dup3\n        /* \"#utility.yul\":1499:1517   */\n      add\n        /* \"#utility.yul\":1491:1517   */\n      swap1\n      pop\n        /* \"#utility.yul\":1527:1598   */\n      tag_271\n        /* \"#utility.yul\":1595:1596   */\n      0x00\n        /* \"#utility.yul\":1584:1593   */\n      dup4\n        /* \"#utility.yul\":1580:1597   */\n      add\n        /* \"#utility.yul\":1571:1577   */\n      dup5\n        /* \"#utility.yul\":1527:1598   */\n      tag_200\n      jump\t// in\n    tag_271:\n        /* \"#utility.yul\":1383:1605   */\n      swap3\n      swap2\n      pop\n      pop\n      jump\t// out\n        /* \"#utility.yul\":1611:1728   */\n    tag_201:\n        /* \"#utility.yul\":1720:1721   */\n      0x00\n        /* \"#utility.yul\":1717:1718   */\n      dup1\n        /* \"#utility.yul\":1710:1722   */\n      revert\n        /* \"#utility.yul\":1734:1851   */\n    tag_202:\n        /* \"#utility.yul\":1843:1844   */\n      0x00\n        /* \"#utility.yul\":1840:1841   */\n      dup1\n        /* \"#utility.yul\":1833:1845   */\n      revert\n        /* \"#utility.yul\":1857:1959   */\n    tag_203:\n        /* \"#utility.yul\":1898:1904   */\n      0x00\n        /* \"#utility.yul\":1949:1951   */\n      0x1f\n        /* \"#utility.yul\":1945:1952   */\n      not\n        /* \"#utility.yul\":1940:1942   */\n      0x1f\n        /* \"#utility.yul\":1933:1938   */\n      dup4\n        /* \"#utility.yul\":1929:1943   */\n      add\n        /* \"#utility.yul\":1925:1953   */\n      and\n        /* \"#utility.yul\":1915:1953   */\n      swap1\n      pop\n        /* \"#utility.yul\":1857:1959   */\n      swap2\n      swap1\n      pop\n      jump\t// out\n        /* \"#utility.yul\":1965:2145   */\n    tag_204:\n        /* \"#utility.yul\":2013:2090   */\n      0x4e487b7100000000000000000000000000000000000000000000000000000000\n        /* \"#utility.yul\":2010:2011   */\n      0x00\n        /* \"#utility.yul\":2003:2091   */\n      mstore\n        /* \"#utility.yul\":2110:2114   */\n      0x41\n        /* \"#utility.yul\":2107:2108   */\n      0x04\n        /* \"#utility.yul\":2100:2115   */\n      mstore\n        /* \"#utility.yul\":2134:2138   */\n      0x24\n        /* \"#utility.yul\":2131:2132   */\n      0x00\n        /* \"#utility.yul\":2124:2139   */\n      revert\n        /* \"#utility.yul\":2151:2432   */\n    tag_205:\n        /* \"#utility.yul\":2234:2261   */\n      tag_277\n        /* \"#utility.yul\":2256:2260   */\n      dup3\n        /* \"#utility.yul\":2234:2261   */\n      tag_203\n      jump\t// in\n    tag_277:\n        /* \"#utility.yul\":2226:2232   */\n      dup2\n        /* \"#utility.yul\":2222:2262   */\n      add\n        /* \"#utility.yul\":2364:2370   */\n      dup2\n        /* \"#utility.yul\":2352:2362   */\n      dup2\n        /* \"#utility.yul\":2349:2371   */\n      lt\n        /* \"#utility.yul\":2328:2346   */\n      0xffffffffffffffff\n        /* \"#utility.yul\":2316:2326   */\n      dup3\n        /* \"#utility.yul\":2313:2347   */\n      gt\n        /* \"#utility.yul\":2310:2372   */\n      or\n        /* \"#utility.yul\":2307:2395   */\n      iszero\n      tag_278\n      jumpi\n        /* \"#utility.yul\":2375:2393   */\n      tag_279\n      tag_204\n      jump\t// in\n    tag_279:\n        /* \"#utility.yul\":2307:2395   */\n    tag_278:\n        /* \"#utility.yul\":2415:2425   */\n      dup1\n        /* \"#utility.yul\":2411:2413   */\n      0x40\n        /* \"#utility.yul\":2404:2426   */\n      mstore\n        /* \"#utility.yul\":2194:2432   */\n      pop\n        /* \"#utility.yul\":2151:2432   */\n      pop\n      pop\n      jump\t// out\n        /* \"#utility.yul\":2438:2567   */\n    tag_206:\n        /* \"#utility.yul\":2472:2478   */\n      0x00\n        /* \"#utility.yul\":2499:2519   */\n      tag_281\n      tag_192\n      jump\t// in\n    tag_281:\n        /* \"#utility.yul\":2489:2519   */\n      swap1\n      pop\n        /* \"#utility.yul\":2528:2561   */\n      tag_282\n        /* \"#utility.yul\":2556:2560   */\n      dup3\n        /* \"#utility.yul\":2548:2554   */\n      dup3\n        /* \"#utility.yul\":2528:2561   */\n      tag_205\n      jump\t// in\n    tag_282:\n        /* \"#utility.yul\":2438:2567   */\n      swap2\n      swap1\n      pop\n      jump\t// out\n        /* \"#utility.yul\":2573:2881   */\n    tag_207:\n        /* \"#utility.yul\":2635:2639   */\n      0x00\n        /* \"#utility.yul\":2725:2743   */\n      0xffffffffffffffff\n        /* \"#utility.yul\":2717:2723   */\n      dup3\n        /* \"#utility.yul\":2714:2744   */\n      gt\n        /* \"#utility.yul\":2711:2767   */\n      iszero\n      tag_284\n      jumpi\n        /* \"#utility.yul\":2747:2765   */\n      tag_285\n      tag_204\n      jump\t// in\n    tag_285:\n        /* \"#utility.yul\":2711:2767   */\n    tag_284:\n        /* \"#utility.yul\":2785:2814   */\n      tag_286\n        /* \"#utility.yul\":2807:2813   */\n      dup3\n        /* \"#utility.yul\":2785:2814   */\n      tag_203\n      jump\t// in\n    tag_286:\n        /* \"#utility.yul\":2777:2814   */\n      swap1\n      pop\n        /* \"#utility.yul\":2869:2873   */\n      0x20\n        /* \"#utility.yul\":2863:2867   */\n      dup2\n        /* \"#utility.yul\":2859:2874   */\n      add\n        /* \"#utility.yul\":2851:2874   */\n      swap1\n      pop\n        /* \"#utility.yul\":2573:2881   */\n      swap2\n      swap1\n      pop\n      jump\t// out\n        /* \"#utility.yul\":2887:3041   */\n    tag_208:\n        /* \"#utility.yul\":2971:2977   */\n      dup3\n        /* \"#utility.yul\":2966:2969   */\n      dup2\n        /* \"#utility.yul\":2961:2964   */\n      dup4\n        /* \"#utility.yul\":2948:2978   */\n      calldatacopy\n        /* \"#utility.yul\":3033:3034   */\n      0x00\n        /* \"#utility.yul\":3024:3030   */\n      dup4\n        /* \"#utility.yul\":3019:3022   */\n      dup4\n        /* \"#utility.yul\":3015:3031   */\n      add\n        /* \"#utility.yul\":3008:3035   */\n      mstore\n        /* \"#utility.yul\":2887:3041   */\n      pop\n      pop\n      pop\n      jump\t// out\n        /* \"#utility.yul\":3047:3459   */\n    tag_209:\n        /* \"#utility.yul\":3125:3130   */\n      0x00\n        /* \"#utility.yul\":3150:3216   */\n      tag_289\n        /* \"#utility.yul\":3166:3215   */\n      tag_290\n        /* \"#utility.yul\":3208:3214   */\n      dup5\n        /* \"#utility.yul\":3166:3215   */\n      tag_207\n      jump\t// in\n    tag_290:\n        /* \"#utility.yul\":3150:3216   */\n      tag_206\n      jump\t// in\n    tag_289:\n        /* \"#utility.yul\":3141:3216   */\n      swap1\n      pop\n        /* \"#utility.yul\":3239:3245   */\n      dup3\n        /* \"#utility.yul\":3232:3237   */\n      dup2\n        /* \"#utility.yul\":3225:3246   */\n      mstore\n        /* \"#utility.yul\":3277:3281   */\n      0x20\n        /* \"#utility.yul\":3270:3275   */\n      dup2\n        /* \"#utility.yul\":3266:3282   */\n      add\n        /* \"#utility.yul\":3315:3318   */\n      dup5\n        /* \"#utility.yul\":3306:3312   */\n      dup5\n        /* \"#utility.yul\":3301:3304   */\n      dup5\n        /* \"#utility.yul\":3297:3313   */\n      add\n        /* \"#utility.yul\":3294:3319   */\n      gt\n        /* \"#utility.yul\":3291:3403   */\n      iszero\n      tag_291\n      jumpi\n        /* \"#utility.yul\":3322:3401   */\n      tag_292\n      tag_202\n      jump\t// in\n    tag_292:\n        /* \"#utility.yul\":3291:3403   */\n    tag_291:\n        /* \"#utility.yul\":3412:3453   */\n      tag_293\n        /* \"#utility.yul\":3446:3452   */\n      dup5\n        /* \"#utility.yul\":3441:3444   */\n      dup3\n        /* \"#utility.yul\":3436:3439   */\n      dup6\n        /* \"#utility.yul\":3412:3453   */\n      tag_208\n      jump\t// in\n    tag_293:\n        /* \"#utility.yul\":3131:3459   */\n      pop\n        /* \"#utility.yul\":3047:3459   */\n      swap4\n      swap3\n      pop\n      pop\n      pop\n      jump\t// out\n        /* \"#utility.yul\":3479:3819   */\n    tag_210:\n        /* \"#utility.yul\":3535:3540   */\n      0x00\n        /* \"#utility.yul\":3584:3587   */\n      dup3\n        /* \"#utility.yul\":3577:3581   */\n      0x1f\n        /* \"#utility.yul\":3569:3575   */\n      dup4\n        /* \"#utility.yul\":3565:3582   */\n      add\n        /* \"#utility.yul\":3561:3588   */\n      slt\n        /* \"#utility.yul\":3551:3673   */\n      tag_295\n      jumpi\n        /* \"#utility.yul\":3592:3671   */\n      tag_296\n      tag_201\n      jump\t// in\n    tag_296:\n        /* \"#utility.yul\":3551:3673   */\n    tag_295:\n        /* \"#utility.yul\":3709:3715   */\n      dup2\n        /* \"#utility.yul\":3696:3716   */\n      calldataload\n        /* \"#utility.yul\":3734:3813   */\n      tag_297\n        /* \"#utility.yul\":3809:3812   */\n      dup5\n        /* \"#utility.yul\":3801:3807   */\n      dup3\n        /* \"#utility.yul\":3794:3798   */\n      0x20\n        /* \"#utility.yul\":3786:3792   */\n      dup7\n        /* \"#utility.yul\":3782:3799   */\n      add\n        /* \"#utility.yul\":3734:3813   */\n      tag_209\n      jump\t// in\n    tag_297:\n        /* \"#utility.yul\":3725:3813   */\n      swap2\n      pop\n        /* \"#utility.yul\":3541:3819   */\n      pop\n        /* \"#utility.yul\":3479:3819   */\n      swap3\n      swap2\n      pop\n      pop\n      jump\t// out\n        /* \"#utility.yul\":3825:3929   */\n    tag_211:\n        /* \"#utility.yul\":3870:3877   */\n      0x00\n        /* \"#utility.yul\":3899:3923   */\n      tag_299\n        /* \"#utility.yul\":3917:3922   */\n      dup3\n        /* \"#utility.yul\":3899:3923   */\n      tag_195\n      jump\t// in\n    tag_299:\n        /* \"#utility.yul\":3888:3923   */\n      swap1\n      pop\n        /* \"#utility.yul\":3825:3929   */\n      swap2\n      swap1\n      pop\n      jump\t// out\n        /* \"#utility.yul\":3935:4073   */\n    tag_212:\n        /* \"#utility.yul\":4016:4048   */\n      tag_301\n        /* \"#utility.yul\":4042:4047   */\n      dup2\n        /* \"#utility.yul\":4016:4048   */\n      tag_211\n      jump\t// in\n    tag_301:\n        /* \"#utility.yul\":4009:4014   */\n      dup2\n        /* \"#utility.yul\":4006:4049   */\n      eq\n        /* \"#utility.yul\":3996:4067   */\n      tag_302\n      jumpi\n        /* \"#utility.yul\":4063:4064   */\n      0x00\n        /* \"#utility.yul\":4060:4061   */\n      dup1\n        /* \"#utility.yul\":4053:4065   */\n      revert\n        /* \"#utility.yul\":3996:4067   */\n    tag_302:\n        /* \"#utility.yul\":3935:4073   */\n      pop\n      jump\t// out\n        /* \"#utility.yul\":4079:4234   */\n    tag_213:\n        /* \"#utility.yul\":4133:4138   */\n      0x00\n        /* \"#utility.yul\":4171:4177   */\n      dup2\n        /* \"#utility.yul\":4158:4178   */\n      calldataload\n        /* \"#utility.yul\":4149:4178   */\n      swap1\n      pop\n        /* \"#utility.yul\":4187:4228   */\n      tag_304\n        /* \"#utility.yul\":4222:4227   */\n      dup2\n        /* \"#utility.yul\":4187:4228   */\n      tag_212\n      jump\t// in\n    tag_304:\n        /* \"#utility.yul\":4079:4234   */\n      swap3\n      swap2\n      pop\n      pop\n      jump\t// out\n        /* \"#utility.yul\":4240:4362   */\n    tag_214:\n        /* \"#utility.yul\":4313:4337   */\n      tag_306\n        /* \"#utility.yul\":4331:4336   */\n      dup2\n        /* \"#utility.yul\":4313:4337   */\n      tag_199\n      jump\t// in\n    tag_306:\n        /* \"#utility.yul\":4306:4311   */\n      dup2\n        /* \"#utility.yul\":4303:4338   */\n      eq\n        /* \"#utility.yul\":4293:4356   */\n      tag_307\n      jumpi\n        /* \"#utility.yul\":4352:4353   */\n      0x00\n        /* \"#utility.yul\":4349:4350   */\n      dup1\n        /* \"#utility.yul\":4342:4354   */\n      revert\n        /* \"#utility.yul\":4293:4356   */\n    tag_307:\n        /* \"#utility.yul\":4240:4362   */\n      pop\n      jump\t// out\n        /* \"#utility.yul\":4368:4507   */\n    tag_215:\n        /* \"#utility.yul\":4414:4419   */\n      0x00\n        /* \"#utility.yul\":4452:4458   */\n      dup2\n        /* \"#utility.yul\":4439:4459   */\n      calldataload\n        /* \"#utility.yul\":4430:4459   */\n      swap1\n      pop\n        /* \"#utility.yul\":4468:4501   */\n      tag_309\n        /* \"#utility.yul\":4495:4500   */\n      dup2\n        /* \"#utility.yul\":4468:4501   */\n      tag_214\n      jump\t// in\n    tag_309:\n        /* \"#utility.yul\":4368:4507   */\n      swap3\n      swap2\n      pop\n      pop\n      jump\t// out\n        /* \"#utility.yul\":4513:5328   */\n    tag_38:\n        /* \"#utility.yul\":4608:4614   */\n      0x00\n        /* \"#utility.yul\":4616:4622   */\n      dup1\n        /* \"#utility.yul\":4624:4630   */\n      0x00\n        /* \"#utility.yul\":4673:4675   */\n      0x60\n        /* \"#utility.yul\":4661:4670   */\n      dup5\n        /* \"#utility.yul\":4652:4659   */\n      dup7\n        /* \"#utility.yul\":4648:4671   */\n      sub\n        /* \"#utility.yul\":4644:4676   */\n      slt\n        /* \"#utility.yul\":4641:4760   */\n      iszero\n      tag_311\n      jumpi\n        /* \"#utility.yul\":4679:4758   */\n      tag_312\n      tag_193\n      jump\t// in\n    tag_312:\n        /* \"#utility.yul\":4641:4760   */\n    tag_311:\n        /* \"#utility.yul\":4827:4828   */\n      0x00\n        /* \"#utility.yul\":4816:4825   */\n      dup5\n        /* \"#utility.yul\":4812:4829   */\n      add\n        /* \"#utility.yul\":4799:4830   */\n      calldataload\n        /* \"#utility.yul\":4857:4875   */\n      0xffffffffffffffff\n        /* \"#utility.yul\":4849:4855   */\n      dup2\n        /* \"#utility.yul\":4846:4876   */\n      gt\n        /* \"#utility.yul\":4843:4960   */\n      iszero\n      tag_313\n      jumpi\n        /* \"#utility.yul\":4879:4958   */\n      tag_314\n      tag_194\n      jump\t// in\n    tag_314:\n        /* \"#utility.yul\":4843:4960   */\n    tag_313:\n        /* \"#utility.yul\":4984:5047   */\n      tag_315\n        /* \"#utility.yul\":5039:5046   */\n      dup7\n        /* \"#utility.yul\":5030:5036   */\n      dup3\n        /* \"#utility.yul\":5019:5028   */\n      dup8\n        /* \"#utility.yul\":5015:5037   */\n      add\n        /* \"#utility.yul\":4984:5047   */\n      tag_210\n      jump\t// in\n    tag_315:\n        /* \"#utility.yul\":4974:5047   */\n      swap4\n      pop\n        /* \"#utility.yul\":4770:5057   */\n      pop\n        /* \"#utility.yul\":5096:5098   */\n      0x20\n        /* \"#utility.yul\":5122:5183   */\n      tag_316\n        /* \"#utility.yul\":5175:5182   */\n      dup7\n        /* \"#utility.yul\":5166:5172   */\n      dup3\n        /* \"#utility.yul\":5155:5164   */\n      dup8\n        /* \"#utility.yul\":5151:5173   */\n      add\n        /* \"#utility.yul\":5122:5183   */\n      tag_213\n      jump\t// in\n    tag_316:\n        /* \"#utility.yul\":5112:5183   */\n      swap3\n      pop\n        /* \"#utility.yul\":5067:5193   */\n      pop\n        /* \"#utility.yul\":5232:5234   */\n      0x40\n        /* \"#utility.yul\":5258:5311   */\n      tag_317\n        /* \"#utility.yul\":5303:5310   */\n      dup7\n        /* \"#utility.yul\":5294:5300   */\n      dup3\n        /* \"#utility.yul\":5283:5292   */\n      dup8\n        /* \"#utility.yul\":5279:5301   */\n      add\n        /* \"#utility.yul\":5258:5311   */\n      tag_215\n      jump\t// in\n    tag_317:\n        /* \"#utility.yul\":5248:5311   */\n      swap2\n      pop\n        /* \"#utility.yul\":5203:5321   */\n      pop\n        /* \"#utility.yul\":4513:5328   */\n      swap3\n      pop\n      swap3\n      pop\n      swap3\n      jump\t// out\n        /* \"#utility.yul\":5334:5452   */\n    tag_216:\n        /* \"#utility.yul\":5421:5445   */\n      tag_319\n        /* \"#utility.yul\":5439:5444   */\n      dup2\n        /* \"#utility.yul\":5421:5445   */\n      tag_196\n      jump\t// in\n    tag_319:\n        /* \"#utility.yul\":5416:5419   */\n      dup3\n        /* \"#utility.yul\":5409:5446   */\n      mstore\n        /* \"#utility.yul\":5334:5452   */\n      pop\n      pop\n      jump\t// out\n        /* \"#utility.yul\":5458:5680   */\n    tag_44:\n        /* \"#utility.yul\":5551:5555   */\n      0x00\n        /* \"#utility.yul\":5589:5591   */\n      0x20\n        /* \"#utility.yul\":5578:5587   */\n      dup3\n        /* \"#utility.yul\":5574:5592   */\n      add\n        /* \"#utility.yul\":5566:5592   */\n      swap1\n      pop\n        /* \"#utility.yul\":5602:5673   */\n      tag_321\n        /* \"#utility.yul\":5670:5671   */\n      0x00\n        /* \"#utility.yul\":5659:5668   */\n      dup4\n        /* \"#utility.yul\":5655:5672   */\n      add\n        /* \"#utility.yul\":5646:5652   */\n      dup5\n        /* \"#utility.yul\":5602:5673   */\n      tag_216\n      jump\t// in\n    tag_321:\n        /* \"#utility.yul\":5458:5680   */\n      swap3\n      swap2\n      pop\n      pop\n      jump\t// out\n        /* \"#utility.yul\":5686:6015   */\n    tag_48:\n        /* \"#utility.yul\":5745:5751   */\n      0x00\n        /* \"#utility.yul\":5794:5796   */\n      0x20\n        /* \"#utility.yul\":5782:5791   */\n      dup3\n        /* \"#utility.yul\":5773:5780   */\n      dup5\n        /* \"#utility.yul\":5769:5792   */\n      sub\n        /* \"#utility.yul\":5765:5797   */\n      slt\n        /* \"#utility.yul\":5762:5881   */\n      iszero\n      tag_323\n      jumpi\n        /* \"#utility.yul\":5800:5879   */\n      tag_324\n      tag_193\n      jump\t// in\n    tag_324:\n        /* \"#utility.yul\":5762:5881   */\n    tag_323:\n        /* \"#utility.yul\":5920:5921   */\n      0x00\n        /* \"#utility.yul\":5945:5998   */\n      tag_325\n        /* \"#utility.yul\":5990:5997   */\n      dup5\n        /* \"#utility.yul\":5981:5987   */\n      dup3\n        /* \"#utility.yul\":5970:5979   */\n      dup6\n        /* \"#utility.yul\":5966:5988   */\n      add\n        /* \"#utility.yul\":5945:5998   */\n      tag_215\n      jump\t// in\n    tag_325:\n        /* \"#utility.yul\":5935:5998   */\n      swap2\n      pop\n        /* \"#utility.yul\":5891:6008   */\n      pop\n        /* \"#utility.yul\":5686:6015   */\n      swap3\n      swap2\n      pop\n      pop\n      jump\t// out\n        /* \"#utility.yul\":6021:6120   */\n    tag_217:\n        /* \"#utility.yul\":6073:6079   */\n      0x00\n        /* \"#utility.yul\":6107:6112   */\n      dup2\n        /* \"#utility.yul\":6101:6113   */\n      mload\n        /* \"#utility.yul\":6091:6113   */\n      swap1\n      pop\n        /* \"#utility.yul\":6021:6120   */\n      swap2\n      swap1\n      pop\n      jump\t// out\n        /* \"#utility.yul\":6126:6295   */\n    tag_218:\n        /* \"#utility.yul\":6210:6221   */\n      0x00\n        /* \"#utility.yul\":6244:6250   */\n      dup3\n        /* \"#utility.yul\":6239:6242   */\n      dup3\n        /* \"#utility.yul\":6232:6251   */\n      mstore\n        /* \"#utility.yul\":6284:6288   */\n      0x20\n        /* \"#utility.yul\":6279:6282   */\n      dup3\n        /* \"#utility.yul\":6275:6289   */\n      add\n        /* \"#utility.yul\":6260:6289   */\n      swap1\n      pop\n        /* \"#utility.yul\":6126:6295   */\n      swap3\n      swap2\n      pop\n      pop\n      jump\t// out\n        /* \"#utility.yul\":6301:6608   */\n    tag_219:\n        /* \"#utility.yul\":6369:6370   */\n      0x00\n        /* \"#utility.yul\":6379:6492   */\n    tag_329:\n        /* \"#utility.yul\":6393:6399   */\n      dup4\n        /* \"#utility.yul\":6390:6391   */\n      dup2\n        /* \"#utility.yul\":6387:6400   */\n      lt\n        /* \"#utility.yul\":6379:6492   */\n      iszero\n      tag_331\n      jumpi\n        /* \"#utility.yul\":6478:6479   */\n      dup1\n        /* \"#utility.yul\":6473:6476   */\n      dup3\n        /* \"#utility.yul\":6469:6480   */\n      add\n        /* \"#utility.yul\":6463:6481   */\n      mload\n        /* \"#utility.yul\":6459:6460   */\n      dup2\n        /* \"#utility.yul\":6454:6457   */\n      dup5\n        /* \"#utility.yul\":6450:6461   */\n      add\n        /* \"#utility.yul\":6443:6482   */\n      mstore\n        /* \"#utility.yul\":6415:6417   */\n      0x20\n        /* \"#utility.yul\":6412:6413   */\n      dup2\n        /* \"#utility.yul\":6408:6418   */\n      add\n        /* \"#utility.yul\":6403:6418   */\n      swap1\n      pop\n        /* \"#utility.yul\":6379:6492   */\n      jump(tag_329)\n    tag_331:\n        /* \"#utility.yul\":6510:6516   */\n      dup4\n        /* \"#utility.yul\":6507:6508   */\n      dup2\n        /* \"#utility.yul\":6504:6517   */\n      gt\n        /* \"#utility.yul\":6501:6602   */\n      iszero\n      tag_332\n      jumpi\n        /* \"#utility.yul\":6590:6591   */\n      0x00\n        /* \"#utility.yul\":6581:6587   */\n      dup5\n        /* \"#utility.yul\":6576:6579   */\n      dup5\n        /* \"#utility.yul\":6572:6588   */\n      add\n        /* \"#utility.yul\":6565:6592   */\n      mstore\n        /* \"#utility.yul\":6501:6602   */\n    tag_332:\n        /* \"#utility.yul\":6350:6608   */\n      pop\n        /* \"#utility.yul\":6301:6608   */\n      pop\n      pop\n      pop\n      jump\t// out\n        /* \"#utility.yul\":6614:6978   */\n    tag_220:\n        /* \"#utility.yul\":6702:6705   */\n      0x00\n        /* \"#utility.yul\":6730:6769   */\n      tag_334\n        /* \"#utility.yul\":6763:6768   */\n      dup3\n        /* \"#utility.yul\":6730:6769   */\n      tag_217\n      jump\t// in\n    tag_334:\n        /* \"#utility.yul\":6785:6856   */\n      tag_335\n        /* \"#utility.yul\":6849:6855   */\n      dup2\n        /* \"#utility.yul\":6844:6847   */\n      dup6\n        /* \"#utility.yul\":6785:6856   */\n      tag_218\n      jump\t// in\n    tag_335:\n        /* \"#utility.yul\":6778:6856   */\n      swap4\n      pop\n        /* \"#utility.yul\":6865:6917   */\n      tag_336\n        /* \"#utility.yul\":6910:6916   */\n      dup2\n        /* \"#utility.yul\":6905:6908   */\n      dup6\n        /* \"#utility.yul\":6898:6902   */\n      0x20\n        /* \"#utility.yul\":6891:6896   */\n      dup7\n        /* \"#utility.yul\":6887:6903   */\n      add\n        /* \"#utility.yul\":6865:6917   */\n      tag_219\n      jump\t// in\n    tag_336:\n        /* \"#utility.yul\":6942:6971   */\n      tag_337\n        /* \"#utility.yul\":6964:6970   */\n      dup2\n        /* \"#utility.yul\":6942:6971   */\n      tag_203\n      jump\t// in\n    tag_337:\n        /* \"#utility.yul\":6937:6940   */\n      dup5\n        /* \"#utility.yul\":6933:6972   */\n      add\n        /* \"#utility.yul\":6926:6972   */\n      swap2\n      pop\n        /* \"#utility.yul\":6706:6978   */\n      pop\n        /* \"#utility.yul\":6614:6978   */\n      swap3\n      swap2\n      pop\n      pop\n      jump\t// out\n        /* \"#utility.yul\":6984:7126   */\n    tag_221:\n        /* \"#utility.yul\":7087:7119   */\n      tag_339\n        /* \"#utility.yul\":7113:7118   */\n      dup2\n        /* \"#utility.yul\":7087:7119   */\n      tag_211\n      jump\t// in\n    tag_339:\n        /* \"#utility.yul\":7082:7085   */\n      dup3\n        /* \"#utility.yul\":7075:7120   */\n      mstore\n        /* \"#utility.yul\":6984:7126   */\n      pop\n      pop\n      jump\t// out\n        /* \"#utility.yul\":7132:7222   */\n    tag_222:\n        /* \"#utility.yul\":7166:7173   */\n      0x00\n        /* \"#utility.yul\":7209:7214   */\n      dup2\n        /* \"#utility.yul\":7202:7215   */\n      iszero\n        /* \"#utility.yul\":7195:7216   */\n      iszero\n        /* \"#utility.yul\":7184:7216   */\n      swap1\n      pop\n        /* \"#utility.yul\":7132:7222   */\n      swap2\n      swap1\n      pop\n      jump\t// out\n        /* \"#utility.yul\":7228:7337   */\n    tag_223:\n        /* \"#utility.yul\":7309:7330   */\n      tag_342\n        /* \"#utility.yul\":7324:7329   */\n      dup2\n        /* \"#utility.yul\":7309:7330   */\n      tag_222\n      jump\t// in\n    tag_342:\n        /* \"#utility.yul\":7304:7307   */\n      dup3\n        /* \"#utility.yul\":7297:7331   */\n      mstore\n        /* \"#utility.yul\":7228:7337   */\n      pop\n      pop\n      jump\t// out\n        /* \"#utility.yul\":7343:8118   */\n    tag_70:\n        /* \"#utility.yul\":7578:7582   */\n      0x00\n        /* \"#utility.yul\":7616:7619   */\n      0xa0\n        /* \"#utility.yul\":7605:7614   */\n      dup3\n        /* \"#utility.yul\":7601:7620   */\n      add\n        /* \"#utility.yul\":7593:7620   */\n      swap1\n      pop\n        /* \"#utility.yul\":7666:7675   */\n      dup2\n        /* \"#utility.yul\":7660:7664   */\n      dup2\n        /* \"#utility.yul\":7656:7676   */\n      sub\n        /* \"#utility.yul\":7652:7653   */\n      0x00\n        /* \"#utility.yul\":7641:7650   */\n      dup4\n        /* \"#utility.yul\":7637:7654   */\n      add\n        /* \"#utility.yul\":7630:7677   */\n      mstore\n        /* \"#utility.yul\":7694:7772   */\n      tag_344\n        /* \"#utility.yul\":7767:7771   */\n      dup2\n        /* \"#utility.yul\":7758:7764   */\n      dup9\n        /* \"#utility.yul\":7694:7772   */\n      tag_220\n      jump\t// in\n    tag_344:\n        /* \"#utility.yul\":7686:7772   */\n      swap1\n      pop\n        /* \"#utility.yul\":7782:7870   */\n      tag_345\n        /* \"#utility.yul\":7866:7868   */\n      0x20\n        /* \"#utility.yul\":7855:7864   */\n      dup4\n        /* \"#utility.yul\":7851:7869   */\n      add\n        /* \"#utility.yul\":7842:7848   */\n      dup8\n        /* \"#utility.yul\":7782:7870   */\n      tag_221\n      jump\t// in\n    tag_345:\n        /* \"#utility.yul\":7880:7952   */\n      tag_346\n        /* \"#utility.yul\":7948:7950   */\n      0x40\n        /* \"#utility.yul\":7937:7946   */\n      dup4\n        /* \"#utility.yul\":7933:7951   */\n      add\n        /* \"#utility.yul\":7924:7930   */\n      dup7\n        /* \"#utility.yul\":7880:7952   */\n      tag_200\n      jump\t// in\n    tag_346:\n        /* \"#utility.yul\":7962:8028   */\n      tag_347\n        /* \"#utility.yul\":8024:8026   */\n      0x60\n        /* \"#utility.yul\":8013:8022   */\n      dup4\n        /* \"#utility.yul\":8009:8027   */\n      add\n        /* \"#utility.yul\":8000:8006   */\n      dup6\n        /* \"#utility.yul\":7962:8028   */\n      tag_223\n      jump\t// in\n    tag_347:\n        /* \"#utility.yul\":8038:8111   */\n      tag_348\n        /* \"#utility.yul\":8106:8109   */\n      0x80\n        /* \"#utility.yul\":8095:8104   */\n      dup4\n        /* \"#utility.yul\":8091:8110   */\n      add\n        /* \"#utility.yul\":8082:8088   */\n      dup5\n        /* \"#utility.yul\":8038:8111   */\n      tag_200\n      jump\t// in\n    tag_348:\n        /* \"#utility.yul\":7343:8118   */\n      swap7\n      swap6\n      pop\n      pop\n      pop\n      pop\n      pop\n      pop\n      jump\t// out\n        /* \"#utility.yul\":8124:8378   */\n    tag_95:\n        /* \"#utility.yul\":8233:8237   */\n      0x00\n        /* \"#utility.yul\":8271:8273   */\n      0x20\n        /* \"#utility.yul\":8260:8269   */\n      dup3\n        /* \"#utility.yul\":8256:8274   */\n      add\n        /* \"#utility.yul\":8248:8274   */\n      swap1\n      pop\n        /* \"#utility.yul\":8284:8371   */\n      tag_350\n        /* \"#utility.yul\":8368:8369   */\n      0x00\n        /* \"#utility.yul\":8357:8366   */\n      dup4\n        /* \"#utility.yul\":8353:8370   */\n      add\n        /* \"#utility.yul\":8344:8350   */\n      dup5\n        /* \"#utility.yul\":8284:8371   */\n      tag_221\n      jump\t// in\n    tag_350:\n        /* \"#utility.yul\":8124:8378   */\n      swap3\n      swap2\n      pop\n      pop\n      jump\t// out\n        /* \"#utility.yul\":8384:8553   */\n    tag_224:\n        /* \"#utility.yul\":8524:8545   */\n      0x446561646c696e65206861732070617373656400000000000000000000000000\n        /* \"#utility.yul\":8520:8521   */\n      0x00\n        /* \"#utility.yul\":8512:8518   */\n      dup3\n        /* \"#utility.yul\":8508:8522   */\n      add\n        /* \"#utility.yul\":8501:8546   */\n      mstore\n        /* \"#utility.yul\":8384:8553   */\n      pop\n      jump\t// out\n        /* \"#utility.yul\":8559:8925   */\n    tag_225:\n        /* \"#utility.yul\":8701:8704   */\n      0x00\n        /* \"#utility.yul\":8722:8789   */\n      tag_353\n        /* \"#utility.yul\":8786:8788   */\n      0x13\n        /* \"#utility.yul\":8781:8784   */\n      dup4\n        /* \"#utility.yul\":8722:8789   */\n      tag_218\n      jump\t// in\n    tag_353:\n        /* \"#utility.yul\":8715:8789   */\n      swap2\n      pop\n        /* \"#utility.yul\":8798:8891   */\n      tag_354\n        /* \"#utility.yul\":8887:8890   */\n      dup3\n        /* \"#utility.yul\":8798:8891   */\n      tag_224\n      jump\t// in\n    tag_354:\n        /* \"#utility.yul\":8916:8918   */\n      0x20\n        /* \"#utility.yul\":8911:8914   */\n      dup3\n        /* \"#utility.yul\":8907:8919   */\n      add\n        /* \"#utility.yul\":8900:8919   */\n      swap1\n      pop\n        /* \"#utility.yul\":8559:8925   */\n      swap2\n      swap1\n      pop\n      jump\t// out\n        /* \"#utility.yul\":8931:9350   */\n    tag_99:\n        /* \"#utility.yul\":9097:9101   */\n      0x00\n        /* \"#utility.yul\":9135:9137   */\n      0x20\n        /* \"#utility.yul\":9124:9133   */\n      dup3\n        /* \"#utility.yul\":9120:9138   */\n      add\n        /* \"#utility.yul\":9112:9138   */\n      swap1\n      pop\n        /* \"#utility.yul\":9184:9193   */\n      dup2\n        /* \"#utility.yul\":9178:9182   */\n      dup2\n        /* \"#utility.yul\":9174:9194   */\n      sub\n        /* \"#utility.yul\":9170:9171   */\n      0x00\n        /* \"#utility.yul\":9159:9168   */\n      dup4\n        /* \"#utility.yul\":9155:9172   */\n      add\n        /* \"#utility.yul\":9148:9195   */\n      mstore\n        /* \"#utility.yul\":9212:9343   */\n      tag_356\n        /* \"#utility.yul\":9338:9342   */\n      dup2\n        /* \"#utility.yul\":9212:9343   */\n      tag_225\n      jump\t// in\n    tag_356:\n        /* \"#utility.yul\":9204:9343   */\n      swap1\n      pop\n        /* \"#utility.yul\":8931:9350   */\n      swap2\n      swap1\n      pop\n      jump\t// out\n        /* \"#utility.yul\":9356:9538   */\n    tag_226:\n        /* \"#utility.yul\":9496:9530   */\n      0x4d696e696d756d20636f6e747269627574696f6e20686173206e6f74206d6574\n        /* \"#utility.yul\":9492:9493   */\n      0x00\n        /* \"#utility.yul\":9484:9490   */\n      dup3\n        /* \"#utility.yul\":9480:9494   */\n      add\n        /* \"#utility.yul\":9473:9531   */\n      mstore\n        /* \"#utility.yul\":9356:9538   */\n      pop\n      jump\t// out\n        /* \"#utility.yul\":9544:9910   */\n    tag_227:\n        /* \"#utility.yul\":9686:9689   */\n      0x00\n        /* \"#utility.yul\":9707:9774   */\n      tag_359\n        /* \"#utility.yul\":9771:9773   */\n      0x20\n        /* \"#utility.yul\":9766:9769   */\n      dup4\n        /* \"#utility.yul\":9707:9774   */\n      tag_218\n      jump\t// in\n    tag_359:\n        /* \"#utility.yul\":9700:9774   */\n      swap2\n      pop\n        /* \"#utility.yul\":9783:9876   */\n      tag_360\n        /* \"#utility.yul\":9872:9875   */\n      dup3\n        /* \"#utility.yul\":9783:9876   */\n      tag_226\n      jump\t// in\n    tag_360:\n        /* \"#utility.yul\":9901:9903   */\n      0x20\n        /* \"#utility.yul\":9896:9899   */\n      dup3\n        /* \"#utility.yul\":9892:9904   */\n      add\n        /* \"#utility.yul\":9885:9904   */\n      swap1\n      pop\n        /* \"#utility.yul\":9544:9910   */\n      swap2\n      swap1\n      pop\n      jump\t// out\n        /* \"#utility.yul\":9916:10335   */\n    tag_102:\n        /* \"#utility.yul\":10082:10086   */\n      0x00\n        /* \"#utility.yul\":10120:10122   */\n      0x20\n        /* \"#utility.yul\":10109:10118   */\n      dup3\n        /* \"#utility.yul\":10105:10123   */\n      add\n        /* \"#utility.yul\":10097:10123   */\n      swap1\n      pop\n        /* \"#utility.yul\":10169:10178   */\n      dup2\n        /* \"#utility.yul\":10163:10167   */\n      dup2\n        /* \"#utility.yul\":10159:10179   */\n      sub\n        /* \"#utility.yul\":10155:10156   */\n      0x00\n        /* \"#utility.yul\":10144:10153   */\n      dup4\n        /* \"#utility.yul\":10140:10157   */\n      add\n        /* \"#utility.yul\":10133:10180   */\n      mstore\n        /* \"#utility.yul\":10197:10328   */\n      tag_362\n        /* \"#utility.yul\":10323:10327   */\n      dup2\n        /* \"#utility.yul\":10197:10328   */\n      tag_227\n      jump\t// in\n    tag_362:\n        /* \"#utility.yul\":10189:10328   */\n      swap1\n      pop\n        /* \"#utility.yul\":9916:10335   */\n      swap2\n      swap1\n      pop\n      jump\t// out\n        /* \"#utility.yul\":10341:10521   */\n    tag_228:\n        /* \"#utility.yul\":10389:10466   */\n      0x4e487b7100000000000000000000000000000000000000000000000000000000\n        /* \"#utility.yul\":10386:10387   */\n      0x00\n        /* \"#utility.yul\":10379:10467   */\n      mstore\n        /* \"#utility.yul\":10486:10490   */\n      0x11\n        /* \"#utility.yul\":10483:10484   */\n      0x04\n        /* \"#utility.yul\":10476:10491   */\n      mstore\n        /* \"#utility.yul\":10510:10514   */\n      0x24\n        /* \"#utility.yul\":10507:10508   */\n      0x00\n        /* \"#utility.yul\":10500:10515   */\n      revert\n        /* \"#utility.yul\":10527:10760   */\n    tag_105:\n        /* \"#utility.yul\":10566:10569   */\n      0x00\n        /* \"#utility.yul\":10589:10613   */\n      tag_365\n        /* \"#utility.yul\":10607:10612   */\n      dup3\n        /* \"#utility.yul\":10589:10613   */\n      tag_199\n      jump\t// in\n    tag_365:\n        /* \"#utility.yul\":10580:10613   */\n      swap2\n      pop\n        /* \"#utility.yul\":10635:10701   */\n      0xffffffffffffffffffffffffffffffffffffffffffffffffffffffffffffffff\n        /* \"#utility.yul\":10628:10633   */\n      dup3\n        /* \"#utility.yul\":10625:10702   */\n      sub\n        /* \"#utility.yul\":10622:10725   */\n      tag_366\n      jumpi\n        /* \"#utility.yul\":10705:10723   */\n      tag_367\n      tag_228\n      jump\t// in\n    tag_367:\n        /* \"#utility.yul\":10622:10725   */\n    tag_366:\n        /* \"#utility.yul\":10752:10753   */\n      0x01\n        /* \"#utility.yul\":10745:10750   */\n      dup3\n        /* \"#utility.yul\":10741:10754   */\n      add\n        /* \"#utility.yul\":10734:10754   */\n      swap1\n      pop\n        /* \"#utility.yul\":10527:10760   */\n      swap2\n      swap1\n      pop\n      jump\t// out\n        /* \"#utility.yul\":10766:11071   */\n    tag_108:\n        /* \"#utility.yul\":10806:10809   */\n      0x00\n        /* \"#utility.yul\":10825:10845   */\n      tag_369\n        /* \"#utility.yul\":10843:10844   */\n      dup3\n        /* \"#utility.yul\":10825:10845   */\n      tag_199\n      jump\t// in\n    tag_369:\n        /* \"#utility.yul\":10820:10845   */\n      swap2\n      pop\n        /* \"#utility.yul\":10859:10879   */\n      tag_370\n        /* \"#utility.yul\":10877:10878   */\n      dup4\n        /* \"#utility.yul\":10859:10879   */\n      tag_199\n      jump\t// in\n    tag_370:\n        /* \"#utility.yul\":10854:10879   */\n      swap3\n      pop\n        /* \"#utility.yul\":11013:11014   */\n      dup3\n        /* \"#utility.yul\":10945:11011   */\n      0xffffffffffffffffffffffffffffffffffffffffffffffffffffffffffffffff\n        /* \"#utility.yul\":10941:11015   */\n      sub\n        /* \"#utility.yul\":10938:10939   */\n      dup3\n        /* \"#utility.yul\":10935:11016   */\n      gt\n        /* \"#utility.yul\":10932:11039   */\n      iszero\n      tag_371\n      jumpi\n        /* \"#utility.yul\":11019:11037   */\n      tag_372\n      tag_228\n      jump\t// in\n    tag_372:\n        /* \"#utility.yul\":10932:11039   */\n    tag_371:\n        /* \"#utility.yul\":11063:11064   */\n      dup3\n        /* \"#utility.yul\":11060:11061   */\n      dup3\n        /* \"#utility.yul\":11056:11065   */\n      add\n        /* \"#utility.yul\":11049:11065   */\n      swap1\n      pop\n        /* \"#utility.yul\":10766:11071   */\n      swap3\n      swap2\n      pop\n      pop\n      jump\t// out\n        /* \"#utility.yul\":11077:11253   */\n    tag_229:\n        /* \"#utility.yul\":11217:11245   */\n      0x596f7520617265206e6f74206120636f6e7472696275746f722e000000000000\n        /* \"#utility.yul\":11213:11214   */\n      0x00\n        /* \"#utility.yul\":11205:11211   */\n      dup3\n        /* \"#utility.yul\":11201:11215   */\n      add\n        /* \"#utility.yul\":11194:11246   */\n      mstore\n        /* \"#utility.yul\":11077:11253   */\n      pop\n      jump\t// out\n        /* \"#utility.yul\":11259:11625   */\n    tag_230:\n        /* \"#utility.yul\":11401:11404   */\n      0x00\n        /* \"#utility.yul\":11422:11489   */\n      tag_375\n        /* \"#utility.yul\":11486:11488   */\n      0x1a\n        /* \"#utility.yul\":11481:11484   */\n      dup4\n        /* \"#utility.yul\":11422:11489   */\n      tag_218\n      jump\t// in\n    tag_375:\n        /* \"#utility.yul\":11415:11489   */\n      swap2\n      pop\n        /* \"#utility.yul\":11498:11591   */\n      tag_376\n        /* \"#utility.yul\":11587:11590   */\n      dup3\n        /* \"#utility.yul\":11498:11591   */\n      tag_229\n      jump\t// in\n    tag_376:\n        /* \"#utility.yul\":11616:11618   */\n      0x20\n        /* \"#utility.yul\":11611:11614   */\n      dup3\n        /* \"#utility.yul\":11607:11619   */\n      add\n        /* \"#utility.yul\":11600:11619   */\n      swap1\n      pop\n        /* \"#utility.yul\":11259:11625   */\n      swap2\n      swap1\n      pop\n      jump\t// out\n        /* \"#utility.yul\":11631:12050   */\n    tag_118:\n        /* \"#utility.yul\":11797:11801   */\n      0x00\n        /* \"#utility.yul\":11835:11837   */\n      0x20\n        /* \"#utility.yul\":11824:11833   */\n      dup3\n        /* \"#utility.yul\":11820:11838   */\n      add\n        /* \"#utility.yul\":11812:11838   */\n      swap1\n      pop\n        /* \"#utility.yul\":11884:11893   */\n      dup2\n        /* \"#utility.yul\":11878:11882   */\n      dup2\n        /* \"#utility.yul\":11874:11894   */\n      sub\n        /* \"#utility.yul\":11870:11871   */\n      0x00\n        /* \"#utility.yul\":11859:11868   */\n      dup4\n        /* \"#utility.yul\":11855:11872   */\n      add\n        /* \"#utility.yul\":11848:11895   */\n      mstore\n        /* \"#utility.yul\":11912:12043   */\n      tag_378\n        /* \"#utility.yul\":12038:12042   */\n      dup2\n        /* \"#utility.yul\":11912:12043   */\n      tag_230\n      jump\t// in\n    tag_378:\n        /* \"#utility.yul\":11904:12043   */\n      swap1\n      pop\n        /* \"#utility.yul\":11631:12050   */\n      swap2\n      swap1\n      pop\n      jump\t// out\n        /* \"#utility.yul\":12056:12224   */\n    tag_231:\n        /* \"#utility.yul\":12196:12216   */\n      0x596f7520616c726561647920766f7465642e0000000000000000000000000000\n        /* \"#utility.yul\":12192:12193   */\n      0x00\n        /* \"#utility.yul\":12184:12190   */\n      dup3\n        /* \"#utility.yul\":12180:12194   */\n      add\n        /* \"#utility.yul\":12173:12217   */\n      mstore\n        /* \"#utility.yul\":12056:12224   */\n      pop\n      jump\t// out\n        /* \"#utility.yul\":12230:12596   */\n    tag_232:\n        /* \"#utility.yul\":12372:12375   */\n      0x00\n        /* \"#utility.yul\":12393:12460   */\n      tag_381\n        /* \"#utility.yul\":12457:12459   */\n      0x12\n        /* \"#utility.yul\":12452:12455   */\n      dup4\n        /* \"#utility.yul\":12393:12460   */\n      tag_218\n      jump\t// in\n    tag_381:\n        /* \"#utility.yul\":12386:12460   */\n      swap2\n      pop\n        /* \"#utility.yul\":12469:12562   */\n      tag_382\n        /* \"#utility.yul\":12558:12561   */\n      dup3\n        /* \"#utility.yul\":12469:12562   */\n      tag_231\n      jump\t// in\n    tag_382:\n        /* \"#utility.yul\":12587:12589   */\n      0x20\n        /* \"#utility.yul\":12582:12585   */\n      dup3\n        /* \"#utility.yul\":12578:12590   */\n      add\n        /* \"#utility.yul\":12571:12590   */\n      swap1\n      pop\n        /* \"#utility.yul\":12230:12596   */\n      swap2\n      swap1\n      pop\n      jump\t// out\n        /* \"#utility.yul\":12602:13021   */\n    tag_121:\n        /* \"#utility.yul\":12768:12772   */\n      0x00\n        /* \"#utility.yul\":12806:12808   */\n      0x20\n        /* \"#utility.yul\":12795:12804   */\n      dup3\n        /* \"#utility.yul\":12791:12809   */\n      add\n        /* \"#utility.yul\":12783:12809   */\n      swap1\n      pop\n        /* \"#utility.yul\":12855:12864   */\n      dup2\n        /* \"#utility.yul\":12849:12853   */\n      dup2\n        /* \"#utility.yul\":12845:12865   */\n      sub\n        /* \"#utility.yul\":12841:12842   */\n      0x00\n        /* \"#utility.yul\":12830:12839   */\n      dup4\n        /* \"#utility.yul\":12826:12843   */\n      add\n        /* \"#utility.yul\":12819:12866   */\n      mstore\n        /* \"#utility.yul\":12883:13014   */\n      tag_384\n        /* \"#utility.yul\":13009:13013   */\n      dup2\n        /* \"#utility.yul\":12883:13014   */\n      tag_232\n      jump\t// in\n    tag_384:\n        /* \"#utility.yul\":12875:13014   */\n      swap1\n      pop\n        /* \"#utility.yul\":12602:13021   */\n      swap2\n      swap1\n      pop\n      jump\t// out\n        /* \"#utility.yul\":13027:13247   */\n    tag_233:\n        /* \"#utility.yul\":13167:13201   */\n      0x54617267657420616d6f756e7420686173206e6f742072656168656420796574\n        /* \"#utility.yul\":13163:13164   */\n      0x00\n        /* \"#utility.yul\":13155:13161   */\n      dup3\n        /* \"#utility.yul\":13151:13165   */\n      add\n        /* \"#utility.yul\":13144:13202   */\n      mstore\n        /* \"#utility.yul\":13236:13239   */\n      0x2e00000000000000000000000000000000000000000000000000000000000000\n        /* \"#utility.yul\":13231:13233   */\n      0x20\n        /* \"#utility.yul\":13223:13229   */\n      dup3\n        /* \"#utility.yul\":13219:13234   */\n      add\n        /* \"#utility.yul\":13212:13240   */\n      mstore\n        /* \"#utility.yul\":13027:13247   */\n      pop\n      jump\t// out\n        /* \"#utility.yul\":13253:13619   */\n    tag_234:\n        /* \"#utility.yul\":13395:13398   */\n      0x00\n        /* \"#utility.yul\":13416:13483   */\n      tag_387\n        /* \"#utility.yul\":13480:13482   */\n      0x21\n        /* \"#utility.yul\":13475:13478   */\n      dup4\n        /* \"#utility.yul\":13416:13483   */\n      tag_218\n      jump\t// in\n    tag_387:\n        /* \"#utility.yul\":13409:13483   */\n      swap2\n      pop\n        /* \"#utility.yul\":13492:13585   */\n      tag_388\n        /* \"#utility.yul\":13581:13584   */\n      dup3\n        /* \"#utility.yul\":13492:13585   */\n      tag_233\n      jump\t// in\n    tag_388:\n        /* \"#utility.yul\":13610:13612   */\n      0x40\n        /* \"#utility.yul\":13605:13608   */\n      dup3\n        /* \"#utility.yul\":13601:13613   */\n      add\n        /* \"#utility.yul\":13594:13613   */\n      swap1\n      pop\n        /* \"#utility.yul\":13253:13619   */\n      swap2\n      swap1\n      pop\n      jump\t// out\n        /* \"#utility.yul\":13625:14044   */\n    tag_126:\n        /* \"#utility.yul\":13791:13795   */\n      0x00\n        /* \"#utility.yul\":13829:13831   */\n      0x20\n        /* \"#utility.yul\":13818:13827   */\n      dup3\n        /* \"#utility.yul\":13814:13832   */\n      add\n        /* \"#utility.yul\":13806:13832   */\n      swap1\n      pop\n        /* \"#utility.yul\":13878:13887   */\n      dup2\n        /* \"#utility.yul\":13872:13876   */\n      dup2\n        /* \"#utility.yul\":13868:13888   */\n      sub\n        /* \"#utility.yul\":13864:13865   */\n      0x00\n        /* \"#utility.yul\":13853:13862   */\n      dup4\n        /* \"#utility.yul\":13849:13866   */\n      add\n        /* \"#utility.yul\":13842:13889   */\n      mstore\n        /* \"#utility.yul\":13906:14037   */\n      tag_390\n        /* \"#utility.yul\":14032:14036   */\n      dup2\n        /* \"#utility.yul\":13906:14037   */\n      tag_234\n      jump\t// in\n    tag_390:\n        /* \"#utility.yul\":13898:14037   */\n      swap1\n      pop\n        /* \"#utility.yul\":13625:14044   */\n      swap2\n      swap1\n      pop\n      jump\t// out\n        /* \"#utility.yul\":14050:14230   */\n    tag_235:\n        /* \"#utility.yul\":14098:14175   */\n      0x4e487b7100000000000000000000000000000000000000000000000000000000\n        /* \"#utility.yul\":14095:14096   */\n      0x00\n        /* \"#utility.yul\":14088:14176   */\n      mstore\n        /* \"#utility.yul\":14195:14199   */\n      0x12\n        /* \"#utility.yul\":14192:14193   */\n      0x04\n        /* \"#utility.yul\":14185:14200   */\n      mstore\n        /* \"#utility.yul\":14219:14223   */\n      0x24\n        /* \"#utility.yul\":14216:14217   */\n      0x00\n        /* \"#utility.yul\":14209:14224   */\n      revert\n        /* \"#utility.yul\":14236:14421   */\n    tag_128:\n        /* \"#utility.yul\":14276:14277   */\n      0x00\n        /* \"#utility.yul\":14293:14313   */\n      tag_393\n        /* \"#utility.yul\":14311:14312   */\n      dup3\n        /* \"#utility.yul\":14293:14313   */\n      tag_199\n      jump\t// in\n    tag_393:\n        /* \"#utility.yul\":14288:14313   */\n      swap2\n      pop\n        /* \"#utility.yul\":14327:14347   */\n      tag_394\n        /* \"#utility.yul\":14345:14346   */\n      dup4\n        /* \"#utility.yul\":14327:14347   */\n      tag_199\n      jump\t// in\n    tag_394:\n        /* \"#utility.yul\":14322:14347   */\n      swap3\n      pop\n        /* \"#utility.yul\":14366:14367   */\n      dup3\n        /* \"#utility.yul\":14356:14391   */\n      tag_395\n      jumpi\n        /* \"#utility.yul\":14371:14389   */\n      tag_396\n      tag_235\n      jump\t// in\n    tag_396:\n        /* \"#utility.yul\":14356:14391   */\n    tag_395:\n        /* \"#utility.yul\":14413:14414   */\n      dup3\n        /* \"#utility.yul\":14410:14411   */\n      dup3\n        /* \"#utility.yul\":14406:14415   */\n      div\n        /* \"#utility.yul\":14401:14415   */\n      swap1\n      pop\n        /* \"#utility.yul\":14236:14421   */\n      swap3\n      swap2\n      pop\n      pop\n      jump\t// out\n        /* \"#utility.yul\":14427:14602   */\n    tag_236:\n        /* \"#utility.yul\":14567:14594   */\n      0x4d616a6f7269747920646f6573206e6f7420737570706f727400000000000000\n        /* \"#utility.yul\":14563:14564   */\n      0x00\n        /* \"#utility.yul\":14555:14561   */\n      dup3\n        /* \"#utility.yul\":14551:14565   */\n      add\n        /* \"#utility.yul\":14544:14595   */\n      mstore\n        /* \"#utility.yul\":14427:14602   */\n      pop\n      jump\t// out\n        /* \"#utility.yul\":14608:14974   */\n    tag_237:\n        /* \"#utility.yul\":14750:14753   */\n      0x00\n        /* \"#utility.yul\":14771:14838   */\n      tag_399\n        /* \"#utility.yul\":14835:14837   */\n      0x19\n        /* \"#utility.yul\":14830:14833   */\n      dup4\n        /* \"#utility.yul\":14771:14838   */\n      tag_218\n      jump\t// in\n    tag_399:\n        /* \"#utility.yul\":14764:14838   */\n      swap2\n      pop\n        /* \"#utility.yul\":14847:14940   */\n      tag_400\n        /* \"#utility.yul\":14936:14939   */\n      dup3\n        /* \"#utility.yul\":14847:14940   */\n      tag_236\n      jump\t// in\n    tag_400:\n        /* \"#utility.yul\":14965:14967   */\n      0x20\n        /* \"#utility.yul\":14960:14963   */\n      dup3\n        /* \"#utility.yul\":14956:14968   */\n      add\n        /* \"#utility.yul\":14949:14968   */\n      swap1\n      pop\n        /* \"#utility.yul\":14608:14974   */\n      swap2\n      swap1\n      pop\n      jump\t// out\n        /* \"#utility.yul\":14980:15399   */\n    tag_131:\n        /* \"#utility.yul\":15146:15150   */\n      0x00\n        /* \"#utility.yul\":15184:15186   */\n      0x20\n        /* \"#utility.yul\":15173:15182   */\n      dup3\n        /* \"#utility.yul\":15169:15187   */\n      add\n        /* \"#utility.yul\":15161:15187   */\n      swap1\n      pop\n        /* \"#utility.yul\":15233:15242   */\n      dup2\n        /* \"#utility.yul\":15227:15231   */\n      dup2\n        /* \"#utility.yul\":15223:15243   */\n      sub\n        /* \"#utility.yul\":15219:15220   */\n      0x00\n        /* \"#utility.yul\":15208:15217   */\n      dup4\n        /* \"#utility.yul\":15204:15221   */\n      add\n        /* \"#utility.yul\":15197:15244   */\n      mstore\n        /* \"#utility.yul\":15261:15392   */\n      tag_402\n        /* \"#utility.yul\":15387:15391   */\n      dup2\n        /* \"#utility.yul\":15261:15392   */\n      tag_237\n      jump\t// in\n    tag_402:\n        /* \"#utility.yul\":15253:15392   */\n      swap1\n      pop\n        /* \"#utility.yul\":14980:15399   */\n      swap2\n      swap1\n      pop\n      jump\t// out\n        /* \"#utility.yul\":15405:15585   */\n    tag_238:\n        /* \"#utility.yul\":15545:15577   */\n      0x546865207265717565737420686173206265656e20636f6d706c657465640000\n        /* \"#utility.yul\":15541:15542   */\n      0x00\n        /* \"#utility.yul\":15533:15539   */\n      dup3\n        /* \"#utility.yul\":15529:15543   */\n      add\n        /* \"#utility.yul\":15522:15578   */\n      mstore\n        /* \"#utility.yul\":15405:15585   */\n      pop\n      jump\t// out\n        /* \"#utility.yul\":15591:15957   */\n    tag_239:\n        /* \"#utility.yul\":15733:15736   */\n      0x00\n        /* \"#utility.yul\":15754:15821   */\n      tag_405\n        /* \"#utility.yul\":15818:15820   */\n      0x1e\n        /* \"#utility.yul\":15813:15816   */\n      dup4\n        /* \"#utility.yul\":15754:15821   */\n      tag_218\n      jump\t// in\n    tag_405:\n        /* \"#utility.yul\":15747:15821   */\n      swap2\n      pop\n        /* \"#utility.yul\":15830:15923   */\n      tag_406\n        /* \"#utility.yul\":15919:15922   */\n      dup3\n        /* \"#utility.yul\":15830:15923   */\n      tag_238\n      jump\t// in\n    tag_406:\n        /* \"#utility.yul\":15948:15950   */\n      0x20\n        /* \"#utility.yul\":15943:15946   */\n      dup3\n        /* \"#utility.yul\":15939:15951   */\n      add\n        /* \"#utility.yul\":15932:15951   */\n      swap1\n      pop\n        /* \"#utility.yul\":15591:15957   */\n      swap2\n      swap1\n      pop\n      jump\t// out\n        /* \"#utility.yul\":15963:16382   */\n    tag_134:\n        /* \"#utility.yul\":16129:16133   */\n      0x00\n        /* \"#utility.yul\":16167:16169   */\n      0x20\n        /* \"#utility.yul\":16156:16165   */\n      dup3\n        /* \"#utility.yul\":16152:16170   */\n      add\n        /* \"#utility.yul\":16144:16170   */\n      swap1\n      pop\n        /* \"#utility.yul\":16216:16225   */\n      dup2\n        /* \"#utility.yul\":16210:16214   */\n      dup2\n        /* \"#utility.yul\":16206:16226   */\n      sub\n        /* \"#utility.yul\":16202:16203   */\n      0x00\n        /* \"#utility.yul\":16191:16200   */\n      dup4\n        /* \"#utility.yul\":16187:16204   */\n      add\n        /* \"#utility.yul\":16180:16227   */\n      mstore\n        /* \"#utility.yul\":16244:16375   */\n      tag_408\n        /* \"#utility.yul\":16370:16374   */\n      dup2\n        /* \"#utility.yul\":16244:16375   */\n      tag_239\n      jump\t// in\n    tag_408:\n        /* \"#utility.yul\":16236:16375   */\n      swap1\n      pop\n        /* \"#utility.yul\":15963:16382   */\n      swap2\n      swap1\n      pop\n      jump\t// out\n        /* \"#utility.yul\":16388:16565   */\n    tag_240:\n        /* \"#utility.yul\":16528:16557   */\n      0x446561646c696e6520686173206e6f7420796574207061737365640000000000\n        /* \"#utility.yul\":16524:16525   */\n      0x00\n        /* \"#utility.yul\":16516:16522   */\n      dup3\n        /* \"#utility.yul\":16512:16526   */\n      add\n        /* \"#utility.yul\":16505:16558   */\n      mstore\n        /* \"#utility.yul\":16388:16565   */\n      pop\n      jump\t// out\n        /* \"#utility.yul\":16571:16937   */\n    tag_241:\n        /* \"#utility.yul\":16713:16716   */\n      0x00\n        /* \"#utility.yul\":16734:16801   */\n      tag_411\n        /* \"#utility.yul\":16798:16800   */\n      0x1b\n        /* \"#utility.yul\":16793:16796   */\n      dup4\n        /* \"#utility.yul\":16734:16801   */\n      tag_218\n      jump\t// in\n    tag_411:\n        /* \"#utility.yul\":16727:16801   */\n      swap2\n      pop\n        /* \"#utility.yul\":16810:16903   */\n      tag_412\n        /* \"#utility.yul\":16899:16902   */\n      dup3\n        /* \"#utility.yul\":16810:16903   */\n      tag_240\n      jump\t// in\n    tag_412:\n        /* \"#utility.yul\":16928:16930   */\n      0x20\n        /* \"#utility.yul\":16923:16926   */\n      dup3\n        /* \"#utility.yul\":16919:16931   */\n      add\n        /* \"#utility.yul\":16912:16931   */\n      swap1\n      pop\n        /* \"#utility.yul\":16571:16937   */\n      swap2\n      swap1\n      pop\n      jump\t// out\n        /* \"#utility.yul\":16943:17362   */\n    tag_140:\n        /* \"#utility.yul\":17109:17113   */\n      0x00\n        /* \"#utility.yul\":17147:17149   */\n      0x20\n        /* \"#utility.yul\":17136:17145   */\n      dup3\n        /* \"#utility.yul\":17132:17150   */\n      add\n        /* \"#utility.yul\":17124:17150   */\n      swap1\n      pop\n        /* \"#utility.yul\":17196:17205   */\n      dup2\n        /* \"#utility.yul\":17190:17194   */\n      dup2\n        /* \"#utility.yul\":17186:17206   */\n      sub\n        /* \"#utility.yul\":17182:17183   */\n      0x00\n        /* \"#utility.yul\":17171:17180   */\n      dup4\n        /* \"#utility.yul\":17167:17184   */\n      add\n        /* \"#utility.yul\":17160:17207   */\n      mstore\n        /* \"#utility.yul\":17224:17355   */\n      tag_414\n        /* \"#utility.yul\":17350:17354   */\n      dup2\n        /* \"#utility.yul\":17224:17355   */\n      tag_241\n      jump\t// in\n    tag_414:\n        /* \"#utility.yul\":17216:17355   */\n      swap1\n      pop\n        /* \"#utility.yul\":16943:17362   */\n      swap2\n      swap1\n      pop\n      jump\t// out\n        /* \"#utility.yul\":17368:17542   */\n    tag_242:\n        /* \"#utility.yul\":17508:17534   */\n      0x596f752068617665206e6f7420636f6e74726962757465640000000000000000\n        /* \"#utility.yul\":17504:17505   */\n      0x00\n        /* \"#utility.yul\":17496:17502   */\n      dup3\n        /* \"#utility.yul\":17492:17506   */\n      add\n        /* \"#utility.yul\":17485:17535   */\n      mstore\n        /* \"#utility.yul\":17368:17542   */\n      pop\n      jump\t// out\n        /* \"#utility.yul\":17548:17914   */\n    tag_243:\n        /* \"#utility.yul\":17690:17693   */\n      0x00\n        /* \"#utility.yul\":17711:17778   */\n      tag_417\n        /* \"#utility.yul\":17775:17777   */\n      0x18\n        /* \"#utility.yul\":17770:17773   */\n      dup4\n        /* \"#utility.yul\":17711:17778   */\n      tag_218\n      jump\t// in\n    tag_417:\n        /* \"#utility.yul\":17704:17778   */\n      swap2\n      pop\n        /* \"#utility.yul\":17787:17880   */\n      tag_418\n        /* \"#utility.yul\":17876:17879   */\n      dup3\n        /* \"#utility.yul\":17787:17880   */\n      tag_242\n      jump\t// in\n    tag_418:\n        /* \"#utility.yul\":17905:17907   */\n      0x20\n        /* \"#utility.yul\":17900:17903   */\n      dup3\n        /* \"#utility.yul\":17896:17908   */\n      add\n        /* \"#utility.yul\":17889:17908   */\n      swap1\n      pop\n        /* \"#utility.yul\":17548:17914   */\n      swap2\n      swap1\n      pop\n      jump\t// out\n        /* \"#utility.yul\":17920:18339   */\n    tag_143:\n        /* \"#utility.yul\":18086:18090   */\n      0x00\n        /* \"#utility.yul\":18124:18126   */\n      0x20\n        /* \"#utility.yul\":18113:18122   */\n      dup3\n        /* \"#utility.yul\":18109:18127   */\n      add\n        /* \"#utility.yul\":18101:18127   */\n      swap1\n      pop\n        /* \"#utility.yul\":18173:18182   */\n      dup2\n        /* \"#utility.yul\":18167:18171   */\n      dup2\n        /* \"#utility.yul\":18163:18183   */\n      sub\n        /* \"#utility.yul\":18159:18160   */\n      0x00\n        /* \"#utility.yul\":18148:18157   */\n      dup4\n        /* \"#utility.yul\":18144:18161   */\n      add\n        /* \"#utility.yul\":18137:18184   */\n      mstore\n        /* \"#utility.yul\":18201:18332   */\n      tag_420\n        /* \"#utility.yul\":18327:18331   */\n      dup2\n        /* \"#utility.yul\":18201:18332   */\n      tag_243\n      jump\t// in\n    tag_420:\n        /* \"#utility.yul\":18193:18332   */\n      swap1\n      pop\n        /* \"#utility.yul\":17920:18339   */\n      swap2\n      swap1\n      pop\n      jump\t// out\n        /* \"#utility.yul\":18345:18518   */\n    tag_244:\n        /* \"#utility.yul\":18485:18510   */\n      0x54617267657420686173206e6f74206d6574207965742e000000000000000000\n        /* \"#utility.yul\":18481:18482   */\n      0x00\n        /* \"#utility.yul\":18473:18479   */\n      dup3\n        /* \"#utility.yul\":18469:18483   */\n      add\n        /* \"#utility.yul\":18462:18511   */\n      mstore\n        /* \"#utility.yul\":18345:18518   */\n      pop\n      jump\t// out\n        /* \"#utility.yul\":18524:18890   */\n    tag_245:\n        /* \"#utility.yul\":18666:18669   */\n      0x00\n        /* \"#utility.yul\":18687:18754   */\n      tag_423\n        /* \"#utility.yul\":18751:18753   */\n      0x17\n        /* \"#utility.yul\":18746:18749   */\n      dup4\n        /* \"#utility.yul\":18687:18754   */\n      tag_218\n      jump\t// in\n    tag_423:\n        /* \"#utility.yul\":18680:18754   */\n      swap2\n      pop\n        /* \"#utility.yul\":18763:18856   */\n      tag_424\n        /* \"#utility.yul\":18852:18855   */\n      dup3\n        /* \"#utility.yul\":18763:18856   */\n      tag_244\n      jump\t// in\n    tag_424:\n        /* \"#utility.yul\":18881:18883   */\n      0x20\n        /* \"#utility.yul\":18876:18879   */\n      dup3\n        /* \"#utility.yul\":18872:18884   */\n      add\n        /* \"#utility.yul\":18865:18884   */\n      swap1\n      pop\n        /* \"#utility.yul\":18524:18890   */\n      swap2\n      swap1\n      pop\n      jump\t// out\n        /* \"#utility.yul\":18896:19315   */\n    tag_146:\n        /* \"#utility.yul\":19062:19066   */\n      0x00\n        /* \"#utility.yul\":19100:19102   */\n      0x20\n        /* \"#utility.yul\":19089:19098   */\n      dup3\n        /* \"#utility.yul\":19085:19103   */\n      add\n        /* \"#utility.yul\":19077:19103   */\n      swap1\n      pop\n        /* \"#utility.yul\":19149:19158   */\n      dup2\n        /* \"#utility.yul\":19143:19147   */\n      dup2\n        /* \"#utility.yul\":19139:19159   */\n      sub\n        /* \"#utility.yul\":19135:19136   */\n      0x00\n        /* \"#utility.yul\":19124:19133   */\n      dup4\n        /* \"#utility.yul\":19120:19137   */\n      add\n        /* \"#utility.yul\":19113:19160   */\n      mstore\n        /* \"#utility.yul\":19177:19308   */\n      tag_426\n        /* \"#utility.yul\":19303:19307   */\n      dup2\n        /* \"#utility.yul\":19177:19308   */\n      tag_245\n      jump\t// in\n    tag_426:\n        /* \"#utility.yul\":19169:19308   */\n      swap1\n      pop\n        /* \"#utility.yul\":18896:19315   */\n      swap2\n      swap1\n      pop\n      jump\t// out\n        /* \"#utility.yul\":19321:19492   */\n    tag_150:\n        /* \"#utility.yul\":19360:19363   */\n      0x00\n        /* \"#utility.yul\":19383:19407   */\n      tag_428\n        /* \"#utility.yul\":19401:19406   */\n      dup3\n        /* \"#utility.yul\":19383:19407   */\n      tag_199\n      jump\t// in\n    tag_428:\n        /* \"#utility.yul\":19374:19407   */\n      swap2\n      pop\n        /* \"#utility.yul\":19429:19433   */\n      0x00\n        /* \"#utility.yul\":19422:19427   */\n      dup3\n        /* \"#utility.yul\":19419:19434   */\n      sub\n        /* \"#utility.yul\":19416:19457   */\n      tag_429\n      jumpi\n        /* \"#utility.yul\":19437:19455   */\n      tag_430\n      tag_228\n      jump\t// in\n    tag_430:\n        /* \"#utility.yul\":19416:19457   */\n    tag_429:\n        /* \"#utility.yul\":19484:19485   */\n      0x01\n        /* \"#utility.yul\":19477:19482   */\n      dup3\n        /* \"#utility.yul\":19473:19486   */\n      sub\n        /* \"#utility.yul\":19466:19486   */\n      swap1\n      pop\n        /* \"#utility.yul\":19321:19492   */\n      swap2\n      swap1\n      pop\n      jump\t// out\n        /* \"#utility.yul\":19498:19678   */\n    tag_246:\n        /* \"#utility.yul\":19546:19623   */\n      0x4e487b7100000000000000000000000000000000000000000000000000000000\n        /* \"#utility.yul\":19543:19544   */\n      0x00\n        /* \"#utility.yul\":19536:19624   */\n      mstore\n        /* \"#utility.yul\":19643:19647   */\n      0x22\n        /* \"#utility.yul\":19640:19641   */\n      0x04\n        /* \"#utility.yul\":19633:19648   */\n      mstore\n        /* \"#utility.yul\":19667:19671   */\n      0x24\n        /* \"#utility.yul\":19664:19665   */\n      0x00\n        /* \"#utility.yul\":19657:19672   */\n      revert\n        /* \"#utility.yul\":19684:20004   */\n    tag_153:\n        /* \"#utility.yul\":19728:19734   */\n      0x00\n        /* \"#utility.yul\":19765:19766   */\n      0x02\n        /* \"#utility.yul\":19759:19763   */\n      dup3\n        /* \"#utility.yul\":19755:19767   */\n      div\n        /* \"#utility.yul\":19745:19767   */\n      swap1\n      pop\n        /* \"#utility.yul\":19812:19813   */\n      0x01\n        /* \"#utility.yul\":19806:19810   */\n      dup3\n        /* \"#utility.yul\":19802:19814   */\n      and\n        /* \"#utility.yul\":19833:19851   */\n      dup1\n        /* \"#utility.yul\":19823:19904   */\n      tag_433\n      jumpi\n        /* \"#utility.yul\":19889:19893   */\n      0x7f\n        /* \"#utility.yul\":19881:19887   */\n      dup3\n        /* \"#utility.yul\":19877:19894   */\n      and\n        /* \"#utility.yul\":19867:19894   */\n      swap2\n      pop\n        /* \"#utility.yul\":19823:19904   */\n    tag_433:\n        /* \"#utility.yul\":19951:19953   */\n      0x20\n        /* \"#utility.yul\":19943:19949   */\n      dup3\n        /* \"#utility.yul\":19940:19954   */\n      lt\n        /* \"#utility.yul\":19920:19938   */\n      dup2\n        /* \"#utility.yul\":19917:19955   */\n      sub\n        /* \"#utility.yul\":19914:19998   */\n      tag_434\n      jumpi\n        /* \"#utility.yul\":19970:19988   */\n      tag_435\n      tag_246\n      jump\t// in\n    tag_435:\n        /* \"#utility.yul\":19914:19998   */\n    tag_434:\n        /* \"#utility.yul\":19735:20004   */\n      pop\n        /* \"#utility.yul\":19684:20004   */\n      swap2\n      swap1\n      pop\n      jump\t// out\n        /* \"#utility.yul\":20010:20184   */\n    tag_247:\n        /* \"#utility.yul\":20150:20176   */\n      0x4f6e6c79206d616e616765722063616e20726566756e642e0000000000000000\n        /* \"#utility.yul\":20146:20147   */\n      0x00\n        /* \"#utility.yul\":20138:20144   */\n      dup3\n        /* \"#utility.yul\":20134:20148   */\n      add\n        /* \"#utility.yul\":20127:20177   */\n      mstore\n        /* \"#utility.yul\":20010:20184   */\n      pop\n      jump\t// out\n        /* \"#utility.yul\":20190:20556   */\n    tag_248:\n        /* \"#utility.yul\":20332:20335   */\n      0x00\n        /* \"#utility.yul\":20353:20420   */\n      tag_438\n        /* \"#utility.yul\":20417:20419   */\n      0x18\n        /* \"#utility.yul\":20412:20415   */\n      dup4\n        /* \"#utility.yul\":20353:20420   */\n      tag_218\n      jump\t// in\n    tag_438:\n        /* \"#utility.yul\":20346:20420   */\n      swap2\n      pop\n        /* \"#utility.yul\":20429:20522   */\n      tag_439\n        /* \"#utility.yul\":20518:20521   */\n      dup3\n        /* \"#utility.yul\":20429:20522   */\n      tag_247\n      jump\t// in\n    tag_439:\n        /* \"#utility.yul\":20547:20549   */\n      0x20\n        /* \"#utility.yul\":20542:20545   */\n      dup3\n        /* \"#utility.yul\":20538:20550   */\n      add\n        /* \"#utility.yul\":20531:20550   */\n      swap1\n      pop\n        /* \"#utility.yul\":20190:20556   */\n      swap2\n      swap1\n      pop\n      jump\t// out\n        /* \"#utility.yul\":20562:20981   */\n    tag_161:\n        /* \"#utility.yul\":20728:20732   */\n      0x00\n        /* \"#utility.yul\":20766:20768   */\n      0x20\n        /* \"#utility.yul\":20755:20764   */\n      dup3\n        /* \"#utility.yul\":20751:20769   */\n      add\n        /* \"#utility.yul\":20743:20769   */\n      swap1\n      pop\n        /* \"#utility.yul\":20815:20824   */\n      dup2\n        /* \"#utility.yul\":20809:20813   */\n      dup2\n        /* \"#utility.yul\":20805:20825   */\n      sub\n        /* \"#utility.yul\":20801:20802   */\n      0x00\n        /* \"#utility.yul\":20790:20799   */\n      dup4\n        /* \"#utility.yul\":20786:20803   */\n      add\n        /* \"#utility.yul\":20779:20826   */\n      mstore\n        /* \"#utility.yul\":20843:20974   */\n      tag_441\n        /* \"#utility.yul\":20969:20973   */\n      dup2\n        /* \"#utility.yul\":20843:20974   */\n      tag_248\n      jump\t// in\n    tag_441:\n        /* \"#utility.yul\":20835:20974   */\n      swap1\n      pop\n        /* \"#utility.yul\":20562:20981   */\n      swap2\n      swap1\n      pop\n      jump\t// out\n        /* \"#utility.yul\":20987:21165   */\n    tag_249:\n        /* \"#utility.yul\":21127:21157   */\n      0x446561646c696e6520686173206e6f7420796574207061737365642e00000000\n        /* \"#utility.yul\":21123:21124   */\n      0x00\n        /* \"#utility.yul\":21115:21121   */\n      dup3\n        /* \"#utility.yul\":21111:21125   */\n      add\n        /* \"#utility.yul\":21104:21158   */\n      mstore\n        /* \"#utility.yul\":20987:21165   */\n      pop\n      jump\t// out\n        /* \"#utility.yul\":21171:21537   */\n    tag_250:\n        /* \"#utility.yul\":21313:21316   */\n      0x00\n        /* \"#utility.yul\":21334:21401   */\n      tag_444\n        /* \"#utility.yul\":21398:21400   */\n      0x1c\n        /* \"#utility.yul\":21393:21396   */\n      dup4\n        /* \"#utility.yul\":21334:21401   */\n      tag_218\n      jump\t// in\n    tag_444:\n        /* \"#utility.yul\":21327:21401   */\n      swap2\n      pop\n        /* \"#utility.yul\":21410:21503   */\n      tag_445\n        /* \"#utility.yul\":21499:21502   */\n      dup3\n        /* \"#utility.yul\":21410:21503   */\n      tag_249\n      jump\t// in\n    tag_445:\n        /* \"#utility.yul\":21528:21530   */\n      0x20\n        /* \"#utility.yul\":21523:21526   */\n      dup3\n        /* \"#utility.yul\":21519:21531   */\n      add\n        /* \"#utility.yul\":21512:21531   */\n      swap1\n      pop\n        /* \"#utility.yul\":21171:21537   */\n      swap2\n      swap1\n      pop\n      jump\t// out\n        /* \"#utility.yul\":21543:21962   */\n    tag_164:\n        /* \"#utility.yul\":21709:21713   */\n      0x00\n        /* \"#utility.yul\":21747:21749   */\n      0x20\n        /* \"#utility.yul\":21736:21745   */\n      dup3\n        /* \"#utility.yul\":21732:21750   */\n      add\n        /* \"#utility.yul\":21724:21750   */\n      swap1\n      pop\n        /* \"#utility.yul\":21796:21805   */\n      dup2\n        /* \"#utility.yul\":21790:21794   */\n      dup2\n        /* \"#utility.yul\":21786:21806   */\n      sub\n        /* \"#utility.yul\":21782:21783   */\n      0x00\n        /* \"#utility.yul\":21771:21780   */\n      dup4\n        /* \"#utility.yul\":21767:21784   */\n      add\n        /* \"#utility.yul\":21760:21807   */\n      mstore\n        /* \"#utility.yul\":21824:21955   */\n      tag_447\n        /* \"#utility.yul\":21950:21954   */\n      dup2\n        /* \"#utility.yul\":21824:21955   */\n      tag_250\n      jump\t// in\n    tag_447:\n        /* \"#utility.yul\":21816:21955   */\n      swap1\n      pop\n        /* \"#utility.yul\":21543:21962   */\n      swap2\n      swap1\n      pop\n      jump\t// out\n        /* \"#utility.yul\":21968:22148   */\n    tag_172:\n        /* \"#utility.yul\":22016:22093   */\n      0x4e487b7100000000000000000000000000000000000000000000000000000000\n        /* \"#utility.yul\":22013:22014   */\n      0x00\n        /* \"#utility.yul\":22006:22094   */\n      mstore\n        /* \"#utility.yul\":22113:22117   */\n      0x32\n        /* \"#utility.yul\":22110:22111   */\n      0x04\n        /* \"#utility.yul\":22103:22118   */\n      mstore\n        /* \"#utility.yul\":22137:22141   */\n      0x24\n        /* \"#utility.yul\":22134:22135   */\n      0x00\n        /* \"#utility.yul\":22127:22142   */\n      revert\n\n    auxdata: 0xa264697066735822122007e8aaf988ab0dfafab65040462257332e873c65976b6c2f887e21e6cf1fef9c64736f6c634300080d0033\n}\n",
				"bytecode": {
					"linkReferences": {},
					"object": "60806040523480156200001157600080fd5b5060405162001dcd38038062001dcd8339818101604052810190620000379190620000e2565b8260038190555081426200004c91906200016d565b60028190555080600181905550336000806101000a81548173ffffffffffffffffffffffffffffffffffffffff021916908373ffffffffffffffffffffffffffffffffffffffff160217905550505050620001ca565b600080fd5b6000819050919050565b620000bc81620000a7565b8114620000c857600080fd5b50565b600081519050620000dc81620000b1565b92915050565b600080600060608486031215620000fe57620000fd620000a2565b5b60006200010e86828701620000cb565b93505060206200012186828701620000cb565b92505060406200013486828701620000cb565b9150509250925092565b7f4e487b7100000000000000000000000000000000000000000000000000000000600052601160045260246000fd5b60006200017a82620000a7565b91506200018783620000a7565b9250827fffffffffffffffffffffffffffffffffffffffffffffffffffffffffffffffff03821115620001bf57620001be6200013e565b5b828201905092915050565b611bf380620001da6000396000f3fe6080604052600436106100fe5760003560e01c8063590e1ae3116100955780639fb42b1f116100645780639fb42b1f146102f4578063c59ee1dc1461031f578063d4b839921461034a578063dbddd8db14610375578063edf26d9b1461038c576100fe565b8063590e1ae3146102465780636f9fb98a1461025d57806381d12c5814610288578063937e09b1146102c9576100fe565b8063481c6a75116100d1578063481c6a751461019e5780634cb6f4a5146101c95780634e260f6f146101f25780635114cb521461021d576100fe565b806306e99fef146101035780631f6d49421461010d57806329dcb0cf1461014a5780633eb7647b14610175575b600080fd5b61010b6103c9565b005b34801561011957600080fd5b50610134600480360381019061012f91906110a4565b610586565b60405161014191906110ea565b60405180910390f35b34801561015657600080fd5b5061015f61059e565b60405161016c91906110ea565b60405180910390f35b34801561018157600080fd5b5061019c600480360381019061019791906112b5565b6105a4565b005b3480156101aa57600080fd5b506101b36106a7565b6040516101c09190611333565b60405180910390f35b3480156101d557600080fd5b506101f060048036038101906101eb919061134e565b6106cb565b005b3480156101fe57600080fd5b50610207610871565b60405161021491906110ea565b60405180910390f35b34801561022957600080fd5b50610244600480360381019061023f919061134e565b610877565b005b34801561025257600080fd5b5061025b610a11565b005b34801561026957600080fd5b50610272610c08565b60405161027f91906110ea565b60405180910390f35b34801561029457600080fd5b506102af60048036038101906102aa919061134e565b610c10565b6040516102c095949392919061142d565b60405180910390f35b3480156102d557600080fd5b506102de610cfb565b6040516102eb91906110ea565b60405180910390f35b34801561030057600080fd5b50610309610d01565b60405161031691906110ea565b60405180910390f35b34801561032b57600080fd5b50610334610d07565b60405161034191906110ea565b60405180910390f35b34801561035657600080fd5b5061035f610d0d565b60405161036c91906110ea565b60405180910390f35b34801561038157600080fd5b5061038a610d13565b005b34801561039857600080fd5b506103b360048036038101906103ae919061134e565b610f50565b6040516103c09190611487565b60405180910390f35b600254421061040d576040517f08c379a0000000000000000000000000000000000000000000000000000000008152600401610404906114ee565b60405180910390fd5b600154341015610452576040517f08c379a00000000000000000000000000000000000000000000000000000000081526004016104499061155a565b60405180910390fd5b6000600960003373ffffffffffffffffffffffffffffffffffffffff1673ffffffffffffffffffffffffffffffffffffffff168152602001908152602001600020540361051557600560008154809291906104ac906115a9565b91905055506006339080600181540180825580915050600190039060005260206000200160009091909190916101000a81548173ffffffffffffffffffffffffffffffffffffffff021916908373ffffffffffffffffffffffffffffffffffffffff1602179055505b34600960003373ffffffffffffffffffffffffffffffffffffffff1673ffffffffffffffffffffffffffffffffffffffff168152602001908152602001600020600082825461056491906115f1565b92505081905550346004600082825461057d91906115f1565b92505081905550565b60096020528060005260406000206000915090505481565b60025481565b336000806101000a81548173ffffffffffffffffffffffffffffffffffffffff021916908373ffffffffffffffffffffffffffffffffffffffff1602179055506000600760006008548152602001908152602001600020905060086000815480929190610610906115a9565b91905055508381600001908051906020019061062d929190610f8f565b50828160010160006101000a81548173ffffffffffffffffffffffffffffffffffffffff021916908373ffffffffffffffffffffffffffffffffffffffff16021790555081816002018190555060008160030160006101000a81548160ff0219169083151502179055506000816004018190555050505050565b60008054906101000a900473ffffffffffffffffffffffffffffffffffffffff1681565b6000600960003373ffffffffffffffffffffffffffffffffffffffff1673ffffffffffffffffffffffffffffffffffffffff168152602001908152602001600020541161074d576040517f08c379a000000000000000000000000000000000000000000000000000000000815260040161074490611693565b60405180910390fd5b6000600760008381526020019081526020016000209050600015158160050160003373ffffffffffffffffffffffffffffffffffffffff1673ffffffffffffffffffffffffffffffffffffffff16815260200190815260200160002060009054906101000a900460ff161515146107f9576040517f08c379a00000000000000000000000000000000000000000000000000000000081526004016107f0906116ff565b60405180910390fd5b60018160050160003373ffffffffffffffffffffffffffffffffffffffff1673ffffffffffffffffffffffffffffffffffffffff16815260200190815260200160002060006101000a81548160ff021916908315150217905550806004016000815480929190610868906115a9565b91905055505050565b60055481565b60035460045410156108be576040517f08c379a00000000000000000000000000000000000000000000000000000000081526004016108b590611791565b60405180910390fd5b600060076000838152602001908152602001600020905060026005546108e491906117e0565b816004015411610929576040517f08c379a00000000000000000000000000000000000000000000000000000000081526004016109209061185d565b60405180910390fd5b600015158160030160009054906101000a900460ff16151514610981576040517f08c379a0000000000000000000000000000000000000000000000000000000008152600401610978906118c9565b60405180910390fd5b8060010160009054906101000a900473ffffffffffffffffffffffffffffffffffffffff1673ffffffffffffffffffffffffffffffffffffffff166108fc82600201549081150290604051600060405180830381858888f193505050501580156109ef573d6000803e3d6000fd5b5060018160030160006101000a81548160ff0219169083151502179055505050565b6002544211610a55576040517f08c379a0000000000000000000000000000000000000000000000000000000008152600401610a4c90611935565b60405180910390fd5b6000600960003373ffffffffffffffffffffffffffffffffffffffff1673ffffffffffffffffffffffffffffffffffffffff1681526020019081526020016000205411610ad7576040517f08c379a0000000000000000000000000000000000000000000000000000000008152600401610ace906119a1565b60405180910390fd5b60045460035410610b1d576040517f08c379a0000000000000000000000000000000000000000000000000000000008152600401610b1490611a0d565b60405180910390fd5b60003390508073ffffffffffffffffffffffffffffffffffffffff166108fc600960008473ffffffffffffffffffffffffffffffffffffffff1673ffffffffffffffffffffffffffffffffffffffff168152602001908152602001600020549081150290604051600060405180830381858888f19350505050158015610ba7573d6000803e3d6000fd5b506000600960008373ffffffffffffffffffffffffffffffffffffffff1673ffffffffffffffffffffffffffffffffffffffff1681526020019081526020016000208190555060056000815480929190610c0090611a2d565b919050555050565b600047905090565b6007602052806000526040600020600091509050806000018054610c3390611a85565b80601f0160208091040260200160405190810160405280929190818152602001828054610c5f90611a85565b8015610cac5780601f10610c8157610100808354040283529160200191610cac565b820191906000526020600020905b815481529060010190602001808311610c8f57829003601f168201915b5050505050908060010160009054906101000a900473ffffffffffffffffffffffffffffffffffffffff16908060020154908060030160009054906101000a900460ff16908060040154905085565b60015481565b60085481565b60045481565b60035481565b3373ffffffffffffffffffffffffffffffffffffffff1660008054906101000a900473ffffffffffffffffffffffffffffffffffffffff1673ffffffffffffffffffffffffffffffffffffffff1614610da1576040517f08c379a0000000000000000000000000000000000000000000000000000000008152600401610d9890611b02565b60405180910390fd5b6002544211610de5576040517f08c379a0000000000000000000000000000000000000000000000000000000008152600401610ddc90611b6e565b60405180910390fd5b60045460035410610e2b576040517f08c379a0000000000000000000000000000000000000000000000000000000008152600401610e2290611a0d565b60405180910390fd5b60005b600554811015610f4d5760068181548110610e4c57610e4b611b8e565b5b9060005260206000200160009054906101000a900473ffffffffffffffffffffffffffffffffffffffff1673ffffffffffffffffffffffffffffffffffffffff166108fc6009600060068581548110610ea857610ea7611b8e565b5b9060005260206000200160009054906101000a900473ffffffffffffffffffffffffffffffffffffffff1673ffffffffffffffffffffffffffffffffffffffff1673ffffffffffffffffffffffffffffffffffffffff168152602001908152602001600020549081150290604051600060405180830381858888f19350505050158015610f39573d6000803e3d6000fd5b508080610f45906115a9565b915050610e2e565b50565b60068181548110610f6057600080fd5b906000526020600020016000915054906101000a900473ffffffffffffffffffffffffffffffffffffffff1681565b828054610f9b90611a85565b90600052602060002090601f016020900481019282610fbd5760008555611004565b82601f10610fd657805160ff1916838001178555611004565b82800160010185558215611004579182015b82811115611003578251825591602001919060010190610fe8565b5b5090506110119190611015565b5090565b5b8082111561102e576000816000905550600101611016565b5090565b6000604051905090565b600080fd5b600080fd5b600073ffffffffffffffffffffffffffffffffffffffff82169050919050565b600061107182611046565b9050919050565b61108181611066565b811461108c57600080fd5b50565b60008135905061109e81611078565b92915050565b6000602082840312156110ba576110b961103c565b5b60006110c88482850161108f565b91505092915050565b6000819050919050565b6110e4816110d1565b82525050565b60006020820190506110ff60008301846110db565b92915050565b600080fd5b600080fd5b6000601f19601f8301169050919050565b7f4e487b7100000000000000000000000000000000000000000000000000000000600052604160045260246000fd5b6111588261110f565b810181811067ffffffffffffffff8211171561117757611176611120565b5b80604052505050565b600061118a611032565b9050611196828261114f565b919050565b600067ffffffffffffffff8211156111b6576111b5611120565b5b6111bf8261110f565b9050602081019050919050565b82818337600083830152505050565b60006111ee6111e98461119b565b611180565b90508281526020810184848401111561120a5761120961110a565b5b6112158482856111cc565b509392505050565b600082601f83011261123257611231611105565b5b81356112428482602086016111db565b91505092915050565b600061125682611046565b9050919050565b6112668161124b565b811461127157600080fd5b50565b6000813590506112838161125d565b92915050565b611292816110d1565b811461129d57600080fd5b50565b6000813590506112af81611289565b92915050565b6000806000606084860312156112ce576112cd61103c565b5b600084013567ffffffffffffffff8111156112ec576112eb611041565b5b6112f88682870161121d565b935050602061130986828701611274565b925050604061131a868287016112a0565b9150509250925092565b61132d81611066565b82525050565b60006020820190506113486000830184611324565b92915050565b6000602082840312156113645761136361103c565b5b6000611372848285016112a0565b91505092915050565b600081519050919050565b600082825260208201905092915050565b60005b838110156113b557808201518184015260208101905061139a565b838111156113c4576000848401525b50505050565b60006113d58261137b565b6113df8185611386565b93506113ef818560208601611397565b6113f88161110f565b840191505092915050565b61140c8161124b565b82525050565b60008115159050919050565b61142781611412565b82525050565b600060a082019050818103600083015261144781886113ca565b90506114566020830187611403565b61146360408301866110db565b611470606083018561141e565b61147d60808301846110db565b9695505050505050565b600060208201905061149c6000830184611403565b92915050565b7f446561646c696e65206861732070617373656400000000000000000000000000600082015250565b60006114d8601383611386565b91506114e3826114a2565b602082019050919050565b60006020820190508181036000830152611507816114cb565b9050919050565b7f4d696e696d756d20636f6e747269627574696f6e20686173206e6f74206d6574600082015250565b6000611544602083611386565b915061154f8261150e565b602082019050919050565b6000602082019050818103600083015261157381611537565b9050919050565b7f4e487b7100000000000000000000000000000000000000000000000000000000600052601160045260246000fd5b60006115b4826110d1565b91507fffffffffffffffffffffffffffffffffffffffffffffffffffffffffffffffff82036115e6576115e561157a565b5b600182019050919050565b60006115fc826110d1565b9150611607836110d1565b9250827fffffffffffffffffffffffffffffffffffffffffffffffffffffffffffffffff0382111561163c5761163b61157a565b5b828201905092915050565b7f596f7520617265206e6f74206120636f6e7472696275746f722e000000000000600082015250565b600061167d601a83611386565b915061168882611647565b602082019050919050565b600060208201905081810360008301526116ac81611670565b9050919050565b7f596f7520616c726561647920766f7465642e0000000000000000000000000000600082015250565b60006116e9601283611386565b91506116f4826116b3565b602082019050919050565b60006020820190508181036000830152611718816116dc565b9050919050565b7f54617267657420616d6f756e7420686173206e6f74207265616865642079657460008201527f2e00000000000000000000000000000000000000000000000000000000000000602082015250565b600061177b602183611386565b91506117868261171f565b604082019050919050565b600060208201905081810360008301526117aa8161176e565b9050919050565b7f4e487b7100000000000000000000000000000000000000000000000000000000600052601260045260246000fd5b60006117eb826110d1565b91506117f6836110d1565b925082611806576118056117b1565b5b828204905092915050565b7f4d616a6f7269747920646f6573206e6f7420737570706f727400000000000000600082015250565b6000611847601983611386565b915061185282611811565b602082019050919050565b600060208201905081810360008301526118768161183a565b9050919050565b7f546865207265717565737420686173206265656e20636f6d706c657465640000600082015250565b60006118b3601e83611386565b91506118be8261187d565b602082019050919050565b600060208201905081810360008301526118e2816118a6565b9050919050565b7f446561646c696e6520686173206e6f7420796574207061737365640000000000600082015250565b600061191f601b83611386565b915061192a826118e9565b602082019050919050565b6000602082019050818103600083015261194e81611912565b9050919050565b7f596f752068617665206e6f7420636f6e74726962757465640000000000000000600082015250565b600061198b601883611386565b915061199682611955565b602082019050919050565b600060208201905081810360008301526119ba8161197e565b9050919050565b7f54617267657420686173206e6f74206d6574207965742e000000000000000000600082015250565b60006119f7601783611386565b9150611a02826119c1565b602082019050919050565b60006020820190508181036000830152611a26816119ea565b9050919050565b6000611a38826110d1565b915060008203611a4b57611a4a61157a565b5b600182039050919050565b7f4e487b7100000000000000000000000000000000000000000000000000000000600052602260045260246000fd5b60006002820490506001821680611a9d57607f821691505b602082108103611ab057611aaf611a56565b5b50919050565b7f4f6e6c79206d616e616765722063616e20726566756e642e0000000000000000600082015250565b6000611aec601883611386565b9150611af782611ab6565b602082019050919050565b60006020820190508181036000830152611b1b81611adf565b9050919050565b7f446561646c696e6520686173206e6f7420796574207061737365642e00000000600082015250565b6000611b58601c83611386565b9150611b6382611b22565b602082019050919050565b60006020820190508181036000830152611b8781611b4b565b9050919050565b7f4e487b7100000000000000000000000000000000000000000000000000000000600052603260045260246000fdfea264697066735822122007e8aaf988ab0dfafab65040462257332e873c65976b6c2f887e21e6cf1fef9c64736f6c634300080d0033",
					"opcodes": "PUSH1 0x80 PUSH1 0x40 MSTORE CALLVALUE DUP1 ISZERO PUSH3 0x11 JUMPI PUSH1 0x0 DUP1 REVERT JUMPDEST POP PUSH1 0x40 MLOAD PUSH3 0x1DCD CODESIZE SUB DUP1 PUSH3 0x1DCD DUP4 CODECOPY DUP2 DUP2 ADD PUSH1 0x40 MSTORE DUP2 ADD SWAP1 PUSH3 0x37 SWAP2 SWAP1 PUSH3 0xE2 JUMP JUMPDEST DUP3 PUSH1 0x3 DUP2 SWAP1 SSTORE POP DUP2 TIMESTAMP PUSH3 0x4C SWAP2 SWAP1 PUSH3 0x16D JUMP JUMPDEST PUSH1 0x2 DUP2 SWAP1 SSTORE POP DUP1 PUSH1 0x1 DUP2 SWAP1 SSTORE POP CALLER PUSH1 0x0 DUP1 PUSH2 0x100 EXP DUP2 SLOAD DUP2 PUSH20 0xFFFFFFFFFFFFFFFFFFFFFFFFFFFFFFFFFFFFFFFF MUL NOT AND SWAP1 DUP4 PUSH20 0xFFFFFFFFFFFFFFFFFFFFFFFFFFFFFFFFFFFFFFFF AND MUL OR SWAP1 SSTORE POP POP POP POP PUSH3 0x1CA JUMP JUMPDEST PUSH1 0x0 DUP1 REVERT JUMPDEST PUSH1 0x0 DUP2 SWAP1 POP SWAP2 SWAP1 POP JUMP JUMPDEST PUSH3 0xBC DUP2 PUSH3 0xA7 JUMP JUMPDEST DUP2 EQ PUSH3 0xC8 JUMPI PUSH1 0x0 DUP1 REVERT JUMPDEST POP JUMP JUMPDEST PUSH1 0x0 DUP2 MLOAD SWAP1 POP PUSH3 0xDC DUP2 PUSH3 0xB1 JUMP JUMPDEST SWAP3 SWAP2 POP POP JUMP JUMPDEST PUSH1 0x0 DUP1 PUSH1 0x0 PUSH1 0x60 DUP5 DUP7 SUB SLT ISZERO PUSH3 0xFE JUMPI PUSH3 0xFD PUSH3 0xA2 JUMP JUMPDEST JUMPDEST PUSH1 0x0 PUSH3 0x10E DUP7 DUP3 DUP8 ADD PUSH3 0xCB JUMP JUMPDEST SWAP4 POP POP PUSH1 0x20 PUSH3 0x121 DUP7 DUP3 DUP8 ADD PUSH3 0xCB JUMP JUMPDEST SWAP3 POP POP PUSH1 0x40 PUSH3 0x134 DUP7 DUP3 DUP8 ADD PUSH3 0xCB JUMP JUMPDEST SWAP2 POP POP SWAP3 POP SWAP3 POP SWAP3 JUMP JUMPDEST PUSH32 0x4E487B7100000000000000000000000000000000000000000000000000000000 PUSH1 0x0 MSTORE PUSH1 0x11 PUSH1 0x4 MSTORE PUSH1 0x24 PUSH1 0x0 REVERT JUMPDEST PUSH1 0x0 PUSH3 0x17A DUP3 PUSH3 0xA7 JUMP JUMPDEST SWAP2 POP PUSH3 0x187 DUP4 PUSH3 0xA7 JUMP JUMPDEST SWAP3 POP DUP3 PUSH32 0xFFFFFFFFFFFFFFFFFFFFFFFFFFFFFFFFFFFFFFFFFFFFFFFFFFFFFFFFFFFFFFFF SUB DUP3 GT ISZERO PUSH3 0x1BF JUMPI PUSH3 0x1BE PUSH3 0x13E JUMP JUMPDEST JUMPDEST DUP3 DUP3 ADD SWAP1 POP SWAP3 SWAP2 POP POP JUMP JUMPDEST PUSH2 0x1BF3 DUP1 PUSH3 0x1DA PUSH1 0x0 CODECOPY PUSH1 0x0 RETURN INVALID PUSH1 0x80 PUSH1 0x40 MSTORE PUSH1 0x4 CALLDATASIZE LT PUSH2 0xFE JUMPI PUSH1 0x0 CALLDATALOAD PUSH1 0xE0 SHR DUP1 PUSH4 0x590E1AE3 GT PUSH2 0x95 JUMPI DUP1 PUSH4 0x9FB42B1F GT PUSH2 0x64 JUMPI DUP1 PUSH4 0x9FB42B1F EQ PUSH2 0x2F4 JUMPI DUP1 PUSH4 0xC59EE1DC EQ PUSH2 0x31F JUMPI DUP1 PUSH4 0xD4B83992 EQ PUSH2 0x34A JUMPI DUP1 PUSH4 0xDBDDD8DB EQ PUSH2 0x375 JUMPI DUP1 PUSH4 0xEDF26D9B EQ PUSH2 0x38C JUMPI PUSH2 0xFE JUMP JUMPDEST DUP1 PUSH4 0x590E1AE3 EQ PUSH2 0x246 JUMPI DUP1 PUSH4 0x6F9FB98A EQ PUSH2 0x25D JUMPI DUP1 PUSH4 0x81D12C58 EQ PUSH2 0x288 JUMPI DUP1 PUSH4 0x937E09B1 EQ PUSH2 0x2C9 JUMPI PUSH2 0xFE JUMP JUMPDEST DUP1 PUSH4 0x481C6A75 GT PUSH2 0xD1 JUMPI DUP1 PUSH4 0x481C6A75 EQ PUSH2 0x19E JUMPI DUP1 PUSH4 0x4CB6F4A5 EQ PUSH2 0x1C9 JUMPI DUP1 PUSH4 0x4E260F6F EQ PUSH2 0x1F2 JUMPI DUP1 PUSH4 0x5114CB52 EQ PUSH2 0x21D JUMPI PUSH2 0xFE JUMP JUMPDEST DUP1 PUSH4 0x6E99FEF EQ PUSH2 0x103 JUMPI DUP1 PUSH4 0x1F6D4942 EQ PUSH2 0x10D JUMPI DUP1 PUSH4 0x29DCB0CF EQ PUSH2 0x14A JUMPI DUP1 PUSH4 0x3EB7647B EQ PUSH2 0x175 JUMPI JUMPDEST PUSH1 0x0 DUP1 REVERT JUMPDEST PUSH2 0x10B PUSH2 0x3C9 JUMP JUMPDEST STOP JUMPDEST CALLVALUE DUP1 ISZERO PUSH2 0x119 JUMPI PUSH1 0x0 DUP1 REVERT JUMPDEST POP PUSH2 0x134 PUSH1 0x4 DUP1 CALLDATASIZE SUB DUP2 ADD SWAP1 PUSH2 0x12F SWAP2 SWAP1 PUSH2 0x10A4 JUMP JUMPDEST PUSH2 0x586 JUMP JUMPDEST PUSH1 0x40 MLOAD PUSH2 0x141 SWAP2 SWAP1 PUSH2 0x10EA JUMP JUMPDEST PUSH1 0x40 MLOAD DUP1 SWAP2 SUB SWAP1 RETURN JUMPDEST CALLVALUE DUP1 ISZERO PUSH2 0x156 JUMPI PUSH1 0x0 DUP1 REVERT JUMPDEST POP PUSH2 0x15F PUSH2 0x59E JUMP JUMPDEST PUSH1 0x40 MLOAD PUSH2 0x16C SWAP2 SWAP1 PUSH2 0x10EA JUMP JUMPDEST PUSH1 0x40 MLOAD DUP1 SWAP2 SUB SWAP1 RETURN JUMPDEST CALLVALUE DUP1 ISZERO PUSH2 0x181 JUMPI PUSH1 0x0 DUP1 REVERT JUMPDEST POP PUSH2 0x19C PUSH1 0x4 DUP1 CALLDATASIZE SUB DUP2 ADD SWAP1 PUSH2 0x197 SWAP2 SWAP1 PUSH2 0x12B5 JUMP JUMPDEST PUSH2 0x5A4 JUMP JUMPDEST STOP JUMPDEST CALLVALUE DUP1 ISZERO PUSH2 0x1AA JUMPI PUSH1 0x0 DUP1 REVERT JUMPDEST POP PUSH2 0x1B3 PUSH2 0x6A7 JUMP JUMPDEST PUSH1 0x40 MLOAD PUSH2 0x1C0 SWAP2 SWAP1 PUSH2 0x1333 JUMP JUMPDEST PUSH1 0x40 MLOAD DUP1 SWAP2 SUB SWAP1 RETURN JUMPDEST CALLVALUE DUP1 ISZERO PUSH2 0x1D5 JUMPI PUSH1 0x0 DUP1 REVERT JUMPDEST POP PUSH2 0x1F0 PUSH1 0x4 DUP1 CALLDATASIZE SUB DUP2 ADD SWAP1 PUSH2 0x1EB SWAP2 SWAP1 PUSH2 0x134E JUMP JUMPDEST PUSH2 0x6CB JUMP JUMPDEST STOP JUMPDEST CALLVALUE DUP1 ISZERO PUSH2 0x1FE JUMPI PUSH1 0x0 DUP1 REVERT JUMPDEST POP PUSH2 0x207 PUSH2 0x871 JUMP JUMPDEST PUSH1 0x40 MLOAD PUSH2 0x214 SWAP2 SWAP1 PUSH2 0x10EA JUMP JUMPDEST PUSH1 0x40 MLOAD DUP1 SWAP2 SUB SWAP1 RETURN JUMPDEST CALLVALUE DUP1 ISZERO PUSH2 0x229 JUMPI PUSH1 0x0 DUP1 REVERT JUMPDEST POP PUSH2 0x244 PUSH1 0x4 DUP1 CALLDATASIZE SUB DUP2 ADD SWAP1 PUSH2 0x23F SWAP2 SWAP1 PUSH2 0x134E JUMP JUMPDEST PUSH2 0x877 JUMP JUMPDEST STOP JUMPDEST CALLVALUE DUP1 ISZERO PUSH2 0x252 JUMPI PUSH1 0x0 DUP1 REVERT JUMPDEST POP PUSH2 0x25B PUSH2 0xA11 JUMP JUMPDEST STOP JUMPDEST CALLVALUE DUP1 ISZERO PUSH2 0x269 JUMPI PUSH1 0x0 DUP1 REVERT JUMPDEST POP PUSH2 0x272 PUSH2 0xC08 JUMP JUMPDEST PUSH1 0x40 MLOAD PUSH2 0x27F SWAP2 SWAP1 PUSH2 0x10EA JUMP JUMPDEST PUSH1 0x40 MLOAD DUP1 SWAP2 SUB SWAP1 RETURN JUMPDEST CALLVALUE DUP1 ISZERO PUSH2 0x294 JUMPI PUSH1 0x0 DUP1 REVERT JUMPDEST POP PUSH2 0x2AF PUSH1 0x4 DUP1 CALLDATASIZE SUB DUP2 ADD SWAP1 PUSH2 0x2AA SWAP2 SWAP1 PUSH2 0x134E JUMP JUMPDEST PUSH2 0xC10 JUMP JUMPDEST PUSH1 0x40 MLOAD PUSH2 0x2C0 SWAP6 SWAP5 SWAP4 SWAP3 SWAP2 SWAP1 PUSH2 0x142D JUMP JUMPDEST PUSH1 0x40 MLOAD DUP1 SWAP2 SUB SWAP1 RETURN JUMPDEST CALLVALUE DUP1 ISZERO PUSH2 0x2D5 JUMPI PUSH1 0x0 DUP1 REVERT JUMPDEST POP PUSH2 0x2DE PUSH2 0xCFB JUMP JUMPDEST PUSH1 0x40 MLOAD PUSH2 0x2EB SWAP2 SWAP1 PUSH2 0x10EA JUMP JUMPDEST PUSH1 0x40 MLOAD DUP1 SWAP2 SUB SWAP1 RETURN JUMPDEST CALLVALUE DUP1 ISZERO PUSH2 0x300 JUMPI PUSH1 0x0 DUP1 REVERT JUMPDEST POP PUSH2 0x309 PUSH2 0xD01 JUMP JUMPDEST PUSH1 0x40 MLOAD PUSH2 0x316 SWAP2 SWAP1 PUSH2 0x10EA JUMP JUMPDEST PUSH1 0x40 MLOAD DUP1 SWAP2 SUB SWAP1 RETURN JUMPDEST CALLVALUE DUP1 ISZERO PUSH2 0x32B JUMPI PUSH1 0x0 DUP1 REVERT JUMPDEST POP PUSH2 0x334 PUSH2 0xD07 JUMP JUMPDEST PUSH1 0x40 MLOAD PUSH2 0x341 SWAP2 SWAP1 PUSH2 0x10EA JUMP JUMPDEST PUSH1 0x40 MLOAD DUP1 SWAP2 SUB SWAP1 RETURN JUMPDEST CALLVALUE DUP1 ISZERO PUSH2 0x356 JUMPI PUSH1 0x0 DUP1 REVERT JUMPDEST POP PUSH2 0x35F PUSH2 0xD0D JUMP JUMPDEST PUSH1 0x40 MLOAD PUSH2 0x36C SWAP2 SWAP1 PUSH2 0x10EA JUMP JUMPDEST PUSH1 0x40 MLOAD DUP1 SWAP2 SUB SWAP1 RETURN JUMPDEST CALLVALUE DUP1 ISZERO PUSH2 0x381 JUMPI PUSH1 0x0 DUP1 REVERT JUMPDEST POP PUSH2 0x38A PUSH2 0xD13 JUMP JUMPDEST STOP JUMPDEST CALLVALUE DUP1 ISZERO PUSH2 0x398 JUMPI PUSH1 0x0 DUP1 REVERT JUMPDEST POP PUSH2 0x3B3 PUSH1 0x4 DUP1 CALLDATASIZE SUB DUP2 ADD SWAP1 PUSH2 0x3AE SWAP2 SWAP1 PUSH2 0x134E JUMP JUMPDEST PUSH2 0xF50 JUMP JUMPDEST PUSH1 0x40 MLOAD PUSH2 0x3C0 SWAP2 SWAP1 PUSH2 0x1487 JUMP JUMPDEST PUSH1 0x40 MLOAD DUP1 SWAP2 SUB SWAP1 RETURN JUMPDEST PUSH1 0x2 SLOAD TIMESTAMP LT PUSH2 0x40D JUMPI PUSH1 0x40 MLOAD PUSH32 0x8C379A000000000000000000000000000000000000000000000000000000000 DUP2 MSTORE PUSH1 0x4 ADD PUSH2 0x404 SWAP1 PUSH2 0x14EE JUMP JUMPDEST PUSH1 0x40 MLOAD DUP1 SWAP2 SUB SWAP1 REVERT JUMPDEST PUSH1 0x1 SLOAD CALLVALUE LT ISZERO PUSH2 0x452 JUMPI PUSH1 0x40 MLOAD PUSH32 0x8C379A000000000000000000000000000000000000000000000000000000000 DUP2 MSTORE PUSH1 0x4 ADD PUSH2 0x449 SWAP1 PUSH2 0x155A JUMP JUMPDEST PUSH1 0x40 MLOAD DUP1 SWAP2 SUB SWAP1 REVERT JUMPDEST PUSH1 0x0 PUSH1 0x9 PUSH1 0x0 CALLER PUSH20 0xFFFFFFFFFFFFFFFFFFFFFFFFFFFFFFFFFFFFFFFF AND PUSH20 0xFFFFFFFFFFFFFFFFFFFFFFFFFFFFFFFFFFFFFFFF AND DUP2 MSTORE PUSH1 0x20 ADD SWAP1 DUP2 MSTORE PUSH1 0x20 ADD PUSH1 0x0 KECCAK256 SLOAD SUB PUSH2 0x515 JUMPI PUSH1 0x5 PUSH1 0x0 DUP2 SLOAD DUP1 SWAP3 SWAP2 SWAP1 PUSH2 0x4AC SWAP1 PUSH2 0x15A9 JUMP JUMPDEST SWAP2 SWAP1 POP SSTORE POP PUSH1 0x6 CALLER SWAP1 DUP1 PUSH1 0x1 DUP2 SLOAD ADD DUP1 DUP3 SSTORE DUP1 SWAP2 POP POP PUSH1 0x1 SWAP1 SUB SWAP1 PUSH1 0x0 MSTORE PUSH1 0x20 PUSH1 0x0 KECCAK256 ADD PUSH1 0x0 SWAP1 SWAP2 SWAP1 SWAP2 SWAP1 SWAP2 PUSH2 0x100 EXP DUP2 SLOAD DUP2 PUSH20 0xFFFFFFFFFFFFFFFFFFFFFFFFFFFFFFFFFFFFFFFF MUL NOT AND SWAP1 DUP4 PUSH20 0xFFFFFFFFFFFFFFFFFFFFFFFFFFFFFFFFFFFFFFFF AND MUL OR SWAP1 SSTORE POP JUMPDEST CALLVALUE PUSH1 0x9 PUSH1 0x0 CALLER PUSH20 0xFFFFFFFFFFFFFFFFFFFFFFFFFFFFFFFFFFFFFFFF AND PUSH20 0xFFFFFFFFFFFFFFFFFFFFFFFFFFFFFFFFFFFFFFFF AND DUP2 MSTORE PUSH1 0x20 ADD SWAP1 DUP2 MSTORE PUSH1 0x20 ADD PUSH1 0x0 KECCAK256 PUSH1 0x0 DUP3 DUP3 SLOAD PUSH2 0x564 SWAP2 SWAP1 PUSH2 0x15F1 JUMP JUMPDEST SWAP3 POP POP DUP2 SWAP1 SSTORE POP CALLVALUE PUSH1 0x4 PUSH1 0x0 DUP3 DUP3 SLOAD PUSH2 0x57D SWAP2 SWAP1 PUSH2 0x15F1 JUMP JUMPDEST SWAP3 POP POP DUP2 SWAP1 SSTORE POP JUMP JUMPDEST PUSH1 0x9 PUSH1 0x20 MSTORE DUP1 PUSH1 0x0 MSTORE PUSH1 0x40 PUSH1 0x0 KECCAK256 PUSH1 0x0 SWAP2 POP SWAP1 POP SLOAD DUP2 JUMP JUMPDEST PUSH1 0x2 SLOAD DUP2 JUMP JUMPDEST CALLER PUSH1 0x0 DUP1 PUSH2 0x100 EXP DUP2 SLOAD DUP2 PUSH20 0xFFFFFFFFFFFFFFFFFFFFFFFFFFFFFFFFFFFFFFFF MUL NOT AND SWAP1 DUP4 PUSH20 0xFFFFFFFFFFFFFFFFFFFFFFFFFFFFFFFFFFFFFFFF AND MUL OR SWAP1 SSTORE POP PUSH1 0x0 PUSH1 0x7 PUSH1 0x0 PUSH1 0x8 SLOAD DUP2 MSTORE PUSH1 0x20 ADD SWAP1 DUP2 MSTORE PUSH1 0x20 ADD PUSH1 0x0 KECCAK256 SWAP1 POP PUSH1 0x8 PUSH1 0x0 DUP2 SLOAD DUP1 SWAP3 SWAP2 SWAP1 PUSH2 0x610 SWAP1 PUSH2 0x15A9 JUMP JUMPDEST SWAP2 SWAP1 POP SSTORE POP DUP4 DUP2 PUSH1 0x0 ADD SWAP1 DUP1 MLOAD SWAP1 PUSH1 0x20 ADD SWAP1 PUSH2 0x62D SWAP3 SWAP2 SWAP1 PUSH2 0xF8F JUMP JUMPDEST POP DUP3 DUP2 PUSH1 0x1 ADD PUSH1 0x0 PUSH2 0x100 EXP DUP2 SLOAD DUP2 PUSH20 0xFFFFFFFFFFFFFFFFFFFFFFFFFFFFFFFFFFFFFFFF MUL NOT AND SWAP1 DUP4 PUSH20 0xFFFFFFFFFFFFFFFFFFFFFFFFFFFFFFFFFFFFFFFF AND MUL OR SWAP1 SSTORE POP DUP2 DUP2 PUSH1 0x2 ADD DUP2 SWAP1 SSTORE POP PUSH1 0x0 DUP2 PUSH1 0x3 ADD PUSH1 0x0 PUSH2 0x100 EXP DUP2 SLOAD DUP2 PUSH1 0xFF MUL NOT AND SWAP1 DUP4 ISZERO ISZERO MUL OR SWAP1 SSTORE POP PUSH1 0x0 DUP2 PUSH1 0x4 ADD DUP2 SWAP1 SSTORE POP POP POP POP POP JUMP JUMPDEST PUSH1 0x0 DUP1 SLOAD SWAP1 PUSH2 0x100 EXP SWAP1 DIV PUSH20 0xFFFFFFFFFFFFFFFFFFFFFFFFFFFFFFFFFFFFFFFF AND DUP2 JUMP JUMPDEST PUSH1 0x0 PUSH1 0x9 PUSH1 0x0 CALLER PUSH20 0xFFFFFFFFFFFFFFFFFFFFFFFFFFFFFFFFFFFFFFFF AND PUSH20 0xFFFFFFFFFFFFFFFFFFFFFFFFFFFFFFFFFFFFFFFF AND DUP2 MSTORE PUSH1 0x20 ADD SWAP1 DUP2 MSTORE PUSH1 0x20 ADD PUSH1 0x0 KECCAK256 SLOAD GT PUSH2 0x74D JUMPI PUSH1 0x40 MLOAD PUSH32 0x8C379A000000000000000000000000000000000000000000000000000000000 DUP2 MSTORE PUSH1 0x4 ADD PUSH2 0x744 SWAP1 PUSH2 0x1693 JUMP JUMPDEST PUSH1 0x40 MLOAD DUP1 SWAP2 SUB SWAP1 REVERT JUMPDEST PUSH1 0x0 PUSH1 0x7 PUSH1 0x0 DUP4 DUP2 MSTORE PUSH1 0x20 ADD SWAP1 DUP2 MSTORE PUSH1 0x20 ADD PUSH1 0x0 KECCAK256 SWAP1 POP PUSH1 0x0 ISZERO ISZERO DUP2 PUSH1 0x5 ADD PUSH1 0x0 CALLER PUSH20 0xFFFFFFFFFFFFFFFFFFFFFFFFFFFFFFFFFFFFFFFF AND PUSH20 0xFFFFFFFFFFFFFFFFFFFFFFFFFFFFFFFFFFFFFFFF AND DUP2 MSTORE PUSH1 0x20 ADD SWAP1 DUP2 MSTORE PUSH1 0x20 ADD PUSH1 0x0 KECCAK256 PUSH1 0x0 SWAP1 SLOAD SWAP1 PUSH2 0x100 EXP SWAP1 DIV PUSH1 0xFF AND ISZERO ISZERO EQ PUSH2 0x7F9 JUMPI PUSH1 0x40 MLOAD PUSH32 0x8C379A000000000000000000000000000000000000000000000000000000000 DUP2 MSTORE PUSH1 0x4 ADD PUSH2 0x7F0 SWAP1 PUSH2 0x16FF JUMP JUMPDEST PUSH1 0x40 MLOAD DUP1 SWAP2 SUB SWAP1 REVERT JUMPDEST PUSH1 0x1 DUP2 PUSH1 0x5 ADD PUSH1 0x0 CALLER PUSH20 0xFFFFFFFFFFFFFFFFFFFFFFFFFFFFFFFFFFFFFFFF AND PUSH20 0xFFFFFFFFFFFFFFFFFFFFFFFFFFFFFFFFFFFFFFFF AND DUP2 MSTORE PUSH1 0x20 ADD SWAP1 DUP2 MSTORE PUSH1 0x20 ADD PUSH1 0x0 KECCAK256 PUSH1 0x0 PUSH2 0x100 EXP DUP2 SLOAD DUP2 PUSH1 0xFF MUL NOT AND SWAP1 DUP4 ISZERO ISZERO MUL OR SWAP1 SSTORE POP DUP1 PUSH1 0x4 ADD PUSH1 0x0 DUP2 SLOAD DUP1 SWAP3 SWAP2 SWAP1 PUSH2 0x868 SWAP1 PUSH2 0x15A9 JUMP JUMPDEST SWAP2 SWAP1 POP SSTORE POP POP POP JUMP JUMPDEST PUSH1 0x5 SLOAD DUP2 JUMP JUMPDEST PUSH1 0x3 SLOAD PUSH1 0x4 SLOAD LT ISZERO PUSH2 0x8BE JUMPI PUSH1 0x40 MLOAD PUSH32 0x8C379A000000000000000000000000000000000000000000000000000000000 DUP2 MSTORE PUSH1 0x4 ADD PUSH2 0x8B5 SWAP1 PUSH2 0x1791 JUMP JUMPDEST PUSH1 0x40 MLOAD DUP1 SWAP2 SUB SWAP1 REVERT JUMPDEST PUSH1 0x0 PUSH1 0x7 PUSH1 0x0 DUP4 DUP2 MSTORE PUSH1 0x20 ADD SWAP1 DUP2 MSTORE PUSH1 0x20 ADD PUSH1 0x0 KECCAK256 SWAP1 POP PUSH1 0x2 PUSH1 0x5 SLOAD PUSH2 0x8E4 SWAP2 SWAP1 PUSH2 0x17E0 JUMP JUMPDEST DUP2 PUSH1 0x4 ADD SLOAD GT PUSH2 0x929 JUMPI PUSH1 0x40 MLOAD PUSH32 0x8C379A000000000000000000000000000000000000000000000000000000000 DUP2 MSTORE PUSH1 0x4 ADD PUSH2 0x920 SWAP1 PUSH2 0x185D JUMP JUMPDEST PUSH1 0x40 MLOAD DUP1 SWAP2 SUB SWAP1 REVERT JUMPDEST PUSH1 0x0 ISZERO ISZERO DUP2 PUSH1 0x3 ADD PUSH1 0x0 SWAP1 SLOAD SWAP1 PUSH2 0x100 EXP SWAP1 DIV PUSH1 0xFF AND ISZERO ISZERO EQ PUSH2 0x981 JUMPI PUSH1 0x40 MLOAD PUSH32 0x8C379A000000000000000000000000000000000000000000000000000000000 DUP2 MSTORE PUSH1 0x4 ADD PUSH2 0x978 SWAP1 PUSH2 0x18C9 JUMP JUMPDEST PUSH1 0x40 MLOAD DUP1 SWAP2 SUB SWAP1 REVERT JUMPDEST DUP1 PUSH1 0x1 ADD PUSH1 0x0 SWAP1 SLOAD SWAP1 PUSH2 0x100 EXP SWAP1 DIV PUSH20 0xFFFFFFFFFFFFFFFFFFFFFFFFFFFFFFFFFFFFFFFF AND PUSH20 0xFFFFFFFFFFFFFFFFFFFFFFFFFFFFFFFFFFFFFFFF AND PUSH2 0x8FC DUP3 PUSH1 0x2 ADD SLOAD SWAP1 DUP2 ISZERO MUL SWAP1 PUSH1 0x40 MLOAD PUSH1 0x0 PUSH1 0x40 MLOAD DUP1 DUP4 SUB DUP2 DUP6 DUP9 DUP9 CALL SWAP4 POP POP POP POP ISZERO DUP1 ISZERO PUSH2 0x9EF JUMPI RETURNDATASIZE PUSH1 0x0 DUP1 RETURNDATACOPY RETURNDATASIZE PUSH1 0x0 REVERT JUMPDEST POP PUSH1 0x1 DUP2 PUSH1 0x3 ADD PUSH1 0x0 PUSH2 0x100 EXP DUP2 SLOAD DUP2 PUSH1 0xFF MUL NOT AND SWAP1 DUP4 ISZERO ISZERO MUL OR SWAP1 SSTORE POP POP POP JUMP JUMPDEST PUSH1 0x2 SLOAD TIMESTAMP GT PUSH2 0xA55 JUMPI PUSH1 0x40 MLOAD PUSH32 0x8C379A000000000000000000000000000000000000000000000000000000000 DUP2 MSTORE PUSH1 0x4 ADD PUSH2 0xA4C SWAP1 PUSH2 0x1935 JUMP JUMPDEST PUSH1 0x40 MLOAD DUP1 SWAP2 SUB SWAP1 REVERT JUMPDEST PUSH1 0x0 PUSH1 0x9 PUSH1 0x0 CALLER PUSH20 0xFFFFFFFFFFFFFFFFFFFFFFFFFFFFFFFFFFFFFFFF AND PUSH20 0xFFFFFFFFFFFFFFFFFFFFFFFFFFFFFFFFFFFFFFFF AND DUP2 MSTORE PUSH1 0x20 ADD SWAP1 DUP2 MSTORE PUSH1 0x20 ADD PUSH1 0x0 KECCAK256 SLOAD GT PUSH2 0xAD7 JUMPI PUSH1 0x40 MLOAD PUSH32 0x8C379A000000000000000000000000000000000000000000000000000000000 DUP2 MSTORE PUSH1 0x4 ADD PUSH2 0xACE SWAP1 PUSH2 0x19A1 JUMP JUMPDEST PUSH1 0x40 MLOAD DUP1 SWAP2 SUB SWAP1 REVERT JUMPDEST PUSH1 0x4 SLOAD PUSH1 0x3 SLOAD LT PUSH2 0xB1D JUMPI PUSH1 0x40 MLOAD PUSH32 0x8C379A000000000000000000000000000000000000000000000000000000000 DUP2 MSTORE PUSH1 0x4 ADD PUSH2 0xB14 SWAP1 PUSH2 0x1A0D JUMP JUMPDEST PUSH1 0x40 MLOAD DUP1 SWAP2 SUB SWAP1 REVERT JUMPDEST PUSH1 0x0 CALLER SWAP1 POP DUP1 PUSH20 0xFFFFFFFFFFFFFFFFFFFFFFFFFFFFFFFFFFFFFFFF AND PUSH2 0x8FC PUSH1 0x9 PUSH1 0x0 DUP5 PUSH20 0xFFFFFFFFFFFFFFFFFFFFFFFFFFFFFFFFFFFFFFFF AND PUSH20 0xFFFFFFFFFFFFFFFFFFFFFFFFFFFFFFFFFFFFFFFF AND DUP2 MSTORE PUSH1 0x20 ADD SWAP1 DUP2 MSTORE PUSH1 0x20 ADD PUSH1 0x0 KECCAK256 SLOAD SWAP1 DUP2 ISZERO MUL SWAP1 PUSH1 0x40 MLOAD PUSH1 0x0 PUSH1 0x40 MLOAD DUP1 DUP4 SUB DUP2 DUP6 DUP9 DUP9 CALL SWAP4 POP POP POP POP ISZERO DUP1 ISZERO PUSH2 0xBA7 JUMPI RETURNDATASIZE PUSH1 0x0 DUP1 RETURNDATACOPY RETURNDATASIZE PUSH1 0x0 REVERT JUMPDEST POP PUSH1 0x0 PUSH1 0x9 PUSH1 0x0 DUP4 PUSH20 0xFFFFFFFFFFFFFFFFFFFFFFFFFFFFFFFFFFFFFFFF AND PUSH20 0xFFFFFFFFFFFFFFFFFFFFFFFFFFFFFFFFFFFFFFFF AND DUP2 MSTORE PUSH1 0x20 ADD SWAP1 DUP2 MSTORE PUSH1 0x20 ADD PUSH1 0x0 KECCAK256 DUP2 SWAP1 SSTORE POP PUSH1 0x5 PUSH1 0x0 DUP2 SLOAD DUP1 SWAP3 SWAP2 SWAP1 PUSH2 0xC00 SWAP1 PUSH2 0x1A2D JUMP JUMPDEST SWAP2 SWAP1 POP SSTORE POP POP JUMP JUMPDEST PUSH1 0x0 SELFBALANCE SWAP1 POP SWAP1 JUMP JUMPDEST PUSH1 0x7 PUSH1 0x20 MSTORE DUP1 PUSH1 0x0 MSTORE PUSH1 0x40 PUSH1 0x0 KECCAK256 PUSH1 0x0 SWAP2 POP SWAP1 POP DUP1 PUSH1 0x0 ADD DUP1 SLOAD PUSH2 0xC33 SWAP1 PUSH2 0x1A85 JUMP JUMPDEST DUP1 PUSH1 0x1F ADD PUSH1 0x20 DUP1 SWAP2 DIV MUL PUSH1 0x20 ADD PUSH1 0x40 MLOAD SWAP1 DUP2 ADD PUSH1 0x40 MSTORE DUP1 SWAP3 SWAP2 SWAP1 DUP2 DUP2 MSTORE PUSH1 0x20 ADD DUP3 DUP1 SLOAD PUSH2 0xC5F SWAP1 PUSH2 0x1A85 JUMP JUMPDEST DUP1 ISZERO PUSH2 0xCAC JUMPI DUP1 PUSH1 0x1F LT PUSH2 0xC81 JUMPI PUSH2 0x100 DUP1 DUP4 SLOAD DIV MUL DUP4 MSTORE SWAP2 PUSH1 0x20 ADD SWAP2 PUSH2 0xCAC JUMP JUMPDEST DUP3 ADD SWAP2 SWAP1 PUSH1 0x0 MSTORE PUSH1 0x20 PUSH1 0x0 KECCAK256 SWAP1 JUMPDEST DUP2 SLOAD DUP2 MSTORE SWAP1 PUSH1 0x1 ADD SWAP1 PUSH1 0x20 ADD DUP1 DUP4 GT PUSH2 0xC8F JUMPI DUP3 SWAP1 SUB PUSH1 0x1F AND DUP3 ADD SWAP2 JUMPDEST POP POP POP POP POP SWAP1 DUP1 PUSH1 0x1 ADD PUSH1 0x0 SWAP1 SLOAD SWAP1 PUSH2 0x100 EXP SWAP1 DIV PUSH20 0xFFFFFFFFFFFFFFFFFFFFFFFFFFFFFFFFFFFFFFFF AND SWAP1 DUP1 PUSH1 0x2 ADD SLOAD SWAP1 DUP1 PUSH1 0x3 ADD PUSH1 0x0 SWAP1 SLOAD SWAP1 PUSH2 0x100 EXP SWAP1 DIV PUSH1 0xFF AND SWAP1 DUP1 PUSH1 0x4 ADD SLOAD SWAP1 POP DUP6 JUMP JUMPDEST PUSH1 0x1 SLOAD DUP2 JUMP JUMPDEST PUSH1 0x8 SLOAD DUP2 JUMP JUMPDEST PUSH1 0x4 SLOAD DUP2 JUMP JUMPDEST PUSH1 0x3 SLOAD DUP2 JUMP JUMPDEST CALLER PUSH20 0xFFFFFFFFFFFFFFFFFFFFFFFFFFFFFFFFFFFFFFFF AND PUSH1 0x0 DUP1 SLOAD SWAP1 PUSH2 0x100 EXP SWAP1 DIV PUSH20 0xFFFFFFFFFFFFFFFFFFFFFFFFFFFFFFFFFFFFFFFF AND PUSH20 0xFFFFFFFFFFFFFFFFFFFFFFFFFFFFFFFFFFFFFFFF AND EQ PUSH2 0xDA1 JUMPI PUSH1 0x40 MLOAD PUSH32 0x8C379A000000000000000000000000000000000000000000000000000000000 DUP2 MSTORE PUSH1 0x4 ADD PUSH2 0xD98 SWAP1 PUSH2 0x1B02 JUMP JUMPDEST PUSH1 0x40 MLOAD DUP1 SWAP2 SUB SWAP1 REVERT JUMPDEST PUSH1 0x2 SLOAD TIMESTAMP GT PUSH2 0xDE5 JUMPI PUSH1 0x40 MLOAD PUSH32 0x8C379A000000000000000000000000000000000000000000000000000000000 DUP2 MSTORE PUSH1 0x4 ADD PUSH2 0xDDC SWAP1 PUSH2 0x1B6E JUMP JUMPDEST PUSH1 0x40 MLOAD DUP1 SWAP2 SUB SWAP1 REVERT JUMPDEST PUSH1 0x4 SLOAD PUSH1 0x3 SLOAD LT PUSH2 0xE2B JUMPI PUSH1 0x40 MLOAD PUSH32 0x8C379A000000000000000000000000000000000000000000000000000000000 DUP2 MSTORE PUSH1 0x4 ADD PUSH2 0xE22 SWAP1 PUSH2 0x1A0D JUMP JUMPDEST PUSH1 0x40 MLOAD DUP1 SWAP2 SUB SWAP1 REVERT JUMPDEST PUSH1 0x0 JUMPDEST PUSH1 0x5 SLOAD DUP2 LT ISZERO PUSH2 0xF4D JUMPI PUSH1 0x6 DUP2 DUP2 SLOAD DUP2 LT PUSH2 0xE4C JUMPI PUSH2 0xE4B PUSH2 0x1B8E JUMP JUMPDEST JUMPDEST SWAP1 PUSH1 0x0 MSTORE PUSH1 0x20 PUSH1 0x0 KECCAK256 ADD PUSH1 0x0 SWAP1 SLOAD SWAP1 PUSH2 0x100 EXP SWAP1 DIV PUSH20 0xFFFFFFFFFFFFFFFFFFFFFFFFFFFFFFFFFFFFFFFF AND PUSH20 0xFFFFFFFFFFFFFFFFFFFFFFFFFFFFFFFFFFFFFFFF AND PUSH2 0x8FC PUSH1 0x9 PUSH1 0x0 PUSH1 0x6 DUP6 DUP2 SLOAD DUP2 LT PUSH2 0xEA8 JUMPI PUSH2 0xEA7 PUSH2 0x1B8E JUMP JUMPDEST JUMPDEST SWAP1 PUSH1 0x0 MSTORE PUSH1 0x20 PUSH1 0x0 KECCAK256 ADD PUSH1 0x0 SWAP1 SLOAD SWAP1 PUSH2 0x100 EXP SWAP1 DIV PUSH20 0xFFFFFFFFFFFFFFFFFFFFFFFFFFFFFFFFFFFFFFFF AND PUSH20 0xFFFFFFFFFFFFFFFFFFFFFFFFFFFFFFFFFFFFFFFF AND PUSH20 0xFFFFFFFFFFFFFFFFFFFFFFFFFFFFFFFFFFFFFFFF AND DUP2 MSTORE PUSH1 0x20 ADD SWAP1 DUP2 MSTORE PUSH1 0x20 ADD PUSH1 0x0 KECCAK256 SLOAD SWAP1 DUP2 ISZERO MUL SWAP1 PUSH1 0x40 MLOAD PUSH1 0x0 PUSH1 0x40 MLOAD DUP1 DUP4 SUB DUP2 DUP6 DUP9 DUP9 CALL SWAP4 POP POP POP POP ISZERO DUP1 ISZERO PUSH2 0xF39 JUMPI RETURNDATASIZE PUSH1 0x0 DUP1 RETURNDATACOPY RETURNDATASIZE PUSH1 0x0 REVERT JUMPDEST POP DUP1 DUP1 PUSH2 0xF45 SWAP1 PUSH2 0x15A9 JUMP JUMPDEST SWAP2 POP POP PUSH2 0xE2E JUMP JUMPDEST POP JUMP JUMPDEST PUSH1 0x6 DUP2 DUP2 SLOAD DUP2 LT PUSH2 0xF60 JUMPI PUSH1 0x0 DUP1 REVERT JUMPDEST SWAP1 PUSH1 0x0 MSTORE PUSH1 0x20 PUSH1 0x0 KECCAK256 ADD PUSH1 0x0 SWAP2 POP SLOAD SWAP1 PUSH2 0x100 EXP SWAP1 DIV PUSH20 0xFFFFFFFFFFFFFFFFFFFFFFFFFFFFFFFFFFFFFFFF AND DUP2 JUMP JUMPDEST DUP3 DUP1 SLOAD PUSH2 0xF9B SWAP1 PUSH2 0x1A85 JUMP JUMPDEST SWAP1 PUSH1 0x0 MSTORE PUSH1 0x20 PUSH1 0x0 KECCAK256 SWAP1 PUSH1 0x1F ADD PUSH1 0x20 SWAP1 DIV DUP2 ADD SWAP3 DUP3 PUSH2 0xFBD JUMPI PUSH1 0x0 DUP6 SSTORE PUSH2 0x1004 JUMP JUMPDEST DUP3 PUSH1 0x1F LT PUSH2 0xFD6 JUMPI DUP1 MLOAD PUSH1 0xFF NOT AND DUP4 DUP1 ADD OR DUP6 SSTORE PUSH2 0x1004 JUMP JUMPDEST DUP3 DUP1 ADD PUSH1 0x1 ADD DUP6 SSTORE DUP3 ISZERO PUSH2 0x1004 JUMPI SWAP2 DUP3 ADD JUMPDEST DUP3 DUP2 GT ISZERO PUSH2 0x1003 JUMPI DUP3 MLOAD DUP3 SSTORE SWAP2 PUSH1 0x20 ADD SWAP2 SWAP1 PUSH1 0x1 ADD SWAP1 PUSH2 0xFE8 JUMP JUMPDEST JUMPDEST POP SWAP1 POP PUSH2 0x1011 SWAP2 SWAP1 PUSH2 0x1015 JUMP JUMPDEST POP SWAP1 JUMP JUMPDEST JUMPDEST DUP1 DUP3 GT ISZERO PUSH2 0x102E JUMPI PUSH1 0x0 DUP2 PUSH1 0x0 SWAP1 SSTORE POP PUSH1 0x1 ADD PUSH2 0x1016 JUMP JUMPDEST POP SWAP1 JUMP JUMPDEST PUSH1 0x0 PUSH1 0x40 MLOAD SWAP1 POP SWAP1 JUMP JUMPDEST PUSH1 0x0 DUP1 REVERT JUMPDEST PUSH1 0x0 DUP1 REVERT JUMPDEST PUSH1 0x0 PUSH20 0xFFFFFFFFFFFFFFFFFFFFFFFFFFFFFFFFFFFFFFFF DUP3 AND SWAP1 POP SWAP2 SWAP1 POP JUMP JUMPDEST PUSH1 0x0 PUSH2 0x1071 DUP3 PUSH2 0x1046 JUMP JUMPDEST SWAP1 POP SWAP2 SWAP1 POP JUMP JUMPDEST PUSH2 0x1081 DUP2 PUSH2 0x1066 JUMP JUMPDEST DUP2 EQ PUSH2 0x108C JUMPI PUSH1 0x0 DUP1 REVERT JUMPDEST POP JUMP JUMPDEST PUSH1 0x0 DUP2 CALLDATALOAD SWAP1 POP PUSH2 0x109E DUP2 PUSH2 0x1078 JUMP JUMPDEST SWAP3 SWAP2 POP POP JUMP JUMPDEST PUSH1 0x0 PUSH1 0x20 DUP3 DUP5 SUB SLT ISZERO PUSH2 0x10BA JUMPI PUSH2 0x10B9 PUSH2 0x103C JUMP JUMPDEST JUMPDEST PUSH1 0x0 PUSH2 0x10C8 DUP5 DUP3 DUP6 ADD PUSH2 0x108F JUMP JUMPDEST SWAP2 POP POP SWAP3 SWAP2 POP POP JUMP JUMPDEST PUSH1 0x0 DUP2 SWAP1 POP SWAP2 SWAP1 POP JUMP JUMPDEST PUSH2 0x10E4 DUP2 PUSH2 0x10D1 JUMP JUMPDEST DUP3 MSTORE POP POP JUMP JUMPDEST PUSH1 0x0 PUSH1 0x20 DUP3 ADD SWAP1 POP PUSH2 0x10FF PUSH1 0x0 DUP4 ADD DUP5 PUSH2 0x10DB JUMP JUMPDEST SWAP3 SWAP2 POP POP JUMP JUMPDEST PUSH1 0x0 DUP1 REVERT JUMPDEST PUSH1 0x0 DUP1 REVERT JUMPDEST PUSH1 0x0 PUSH1 0x1F NOT PUSH1 0x1F DUP4 ADD AND SWAP1 POP SWAP2 SWAP1 POP JUMP JUMPDEST PUSH32 0x4E487B7100000000000000000000000000000000000000000000000000000000 PUSH1 0x0 MSTORE PUSH1 0x41 PUSH1 0x4 MSTORE PUSH1 0x24 PUSH1 0x0 REVERT JUMPDEST PUSH2 0x1158 DUP3 PUSH2 0x110F JUMP JUMPDEST DUP2 ADD DUP2 DUP2 LT PUSH8 0xFFFFFFFFFFFFFFFF DUP3 GT OR ISZERO PUSH2 0x1177 JUMPI PUSH2 0x1176 PUSH2 0x1120 JUMP JUMPDEST JUMPDEST DUP1 PUSH1 0x40 MSTORE POP POP POP JUMP JUMPDEST PUSH1 0x0 PUSH2 0x118A PUSH2 0x1032 JUMP JUMPDEST SWAP1 POP PUSH2 0x1196 DUP3 DUP3 PUSH2 0x114F JUMP JUMPDEST SWAP2 SWAP1 POP JUMP JUMPDEST PUSH1 0x0 PUSH8 0xFFFFFFFFFFFFFFFF DUP3 GT ISZERO PUSH2 0x11B6 JUMPI PUSH2 0x11B5 PUSH2 0x1120 JUMP JUMPDEST JUMPDEST PUSH2 0x11BF DUP3 PUSH2 0x110F JUMP JUMPDEST SWAP1 POP PUSH1 0x20 DUP2 ADD SWAP1 POP SWAP2 SWAP1 POP JUMP JUMPDEST DUP3 DUP2 DUP4 CALLDATACOPY PUSH1 0x0 DUP4 DUP4 ADD MSTORE POP POP POP JUMP JUMPDEST PUSH1 0x0 PUSH2 0x11EE PUSH2 0x11E9 DUP5 PUSH2 0x119B JUMP JUMPDEST PUSH2 0x1180 JUMP JUMPDEST SWAP1 POP DUP3 DUP2 MSTORE PUSH1 0x20 DUP2 ADD DUP5 DUP5 DUP5 ADD GT ISZERO PUSH2 0x120A JUMPI PUSH2 0x1209 PUSH2 0x110A JUMP JUMPDEST JUMPDEST PUSH2 0x1215 DUP5 DUP3 DUP6 PUSH2 0x11CC JUMP JUMPDEST POP SWAP4 SWAP3 POP POP POP JUMP JUMPDEST PUSH1 0x0 DUP3 PUSH1 0x1F DUP4 ADD SLT PUSH2 0x1232 JUMPI PUSH2 0x1231 PUSH2 0x1105 JUMP JUMPDEST JUMPDEST DUP2 CALLDATALOAD PUSH2 0x1242 DUP5 DUP3 PUSH1 0x20 DUP7 ADD PUSH2 0x11DB JUMP JUMPDEST SWAP2 POP POP SWAP3 SWAP2 POP POP JUMP JUMPDEST PUSH1 0x0 PUSH2 0x1256 DUP3 PUSH2 0x1046 JUMP JUMPDEST SWAP1 POP SWAP2 SWAP1 POP JUMP JUMPDEST PUSH2 0x1266 DUP2 PUSH2 0x124B JUMP JUMPDEST DUP2 EQ PUSH2 0x1271 JUMPI PUSH1 0x0 DUP1 REVERT JUMPDEST POP JUMP JUMPDEST PUSH1 0x0 DUP2 CALLDATALOAD SWAP1 POP PUSH2 0x1283 DUP2 PUSH2 0x125D JUMP JUMPDEST SWAP3 SWAP2 POP POP JUMP JUMPDEST PUSH2 0x1292 DUP2 PUSH2 0x10D1 JUMP JUMPDEST DUP2 EQ PUSH2 0x129D JUMPI PUSH1 0x0 DUP1 REVERT JUMPDEST POP JUMP JUMPDEST PUSH1 0x0 DUP2 CALLDATALOAD SWAP1 POP PUSH2 0x12AF DUP2 PUSH2 0x1289 JUMP JUMPDEST SWAP3 SWAP2 POP POP JUMP JUMPDEST PUSH1 0x0 DUP1 PUSH1 0x0 PUSH1 0x60 DUP5 DUP7 SUB SLT ISZERO PUSH2 0x12CE JUMPI PUSH2 0x12CD PUSH2 0x103C JUMP JUMPDEST JUMPDEST PUSH1 0x0 DUP5 ADD CALLDATALOAD PUSH8 0xFFFFFFFFFFFFFFFF DUP2 GT ISZERO PUSH2 0x12EC JUMPI PUSH2 0x12EB PUSH2 0x1041 JUMP JUMPDEST JUMPDEST PUSH2 0x12F8 DUP7 DUP3 DUP8 ADD PUSH2 0x121D JUMP JUMPDEST SWAP4 POP POP PUSH1 0x20 PUSH2 0x1309 DUP7 DUP3 DUP8 ADD PUSH2 0x1274 JUMP JUMPDEST SWAP3 POP POP PUSH1 0x40 PUSH2 0x131A DUP7 DUP3 DUP8 ADD PUSH2 0x12A0 JUMP JUMPDEST SWAP2 POP POP SWAP3 POP SWAP3 POP SWAP3 JUMP JUMPDEST PUSH2 0x132D DUP2 PUSH2 0x1066 JUMP JUMPDEST DUP3 MSTORE POP POP JUMP JUMPDEST PUSH1 0x0 PUSH1 0x20 DUP3 ADD SWAP1 POP PUSH2 0x1348 PUSH1 0x0 DUP4 ADD DUP5 PUSH2 0x1324 JUMP JUMPDEST SWAP3 SWAP2 POP POP JUMP JUMPDEST PUSH1 0x0 PUSH1 0x20 DUP3 DUP5 SUB SLT ISZERO PUSH2 0x1364 JUMPI PUSH2 0x1363 PUSH2 0x103C JUMP JUMPDEST JUMPDEST PUSH1 0x0 PUSH2 0x1372 DUP5 DUP3 DUP6 ADD PUSH2 0x12A0 JUMP JUMPDEST SWAP2 POP POP SWAP3 SWAP2 POP POP JUMP JUMPDEST PUSH1 0x0 DUP2 MLOAD SWAP1 POP SWAP2 SWAP1 POP JUMP JUMPDEST PUSH1 0x0 DUP3 DUP3 MSTORE PUSH1 0x20 DUP3 ADD SWAP1 POP SWAP3 SWAP2 POP POP JUMP JUMPDEST PUSH1 0x0 JUMPDEST DUP4 DUP2 LT ISZERO PUSH2 0x13B5 JUMPI DUP1 DUP3 ADD MLOAD DUP2 DUP5 ADD MSTORE PUSH1 0x20 DUP2 ADD SWAP1 POP PUSH2 0x139A JUMP JUMPDEST DUP4 DUP2 GT ISZERO PUSH2 0x13C4 JUMPI PUSH1 0x0 DUP5 DUP5 ADD MSTORE JUMPDEST POP POP POP POP JUMP JUMPDEST PUSH1 0x0 PUSH2 0x13D5 DUP3 PUSH2 0x137B JUMP JUMPDEST PUSH2 0x13DF DUP2 DUP6 PUSH2 0x1386 JUMP JUMPDEST SWAP4 POP PUSH2 0x13EF DUP2 DUP6 PUSH1 0x20 DUP7 ADD PUSH2 0x1397 JUMP JUMPDEST PUSH2 0x13F8 DUP2 PUSH2 0x110F JUMP JUMPDEST DUP5 ADD SWAP2 POP POP SWAP3 SWAP2 POP POP JUMP JUMPDEST PUSH2 0x140C DUP2 PUSH2 0x124B JUMP JUMPDEST DUP3 MSTORE POP POP JUMP JUMPDEST PUSH1 0x0 DUP2 ISZERO ISZERO SWAP1 POP SWAP2 SWAP1 POP JUMP JUMPDEST PUSH2 0x1427 DUP2 PUSH2 0x1412 JUMP JUMPDEST DUP3 MSTORE POP POP JUMP JUMPDEST PUSH1 0x0 PUSH1 0xA0 DUP3 ADD SWAP1 POP DUP2 DUP2 SUB PUSH1 0x0 DUP4 ADD MSTORE PUSH2 0x1447 DUP2 DUP9 PUSH2 0x13CA JUMP JUMPDEST SWAP1 POP PUSH2 0x1456 PUSH1 0x20 DUP4 ADD DUP8 PUSH2 0x1403 JUMP JUMPDEST PUSH2 0x1463 PUSH1 0x40 DUP4 ADD DUP7 PUSH2 0x10DB JUMP JUMPDEST PUSH2 0x1470 PUSH1 0x60 DUP4 ADD DUP6 PUSH2 0x141E JUMP JUMPDEST PUSH2 0x147D PUSH1 0x80 DUP4 ADD DUP5 PUSH2 0x10DB JUMP JUMPDEST SWAP7 SWAP6 POP POP POP POP POP POP JUMP JUMPDEST PUSH1 0x0 PUSH1 0x20 DUP3 ADD SWAP1 POP PUSH2 0x149C PUSH1 0x0 DUP4 ADD DUP5 PUSH2 0x1403 JUMP JUMPDEST SWAP3 SWAP2 POP POP JUMP JUMPDEST PUSH32 0x446561646C696E65206861732070617373656400000000000000000000000000 PUSH1 0x0 DUP3 ADD MSTORE POP JUMP JUMPDEST PUSH1 0x0 PUSH2 0x14D8 PUSH1 0x13 DUP4 PUSH2 0x1386 JUMP JUMPDEST SWAP2 POP PUSH2 0x14E3 DUP3 PUSH2 0x14A2 JUMP JUMPDEST PUSH1 0x20 DUP3 ADD SWAP1 POP SWAP2 SWAP1 POP JUMP JUMPDEST PUSH1 0x0 PUSH1 0x20 DUP3 ADD SWAP1 POP DUP2 DUP2 SUB PUSH1 0x0 DUP4 ADD MSTORE PUSH2 0x1507 DUP2 PUSH2 0x14CB JUMP JUMPDEST SWAP1 POP SWAP2 SWAP1 POP JUMP JUMPDEST PUSH32 0x4D696E696D756D20636F6E747269627574696F6E20686173206E6F74206D6574 PUSH1 0x0 DUP3 ADD MSTORE POP JUMP JUMPDEST PUSH1 0x0 PUSH2 0x1544 PUSH1 0x20 DUP4 PUSH2 0x1386 JUMP JUMPDEST SWAP2 POP PUSH2 0x154F DUP3 PUSH2 0x150E JUMP JUMPDEST PUSH1 0x20 DUP3 ADD SWAP1 POP SWAP2 SWAP1 POP JUMP JUMPDEST PUSH1 0x0 PUSH1 0x20 DUP3 ADD SWAP1 POP DUP2 DUP2 SUB PUSH1 0x0 DUP4 ADD MSTORE PUSH2 0x1573 DUP2 PUSH2 0x1537 JUMP JUMPDEST SWAP1 POP SWAP2 SWAP1 POP JUMP JUMPDEST PUSH32 0x4E487B7100000000000000000000000000000000000000000000000000000000 PUSH1 0x0 MSTORE PUSH1 0x11 PUSH1 0x4 MSTORE PUSH1 0x24 PUSH1 0x0 REVERT JUMPDEST PUSH1 0x0 PUSH2 0x15B4 DUP3 PUSH2 0x10D1 JUMP JUMPDEST SWAP2 POP PUSH32 0xFFFFFFFFFFFFFFFFFFFFFFFFFFFFFFFFFFFFFFFFFFFFFFFFFFFFFFFFFFFFFFFF DUP3 SUB PUSH2 0x15E6 JUMPI PUSH2 0x15E5 PUSH2 0x157A JUMP JUMPDEST JUMPDEST PUSH1 0x1 DUP3 ADD SWAP1 POP SWAP2 SWAP1 POP JUMP JUMPDEST PUSH1 0x0 PUSH2 0x15FC DUP3 PUSH2 0x10D1 JUMP JUMPDEST SWAP2 POP PUSH2 0x1607 DUP4 PUSH2 0x10D1 JUMP JUMPDEST SWAP3 POP DUP3 PUSH32 0xFFFFFFFFFFFFFFFFFFFFFFFFFFFFFFFFFFFFFFFFFFFFFFFFFFFFFFFFFFFFFFFF SUB DUP3 GT ISZERO PUSH2 0x163C JUMPI PUSH2 0x163B PUSH2 0x157A JUMP JUMPDEST JUMPDEST DUP3 DUP3 ADD SWAP1 POP SWAP3 SWAP2 POP POP JUMP JUMPDEST PUSH32 0x596F7520617265206E6F74206120636F6E7472696275746F722E000000000000 PUSH1 0x0 DUP3 ADD MSTORE POP JUMP JUMPDEST PUSH1 0x0 PUSH2 0x167D PUSH1 0x1A DUP4 PUSH2 0x1386 JUMP JUMPDEST SWAP2 POP PUSH2 0x1688 DUP3 PUSH2 0x1647 JUMP JUMPDEST PUSH1 0x20 DUP3 ADD SWAP1 POP SWAP2 SWAP1 POP JUMP JUMPDEST PUSH1 0x0 PUSH1 0x20 DUP3 ADD SWAP1 POP DUP2 DUP2 SUB PUSH1 0x0 DUP4 ADD MSTORE PUSH2 0x16AC DUP2 PUSH2 0x1670 JUMP JUMPDEST SWAP1 POP SWAP2 SWAP1 POP JUMP JUMPDEST PUSH32 0x596F7520616C726561647920766F7465642E0000000000000000000000000000 PUSH1 0x0 DUP3 ADD MSTORE POP JUMP JUMPDEST PUSH1 0x0 PUSH2 0x16E9 PUSH1 0x12 DUP4 PUSH2 0x1386 JUMP JUMPDEST SWAP2 POP PUSH2 0x16F4 DUP3 PUSH2 0x16B3 JUMP JUMPDEST PUSH1 0x20 DUP3 ADD SWAP1 POP SWAP2 SWAP1 POP JUMP JUMPDEST PUSH1 0x0 PUSH1 0x20 DUP3 ADD SWAP1 POP DUP2 DUP2 SUB PUSH1 0x0 DUP4 ADD MSTORE PUSH2 0x1718 DUP2 PUSH2 0x16DC JUMP JUMPDEST SWAP1 POP SWAP2 SWAP1 POP JUMP JUMPDEST PUSH32 0x54617267657420616D6F756E7420686173206E6F742072656168656420796574 PUSH1 0x0 DUP3 ADD MSTORE PUSH32 0x2E00000000000000000000000000000000000000000000000000000000000000 PUSH1 0x20 DUP3 ADD MSTORE POP JUMP JUMPDEST PUSH1 0x0 PUSH2 0x177B PUSH1 0x21 DUP4 PUSH2 0x1386 JUMP JUMPDEST SWAP2 POP PUSH2 0x1786 DUP3 PUSH2 0x171F JUMP JUMPDEST PUSH1 0x40 DUP3 ADD SWAP1 POP SWAP2 SWAP1 POP JUMP JUMPDEST PUSH1 0x0 PUSH1 0x20 DUP3 ADD SWAP1 POP DUP2 DUP2 SUB PUSH1 0x0 DUP4 ADD MSTORE PUSH2 0x17AA DUP2 PUSH2 0x176E JUMP JUMPDEST SWAP1 POP SWAP2 SWAP1 POP JUMP JUMPDEST PUSH32 0x4E487B7100000000000000000000000000000000000000000000000000000000 PUSH1 0x0 MSTORE PUSH1 0x12 PUSH1 0x4 MSTORE PUSH1 0x24 PUSH1 0x0 REVERT JUMPDEST PUSH1 0x0 PUSH2 0x17EB DUP3 PUSH2 0x10D1 JUMP JUMPDEST SWAP2 POP PUSH2 0x17F6 DUP4 PUSH2 0x10D1 JUMP JUMPDEST SWAP3 POP DUP3 PUSH2 0x1806 JUMPI PUSH2 0x1805 PUSH2 0x17B1 JUMP JUMPDEST JUMPDEST DUP3 DUP3 DIV SWAP1 POP SWAP3 SWAP2 POP POP JUMP JUMPDEST PUSH32 0x4D616A6F7269747920646F6573206E6F7420737570706F727400000000000000 PUSH1 0x0 DUP3 ADD MSTORE POP JUMP JUMPDEST PUSH1 0x0 PUSH2 0x1847 PUSH1 0x19 DUP4 PUSH2 0x1386 JUMP JUMPDEST SWAP2 POP PUSH2 0x1852 DUP3 PUSH2 0x1811 JUMP JUMPDEST PUSH1 0x20 DUP3 ADD SWAP1 POP SWAP2 SWAP1 POP JUMP JUMPDEST PUSH1 0x0 PUSH1 0x20 DUP3 ADD SWAP1 POP DUP2 DUP2 SUB PUSH1 0x0 DUP4 ADD MSTORE PUSH2 0x1876 DUP2 PUSH2 0x183A JUMP JUMPDEST SWAP1 POP SWAP2 SWAP1 POP JUMP JUMPDEST PUSH32 0x546865207265717565737420686173206265656E20636F6D706C657465640000 PUSH1 0x0 DUP3 ADD MSTORE POP JUMP JUMPDEST PUSH1 0x0 PUSH2 0x18B3 PUSH1 0x1E DUP4 PUSH2 0x1386 JUMP JUMPDEST SWAP2 POP PUSH2 0x18BE DUP3 PUSH2 0x187D JUMP JUMPDEST PUSH1 0x20 DUP3 ADD SWAP1 POP SWAP2 SWAP1 POP JUMP JUMPDEST PUSH1 0x0 PUSH1 0x20 DUP3 ADD SWAP1 POP DUP2 DUP2 SUB PUSH1 0x0 DUP4 ADD MSTORE PUSH2 0x18E2 DUP2 PUSH2 0x18A6 JUMP JUMPDEST SWAP1 POP SWAP2 SWAP1 POP JUMP JUMPDEST PUSH32 0x446561646C696E6520686173206E6F7420796574207061737365640000000000 PUSH1 0x0 DUP3 ADD MSTORE POP JUMP JUMPDEST PUSH1 0x0 PUSH2 0x191F PUSH1 0x1B DUP4 PUSH2 0x1386 JUMP JUMPDEST SWAP2 POP PUSH2 0x192A DUP3 PUSH2 0x18E9 JUMP JUMPDEST PUSH1 0x20 DUP3 ADD SWAP1 POP SWAP2 SWAP1 POP JUMP JUMPDEST PUSH1 0x0 PUSH1 0x20 DUP3 ADD SWAP1 POP DUP2 DUP2 SUB PUSH1 0x0 DUP4 ADD MSTORE PUSH2 0x194E DUP2 PUSH2 0x1912 JUMP JUMPDEST SWAP1 POP SWAP2 SWAP1 POP JUMP JUMPDEST PUSH32 0x596F752068617665206E6F7420636F6E74726962757465640000000000000000 PUSH1 0x0 DUP3 ADD MSTORE POP JUMP JUMPDEST PUSH1 0x0 PUSH2 0x198B PUSH1 0x18 DUP4 PUSH2 0x1386 JUMP JUMPDEST SWAP2 POP PUSH2 0x1996 DUP3 PUSH2 0x1955 JUMP JUMPDEST PUSH1 0x20 DUP3 ADD SWAP1 POP SWAP2 SWAP1 POP JUMP JUMPDEST PUSH1 0x0 PUSH1 0x20 DUP3 ADD SWAP1 POP DUP2 DUP2 SUB PUSH1 0x0 DUP4 ADD MSTORE PUSH2 0x19BA DUP2 PUSH2 0x197E JUMP JUMPDEST SWAP1 POP SWAP2 SWAP1 POP JUMP JUMPDEST PUSH32 0x54617267657420686173206E6F74206D6574207965742E000000000000000000 PUSH1 0x0 DUP3 ADD MSTORE POP JUMP JUMPDEST PUSH1 0x0 PUSH2 0x19F7 PUSH1 0x17 DUP4 PUSH2 0x1386 JUMP JUMPDEST SWAP2 POP PUSH2 0x1A02 DUP3 PUSH2 0x19C1 JUMP JUMPDEST PUSH1 0x20 DUP3 ADD SWAP1 POP SWAP2 SWAP1 POP JUMP JUMPDEST PUSH1 0x0 PUSH1 0x20 DUP3 ADD SWAP1 POP DUP2 DUP2 SUB PUSH1 0x0 DUP4 ADD MSTORE PUSH2 0x1A26 DUP2 PUSH2 0x19EA JUMP JUMPDEST SWAP1 POP SWAP2 SWAP1 POP JUMP JUMPDEST PUSH1 0x0 PUSH2 0x1A38 DUP3 PUSH2 0x10D1 JUMP JUMPDEST SWAP2 POP PUSH1 0x0 DUP3 SUB PUSH2 0x1A4B JUMPI PUSH2 0x1A4A PUSH2 0x157A JUMP JUMPDEST JUMPDEST PUSH1 0x1 DUP3 SUB SWAP1 POP SWAP2 SWAP1 POP JUMP JUMPDEST PUSH32 0x4E487B7100000000000000000000000000000000000000000000000000000000 PUSH1 0x0 MSTORE PUSH1 0x22 PUSH1 0x4 MSTORE PUSH1 0x24 PUSH1 0x0 REVERT JUMPDEST PUSH1 0x0 PUSH1 0x2 DUP3 DIV SWAP1 POP PUSH1 0x1 DUP3 AND DUP1 PUSH2 0x1A9D JUMPI PUSH1 0x7F DUP3 AND SWAP2 POP JUMPDEST PUSH1 0x20 DUP3 LT DUP2 SUB PUSH2 0x1AB0 JUMPI PUSH2 0x1AAF PUSH2 0x1A56 JUMP JUMPDEST JUMPDEST POP SWAP2 SWAP1 POP JUMP JUMPDEST PUSH32 0x4F6E6C79206D616E616765722063616E20726566756E642E0000000000000000 PUSH1 0x0 DUP3 ADD MSTORE POP JUMP JUMPDEST PUSH1 0x0 PUSH2 0x1AEC PUSH1 0x18 DUP4 PUSH2 0x1386 JUMP JUMPDEST SWAP2 POP PUSH2 0x1AF7 DUP3 PUSH2 0x1AB6 JUMP JUMPDEST PUSH1 0x20 DUP3 ADD SWAP1 POP SWAP2 SWAP1 POP JUMP JUMPDEST PUSH1 0x0 PUSH1 0x20 DUP3 ADD SWAP1 POP DUP2 DUP2 SUB PUSH1 0x0 DUP4 ADD MSTORE PUSH2 0x1B1B DUP2 PUSH2 0x1ADF JUMP JUMPDEST SWAP1 POP SWAP2 SWAP1 POP JUMP JUMPDEST PUSH32 0x446561646C696E6520686173206E6F7420796574207061737365642E00000000 PUSH1 0x0 DUP3 ADD MSTORE POP JUMP JUMPDEST PUSH1 0x0 PUSH2 0x1B58 PUSH1 0x1C DUP4 PUSH2 0x1386 JUMP JUMPDEST SWAP2 POP PUSH2 0x1B63 DUP3 PUSH2 0x1B22 JUMP JUMPDEST PUSH1 0x20 DUP3 ADD SWAP1 POP SWAP2 SWAP1 POP JUMP JUMPDEST PUSH1 0x0 PUSH1 0x20 DUP3 ADD SWAP1 POP DUP2 DUP2 SUB PUSH1 0x0 DUP4 ADD MSTORE PUSH2 0x1B87 DUP2 PUSH2 0x1B4B JUMP JUMPDEST SWAP1 POP SWAP2 SWAP1 POP JUMP JUMPDEST PUSH32 0x4E487B7100000000000000000000000000000000000000000000000000000000 PUSH1 0x0 MSTORE PUSH1 0x32 PUSH1 0x4 MSTORE PUSH1 0x24 PUSH1 0x0 REVERT INVALID LOG2 PUSH5 0x6970667358 0x22 SLT KECCAK256 SMOD 0xE8 0xAA 0xF9 DUP9 0xAB 0xD STATICCALL STATICCALL 0xB6 POP BLOCKHASH CHAINID 0x22 JUMPI CALLER 0x2E DUP8 EXTCODECOPY PUSH6 0x976B6C2F887E 0x21 0xE6 0xCF 0x1F 0xEF SWAP13 PUSH5 0x736F6C6343 STOP ADDMOD 0xD STOP CALLER "
				},
				"gasEstimates": {
					"creation": {
						"codeDepositCost": "1431000",
						"executionCost": "infinite",
						"totalCost": "infinite"
					},
					"external": {
						"addresses(uint256)": "5066",
						"contributors(address)": "2860",
						"createRequests(string,address,uint256)": "infinite",
						"deadline()": "2497",
						"getContractBalance()": "384",
						"makePayment(uint256)": "infinite",
						"manager()": "2534",
						"minimumContribution()": "2518",
						"noOfContributors()": "2496",
						"numRequests()": "2451",
						"raisedAmount()": "2473",
						"refund()": "infinite",
						"refundToAll()": "infinite",
						"requests(uint256)": "infinite",
						"sendEth()": "infinite",
						"target()": "2495",
						"voteRequest(uint256)": "infinite"
					}
				},
				"methodIdentifiers": {
					"addresses(uint256)": "edf26d9b",
					"contributors(address)": "1f6d4942",
					"createRequests(string,address,uint256)": "3eb7647b",
					"deadline()": "29dcb0cf",
					"getContractBalance()": "6f9fb98a",
					"makePayment(uint256)": "5114cb52",
					"manager()": "481c6a75",
					"minimumContribution()": "937e09b1",
					"noOfContributors()": "4e260f6f",
					"numRequests()": "9fb42b1f",
					"raisedAmount()": "c59ee1dc",
					"refund()": "590e1ae3",
					"refundToAll()": "dbddd8db",
					"requests(uint256)": "81d12c58",
					"sendEth()": "06e99fef",
					"target()": "d4b83992",
					"voteRequest(uint256)": "4cb6f4a5"
				}
			},
			"userdoc": {
				"kind": "user",
				"methods": {},
				"version": 1
			}
		}
	}
}