{
	"contracts/Crypto Kids/Cryptokids.sol": {
		"CryptoKids": {
			"abi": [
				{
					"inputs": [
						{
							"internalType": "uint256",
							"name": "_transferingAmount",
							"type": "uint256"
						}
					],
					"stateMutability": "nonpayable",
					"type": "constructor"
				},
				{
					"inputs": [],
					"name": "address_kid",
					"outputs": [
						{
							"internalType": "address payable",
							"name": "",
							"type": "address"
						}
					],
					"stateMutability": "view",
					"type": "function"
				},
				{
					"inputs": [],
					"name": "grandpa",
					"outputs": [
						{
							"internalType": "address",
							"name": "",
							"type": "address"
						}
					],
					"stateMutability": "view",
					"type": "function"
				},
				{
					"inputs": [
						{
							"internalType": "address",
							"name": "",
							"type": "address"
						}
					],
					"name": "kid",
					"outputs": [
						{
							"internalType": "uint256",
							"name": "",
							"type": "uint256"
						}
					],
					"stateMutability": "view",
					"type": "function"
				},
				{
					"inputs": [
						{
							"internalType": "address",
							"name": "_kid",
							"type": "address"
						},
						{
							"internalType": "uint256",
							"name": "_age",
							"type": "uint256"
						}
					],
					"name": "kids_entry",
					"outputs": [],
					"stateMutability": "nonpayable",
					"type": "function"
				},
				{
					"inputs": [],
					"name": "numRequests",
					"outputs": [
						{
							"internalType": "uint256",
							"name": "",
							"type": "uint256"
						}
					],
					"stateMutability": "view",
					"type": "function"
				},
				{
					"inputs": [
						{
							"internalType": "uint256",
							"name": "",
							"type": "uint256"
						}
					],
					"name": "requests",
					"outputs": [
						{
							"internalType": "address",
							"name": "address_kid",
							"type": "address"
						},
						{
							"internalType": "uint256",
							"name": "age",
							"type": "uint256"
						}
					],
					"stateMutability": "view",
					"type": "function"
				},
				{
					"inputs": [],
					"name": "transferingAmount",
					"outputs": [
						{
							"internalType": "uint256",
							"name": "",
							"type": "uint256"
						}
					],
					"stateMutability": "view",
					"type": "function"
				},
				{
					"inputs": [
						{
							"internalType": "address",
							"name": "kid_withdraw_add",
							"type": "address"
						}
					],
					"name": "withdraw",
					"outputs": [],
					"stateMutability": "nonpayable",
					"type": "function"
				}
			],
			"devdoc": {
				"kind": "dev",
				"methods": {},
				"version": 1
			},
			"evm": {
				"assembly": "    /* \"contracts/Crypto Kids/Cryptokids.sol\":61:1213  contract CryptoKids {... */\n  mstore(0x40, 0x80)\n    /* \"contracts/Crypto Kids/Cryptokids.sol\":394:518  constructor(uint _transferingAmount){... */\n  callvalue\n  dup1\n  iszero\n  tag_1\n  jumpi\n  0x00\n  dup1\n  revert\ntag_1:\n  pop\n  mload(0x40)\n  sub(codesize, bytecodeSize)\n  dup1\n  bytecodeSize\n  dup4\n  codecopy\n  dup2\n  dup2\n  add\n  0x40\n  mstore\n  dup2\n  add\n  swap1\n  tag_2\n  swap2\n  swap1\n  tag_3\n  jump\t// in\ntag_2:\n    /* \"contracts/Crypto Kids/Cryptokids.sol\":451:461  msg.sender */\n  caller\n    /* \"contracts/Crypto Kids/Cryptokids.sol\":441:448  grandpa */\n  0x00\n  dup1\n    /* \"contracts/Crypto Kids/Cryptokids.sol\":441:461  grandpa = msg.sender */\n  0x0100\n  exp\n  dup2\n  sload\n  dup2\n  0xffffffffffffffffffffffffffffffffffffffff\n  mul\n  not\n  and\n  swap1\n  dup4\n  0xffffffffffffffffffffffffffffffffffffffff\n  and\n  mul\n  or\n  swap1\n  sstore\n  pop\n    /* \"contracts/Crypto Kids/Cryptokids.sol\":492:510  _transferingAmount */\n  dup1\n    /* \"contracts/Crypto Kids/Cryptokids.sol\":472:489  transferingAmount */\n  0x05\n    /* \"contracts/Crypto Kids/Cryptokids.sol\":472:510  transferingAmount = _transferingAmount */\n  dup2\n  swap1\n  sstore\n  pop\n    /* \"contracts/Crypto Kids/Cryptokids.sol\":394:518  constructor(uint _transferingAmount){... */\n  pop\n    /* \"contracts/Crypto Kids/Cryptokids.sol\":61:1213  contract CryptoKids {... */\n  jump(tag_6)\n    /* \"#utility.yul\":88:205   */\ntag_8:\n    /* \"#utility.yul\":197:198   */\n  0x00\n    /* \"#utility.yul\":194:195   */\n  dup1\n    /* \"#utility.yul\":187:199   */\n  revert\n    /* \"#utility.yul\":334:411   */\ntag_10:\n    /* \"#utility.yul\":371:378   */\n  0x00\n    /* \"#utility.yul\":400:405   */\n  dup2\n    /* \"#utility.yul\":389:405   */\n  swap1\n  pop\n    /* \"#utility.yul\":334:411   */\n  swap2\n  swap1\n  pop\n  jump\t// out\n    /* \"#utility.yul\":417:539   */\ntag_11:\n    /* \"#utility.yul\":490:514   */\n  tag_19\n    /* \"#utility.yul\":508:513   */\n  dup2\n    /* \"#utility.yul\":490:514   */\n  tag_10\n  jump\t// in\ntag_19:\n    /* \"#utility.yul\":483:488   */\n  dup2\n    /* \"#utility.yul\":480:515   */\n  eq\n    /* \"#utility.yul\":470:533   */\n  tag_20\n  jumpi\n    /* \"#utility.yul\":529:530   */\n  0x00\n    /* \"#utility.yul\":526:527   */\n  dup1\n    /* \"#utility.yul\":519:531   */\n  revert\n    /* \"#utility.yul\":470:533   */\ntag_20:\n    /* \"#utility.yul\":417:539   */\n  pop\n  jump\t// out\n    /* \"#utility.yul\":545:688   */\ntag_12:\n    /* \"#utility.yul\":602:607   */\n  0x00\n    /* \"#utility.yul\":633:639   */\n  dup2\n    /* \"#utility.yul\":627:640   */\n  mload\n    /* \"#utility.yul\":618:640   */\n  swap1\n  pop\n    /* \"#utility.yul\":649:682   */\n  tag_22\n    /* \"#utility.yul\":676:681   */\n  dup2\n    /* \"#utility.yul\":649:682   */\n  tag_11\n  jump\t// in\ntag_22:\n    /* \"#utility.yul\":545:688   */\n  swap3\n  swap2\n  pop\n  pop\n  jump\t// out\n    /* \"#utility.yul\":694:1045   */\ntag_3:\n    /* \"#utility.yul\":764:770   */\n  0x00\n    /* \"#utility.yul\":813:815   */\n  0x20\n    /* \"#utility.yul\":801:810   */\n  dup3\n    /* \"#utility.yul\":792:799   */\n  dup5\n    /* \"#utility.yul\":788:811   */\n  sub\n    /* \"#utility.yul\":784:816   */\n  slt\n    /* \"#utility.yul\":781:900   */\n  iszero\n  tag_24\n  jumpi\n    /* \"#utility.yul\":819:898   */\n  tag_25\n  tag_8\n  jump\t// in\ntag_25:\n    /* \"#utility.yul\":781:900   */\ntag_24:\n    /* \"#utility.yul\":939:940   */\n  0x00\n    /* \"#utility.yul\":964:1028   */\n  tag_26\n    /* \"#utility.yul\":1020:1027   */\n  dup5\n    /* \"#utility.yul\":1011:1017   */\n  dup3\n    /* \"#utility.yul\":1000:1009   */\n  dup6\n    /* \"#utility.yul\":996:1018   */\n  add\n    /* \"#utility.yul\":964:1028   */\n  tag_12\n  jump\t// in\ntag_26:\n    /* \"#utility.yul\":954:1028   */\n  swap2\n  pop\n    /* \"#utility.yul\":910:1038   */\n  pop\n    /* \"#utility.yul\":694:1045   */\n  swap3\n  swap2\n  pop\n  pop\n  jump\t// out\n    /* \"contracts/Crypto Kids/Cryptokids.sol\":61:1213  contract CryptoKids {... */\ntag_6:\n  dataSize(sub_0)\n  dup1\n  dataOffset(sub_0)\n  0x00\n  codecopy\n  0x00\n  return\nstop\n\nsub_0: assembly {\n        /* \"contracts/Crypto Kids/Cryptokids.sol\":61:1213  contract CryptoKids {... */\n      mstore(0x40, 0x80)\n      callvalue\n      dup1\n      iszero\n      tag_1\n      jumpi\n      0x00\n      dup1\n      revert\n    tag_1:\n      pop\n      jumpi(tag_2, lt(calldatasize, 0x04))\n      shr(0xe0, calldataload(0x00))\n      dup1\n      0x81d12c58\n      gt\n      tag_11\n      jumpi\n      dup1\n      0x81d12c58\n      eq\n      tag_7\n      jumpi\n      dup1\n      0x9fb42b1f\n      eq\n      tag_8\n      jumpi\n      dup1\n      0xd42cd5a9\n      eq\n      tag_9\n      jumpi\n      dup1\n      0xd5ebe7f8\n      eq\n      tag_10\n      jumpi\n      jump(tag_2)\n    tag_11:\n      dup1\n      0x24ca53c2\n      eq\n      tag_3\n      jumpi\n      dup1\n      0x3f5a7d48\n      eq\n      tag_4\n      jumpi\n      dup1\n      0x51cff8d9\n      eq\n      tag_5\n      jumpi\n      dup1\n      0x6f6b4069\n      eq\n      tag_6\n      jumpi\n    tag_2:\n      0x00\n      dup1\n      revert\n        /* \"contracts/Crypto Kids/Cryptokids.sol\":117:151  address payable public address_kid */\n    tag_3:\n      tag_12\n      tag_13\n      jump\t// in\n    tag_12:\n      mload(0x40)\n      tag_14\n      swap2\n      swap1\n      tag_15\n      jump\t// in\n    tag_14:\n      mload(0x40)\n      dup1\n      swap2\n      sub\n      swap1\n      return\n        /* \"contracts/Crypto Kids/Cryptokids.sol\":356:385  uint public transferingAmount */\n    tag_4:\n      tag_16\n      tag_17\n      jump\t// in\n    tag_16:\n      mload(0x40)\n      tag_18\n      swap2\n      swap1\n      tag_19\n      jump\t// in\n    tag_18:\n      mload(0x40)\n      dup1\n      swap2\n      sub\n      swap1\n      return\n        /* \"contracts/Crypto Kids/Cryptokids.sol\":878:1210  function withdraw(address kid_withdraw_add) public {... */\n    tag_5:\n      tag_20\n      0x04\n      dup1\n      calldatasize\n      sub\n      dup2\n      add\n      swap1\n      tag_21\n      swap2\n      swap1\n      tag_22\n      jump\t// in\n    tag_21:\n      tag_23\n      jump\t// in\n    tag_20:\n      stop\n        /* \"contracts/Crypto Kids/Cryptokids.sol\":286:319  mapping(address=>uint) public kid */\n    tag_6:\n      tag_24\n      0x04\n      dup1\n      calldatasize\n      sub\n      dup2\n      add\n      swap1\n      tag_25\n      swap2\n      swap1\n      tag_22\n      jump\t// in\n    tag_25:\n      tag_26\n      jump\t// in\n    tag_24:\n      mload(0x40)\n      tag_27\n      swap2\n      swap1\n      tag_19\n      jump\t// in\n    tag_27:\n      mload(0x40)\n      dup1\n      swap2\n      sub\n      swap1\n      return\n        /* \"contracts/Crypto Kids/Cryptokids.sol\":240:279  mapping(uint=>KidsInfo) public requests */\n    tag_7:\n      tag_28\n      0x04\n      dup1\n      calldatasize\n      sub\n      dup2\n      add\n      swap1\n      tag_29\n      swap2\n      swap1\n      tag_30\n      jump\t// in\n    tag_29:\n      tag_31\n      jump\t// in\n    tag_28:\n      mload(0x40)\n      tag_32\n      swap3\n      swap2\n      swap1\n      tag_33\n      jump\t// in\n    tag_32:\n      mload(0x40)\n      dup1\n      swap2\n      sub\n      swap1\n      return\n        /* \"contracts/Crypto Kids/Cryptokids.sol\":326:349  uint public numRequests */\n    tag_8:\n      tag_34\n      tag_35\n      jump\t// in\n    tag_34:\n      mload(0x40)\n      tag_36\n      swap2\n      swap1\n      tag_19\n      jump\t// in\n    tag_36:\n      mload(0x40)\n      dup1\n      swap2\n      sub\n      swap1\n      return\n        /* \"contracts/Crypto Kids/Cryptokids.sol\":616:870  function kids_entry(address _kid, uint256 _age) onlyGrandpa public {... */\n    tag_9:\n      tag_37\n      0x04\n      dup1\n      calldatasize\n      sub\n      dup2\n      add\n      swap1\n      tag_38\n      swap2\n      swap1\n      tag_39\n      jump\t// in\n    tag_38:\n      tag_40\n      jump\t// in\n    tag_37:\n      stop\n        /* \"contracts/Crypto Kids/Cryptokids.sol\":88:110  address public grandpa */\n    tag_10:\n      tag_41\n      tag_42\n      jump\t// in\n    tag_41:\n      mload(0x40)\n      tag_43\n      swap2\n      swap1\n      tag_44\n      jump\t// in\n    tag_43:\n      mload(0x40)\n      dup1\n      swap2\n      sub\n      swap1\n      return\n        /* \"contracts/Crypto Kids/Cryptokids.sol\":117:151  address payable public address_kid */\n    tag_13:\n      0x01\n      0x00\n      swap1\n      sload\n      swap1\n      0x0100\n      exp\n      swap1\n      div\n      0xffffffffffffffffffffffffffffffffffffffff\n      and\n      dup2\n      jump\t// out\n        /* \"contracts/Crypto Kids/Cryptokids.sol\":356:385  uint public transferingAmount */\n    tag_17:\n      sload(0x05)\n      dup2\n      jump\t// out\n        /* \"contracts/Crypto Kids/Cryptokids.sol\":878:1210  function withdraw(address kid_withdraw_add) public {... */\n    tag_23:\n        /* \"contracts/Crypto Kids/Cryptokids.sol\":962:978  kid_withdraw_add */\n      dup1\n        /* \"contracts/Crypto Kids/Cryptokids.sol\":940:951  address_kid */\n      0x01\n      0x00\n        /* \"contracts/Crypto Kids/Cryptokids.sol\":940:979  address_kid = payable(kid_withdraw_add) */\n      0x0100\n      exp\n      dup2\n      sload\n      dup2\n      0xffffffffffffffffffffffffffffffffffffffff\n      mul\n      not\n      and\n      swap1\n      dup4\n      0xffffffffffffffffffffffffffffffffffffffff\n      and\n      mul\n      or\n      swap1\n      sstore\n      pop\n        /* \"contracts/Crypto Kids/Cryptokids.sol\":990:1008  uint256 age_of_kid */\n      0x00\n        /* \"contracts/Crypto Kids/Cryptokids.sol\":1012:1015  kid */\n      0x03\n        /* \"contracts/Crypto Kids/Cryptokids.sol\":1012:1033  kid[kid_withdraw_add] */\n      0x00\n        /* \"contracts/Crypto Kids/Cryptokids.sol\":1016:1032  kid_withdraw_add */\n      dup4\n        /* \"contracts/Crypto Kids/Cryptokids.sol\":1012:1033  kid[kid_withdraw_add] */\n      0xffffffffffffffffffffffffffffffffffffffff\n      and\n      0xffffffffffffffffffffffffffffffffffffffff\n      and\n      dup2\n      mstore\n      0x20\n      add\n      swap1\n      dup2\n      mstore\n      0x20\n      add\n      0x00\n      keccak256\n      sload\n        /* \"contracts/Crypto Kids/Cryptokids.sol\":990:1034  uint256 age_of_kid = (kid[kid_withdraw_add]) */\n      swap1\n      pop\n        /* \"contracts/Crypto Kids/Cryptokids.sol\":1066:1068  18 */\n      0x12\n        /* \"contracts/Crypto Kids/Cryptokids.sol\":1053:1063  age_of_kid */\n      dup2\n        /* \"contracts/Crypto Kids/Cryptokids.sol\":1053:1068  age_of_kid > 18 */\n      gt\n        /* \"contracts/Crypto Kids/Cryptokids.sol\":1045:1138  require(age_of_kid > 18,\"You are still not young enough to get the ether from your grandpa.\") */\n      tag_46\n      jumpi\n      mload(0x40)\n      0x08c379a000000000000000000000000000000000000000000000000000000000\n      dup2\n      mstore\n      0x04\n      add\n      tag_47\n      swap1\n      tag_48\n      jump\t// in\n    tag_47:\n      mload(0x40)\n      dup1\n      swap2\n      sub\n      swap1\n      revert\n    tag_46:\n        /* \"contracts/Crypto Kids/Cryptokids.sol\":1149:1160  address_kid */\n      0x01\n      0x00\n      swap1\n      sload\n      swap1\n      0x0100\n      exp\n      swap1\n      div\n      0xffffffffffffffffffffffffffffffffffffffff\n      and\n        /* \"contracts/Crypto Kids/Cryptokids.sol\":1149:1169  address_kid.transfer */\n      0xffffffffffffffffffffffffffffffffffffffff\n      and\n        /* \"contracts/Crypto Kids/Cryptokids.sol\":1149:1188  address_kid.transfer(transferingAmount) */\n      0x08fc\n        /* \"contracts/Crypto Kids/Cryptokids.sol\":1170:1187  transferingAmount */\n      sload(0x05)\n        /* \"contracts/Crypto Kids/Cryptokids.sol\":1149:1188  address_kid.transfer(transferingAmount) */\n      swap1\n      dup2\n      iszero\n      mul\n      swap1\n      mload(0x40)\n      0x00\n      mload(0x40)\n      dup1\n      dup4\n      sub\n      dup2\n      dup6\n      dup9\n      dup9\n      call\n      swap4\n      pop\n      pop\n      pop\n      pop\n      iszero\n      dup1\n      iszero\n      tag_50\n      jumpi\n      returndatasize\n      0x00\n      dup1\n      returndatacopy\n      revert(0x00, returndatasize)\n    tag_50:\n      pop\n        /* \"contracts/Crypto Kids/Cryptokids.sol\":929:1210  {... */\n      pop\n        /* \"contracts/Crypto Kids/Cryptokids.sol\":878:1210  function withdraw(address kid_withdraw_add) public {... */\n      pop\n      jump\t// out\n        /* \"contracts/Crypto Kids/Cryptokids.sol\":286:319  mapping(address=>uint) public kid */\n    tag_26:\n      mstore(0x20, 0x03)\n      dup1\n      0x00\n      mstore\n      keccak256(0x00, 0x40)\n      0x00\n      swap2\n      pop\n      swap1\n      pop\n      sload\n      dup2\n      jump\t// out\n        /* \"contracts/Crypto Kids/Cryptokids.sol\":240:279  mapping(uint=>KidsInfo) public requests */\n    tag_31:\n      mstore(0x20, 0x02)\n      dup1\n      0x00\n      mstore\n      keccak256(0x00, 0x40)\n      0x00\n      swap2\n      pop\n      swap1\n      pop\n      dup1\n      0x00\n      add\n      0x00\n      swap1\n      sload\n      swap1\n      0x0100\n      exp\n      swap1\n      div\n      0xffffffffffffffffffffffffffffffffffffffff\n      and\n      swap1\n      dup1\n      0x01\n      add\n      sload\n      swap1\n      pop\n      dup3\n      jump\t// out\n        /* \"contracts/Crypto Kids/Cryptokids.sol\":326:349  uint public numRequests */\n    tag_35:\n      sload(0x04)\n      dup2\n      jump\t// out\n        /* \"contracts/Crypto Kids/Cryptokids.sol\":616:870  function kids_entry(address _kid, uint256 _age) onlyGrandpa public {... */\n    tag_40:\n        /* \"contracts/Crypto Kids/Cryptokids.sol\":580:587  grandpa */\n      0x00\n      dup1\n      sload\n      swap1\n      0x0100\n      exp\n      swap1\n      div\n      0xffffffffffffffffffffffffffffffffffffffff\n      and\n        /* \"contracts/Crypto Kids/Cryptokids.sol\":566:587  msg.sender == grandpa */\n      0xffffffffffffffffffffffffffffffffffffffff\n      and\n        /* \"contracts/Crypto Kids/Cryptokids.sol\":566:576  msg.sender */\n      caller\n        /* \"contracts/Crypto Kids/Cryptokids.sol\":566:587  msg.sender == grandpa */\n      0xffffffffffffffffffffffffffffffffffffffff\n      and\n      eq\n        /* \"contracts/Crypto Kids/Cryptokids.sol\":558:588  require(msg.sender == grandpa) */\n      tag_52\n      jumpi\n      0x00\n      dup1\n      revert\n    tag_52:\n        /* \"contracts/Crypto Kids/Cryptokids.sol\":694:719  KidsInfo storage kidsinfo */\n      0x00\n        /* \"contracts/Crypto Kids/Cryptokids.sol\":722:730  requests */\n      0x02\n        /* \"contracts/Crypto Kids/Cryptokids.sol\":722:743  requests[numRequests] */\n      0x00\n        /* \"contracts/Crypto Kids/Cryptokids.sol\":731:742  numRequests */\n      sload(0x04)\n        /* \"contracts/Crypto Kids/Cryptokids.sol\":722:743  requests[numRequests] */\n      dup2\n      mstore\n      0x20\n      add\n      swap1\n      dup2\n      mstore\n      0x20\n      add\n      0x00\n      keccak256\n        /* \"contracts/Crypto Kids/Cryptokids.sol\":694:743  KidsInfo storage kidsinfo = requests[numRequests] */\n      swap1\n      pop\n        /* \"contracts/Crypto Kids/Cryptokids.sol\":754:765  numRequests */\n      0x04\n      0x00\n        /* \"contracts/Crypto Kids/Cryptokids.sol\":754:767  numRequests++ */\n      dup2\n      sload\n      dup1\n      swap3\n      swap2\n      swap1\n      tag_54\n      swap1\n      tag_55\n      jump\t// in\n    tag_54:\n      swap2\n      swap1\n      pop\n      sstore\n      pop\n        /* \"contracts/Crypto Kids/Cryptokids.sol\":801:805  _kid */\n      dup3\n        /* \"contracts/Crypto Kids/Cryptokids.sol\":778:786  kidsinfo */\n      dup2\n        /* \"contracts/Crypto Kids/Cryptokids.sol\":778:798  kidsinfo.address_kid */\n      0x00\n      add\n      0x00\n        /* \"contracts/Crypto Kids/Cryptokids.sol\":778:805  kidsinfo.address_kid = _kid */\n      0x0100\n      exp\n      dup2\n      sload\n      dup2\n      0xffffffffffffffffffffffffffffffffffffffff\n      mul\n      not\n      and\n      swap1\n      dup4\n      0xffffffffffffffffffffffffffffffffffffffff\n      and\n      mul\n      or\n      swap1\n      sstore\n      pop\n        /* \"contracts/Crypto Kids/Cryptokids.sol\":831:835  _age */\n      dup2\n        /* \"contracts/Crypto Kids/Cryptokids.sol\":816:824  kidsinfo */\n      dup2\n        /* \"contracts/Crypto Kids/Cryptokids.sol\":816:828  kidsinfo.age */\n      0x01\n      add\n        /* \"contracts/Crypto Kids/Cryptokids.sol\":816:835  kidsinfo.age = _age */\n      dup2\n      swap1\n      sstore\n      pop\n        /* \"contracts/Crypto Kids/Cryptokids.sol\":858:862  _age */\n      dup2\n        /* \"contracts/Crypto Kids/Cryptokids.sol\":846:849  kid */\n      0x03\n        /* \"contracts/Crypto Kids/Cryptokids.sol\":846:855  kid[_kid] */\n      0x00\n        /* \"contracts/Crypto Kids/Cryptokids.sol\":850:854  _kid */\n      dup6\n        /* \"contracts/Crypto Kids/Cryptokids.sol\":846:855  kid[_kid] */\n      0xffffffffffffffffffffffffffffffffffffffff\n      and\n      0xffffffffffffffffffffffffffffffffffffffff\n      and\n      dup2\n      mstore\n      0x20\n      add\n      swap1\n      dup2\n      mstore\n      0x20\n      add\n      0x00\n      keccak256\n        /* \"contracts/Crypto Kids/Cryptokids.sol\":846:862  kid[_kid] = _age */\n      dup2\n      swap1\n      sstore\n      pop\n        /* \"contracts/Crypto Kids/Cryptokids.sol\":683:870  {... */\n      pop\n        /* \"contracts/Crypto Kids/Cryptokids.sol\":616:870  function kids_entry(address _kid, uint256 _age) onlyGrandpa public {... */\n      pop\n      pop\n      jump\t// out\n        /* \"contracts/Crypto Kids/Cryptokids.sol\":88:110  address public grandpa */\n    tag_42:\n      0x00\n      dup1\n      sload\n      swap1\n      0x0100\n      exp\n      swap1\n      div\n      0xffffffffffffffffffffffffffffffffffffffff\n      and\n      dup2\n      jump\t// out\n        /* \"#utility.yul\":7:133   */\n    tag_56:\n        /* \"#utility.yul\":44:51   */\n      0x00\n        /* \"#utility.yul\":84:126   */\n      0xffffffffffffffffffffffffffffffffffffffff\n        /* \"#utility.yul\":77:82   */\n      dup3\n        /* \"#utility.yul\":73:127   */\n      and\n        /* \"#utility.yul\":62:127   */\n      swap1\n      pop\n        /* \"#utility.yul\":7:133   */\n      swap2\n      swap1\n      pop\n      jump\t// out\n        /* \"#utility.yul\":139:243   */\n    tag_57:\n        /* \"#utility.yul\":184:191   */\n      0x00\n        /* \"#utility.yul\":213:237   */\n      tag_77\n        /* \"#utility.yul\":231:236   */\n      dup3\n        /* \"#utility.yul\":213:237   */\n      tag_56\n      jump\t// in\n    tag_77:\n        /* \"#utility.yul\":202:237   */\n      swap1\n      pop\n        /* \"#utility.yul\":139:243   */\n      swap2\n      swap1\n      pop\n      jump\t// out\n        /* \"#utility.yul\":249:391   */\n    tag_58:\n        /* \"#utility.yul\":352:384   */\n      tag_79\n        /* \"#utility.yul\":378:383   */\n      dup2\n        /* \"#utility.yul\":352:384   */\n      tag_57\n      jump\t// in\n    tag_79:\n        /* \"#utility.yul\":347:350   */\n      dup3\n        /* \"#utility.yul\":340:385   */\n      mstore\n        /* \"#utility.yul\":249:391   */\n      pop\n      pop\n      jump\t// out\n        /* \"#utility.yul\":397:651   */\n    tag_15:\n        /* \"#utility.yul\":506:510   */\n      0x00\n        /* \"#utility.yul\":544:546   */\n      0x20\n        /* \"#utility.yul\":533:542   */\n      dup3\n        /* \"#utility.yul\":529:547   */\n      add\n        /* \"#utility.yul\":521:547   */\n      swap1\n      pop\n        /* \"#utility.yul\":557:644   */\n      tag_81\n        /* \"#utility.yul\":641:642   */\n      0x00\n        /* \"#utility.yul\":630:639   */\n      dup4\n        /* \"#utility.yul\":626:643   */\n      add\n        /* \"#utility.yul\":617:623   */\n      dup5\n        /* \"#utility.yul\":557:644   */\n      tag_58\n      jump\t// in\n    tag_81:\n        /* \"#utility.yul\":397:651   */\n      swap3\n      swap2\n      pop\n      pop\n      jump\t// out\n        /* \"#utility.yul\":657:734   */\n    tag_59:\n        /* \"#utility.yul\":694:701   */\n      0x00\n        /* \"#utility.yul\":723:728   */\n      dup2\n        /* \"#utility.yul\":712:728   */\n      swap1\n      pop\n        /* \"#utility.yul\":657:734   */\n      swap2\n      swap1\n      pop\n      jump\t// out\n        /* \"#utility.yul\":740:858   */\n    tag_60:\n        /* \"#utility.yul\":827:851   */\n      tag_84\n        /* \"#utility.yul\":845:850   */\n      dup2\n        /* \"#utility.yul\":827:851   */\n      tag_59\n      jump\t// in\n    tag_84:\n        /* \"#utility.yul\":822:825   */\n      dup3\n        /* \"#utility.yul\":815:852   */\n      mstore\n        /* \"#utility.yul\":740:858   */\n      pop\n      pop\n      jump\t// out\n        /* \"#utility.yul\":864:1086   */\n    tag_19:\n        /* \"#utility.yul\":957:961   */\n      0x00\n        /* \"#utility.yul\":995:997   */\n      0x20\n        /* \"#utility.yul\":984:993   */\n      dup3\n        /* \"#utility.yul\":980:998   */\n      add\n        /* \"#utility.yul\":972:998   */\n      swap1\n      pop\n        /* \"#utility.yul\":1008:1079   */\n      tag_86\n        /* \"#utility.yul\":1076:1077   */\n      0x00\n        /* \"#utility.yul\":1065:1074   */\n      dup4\n        /* \"#utility.yul\":1061:1078   */\n      add\n        /* \"#utility.yul\":1052:1058   */\n      dup5\n        /* \"#utility.yul\":1008:1079   */\n      tag_60\n      jump\t// in\n    tag_86:\n        /* \"#utility.yul\":864:1086   */\n      swap3\n      swap2\n      pop\n      pop\n      jump\t// out\n        /* \"#utility.yul\":1173:1290   */\n    tag_62:\n        /* \"#utility.yul\":1282:1283   */\n      0x00\n        /* \"#utility.yul\":1279:1280   */\n      dup1\n        /* \"#utility.yul\":1272:1284   */\n      revert\n        /* \"#utility.yul\":1419:1515   */\n    tag_64:\n        /* \"#utility.yul\":1456:1463   */\n      0x00\n        /* \"#utility.yul\":1485:1509   */\n      tag_91\n        /* \"#utility.yul\":1503:1508   */\n      dup3\n        /* \"#utility.yul\":1485:1509   */\n      tag_56\n      jump\t// in\n    tag_91:\n        /* \"#utility.yul\":1474:1509   */\n      swap1\n      pop\n        /* \"#utility.yul\":1419:1515   */\n      swap2\n      swap1\n      pop\n      jump\t// out\n        /* \"#utility.yul\":1521:1643   */\n    tag_65:\n        /* \"#utility.yul\":1594:1618   */\n      tag_93\n        /* \"#utility.yul\":1612:1617   */\n      dup2\n        /* \"#utility.yul\":1594:1618   */\n      tag_64\n      jump\t// in\n    tag_93:\n        /* \"#utility.yul\":1587:1592   */\n      dup2\n        /* \"#utility.yul\":1584:1619   */\n      eq\n        /* \"#utility.yul\":1574:1637   */\n      tag_94\n      jumpi\n        /* \"#utility.yul\":1633:1634   */\n      0x00\n        /* \"#utility.yul\":1630:1631   */\n      dup1\n        /* \"#utility.yul\":1623:1635   */\n      revert\n        /* \"#utility.yul\":1574:1637   */\n    tag_94:\n        /* \"#utility.yul\":1521:1643   */\n      pop\n      jump\t// out\n        /* \"#utility.yul\":1649:1788   */\n    tag_66:\n        /* \"#utility.yul\":1695:1700   */\n      0x00\n        /* \"#utility.yul\":1733:1739   */\n      dup2\n        /* \"#utility.yul\":1720:1740   */\n      calldataload\n        /* \"#utility.yul\":1711:1740   */\n      swap1\n      pop\n        /* \"#utility.yul\":1749:1782   */\n      tag_96\n        /* \"#utility.yul\":1776:1781   */\n      dup2\n        /* \"#utility.yul\":1749:1782   */\n      tag_65\n      jump\t// in\n    tag_96:\n        /* \"#utility.yul\":1649:1788   */\n      swap3\n      swap2\n      pop\n      pop\n      jump\t// out\n        /* \"#utility.yul\":1794:2123   */\n    tag_22:\n        /* \"#utility.yul\":1853:1859   */\n      0x00\n        /* \"#utility.yul\":1902:1904   */\n      0x20\n        /* \"#utility.yul\":1890:1899   */\n      dup3\n        /* \"#utility.yul\":1881:1888   */\n      dup5\n        /* \"#utility.yul\":1877:1900   */\n      sub\n        /* \"#utility.yul\":1873:1905   */\n      slt\n        /* \"#utility.yul\":1870:1989   */\n      iszero\n      tag_98\n      jumpi\n        /* \"#utility.yul\":1908:1987   */\n      tag_99\n      tag_62\n      jump\t// in\n    tag_99:\n        /* \"#utility.yul\":1870:1989   */\n    tag_98:\n        /* \"#utility.yul\":2028:2029   */\n      0x00\n        /* \"#utility.yul\":2053:2106   */\n      tag_100\n        /* \"#utility.yul\":2098:2105   */\n      dup5\n        /* \"#utility.yul\":2089:2095   */\n      dup3\n        /* \"#utility.yul\":2078:2087   */\n      dup6\n        /* \"#utility.yul\":2074:2096   */\n      add\n        /* \"#utility.yul\":2053:2106   */\n      tag_66\n      jump\t// in\n    tag_100:\n        /* \"#utility.yul\":2043:2106   */\n      swap2\n      pop\n        /* \"#utility.yul\":1999:2116   */\n      pop\n        /* \"#utility.yul\":1794:2123   */\n      swap3\n      swap2\n      pop\n      pop\n      jump\t// out\n        /* \"#utility.yul\":2129:2251   */\n    tag_67:\n        /* \"#utility.yul\":2202:2226   */\n      tag_102\n        /* \"#utility.yul\":2220:2225   */\n      dup2\n        /* \"#utility.yul\":2202:2226   */\n      tag_59\n      jump\t// in\n    tag_102:\n        /* \"#utility.yul\":2195:2200   */\n      dup2\n        /* \"#utility.yul\":2192:2227   */\n      eq\n        /* \"#utility.yul\":2182:2245   */\n      tag_103\n      jumpi\n        /* \"#utility.yul\":2241:2242   */\n      0x00\n        /* \"#utility.yul\":2238:2239   */\n      dup1\n        /* \"#utility.yul\":2231:2243   */\n      revert\n        /* \"#utility.yul\":2182:2245   */\n    tag_103:\n        /* \"#utility.yul\":2129:2251   */\n      pop\n      jump\t// out\n        /* \"#utility.yul\":2257:2396   */\n    tag_68:\n        /* \"#utility.yul\":2303:2308   */\n      0x00\n        /* \"#utility.yul\":2341:2347   */\n      dup2\n        /* \"#utility.yul\":2328:2348   */\n      calldataload\n        /* \"#utility.yul\":2319:2348   */\n      swap1\n      pop\n        /* \"#utility.yul\":2357:2390   */\n      tag_105\n        /* \"#utility.yul\":2384:2389   */\n      dup2\n        /* \"#utility.yul\":2357:2390   */\n      tag_67\n      jump\t// in\n    tag_105:\n        /* \"#utility.yul\":2257:2396   */\n      swap3\n      swap2\n      pop\n      pop\n      jump\t// out\n        /* \"#utility.yul\":2402:2731   */\n    tag_30:\n        /* \"#utility.yul\":2461:2467   */\n      0x00\n        /* \"#utility.yul\":2510:2512   */\n      0x20\n        /* \"#utility.yul\":2498:2507   */\n      dup3\n        /* \"#utility.yul\":2489:2496   */\n      dup5\n        /* \"#utility.yul\":2485:2508   */\n      sub\n        /* \"#utility.yul\":2481:2513   */\n      slt\n        /* \"#utility.yul\":2478:2597   */\n      iszero\n      tag_107\n      jumpi\n        /* \"#utility.yul\":2516:2595   */\n      tag_108\n      tag_62\n      jump\t// in\n    tag_108:\n        /* \"#utility.yul\":2478:2597   */\n    tag_107:\n        /* \"#utility.yul\":2636:2637   */\n      0x00\n        /* \"#utility.yul\":2661:2714   */\n      tag_109\n        /* \"#utility.yul\":2706:2713   */\n      dup5\n        /* \"#utility.yul\":2697:2703   */\n      dup3\n        /* \"#utility.yul\":2686:2695   */\n      dup6\n        /* \"#utility.yul\":2682:2704   */\n      add\n        /* \"#utility.yul\":2661:2714   */\n      tag_68\n      jump\t// in\n    tag_109:\n        /* \"#utility.yul\":2651:2714   */\n      swap2\n      pop\n        /* \"#utility.yul\":2607:2724   */\n      pop\n        /* \"#utility.yul\":2402:2731   */\n      swap3\n      swap2\n      pop\n      pop\n      jump\t// out\n        /* \"#utility.yul\":2737:2855   */\n    tag_69:\n        /* \"#utility.yul\":2824:2848   */\n      tag_111\n        /* \"#utility.yul\":2842:2847   */\n      dup2\n        /* \"#utility.yul\":2824:2848   */\n      tag_64\n      jump\t// in\n    tag_111:\n        /* \"#utility.yul\":2819:2822   */\n      dup3\n        /* \"#utility.yul\":2812:2849   */\n      mstore\n        /* \"#utility.yul\":2737:2855   */\n      pop\n      pop\n      jump\t// out\n        /* \"#utility.yul\":2861:3193   */\n    tag_33:\n        /* \"#utility.yul\":2982:2986   */\n      0x00\n        /* \"#utility.yul\":3020:3022   */\n      0x40\n        /* \"#utility.yul\":3009:3018   */\n      dup3\n        /* \"#utility.yul\":3005:3023   */\n      add\n        /* \"#utility.yul\":2997:3023   */\n      swap1\n      pop\n        /* \"#utility.yul\":3033:3104   */\n      tag_113\n        /* \"#utility.yul\":3101:3102   */\n      0x00\n        /* \"#utility.yul\":3090:3099   */\n      dup4\n        /* \"#utility.yul\":3086:3103   */\n      add\n        /* \"#utility.yul\":3077:3083   */\n      dup6\n        /* \"#utility.yul\":3033:3104   */\n      tag_69\n      jump\t// in\n    tag_113:\n        /* \"#utility.yul\":3114:3186   */\n      tag_114\n        /* \"#utility.yul\":3182:3184   */\n      0x20\n        /* \"#utility.yul\":3171:3180   */\n      dup4\n        /* \"#utility.yul\":3167:3185   */\n      add\n        /* \"#utility.yul\":3158:3164   */\n      dup5\n        /* \"#utility.yul\":3114:3186   */\n      tag_60\n      jump\t// in\n    tag_114:\n        /* \"#utility.yul\":2861:3193   */\n      swap4\n      swap3\n      pop\n      pop\n      pop\n      jump\t// out\n        /* \"#utility.yul\":3199:3673   */\n    tag_39:\n        /* \"#utility.yul\":3267:3273   */\n      0x00\n        /* \"#utility.yul\":3275:3281   */\n      dup1\n        /* \"#utility.yul\":3324:3326   */\n      0x40\n        /* \"#utility.yul\":3312:3321   */\n      dup4\n        /* \"#utility.yul\":3303:3310   */\n      dup6\n        /* \"#utility.yul\":3299:3322   */\n      sub\n        /* \"#utility.yul\":3295:3327   */\n      slt\n        /* \"#utility.yul\":3292:3411   */\n      iszero\n      tag_116\n      jumpi\n        /* \"#utility.yul\":3330:3409   */\n      tag_117\n      tag_62\n      jump\t// in\n    tag_117:\n        /* \"#utility.yul\":3292:3411   */\n    tag_116:\n        /* \"#utility.yul\":3450:3451   */\n      0x00\n        /* \"#utility.yul\":3475:3528   */\n      tag_118\n        /* \"#utility.yul\":3520:3527   */\n      dup6\n        /* \"#utility.yul\":3511:3517   */\n      dup3\n        /* \"#utility.yul\":3500:3509   */\n      dup7\n        /* \"#utility.yul\":3496:3518   */\n      add\n        /* \"#utility.yul\":3475:3528   */\n      tag_66\n      jump\t// in\n    tag_118:\n        /* \"#utility.yul\":3465:3528   */\n      swap3\n      pop\n        /* \"#utility.yul\":3421:3538   */\n      pop\n        /* \"#utility.yul\":3577:3579   */\n      0x20\n        /* \"#utility.yul\":3603:3656   */\n      tag_119\n        /* \"#utility.yul\":3648:3655   */\n      dup6\n        /* \"#utility.yul\":3639:3645   */\n      dup3\n        /* \"#utility.yul\":3628:3637   */\n      dup7\n        /* \"#utility.yul\":3624:3646   */\n      add\n        /* \"#utility.yul\":3603:3656   */\n      tag_68\n      jump\t// in\n    tag_119:\n        /* \"#utility.yul\":3593:3656   */\n      swap2\n      pop\n        /* \"#utility.yul\":3548:3666   */\n      pop\n        /* \"#utility.yul\":3199:3673   */\n      swap3\n      pop\n      swap3\n      swap1\n      pop\n      jump\t// out\n        /* \"#utility.yul\":3679:3901   */\n    tag_44:\n        /* \"#utility.yul\":3772:3776   */\n      0x00\n        /* \"#utility.yul\":3810:3812   */\n      0x20\n        /* \"#utility.yul\":3799:3808   */\n      dup3\n        /* \"#utility.yul\":3795:3813   */\n      add\n        /* \"#utility.yul\":3787:3813   */\n      swap1\n      pop\n        /* \"#utility.yul\":3823:3894   */\n      tag_121\n        /* \"#utility.yul\":3891:3892   */\n      0x00\n        /* \"#utility.yul\":3880:3889   */\n      dup4\n        /* \"#utility.yul\":3876:3893   */\n      add\n        /* \"#utility.yul\":3867:3873   */\n      dup5\n        /* \"#utility.yul\":3823:3894   */\n      tag_69\n      jump\t// in\n    tag_121:\n        /* \"#utility.yul\":3679:3901   */\n      swap3\n      swap2\n      pop\n      pop\n      jump\t// out\n        /* \"#utility.yul\":3907:4076   */\n    tag_70:\n        /* \"#utility.yul\":3991:4002   */\n      0x00\n        /* \"#utility.yul\":4025:4031   */\n      dup3\n        /* \"#utility.yul\":4020:4023   */\n      dup3\n        /* \"#utility.yul\":4013:4032   */\n      mstore\n        /* \"#utility.yul\":4065:4069   */\n      0x20\n        /* \"#utility.yul\":4060:4063   */\n      dup3\n        /* \"#utility.yul\":4056:4070   */\n      add\n        /* \"#utility.yul\":4041:4070   */\n      swap1\n      pop\n        /* \"#utility.yul\":3907:4076   */\n      swap3\n      swap2\n      pop\n      pop\n      jump\t// out\n        /* \"#utility.yul\":4082:4372   */\n    tag_71:\n        /* \"#utility.yul\":4222:4256   */\n      0x596f7520617265207374696c6c206e6f7420796f756e6720656e6f7567682074\n        /* \"#utility.yul\":4218:4219   */\n      0x00\n        /* \"#utility.yul\":4210:4216   */\n      dup3\n        /* \"#utility.yul\":4206:4220   */\n      add\n        /* \"#utility.yul\":4199:4257   */\n      mstore\n        /* \"#utility.yul\":4291:4325   */\n      0x6f20676574207468652065746865722066726f6d20796f7572206772616e6470\n        /* \"#utility.yul\":4286:4288   */\n      0x20\n        /* \"#utility.yul\":4278:4284   */\n      dup3\n        /* \"#utility.yul\":4274:4289   */\n      add\n        /* \"#utility.yul\":4267:4326   */\n      mstore\n        /* \"#utility.yul\":4360:4364   */\n      0x612e000000000000000000000000000000000000000000000000000000000000\n        /* \"#utility.yul\":4355:4357   */\n      0x40\n        /* \"#utility.yul\":4347:4353   */\n      dup3\n        /* \"#utility.yul\":4343:4358   */\n      add\n        /* \"#utility.yul\":4336:4365   */\n      mstore\n        /* \"#utility.yul\":4082:4372   */\n      pop\n      jump\t// out\n        /* \"#utility.yul\":4378:4744   */\n    tag_72:\n        /* \"#utility.yul\":4520:4523   */\n      0x00\n        /* \"#utility.yul\":4541:4608   */\n      tag_125\n        /* \"#utility.yul\":4605:4607   */\n      0x42\n        /* \"#utility.yul\":4600:4603   */\n      dup4\n        /* \"#utility.yul\":4541:4608   */\n      tag_70\n      jump\t// in\n    tag_125:\n        /* \"#utility.yul\":4534:4608   */\n      swap2\n      pop\n        /* \"#utility.yul\":4617:4710   */\n      tag_126\n        /* \"#utility.yul\":4706:4709   */\n      dup3\n        /* \"#utility.yul\":4617:4710   */\n      tag_71\n      jump\t// in\n    tag_126:\n        /* \"#utility.yul\":4735:4737   */\n      0x60\n        /* \"#utility.yul\":4730:4733   */\n      dup3\n        /* \"#utility.yul\":4726:4738   */\n      add\n        /* \"#utility.yul\":4719:4738   */\n      swap1\n      pop\n        /* \"#utility.yul\":4378:4744   */\n      swap2\n      swap1\n      pop\n      jump\t// out\n        /* \"#utility.yul\":4750:5169   */\n    tag_48:\n        /* \"#utility.yul\":4916:4920   */\n      0x00\n        /* \"#utility.yul\":4954:4956   */\n      0x20\n        /* \"#utility.yul\":4943:4952   */\n      dup3\n        /* \"#utility.yul\":4939:4957   */\n      add\n        /* \"#utility.yul\":4931:4957   */\n      swap1\n      pop\n        /* \"#utility.yul\":5003:5012   */\n      dup2\n        /* \"#utility.yul\":4997:5001   */\n      dup2\n        /* \"#utility.yul\":4993:5013   */\n      sub\n        /* \"#utility.yul\":4989:4990   */\n      0x00\n        /* \"#utility.yul\":4978:4987   */\n      dup4\n        /* \"#utility.yul\":4974:4991   */\n      add\n        /* \"#utility.yul\":4967:5014   */\n      mstore\n        /* \"#utility.yul\":5031:5162   */\n      tag_128\n        /* \"#utility.yul\":5157:5161   */\n      dup2\n        /* \"#utility.yul\":5031:5162   */\n      tag_72\n      jump\t// in\n    tag_128:\n        /* \"#utility.yul\":5023:5162   */\n      swap1\n      pop\n        /* \"#utility.yul\":4750:5169   */\n      swap2\n      swap1\n      pop\n      jump\t// out\n        /* \"#utility.yul\":5175:5355   */\n    tag_73:\n        /* \"#utility.yul\":5223:5300   */\n      0x4e487b7100000000000000000000000000000000000000000000000000000000\n        /* \"#utility.yul\":5220:5221   */\n      0x00\n        /* \"#utility.yul\":5213:5301   */\n      mstore\n        /* \"#utility.yul\":5320:5324   */\n      0x11\n        /* \"#utility.yul\":5317:5318   */\n      0x04\n        /* \"#utility.yul\":5310:5325   */\n      mstore\n        /* \"#utility.yul\":5344:5348   */\n      0x24\n        /* \"#utility.yul\":5341:5342   */\n      0x00\n        /* \"#utility.yul\":5334:5349   */\n      revert\n        /* \"#utility.yul\":5361:5594   */\n    tag_55:\n        /* \"#utility.yul\":5400:5403   */\n      0x00\n        /* \"#utility.yul\":5423:5447   */\n      tag_131\n        /* \"#utility.yul\":5441:5446   */\n      dup3\n        /* \"#utility.yul\":5423:5447   */\n      tag_59\n      jump\t// in\n    tag_131:\n        /* \"#utility.yul\":5414:5447   */\n      swap2\n      pop\n        /* \"#utility.yul\":5469:5535   */\n      0xffffffffffffffffffffffffffffffffffffffffffffffffffffffffffffffff\n        /* \"#utility.yul\":5462:5467   */\n      dup3\n        /* \"#utility.yul\":5459:5536   */\n      sub\n        /* \"#utility.yul\":5456:5559   */\n      tag_132\n      jumpi\n        /* \"#utility.yul\":5539:5557   */\n      tag_133\n      tag_73\n      jump\t// in\n    tag_133:\n        /* \"#utility.yul\":5456:5559   */\n    tag_132:\n        /* \"#utility.yul\":5586:5587   */\n      0x01\n        /* \"#utility.yul\":5579:5584   */\n      dup3\n        /* \"#utility.yul\":5575:5588   */\n      add\n        /* \"#utility.yul\":5568:5588   */\n      swap1\n      pop\n        /* \"#utility.yul\":5361:5594   */\n      swap2\n      swap1\n      pop\n      jump\t// out\n\n    auxdata: 0xa26469706673582212206a60165208d82dd6b1e8b6fcddd8f207c1eaf031f7ae5465d7816874a11553d964736f6c634300080d0033\n}\n",
				"bytecode": {
					"linkReferences": {},
					"object": "608060405234801561001057600080fd5b506040516108fd3803806108fd833981810160405281019061003291906100ba565b336000806101000a81548173ffffffffffffffffffffffffffffffffffffffff021916908373ffffffffffffffffffffffffffffffffffffffff16021790555080600581905550506100e7565b600080fd5b6000819050919050565b61009781610084565b81146100a257600080fd5b50565b6000815190506100b48161008e565b92915050565b6000602082840312156100d0576100cf61007f565b5b60006100de848285016100a5565b91505092915050565b610807806100f66000396000f3fe608060405234801561001057600080fd5b50600436106100885760003560e01c806381d12c581161005b57806381d12c58146101155780639fb42b1f14610146578063d42cd5a914610164578063d5ebe7f81461018057610088565b806324ca53c21461008d5780633f5a7d48146100ab57806351cff8d9146100c95780636f6b4069146100e5575b600080fd5b61009561019e565b6040516100a291906104e6565b60405180910390f35b6100b36101c4565b6040516100c0919061051a565b60405180910390f35b6100e360048036038101906100de9190610578565b6101ca565b005b6100ff60048036038101906100fa9190610578565b610301565b60405161010c919061051a565b60405180910390f35b61012f600480360381019061012a91906105d1565b610319565b60405161013d92919061060d565b60405180910390f35b61014e61035d565b60405161015b919061051a565b60405180910390f35b61017e60048036038101906101799190610636565b610363565b005b610188610481565b6040516101959190610676565b60405180910390f35b600160009054906101000a900473ffffffffffffffffffffffffffffffffffffffff1681565b60055481565b80600160006101000a81548173ffffffffffffffffffffffffffffffffffffffff021916908373ffffffffffffffffffffffffffffffffffffffff1602179055506000600360008373ffffffffffffffffffffffffffffffffffffffff1673ffffffffffffffffffffffffffffffffffffffff16815260200190815260200160002054905060128111610292576040517f08c379a00000000000000000000000000000000000000000000000000000000081526004016102899061073a565b60405180910390fd5b600160009054906101000a900473ffffffffffffffffffffffffffffffffffffffff1673ffffffffffffffffffffffffffffffffffffffff166108fc6005549081150290604051600060405180830381858888f193505050501580156102fc573d6000803e3d6000fd5b505050565b60036020528060005260406000206000915090505481565b60026020528060005260406000206000915090508060000160009054906101000a900473ffffffffffffffffffffffffffffffffffffffff16908060010154905082565b60045481565b60008054906101000a900473ffffffffffffffffffffffffffffffffffffffff1673ffffffffffffffffffffffffffffffffffffffff163373ffffffffffffffffffffffffffffffffffffffff16146103bb57600080fd5b60006002600060045481526020019081526020016000209050600460008154809291906103e790610789565b9190505550828160000160006101000a81548173ffffffffffffffffffffffffffffffffffffffff021916908373ffffffffffffffffffffffffffffffffffffffff16021790555081816001018190555081600360008573ffffffffffffffffffffffffffffffffffffffff1673ffffffffffffffffffffffffffffffffffffffff16815260200190815260200160002081905550505050565b60008054906101000a900473ffffffffffffffffffffffffffffffffffffffff1681565b600073ffffffffffffffffffffffffffffffffffffffff82169050919050565b60006104d0826104a5565b9050919050565b6104e0816104c5565b82525050565b60006020820190506104fb60008301846104d7565b92915050565b6000819050919050565b61051481610501565b82525050565b600060208201905061052f600083018461050b565b92915050565b600080fd5b6000610545826104a5565b9050919050565b6105558161053a565b811461056057600080fd5b50565b6000813590506105728161054c565b92915050565b60006020828403121561058e5761058d610535565b5b600061059c84828501610563565b91505092915050565b6105ae81610501565b81146105b957600080fd5b50565b6000813590506105cb816105a5565b92915050565b6000602082840312156105e7576105e6610535565b5b60006105f5848285016105bc565b91505092915050565b6106078161053a565b82525050565b600060408201905061062260008301856105fe565b61062f602083018461050b565b9392505050565b6000806040838503121561064d5761064c610535565b5b600061065b85828601610563565b925050602061066c858286016105bc565b9150509250929050565b600060208201905061068b60008301846105fe565b92915050565b600082825260208201905092915050565b7f596f7520617265207374696c6c206e6f7420796f756e6720656e6f756768207460008201527f6f20676574207468652065746865722066726f6d20796f7572206772616e647060208201527f612e000000000000000000000000000000000000000000000000000000000000604082015250565b6000610724604283610691565b915061072f826106a2565b606082019050919050565b6000602082019050818103600083015261075381610717565b9050919050565b7f4e487b7100000000000000000000000000000000000000000000000000000000600052601160045260246000fd5b600061079482610501565b91507fffffffffffffffffffffffffffffffffffffffffffffffffffffffffffffffff82036107c6576107c561075a565b5b60018201905091905056fea26469706673582212206a60165208d82dd6b1e8b6fcddd8f207c1eaf031f7ae5465d7816874a11553d964736f6c634300080d0033",
					"opcodes": "PUSH1 0x80 PUSH1 0x40 MSTORE CALLVALUE DUP1 ISZERO PUSH2 0x10 JUMPI PUSH1 0x0 DUP1 REVERT JUMPDEST POP PUSH1 0x40 MLOAD PUSH2 0x8FD CODESIZE SUB DUP1 PUSH2 0x8FD DUP4 CODECOPY DUP2 DUP2 ADD PUSH1 0x40 MSTORE DUP2 ADD SWAP1 PUSH2 0x32 SWAP2 SWAP1 PUSH2 0xBA JUMP JUMPDEST CALLER PUSH1 0x0 DUP1 PUSH2 0x100 EXP DUP2 SLOAD DUP2 PUSH20 0xFFFFFFFFFFFFFFFFFFFFFFFFFFFFFFFFFFFFFFFF MUL NOT AND SWAP1 DUP4 PUSH20 0xFFFFFFFFFFFFFFFFFFFFFFFFFFFFFFFFFFFFFFFF AND MUL OR SWAP1 SSTORE POP DUP1 PUSH1 0x5 DUP2 SWAP1 SSTORE POP POP PUSH2 0xE7 JUMP JUMPDEST PUSH1 0x0 DUP1 REVERT JUMPDEST PUSH1 0x0 DUP2 SWAP1 POP SWAP2 SWAP1 POP JUMP JUMPDEST PUSH2 0x97 DUP2 PUSH2 0x84 JUMP JUMPDEST DUP2 EQ PUSH2 0xA2 JUMPI PUSH1 0x0 DUP1 REVERT JUMPDEST POP JUMP JUMPDEST PUSH1 0x0 DUP2 MLOAD SWAP1 POP PUSH2 0xB4 DUP2 PUSH2 0x8E JUMP JUMPDEST SWAP3 SWAP2 POP POP JUMP JUMPDEST PUSH1 0x0 PUSH1 0x20 DUP3 DUP5 SUB SLT ISZERO PUSH2 0xD0 JUMPI PUSH2 0xCF PUSH2 0x7F JUMP JUMPDEST JUMPDEST PUSH1 0x0 PUSH2 0xDE DUP5 DUP3 DUP6 ADD PUSH2 0xA5 JUMP JUMPDEST SWAP2 POP POP SWAP3 SWAP2 POP POP JUMP JUMPDEST PUSH2 0x807 DUP1 PUSH2 0xF6 PUSH1 0x0 CODECOPY PUSH1 0x0 RETURN INVALID PUSH1 0x80 PUSH1 0x40 MSTORE CALLVALUE DUP1 ISZERO PUSH2 0x10 JUMPI PUSH1 0x0 DUP1 REVERT JUMPDEST POP PUSH1 0x4 CALLDATASIZE LT PUSH2 0x88 JUMPI PUSH1 0x0 CALLDATALOAD PUSH1 0xE0 SHR DUP1 PUSH4 0x81D12C58 GT PUSH2 0x5B JUMPI DUP1 PUSH4 0x81D12C58 EQ PUSH2 0x115 JUMPI DUP1 PUSH4 0x9FB42B1F EQ PUSH2 0x146 JUMPI DUP1 PUSH4 0xD42CD5A9 EQ PUSH2 0x164 JUMPI DUP1 PUSH4 0xD5EBE7F8 EQ PUSH2 0x180 JUMPI PUSH2 0x88 JUMP JUMPDEST DUP1 PUSH4 0x24CA53C2 EQ PUSH2 0x8D JUMPI DUP1 PUSH4 0x3F5A7D48 EQ PUSH2 0xAB JUMPI DUP1 PUSH4 0x51CFF8D9 EQ PUSH2 0xC9 JUMPI DUP1 PUSH4 0x6F6B4069 EQ PUSH2 0xE5 JUMPI JUMPDEST PUSH1 0x0 DUP1 REVERT JUMPDEST PUSH2 0x95 PUSH2 0x19E JUMP JUMPDEST PUSH1 0x40 MLOAD PUSH2 0xA2 SWAP2 SWAP1 PUSH2 0x4E6 JUMP JUMPDEST PUSH1 0x40 MLOAD DUP1 SWAP2 SUB SWAP1 RETURN JUMPDEST PUSH2 0xB3 PUSH2 0x1C4 JUMP JUMPDEST PUSH1 0x40 MLOAD PUSH2 0xC0 SWAP2 SWAP1 PUSH2 0x51A JUMP JUMPDEST PUSH1 0x40 MLOAD DUP1 SWAP2 SUB SWAP1 RETURN JUMPDEST PUSH2 0xE3 PUSH1 0x4 DUP1 CALLDATASIZE SUB DUP2 ADD SWAP1 PUSH2 0xDE SWAP2 SWAP1 PUSH2 0x578 JUMP JUMPDEST PUSH2 0x1CA JUMP JUMPDEST STOP JUMPDEST PUSH2 0xFF PUSH1 0x4 DUP1 CALLDATASIZE SUB DUP2 ADD SWAP1 PUSH2 0xFA SWAP2 SWAP1 PUSH2 0x578 JUMP JUMPDEST PUSH2 0x301 JUMP JUMPDEST PUSH1 0x40 MLOAD PUSH2 0x10C SWAP2 SWAP1 PUSH2 0x51A JUMP JUMPDEST PUSH1 0x40 MLOAD DUP1 SWAP2 SUB SWAP1 RETURN JUMPDEST PUSH2 0x12F PUSH1 0x4 DUP1 CALLDATASIZE SUB DUP2 ADD SWAP1 PUSH2 0x12A SWAP2 SWAP1 PUSH2 0x5D1 JUMP JUMPDEST PUSH2 0x319 JUMP JUMPDEST PUSH1 0x40 MLOAD PUSH2 0x13D SWAP3 SWAP2 SWAP1 PUSH2 0x60D JUMP JUMPDEST PUSH1 0x40 MLOAD DUP1 SWAP2 SUB SWAP1 RETURN JUMPDEST PUSH2 0x14E PUSH2 0x35D JUMP JUMPDEST PUSH1 0x40 MLOAD PUSH2 0x15B SWAP2 SWAP1 PUSH2 0x51A JUMP JUMPDEST PUSH1 0x40 MLOAD DUP1 SWAP2 SUB SWAP1 RETURN JUMPDEST PUSH2 0x17E PUSH1 0x4 DUP1 CALLDATASIZE SUB DUP2 ADD SWAP1 PUSH2 0x179 SWAP2 SWAP1 PUSH2 0x636 JUMP JUMPDEST PUSH2 0x363 JUMP JUMPDEST STOP JUMPDEST PUSH2 0x188 PUSH2 0x481 JUMP JUMPDEST PUSH1 0x40 MLOAD PUSH2 0x195 SWAP2 SWAP1 PUSH2 0x676 JUMP JUMPDEST PUSH1 0x40 MLOAD DUP1 SWAP2 SUB SWAP1 RETURN JUMPDEST PUSH1 0x1 PUSH1 0x0 SWAP1 SLOAD SWAP1 PUSH2 0x100 EXP SWAP1 DIV PUSH20 0xFFFFFFFFFFFFFFFFFFFFFFFFFFFFFFFFFFFFFFFF AND DUP2 JUMP JUMPDEST PUSH1 0x5 SLOAD DUP2 JUMP JUMPDEST DUP1 PUSH1 0x1 PUSH1 0x0 PUSH2 0x100 EXP DUP2 SLOAD DUP2 PUSH20 0xFFFFFFFFFFFFFFFFFFFFFFFFFFFFFFFFFFFFFFFF MUL NOT AND SWAP1 DUP4 PUSH20 0xFFFFFFFFFFFFFFFFFFFFFFFFFFFFFFFFFFFFFFFF AND MUL OR SWAP1 SSTORE POP PUSH1 0x0 PUSH1 0x3 PUSH1 0x0 DUP4 PUSH20 0xFFFFFFFFFFFFFFFFFFFFFFFFFFFFFFFFFFFFFFFF AND PUSH20 0xFFFFFFFFFFFFFFFFFFFFFFFFFFFFFFFFFFFFFFFF AND DUP2 MSTORE PUSH1 0x20 ADD SWAP1 DUP2 MSTORE PUSH1 0x20 ADD PUSH1 0x0 KECCAK256 SLOAD SWAP1 POP PUSH1 0x12 DUP2 GT PUSH2 0x292 JUMPI PUSH1 0x40 MLOAD PUSH32 0x8C379A000000000000000000000000000000000000000000000000000000000 DUP2 MSTORE PUSH1 0x4 ADD PUSH2 0x289 SWAP1 PUSH2 0x73A JUMP JUMPDEST PUSH1 0x40 MLOAD DUP1 SWAP2 SUB SWAP1 REVERT JUMPDEST PUSH1 0x1 PUSH1 0x0 SWAP1 SLOAD SWAP1 PUSH2 0x100 EXP SWAP1 DIV PUSH20 0xFFFFFFFFFFFFFFFFFFFFFFFFFFFFFFFFFFFFFFFF AND PUSH20 0xFFFFFFFFFFFFFFFFFFFFFFFFFFFFFFFFFFFFFFFF AND PUSH2 0x8FC PUSH1 0x5 SLOAD SWAP1 DUP2 ISZERO MUL SWAP1 PUSH1 0x40 MLOAD PUSH1 0x0 PUSH1 0x40 MLOAD DUP1 DUP4 SUB DUP2 DUP6 DUP9 DUP9 CALL SWAP4 POP POP POP POP ISZERO DUP1 ISZERO PUSH2 0x2FC JUMPI RETURNDATASIZE PUSH1 0x0 DUP1 RETURNDATACOPY RETURNDATASIZE PUSH1 0x0 REVERT JUMPDEST POP POP POP JUMP JUMPDEST PUSH1 0x3 PUSH1 0x20 MSTORE DUP1 PUSH1 0x0 MSTORE PUSH1 0x40 PUSH1 0x0 KECCAK256 PUSH1 0x0 SWAP2 POP SWAP1 POP SLOAD DUP2 JUMP JUMPDEST PUSH1 0x2 PUSH1 0x20 MSTORE DUP1 PUSH1 0x0 MSTORE PUSH1 0x40 PUSH1 0x0 KECCAK256 PUSH1 0x0 SWAP2 POP SWAP1 POP DUP1 PUSH1 0x0 ADD PUSH1 0x0 SWAP1 SLOAD SWAP1 PUSH2 0x100 EXP SWAP1 DIV PUSH20 0xFFFFFFFFFFFFFFFFFFFFFFFFFFFFFFFFFFFFFFFF AND SWAP1 DUP1 PUSH1 0x1 ADD SLOAD SWAP1 POP DUP3 JUMP JUMPDEST PUSH1 0x4 SLOAD DUP2 JUMP JUMPDEST PUSH1 0x0 DUP1 SLOAD SWAP1 PUSH2 0x100 EXP SWAP1 DIV PUSH20 0xFFFFFFFFFFFFFFFFFFFFFFFFFFFFFFFFFFFFFFFF AND PUSH20 0xFFFFFFFFFFFFFFFFFFFFFFFFFFFFFFFFFFFFFFFF AND CALLER PUSH20 0xFFFFFFFFFFFFFFFFFFFFFFFFFFFFFFFFFFFFFFFF AND EQ PUSH2 0x3BB JUMPI PUSH1 0x0 DUP1 REVERT JUMPDEST PUSH1 0x0 PUSH1 0x2 PUSH1 0x0 PUSH1 0x4 SLOAD DUP2 MSTORE PUSH1 0x20 ADD SWAP1 DUP2 MSTORE PUSH1 0x20 ADD PUSH1 0x0 KECCAK256 SWAP1 POP PUSH1 0x4 PUSH1 0x0 DUP2 SLOAD DUP1 SWAP3 SWAP2 SWAP1 PUSH2 0x3E7 SWAP1 PUSH2 0x789 JUMP JUMPDEST SWAP2 SWAP1 POP SSTORE POP DUP3 DUP2 PUSH1 0x0 ADD PUSH1 0x0 PUSH2 0x100 EXP DUP2 SLOAD DUP2 PUSH20 0xFFFFFFFFFFFFFFFFFFFFFFFFFFFFFFFFFFFFFFFF MUL NOT AND SWAP1 DUP4 PUSH20 0xFFFFFFFFFFFFFFFFFFFFFFFFFFFFFFFFFFFFFFFF AND MUL OR SWAP1 SSTORE POP DUP2 DUP2 PUSH1 0x1 ADD DUP2 SWAP1 SSTORE POP DUP2 PUSH1 0x3 PUSH1 0x0 DUP6 PUSH20 0xFFFFFFFFFFFFFFFFFFFFFFFFFFFFFFFFFFFFFFFF AND PUSH20 0xFFFFFFFFFFFFFFFFFFFFFFFFFFFFFFFFFFFFFFFF AND DUP2 MSTORE PUSH1 0x20 ADD SWAP1 DUP2 MSTORE PUSH1 0x20 ADD PUSH1 0x0 KECCAK256 DUP2 SWAP1 SSTORE POP POP POP POP JUMP JUMPDEST PUSH1 0x0 DUP1 SLOAD SWAP1 PUSH2 0x100 EXP SWAP1 DIV PUSH20 0xFFFFFFFFFFFFFFFFFFFFFFFFFFFFFFFFFFFFFFFF AND DUP2 JUMP JUMPDEST PUSH1 0x0 PUSH20 0xFFFFFFFFFFFFFFFFFFFFFFFFFFFFFFFFFFFFFFFF DUP3 AND SWAP1 POP SWAP2 SWAP1 POP JUMP JUMPDEST PUSH1 0x0 PUSH2 0x4D0 DUP3 PUSH2 0x4A5 JUMP JUMPDEST SWAP1 POP SWAP2 SWAP1 POP JUMP JUMPDEST PUSH2 0x4E0 DUP2 PUSH2 0x4C5 JUMP JUMPDEST DUP3 MSTORE POP POP JUMP JUMPDEST PUSH1 0x0 PUSH1 0x20 DUP3 ADD SWAP1 POP PUSH2 0x4FB PUSH1 0x0 DUP4 ADD DUP5 PUSH2 0x4D7 JUMP JUMPDEST SWAP3 SWAP2 POP POP JUMP JUMPDEST PUSH1 0x0 DUP2 SWAP1 POP SWAP2 SWAP1 POP JUMP JUMPDEST PUSH2 0x514 DUP2 PUSH2 0x501 JUMP JUMPDEST DUP3 MSTORE POP POP JUMP JUMPDEST PUSH1 0x0 PUSH1 0x20 DUP3 ADD SWAP1 POP PUSH2 0x52F PUSH1 0x0 DUP4 ADD DUP5 PUSH2 0x50B JUMP JUMPDEST SWAP3 SWAP2 POP POP JUMP JUMPDEST PUSH1 0x0 DUP1 REVERT JUMPDEST PUSH1 0x0 PUSH2 0x545 DUP3 PUSH2 0x4A5 JUMP JUMPDEST SWAP1 POP SWAP2 SWAP1 POP JUMP JUMPDEST PUSH2 0x555 DUP2 PUSH2 0x53A JUMP JUMPDEST DUP2 EQ PUSH2 0x560 JUMPI PUSH1 0x0 DUP1 REVERT JUMPDEST POP JUMP JUMPDEST PUSH1 0x0 DUP2 CALLDATALOAD SWAP1 POP PUSH2 0x572 DUP2 PUSH2 0x54C JUMP JUMPDEST SWAP3 SWAP2 POP POP JUMP JUMPDEST PUSH1 0x0 PUSH1 0x20 DUP3 DUP5 SUB SLT ISZERO PUSH2 0x58E JUMPI PUSH2 0x58D PUSH2 0x535 JUMP JUMPDEST JUMPDEST PUSH1 0x0 PUSH2 0x59C DUP5 DUP3 DUP6 ADD PUSH2 0x563 JUMP JUMPDEST SWAP2 POP POP SWAP3 SWAP2 POP POP JUMP JUMPDEST PUSH2 0x5AE DUP2 PUSH2 0x501 JUMP JUMPDEST DUP2 EQ PUSH2 0x5B9 JUMPI PUSH1 0x0 DUP1 REVERT JUMPDEST POP JUMP JUMPDEST PUSH1 0x0 DUP2 CALLDATALOAD SWAP1 POP PUSH2 0x5CB DUP2 PUSH2 0x5A5 JUMP JUMPDEST SWAP3 SWAP2 POP POP JUMP JUMPDEST PUSH1 0x0 PUSH1 0x20 DUP3 DUP5 SUB SLT ISZERO PUSH2 0x5E7 JUMPI PUSH2 0x5E6 PUSH2 0x535 JUMP JUMPDEST JUMPDEST PUSH1 0x0 PUSH2 0x5F5 DUP5 DUP3 DUP6 ADD PUSH2 0x5BC JUMP JUMPDEST SWAP2 POP POP SWAP3 SWAP2 POP POP JUMP JUMPDEST PUSH2 0x607 DUP2 PUSH2 0x53A JUMP JUMPDEST DUP3 MSTORE POP POP JUMP JUMPDEST PUSH1 0x0 PUSH1 0x40 DUP3 ADD SWAP1 POP PUSH2 0x622 PUSH1 0x0 DUP4 ADD DUP6 PUSH2 0x5FE JUMP JUMPDEST PUSH2 0x62F PUSH1 0x20 DUP4 ADD DUP5 PUSH2 0x50B JUMP JUMPDEST SWAP4 SWAP3 POP POP POP JUMP JUMPDEST PUSH1 0x0 DUP1 PUSH1 0x40 DUP4 DUP6 SUB SLT ISZERO PUSH2 0x64D JUMPI PUSH2 0x64C PUSH2 0x535 JUMP JUMPDEST JUMPDEST PUSH1 0x0 PUSH2 0x65B DUP6 DUP3 DUP7 ADD PUSH2 0x563 JUMP JUMPDEST SWAP3 POP POP PUSH1 0x20 PUSH2 0x66C DUP6 DUP3 DUP7 ADD PUSH2 0x5BC JUMP JUMPDEST SWAP2 POP POP SWAP3 POP SWAP3 SWAP1 POP JUMP JUMPDEST PUSH1 0x0 PUSH1 0x20 DUP3 ADD SWAP1 POP PUSH2 0x68B PUSH1 0x0 DUP4 ADD DUP5 PUSH2 0x5FE JUMP JUMPDEST SWAP3 SWAP2 POP POP JUMP JUMPDEST PUSH1 0x0 DUP3 DUP3 MSTORE PUSH1 0x20 DUP3 ADD SWAP1 POP SWAP3 SWAP2 POP POP JUMP JUMPDEST PUSH32 0x596F7520617265207374696C6C206E6F7420796F756E6720656E6F7567682074 PUSH1 0x0 DUP3 ADD MSTORE PUSH32 0x6F20676574207468652065746865722066726F6D20796F7572206772616E6470 PUSH1 0x20 DUP3 ADD MSTORE PUSH32 0x612E000000000000000000000000000000000000000000000000000000000000 PUSH1 0x40 DUP3 ADD MSTORE POP JUMP JUMPDEST PUSH1 0x0 PUSH2 0x724 PUSH1 0x42 DUP4 PUSH2 0x691 JUMP JUMPDEST SWAP2 POP PUSH2 0x72F DUP3 PUSH2 0x6A2 JUMP JUMPDEST PUSH1 0x60 DUP3 ADD SWAP1 POP SWAP2 SWAP1 POP JUMP JUMPDEST PUSH1 0x0 PUSH1 0x20 DUP3 ADD SWAP1 POP DUP2 DUP2 SUB PUSH1 0x0 DUP4 ADD MSTORE PUSH2 0x753 DUP2 PUSH2 0x717 JUMP JUMPDEST SWAP1 POP SWAP2 SWAP1 POP JUMP JUMPDEST PUSH32 0x4E487B7100000000000000000000000000000000000000000000000000000000 PUSH1 0x0 MSTORE PUSH1 0x11 PUSH1 0x4 MSTORE PUSH1 0x24 PUSH1 0x0 REVERT JUMPDEST PUSH1 0x0 PUSH2 0x794 DUP3 PUSH2 0x501 JUMP JUMPDEST SWAP2 POP PUSH32 0xFFFFFFFFFFFFFFFFFFFFFFFFFFFFFFFFFFFFFFFFFFFFFFFFFFFFFFFFFFFFFFFF DUP3 SUB PUSH2 0x7C6 JUMPI PUSH2 0x7C5 PUSH2 0x75A JUMP JUMPDEST JUMPDEST PUSH1 0x1 DUP3 ADD SWAP1 POP SWAP2 SWAP1 POP JUMP INVALID LOG2 PUSH5 0x6970667358 0x22 SLT KECCAK256 PUSH11 0x60165208D82DD6B1E8B6FC 0xDD 0xD8 CALLCODE SMOD 0xC1 0xEA CREATE BALANCE 0xF7 0xAE SLOAD PUSH6 0xD7816874A115 MSTORE8 0xD9 PUSH5 0x736F6C6343 STOP ADDMOD 0xD STOP CALLER "
				},
				"gasEstimates": {
					"creation": {
						"codeDepositCost": "411000",
						"executionCost": "infinite",
						"totalCost": "infinite"
					},
					"external": {
						"address_kid()": "2515",
						"grandpa()": "2577",
						"kid(address)": "2881",
						"kids_entry(address,uint256)": "infinite",
						"numRequests()": "2451",
						"requests(uint256)": "infinite",
						"transferingAmount()": "2452",
						"withdraw(address)": "infinite"
					}
				},
				"methodIdentifiers": {
					"address_kid()": "24ca53c2",
					"grandpa()": "d5ebe7f8",
					"kid(address)": "6f6b4069",
					"kids_entry(address,uint256)": "d42cd5a9",
					"numRequests()": "9fb42b1f",
					"requests(uint256)": "81d12c58",
					"transferingAmount()": "3f5a7d48",
					"withdraw(address)": "51cff8d9"
				}
			},
			"userdoc": {
				"kind": "user",
				"methods": {},
				"version": 1
			}
		}
	}
}