{
	"contracts/Crypto Kids/Cryptokids.sol": {
		"CryptoKids": {
			"abi": [
				{
					"inputs": [
						{
							"internalType": "uint256",
							"name": "_transferingAmount",
							"type": "uint256"
						}
					],
					"stateMutability": "nonpayable",
					"type": "constructor"
				},
				{
					"inputs": [],
					"name": "grandpa",
					"outputs": [
						{
							"internalType": "address",
							"name": "",
							"type": "address"
						}
					],
					"stateMutability": "view",
					"type": "function"
				},
				{
					"inputs": [
						{
							"internalType": "address",
							"name": "",
							"type": "address"
						}
					],
					"name": "kid",
					"outputs": [
						{
							"internalType": "uint256",
							"name": "",
							"type": "uint256"
						}
					],
					"stateMutability": "view",
					"type": "function"
				},
				{
					"inputs": [
						{
							"internalType": "address",
							"name": "_kid",
							"type": "address"
						},
						{
							"internalType": "uint256",
							"name": "_age",
							"type": "uint256"
						}
					],
					"name": "kids_entry",
					"outputs": [],
					"stateMutability": "nonpayable",
					"type": "function"
				},
				{
					"inputs": [],
					"name": "numRequests",
					"outputs": [
						{
							"internalType": "uint256",
							"name": "",
							"type": "uint256"
						}
					],
					"stateMutability": "view",
					"type": "function"
				},
				{
					"inputs": [
						{
							"internalType": "uint256",
							"name": "",
							"type": "uint256"
						}
					],
					"name": "requests",
					"outputs": [
						{
							"internalType": "address",
							"name": "address_kid",
							"type": "address"
						},
						{
							"internalType": "uint256",
							"name": "age",
							"type": "uint256"
						}
					],
					"stateMutability": "view",
					"type": "function"
				},
				{
					"inputs": [
						{
							"internalType": "address payable",
							"name": "address_kid",
							"type": "address"
						}
					],
					"name": "withdraw",
					"outputs": [],
					"stateMutability": "nonpayable",
					"type": "function"
				}
			],
			"devdoc": {
				"kind": "dev",
				"methods": {},
				"version": 1
			},
			"evm": {
				"assembly": "    /* \"contracts/Crypto Kids/Cryptokids.sol\":61:1094  contract CryptoKids {... */\n  mstore(0x40, 0x80)\n    /* \"contracts/Crypto Kids/Cryptokids.sol\":346:470  constructor(uint _transferingAmount){... */\n  callvalue\n  dup1\n  iszero\n  tag_1\n  jumpi\n  0x00\n  dup1\n  revert\ntag_1:\n  pop\n  mload(0x40)\n  sub(codesize, bytecodeSize)\n  dup1\n  bytecodeSize\n  dup4\n  codecopy\n  dup2\n  dup2\n  add\n  0x40\n  mstore\n  dup2\n  add\n  swap1\n  tag_2\n  swap2\n  swap1\n  tag_3\n  jump\t// in\ntag_2:\n    /* \"contracts/Crypto Kids/Cryptokids.sol\":403:413  msg.sender */\n  caller\n    /* \"contracts/Crypto Kids/Cryptokids.sol\":393:400  grandpa */\n  0x00\n  dup1\n    /* \"contracts/Crypto Kids/Cryptokids.sol\":393:413  grandpa = msg.sender */\n  0x0100\n  exp\n  dup2\n  sload\n  dup2\n  0xffffffffffffffffffffffffffffffffffffffff\n  mul\n  not\n  and\n  swap1\n  dup4\n  0xffffffffffffffffffffffffffffffffffffffff\n  and\n  mul\n  or\n  swap1\n  sstore\n  pop\n    /* \"contracts/Crypto Kids/Cryptokids.sol\":444:462  _transferingAmount */\n  dup1\n    /* \"contracts/Crypto Kids/Cryptokids.sol\":424:441  transferingAmount */\n  0x04\n    /* \"contracts/Crypto Kids/Cryptokids.sol\":424:462  transferingAmount = _transferingAmount */\n  dup2\n  swap1\n  sstore\n  pop\n    /* \"contracts/Crypto Kids/Cryptokids.sol\":346:470  constructor(uint _transferingAmount){... */\n  pop\n    /* \"contracts/Crypto Kids/Cryptokids.sol\":61:1094  contract CryptoKids {... */\n  jump(tag_6)\n    /* \"#utility.yul\":88:205   */\ntag_8:\n    /* \"#utility.yul\":197:198   */\n  0x00\n    /* \"#utility.yul\":194:195   */\n  dup1\n    /* \"#utility.yul\":187:199   */\n  revert\n    /* \"#utility.yul\":334:411   */\ntag_10:\n    /* \"#utility.yul\":371:378   */\n  0x00\n    /* \"#utility.yul\":400:405   */\n  dup2\n    /* \"#utility.yul\":389:405   */\n  swap1\n  pop\n    /* \"#utility.yul\":334:411   */\n  swap2\n  swap1\n  pop\n  jump\t// out\n    /* \"#utility.yul\":417:539   */\ntag_11:\n    /* \"#utility.yul\":490:514   */\n  tag_19\n    /* \"#utility.yul\":508:513   */\n  dup2\n    /* \"#utility.yul\":490:514   */\n  tag_10\n  jump\t// in\ntag_19:\n    /* \"#utility.yul\":483:488   */\n  dup2\n    /* \"#utility.yul\":480:515   */\n  eq\n    /* \"#utility.yul\":470:533   */\n  tag_20\n  jumpi\n    /* \"#utility.yul\":529:530   */\n  0x00\n    /* \"#utility.yul\":526:527   */\n  dup1\n    /* \"#utility.yul\":519:531   */\n  revert\n    /* \"#utility.yul\":470:533   */\ntag_20:\n    /* \"#utility.yul\":417:539   */\n  pop\n  jump\t// out\n    /* \"#utility.yul\":545:688   */\ntag_12:\n    /* \"#utility.yul\":602:607   */\n  0x00\n    /* \"#utility.yul\":633:639   */\n  dup2\n    /* \"#utility.yul\":627:640   */\n  mload\n    /* \"#utility.yul\":618:640   */\n  swap1\n  pop\n    /* \"#utility.yul\":649:682   */\n  tag_22\n    /* \"#utility.yul\":676:681   */\n  dup2\n    /* \"#utility.yul\":649:682   */\n  tag_11\n  jump\t// in\ntag_22:\n    /* \"#utility.yul\":545:688   */\n  swap3\n  swap2\n  pop\n  pop\n  jump\t// out\n    /* \"#utility.yul\":694:1045   */\ntag_3:\n    /* \"#utility.yul\":764:770   */\n  0x00\n    /* \"#utility.yul\":813:815   */\n  0x20\n    /* \"#utility.yul\":801:810   */\n  dup3\n    /* \"#utility.yul\":792:799   */\n  dup5\n    /* \"#utility.yul\":788:811   */\n  sub\n    /* \"#utility.yul\":784:816   */\n  slt\n    /* \"#utility.yul\":781:900   */\n  iszero\n  tag_24\n  jumpi\n    /* \"#utility.yul\":819:898   */\n  tag_25\n  tag_8\n  jump\t// in\ntag_25:\n    /* \"#utility.yul\":781:900   */\ntag_24:\n    /* \"#utility.yul\":939:940   */\n  0x00\n    /* \"#utility.yul\":964:1028   */\n  tag_26\n    /* \"#utility.yul\":1020:1027   */\n  dup5\n    /* \"#utility.yul\":1011:1017   */\n  dup3\n    /* \"#utility.yul\":1000:1009   */\n  dup6\n    /* \"#utility.yul\":996:1018   */\n  add\n    /* \"#utility.yul\":964:1028   */\n  tag_12\n  jump\t// in\ntag_26:\n    /* \"#utility.yul\":954:1028   */\n  swap2\n  pop\n    /* \"#utility.yul\":910:1038   */\n  pop\n    /* \"#utility.yul\":694:1045   */\n  swap3\n  swap2\n  pop\n  pop\n  jump\t// out\n    /* \"contracts/Crypto Kids/Cryptokids.sol\":61:1094  contract CryptoKids {... */\ntag_6:\n  dataSize(sub_0)\n  dup1\n  dataOffset(sub_0)\n  0x00\n  codecopy\n  0x00\n  return\nstop\n\nsub_0: assembly {\n        /* \"contracts/Crypto Kids/Cryptokids.sol\":61:1094  contract CryptoKids {... */\n      mstore(0x40, 0x80)\n      callvalue\n      dup1\n      iszero\n      tag_1\n      jumpi\n      0x00\n      dup1\n      revert\n    tag_1:\n      pop\n      jumpi(tag_2, lt(calldatasize, 0x04))\n      shr(0xe0, calldataload(0x00))\n      dup1\n      0x51cff8d9\n      eq\n      tag_3\n      jumpi\n      dup1\n      0x6f6b4069\n      eq\n      tag_4\n      jumpi\n      dup1\n      0x81d12c58\n      eq\n      tag_5\n      jumpi\n      dup1\n      0x9fb42b1f\n      eq\n      tag_6\n      jumpi\n      dup1\n      0xd42cd5a9\n      eq\n      tag_7\n      jumpi\n      dup1\n      0xd5ebe7f8\n      eq\n      tag_8\n      jumpi\n    tag_2:\n      0x00\n      dup1\n      revert\n        /* \"contracts/Crypto Kids/Cryptokids.sol\":803:1091  function withdraw(address payable address_kid) public {... */\n    tag_3:\n      tag_9\n      0x04\n      dup1\n      calldatasize\n      sub\n      dup2\n      add\n      swap1\n      tag_10\n      swap2\n      swap1\n      tag_11\n      jump\t// in\n    tag_10:\n      tag_12\n      jump\t// in\n    tag_9:\n      stop\n        /* \"contracts/Crypto Kids/Cryptokids.sol\":245:278  mapping(address=>uint) public kid */\n    tag_4:\n      tag_13\n      0x04\n      dup1\n      calldatasize\n      sub\n      dup2\n      add\n      swap1\n      tag_14\n      swap2\n      swap1\n      tag_15\n      jump\t// in\n    tag_14:\n      tag_16\n      jump\t// in\n    tag_13:\n      mload(0x40)\n      tag_17\n      swap2\n      swap1\n      tag_18\n      jump\t// in\n    tag_17:\n      mload(0x40)\n      dup1\n      swap2\n      sub\n      swap1\n      return\n        /* \"contracts/Crypto Kids/Cryptokids.sol\":199:238  mapping(uint=>KidsInfo) public requests */\n    tag_5:\n      tag_19\n      0x04\n      dup1\n      calldatasize\n      sub\n      dup2\n      add\n      swap1\n      tag_20\n      swap2\n      swap1\n      tag_21\n      jump\t// in\n    tag_20:\n      tag_22\n      jump\t// in\n    tag_19:\n      mload(0x40)\n      tag_23\n      swap3\n      swap2\n      swap1\n      tag_24\n      jump\t// in\n    tag_23:\n      mload(0x40)\n      dup1\n      swap2\n      sub\n      swap1\n      return\n        /* \"contracts/Crypto Kids/Cryptokids.sol\":285:308  uint public numRequests */\n    tag_6:\n      tag_25\n      tag_26\n      jump\t// in\n    tag_25:\n      mload(0x40)\n      tag_27\n      swap2\n      swap1\n      tag_18\n      jump\t// in\n    tag_27:\n      mload(0x40)\n      dup1\n      swap2\n      sub\n      swap1\n      return\n        /* \"contracts/Crypto Kids/Cryptokids.sol\":568:795  function kids_entry(address _kid, uint256 _age) onlyGrandpa public {... */\n    tag_7:\n      tag_28\n      0x04\n      dup1\n      calldatasize\n      sub\n      dup2\n      add\n      swap1\n      tag_29\n      swap2\n      swap1\n      tag_30\n      jump\t// in\n    tag_29:\n      tag_31\n      jump\t// in\n    tag_28:\n      stop\n        /* \"contracts/Crypto Kids/Cryptokids.sol\":88:110  address public grandpa */\n    tag_8:\n      tag_32\n      tag_33\n      jump\t// in\n    tag_32:\n      mload(0x40)\n      tag_34\n      swap2\n      swap1\n      tag_35\n      jump\t// in\n    tag_34:\n      mload(0x40)\n      dup1\n      swap2\n      sub\n      swap1\n      return\n        /* \"contracts/Crypto Kids/Cryptokids.sol\":803:1091  function withdraw(address payable address_kid) public {... */\n    tag_12:\n        /* \"contracts/Crypto Kids/Cryptokids.sol\":868:883  uint age_of_kid */\n      0x00\n        /* \"contracts/Crypto Kids/Cryptokids.sol\":886:889  kid */\n      0x02\n        /* \"contracts/Crypto Kids/Cryptokids.sol\":886:902  kid[address_kid] */\n      0x00\n        /* \"contracts/Crypto Kids/Cryptokids.sol\":890:901  address_kid */\n      dup4\n        /* \"contracts/Crypto Kids/Cryptokids.sol\":886:902  kid[address_kid] */\n      0xffffffffffffffffffffffffffffffffffffffff\n      and\n      0xffffffffffffffffffffffffffffffffffffffff\n      and\n      dup2\n      mstore\n      0x20\n      add\n      swap1\n      dup2\n      mstore\n      0x20\n      add\n      0x00\n      keccak256\n      sload\n        /* \"contracts/Crypto Kids/Cryptokids.sol\":868:902  uint age_of_kid = kid[address_kid] */\n      swap1\n      pop\n        /* \"contracts/Crypto Kids/Cryptokids.sol\":935:949  18*365*24*3600 */\n      0x21d59f00\n        /* \"contracts/Crypto Kids/Cryptokids.sol\":921:931  age_of_kid */\n      dup2\n        /* \"contracts/Crypto Kids/Cryptokids.sol\":921:949  age_of_kid <= 18*365*24*3600 */\n      gt\n      iszero\n        /* \"contracts/Crypto Kids/Cryptokids.sol\":913:1019  require(age_of_kid <= 18*365*24*3600,\"You are still not young enough to get the ether from your grandpa.\") */\n      tag_37\n      jumpi\n      mload(0x40)\n      0x08c379a000000000000000000000000000000000000000000000000000000000\n      dup2\n      mstore\n      0x04\n      add\n      tag_38\n      swap1\n      tag_39\n      jump\t// in\n    tag_38:\n      mload(0x40)\n      dup1\n      swap2\n      sub\n      swap1\n      revert\n    tag_37:\n        /* \"contracts/Crypto Kids/Cryptokids.sol\":1030:1041  address_kid */\n      dup2\n        /* \"contracts/Crypto Kids/Cryptokids.sol\":1030:1050  address_kid.transfer */\n      0xffffffffffffffffffffffffffffffffffffffff\n      and\n        /* \"contracts/Crypto Kids/Cryptokids.sol\":1030:1069  address_kid.transfer(transferingAmount) */\n      0x08fc\n        /* \"contracts/Crypto Kids/Cryptokids.sol\":1051:1068  transferingAmount */\n      sload(0x04)\n        /* \"contracts/Crypto Kids/Cryptokids.sol\":1030:1069  address_kid.transfer(transferingAmount) */\n      swap1\n      dup2\n      iszero\n      mul\n      swap1\n      mload(0x40)\n      0x00\n      mload(0x40)\n      dup1\n      dup4\n      sub\n      dup2\n      dup6\n      dup9\n      dup9\n      call\n      swap4\n      pop\n      pop\n      pop\n      pop\n      iszero\n      dup1\n      iszero\n      tag_41\n      jumpi\n      returndatasize\n      0x00\n      dup1\n      returndatacopy\n      revert(0x00, returndatasize)\n    tag_41:\n      pop\n        /* \"contracts/Crypto Kids/Cryptokids.sol\":857:1091  {... */\n      pop\n        /* \"contracts/Crypto Kids/Cryptokids.sol\":803:1091  function withdraw(address payable address_kid) public {... */\n      pop\n      jump\t// out\n        /* \"contracts/Crypto Kids/Cryptokids.sol\":245:278  mapping(address=>uint) public kid */\n    tag_16:\n      mstore(0x20, 0x02)\n      dup1\n      0x00\n      mstore\n      keccak256(0x00, 0x40)\n      0x00\n      swap2\n      pop\n      swap1\n      pop\n      sload\n      dup2\n      jump\t// out\n        /* \"contracts/Crypto Kids/Cryptokids.sol\":199:238  mapping(uint=>KidsInfo) public requests */\n    tag_22:\n      mstore(0x20, 0x01)\n      dup1\n      0x00\n      mstore\n      keccak256(0x00, 0x40)\n      0x00\n      swap2\n      pop\n      swap1\n      pop\n      dup1\n      0x00\n      add\n      0x00\n      swap1\n      sload\n      swap1\n      0x0100\n      exp\n      swap1\n      div\n      0xffffffffffffffffffffffffffffffffffffffff\n      and\n      swap1\n      dup1\n      0x01\n      add\n      sload\n      swap1\n      pop\n      dup3\n      jump\t// out\n        /* \"contracts/Crypto Kids/Cryptokids.sol\":285:308  uint public numRequests */\n    tag_26:\n      sload(0x03)\n      dup2\n      jump\t// out\n        /* \"contracts/Crypto Kids/Cryptokids.sol\":568:795  function kids_entry(address _kid, uint256 _age) onlyGrandpa public {... */\n    tag_31:\n        /* \"contracts/Crypto Kids/Cryptokids.sol\":532:539  grandpa */\n      0x00\n      dup1\n      sload\n      swap1\n      0x0100\n      exp\n      swap1\n      div\n      0xffffffffffffffffffffffffffffffffffffffff\n      and\n        /* \"contracts/Crypto Kids/Cryptokids.sol\":518:539  msg.sender == grandpa */\n      0xffffffffffffffffffffffffffffffffffffffff\n      and\n        /* \"contracts/Crypto Kids/Cryptokids.sol\":518:528  msg.sender */\n      caller\n        /* \"contracts/Crypto Kids/Cryptokids.sol\":518:539  msg.sender == grandpa */\n      0xffffffffffffffffffffffffffffffffffffffff\n      and\n      eq\n        /* \"contracts/Crypto Kids/Cryptokids.sol\":510:540  require(msg.sender == grandpa) */\n      tag_43\n      jumpi\n      0x00\n      dup1\n      revert\n    tag_43:\n        /* \"contracts/Crypto Kids/Cryptokids.sol\":646:671  KidsInfo storage kidsinfo */\n      0x00\n        /* \"contracts/Crypto Kids/Cryptokids.sol\":674:682  requests */\n      0x01\n        /* \"contracts/Crypto Kids/Cryptokids.sol\":674:695  requests[numRequests] */\n      0x00\n        /* \"contracts/Crypto Kids/Cryptokids.sol\":683:694  numRequests */\n      sload(0x03)\n        /* \"contracts/Crypto Kids/Cryptokids.sol\":674:695  requests[numRequests] */\n      dup2\n      mstore\n      0x20\n      add\n      swap1\n      dup2\n      mstore\n      0x20\n      add\n      0x00\n      keccak256\n        /* \"contracts/Crypto Kids/Cryptokids.sol\":646:695  KidsInfo storage kidsinfo = requests[numRequests] */\n      swap1\n      pop\n        /* \"contracts/Crypto Kids/Cryptokids.sol\":706:717  numRequests */\n      0x03\n      0x00\n        /* \"contracts/Crypto Kids/Cryptokids.sol\":706:719  numRequests++ */\n      dup2\n      sload\n      dup1\n      swap3\n      swap2\n      swap1\n      tag_45\n      swap1\n      tag_46\n      jump\t// in\n    tag_45:\n      swap2\n      swap1\n      pop\n      sstore\n      pop\n        /* \"contracts/Crypto Kids/Cryptokids.sol\":753:757  _kid */\n      dup3\n        /* \"contracts/Crypto Kids/Cryptokids.sol\":730:738  kidsinfo */\n      dup2\n        /* \"contracts/Crypto Kids/Cryptokids.sol\":730:750  kidsinfo.address_kid */\n      0x00\n      add\n      0x00\n        /* \"contracts/Crypto Kids/Cryptokids.sol\":730:757  kidsinfo.address_kid = _kid */\n      0x0100\n      exp\n      dup2\n      sload\n      dup2\n      0xffffffffffffffffffffffffffffffffffffffff\n      mul\n      not\n      and\n      swap1\n      dup4\n      0xffffffffffffffffffffffffffffffffffffffff\n      and\n      mul\n      or\n      swap1\n      sstore\n      pop\n        /* \"contracts/Crypto Kids/Cryptokids.sol\":783:787  _age */\n      dup2\n        /* \"contracts/Crypto Kids/Cryptokids.sol\":768:776  kidsinfo */\n      dup2\n        /* \"contracts/Crypto Kids/Cryptokids.sol\":768:780  kidsinfo.age */\n      0x01\n      add\n        /* \"contracts/Crypto Kids/Cryptokids.sol\":768:787  kidsinfo.age = _age */\n      dup2\n      swap1\n      sstore\n      pop\n        /* \"contracts/Crypto Kids/Cryptokids.sol\":635:795  {... */\n      pop\n        /* \"contracts/Crypto Kids/Cryptokids.sol\":568:795  function kids_entry(address _kid, uint256 _age) onlyGrandpa public {... */\n      pop\n      pop\n      jump\t// out\n        /* \"contracts/Crypto Kids/Cryptokids.sol\":88:110  address public grandpa */\n    tag_33:\n      0x00\n      dup1\n      sload\n      swap1\n      0x0100\n      exp\n      swap1\n      div\n      0xffffffffffffffffffffffffffffffffffffffff\n      and\n      dup2\n      jump\t// out\n        /* \"#utility.yul\":88:205   */\n    tag_48:\n        /* \"#utility.yul\":197:198   */\n      0x00\n        /* \"#utility.yul\":194:195   */\n      dup1\n        /* \"#utility.yul\":187:199   */\n      revert\n        /* \"#utility.yul\":334:460   */\n    tag_50:\n        /* \"#utility.yul\":371:378   */\n      0x00\n        /* \"#utility.yul\":411:453   */\n      0xffffffffffffffffffffffffffffffffffffffff\n        /* \"#utility.yul\":404:409   */\n      dup3\n        /* \"#utility.yul\":400:454   */\n      and\n        /* \"#utility.yul\":389:454   */\n      swap1\n      pop\n        /* \"#utility.yul\":334:460   */\n      swap2\n      swap1\n      pop\n      jump\t// out\n        /* \"#utility.yul\":466:570   */\n    tag_51:\n        /* \"#utility.yul\":511:518   */\n      0x00\n        /* \"#utility.yul\":540:564   */\n      tag_72\n        /* \"#utility.yul\":558:563   */\n      dup3\n        /* \"#utility.yul\":540:564   */\n      tag_50\n      jump\t// in\n    tag_72:\n        /* \"#utility.yul\":529:564   */\n      swap1\n      pop\n        /* \"#utility.yul\":466:570   */\n      swap2\n      swap1\n      pop\n      jump\t// out\n        /* \"#utility.yul\":576:714   */\n    tag_52:\n        /* \"#utility.yul\":657:689   */\n      tag_74\n        /* \"#utility.yul\":683:688   */\n      dup2\n        /* \"#utility.yul\":657:689   */\n      tag_51\n      jump\t// in\n    tag_74:\n        /* \"#utility.yul\":650:655   */\n      dup2\n        /* \"#utility.yul\":647:690   */\n      eq\n        /* \"#utility.yul\":637:708   */\n      tag_75\n      jumpi\n        /* \"#utility.yul\":704:705   */\n      0x00\n        /* \"#utility.yul\":701:702   */\n      dup1\n        /* \"#utility.yul\":694:706   */\n      revert\n        /* \"#utility.yul\":637:708   */\n    tag_75:\n        /* \"#utility.yul\":576:714   */\n      pop\n      jump\t// out\n        /* \"#utility.yul\":720:875   */\n    tag_53:\n        /* \"#utility.yul\":774:779   */\n      0x00\n        /* \"#utility.yul\":812:818   */\n      dup2\n        /* \"#utility.yul\":799:819   */\n      calldataload\n        /* \"#utility.yul\":790:819   */\n      swap1\n      pop\n        /* \"#utility.yul\":828:869   */\n      tag_77\n        /* \"#utility.yul\":863:868   */\n      dup2\n        /* \"#utility.yul\":828:869   */\n      tag_52\n      jump\t// in\n    tag_77:\n        /* \"#utility.yul\":720:875   */\n      swap3\n      swap2\n      pop\n      pop\n      jump\t// out\n        /* \"#utility.yul\":881:1226   */\n    tag_11:\n        /* \"#utility.yul\":948:954   */\n      0x00\n        /* \"#utility.yul\":997:999   */\n      0x20\n        /* \"#utility.yul\":985:994   */\n      dup3\n        /* \"#utility.yul\":976:983   */\n      dup5\n        /* \"#utility.yul\":972:995   */\n      sub\n        /* \"#utility.yul\":968:1000   */\n      slt\n        /* \"#utility.yul\":965:1084   */\n      iszero\n      tag_79\n      jumpi\n        /* \"#utility.yul\":1003:1082   */\n      tag_80\n      tag_48\n      jump\t// in\n    tag_80:\n        /* \"#utility.yul\":965:1084   */\n    tag_79:\n        /* \"#utility.yul\":1123:1124   */\n      0x00\n        /* \"#utility.yul\":1148:1209   */\n      tag_81\n        /* \"#utility.yul\":1201:1208   */\n      dup5\n        /* \"#utility.yul\":1192:1198   */\n      dup3\n        /* \"#utility.yul\":1181:1190   */\n      dup6\n        /* \"#utility.yul\":1177:1199   */\n      add\n        /* \"#utility.yul\":1148:1209   */\n      tag_53\n      jump\t// in\n    tag_81:\n        /* \"#utility.yul\":1138:1209   */\n      swap2\n      pop\n        /* \"#utility.yul\":1094:1219   */\n      pop\n        /* \"#utility.yul\":881:1226   */\n      swap3\n      swap2\n      pop\n      pop\n      jump\t// out\n        /* \"#utility.yul\":1232:1328   */\n    tag_54:\n        /* \"#utility.yul\":1269:1276   */\n      0x00\n        /* \"#utility.yul\":1298:1322   */\n      tag_83\n        /* \"#utility.yul\":1316:1321   */\n      dup3\n        /* \"#utility.yul\":1298:1322   */\n      tag_50\n      jump\t// in\n    tag_83:\n        /* \"#utility.yul\":1287:1322   */\n      swap1\n      pop\n        /* \"#utility.yul\":1232:1328   */\n      swap2\n      swap1\n      pop\n      jump\t// out\n        /* \"#utility.yul\":1334:1456   */\n    tag_55:\n        /* \"#utility.yul\":1407:1431   */\n      tag_85\n        /* \"#utility.yul\":1425:1430   */\n      dup2\n        /* \"#utility.yul\":1407:1431   */\n      tag_54\n      jump\t// in\n    tag_85:\n        /* \"#utility.yul\":1400:1405   */\n      dup2\n        /* \"#utility.yul\":1397:1432   */\n      eq\n        /* \"#utility.yul\":1387:1450   */\n      tag_86\n      jumpi\n        /* \"#utility.yul\":1446:1447   */\n      0x00\n        /* \"#utility.yul\":1443:1444   */\n      dup1\n        /* \"#utility.yul\":1436:1448   */\n      revert\n        /* \"#utility.yul\":1387:1450   */\n    tag_86:\n        /* \"#utility.yul\":1334:1456   */\n      pop\n      jump\t// out\n        /* \"#utility.yul\":1462:1601   */\n    tag_56:\n        /* \"#utility.yul\":1508:1513   */\n      0x00\n        /* \"#utility.yul\":1546:1552   */\n      dup2\n        /* \"#utility.yul\":1533:1553   */\n      calldataload\n        /* \"#utility.yul\":1524:1553   */\n      swap1\n      pop\n        /* \"#utility.yul\":1562:1595   */\n      tag_88\n        /* \"#utility.yul\":1589:1594   */\n      dup2\n        /* \"#utility.yul\":1562:1595   */\n      tag_55\n      jump\t// in\n    tag_88:\n        /* \"#utility.yul\":1462:1601   */\n      swap3\n      swap2\n      pop\n      pop\n      jump\t// out\n        /* \"#utility.yul\":1607:1936   */\n    tag_15:\n        /* \"#utility.yul\":1666:1672   */\n      0x00\n        /* \"#utility.yul\":1715:1717   */\n      0x20\n        /* \"#utility.yul\":1703:1712   */\n      dup3\n        /* \"#utility.yul\":1694:1701   */\n      dup5\n        /* \"#utility.yul\":1690:1713   */\n      sub\n        /* \"#utility.yul\":1686:1718   */\n      slt\n        /* \"#utility.yul\":1683:1802   */\n      iszero\n      tag_90\n      jumpi\n        /* \"#utility.yul\":1721:1800   */\n      tag_91\n      tag_48\n      jump\t// in\n    tag_91:\n        /* \"#utility.yul\":1683:1802   */\n    tag_90:\n        /* \"#utility.yul\":1841:1842   */\n      0x00\n        /* \"#utility.yul\":1866:1919   */\n      tag_92\n        /* \"#utility.yul\":1911:1918   */\n      dup5\n        /* \"#utility.yul\":1902:1908   */\n      dup3\n        /* \"#utility.yul\":1891:1900   */\n      dup6\n        /* \"#utility.yul\":1887:1909   */\n      add\n        /* \"#utility.yul\":1866:1919   */\n      tag_56\n      jump\t// in\n    tag_92:\n        /* \"#utility.yul\":1856:1919   */\n      swap2\n      pop\n        /* \"#utility.yul\":1812:1929   */\n      pop\n        /* \"#utility.yul\":1607:1936   */\n      swap3\n      swap2\n      pop\n      pop\n      jump\t// out\n        /* \"#utility.yul\":1942:2019   */\n    tag_57:\n        /* \"#utility.yul\":1979:1986   */\n      0x00\n        /* \"#utility.yul\":2008:2013   */\n      dup2\n        /* \"#utility.yul\":1997:2013   */\n      swap1\n      pop\n        /* \"#utility.yul\":1942:2019   */\n      swap2\n      swap1\n      pop\n      jump\t// out\n        /* \"#utility.yul\":2025:2143   */\n    tag_58:\n        /* \"#utility.yul\":2112:2136   */\n      tag_95\n        /* \"#utility.yul\":2130:2135   */\n      dup2\n        /* \"#utility.yul\":2112:2136   */\n      tag_57\n      jump\t// in\n    tag_95:\n        /* \"#utility.yul\":2107:2110   */\n      dup3\n        /* \"#utility.yul\":2100:2137   */\n      mstore\n        /* \"#utility.yul\":2025:2143   */\n      pop\n      pop\n      jump\t// out\n        /* \"#utility.yul\":2149:2371   */\n    tag_18:\n        /* \"#utility.yul\":2242:2246   */\n      0x00\n        /* \"#utility.yul\":2280:2282   */\n      0x20\n        /* \"#utility.yul\":2269:2278   */\n      dup3\n        /* \"#utility.yul\":2265:2283   */\n      add\n        /* \"#utility.yul\":2257:2283   */\n      swap1\n      pop\n        /* \"#utility.yul\":2293:2364   */\n      tag_97\n        /* \"#utility.yul\":2361:2362   */\n      0x00\n        /* \"#utility.yul\":2350:2359   */\n      dup4\n        /* \"#utility.yul\":2346:2363   */\n      add\n        /* \"#utility.yul\":2337:2343   */\n      dup5\n        /* \"#utility.yul\":2293:2364   */\n      tag_58\n      jump\t// in\n    tag_97:\n        /* \"#utility.yul\":2149:2371   */\n      swap3\n      swap2\n      pop\n      pop\n      jump\t// out\n        /* \"#utility.yul\":2377:2499   */\n    tag_59:\n        /* \"#utility.yul\":2450:2474   */\n      tag_99\n        /* \"#utility.yul\":2468:2473   */\n      dup2\n        /* \"#utility.yul\":2450:2474   */\n      tag_57\n      jump\t// in\n    tag_99:\n        /* \"#utility.yul\":2443:2448   */\n      dup2\n        /* \"#utility.yul\":2440:2475   */\n      eq\n        /* \"#utility.yul\":2430:2493   */\n      tag_100\n      jumpi\n        /* \"#utility.yul\":2489:2490   */\n      0x00\n        /* \"#utility.yul\":2486:2487   */\n      dup1\n        /* \"#utility.yul\":2479:2491   */\n      revert\n        /* \"#utility.yul\":2430:2493   */\n    tag_100:\n        /* \"#utility.yul\":2377:2499   */\n      pop\n      jump\t// out\n        /* \"#utility.yul\":2505:2644   */\n    tag_60:\n        /* \"#utility.yul\":2551:2556   */\n      0x00\n        /* \"#utility.yul\":2589:2595   */\n      dup2\n        /* \"#utility.yul\":2576:2596   */\n      calldataload\n        /* \"#utility.yul\":2567:2596   */\n      swap1\n      pop\n        /* \"#utility.yul\":2605:2638   */\n      tag_102\n        /* \"#utility.yul\":2632:2637   */\n      dup2\n        /* \"#utility.yul\":2605:2638   */\n      tag_59\n      jump\t// in\n    tag_102:\n        /* \"#utility.yul\":2505:2644   */\n      swap3\n      swap2\n      pop\n      pop\n      jump\t// out\n        /* \"#utility.yul\":2650:2979   */\n    tag_21:\n        /* \"#utility.yul\":2709:2715   */\n      0x00\n        /* \"#utility.yul\":2758:2760   */\n      0x20\n        /* \"#utility.yul\":2746:2755   */\n      dup3\n        /* \"#utility.yul\":2737:2744   */\n      dup5\n        /* \"#utility.yul\":2733:2756   */\n      sub\n        /* \"#utility.yul\":2729:2761   */\n      slt\n        /* \"#utility.yul\":2726:2845   */\n      iszero\n      tag_104\n      jumpi\n        /* \"#utility.yul\":2764:2843   */\n      tag_105\n      tag_48\n      jump\t// in\n    tag_105:\n        /* \"#utility.yul\":2726:2845   */\n    tag_104:\n        /* \"#utility.yul\":2884:2885   */\n      0x00\n        /* \"#utility.yul\":2909:2962   */\n      tag_106\n        /* \"#utility.yul\":2954:2961   */\n      dup5\n        /* \"#utility.yul\":2945:2951   */\n      dup3\n        /* \"#utility.yul\":2934:2943   */\n      dup6\n        /* \"#utility.yul\":2930:2952   */\n      add\n        /* \"#utility.yul\":2909:2962   */\n      tag_60\n      jump\t// in\n    tag_106:\n        /* \"#utility.yul\":2899:2962   */\n      swap2\n      pop\n        /* \"#utility.yul\":2855:2972   */\n      pop\n        /* \"#utility.yul\":2650:2979   */\n      swap3\n      swap2\n      pop\n      pop\n      jump\t// out\n        /* \"#utility.yul\":2985:3103   */\n    tag_61:\n        /* \"#utility.yul\":3072:3096   */\n      tag_108\n        /* \"#utility.yul\":3090:3095   */\n      dup2\n        /* \"#utility.yul\":3072:3096   */\n      tag_54\n      jump\t// in\n    tag_108:\n        /* \"#utility.yul\":3067:3070   */\n      dup3\n        /* \"#utility.yul\":3060:3097   */\n      mstore\n        /* \"#utility.yul\":2985:3103   */\n      pop\n      pop\n      jump\t// out\n        /* \"#utility.yul\":3109:3441   */\n    tag_24:\n        /* \"#utility.yul\":3230:3234   */\n      0x00\n        /* \"#utility.yul\":3268:3270   */\n      0x40\n        /* \"#utility.yul\":3257:3266   */\n      dup3\n        /* \"#utility.yul\":3253:3271   */\n      add\n        /* \"#utility.yul\":3245:3271   */\n      swap1\n      pop\n        /* \"#utility.yul\":3281:3352   */\n      tag_110\n        /* \"#utility.yul\":3349:3350   */\n      0x00\n        /* \"#utility.yul\":3338:3347   */\n      dup4\n        /* \"#utility.yul\":3334:3351   */\n      add\n        /* \"#utility.yul\":3325:3331   */\n      dup6\n        /* \"#utility.yul\":3281:3352   */\n      tag_61\n      jump\t// in\n    tag_110:\n        /* \"#utility.yul\":3362:3434   */\n      tag_111\n        /* \"#utility.yul\":3430:3432   */\n      0x20\n        /* \"#utility.yul\":3419:3428   */\n      dup4\n        /* \"#utility.yul\":3415:3433   */\n      add\n        /* \"#utility.yul\":3406:3412   */\n      dup5\n        /* \"#utility.yul\":3362:3434   */\n      tag_58\n      jump\t// in\n    tag_111:\n        /* \"#utility.yul\":3109:3441   */\n      swap4\n      swap3\n      pop\n      pop\n      pop\n      jump\t// out\n        /* \"#utility.yul\":3447:3921   */\n    tag_30:\n        /* \"#utility.yul\":3515:3521   */\n      0x00\n        /* \"#utility.yul\":3523:3529   */\n      dup1\n        /* \"#utility.yul\":3572:3574   */\n      0x40\n        /* \"#utility.yul\":3560:3569   */\n      dup4\n        /* \"#utility.yul\":3551:3558   */\n      dup6\n        /* \"#utility.yul\":3547:3570   */\n      sub\n        /* \"#utility.yul\":3543:3575   */\n      slt\n        /* \"#utility.yul\":3540:3659   */\n      iszero\n      tag_113\n      jumpi\n        /* \"#utility.yul\":3578:3657   */\n      tag_114\n      tag_48\n      jump\t// in\n    tag_114:\n        /* \"#utility.yul\":3540:3659   */\n    tag_113:\n        /* \"#utility.yul\":3698:3699   */\n      0x00\n        /* \"#utility.yul\":3723:3776   */\n      tag_115\n        /* \"#utility.yul\":3768:3775   */\n      dup6\n        /* \"#utility.yul\":3759:3765   */\n      dup3\n        /* \"#utility.yul\":3748:3757   */\n      dup7\n        /* \"#utility.yul\":3744:3766   */\n      add\n        /* \"#utility.yul\":3723:3776   */\n      tag_56\n      jump\t// in\n    tag_115:\n        /* \"#utility.yul\":3713:3776   */\n      swap3\n      pop\n        /* \"#utility.yul\":3669:3786   */\n      pop\n        /* \"#utility.yul\":3825:3827   */\n      0x20\n        /* \"#utility.yul\":3851:3904   */\n      tag_116\n        /* \"#utility.yul\":3896:3903   */\n      dup6\n        /* \"#utility.yul\":3887:3893   */\n      dup3\n        /* \"#utility.yul\":3876:3885   */\n      dup7\n        /* \"#utility.yul\":3872:3894   */\n      add\n        /* \"#utility.yul\":3851:3904   */\n      tag_60\n      jump\t// in\n    tag_116:\n        /* \"#utility.yul\":3841:3904   */\n      swap2\n      pop\n        /* \"#utility.yul\":3796:3914   */\n      pop\n        /* \"#utility.yul\":3447:3921   */\n      swap3\n      pop\n      swap3\n      swap1\n      pop\n      jump\t// out\n        /* \"#utility.yul\":3927:4149   */\n    tag_35:\n        /* \"#utility.yul\":4020:4024   */\n      0x00\n        /* \"#utility.yul\":4058:4060   */\n      0x20\n        /* \"#utility.yul\":4047:4056   */\n      dup3\n        /* \"#utility.yul\":4043:4061   */\n      add\n        /* \"#utility.yul\":4035:4061   */\n      swap1\n      pop\n        /* \"#utility.yul\":4071:4142   */\n      tag_118\n        /* \"#utility.yul\":4139:4140   */\n      0x00\n        /* \"#utility.yul\":4128:4137   */\n      dup4\n        /* \"#utility.yul\":4124:4141   */\n      add\n        /* \"#utility.yul\":4115:4121   */\n      dup5\n        /* \"#utility.yul\":4071:4142   */\n      tag_61\n      jump\t// in\n    tag_118:\n        /* \"#utility.yul\":3927:4149   */\n      swap3\n      swap2\n      pop\n      pop\n      jump\t// out\n        /* \"#utility.yul\":4155:4324   */\n    tag_62:\n        /* \"#utility.yul\":4239:4250   */\n      0x00\n        /* \"#utility.yul\":4273:4279   */\n      dup3\n        /* \"#utility.yul\":4268:4271   */\n      dup3\n        /* \"#utility.yul\":4261:4280   */\n      mstore\n        /* \"#utility.yul\":4313:4317   */\n      0x20\n        /* \"#utility.yul\":4308:4311   */\n      dup3\n        /* \"#utility.yul\":4304:4318   */\n      add\n        /* \"#utility.yul\":4289:4318   */\n      swap1\n      pop\n        /* \"#utility.yul\":4155:4324   */\n      swap3\n      swap2\n      pop\n      pop\n      jump\t// out\n        /* \"#utility.yul\":4330:4620   */\n    tag_63:\n        /* \"#utility.yul\":4470:4504   */\n      0x596f7520617265207374696c6c206e6f7420796f756e6720656e6f7567682074\n        /* \"#utility.yul\":4466:4467   */\n      0x00\n        /* \"#utility.yul\":4458:4464   */\n      dup3\n        /* \"#utility.yul\":4454:4468   */\n      add\n        /* \"#utility.yul\":4447:4505   */\n      mstore\n        /* \"#utility.yul\":4539:4573   */\n      0x6f20676574207468652065746865722066726f6d20796f7572206772616e6470\n        /* \"#utility.yul\":4534:4536   */\n      0x20\n        /* \"#utility.yul\":4526:4532   */\n      dup3\n        /* \"#utility.yul\":4522:4537   */\n      add\n        /* \"#utility.yul\":4515:4574   */\n      mstore\n        /* \"#utility.yul\":4608:4612   */\n      0x612e000000000000000000000000000000000000000000000000000000000000\n        /* \"#utility.yul\":4603:4605   */\n      0x40\n        /* \"#utility.yul\":4595:4601   */\n      dup3\n        /* \"#utility.yul\":4591:4606   */\n      add\n        /* \"#utility.yul\":4584:4613   */\n      mstore\n        /* \"#utility.yul\":4330:4620   */\n      pop\n      jump\t// out\n        /* \"#utility.yul\":4626:4992   */\n    tag_64:\n        /* \"#utility.yul\":4768:4771   */\n      0x00\n        /* \"#utility.yul\":4789:4856   */\n      tag_122\n        /* \"#utility.yul\":4853:4855   */\n      0x42\n        /* \"#utility.yul\":4848:4851   */\n      dup4\n        /* \"#utility.yul\":4789:4856   */\n      tag_62\n      jump\t// in\n    tag_122:\n        /* \"#utility.yul\":4782:4856   */\n      swap2\n      pop\n        /* \"#utility.yul\":4865:4958   */\n      tag_123\n        /* \"#utility.yul\":4954:4957   */\n      dup3\n        /* \"#utility.yul\":4865:4958   */\n      tag_63\n      jump\t// in\n    tag_123:\n        /* \"#utility.yul\":4983:4985   */\n      0x60\n        /* \"#utility.yul\":4978:4981   */\n      dup3\n        /* \"#utility.yul\":4974:4986   */\n      add\n        /* \"#utility.yul\":4967:4986   */\n      swap1\n      pop\n        /* \"#utility.yul\":4626:4992   */\n      swap2\n      swap1\n      pop\n      jump\t// out\n        /* \"#utility.yul\":4998:5417   */\n    tag_39:\n        /* \"#utility.yul\":5164:5168   */\n      0x00\n        /* \"#utility.yul\":5202:5204   */\n      0x20\n        /* \"#utility.yul\":5191:5200   */\n      dup3\n        /* \"#utility.yul\":5187:5205   */\n      add\n        /* \"#utility.yul\":5179:5205   */\n      swap1\n      pop\n        /* \"#utility.yul\":5251:5260   */\n      dup2\n        /* \"#utility.yul\":5245:5249   */\n      dup2\n        /* \"#utility.yul\":5241:5261   */\n      sub\n        /* \"#utility.yul\":5237:5238   */\n      0x00\n        /* \"#utility.yul\":5226:5235   */\n      dup4\n        /* \"#utility.yul\":5222:5239   */\n      add\n        /* \"#utility.yul\":5215:5262   */\n      mstore\n        /* \"#utility.yul\":5279:5410   */\n      tag_125\n        /* \"#utility.yul\":5405:5409   */\n      dup2\n        /* \"#utility.yul\":5279:5410   */\n      tag_64\n      jump\t// in\n    tag_125:\n        /* \"#utility.yul\":5271:5410   */\n      swap1\n      pop\n        /* \"#utility.yul\":4998:5417   */\n      swap2\n      swap1\n      pop\n      jump\t// out\n        /* \"#utility.yul\":5423:5603   */\n    tag_65:\n        /* \"#utility.yul\":5471:5548   */\n      0x4e487b7100000000000000000000000000000000000000000000000000000000\n        /* \"#utility.yul\":5468:5469   */\n      0x00\n        /* \"#utility.yul\":5461:5549   */\n      mstore\n        /* \"#utility.yul\":5568:5572   */\n      0x11\n        /* \"#utility.yul\":5565:5566   */\n      0x04\n        /* \"#utility.yul\":5558:5573   */\n      mstore\n        /* \"#utility.yul\":5592:5596   */\n      0x24\n        /* \"#utility.yul\":5589:5590   */\n      0x00\n        /* \"#utility.yul\":5582:5597   */\n      revert\n        /* \"#utility.yul\":5609:5842   */\n    tag_46:\n        /* \"#utility.yul\":5648:5651   */\n      0x00\n        /* \"#utility.yul\":5671:5695   */\n      tag_128\n        /* \"#utility.yul\":5689:5694   */\n      dup3\n        /* \"#utility.yul\":5671:5695   */\n      tag_57\n      jump\t// in\n    tag_128:\n        /* \"#utility.yul\":5662:5695   */\n      swap2\n      pop\n        /* \"#utility.yul\":5717:5783   */\n      0xffffffffffffffffffffffffffffffffffffffffffffffffffffffffffffffff\n        /* \"#utility.yul\":5710:5715   */\n      dup3\n        /* \"#utility.yul\":5707:5784   */\n      sub\n        /* \"#utility.yul\":5704:5807   */\n      tag_129\n      jumpi\n        /* \"#utility.yul\":5787:5805   */\n      tag_130\n      tag_65\n      jump\t// in\n    tag_130:\n        /* \"#utility.yul\":5704:5807   */\n    tag_129:\n        /* \"#utility.yul\":5834:5835   */\n      0x01\n        /* \"#utility.yul\":5827:5832   */\n      dup3\n        /* \"#utility.yul\":5823:5836   */\n      add\n        /* \"#utility.yul\":5816:5836   */\n      swap1\n      pop\n        /* \"#utility.yul\":5609:5842   */\n      swap2\n      swap1\n      pop\n      jump\t// out\n\n    auxdata: 0xa26469706673582212204ec2df52a98e318fa4759a96725bd6d897a1c29da1dffa8cb223fdc1ca1a9d8a64736f6c634300080d0033\n}\n",
				"bytecode": {
					"linkReferences": {},
					"object": "608060405234801561001057600080fd5b506040516107fb3803806107fb833981810160405281019061003291906100ba565b336000806101000a81548173ffffffffffffffffffffffffffffffffffffffff021916908373ffffffffffffffffffffffffffffffffffffffff16021790555080600481905550506100e7565b600080fd5b6000819050919050565b61009781610084565b81146100a257600080fd5b50565b6000815190506100b48161008e565b92915050565b6000602082840312156100d0576100cf61007f565b5b60006100de848285016100a5565b91505092915050565b610705806100f66000396000f3fe608060405234801561001057600080fd5b50600436106100625760003560e01c806351cff8d9146100675780636f6b40691461008357806381d12c58146100b35780639fb42b1f146100e4578063d42cd5a914610102578063d5ebe7f81461011e575b600080fd5b610081600480360381019061007c91906103d7565b61013c565b005b61009d60048036038101906100989190610442565b610214565b6040516100aa9190610488565b60405180910390f35b6100cd60048036038101906100c891906104cf565b61022c565b6040516100db92919061050b565b60405180910390f35b6100ec610270565b6040516100f99190610488565b60405180910390f35b61011c60048036038101906101179190610534565b610276565b005b610126610350565b6040516101339190610574565b60405180910390f35b6000600260008373ffffffffffffffffffffffffffffffffffffffff1673ffffffffffffffffffffffffffffffffffffffff1681526020019081526020016000205490506321d59f008111156101c7576040517f08c379a00000000000000000000000000000000000000000000000000000000081526004016101be90610638565b60405180910390fd5b8173ffffffffffffffffffffffffffffffffffffffff166108fc6004549081150290604051600060405180830381858888f1935050505015801561020f573d6000803e3d6000fd5b505050565b60026020528060005260406000206000915090505481565b60016020528060005260406000206000915090508060000160009054906101000a900473ffffffffffffffffffffffffffffffffffffffff16908060010154905082565b60035481565b60008054906101000a900473ffffffffffffffffffffffffffffffffffffffff1673ffffffffffffffffffffffffffffffffffffffff163373ffffffffffffffffffffffffffffffffffffffff16146102ce57600080fd5b60006001600060035481526020019081526020016000209050600360008154809291906102fa90610687565b9190505550828160000160006101000a81548173ffffffffffffffffffffffffffffffffffffffff021916908373ffffffffffffffffffffffffffffffffffffffff160217905550818160010181905550505050565b60008054906101000a900473ffffffffffffffffffffffffffffffffffffffff1681565b600080fd5b600073ffffffffffffffffffffffffffffffffffffffff82169050919050565b60006103a482610379565b9050919050565b6103b481610399565b81146103bf57600080fd5b50565b6000813590506103d1816103ab565b92915050565b6000602082840312156103ed576103ec610374565b5b60006103fb848285016103c2565b91505092915050565b600061040f82610379565b9050919050565b61041f81610404565b811461042a57600080fd5b50565b60008135905061043c81610416565b92915050565b60006020828403121561045857610457610374565b5b60006104668482850161042d565b91505092915050565b6000819050919050565b6104828161046f565b82525050565b600060208201905061049d6000830184610479565b92915050565b6104ac8161046f565b81146104b757600080fd5b50565b6000813590506104c9816104a3565b92915050565b6000602082840312156104e5576104e4610374565b5b60006104f3848285016104ba565b91505092915050565b61050581610404565b82525050565b600060408201905061052060008301856104fc565b61052d6020830184610479565b9392505050565b6000806040838503121561054b5761054a610374565b5b60006105598582860161042d565b925050602061056a858286016104ba565b9150509250929050565b600060208201905061058960008301846104fc565b92915050565b600082825260208201905092915050565b7f596f7520617265207374696c6c206e6f7420796f756e6720656e6f756768207460008201527f6f20676574207468652065746865722066726f6d20796f7572206772616e647060208201527f612e000000000000000000000000000000000000000000000000000000000000604082015250565b600061062260428361058f565b915061062d826105a0565b606082019050919050565b6000602082019050818103600083015261065181610615565b9050919050565b7f4e487b7100000000000000000000000000000000000000000000000000000000600052601160045260246000fd5b60006106928261046f565b91507fffffffffffffffffffffffffffffffffffffffffffffffffffffffffffffffff82036106c4576106c3610658565b5b60018201905091905056fea26469706673582212204ec2df52a98e318fa4759a96725bd6d897a1c29da1dffa8cb223fdc1ca1a9d8a64736f6c634300080d0033",
					"opcodes": "PUSH1 0x80 PUSH1 0x40 MSTORE CALLVALUE DUP1 ISZERO PUSH2 0x10 JUMPI PUSH1 0x0 DUP1 REVERT JUMPDEST POP PUSH1 0x40 MLOAD PUSH2 0x7FB CODESIZE SUB DUP1 PUSH2 0x7FB DUP4 CODECOPY DUP2 DUP2 ADD PUSH1 0x40 MSTORE DUP2 ADD SWAP1 PUSH2 0x32 SWAP2 SWAP1 PUSH2 0xBA JUMP JUMPDEST CALLER PUSH1 0x0 DUP1 PUSH2 0x100 EXP DUP2 SLOAD DUP2 PUSH20 0xFFFFFFFFFFFFFFFFFFFFFFFFFFFFFFFFFFFFFFFF MUL NOT AND SWAP1 DUP4 PUSH20 0xFFFFFFFFFFFFFFFFFFFFFFFFFFFFFFFFFFFFFFFF AND MUL OR SWAP1 SSTORE POP DUP1 PUSH1 0x4 DUP2 SWAP1 SSTORE POP POP PUSH2 0xE7 JUMP JUMPDEST PUSH1 0x0 DUP1 REVERT JUMPDEST PUSH1 0x0 DUP2 SWAP1 POP SWAP2 SWAP1 POP JUMP JUMPDEST PUSH2 0x97 DUP2 PUSH2 0x84 JUMP JUMPDEST DUP2 EQ PUSH2 0xA2 JUMPI PUSH1 0x0 DUP1 REVERT JUMPDEST POP JUMP JUMPDEST PUSH1 0x0 DUP2 MLOAD SWAP1 POP PUSH2 0xB4 DUP2 PUSH2 0x8E JUMP JUMPDEST SWAP3 SWAP2 POP POP JUMP JUMPDEST PUSH1 0x0 PUSH1 0x20 DUP3 DUP5 SUB SLT ISZERO PUSH2 0xD0 JUMPI PUSH2 0xCF PUSH2 0x7F JUMP JUMPDEST JUMPDEST PUSH1 0x0 PUSH2 0xDE DUP5 DUP3 DUP6 ADD PUSH2 0xA5 JUMP JUMPDEST SWAP2 POP POP SWAP3 SWAP2 POP POP JUMP JUMPDEST PUSH2 0x705 DUP1 PUSH2 0xF6 PUSH1 0x0 CODECOPY PUSH1 0x0 RETURN INVALID PUSH1 0x80 PUSH1 0x40 MSTORE CALLVALUE DUP1 ISZERO PUSH2 0x10 JUMPI PUSH1 0x0 DUP1 REVERT JUMPDEST POP PUSH1 0x4 CALLDATASIZE LT PUSH2 0x62 JUMPI PUSH1 0x0 CALLDATALOAD PUSH1 0xE0 SHR DUP1 PUSH4 0x51CFF8D9 EQ PUSH2 0x67 JUMPI DUP1 PUSH4 0x6F6B4069 EQ PUSH2 0x83 JUMPI DUP1 PUSH4 0x81D12C58 EQ PUSH2 0xB3 JUMPI DUP1 PUSH4 0x9FB42B1F EQ PUSH2 0xE4 JUMPI DUP1 PUSH4 0xD42CD5A9 EQ PUSH2 0x102 JUMPI DUP1 PUSH4 0xD5EBE7F8 EQ PUSH2 0x11E JUMPI JUMPDEST PUSH1 0x0 DUP1 REVERT JUMPDEST PUSH2 0x81 PUSH1 0x4 DUP1 CALLDATASIZE SUB DUP2 ADD SWAP1 PUSH2 0x7C SWAP2 SWAP1 PUSH2 0x3D7 JUMP JUMPDEST PUSH2 0x13C JUMP JUMPDEST STOP JUMPDEST PUSH2 0x9D PUSH1 0x4 DUP1 CALLDATASIZE SUB DUP2 ADD SWAP1 PUSH2 0x98 SWAP2 SWAP1 PUSH2 0x442 JUMP JUMPDEST PUSH2 0x214 JUMP JUMPDEST PUSH1 0x40 MLOAD PUSH2 0xAA SWAP2 SWAP1 PUSH2 0x488 JUMP JUMPDEST PUSH1 0x40 MLOAD DUP1 SWAP2 SUB SWAP1 RETURN JUMPDEST PUSH2 0xCD PUSH1 0x4 DUP1 CALLDATASIZE SUB DUP2 ADD SWAP1 PUSH2 0xC8 SWAP2 SWAP1 PUSH2 0x4CF JUMP JUMPDEST PUSH2 0x22C JUMP JUMPDEST PUSH1 0x40 MLOAD PUSH2 0xDB SWAP3 SWAP2 SWAP1 PUSH2 0x50B JUMP JUMPDEST PUSH1 0x40 MLOAD DUP1 SWAP2 SUB SWAP1 RETURN JUMPDEST PUSH2 0xEC PUSH2 0x270 JUMP JUMPDEST PUSH1 0x40 MLOAD PUSH2 0xF9 SWAP2 SWAP1 PUSH2 0x488 JUMP JUMPDEST PUSH1 0x40 MLOAD DUP1 SWAP2 SUB SWAP1 RETURN JUMPDEST PUSH2 0x11C PUSH1 0x4 DUP1 CALLDATASIZE SUB DUP2 ADD SWAP1 PUSH2 0x117 SWAP2 SWAP1 PUSH2 0x534 JUMP JUMPDEST PUSH2 0x276 JUMP JUMPDEST STOP JUMPDEST PUSH2 0x126 PUSH2 0x350 JUMP JUMPDEST PUSH1 0x40 MLOAD PUSH2 0x133 SWAP2 SWAP1 PUSH2 0x574 JUMP JUMPDEST PUSH1 0x40 MLOAD DUP1 SWAP2 SUB SWAP1 RETURN JUMPDEST PUSH1 0x0 PUSH1 0x2 PUSH1 0x0 DUP4 PUSH20 0xFFFFFFFFFFFFFFFFFFFFFFFFFFFFFFFFFFFFFFFF AND PUSH20 0xFFFFFFFFFFFFFFFFFFFFFFFFFFFFFFFFFFFFFFFF AND DUP2 MSTORE PUSH1 0x20 ADD SWAP1 DUP2 MSTORE PUSH1 0x20 ADD PUSH1 0x0 KECCAK256 SLOAD SWAP1 POP PUSH4 0x21D59F00 DUP2 GT ISZERO PUSH2 0x1C7 JUMPI PUSH1 0x40 MLOAD PUSH32 0x8C379A000000000000000000000000000000000000000000000000000000000 DUP2 MSTORE PUSH1 0x4 ADD PUSH2 0x1BE SWAP1 PUSH2 0x638 JUMP JUMPDEST PUSH1 0x40 MLOAD DUP1 SWAP2 SUB SWAP1 REVERT JUMPDEST DUP2 PUSH20 0xFFFFFFFFFFFFFFFFFFFFFFFFFFFFFFFFFFFFFFFF AND PUSH2 0x8FC PUSH1 0x4 SLOAD SWAP1 DUP2 ISZERO MUL SWAP1 PUSH1 0x40 MLOAD PUSH1 0x0 PUSH1 0x40 MLOAD DUP1 DUP4 SUB DUP2 DUP6 DUP9 DUP9 CALL SWAP4 POP POP POP POP ISZERO DUP1 ISZERO PUSH2 0x20F JUMPI RETURNDATASIZE PUSH1 0x0 DUP1 RETURNDATACOPY RETURNDATASIZE PUSH1 0x0 REVERT JUMPDEST POP POP POP JUMP JUMPDEST PUSH1 0x2 PUSH1 0x20 MSTORE DUP1 PUSH1 0x0 MSTORE PUSH1 0x40 PUSH1 0x0 KECCAK256 PUSH1 0x0 SWAP2 POP SWAP1 POP SLOAD DUP2 JUMP JUMPDEST PUSH1 0x1 PUSH1 0x20 MSTORE DUP1 PUSH1 0x0 MSTORE PUSH1 0x40 PUSH1 0x0 KECCAK256 PUSH1 0x0 SWAP2 POP SWAP1 POP DUP1 PUSH1 0x0 ADD PUSH1 0x0 SWAP1 SLOAD SWAP1 PUSH2 0x100 EXP SWAP1 DIV PUSH20 0xFFFFFFFFFFFFFFFFFFFFFFFFFFFFFFFFFFFFFFFF AND SWAP1 DUP1 PUSH1 0x1 ADD SLOAD SWAP1 POP DUP3 JUMP JUMPDEST PUSH1 0x3 SLOAD DUP2 JUMP JUMPDEST PUSH1 0x0 DUP1 SLOAD SWAP1 PUSH2 0x100 EXP SWAP1 DIV PUSH20 0xFFFFFFFFFFFFFFFFFFFFFFFFFFFFFFFFFFFFFFFF AND PUSH20 0xFFFFFFFFFFFFFFFFFFFFFFFFFFFFFFFFFFFFFFFF AND CALLER PUSH20 0xFFFFFFFFFFFFFFFFFFFFFFFFFFFFFFFFFFFFFFFF AND EQ PUSH2 0x2CE JUMPI PUSH1 0x0 DUP1 REVERT JUMPDEST PUSH1 0x0 PUSH1 0x1 PUSH1 0x0 PUSH1 0x3 SLOAD DUP2 MSTORE PUSH1 0x20 ADD SWAP1 DUP2 MSTORE PUSH1 0x20 ADD PUSH1 0x0 KECCAK256 SWAP1 POP PUSH1 0x3 PUSH1 0x0 DUP2 SLOAD DUP1 SWAP3 SWAP2 SWAP1 PUSH2 0x2FA SWAP1 PUSH2 0x687 JUMP JUMPDEST SWAP2 SWAP1 POP SSTORE POP DUP3 DUP2 PUSH1 0x0 ADD PUSH1 0x0 PUSH2 0x100 EXP DUP2 SLOAD DUP2 PUSH20 0xFFFFFFFFFFFFFFFFFFFFFFFFFFFFFFFFFFFFFFFF MUL NOT AND SWAP1 DUP4 PUSH20 0xFFFFFFFFFFFFFFFFFFFFFFFFFFFFFFFFFFFFFFFF AND MUL OR SWAP1 SSTORE POP DUP2 DUP2 PUSH1 0x1 ADD DUP2 SWAP1 SSTORE POP POP POP POP JUMP JUMPDEST PUSH1 0x0 DUP1 SLOAD SWAP1 PUSH2 0x100 EXP SWAP1 DIV PUSH20 0xFFFFFFFFFFFFFFFFFFFFFFFFFFFFFFFFFFFFFFFF AND DUP2 JUMP JUMPDEST PUSH1 0x0 DUP1 REVERT JUMPDEST PUSH1 0x0 PUSH20 0xFFFFFFFFFFFFFFFFFFFFFFFFFFFFFFFFFFFFFFFF DUP3 AND SWAP1 POP SWAP2 SWAP1 POP JUMP JUMPDEST PUSH1 0x0 PUSH2 0x3A4 DUP3 PUSH2 0x379 JUMP JUMPDEST SWAP1 POP SWAP2 SWAP1 POP JUMP JUMPDEST PUSH2 0x3B4 DUP2 PUSH2 0x399 JUMP JUMPDEST DUP2 EQ PUSH2 0x3BF JUMPI PUSH1 0x0 DUP1 REVERT JUMPDEST POP JUMP JUMPDEST PUSH1 0x0 DUP2 CALLDATALOAD SWAP1 POP PUSH2 0x3D1 DUP2 PUSH2 0x3AB JUMP JUMPDEST SWAP3 SWAP2 POP POP JUMP JUMPDEST PUSH1 0x0 PUSH1 0x20 DUP3 DUP5 SUB SLT ISZERO PUSH2 0x3ED JUMPI PUSH2 0x3EC PUSH2 0x374 JUMP JUMPDEST JUMPDEST PUSH1 0x0 PUSH2 0x3FB DUP5 DUP3 DUP6 ADD PUSH2 0x3C2 JUMP JUMPDEST SWAP2 POP POP SWAP3 SWAP2 POP POP JUMP JUMPDEST PUSH1 0x0 PUSH2 0x40F DUP3 PUSH2 0x379 JUMP JUMPDEST SWAP1 POP SWAP2 SWAP1 POP JUMP JUMPDEST PUSH2 0x41F DUP2 PUSH2 0x404 JUMP JUMPDEST DUP2 EQ PUSH2 0x42A JUMPI PUSH1 0x0 DUP1 REVERT JUMPDEST POP JUMP JUMPDEST PUSH1 0x0 DUP2 CALLDATALOAD SWAP1 POP PUSH2 0x43C DUP2 PUSH2 0x416 JUMP JUMPDEST SWAP3 SWAP2 POP POP JUMP JUMPDEST PUSH1 0x0 PUSH1 0x20 DUP3 DUP5 SUB SLT ISZERO PUSH2 0x458 JUMPI PUSH2 0x457 PUSH2 0x374 JUMP JUMPDEST JUMPDEST PUSH1 0x0 PUSH2 0x466 DUP5 DUP3 DUP6 ADD PUSH2 0x42D JUMP JUMPDEST SWAP2 POP POP SWAP3 SWAP2 POP POP JUMP JUMPDEST PUSH1 0x0 DUP2 SWAP1 POP SWAP2 SWAP1 POP JUMP JUMPDEST PUSH2 0x482 DUP2 PUSH2 0x46F JUMP JUMPDEST DUP3 MSTORE POP POP JUMP JUMPDEST PUSH1 0x0 PUSH1 0x20 DUP3 ADD SWAP1 POP PUSH2 0x49D PUSH1 0x0 DUP4 ADD DUP5 PUSH2 0x479 JUMP JUMPDEST SWAP3 SWAP2 POP POP JUMP JUMPDEST PUSH2 0x4AC DUP2 PUSH2 0x46F JUMP JUMPDEST DUP2 EQ PUSH2 0x4B7 JUMPI PUSH1 0x0 DUP1 REVERT JUMPDEST POP JUMP JUMPDEST PUSH1 0x0 DUP2 CALLDATALOAD SWAP1 POP PUSH2 0x4C9 DUP2 PUSH2 0x4A3 JUMP JUMPDEST SWAP3 SWAP2 POP POP JUMP JUMPDEST PUSH1 0x0 PUSH1 0x20 DUP3 DUP5 SUB SLT ISZERO PUSH2 0x4E5 JUMPI PUSH2 0x4E4 PUSH2 0x374 JUMP JUMPDEST JUMPDEST PUSH1 0x0 PUSH2 0x4F3 DUP5 DUP3 DUP6 ADD PUSH2 0x4BA JUMP JUMPDEST SWAP2 POP POP SWAP3 SWAP2 POP POP JUMP JUMPDEST PUSH2 0x505 DUP2 PUSH2 0x404 JUMP JUMPDEST DUP3 MSTORE POP POP JUMP JUMPDEST PUSH1 0x0 PUSH1 0x40 DUP3 ADD SWAP1 POP PUSH2 0x520 PUSH1 0x0 DUP4 ADD DUP6 PUSH2 0x4FC JUMP JUMPDEST PUSH2 0x52D PUSH1 0x20 DUP4 ADD DUP5 PUSH2 0x479 JUMP JUMPDEST SWAP4 SWAP3 POP POP POP JUMP JUMPDEST PUSH1 0x0 DUP1 PUSH1 0x40 DUP4 DUP6 SUB SLT ISZERO PUSH2 0x54B JUMPI PUSH2 0x54A PUSH2 0x374 JUMP JUMPDEST JUMPDEST PUSH1 0x0 PUSH2 0x559 DUP6 DUP3 DUP7 ADD PUSH2 0x42D JUMP JUMPDEST SWAP3 POP POP PUSH1 0x20 PUSH2 0x56A DUP6 DUP3 DUP7 ADD PUSH2 0x4BA JUMP JUMPDEST SWAP2 POP POP SWAP3 POP SWAP3 SWAP1 POP JUMP JUMPDEST PUSH1 0x0 PUSH1 0x20 DUP3 ADD SWAP1 POP PUSH2 0x589 PUSH1 0x0 DUP4 ADD DUP5 PUSH2 0x4FC JUMP JUMPDEST SWAP3 SWAP2 POP POP JUMP JUMPDEST PUSH1 0x0 DUP3 DUP3 MSTORE PUSH1 0x20 DUP3 ADD SWAP1 POP SWAP3 SWAP2 POP POP JUMP JUMPDEST PUSH32 0x596F7520617265207374696C6C206E6F7420796F756E6720656E6F7567682074 PUSH1 0x0 DUP3 ADD MSTORE PUSH32 0x6F20676574207468652065746865722066726F6D20796F7572206772616E6470 PUSH1 0x20 DUP3 ADD MSTORE PUSH32 0x612E000000000000000000000000000000000000000000000000000000000000 PUSH1 0x40 DUP3 ADD MSTORE POP JUMP JUMPDEST PUSH1 0x0 PUSH2 0x622 PUSH1 0x42 DUP4 PUSH2 0x58F JUMP JUMPDEST SWAP2 POP PUSH2 0x62D DUP3 PUSH2 0x5A0 JUMP JUMPDEST PUSH1 0x60 DUP3 ADD SWAP1 POP SWAP2 SWAP1 POP JUMP JUMPDEST PUSH1 0x0 PUSH1 0x20 DUP3 ADD SWAP1 POP DUP2 DUP2 SUB PUSH1 0x0 DUP4 ADD MSTORE PUSH2 0x651 DUP2 PUSH2 0x615 JUMP JUMPDEST SWAP1 POP SWAP2 SWAP1 POP JUMP JUMPDEST PUSH32 0x4E487B7100000000000000000000000000000000000000000000000000000000 PUSH1 0x0 MSTORE PUSH1 0x11 PUSH1 0x4 MSTORE PUSH1 0x24 PUSH1 0x0 REVERT JUMPDEST PUSH1 0x0 PUSH2 0x692 DUP3 PUSH2 0x46F JUMP JUMPDEST SWAP2 POP PUSH32 0xFFFFFFFFFFFFFFFFFFFFFFFFFFFFFFFFFFFFFFFFFFFFFFFFFFFFFFFFFFFFFFFF DUP3 SUB PUSH2 0x6C4 JUMPI PUSH2 0x6C3 PUSH2 0x658 JUMP JUMPDEST JUMPDEST PUSH1 0x1 DUP3 ADD SWAP1 POP SWAP2 SWAP1 POP JUMP INVALID LOG2 PUSH5 0x6970667358 0x22 SLT KECCAK256 0x4E 0xC2 0xDF MSTORE 0xA9 DUP15 BALANCE DUP16 LOG4 PUSH22 0x9A96725BD6D897A1C29DA1DFFA8CB223FDC1CA1A9D8A PUSH5 0x736F6C6343 STOP ADDMOD 0xD STOP CALLER "
				},
				"gasEstimates": {
					"creation": {
						"codeDepositCost": "359400",
						"executionCost": "infinite",
						"totalCost": "infinite"
					},
					"external": {
						"grandpa()": "2599",
						"kid(address)": "2814",
						"kids_entry(address,uint256)": "infinite",
						"numRequests()": "2473",
						"requests(uint256)": "infinite",
						"withdraw(address)": "infinite"
					}
				},
				"methodIdentifiers": {
					"grandpa()": "d5ebe7f8",
					"kid(address)": "6f6b4069",
					"kids_entry(address,uint256)": "d42cd5a9",
					"numRequests()": "9fb42b1f",
					"requests(uint256)": "81d12c58",
					"withdraw(address)": "51cff8d9"
				}
			},
			"userdoc": {
				"kind": "user",
				"methods": {},
				"version": 1
			}
		}
	}
}