{
	"contracts/Crypto Kids/Cryptokids.sol": {
		"CryptoKids": {
			"abi": [
				{
					"inputs": [
						{
							"internalType": "uint256",
							"name": "_transferingAmount",
							"type": "uint256"
						}
					],
					"stateMutability": "nonpayable",
					"type": "constructor"
				},
				{
					"inputs": [],
					"name": "address_kid",
					"outputs": [
						{
							"internalType": "address payable",
							"name": "",
							"type": "address"
						}
					],
					"stateMutability": "view",
					"type": "function"
				},
				{
					"inputs": [],
					"name": "grandpa",
					"outputs": [
						{
							"internalType": "address",
							"name": "",
							"type": "address"
						}
					],
					"stateMutability": "view",
					"type": "function"
				},
				{
					"inputs": [
						{
							"internalType": "address",
							"name": "",
							"type": "address"
						}
					],
					"name": "kid",
					"outputs": [
						{
							"internalType": "uint256",
							"name": "",
							"type": "uint256"
						}
					],
					"stateMutability": "view",
					"type": "function"
				},
				{
					"inputs": [
						{
							"internalType": "address",
							"name": "_kid",
							"type": "address"
						},
						{
							"internalType": "uint256",
							"name": "_age",
							"type": "uint256"
						}
					],
					"name": "kids_entry",
					"outputs": [],
					"stateMutability": "nonpayable",
					"type": "function"
				},
				{
					"inputs": [],
					"name": "numRequests",
					"outputs": [
						{
							"internalType": "uint256",
							"name": "",
							"type": "uint256"
						}
					],
					"stateMutability": "view",
					"type": "function"
				},
				{
					"inputs": [
						{
							"internalType": "uint256",
							"name": "",
							"type": "uint256"
						}
					],
					"name": "requests",
					"outputs": [
						{
							"internalType": "address",
							"name": "address_kid",
							"type": "address"
						},
						{
							"internalType": "uint256",
							"name": "age",
							"type": "uint256"
						},
						{
							"internalType": "uint256",
							"name": "gainedAmount",
							"type": "uint256"
						}
					],
					"stateMutability": "view",
					"type": "function"
				},
				{
					"inputs": [
						{
							"internalType": "uint256",
							"name": "requestNo",
							"type": "uint256"
						}
					],
					"name": "sendEth",
					"outputs": [],
					"stateMutability": "payable",
					"type": "function"
				},
				{
					"inputs": [],
					"name": "transferingAmount",
					"outputs": [
						{
							"internalType": "uint256",
							"name": "",
							"type": "uint256"
						}
					],
					"stateMutability": "view",
					"type": "function"
				},
				{
					"inputs": [
						{
							"internalType": "uint256",
							"name": "requestNo",
							"type": "uint256"
						}
					],
					"name": "withdraw",
					"outputs": [],
					"stateMutability": "payable",
					"type": "function"
				}
			],
			"devdoc": {
				"kind": "dev",
				"methods": {},
				"version": 1
			},
			"evm": {
				"assembly": "    /* \"contracts/Crypto Kids/Cryptokids.sol\":61:1496  contract CryptoKids {... */\n  mstore(0x40, 0x80)\n    /* \"contracts/Crypto Kids/Cryptokids.sol\":431:555  constructor(uint _transferingAmount){... */\n  callvalue\n  dup1\n  iszero\n  tag_1\n  jumpi\n  0x00\n  dup1\n  revert\ntag_1:\n  pop\n  mload(0x40)\n  sub(codesize, bytecodeSize)\n  dup1\n  bytecodeSize\n  dup4\n  codecopy\n  dup2\n  dup2\n  add\n  0x40\n  mstore\n  dup2\n  add\n  swap1\n  tag_2\n  swap2\n  swap1\n  tag_3\n  jump\t// in\ntag_2:\n    /* \"contracts/Crypto Kids/Cryptokids.sol\":488:498  msg.sender */\n  caller\n    /* \"contracts/Crypto Kids/Cryptokids.sol\":478:485  grandpa */\n  0x00\n  dup1\n    /* \"contracts/Crypto Kids/Cryptokids.sol\":478:498  grandpa = msg.sender */\n  0x0100\n  exp\n  dup2\n  sload\n  dup2\n  0xffffffffffffffffffffffffffffffffffffffff\n  mul\n  not\n  and\n  swap1\n  dup4\n  0xffffffffffffffffffffffffffffffffffffffff\n  and\n  mul\n  or\n  swap1\n  sstore\n  pop\n    /* \"contracts/Crypto Kids/Cryptokids.sol\":529:547  _transferingAmount */\n  dup1\n    /* \"contracts/Crypto Kids/Cryptokids.sol\":509:526  transferingAmount */\n  0x05\n    /* \"contracts/Crypto Kids/Cryptokids.sol\":509:547  transferingAmount = _transferingAmount */\n  dup2\n  swap1\n  sstore\n  pop\n    /* \"contracts/Crypto Kids/Cryptokids.sol\":431:555  constructor(uint _transferingAmount){... */\n  pop\n    /* \"contracts/Crypto Kids/Cryptokids.sol\":61:1496  contract CryptoKids {... */\n  jump(tag_6)\n    /* \"#utility.yul\":88:205   */\ntag_8:\n    /* \"#utility.yul\":197:198   */\n  0x00\n    /* \"#utility.yul\":194:195   */\n  dup1\n    /* \"#utility.yul\":187:199   */\n  revert\n    /* \"#utility.yul\":334:411   */\ntag_10:\n    /* \"#utility.yul\":371:378   */\n  0x00\n    /* \"#utility.yul\":400:405   */\n  dup2\n    /* \"#utility.yul\":389:405   */\n  swap1\n  pop\n    /* \"#utility.yul\":334:411   */\n  swap2\n  swap1\n  pop\n  jump\t// out\n    /* \"#utility.yul\":417:539   */\ntag_11:\n    /* \"#utility.yul\":490:514   */\n  tag_19\n    /* \"#utility.yul\":508:513   */\n  dup2\n    /* \"#utility.yul\":490:514   */\n  tag_10\n  jump\t// in\ntag_19:\n    /* \"#utility.yul\":483:488   */\n  dup2\n    /* \"#utility.yul\":480:515   */\n  eq\n    /* \"#utility.yul\":470:533   */\n  tag_20\n  jumpi\n    /* \"#utility.yul\":529:530   */\n  0x00\n    /* \"#utility.yul\":526:527   */\n  dup1\n    /* \"#utility.yul\":519:531   */\n  revert\n    /* \"#utility.yul\":470:533   */\ntag_20:\n    /* \"#utility.yul\":417:539   */\n  pop\n  jump\t// out\n    /* \"#utility.yul\":545:688   */\ntag_12:\n    /* \"#utility.yul\":602:607   */\n  0x00\n    /* \"#utility.yul\":633:639   */\n  dup2\n    /* \"#utility.yul\":627:640   */\n  mload\n    /* \"#utility.yul\":618:640   */\n  swap1\n  pop\n    /* \"#utility.yul\":649:682   */\n  tag_22\n    /* \"#utility.yul\":676:681   */\n  dup2\n    /* \"#utility.yul\":649:682   */\n  tag_11\n  jump\t// in\ntag_22:\n    /* \"#utility.yul\":545:688   */\n  swap3\n  swap2\n  pop\n  pop\n  jump\t// out\n    /* \"#utility.yul\":694:1045   */\ntag_3:\n    /* \"#utility.yul\":764:770   */\n  0x00\n    /* \"#utility.yul\":813:815   */\n  0x20\n    /* \"#utility.yul\":801:810   */\n  dup3\n    /* \"#utility.yul\":792:799   */\n  dup5\n    /* \"#utility.yul\":788:811   */\n  sub\n    /* \"#utility.yul\":784:816   */\n  slt\n    /* \"#utility.yul\":781:900   */\n  iszero\n  tag_24\n  jumpi\n    /* \"#utility.yul\":819:898   */\n  tag_25\n  tag_8\n  jump\t// in\ntag_25:\n    /* \"#utility.yul\":781:900   */\ntag_24:\n    /* \"#utility.yul\":939:940   */\n  0x00\n    /* \"#utility.yul\":964:1028   */\n  tag_26\n    /* \"#utility.yul\":1020:1027   */\n  dup5\n    /* \"#utility.yul\":1011:1017   */\n  dup3\n    /* \"#utility.yul\":1000:1009   */\n  dup6\n    /* \"#utility.yul\":996:1018   */\n  add\n    /* \"#utility.yul\":964:1028   */\n  tag_12\n  jump\t// in\ntag_26:\n    /* \"#utility.yul\":954:1028   */\n  swap2\n  pop\n    /* \"#utility.yul\":910:1038   */\n  pop\n    /* \"#utility.yul\":694:1045   */\n  swap3\n  swap2\n  pop\n  pop\n  jump\t// out\n    /* \"contracts/Crypto Kids/Cryptokids.sol\":61:1496  contract CryptoKids {... */\ntag_6:\n  dataSize(sub_0)\n  dup1\n  dataOffset(sub_0)\n  0x00\n  codecopy\n  0x00\n  return\nstop\n\nsub_0: assembly {\n        /* \"contracts/Crypto Kids/Cryptokids.sol\":61:1496  contract CryptoKids {... */\n      mstore(0x40, 0x80)\n      jumpi(tag_1, lt(calldatasize, 0x04))\n      shr(0xe0, calldataload(0x00))\n      dup1\n      0x81d12c58\n      gt\n      tag_11\n      jumpi\n      dup1\n      0x81d12c58\n      eq\n      tag_6\n      jumpi\n      dup1\n      0x9fb42b1f\n      eq\n      tag_7\n      jumpi\n      dup1\n      0xcfc54848\n      eq\n      tag_8\n      jumpi\n      dup1\n      0xd42cd5a9\n      eq\n      tag_9\n      jumpi\n      dup1\n      0xd5ebe7f8\n      eq\n      tag_10\n      jumpi\n      jump(tag_1)\n    tag_11:\n      dup1\n      0x24ca53c2\n      eq\n      tag_2\n      jumpi\n      dup1\n      0x2e1a7d4d\n      eq\n      tag_3\n      jumpi\n      dup1\n      0x3f5a7d48\n      eq\n      tag_4\n      jumpi\n      dup1\n      0x6f6b4069\n      eq\n      tag_5\n      jumpi\n    tag_1:\n      0x00\n      dup1\n      revert\n        /* \"contracts/Crypto Kids/Cryptokids.sol\":117:151  address payable public address_kid */\n    tag_2:\n      callvalue\n      dup1\n      iszero\n      tag_12\n      jumpi\n      0x00\n      dup1\n      revert\n    tag_12:\n      pop\n      tag_13\n      tag_14\n      jump\t// in\n    tag_13:\n      mload(0x40)\n      tag_15\n      swap2\n      swap1\n      tag_16\n      jump\t// in\n    tag_15:\n      mload(0x40)\n      dup1\n      swap2\n      sub\n      swap1\n      return\n        /* \"contracts/Crypto Kids/Cryptokids.sol\":1096:1491  function withdraw(uint requestNo) public payable {... */\n    tag_3:\n      tag_17\n      0x04\n      dup1\n      calldatasize\n      sub\n      dup2\n      add\n      swap1\n      tag_18\n      swap2\n      swap1\n      tag_19\n      jump\t// in\n    tag_18:\n      tag_20\n      jump\t// in\n    tag_17:\n      stop\n        /* \"contracts/Crypto Kids/Cryptokids.sol\":390:422  uint256 public transferingAmount */\n    tag_4:\n      callvalue\n      dup1\n      iszero\n      tag_21\n      jumpi\n      0x00\n      dup1\n      revert\n    tag_21:\n      pop\n      tag_22\n      tag_23\n      jump\t// in\n    tag_22:\n      mload(0x40)\n      tag_24\n      swap2\n      swap1\n      tag_25\n      jump\t// in\n    tag_24:\n      mload(0x40)\n      dup1\n      swap2\n      sub\n      swap1\n      return\n        /* \"contracts/Crypto Kids/Cryptokids.sol\":317:350  mapping(address=>uint) public kid */\n    tag_5:\n      callvalue\n      dup1\n      iszero\n      tag_26\n      jumpi\n      0x00\n      dup1\n      revert\n    tag_26:\n      pop\n      tag_27\n      0x04\n      dup1\n      calldatasize\n      sub\n      dup2\n      add\n      swap1\n      tag_28\n      swap2\n      swap1\n      tag_29\n      jump\t// in\n    tag_28:\n      tag_30\n      jump\t// in\n    tag_27:\n      mload(0x40)\n      tag_31\n      swap2\n      swap1\n      tag_25\n      jump\t// in\n    tag_31:\n      mload(0x40)\n      dup1\n      swap2\n      sub\n      swap1\n      return\n        /* \"contracts/Crypto Kids/Cryptokids.sol\":271:310  mapping(uint=>KidsInfo) public requests */\n    tag_6:\n      callvalue\n      dup1\n      iszero\n      tag_32\n      jumpi\n      0x00\n      dup1\n      revert\n    tag_32:\n      pop\n      tag_33\n      0x04\n      dup1\n      calldatasize\n      sub\n      dup2\n      add\n      swap1\n      tag_34\n      swap2\n      swap1\n      tag_19\n      jump\t// in\n    tag_34:\n      tag_35\n      jump\t// in\n    tag_33:\n      mload(0x40)\n      tag_36\n      swap4\n      swap3\n      swap2\n      swap1\n      tag_37\n      jump\t// in\n    tag_36:\n      mload(0x40)\n      dup1\n      swap2\n      sub\n      swap1\n      return\n        /* \"contracts/Crypto Kids/Cryptokids.sol\":357:383  uint256 public numRequests */\n    tag_7:\n      callvalue\n      dup1\n      iszero\n      tag_38\n      jumpi\n      0x00\n      dup1\n      revert\n    tag_38:\n      pop\n      tag_39\n      tag_40\n      jump\t// in\n    tag_39:\n      mload(0x40)\n      tag_41\n      swap2\n      swap1\n      tag_25\n      jump\t// in\n    tag_41:\n      mload(0x40)\n      dup1\n      swap2\n      sub\n      swap1\n      return\n        /* \"contracts/Crypto Kids/Cryptokids.sol\":915:1088  function sendEth(uint requestNo) public payable onlyGrandpa {... */\n    tag_8:\n      tag_42\n      0x04\n      dup1\n      calldatasize\n      sub\n      dup2\n      add\n      swap1\n      tag_43\n      swap2\n      swap1\n      tag_19\n      jump\t// in\n    tag_43:\n      tag_44\n      jump\t// in\n    tag_42:\n      stop\n        /* \"contracts/Crypto Kids/Cryptokids.sol\":653:907  function kids_entry(address _kid, uint256 _age) onlyGrandpa public {... */\n    tag_9:\n      callvalue\n      dup1\n      iszero\n      tag_45\n      jumpi\n      0x00\n      dup1\n      revert\n    tag_45:\n      pop\n      tag_46\n      0x04\n      dup1\n      calldatasize\n      sub\n      dup2\n      add\n      swap1\n      tag_47\n      swap2\n      swap1\n      tag_48\n      jump\t// in\n    tag_47:\n      tag_49\n      jump\t// in\n    tag_46:\n      stop\n        /* \"contracts/Crypto Kids/Cryptokids.sol\":88:110  address public grandpa */\n    tag_10:\n      callvalue\n      dup1\n      iszero\n      tag_50\n      jumpi\n      0x00\n      dup1\n      revert\n    tag_50:\n      pop\n      tag_51\n      tag_52\n      jump\t// in\n    tag_51:\n      mload(0x40)\n      tag_53\n      swap2\n      swap1\n      tag_54\n      jump\t// in\n    tag_53:\n      mload(0x40)\n      dup1\n      swap2\n      sub\n      swap1\n      return\n        /* \"contracts/Crypto Kids/Cryptokids.sol\":117:151  address payable public address_kid */\n    tag_14:\n      0x01\n      0x00\n      swap1\n      sload\n      swap1\n      0x0100\n      exp\n      swap1\n      div\n      0xffffffffffffffffffffffffffffffffffffffff\n      and\n      dup2\n      jump\t// out\n        /* \"contracts/Crypto Kids/Cryptokids.sol\":1096:1491  function withdraw(uint requestNo) public payable {... */\n    tag_20:\n        /* \"contracts/Crypto Kids/Cryptokids.sol\":1156:1181  KidsInfo storage kidsinfo */\n      0x00\n        /* \"contracts/Crypto Kids/Cryptokids.sol\":1184:1192  requests */\n      0x02\n        /* \"contracts/Crypto Kids/Cryptokids.sol\":1184:1203  requests[requestNo] */\n      0x00\n        /* \"contracts/Crypto Kids/Cryptokids.sol\":1193:1202  requestNo */\n      dup4\n        /* \"contracts/Crypto Kids/Cryptokids.sol\":1184:1203  requests[requestNo] */\n      dup2\n      mstore\n      0x20\n      add\n      swap1\n      dup2\n      mstore\n      0x20\n      add\n      0x00\n      keccak256\n        /* \"contracts/Crypto Kids/Cryptokids.sol\":1156:1203  KidsInfo storage kidsinfo = requests[requestNo] */\n      swap1\n      pop\n        /* \"contracts/Crypto Kids/Cryptokids.sol\":1214:1232  uint256 age_of_kid */\n      0x00\n        /* \"contracts/Crypto Kids/Cryptokids.sol\":1235:1243  kidsinfo */\n      dup2\n        /* \"contracts/Crypto Kids/Cryptokids.sol\":1235:1247  kidsinfo.age */\n      0x01\n      add\n      sload\n        /* \"contracts/Crypto Kids/Cryptokids.sol\":1214:1247  uint256 age_of_kid = kidsinfo.age */\n      swap1\n      pop\n        /* \"contracts/Crypto Kids/Cryptokids.sol\":1279:1281  18 */\n      0x12\n        /* \"contracts/Crypto Kids/Cryptokids.sol\":1266:1276  age_of_kid */\n      dup2\n        /* \"contracts/Crypto Kids/Cryptokids.sol\":1266:1281  age_of_kid > 18 */\n      gt\n        /* \"contracts/Crypto Kids/Cryptokids.sol\":1258:1351  require(age_of_kid > 18,\"You are still not young enough to get the ether from your grandpa.\") */\n      tag_56\n      jumpi\n      mload(0x40)\n      0x08c379a000000000000000000000000000000000000000000000000000000000\n      dup2\n      mstore\n      0x04\n      add\n      tag_57\n      swap1\n      tag_58\n      jump\t// in\n    tag_57:\n      mload(0x40)\n      dup1\n      swap2\n      sub\n      swap1\n      revert\n    tag_56:\n        /* \"contracts/Crypto Kids/Cryptokids.sol\":1418:1426  kidsinfo */\n      dup2\n        /* \"contracts/Crypto Kids/Cryptokids.sol\":1418:1438  kidsinfo.address_kid */\n      0x00\n      add\n      0x00\n      swap1\n      sload\n      swap1\n      0x0100\n      exp\n      swap1\n      div\n      0xffffffffffffffffffffffffffffffffffffffff\n      and\n        /* \"contracts/Crypto Kids/Cryptokids.sol\":1410:1448  payable(kidsinfo.address_kid).transfer */\n      0xffffffffffffffffffffffffffffffffffffffff\n      and\n        /* \"contracts/Crypto Kids/Cryptokids.sol\":1410:1471  payable(kidsinfo.address_kid).transfer(kidsinfo.gainedAmount) */\n      0x08fc\n        /* \"contracts/Crypto Kids/Cryptokids.sol\":1449:1457  kidsinfo */\n      dup4\n        /* \"contracts/Crypto Kids/Cryptokids.sol\":1449:1470  kidsinfo.gainedAmount */\n      0x02\n      add\n      sload\n        /* \"contracts/Crypto Kids/Cryptokids.sol\":1410:1471  payable(kidsinfo.address_kid).transfer(kidsinfo.gainedAmount) */\n      swap1\n      dup2\n      iszero\n      mul\n      swap1\n      mload(0x40)\n      0x00\n      mload(0x40)\n      dup1\n      dup4\n      sub\n      dup2\n      dup6\n      dup9\n      dup9\n      call\n      swap4\n      pop\n      pop\n      pop\n      pop\n      iszero\n      dup1\n      iszero\n      tag_60\n      jumpi\n      returndatasize\n      0x00\n      dup1\n      returndatacopy\n      revert(0x00, returndatasize)\n    tag_60:\n      pop\n        /* \"contracts/Crypto Kids/Cryptokids.sol\":1145:1491  {... */\n      pop\n      pop\n        /* \"contracts/Crypto Kids/Cryptokids.sol\":1096:1491  function withdraw(uint requestNo) public payable {... */\n      pop\n      jump\t// out\n        /* \"contracts/Crypto Kids/Cryptokids.sol\":390:422  uint256 public transferingAmount */\n    tag_23:\n      sload(0x05)\n      dup2\n      jump\t// out\n        /* \"contracts/Crypto Kids/Cryptokids.sol\":317:350  mapping(address=>uint) public kid */\n    tag_30:\n      mstore(0x20, 0x03)\n      dup1\n      0x00\n      mstore\n      keccak256(0x00, 0x40)\n      0x00\n      swap2\n      pop\n      swap1\n      pop\n      sload\n      dup2\n      jump\t// out\n        /* \"contracts/Crypto Kids/Cryptokids.sol\":271:310  mapping(uint=>KidsInfo) public requests */\n    tag_35:\n      mstore(0x20, 0x02)\n      dup1\n      0x00\n      mstore\n      keccak256(0x00, 0x40)\n      0x00\n      swap2\n      pop\n      swap1\n      pop\n      dup1\n      0x00\n      add\n      0x00\n      swap1\n      sload\n      swap1\n      0x0100\n      exp\n      swap1\n      div\n      0xffffffffffffffffffffffffffffffffffffffff\n      and\n      swap1\n      dup1\n      0x01\n      add\n      sload\n      swap1\n      dup1\n      0x02\n      add\n      sload\n      swap1\n      pop\n      dup4\n      jump\t// out\n        /* \"contracts/Crypto Kids/Cryptokids.sol\":357:383  uint256 public numRequests */\n    tag_40:\n      sload(0x04)\n      dup2\n      jump\t// out\n        /* \"contracts/Crypto Kids/Cryptokids.sol\":915:1088  function sendEth(uint requestNo) public payable onlyGrandpa {... */\n    tag_44:\n        /* \"contracts/Crypto Kids/Cryptokids.sol\":617:624  grandpa */\n      0x00\n      dup1\n      sload\n      swap1\n      0x0100\n      exp\n      swap1\n      div\n      0xffffffffffffffffffffffffffffffffffffffff\n      and\n        /* \"contracts/Crypto Kids/Cryptokids.sol\":603:624  msg.sender == grandpa */\n      0xffffffffffffffffffffffffffffffffffffffff\n      and\n        /* \"contracts/Crypto Kids/Cryptokids.sol\":603:613  msg.sender */\n      caller\n        /* \"contracts/Crypto Kids/Cryptokids.sol\":603:624  msg.sender == grandpa */\n      0xffffffffffffffffffffffffffffffffffffffff\n      and\n      eq\n        /* \"contracts/Crypto Kids/Cryptokids.sol\":595:625  require(msg.sender == grandpa) */\n      tag_62\n      jumpi\n      0x00\n      dup1\n      revert\n    tag_62:\n        /* \"contracts/Crypto Kids/Cryptokids.sol\":986:1011  KidsInfo storage kidsinfo */\n      0x00\n        /* \"contracts/Crypto Kids/Cryptokids.sol\":1014:1022  requests */\n      0x02\n        /* \"contracts/Crypto Kids/Cryptokids.sol\":1014:1033  requests[requestNo] */\n      0x00\n        /* \"contracts/Crypto Kids/Cryptokids.sol\":1023:1032  requestNo */\n      dup4\n        /* \"contracts/Crypto Kids/Cryptokids.sol\":1014:1033  requests[requestNo] */\n      dup2\n      mstore\n      0x20\n      add\n      swap1\n      dup2\n      mstore\n      0x20\n      add\n      0x00\n      keccak256\n        /* \"contracts/Crypto Kids/Cryptokids.sol\":986:1033  KidsInfo storage kidsinfo = requests[requestNo] */\n      swap1\n      pop\n        /* \"contracts/Crypto Kids/Cryptokids.sol\":1070:1079  msg.value */\n      callvalue\n        /* \"contracts/Crypto Kids/Cryptokids.sol\":1044:1052  kidsinfo */\n      dup2\n        /* \"contracts/Crypto Kids/Cryptokids.sol\":1044:1065  kidsinfo.gainedAmount */\n      0x02\n      add\n      0x00\n        /* \"contracts/Crypto Kids/Cryptokids.sol\":1044:1080  kidsinfo.gainedAmount += (msg.value) */\n      dup3\n      dup3\n      sload\n      tag_64\n      swap2\n      swap1\n      tag_65\n      jump\t// in\n    tag_64:\n      swap3\n      pop\n      pop\n      dup2\n      swap1\n      sstore\n      pop\n        /* \"contracts/Crypto Kids/Cryptokids.sol\":975:1088  {... */\n      pop\n        /* \"contracts/Crypto Kids/Cryptokids.sol\":915:1088  function sendEth(uint requestNo) public payable onlyGrandpa {... */\n      pop\n      jump\t// out\n        /* \"contracts/Crypto Kids/Cryptokids.sol\":653:907  function kids_entry(address _kid, uint256 _age) onlyGrandpa public {... */\n    tag_49:\n        /* \"contracts/Crypto Kids/Cryptokids.sol\":617:624  grandpa */\n      0x00\n      dup1\n      sload\n      swap1\n      0x0100\n      exp\n      swap1\n      div\n      0xffffffffffffffffffffffffffffffffffffffff\n      and\n        /* \"contracts/Crypto Kids/Cryptokids.sol\":603:624  msg.sender == grandpa */\n      0xffffffffffffffffffffffffffffffffffffffff\n      and\n        /* \"contracts/Crypto Kids/Cryptokids.sol\":603:613  msg.sender */\n      caller\n        /* \"contracts/Crypto Kids/Cryptokids.sol\":603:624  msg.sender == grandpa */\n      0xffffffffffffffffffffffffffffffffffffffff\n      and\n      eq\n        /* \"contracts/Crypto Kids/Cryptokids.sol\":595:625  require(msg.sender == grandpa) */\n      tag_67\n      jumpi\n      0x00\n      dup1\n      revert\n    tag_67:\n        /* \"contracts/Crypto Kids/Cryptokids.sol\":731:756  KidsInfo storage kidsinfo */\n      0x00\n        /* \"contracts/Crypto Kids/Cryptokids.sol\":759:767  requests */\n      0x02\n        /* \"contracts/Crypto Kids/Cryptokids.sol\":759:780  requests[numRequests] */\n      0x00\n        /* \"contracts/Crypto Kids/Cryptokids.sol\":768:779  numRequests */\n      sload(0x04)\n        /* \"contracts/Crypto Kids/Cryptokids.sol\":759:780  requests[numRequests] */\n      dup2\n      mstore\n      0x20\n      add\n      swap1\n      dup2\n      mstore\n      0x20\n      add\n      0x00\n      keccak256\n        /* \"contracts/Crypto Kids/Cryptokids.sol\":731:780  KidsInfo storage kidsinfo = requests[numRequests] */\n      swap1\n      pop\n        /* \"contracts/Crypto Kids/Cryptokids.sol\":791:802  numRequests */\n      0x04\n      0x00\n        /* \"contracts/Crypto Kids/Cryptokids.sol\":791:804  numRequests++ */\n      dup2\n      sload\n      dup1\n      swap3\n      swap2\n      swap1\n      tag_69\n      swap1\n      tag_70\n      jump\t// in\n    tag_69:\n      swap2\n      swap1\n      pop\n      sstore\n      pop\n        /* \"contracts/Crypto Kids/Cryptokids.sol\":838:842  _kid */\n      dup3\n        /* \"contracts/Crypto Kids/Cryptokids.sol\":815:823  kidsinfo */\n      dup2\n        /* \"contracts/Crypto Kids/Cryptokids.sol\":815:835  kidsinfo.address_kid */\n      0x00\n      add\n      0x00\n        /* \"contracts/Crypto Kids/Cryptokids.sol\":815:842  kidsinfo.address_kid = _kid */\n      0x0100\n      exp\n      dup2\n      sload\n      dup2\n      0xffffffffffffffffffffffffffffffffffffffff\n      mul\n      not\n      and\n      swap1\n      dup4\n      0xffffffffffffffffffffffffffffffffffffffff\n      and\n      mul\n      or\n      swap1\n      sstore\n      pop\n        /* \"contracts/Crypto Kids/Cryptokids.sol\":868:872  _age */\n      dup2\n        /* \"contracts/Crypto Kids/Cryptokids.sol\":853:861  kidsinfo */\n      dup2\n        /* \"contracts/Crypto Kids/Cryptokids.sol\":853:865  kidsinfo.age */\n      0x01\n      add\n        /* \"contracts/Crypto Kids/Cryptokids.sol\":853:872  kidsinfo.age = _age */\n      dup2\n      swap1\n      sstore\n      pop\n        /* \"contracts/Crypto Kids/Cryptokids.sol\":895:899  _age */\n      dup2\n        /* \"contracts/Crypto Kids/Cryptokids.sol\":883:886  kid */\n      0x03\n        /* \"contracts/Crypto Kids/Cryptokids.sol\":883:892  kid[_kid] */\n      0x00\n        /* \"contracts/Crypto Kids/Cryptokids.sol\":887:891  _kid */\n      dup6\n        /* \"contracts/Crypto Kids/Cryptokids.sol\":883:892  kid[_kid] */\n      0xffffffffffffffffffffffffffffffffffffffff\n      and\n      0xffffffffffffffffffffffffffffffffffffffff\n      and\n      dup2\n      mstore\n      0x20\n      add\n      swap1\n      dup2\n      mstore\n      0x20\n      add\n      0x00\n      keccak256\n        /* \"contracts/Crypto Kids/Cryptokids.sol\":883:899  kid[_kid] = _age */\n      dup2\n      swap1\n      sstore\n      pop\n        /* \"contracts/Crypto Kids/Cryptokids.sol\":720:907  {... */\n      pop\n        /* \"contracts/Crypto Kids/Cryptokids.sol\":653:907  function kids_entry(address _kid, uint256 _age) onlyGrandpa public {... */\n      pop\n      pop\n      jump\t// out\n        /* \"contracts/Crypto Kids/Cryptokids.sol\":88:110  address public grandpa */\n    tag_52:\n      0x00\n      dup1\n      sload\n      swap1\n      0x0100\n      exp\n      swap1\n      div\n      0xffffffffffffffffffffffffffffffffffffffff\n      and\n      dup2\n      jump\t// out\n        /* \"#utility.yul\":7:133   */\n    tag_71:\n        /* \"#utility.yul\":44:51   */\n      0x00\n        /* \"#utility.yul\":84:126   */\n      0xffffffffffffffffffffffffffffffffffffffff\n        /* \"#utility.yul\":77:82   */\n      dup3\n        /* \"#utility.yul\":73:127   */\n      and\n        /* \"#utility.yul\":62:127   */\n      swap1\n      pop\n        /* \"#utility.yul\":7:133   */\n      swap2\n      swap1\n      pop\n      jump\t// out\n        /* \"#utility.yul\":139:243   */\n    tag_72:\n        /* \"#utility.yul\":184:191   */\n      0x00\n        /* \"#utility.yul\":213:237   */\n      tag_92\n        /* \"#utility.yul\":231:236   */\n      dup3\n        /* \"#utility.yul\":213:237   */\n      tag_71\n      jump\t// in\n    tag_92:\n        /* \"#utility.yul\":202:237   */\n      swap1\n      pop\n        /* \"#utility.yul\":139:243   */\n      swap2\n      swap1\n      pop\n      jump\t// out\n        /* \"#utility.yul\":249:391   */\n    tag_73:\n        /* \"#utility.yul\":352:384   */\n      tag_94\n        /* \"#utility.yul\":378:383   */\n      dup2\n        /* \"#utility.yul\":352:384   */\n      tag_72\n      jump\t// in\n    tag_94:\n        /* \"#utility.yul\":347:350   */\n      dup3\n        /* \"#utility.yul\":340:385   */\n      mstore\n        /* \"#utility.yul\":249:391   */\n      pop\n      pop\n      jump\t// out\n        /* \"#utility.yul\":397:651   */\n    tag_16:\n        /* \"#utility.yul\":506:510   */\n      0x00\n        /* \"#utility.yul\":544:546   */\n      0x20\n        /* \"#utility.yul\":533:542   */\n      dup3\n        /* \"#utility.yul\":529:547   */\n      add\n        /* \"#utility.yul\":521:547   */\n      swap1\n      pop\n        /* \"#utility.yul\":557:644   */\n      tag_96\n        /* \"#utility.yul\":641:642   */\n      0x00\n        /* \"#utility.yul\":630:639   */\n      dup4\n        /* \"#utility.yul\":626:643   */\n      add\n        /* \"#utility.yul\":617:623   */\n      dup5\n        /* \"#utility.yul\":557:644   */\n      tag_73\n      jump\t// in\n    tag_96:\n        /* \"#utility.yul\":397:651   */\n      swap3\n      swap2\n      pop\n      pop\n      jump\t// out\n        /* \"#utility.yul\":738:855   */\n    tag_75:\n        /* \"#utility.yul\":847:848   */\n      0x00\n        /* \"#utility.yul\":844:845   */\n      dup1\n        /* \"#utility.yul\":837:849   */\n      revert\n        /* \"#utility.yul\":984:1061   */\n    tag_77:\n        /* \"#utility.yul\":1021:1028   */\n      0x00\n        /* \"#utility.yul\":1050:1055   */\n      dup2\n        /* \"#utility.yul\":1039:1055   */\n      swap1\n      pop\n        /* \"#utility.yul\":984:1061   */\n      swap2\n      swap1\n      pop\n      jump\t// out\n        /* \"#utility.yul\":1067:1189   */\n    tag_78:\n        /* \"#utility.yul\":1140:1164   */\n      tag_102\n        /* \"#utility.yul\":1158:1163   */\n      dup2\n        /* \"#utility.yul\":1140:1164   */\n      tag_77\n      jump\t// in\n    tag_102:\n        /* \"#utility.yul\":1133:1138   */\n      dup2\n        /* \"#utility.yul\":1130:1165   */\n      eq\n        /* \"#utility.yul\":1120:1183   */\n      tag_103\n      jumpi\n        /* \"#utility.yul\":1179:1180   */\n      0x00\n        /* \"#utility.yul\":1176:1177   */\n      dup1\n        /* \"#utility.yul\":1169:1181   */\n      revert\n        /* \"#utility.yul\":1120:1183   */\n    tag_103:\n        /* \"#utility.yul\":1067:1189   */\n      pop\n      jump\t// out\n        /* \"#utility.yul\":1195:1334   */\n    tag_79:\n        /* \"#utility.yul\":1241:1246   */\n      0x00\n        /* \"#utility.yul\":1279:1285   */\n      dup2\n        /* \"#utility.yul\":1266:1286   */\n      calldataload\n        /* \"#utility.yul\":1257:1286   */\n      swap1\n      pop\n        /* \"#utility.yul\":1295:1328   */\n      tag_105\n        /* \"#utility.yul\":1322:1327   */\n      dup2\n        /* \"#utility.yul\":1295:1328   */\n      tag_78\n      jump\t// in\n    tag_105:\n        /* \"#utility.yul\":1195:1334   */\n      swap3\n      swap2\n      pop\n      pop\n      jump\t// out\n        /* \"#utility.yul\":1340:1669   */\n    tag_19:\n        /* \"#utility.yul\":1399:1405   */\n      0x00\n        /* \"#utility.yul\":1448:1450   */\n      0x20\n        /* \"#utility.yul\":1436:1445   */\n      dup3\n        /* \"#utility.yul\":1427:1434   */\n      dup5\n        /* \"#utility.yul\":1423:1446   */\n      sub\n        /* \"#utility.yul\":1419:1451   */\n      slt\n        /* \"#utility.yul\":1416:1535   */\n      iszero\n      tag_107\n      jumpi\n        /* \"#utility.yul\":1454:1533   */\n      tag_108\n      tag_75\n      jump\t// in\n    tag_108:\n        /* \"#utility.yul\":1416:1535   */\n    tag_107:\n        /* \"#utility.yul\":1574:1575   */\n      0x00\n        /* \"#utility.yul\":1599:1652   */\n      tag_109\n        /* \"#utility.yul\":1644:1651   */\n      dup5\n        /* \"#utility.yul\":1635:1641   */\n      dup3\n        /* \"#utility.yul\":1624:1633   */\n      dup6\n        /* \"#utility.yul\":1620:1642   */\n      add\n        /* \"#utility.yul\":1599:1652   */\n      tag_79\n      jump\t// in\n    tag_109:\n        /* \"#utility.yul\":1589:1652   */\n      swap2\n      pop\n        /* \"#utility.yul\":1545:1662   */\n      pop\n        /* \"#utility.yul\":1340:1669   */\n      swap3\n      swap2\n      pop\n      pop\n      jump\t// out\n        /* \"#utility.yul\":1675:1793   */\n    tag_80:\n        /* \"#utility.yul\":1762:1786   */\n      tag_111\n        /* \"#utility.yul\":1780:1785   */\n      dup2\n        /* \"#utility.yul\":1762:1786   */\n      tag_77\n      jump\t// in\n    tag_111:\n        /* \"#utility.yul\":1757:1760   */\n      dup3\n        /* \"#utility.yul\":1750:1787   */\n      mstore\n        /* \"#utility.yul\":1675:1793   */\n      pop\n      pop\n      jump\t// out\n        /* \"#utility.yul\":1799:2021   */\n    tag_25:\n        /* \"#utility.yul\":1892:1896   */\n      0x00\n        /* \"#utility.yul\":1930:1932   */\n      0x20\n        /* \"#utility.yul\":1919:1928   */\n      dup3\n        /* \"#utility.yul\":1915:1933   */\n      add\n        /* \"#utility.yul\":1907:1933   */\n      swap1\n      pop\n        /* \"#utility.yul\":1943:2014   */\n      tag_113\n        /* \"#utility.yul\":2011:2012   */\n      0x00\n        /* \"#utility.yul\":2000:2009   */\n      dup4\n        /* \"#utility.yul\":1996:2013   */\n      add\n        /* \"#utility.yul\":1987:1993   */\n      dup5\n        /* \"#utility.yul\":1943:2014   */\n      tag_80\n      jump\t// in\n    tag_113:\n        /* \"#utility.yul\":1799:2021   */\n      swap3\n      swap2\n      pop\n      pop\n      jump\t// out\n        /* \"#utility.yul\":2027:2123   */\n    tag_81:\n        /* \"#utility.yul\":2064:2071   */\n      0x00\n        /* \"#utility.yul\":2093:2117   */\n      tag_115\n        /* \"#utility.yul\":2111:2116   */\n      dup3\n        /* \"#utility.yul\":2093:2117   */\n      tag_71\n      jump\t// in\n    tag_115:\n        /* \"#utility.yul\":2082:2117   */\n      swap1\n      pop\n        /* \"#utility.yul\":2027:2123   */\n      swap2\n      swap1\n      pop\n      jump\t// out\n        /* \"#utility.yul\":2129:2251   */\n    tag_82:\n        /* \"#utility.yul\":2202:2226   */\n      tag_117\n        /* \"#utility.yul\":2220:2225   */\n      dup2\n        /* \"#utility.yul\":2202:2226   */\n      tag_81\n      jump\t// in\n    tag_117:\n        /* \"#utility.yul\":2195:2200   */\n      dup2\n        /* \"#utility.yul\":2192:2227   */\n      eq\n        /* \"#utility.yul\":2182:2245   */\n      tag_118\n      jumpi\n        /* \"#utility.yul\":2241:2242   */\n      0x00\n        /* \"#utility.yul\":2238:2239   */\n      dup1\n        /* \"#utility.yul\":2231:2243   */\n      revert\n        /* \"#utility.yul\":2182:2245   */\n    tag_118:\n        /* \"#utility.yul\":2129:2251   */\n      pop\n      jump\t// out\n        /* \"#utility.yul\":2257:2396   */\n    tag_83:\n        /* \"#utility.yul\":2303:2308   */\n      0x00\n        /* \"#utility.yul\":2341:2347   */\n      dup2\n        /* \"#utility.yul\":2328:2348   */\n      calldataload\n        /* \"#utility.yul\":2319:2348   */\n      swap1\n      pop\n        /* \"#utility.yul\":2357:2390   */\n      tag_120\n        /* \"#utility.yul\":2384:2389   */\n      dup2\n        /* \"#utility.yul\":2357:2390   */\n      tag_82\n      jump\t// in\n    tag_120:\n        /* \"#utility.yul\":2257:2396   */\n      swap3\n      swap2\n      pop\n      pop\n      jump\t// out\n        /* \"#utility.yul\":2402:2731   */\n    tag_29:\n        /* \"#utility.yul\":2461:2467   */\n      0x00\n        /* \"#utility.yul\":2510:2512   */\n      0x20\n        /* \"#utility.yul\":2498:2507   */\n      dup3\n        /* \"#utility.yul\":2489:2496   */\n      dup5\n        /* \"#utility.yul\":2485:2508   */\n      sub\n        /* \"#utility.yul\":2481:2513   */\n      slt\n        /* \"#utility.yul\":2478:2597   */\n      iszero\n      tag_122\n      jumpi\n        /* \"#utility.yul\":2516:2595   */\n      tag_123\n      tag_75\n      jump\t// in\n    tag_123:\n        /* \"#utility.yul\":2478:2597   */\n    tag_122:\n        /* \"#utility.yul\":2636:2637   */\n      0x00\n        /* \"#utility.yul\":2661:2714   */\n      tag_124\n        /* \"#utility.yul\":2706:2713   */\n      dup5\n        /* \"#utility.yul\":2697:2703   */\n      dup3\n        /* \"#utility.yul\":2686:2695   */\n      dup6\n        /* \"#utility.yul\":2682:2704   */\n      add\n        /* \"#utility.yul\":2661:2714   */\n      tag_83\n      jump\t// in\n    tag_124:\n        /* \"#utility.yul\":2651:2714   */\n      swap2\n      pop\n        /* \"#utility.yul\":2607:2724   */\n      pop\n        /* \"#utility.yul\":2402:2731   */\n      swap3\n      swap2\n      pop\n      pop\n      jump\t// out\n        /* \"#utility.yul\":2737:2855   */\n    tag_84:\n        /* \"#utility.yul\":2824:2848   */\n      tag_126\n        /* \"#utility.yul\":2842:2847   */\n      dup2\n        /* \"#utility.yul\":2824:2848   */\n      tag_81\n      jump\t// in\n    tag_126:\n        /* \"#utility.yul\":2819:2822   */\n      dup3\n        /* \"#utility.yul\":2812:2849   */\n      mstore\n        /* \"#utility.yul\":2737:2855   */\n      pop\n      pop\n      jump\t// out\n        /* \"#utility.yul\":2861:3303   */\n    tag_37:\n        /* \"#utility.yul\":3010:3014   */\n      0x00\n        /* \"#utility.yul\":3048:3050   */\n      0x60\n        /* \"#utility.yul\":3037:3046   */\n      dup3\n        /* \"#utility.yul\":3033:3051   */\n      add\n        /* \"#utility.yul\":3025:3051   */\n      swap1\n      pop\n        /* \"#utility.yul\":3061:3132   */\n      tag_128\n        /* \"#utility.yul\":3129:3130   */\n      0x00\n        /* \"#utility.yul\":3118:3127   */\n      dup4\n        /* \"#utility.yul\":3114:3131   */\n      add\n        /* \"#utility.yul\":3105:3111   */\n      dup7\n        /* \"#utility.yul\":3061:3132   */\n      tag_84\n      jump\t// in\n    tag_128:\n        /* \"#utility.yul\":3142:3214   */\n      tag_129\n        /* \"#utility.yul\":3210:3212   */\n      0x20\n        /* \"#utility.yul\":3199:3208   */\n      dup4\n        /* \"#utility.yul\":3195:3213   */\n      add\n        /* \"#utility.yul\":3186:3192   */\n      dup6\n        /* \"#utility.yul\":3142:3214   */\n      tag_80\n      jump\t// in\n    tag_129:\n        /* \"#utility.yul\":3224:3296   */\n      tag_130\n        /* \"#utility.yul\":3292:3294   */\n      0x40\n        /* \"#utility.yul\":3281:3290   */\n      dup4\n        /* \"#utility.yul\":3277:3295   */\n      add\n        /* \"#utility.yul\":3268:3274   */\n      dup5\n        /* \"#utility.yul\":3224:3296   */\n      tag_80\n      jump\t// in\n    tag_130:\n        /* \"#utility.yul\":2861:3303   */\n      swap5\n      swap4\n      pop\n      pop\n      pop\n      pop\n      jump\t// out\n        /* \"#utility.yul\":3309:3783   */\n    tag_48:\n        /* \"#utility.yul\":3377:3383   */\n      0x00\n        /* \"#utility.yul\":3385:3391   */\n      dup1\n        /* \"#utility.yul\":3434:3436   */\n      0x40\n        /* \"#utility.yul\":3422:3431   */\n      dup4\n        /* \"#utility.yul\":3413:3420   */\n      dup6\n        /* \"#utility.yul\":3409:3432   */\n      sub\n        /* \"#utility.yul\":3405:3437   */\n      slt\n        /* \"#utility.yul\":3402:3521   */\n      iszero\n      tag_132\n      jumpi\n        /* \"#utility.yul\":3440:3519   */\n      tag_133\n      tag_75\n      jump\t// in\n    tag_133:\n        /* \"#utility.yul\":3402:3521   */\n    tag_132:\n        /* \"#utility.yul\":3560:3561   */\n      0x00\n        /* \"#utility.yul\":3585:3638   */\n      tag_134\n        /* \"#utility.yul\":3630:3637   */\n      dup6\n        /* \"#utility.yul\":3621:3627   */\n      dup3\n        /* \"#utility.yul\":3610:3619   */\n      dup7\n        /* \"#utility.yul\":3606:3628   */\n      add\n        /* \"#utility.yul\":3585:3638   */\n      tag_83\n      jump\t// in\n    tag_134:\n        /* \"#utility.yul\":3575:3638   */\n      swap3\n      pop\n        /* \"#utility.yul\":3531:3648   */\n      pop\n        /* \"#utility.yul\":3687:3689   */\n      0x20\n        /* \"#utility.yul\":3713:3766   */\n      tag_135\n        /* \"#utility.yul\":3758:3765   */\n      dup6\n        /* \"#utility.yul\":3749:3755   */\n      dup3\n        /* \"#utility.yul\":3738:3747   */\n      dup7\n        /* \"#utility.yul\":3734:3756   */\n      add\n        /* \"#utility.yul\":3713:3766   */\n      tag_79\n      jump\t// in\n    tag_135:\n        /* \"#utility.yul\":3703:3766   */\n      swap2\n      pop\n        /* \"#utility.yul\":3658:3776   */\n      pop\n        /* \"#utility.yul\":3309:3783   */\n      swap3\n      pop\n      swap3\n      swap1\n      pop\n      jump\t// out\n        /* \"#utility.yul\":3789:4011   */\n    tag_54:\n        /* \"#utility.yul\":3882:3886   */\n      0x00\n        /* \"#utility.yul\":3920:3922   */\n      0x20\n        /* \"#utility.yul\":3909:3918   */\n      dup3\n        /* \"#utility.yul\":3905:3923   */\n      add\n        /* \"#utility.yul\":3897:3923   */\n      swap1\n      pop\n        /* \"#utility.yul\":3933:4004   */\n      tag_137\n        /* \"#utility.yul\":4001:4002   */\n      0x00\n        /* \"#utility.yul\":3990:3999   */\n      dup4\n        /* \"#utility.yul\":3986:4003   */\n      add\n        /* \"#utility.yul\":3977:3983   */\n      dup5\n        /* \"#utility.yul\":3933:4004   */\n      tag_84\n      jump\t// in\n    tag_137:\n        /* \"#utility.yul\":3789:4011   */\n      swap3\n      swap2\n      pop\n      pop\n      jump\t// out\n        /* \"#utility.yul\":4017:4186   */\n    tag_85:\n        /* \"#utility.yul\":4101:4112   */\n      0x00\n        /* \"#utility.yul\":4135:4141   */\n      dup3\n        /* \"#utility.yul\":4130:4133   */\n      dup3\n        /* \"#utility.yul\":4123:4142   */\n      mstore\n        /* \"#utility.yul\":4175:4179   */\n      0x20\n        /* \"#utility.yul\":4170:4173   */\n      dup3\n        /* \"#utility.yul\":4166:4180   */\n      add\n        /* \"#utility.yul\":4151:4180   */\n      swap1\n      pop\n        /* \"#utility.yul\":4017:4186   */\n      swap3\n      swap2\n      pop\n      pop\n      jump\t// out\n        /* \"#utility.yul\":4192:4482   */\n    tag_86:\n        /* \"#utility.yul\":4332:4366   */\n      0x596f7520617265207374696c6c206e6f7420796f756e6720656e6f7567682074\n        /* \"#utility.yul\":4328:4329   */\n      0x00\n        /* \"#utility.yul\":4320:4326   */\n      dup3\n        /* \"#utility.yul\":4316:4330   */\n      add\n        /* \"#utility.yul\":4309:4367   */\n      mstore\n        /* \"#utility.yul\":4401:4435   */\n      0x6f20676574207468652065746865722066726f6d20796f7572206772616e6470\n        /* \"#utility.yul\":4396:4398   */\n      0x20\n        /* \"#utility.yul\":4388:4394   */\n      dup3\n        /* \"#utility.yul\":4384:4399   */\n      add\n        /* \"#utility.yul\":4377:4436   */\n      mstore\n        /* \"#utility.yul\":4470:4474   */\n      0x612e000000000000000000000000000000000000000000000000000000000000\n        /* \"#utility.yul\":4465:4467   */\n      0x40\n        /* \"#utility.yul\":4457:4463   */\n      dup3\n        /* \"#utility.yul\":4453:4468   */\n      add\n        /* \"#utility.yul\":4446:4475   */\n      mstore\n        /* \"#utility.yul\":4192:4482   */\n      pop\n      jump\t// out\n        /* \"#utility.yul\":4488:4854   */\n    tag_87:\n        /* \"#utility.yul\":4630:4633   */\n      0x00\n        /* \"#utility.yul\":4651:4718   */\n      tag_141\n        /* \"#utility.yul\":4715:4717   */\n      0x42\n        /* \"#utility.yul\":4710:4713   */\n      dup4\n        /* \"#utility.yul\":4651:4718   */\n      tag_85\n      jump\t// in\n    tag_141:\n        /* \"#utility.yul\":4644:4718   */\n      swap2\n      pop\n        /* \"#utility.yul\":4727:4820   */\n      tag_142\n        /* \"#utility.yul\":4816:4819   */\n      dup3\n        /* \"#utility.yul\":4727:4820   */\n      tag_86\n      jump\t// in\n    tag_142:\n        /* \"#utility.yul\":4845:4847   */\n      0x60\n        /* \"#utility.yul\":4840:4843   */\n      dup3\n        /* \"#utility.yul\":4836:4848   */\n      add\n        /* \"#utility.yul\":4829:4848   */\n      swap1\n      pop\n        /* \"#utility.yul\":4488:4854   */\n      swap2\n      swap1\n      pop\n      jump\t// out\n        /* \"#utility.yul\":4860:5279   */\n    tag_58:\n        /* \"#utility.yul\":5026:5030   */\n      0x00\n        /* \"#utility.yul\":5064:5066   */\n      0x20\n        /* \"#utility.yul\":5053:5062   */\n      dup3\n        /* \"#utility.yul\":5049:5067   */\n      add\n        /* \"#utility.yul\":5041:5067   */\n      swap1\n      pop\n        /* \"#utility.yul\":5113:5122   */\n      dup2\n        /* \"#utility.yul\":5107:5111   */\n      dup2\n        /* \"#utility.yul\":5103:5123   */\n      sub\n        /* \"#utility.yul\":5099:5100   */\n      0x00\n        /* \"#utility.yul\":5088:5097   */\n      dup4\n        /* \"#utility.yul\":5084:5101   */\n      add\n        /* \"#utility.yul\":5077:5124   */\n      mstore\n        /* \"#utility.yul\":5141:5272   */\n      tag_144\n        /* \"#utility.yul\":5267:5271   */\n      dup2\n        /* \"#utility.yul\":5141:5272   */\n      tag_87\n      jump\t// in\n    tag_144:\n        /* \"#utility.yul\":5133:5272   */\n      swap1\n      pop\n        /* \"#utility.yul\":4860:5279   */\n      swap2\n      swap1\n      pop\n      jump\t// out\n        /* \"#utility.yul\":5285:5465   */\n    tag_88:\n        /* \"#utility.yul\":5333:5410   */\n      0x4e487b7100000000000000000000000000000000000000000000000000000000\n        /* \"#utility.yul\":5330:5331   */\n      0x00\n        /* \"#utility.yul\":5323:5411   */\n      mstore\n        /* \"#utility.yul\":5430:5434   */\n      0x11\n        /* \"#utility.yul\":5427:5428   */\n      0x04\n        /* \"#utility.yul\":5420:5435   */\n      mstore\n        /* \"#utility.yul\":5454:5458   */\n      0x24\n        /* \"#utility.yul\":5451:5452   */\n      0x00\n        /* \"#utility.yul\":5444:5459   */\n      revert\n        /* \"#utility.yul\":5471:5776   */\n    tag_65:\n        /* \"#utility.yul\":5511:5514   */\n      0x00\n        /* \"#utility.yul\":5530:5550   */\n      tag_147\n        /* \"#utility.yul\":5548:5549   */\n      dup3\n        /* \"#utility.yul\":5530:5550   */\n      tag_77\n      jump\t// in\n    tag_147:\n        /* \"#utility.yul\":5525:5550   */\n      swap2\n      pop\n        /* \"#utility.yul\":5564:5584   */\n      tag_148\n        /* \"#utility.yul\":5582:5583   */\n      dup4\n        /* \"#utility.yul\":5564:5584   */\n      tag_77\n      jump\t// in\n    tag_148:\n        /* \"#utility.yul\":5559:5584   */\n      swap3\n      pop\n        /* \"#utility.yul\":5718:5719   */\n      dup3\n        /* \"#utility.yul\":5650:5716   */\n      0xffffffffffffffffffffffffffffffffffffffffffffffffffffffffffffffff\n        /* \"#utility.yul\":5646:5720   */\n      sub\n        /* \"#utility.yul\":5643:5644   */\n      dup3\n        /* \"#utility.yul\":5640:5721   */\n      gt\n        /* \"#utility.yul\":5637:5744   */\n      iszero\n      tag_149\n      jumpi\n        /* \"#utility.yul\":5724:5742   */\n      tag_150\n      tag_88\n      jump\t// in\n    tag_150:\n        /* \"#utility.yul\":5637:5744   */\n    tag_149:\n        /* \"#utility.yul\":5768:5769   */\n      dup3\n        /* \"#utility.yul\":5765:5766   */\n      dup3\n        /* \"#utility.yul\":5761:5770   */\n      add\n        /* \"#utility.yul\":5754:5770   */\n      swap1\n      pop\n        /* \"#utility.yul\":5471:5776   */\n      swap3\n      swap2\n      pop\n      pop\n      jump\t// out\n        /* \"#utility.yul\":5782:6015   */\n    tag_70:\n        /* \"#utility.yul\":5821:5824   */\n      0x00\n        /* \"#utility.yul\":5844:5868   */\n      tag_152\n        /* \"#utility.yul\":5862:5867   */\n      dup3\n        /* \"#utility.yul\":5844:5868   */\n      tag_77\n      jump\t// in\n    tag_152:\n        /* \"#utility.yul\":5835:5868   */\n      swap2\n      pop\n        /* \"#utility.yul\":5890:5956   */\n      0xffffffffffffffffffffffffffffffffffffffffffffffffffffffffffffffff\n        /* \"#utility.yul\":5883:5888   */\n      dup3\n        /* \"#utility.yul\":5880:5957   */\n      sub\n        /* \"#utility.yul\":5877:5980   */\n      tag_153\n      jumpi\n        /* \"#utility.yul\":5960:5978   */\n      tag_154\n      tag_88\n      jump\t// in\n    tag_154:\n        /* \"#utility.yul\":5877:5980   */\n    tag_153:\n        /* \"#utility.yul\":6007:6008   */\n      0x01\n        /* \"#utility.yul\":6000:6005   */\n      dup3\n        /* \"#utility.yul\":5996:6009   */\n      add\n        /* \"#utility.yul\":5989:6009   */\n      swap1\n      pop\n        /* \"#utility.yul\":5782:6015   */\n      swap2\n      swap1\n      pop\n      jump\t// out\n\n    auxdata: 0xa2646970667358221220e0d0e1a575256199464353631c0bbb68f159ceb25a447b17b128bcf85b02699964736f6c634300080d0033\n}\n",
				"bytecode": {
					"linkReferences": {},
					"object": "608060405234801561001057600080fd5b50604051610a0b380380610a0b833981810160405281019061003291906100ba565b336000806101000a81548173ffffffffffffffffffffffffffffffffffffffff021916908373ffffffffffffffffffffffffffffffffffffffff16021790555080600581905550506100e7565b600080fd5b6000819050919050565b61009781610084565b81146100a257600080fd5b50565b6000815190506100b48161008e565b92915050565b6000602082840312156100d0576100cf61007f565b5b60006100de848285016100a5565b91505092915050565b610915806100f66000396000f3fe6080604052600436106100865760003560e01c806381d12c581161005957806381d12c581461013a5780639fb42b1f14610179578063cfc54848146101a4578063d42cd5a9146101c0578063d5ebe7f8146101e957610086565b806324ca53c21461008b5780632e1a7d4d146100b65780633f5a7d48146100d25780636f6b4069146100fd575b600080fd5b34801561009757600080fd5b506100a0610214565b6040516100ad9190610590565b60405180910390f35b6100d060048036038101906100cb91906105e6565b61023a565b005b3480156100de57600080fd5b506100e7610311565b6040516100f49190610622565b60405180910390f35b34801561010957600080fd5b50610124600480360381019061011f919061067b565b610317565b6040516101319190610622565b60405180910390f35b34801561014657600080fd5b50610161600480360381019061015c91906105e6565b61032f565b604051610170939291906106b7565b60405180910390f35b34801561018557600080fd5b5061018e610379565b60405161019b9190610622565b60405180910390f35b6101be60048036038101906101b991906105e6565b61037f565b005b3480156101cc57600080fd5b506101e760048036038101906101e291906106ee565b61040d565b005b3480156101f557600080fd5b506101fe61052b565b60405161020b919061072e565b60405180910390f35b600160009054906101000a900473ffffffffffffffffffffffffffffffffffffffff1681565b60006002600083815260200190815260200160002090506000816001015490506012811161029d576040517f08c379a0000000000000000000000000000000000000000000000000000000008152600401610294906107f2565b60405180910390fd5b8160000160009054906101000a900473ffffffffffffffffffffffffffffffffffffffff1673ffffffffffffffffffffffffffffffffffffffff166108fc83600201549081150290604051600060405180830381858888f1935050505015801561030b573d6000803e3d6000fd5b50505050565b60055481565b60036020528060005260406000206000915090505481565b60026020528060005260406000206000915090508060000160009054906101000a900473ffffffffffffffffffffffffffffffffffffffff16908060010154908060020154905083565b60045481565b60008054906101000a900473ffffffffffffffffffffffffffffffffffffffff1673ffffffffffffffffffffffffffffffffffffffff163373ffffffffffffffffffffffffffffffffffffffff16146103d757600080fd5b6000600260008381526020019081526020016000209050348160020160008282546104029190610841565b925050819055505050565b60008054906101000a900473ffffffffffffffffffffffffffffffffffffffff1673ffffffffffffffffffffffffffffffffffffffff163373ffffffffffffffffffffffffffffffffffffffff161461046557600080fd5b600060026000600454815260200190815260200160002090506004600081548092919061049190610897565b9190505550828160000160006101000a81548173ffffffffffffffffffffffffffffffffffffffff021916908373ffffffffffffffffffffffffffffffffffffffff16021790555081816001018190555081600360008573ffffffffffffffffffffffffffffffffffffffff1673ffffffffffffffffffffffffffffffffffffffff16815260200190815260200160002081905550505050565b60008054906101000a900473ffffffffffffffffffffffffffffffffffffffff1681565b600073ffffffffffffffffffffffffffffffffffffffff82169050919050565b600061057a8261054f565b9050919050565b61058a8161056f565b82525050565b60006020820190506105a56000830184610581565b92915050565b600080fd5b6000819050919050565b6105c3816105b0565b81146105ce57600080fd5b50565b6000813590506105e0816105ba565b92915050565b6000602082840312156105fc576105fb6105ab565b5b600061060a848285016105d1565b91505092915050565b61061c816105b0565b82525050565b60006020820190506106376000830184610613565b92915050565b60006106488261054f565b9050919050565b6106588161063d565b811461066357600080fd5b50565b6000813590506106758161064f565b92915050565b600060208284031215610691576106906105ab565b5b600061069f84828501610666565b91505092915050565b6106b18161063d565b82525050565b60006060820190506106cc60008301866106a8565b6106d96020830185610613565b6106e66040830184610613565b949350505050565b60008060408385031215610705576107046105ab565b5b600061071385828601610666565b9250506020610724858286016105d1565b9150509250929050565b600060208201905061074360008301846106a8565b92915050565b600082825260208201905092915050565b7f596f7520617265207374696c6c206e6f7420796f756e6720656e6f756768207460008201527f6f20676574207468652065746865722066726f6d20796f7572206772616e647060208201527f612e000000000000000000000000000000000000000000000000000000000000604082015250565b60006107dc604283610749565b91506107e78261075a565b606082019050919050565b6000602082019050818103600083015261080b816107cf565b9050919050565b7f4e487b7100000000000000000000000000000000000000000000000000000000600052601160045260246000fd5b600061084c826105b0565b9150610857836105b0565b9250827fffffffffffffffffffffffffffffffffffffffffffffffffffffffffffffffff0382111561088c5761088b610812565b5b828201905092915050565b60006108a2826105b0565b91507fffffffffffffffffffffffffffffffffffffffffffffffffffffffffffffffff82036108d4576108d3610812565b5b60018201905091905056fea2646970667358221220e0d0e1a575256199464353631c0bbb68f159ceb25a447b17b128bcf85b02699964736f6c634300080d0033",
					"opcodes": "PUSH1 0x80 PUSH1 0x40 MSTORE CALLVALUE DUP1 ISZERO PUSH2 0x10 JUMPI PUSH1 0x0 DUP1 REVERT JUMPDEST POP PUSH1 0x40 MLOAD PUSH2 0xA0B CODESIZE SUB DUP1 PUSH2 0xA0B DUP4 CODECOPY DUP2 DUP2 ADD PUSH1 0x40 MSTORE DUP2 ADD SWAP1 PUSH2 0x32 SWAP2 SWAP1 PUSH2 0xBA JUMP JUMPDEST CALLER PUSH1 0x0 DUP1 PUSH2 0x100 EXP DUP2 SLOAD DUP2 PUSH20 0xFFFFFFFFFFFFFFFFFFFFFFFFFFFFFFFFFFFFFFFF MUL NOT AND SWAP1 DUP4 PUSH20 0xFFFFFFFFFFFFFFFFFFFFFFFFFFFFFFFFFFFFFFFF AND MUL OR SWAP1 SSTORE POP DUP1 PUSH1 0x5 DUP2 SWAP1 SSTORE POP POP PUSH2 0xE7 JUMP JUMPDEST PUSH1 0x0 DUP1 REVERT JUMPDEST PUSH1 0x0 DUP2 SWAP1 POP SWAP2 SWAP1 POP JUMP JUMPDEST PUSH2 0x97 DUP2 PUSH2 0x84 JUMP JUMPDEST DUP2 EQ PUSH2 0xA2 JUMPI PUSH1 0x0 DUP1 REVERT JUMPDEST POP JUMP JUMPDEST PUSH1 0x0 DUP2 MLOAD SWAP1 POP PUSH2 0xB4 DUP2 PUSH2 0x8E JUMP JUMPDEST SWAP3 SWAP2 POP POP JUMP JUMPDEST PUSH1 0x0 PUSH1 0x20 DUP3 DUP5 SUB SLT ISZERO PUSH2 0xD0 JUMPI PUSH2 0xCF PUSH2 0x7F JUMP JUMPDEST JUMPDEST PUSH1 0x0 PUSH2 0xDE DUP5 DUP3 DUP6 ADD PUSH2 0xA5 JUMP JUMPDEST SWAP2 POP POP SWAP3 SWAP2 POP POP JUMP JUMPDEST PUSH2 0x915 DUP1 PUSH2 0xF6 PUSH1 0x0 CODECOPY PUSH1 0x0 RETURN INVALID PUSH1 0x80 PUSH1 0x40 MSTORE PUSH1 0x4 CALLDATASIZE LT PUSH2 0x86 JUMPI PUSH1 0x0 CALLDATALOAD PUSH1 0xE0 SHR DUP1 PUSH4 0x81D12C58 GT PUSH2 0x59 JUMPI DUP1 PUSH4 0x81D12C58 EQ PUSH2 0x13A JUMPI DUP1 PUSH4 0x9FB42B1F EQ PUSH2 0x179 JUMPI DUP1 PUSH4 0xCFC54848 EQ PUSH2 0x1A4 JUMPI DUP1 PUSH4 0xD42CD5A9 EQ PUSH2 0x1C0 JUMPI DUP1 PUSH4 0xD5EBE7F8 EQ PUSH2 0x1E9 JUMPI PUSH2 0x86 JUMP JUMPDEST DUP1 PUSH4 0x24CA53C2 EQ PUSH2 0x8B JUMPI DUP1 PUSH4 0x2E1A7D4D EQ PUSH2 0xB6 JUMPI DUP1 PUSH4 0x3F5A7D48 EQ PUSH2 0xD2 JUMPI DUP1 PUSH4 0x6F6B4069 EQ PUSH2 0xFD JUMPI JUMPDEST PUSH1 0x0 DUP1 REVERT JUMPDEST CALLVALUE DUP1 ISZERO PUSH2 0x97 JUMPI PUSH1 0x0 DUP1 REVERT JUMPDEST POP PUSH2 0xA0 PUSH2 0x214 JUMP JUMPDEST PUSH1 0x40 MLOAD PUSH2 0xAD SWAP2 SWAP1 PUSH2 0x590 JUMP JUMPDEST PUSH1 0x40 MLOAD DUP1 SWAP2 SUB SWAP1 RETURN JUMPDEST PUSH2 0xD0 PUSH1 0x4 DUP1 CALLDATASIZE SUB DUP2 ADD SWAP1 PUSH2 0xCB SWAP2 SWAP1 PUSH2 0x5E6 JUMP JUMPDEST PUSH2 0x23A JUMP JUMPDEST STOP JUMPDEST CALLVALUE DUP1 ISZERO PUSH2 0xDE JUMPI PUSH1 0x0 DUP1 REVERT JUMPDEST POP PUSH2 0xE7 PUSH2 0x311 JUMP JUMPDEST PUSH1 0x40 MLOAD PUSH2 0xF4 SWAP2 SWAP1 PUSH2 0x622 JUMP JUMPDEST PUSH1 0x40 MLOAD DUP1 SWAP2 SUB SWAP1 RETURN JUMPDEST CALLVALUE DUP1 ISZERO PUSH2 0x109 JUMPI PUSH1 0x0 DUP1 REVERT JUMPDEST POP PUSH2 0x124 PUSH1 0x4 DUP1 CALLDATASIZE SUB DUP2 ADD SWAP1 PUSH2 0x11F SWAP2 SWAP1 PUSH2 0x67B JUMP JUMPDEST PUSH2 0x317 JUMP JUMPDEST PUSH1 0x40 MLOAD PUSH2 0x131 SWAP2 SWAP1 PUSH2 0x622 JUMP JUMPDEST PUSH1 0x40 MLOAD DUP1 SWAP2 SUB SWAP1 RETURN JUMPDEST CALLVALUE DUP1 ISZERO PUSH2 0x146 JUMPI PUSH1 0x0 DUP1 REVERT JUMPDEST POP PUSH2 0x161 PUSH1 0x4 DUP1 CALLDATASIZE SUB DUP2 ADD SWAP1 PUSH2 0x15C SWAP2 SWAP1 PUSH2 0x5E6 JUMP JUMPDEST PUSH2 0x32F JUMP JUMPDEST PUSH1 0x40 MLOAD PUSH2 0x170 SWAP4 SWAP3 SWAP2 SWAP1 PUSH2 0x6B7 JUMP JUMPDEST PUSH1 0x40 MLOAD DUP1 SWAP2 SUB SWAP1 RETURN JUMPDEST CALLVALUE DUP1 ISZERO PUSH2 0x185 JUMPI PUSH1 0x0 DUP1 REVERT JUMPDEST POP PUSH2 0x18E PUSH2 0x379 JUMP JUMPDEST PUSH1 0x40 MLOAD PUSH2 0x19B SWAP2 SWAP1 PUSH2 0x622 JUMP JUMPDEST PUSH1 0x40 MLOAD DUP1 SWAP2 SUB SWAP1 RETURN JUMPDEST PUSH2 0x1BE PUSH1 0x4 DUP1 CALLDATASIZE SUB DUP2 ADD SWAP1 PUSH2 0x1B9 SWAP2 SWAP1 PUSH2 0x5E6 JUMP JUMPDEST PUSH2 0x37F JUMP JUMPDEST STOP JUMPDEST CALLVALUE DUP1 ISZERO PUSH2 0x1CC JUMPI PUSH1 0x0 DUP1 REVERT JUMPDEST POP PUSH2 0x1E7 PUSH1 0x4 DUP1 CALLDATASIZE SUB DUP2 ADD SWAP1 PUSH2 0x1E2 SWAP2 SWAP1 PUSH2 0x6EE JUMP JUMPDEST PUSH2 0x40D JUMP JUMPDEST STOP JUMPDEST CALLVALUE DUP1 ISZERO PUSH2 0x1F5 JUMPI PUSH1 0x0 DUP1 REVERT JUMPDEST POP PUSH2 0x1FE PUSH2 0x52B JUMP JUMPDEST PUSH1 0x40 MLOAD PUSH2 0x20B SWAP2 SWAP1 PUSH2 0x72E JUMP JUMPDEST PUSH1 0x40 MLOAD DUP1 SWAP2 SUB SWAP1 RETURN JUMPDEST PUSH1 0x1 PUSH1 0x0 SWAP1 SLOAD SWAP1 PUSH2 0x100 EXP SWAP1 DIV PUSH20 0xFFFFFFFFFFFFFFFFFFFFFFFFFFFFFFFFFFFFFFFF AND DUP2 JUMP JUMPDEST PUSH1 0x0 PUSH1 0x2 PUSH1 0x0 DUP4 DUP2 MSTORE PUSH1 0x20 ADD SWAP1 DUP2 MSTORE PUSH1 0x20 ADD PUSH1 0x0 KECCAK256 SWAP1 POP PUSH1 0x0 DUP2 PUSH1 0x1 ADD SLOAD SWAP1 POP PUSH1 0x12 DUP2 GT PUSH2 0x29D JUMPI PUSH1 0x40 MLOAD PUSH32 0x8C379A000000000000000000000000000000000000000000000000000000000 DUP2 MSTORE PUSH1 0x4 ADD PUSH2 0x294 SWAP1 PUSH2 0x7F2 JUMP JUMPDEST PUSH1 0x40 MLOAD DUP1 SWAP2 SUB SWAP1 REVERT JUMPDEST DUP2 PUSH1 0x0 ADD PUSH1 0x0 SWAP1 SLOAD SWAP1 PUSH2 0x100 EXP SWAP1 DIV PUSH20 0xFFFFFFFFFFFFFFFFFFFFFFFFFFFFFFFFFFFFFFFF AND PUSH20 0xFFFFFFFFFFFFFFFFFFFFFFFFFFFFFFFFFFFFFFFF AND PUSH2 0x8FC DUP4 PUSH1 0x2 ADD SLOAD SWAP1 DUP2 ISZERO MUL SWAP1 PUSH1 0x40 MLOAD PUSH1 0x0 PUSH1 0x40 MLOAD DUP1 DUP4 SUB DUP2 DUP6 DUP9 DUP9 CALL SWAP4 POP POP POP POP ISZERO DUP1 ISZERO PUSH2 0x30B JUMPI RETURNDATASIZE PUSH1 0x0 DUP1 RETURNDATACOPY RETURNDATASIZE PUSH1 0x0 REVERT JUMPDEST POP POP POP POP JUMP JUMPDEST PUSH1 0x5 SLOAD DUP2 JUMP JUMPDEST PUSH1 0x3 PUSH1 0x20 MSTORE DUP1 PUSH1 0x0 MSTORE PUSH1 0x40 PUSH1 0x0 KECCAK256 PUSH1 0x0 SWAP2 POP SWAP1 POP SLOAD DUP2 JUMP JUMPDEST PUSH1 0x2 PUSH1 0x20 MSTORE DUP1 PUSH1 0x0 MSTORE PUSH1 0x40 PUSH1 0x0 KECCAK256 PUSH1 0x0 SWAP2 POP SWAP1 POP DUP1 PUSH1 0x0 ADD PUSH1 0x0 SWAP1 SLOAD SWAP1 PUSH2 0x100 EXP SWAP1 DIV PUSH20 0xFFFFFFFFFFFFFFFFFFFFFFFFFFFFFFFFFFFFFFFF AND SWAP1 DUP1 PUSH1 0x1 ADD SLOAD SWAP1 DUP1 PUSH1 0x2 ADD SLOAD SWAP1 POP DUP4 JUMP JUMPDEST PUSH1 0x4 SLOAD DUP2 JUMP JUMPDEST PUSH1 0x0 DUP1 SLOAD SWAP1 PUSH2 0x100 EXP SWAP1 DIV PUSH20 0xFFFFFFFFFFFFFFFFFFFFFFFFFFFFFFFFFFFFFFFF AND PUSH20 0xFFFFFFFFFFFFFFFFFFFFFFFFFFFFFFFFFFFFFFFF AND CALLER PUSH20 0xFFFFFFFFFFFFFFFFFFFFFFFFFFFFFFFFFFFFFFFF AND EQ PUSH2 0x3D7 JUMPI PUSH1 0x0 DUP1 REVERT JUMPDEST PUSH1 0x0 PUSH1 0x2 PUSH1 0x0 DUP4 DUP2 MSTORE PUSH1 0x20 ADD SWAP1 DUP2 MSTORE PUSH1 0x20 ADD PUSH1 0x0 KECCAK256 SWAP1 POP CALLVALUE DUP2 PUSH1 0x2 ADD PUSH1 0x0 DUP3 DUP3 SLOAD PUSH2 0x402 SWAP2 SWAP1 PUSH2 0x841 JUMP JUMPDEST SWAP3 POP POP DUP2 SWAP1 SSTORE POP POP POP JUMP JUMPDEST PUSH1 0x0 DUP1 SLOAD SWAP1 PUSH2 0x100 EXP SWAP1 DIV PUSH20 0xFFFFFFFFFFFFFFFFFFFFFFFFFFFFFFFFFFFFFFFF AND PUSH20 0xFFFFFFFFFFFFFFFFFFFFFFFFFFFFFFFFFFFFFFFF AND CALLER PUSH20 0xFFFFFFFFFFFFFFFFFFFFFFFFFFFFFFFFFFFFFFFF AND EQ PUSH2 0x465 JUMPI PUSH1 0x0 DUP1 REVERT JUMPDEST PUSH1 0x0 PUSH1 0x2 PUSH1 0x0 PUSH1 0x4 SLOAD DUP2 MSTORE PUSH1 0x20 ADD SWAP1 DUP2 MSTORE PUSH1 0x20 ADD PUSH1 0x0 KECCAK256 SWAP1 POP PUSH1 0x4 PUSH1 0x0 DUP2 SLOAD DUP1 SWAP3 SWAP2 SWAP1 PUSH2 0x491 SWAP1 PUSH2 0x897 JUMP JUMPDEST SWAP2 SWAP1 POP SSTORE POP DUP3 DUP2 PUSH1 0x0 ADD PUSH1 0x0 PUSH2 0x100 EXP DUP2 SLOAD DUP2 PUSH20 0xFFFFFFFFFFFFFFFFFFFFFFFFFFFFFFFFFFFFFFFF MUL NOT AND SWAP1 DUP4 PUSH20 0xFFFFFFFFFFFFFFFFFFFFFFFFFFFFFFFFFFFFFFFF AND MUL OR SWAP1 SSTORE POP DUP2 DUP2 PUSH1 0x1 ADD DUP2 SWAP1 SSTORE POP DUP2 PUSH1 0x3 PUSH1 0x0 DUP6 PUSH20 0xFFFFFFFFFFFFFFFFFFFFFFFFFFFFFFFFFFFFFFFF AND PUSH20 0xFFFFFFFFFFFFFFFFFFFFFFFFFFFFFFFFFFFFFFFF AND DUP2 MSTORE PUSH1 0x20 ADD SWAP1 DUP2 MSTORE PUSH1 0x20 ADD PUSH1 0x0 KECCAK256 DUP2 SWAP1 SSTORE POP POP POP POP JUMP JUMPDEST PUSH1 0x0 DUP1 SLOAD SWAP1 PUSH2 0x100 EXP SWAP1 DIV PUSH20 0xFFFFFFFFFFFFFFFFFFFFFFFFFFFFFFFFFFFFFFFF AND DUP2 JUMP JUMPDEST PUSH1 0x0 PUSH20 0xFFFFFFFFFFFFFFFFFFFFFFFFFFFFFFFFFFFFFFFF DUP3 AND SWAP1 POP SWAP2 SWAP1 POP JUMP JUMPDEST PUSH1 0x0 PUSH2 0x57A DUP3 PUSH2 0x54F JUMP JUMPDEST SWAP1 POP SWAP2 SWAP1 POP JUMP JUMPDEST PUSH2 0x58A DUP2 PUSH2 0x56F JUMP JUMPDEST DUP3 MSTORE POP POP JUMP JUMPDEST PUSH1 0x0 PUSH1 0x20 DUP3 ADD SWAP1 POP PUSH2 0x5A5 PUSH1 0x0 DUP4 ADD DUP5 PUSH2 0x581 JUMP JUMPDEST SWAP3 SWAP2 POP POP JUMP JUMPDEST PUSH1 0x0 DUP1 REVERT JUMPDEST PUSH1 0x0 DUP2 SWAP1 POP SWAP2 SWAP1 POP JUMP JUMPDEST PUSH2 0x5C3 DUP2 PUSH2 0x5B0 JUMP JUMPDEST DUP2 EQ PUSH2 0x5CE JUMPI PUSH1 0x0 DUP1 REVERT JUMPDEST POP JUMP JUMPDEST PUSH1 0x0 DUP2 CALLDATALOAD SWAP1 POP PUSH2 0x5E0 DUP2 PUSH2 0x5BA JUMP JUMPDEST SWAP3 SWAP2 POP POP JUMP JUMPDEST PUSH1 0x0 PUSH1 0x20 DUP3 DUP5 SUB SLT ISZERO PUSH2 0x5FC JUMPI PUSH2 0x5FB PUSH2 0x5AB JUMP JUMPDEST JUMPDEST PUSH1 0x0 PUSH2 0x60A DUP5 DUP3 DUP6 ADD PUSH2 0x5D1 JUMP JUMPDEST SWAP2 POP POP SWAP3 SWAP2 POP POP JUMP JUMPDEST PUSH2 0x61C DUP2 PUSH2 0x5B0 JUMP JUMPDEST DUP3 MSTORE POP POP JUMP JUMPDEST PUSH1 0x0 PUSH1 0x20 DUP3 ADD SWAP1 POP PUSH2 0x637 PUSH1 0x0 DUP4 ADD DUP5 PUSH2 0x613 JUMP JUMPDEST SWAP3 SWAP2 POP POP JUMP JUMPDEST PUSH1 0x0 PUSH2 0x648 DUP3 PUSH2 0x54F JUMP JUMPDEST SWAP1 POP SWAP2 SWAP1 POP JUMP JUMPDEST PUSH2 0x658 DUP2 PUSH2 0x63D JUMP JUMPDEST DUP2 EQ PUSH2 0x663 JUMPI PUSH1 0x0 DUP1 REVERT JUMPDEST POP JUMP JUMPDEST PUSH1 0x0 DUP2 CALLDATALOAD SWAP1 POP PUSH2 0x675 DUP2 PUSH2 0x64F JUMP JUMPDEST SWAP3 SWAP2 POP POP JUMP JUMPDEST PUSH1 0x0 PUSH1 0x20 DUP3 DUP5 SUB SLT ISZERO PUSH2 0x691 JUMPI PUSH2 0x690 PUSH2 0x5AB JUMP JUMPDEST JUMPDEST PUSH1 0x0 PUSH2 0x69F DUP5 DUP3 DUP6 ADD PUSH2 0x666 JUMP JUMPDEST SWAP2 POP POP SWAP3 SWAP2 POP POP JUMP JUMPDEST PUSH2 0x6B1 DUP2 PUSH2 0x63D JUMP JUMPDEST DUP3 MSTORE POP POP JUMP JUMPDEST PUSH1 0x0 PUSH1 0x60 DUP3 ADD SWAP1 POP PUSH2 0x6CC PUSH1 0x0 DUP4 ADD DUP7 PUSH2 0x6A8 JUMP JUMPDEST PUSH2 0x6D9 PUSH1 0x20 DUP4 ADD DUP6 PUSH2 0x613 JUMP JUMPDEST PUSH2 0x6E6 PUSH1 0x40 DUP4 ADD DUP5 PUSH2 0x613 JUMP JUMPDEST SWAP5 SWAP4 POP POP POP POP JUMP JUMPDEST PUSH1 0x0 DUP1 PUSH1 0x40 DUP4 DUP6 SUB SLT ISZERO PUSH2 0x705 JUMPI PUSH2 0x704 PUSH2 0x5AB JUMP JUMPDEST JUMPDEST PUSH1 0x0 PUSH2 0x713 DUP6 DUP3 DUP7 ADD PUSH2 0x666 JUMP JUMPDEST SWAP3 POP POP PUSH1 0x20 PUSH2 0x724 DUP6 DUP3 DUP7 ADD PUSH2 0x5D1 JUMP JUMPDEST SWAP2 POP POP SWAP3 POP SWAP3 SWAP1 POP JUMP JUMPDEST PUSH1 0x0 PUSH1 0x20 DUP3 ADD SWAP1 POP PUSH2 0x743 PUSH1 0x0 DUP4 ADD DUP5 PUSH2 0x6A8 JUMP JUMPDEST SWAP3 SWAP2 POP POP JUMP JUMPDEST PUSH1 0x0 DUP3 DUP3 MSTORE PUSH1 0x20 DUP3 ADD SWAP1 POP SWAP3 SWAP2 POP POP JUMP JUMPDEST PUSH32 0x596F7520617265207374696C6C206E6F7420796F756E6720656E6F7567682074 PUSH1 0x0 DUP3 ADD MSTORE PUSH32 0x6F20676574207468652065746865722066726F6D20796F7572206772616E6470 PUSH1 0x20 DUP3 ADD MSTORE PUSH32 0x612E000000000000000000000000000000000000000000000000000000000000 PUSH1 0x40 DUP3 ADD MSTORE POP JUMP JUMPDEST PUSH1 0x0 PUSH2 0x7DC PUSH1 0x42 DUP4 PUSH2 0x749 JUMP JUMPDEST SWAP2 POP PUSH2 0x7E7 DUP3 PUSH2 0x75A JUMP JUMPDEST PUSH1 0x60 DUP3 ADD SWAP1 POP SWAP2 SWAP1 POP JUMP JUMPDEST PUSH1 0x0 PUSH1 0x20 DUP3 ADD SWAP1 POP DUP2 DUP2 SUB PUSH1 0x0 DUP4 ADD MSTORE PUSH2 0x80B DUP2 PUSH2 0x7CF JUMP JUMPDEST SWAP1 POP SWAP2 SWAP1 POP JUMP JUMPDEST PUSH32 0x4E487B7100000000000000000000000000000000000000000000000000000000 PUSH1 0x0 MSTORE PUSH1 0x11 PUSH1 0x4 MSTORE PUSH1 0x24 PUSH1 0x0 REVERT JUMPDEST PUSH1 0x0 PUSH2 0x84C DUP3 PUSH2 0x5B0 JUMP JUMPDEST SWAP2 POP PUSH2 0x857 DUP4 PUSH2 0x5B0 JUMP JUMPDEST SWAP3 POP DUP3 PUSH32 0xFFFFFFFFFFFFFFFFFFFFFFFFFFFFFFFFFFFFFFFFFFFFFFFFFFFFFFFFFFFFFFFF SUB DUP3 GT ISZERO PUSH2 0x88C JUMPI PUSH2 0x88B PUSH2 0x812 JUMP JUMPDEST JUMPDEST DUP3 DUP3 ADD SWAP1 POP SWAP3 SWAP2 POP POP JUMP JUMPDEST PUSH1 0x0 PUSH2 0x8A2 DUP3 PUSH2 0x5B0 JUMP JUMPDEST SWAP2 POP PUSH32 0xFFFFFFFFFFFFFFFFFFFFFFFFFFFFFFFFFFFFFFFFFFFFFFFFFFFFFFFFFFFFFFFF DUP3 SUB PUSH2 0x8D4 JUMPI PUSH2 0x8D3 PUSH2 0x812 JUMP JUMPDEST JUMPDEST PUSH1 0x1 DUP3 ADD SWAP1 POP SWAP2 SWAP1 POP JUMP INVALID LOG2 PUSH5 0x6970667358 0x22 SLT KECCAK256 0xE0 0xD0 0xE1 0xA5 PUSH22 0x256199464353631C0BBB68F159CEB25A447B17B128BC 0xF8 JUMPDEST MUL PUSH10 0x9964736F6C634300080D STOP CALLER "
				},
				"gasEstimates": {
					"creation": {
						"codeDepositCost": "465000",
						"executionCost": "infinite",
						"totalCost": "infinite"
					},
					"external": {
						"address_kid()": "2515",
						"grandpa()": "2599",
						"kid(address)": "2881",
						"kids_entry(address,uint256)": "infinite",
						"numRequests()": "2451",
						"requests(uint256)": "infinite",
						"sendEth(uint256)": "infinite",
						"transferingAmount()": "2474",
						"withdraw(uint256)": "infinite"
					}
				},
				"methodIdentifiers": {
					"address_kid()": "24ca53c2",
					"grandpa()": "d5ebe7f8",
					"kid(address)": "6f6b4069",
					"kids_entry(address,uint256)": "d42cd5a9",
					"numRequests()": "9fb42b1f",
					"requests(uint256)": "81d12c58",
					"sendEth(uint256)": "cfc54848",
					"transferingAmount()": "3f5a7d48",
					"withdraw(uint256)": "2e1a7d4d"
				}
			},
			"userdoc": {
				"kind": "user",
				"methods": {},
				"version": 1
			}
		}
	}
}