{
	"contracts/Crypto Kids/Cryptokids.sol": {
		"CryptoKids": {
			"abi": [
				{
					"inputs": [
						{
							"internalType": "uint256",
							"name": "_transferingAmount",
							"type": "uint256"
						}
					],
					"stateMutability": "nonpayable",
					"type": "constructor"
				},
				{
					"inputs": [],
					"name": "address_kid",
					"outputs": [
						{
							"internalType": "address payable",
							"name": "",
							"type": "address"
						}
					],
					"stateMutability": "view",
					"type": "function"
				},
				{
					"inputs": [],
					"name": "grandpa",
					"outputs": [
						{
							"internalType": "address",
							"name": "",
							"type": "address"
						}
					],
					"stateMutability": "view",
					"type": "function"
				},
				{
					"inputs": [
						{
							"internalType": "address",
							"name": "",
							"type": "address"
						}
					],
					"name": "kid",
					"outputs": [
						{
							"internalType": "uint256",
							"name": "",
							"type": "uint256"
						}
					],
					"stateMutability": "view",
					"type": "function"
				},
				{
					"inputs": [
						{
							"internalType": "address",
							"name": "_kid",
							"type": "address"
						},
						{
							"internalType": "uint256",
							"name": "_age",
							"type": "uint256"
						}
					],
					"name": "kids_entry",
					"outputs": [],
					"stateMutability": "nonpayable",
					"type": "function"
				},
				{
					"inputs": [],
					"name": "numRequests",
					"outputs": [
						{
							"internalType": "uint256",
							"name": "",
							"type": "uint256"
						}
					],
					"stateMutability": "view",
					"type": "function"
				},
				{
					"inputs": [
						{
							"internalType": "uint256",
							"name": "",
							"type": "uint256"
						}
					],
					"name": "requests",
					"outputs": [
						{
							"internalType": "address",
							"name": "address_kid",
							"type": "address"
						},
						{
							"internalType": "uint256",
							"name": "age",
							"type": "uint256"
						}
					],
					"stateMutability": "view",
					"type": "function"
				},
				{
					"inputs": [],
					"name": "transferingAmount",
					"outputs": [
						{
							"internalType": "uint256",
							"name": "",
							"type": "uint256"
						}
					],
					"stateMutability": "view",
					"type": "function"
				},
				{
					"inputs": [
						{
							"internalType": "address payable",
							"name": "_address_kid",
							"type": "address"
						}
					],
					"name": "withdraw",
					"outputs": [],
					"stateMutability": "nonpayable",
					"type": "function"
				}
			],
			"devdoc": {
				"kind": "dev",
				"methods": {},
				"version": 1
			},
			"evm": {
				"assembly": "    /* \"contracts/Crypto Kids/Cryptokids.sol\":61:1162  contract CryptoKids {... */\n  mstore(0x40, 0x80)\n    /* \"contracts/Crypto Kids/Cryptokids.sol\":394:518  constructor(uint _transferingAmount){... */\n  callvalue\n  dup1\n  iszero\n  tag_1\n  jumpi\n  0x00\n  dup1\n  revert\ntag_1:\n  pop\n  mload(0x40)\n  sub(codesize, bytecodeSize)\n  dup1\n  bytecodeSize\n  dup4\n  codecopy\n  dup2\n  dup2\n  add\n  0x40\n  mstore\n  dup2\n  add\n  swap1\n  tag_2\n  swap2\n  swap1\n  tag_3\n  jump\t// in\ntag_2:\n    /* \"contracts/Crypto Kids/Cryptokids.sol\":451:461  msg.sender */\n  caller\n    /* \"contracts/Crypto Kids/Cryptokids.sol\":441:448  grandpa */\n  0x00\n  dup1\n    /* \"contracts/Crypto Kids/Cryptokids.sol\":441:461  grandpa = msg.sender */\n  0x0100\n  exp\n  dup2\n  sload\n  dup2\n  0xffffffffffffffffffffffffffffffffffffffff\n  mul\n  not\n  and\n  swap1\n  dup4\n  0xffffffffffffffffffffffffffffffffffffffff\n  and\n  mul\n  or\n  swap1\n  sstore\n  pop\n    /* \"contracts/Crypto Kids/Cryptokids.sol\":492:510  _transferingAmount */\n  dup1\n    /* \"contracts/Crypto Kids/Cryptokids.sol\":472:489  transferingAmount */\n  0x05\n    /* \"contracts/Crypto Kids/Cryptokids.sol\":472:510  transferingAmount = _transferingAmount */\n  dup2\n  swap1\n  sstore\n  pop\n    /* \"contracts/Crypto Kids/Cryptokids.sol\":394:518  constructor(uint _transferingAmount){... */\n  pop\n    /* \"contracts/Crypto Kids/Cryptokids.sol\":61:1162  contract CryptoKids {... */\n  jump(tag_6)\n    /* \"#utility.yul\":88:205   */\ntag_8:\n    /* \"#utility.yul\":197:198   */\n  0x00\n    /* \"#utility.yul\":194:195   */\n  dup1\n    /* \"#utility.yul\":187:199   */\n  revert\n    /* \"#utility.yul\":334:411   */\ntag_10:\n    /* \"#utility.yul\":371:378   */\n  0x00\n    /* \"#utility.yul\":400:405   */\n  dup2\n    /* \"#utility.yul\":389:405   */\n  swap1\n  pop\n    /* \"#utility.yul\":334:411   */\n  swap2\n  swap1\n  pop\n  jump\t// out\n    /* \"#utility.yul\":417:539   */\ntag_11:\n    /* \"#utility.yul\":490:514   */\n  tag_19\n    /* \"#utility.yul\":508:513   */\n  dup2\n    /* \"#utility.yul\":490:514   */\n  tag_10\n  jump\t// in\ntag_19:\n    /* \"#utility.yul\":483:488   */\n  dup2\n    /* \"#utility.yul\":480:515   */\n  eq\n    /* \"#utility.yul\":470:533   */\n  tag_20\n  jumpi\n    /* \"#utility.yul\":529:530   */\n  0x00\n    /* \"#utility.yul\":526:527   */\n  dup1\n    /* \"#utility.yul\":519:531   */\n  revert\n    /* \"#utility.yul\":470:533   */\ntag_20:\n    /* \"#utility.yul\":417:539   */\n  pop\n  jump\t// out\n    /* \"#utility.yul\":545:688   */\ntag_12:\n    /* \"#utility.yul\":602:607   */\n  0x00\n    /* \"#utility.yul\":633:639   */\n  dup2\n    /* \"#utility.yul\":627:640   */\n  mload\n    /* \"#utility.yul\":618:640   */\n  swap1\n  pop\n    /* \"#utility.yul\":649:682   */\n  tag_22\n    /* \"#utility.yul\":676:681   */\n  dup2\n    /* \"#utility.yul\":649:682   */\n  tag_11\n  jump\t// in\ntag_22:\n    /* \"#utility.yul\":545:688   */\n  swap3\n  swap2\n  pop\n  pop\n  jump\t// out\n    /* \"#utility.yul\":694:1045   */\ntag_3:\n    /* \"#utility.yul\":764:770   */\n  0x00\n    /* \"#utility.yul\":813:815   */\n  0x20\n    /* \"#utility.yul\":801:810   */\n  dup3\n    /* \"#utility.yul\":792:799   */\n  dup5\n    /* \"#utility.yul\":788:811   */\n  sub\n    /* \"#utility.yul\":784:816   */\n  slt\n    /* \"#utility.yul\":781:900   */\n  iszero\n  tag_24\n  jumpi\n    /* \"#utility.yul\":819:898   */\n  tag_25\n  tag_8\n  jump\t// in\ntag_25:\n    /* \"#utility.yul\":781:900   */\ntag_24:\n    /* \"#utility.yul\":939:940   */\n  0x00\n    /* \"#utility.yul\":964:1028   */\n  tag_26\n    /* \"#utility.yul\":1020:1027   */\n  dup5\n    /* \"#utility.yul\":1011:1017   */\n  dup3\n    /* \"#utility.yul\":1000:1009   */\n  dup6\n    /* \"#utility.yul\":996:1018   */\n  add\n    /* \"#utility.yul\":964:1028   */\n  tag_12\n  jump\t// in\ntag_26:\n    /* \"#utility.yul\":954:1028   */\n  swap2\n  pop\n    /* \"#utility.yul\":910:1038   */\n  pop\n    /* \"#utility.yul\":694:1045   */\n  swap3\n  swap2\n  pop\n  pop\n  jump\t// out\n    /* \"contracts/Crypto Kids/Cryptokids.sol\":61:1162  contract CryptoKids {... */\ntag_6:\n  dataSize(sub_0)\n  dup1\n  dataOffset(sub_0)\n  0x00\n  codecopy\n  0x00\n  return\nstop\n\nsub_0: assembly {\n        /* \"contracts/Crypto Kids/Cryptokids.sol\":61:1162  contract CryptoKids {... */\n      mstore(0x40, 0x80)\n      callvalue\n      dup1\n      iszero\n      tag_1\n      jumpi\n      0x00\n      dup1\n      revert\n    tag_1:\n      pop\n      jumpi(tag_2, lt(calldatasize, 0x04))\n      shr(0xe0, calldataload(0x00))\n      dup1\n      0x81d12c58\n      gt\n      tag_11\n      jumpi\n      dup1\n      0x81d12c58\n      eq\n      tag_7\n      jumpi\n      dup1\n      0x9fb42b1f\n      eq\n      tag_8\n      jumpi\n      dup1\n      0xd42cd5a9\n      eq\n      tag_9\n      jumpi\n      dup1\n      0xd5ebe7f8\n      eq\n      tag_10\n      jumpi\n      jump(tag_2)\n    tag_11:\n      dup1\n      0x24ca53c2\n      eq\n      tag_3\n      jumpi\n      dup1\n      0x3f5a7d48\n      eq\n      tag_4\n      jumpi\n      dup1\n      0x51cff8d9\n      eq\n      tag_5\n      jumpi\n      dup1\n      0x6f6b4069\n      eq\n      tag_6\n      jumpi\n    tag_2:\n      0x00\n      dup1\n      revert\n        /* \"contracts/Crypto Kids/Cryptokids.sol\":117:151  address payable public address_kid */\n    tag_3:\n      tag_12\n      tag_13\n      jump\t// in\n    tag_12:\n      mload(0x40)\n      tag_14\n      swap2\n      swap1\n      tag_15\n      jump\t// in\n    tag_14:\n      mload(0x40)\n      dup1\n      swap2\n      sub\n      swap1\n      return\n        /* \"contracts/Crypto Kids/Cryptokids.sol\":356:385  uint public transferingAmount */\n    tag_4:\n      tag_16\n      tag_17\n      jump\t// in\n    tag_16:\n      mload(0x40)\n      tag_18\n      swap2\n      swap1\n      tag_19\n      jump\t// in\n    tag_18:\n      mload(0x40)\n      dup1\n      swap2\n      sub\n      swap1\n      return\n        /* \"contracts/Crypto Kids/Cryptokids.sol\":878:1159  function withdraw(address payable _address_kid) public {... */\n    tag_5:\n      tag_20\n      0x04\n      dup1\n      calldatasize\n      sub\n      dup2\n      add\n      swap1\n      tag_21\n      swap2\n      swap1\n      tag_22\n      jump\t// in\n    tag_21:\n      tag_23\n      jump\t// in\n    tag_20:\n      stop\n        /* \"contracts/Crypto Kids/Cryptokids.sol\":286:319  mapping(address=>uint) public kid */\n    tag_6:\n      tag_24\n      0x04\n      dup1\n      calldatasize\n      sub\n      dup2\n      add\n      swap1\n      tag_25\n      swap2\n      swap1\n      tag_26\n      jump\t// in\n    tag_25:\n      tag_27\n      jump\t// in\n    tag_24:\n      mload(0x40)\n      tag_28\n      swap2\n      swap1\n      tag_19\n      jump\t// in\n    tag_28:\n      mload(0x40)\n      dup1\n      swap2\n      sub\n      swap1\n      return\n        /* \"contracts/Crypto Kids/Cryptokids.sol\":240:279  mapping(uint=>KidsInfo) public requests */\n    tag_7:\n      tag_29\n      0x04\n      dup1\n      calldatasize\n      sub\n      dup2\n      add\n      swap1\n      tag_30\n      swap2\n      swap1\n      tag_31\n      jump\t// in\n    tag_30:\n      tag_32\n      jump\t// in\n    tag_29:\n      mload(0x40)\n      tag_33\n      swap3\n      swap2\n      swap1\n      tag_34\n      jump\t// in\n    tag_33:\n      mload(0x40)\n      dup1\n      swap2\n      sub\n      swap1\n      return\n        /* \"contracts/Crypto Kids/Cryptokids.sol\":326:349  uint public numRequests */\n    tag_8:\n      tag_35\n      tag_36\n      jump\t// in\n    tag_35:\n      mload(0x40)\n      tag_37\n      swap2\n      swap1\n      tag_19\n      jump\t// in\n    tag_37:\n      mload(0x40)\n      dup1\n      swap2\n      sub\n      swap1\n      return\n        /* \"contracts/Crypto Kids/Cryptokids.sol\":616:870  function kids_entry(address _kid, uint256 _age) onlyGrandpa public {... */\n    tag_9:\n      tag_38\n      0x04\n      dup1\n      calldatasize\n      sub\n      dup2\n      add\n      swap1\n      tag_39\n      swap2\n      swap1\n      tag_40\n      jump\t// in\n    tag_39:\n      tag_41\n      jump\t// in\n    tag_38:\n      stop\n        /* \"contracts/Crypto Kids/Cryptokids.sol\":88:110  address public grandpa */\n    tag_10:\n      tag_42\n      tag_43\n      jump\t// in\n    tag_42:\n      mload(0x40)\n      tag_44\n      swap2\n      swap1\n      tag_45\n      jump\t// in\n    tag_44:\n      mload(0x40)\n      dup1\n      swap2\n      sub\n      swap1\n      return\n        /* \"contracts/Crypto Kids/Cryptokids.sol\":117:151  address payable public address_kid */\n    tag_13:\n      0x01\n      0x00\n      swap1\n      sload\n      swap1\n      0x0100\n      exp\n      swap1\n      div\n      0xffffffffffffffffffffffffffffffffffffffff\n      and\n      dup2\n      jump\t// out\n        /* \"contracts/Crypto Kids/Cryptokids.sol\":356:385  uint public transferingAmount */\n    tag_17:\n      sload(0x05)\n      dup2\n      jump\t// out\n        /* \"contracts/Crypto Kids/Cryptokids.sol\":878:1159  function withdraw(address payable _address_kid) public {... */\n    tag_23:\n        /* \"contracts/Crypto Kids/Cryptokids.sol\":944:962  uint256 age_of_kid */\n      0x00\n        /* \"contracts/Crypto Kids/Cryptokids.sol\":966:969  kid */\n      0x03\n        /* \"contracts/Crypto Kids/Cryptokids.sol\":966:982  kid[address_kid] */\n      0x00\n        /* \"contracts/Crypto Kids/Cryptokids.sol\":970:981  address_kid */\n      0x01\n      0x00\n      swap1\n      sload\n      swap1\n      0x0100\n      exp\n      swap1\n      div\n      0xffffffffffffffffffffffffffffffffffffffff\n      and\n        /* \"contracts/Crypto Kids/Cryptokids.sol\":966:982  kid[address_kid] */\n      0xffffffffffffffffffffffffffffffffffffffff\n      and\n      0xffffffffffffffffffffffffffffffffffffffff\n      and\n      dup2\n      mstore\n      0x20\n      add\n      swap1\n      dup2\n      mstore\n      0x20\n      add\n      0x00\n      keccak256\n      sload\n        /* \"contracts/Crypto Kids/Cryptokids.sol\":944:983  uint256 age_of_kid = (kid[address_kid]) */\n      swap1\n      pop\n        /* \"contracts/Crypto Kids/Cryptokids.sol\":1015:1017  18 */\n      0x12\n        /* \"contracts/Crypto Kids/Cryptokids.sol\":1002:1012  age_of_kid */\n      dup2\n        /* \"contracts/Crypto Kids/Cryptokids.sol\":1002:1017  age_of_kid > 18 */\n      gt\n        /* \"contracts/Crypto Kids/Cryptokids.sol\":994:1087  require(age_of_kid > 18,\"You are still not young enough to get the ether from your grandpa.\") */\n      tag_47\n      jumpi\n      mload(0x40)\n      0x08c379a000000000000000000000000000000000000000000000000000000000\n      dup2\n      mstore\n      0x04\n      add\n      tag_48\n      swap1\n      tag_49\n      jump\t// in\n    tag_48:\n      mload(0x40)\n      dup1\n      swap2\n      sub\n      swap1\n      revert\n    tag_47:\n        /* \"contracts/Crypto Kids/Cryptokids.sol\":1098:1109  address_kid */\n      0x01\n      0x00\n      swap1\n      sload\n      swap1\n      0x0100\n      exp\n      swap1\n      div\n      0xffffffffffffffffffffffffffffffffffffffff\n      and\n        /* \"contracts/Crypto Kids/Cryptokids.sol\":1098:1118  address_kid.transfer */\n      0xffffffffffffffffffffffffffffffffffffffff\n      and\n        /* \"contracts/Crypto Kids/Cryptokids.sol\":1098:1137  address_kid.transfer(transferingAmount) */\n      0x08fc\n        /* \"contracts/Crypto Kids/Cryptokids.sol\":1119:1136  transferingAmount */\n      sload(0x05)\n        /* \"contracts/Crypto Kids/Cryptokids.sol\":1098:1137  address_kid.transfer(transferingAmount) */\n      swap1\n      dup2\n      iszero\n      mul\n      swap1\n      mload(0x40)\n      0x00\n      mload(0x40)\n      dup1\n      dup4\n      sub\n      dup2\n      dup6\n      dup9\n      dup9\n      call\n      swap4\n      pop\n      pop\n      pop\n      pop\n      iszero\n      dup1\n      iszero\n      tag_51\n      jumpi\n      returndatasize\n      0x00\n      dup1\n      returndatacopy\n      revert(0x00, returndatasize)\n    tag_51:\n      pop\n        /* \"contracts/Crypto Kids/Cryptokids.sol\":933:1159  {... */\n      pop\n        /* \"contracts/Crypto Kids/Cryptokids.sol\":878:1159  function withdraw(address payable _address_kid) public {... */\n      pop\n      jump\t// out\n        /* \"contracts/Crypto Kids/Cryptokids.sol\":286:319  mapping(address=>uint) public kid */\n    tag_27:\n      mstore(0x20, 0x03)\n      dup1\n      0x00\n      mstore\n      keccak256(0x00, 0x40)\n      0x00\n      swap2\n      pop\n      swap1\n      pop\n      sload\n      dup2\n      jump\t// out\n        /* \"contracts/Crypto Kids/Cryptokids.sol\":240:279  mapping(uint=>KidsInfo) public requests */\n    tag_32:\n      mstore(0x20, 0x02)\n      dup1\n      0x00\n      mstore\n      keccak256(0x00, 0x40)\n      0x00\n      swap2\n      pop\n      swap1\n      pop\n      dup1\n      0x00\n      add\n      0x00\n      swap1\n      sload\n      swap1\n      0x0100\n      exp\n      swap1\n      div\n      0xffffffffffffffffffffffffffffffffffffffff\n      and\n      swap1\n      dup1\n      0x01\n      add\n      sload\n      swap1\n      pop\n      dup3\n      jump\t// out\n        /* \"contracts/Crypto Kids/Cryptokids.sol\":326:349  uint public numRequests */\n    tag_36:\n      sload(0x04)\n      dup2\n      jump\t// out\n        /* \"contracts/Crypto Kids/Cryptokids.sol\":616:870  function kids_entry(address _kid, uint256 _age) onlyGrandpa public {... */\n    tag_41:\n        /* \"contracts/Crypto Kids/Cryptokids.sol\":580:587  grandpa */\n      0x00\n      dup1\n      sload\n      swap1\n      0x0100\n      exp\n      swap1\n      div\n      0xffffffffffffffffffffffffffffffffffffffff\n      and\n        /* \"contracts/Crypto Kids/Cryptokids.sol\":566:587  msg.sender == grandpa */\n      0xffffffffffffffffffffffffffffffffffffffff\n      and\n        /* \"contracts/Crypto Kids/Cryptokids.sol\":566:576  msg.sender */\n      caller\n        /* \"contracts/Crypto Kids/Cryptokids.sol\":566:587  msg.sender == grandpa */\n      0xffffffffffffffffffffffffffffffffffffffff\n      and\n      eq\n        /* \"contracts/Crypto Kids/Cryptokids.sol\":558:588  require(msg.sender == grandpa) */\n      tag_53\n      jumpi\n      0x00\n      dup1\n      revert\n    tag_53:\n        /* \"contracts/Crypto Kids/Cryptokids.sol\":694:719  KidsInfo storage kidsinfo */\n      0x00\n        /* \"contracts/Crypto Kids/Cryptokids.sol\":722:730  requests */\n      0x02\n        /* \"contracts/Crypto Kids/Cryptokids.sol\":722:743  requests[numRequests] */\n      0x00\n        /* \"contracts/Crypto Kids/Cryptokids.sol\":731:742  numRequests */\n      sload(0x04)\n        /* \"contracts/Crypto Kids/Cryptokids.sol\":722:743  requests[numRequests] */\n      dup2\n      mstore\n      0x20\n      add\n      swap1\n      dup2\n      mstore\n      0x20\n      add\n      0x00\n      keccak256\n        /* \"contracts/Crypto Kids/Cryptokids.sol\":694:743  KidsInfo storage kidsinfo = requests[numRequests] */\n      swap1\n      pop\n        /* \"contracts/Crypto Kids/Cryptokids.sol\":754:765  numRequests */\n      0x04\n      0x00\n        /* \"contracts/Crypto Kids/Cryptokids.sol\":754:767  numRequests++ */\n      dup2\n      sload\n      dup1\n      swap3\n      swap2\n      swap1\n      tag_55\n      swap1\n      tag_56\n      jump\t// in\n    tag_55:\n      swap2\n      swap1\n      pop\n      sstore\n      pop\n        /* \"contracts/Crypto Kids/Cryptokids.sol\":801:805  _kid */\n      dup3\n        /* \"contracts/Crypto Kids/Cryptokids.sol\":778:786  kidsinfo */\n      dup2\n        /* \"contracts/Crypto Kids/Cryptokids.sol\":778:798  kidsinfo.address_kid */\n      0x00\n      add\n      0x00\n        /* \"contracts/Crypto Kids/Cryptokids.sol\":778:805  kidsinfo.address_kid = _kid */\n      0x0100\n      exp\n      dup2\n      sload\n      dup2\n      0xffffffffffffffffffffffffffffffffffffffff\n      mul\n      not\n      and\n      swap1\n      dup4\n      0xffffffffffffffffffffffffffffffffffffffff\n      and\n      mul\n      or\n      swap1\n      sstore\n      pop\n        /* \"contracts/Crypto Kids/Cryptokids.sol\":831:835  _age */\n      dup2\n        /* \"contracts/Crypto Kids/Cryptokids.sol\":816:824  kidsinfo */\n      dup2\n        /* \"contracts/Crypto Kids/Cryptokids.sol\":816:828  kidsinfo.age */\n      0x01\n      add\n        /* \"contracts/Crypto Kids/Cryptokids.sol\":816:835  kidsinfo.age = _age */\n      dup2\n      swap1\n      sstore\n      pop\n        /* \"contracts/Crypto Kids/Cryptokids.sol\":858:862  _age */\n      dup2\n        /* \"contracts/Crypto Kids/Cryptokids.sol\":846:849  kid */\n      0x03\n        /* \"contracts/Crypto Kids/Cryptokids.sol\":846:855  kid[_kid] */\n      0x00\n        /* \"contracts/Crypto Kids/Cryptokids.sol\":850:854  _kid */\n      dup6\n        /* \"contracts/Crypto Kids/Cryptokids.sol\":846:855  kid[_kid] */\n      0xffffffffffffffffffffffffffffffffffffffff\n      and\n      0xffffffffffffffffffffffffffffffffffffffff\n      and\n      dup2\n      mstore\n      0x20\n      add\n      swap1\n      dup2\n      mstore\n      0x20\n      add\n      0x00\n      keccak256\n        /* \"contracts/Crypto Kids/Cryptokids.sol\":846:862  kid[_kid] = _age */\n      dup2\n      swap1\n      sstore\n      pop\n        /* \"contracts/Crypto Kids/Cryptokids.sol\":683:870  {... */\n      pop\n        /* \"contracts/Crypto Kids/Cryptokids.sol\":616:870  function kids_entry(address _kid, uint256 _age) onlyGrandpa public {... */\n      pop\n      pop\n      jump\t// out\n        /* \"contracts/Crypto Kids/Cryptokids.sol\":88:110  address public grandpa */\n    tag_43:\n      0x00\n      dup1\n      sload\n      swap1\n      0x0100\n      exp\n      swap1\n      div\n      0xffffffffffffffffffffffffffffffffffffffff\n      and\n      dup2\n      jump\t// out\n        /* \"#utility.yul\":7:133   */\n    tag_57:\n        /* \"#utility.yul\":44:51   */\n      0x00\n        /* \"#utility.yul\":84:126   */\n      0xffffffffffffffffffffffffffffffffffffffff\n        /* \"#utility.yul\":77:82   */\n      dup3\n        /* \"#utility.yul\":73:127   */\n      and\n        /* \"#utility.yul\":62:127   */\n      swap1\n      pop\n        /* \"#utility.yul\":7:133   */\n      swap2\n      swap1\n      pop\n      jump\t// out\n        /* \"#utility.yul\":139:243   */\n    tag_58:\n        /* \"#utility.yul\":184:191   */\n      0x00\n        /* \"#utility.yul\":213:237   */\n      tag_80\n        /* \"#utility.yul\":231:236   */\n      dup3\n        /* \"#utility.yul\":213:237   */\n      tag_57\n      jump\t// in\n    tag_80:\n        /* \"#utility.yul\":202:237   */\n      swap1\n      pop\n        /* \"#utility.yul\":139:243   */\n      swap2\n      swap1\n      pop\n      jump\t// out\n        /* \"#utility.yul\":249:391   */\n    tag_59:\n        /* \"#utility.yul\":352:384   */\n      tag_82\n        /* \"#utility.yul\":378:383   */\n      dup2\n        /* \"#utility.yul\":352:384   */\n      tag_58\n      jump\t// in\n    tag_82:\n        /* \"#utility.yul\":347:350   */\n      dup3\n        /* \"#utility.yul\":340:385   */\n      mstore\n        /* \"#utility.yul\":249:391   */\n      pop\n      pop\n      jump\t// out\n        /* \"#utility.yul\":397:651   */\n    tag_15:\n        /* \"#utility.yul\":506:510   */\n      0x00\n        /* \"#utility.yul\":544:546   */\n      0x20\n        /* \"#utility.yul\":533:542   */\n      dup3\n        /* \"#utility.yul\":529:547   */\n      add\n        /* \"#utility.yul\":521:547   */\n      swap1\n      pop\n        /* \"#utility.yul\":557:644   */\n      tag_84\n        /* \"#utility.yul\":641:642   */\n      0x00\n        /* \"#utility.yul\":630:639   */\n      dup4\n        /* \"#utility.yul\":626:643   */\n      add\n        /* \"#utility.yul\":617:623   */\n      dup5\n        /* \"#utility.yul\":557:644   */\n      tag_59\n      jump\t// in\n    tag_84:\n        /* \"#utility.yul\":397:651   */\n      swap3\n      swap2\n      pop\n      pop\n      jump\t// out\n        /* \"#utility.yul\":657:734   */\n    tag_60:\n        /* \"#utility.yul\":694:701   */\n      0x00\n        /* \"#utility.yul\":723:728   */\n      dup2\n        /* \"#utility.yul\":712:728   */\n      swap1\n      pop\n        /* \"#utility.yul\":657:734   */\n      swap2\n      swap1\n      pop\n      jump\t// out\n        /* \"#utility.yul\":740:858   */\n    tag_61:\n        /* \"#utility.yul\":827:851   */\n      tag_87\n        /* \"#utility.yul\":845:850   */\n      dup2\n        /* \"#utility.yul\":827:851   */\n      tag_60\n      jump\t// in\n    tag_87:\n        /* \"#utility.yul\":822:825   */\n      dup3\n        /* \"#utility.yul\":815:852   */\n      mstore\n        /* \"#utility.yul\":740:858   */\n      pop\n      pop\n      jump\t// out\n        /* \"#utility.yul\":864:1086   */\n    tag_19:\n        /* \"#utility.yul\":957:961   */\n      0x00\n        /* \"#utility.yul\":995:997   */\n      0x20\n        /* \"#utility.yul\":984:993   */\n      dup3\n        /* \"#utility.yul\":980:998   */\n      add\n        /* \"#utility.yul\":972:998   */\n      swap1\n      pop\n        /* \"#utility.yul\":1008:1079   */\n      tag_89\n        /* \"#utility.yul\":1076:1077   */\n      0x00\n        /* \"#utility.yul\":1065:1074   */\n      dup4\n        /* \"#utility.yul\":1061:1078   */\n      add\n        /* \"#utility.yul\":1052:1058   */\n      dup5\n        /* \"#utility.yul\":1008:1079   */\n      tag_61\n      jump\t// in\n    tag_89:\n        /* \"#utility.yul\":864:1086   */\n      swap3\n      swap2\n      pop\n      pop\n      jump\t// out\n        /* \"#utility.yul\":1173:1290   */\n    tag_63:\n        /* \"#utility.yul\":1282:1283   */\n      0x00\n        /* \"#utility.yul\":1279:1280   */\n      dup1\n        /* \"#utility.yul\":1272:1284   */\n      revert\n        /* \"#utility.yul\":1419:1557   */\n    tag_65:\n        /* \"#utility.yul\":1500:1532   */\n      tag_94\n        /* \"#utility.yul\":1526:1531   */\n      dup2\n        /* \"#utility.yul\":1500:1532   */\n      tag_58\n      jump\t// in\n    tag_94:\n        /* \"#utility.yul\":1493:1498   */\n      dup2\n        /* \"#utility.yul\":1490:1533   */\n      eq\n        /* \"#utility.yul\":1480:1551   */\n      tag_95\n      jumpi\n        /* \"#utility.yul\":1547:1548   */\n      0x00\n        /* \"#utility.yul\":1544:1545   */\n      dup1\n        /* \"#utility.yul\":1537:1549   */\n      revert\n        /* \"#utility.yul\":1480:1551   */\n    tag_95:\n        /* \"#utility.yul\":1419:1557   */\n      pop\n      jump\t// out\n        /* \"#utility.yul\":1563:1718   */\n    tag_66:\n        /* \"#utility.yul\":1617:1622   */\n      0x00\n        /* \"#utility.yul\":1655:1661   */\n      dup2\n        /* \"#utility.yul\":1642:1662   */\n      calldataload\n        /* \"#utility.yul\":1633:1662   */\n      swap1\n      pop\n        /* \"#utility.yul\":1671:1712   */\n      tag_97\n        /* \"#utility.yul\":1706:1711   */\n      dup2\n        /* \"#utility.yul\":1671:1712   */\n      tag_65\n      jump\t// in\n    tag_97:\n        /* \"#utility.yul\":1563:1718   */\n      swap3\n      swap2\n      pop\n      pop\n      jump\t// out\n        /* \"#utility.yul\":1724:2069   */\n    tag_22:\n        /* \"#utility.yul\":1791:1797   */\n      0x00\n        /* \"#utility.yul\":1840:1842   */\n      0x20\n        /* \"#utility.yul\":1828:1837   */\n      dup3\n        /* \"#utility.yul\":1819:1826   */\n      dup5\n        /* \"#utility.yul\":1815:1838   */\n      sub\n        /* \"#utility.yul\":1811:1843   */\n      slt\n        /* \"#utility.yul\":1808:1927   */\n      iszero\n      tag_99\n      jumpi\n        /* \"#utility.yul\":1846:1925   */\n      tag_100\n      tag_63\n      jump\t// in\n    tag_100:\n        /* \"#utility.yul\":1808:1927   */\n    tag_99:\n        /* \"#utility.yul\":1966:1967   */\n      0x00\n        /* \"#utility.yul\":1991:2052   */\n      tag_101\n        /* \"#utility.yul\":2044:2051   */\n      dup5\n        /* \"#utility.yul\":2035:2041   */\n      dup3\n        /* \"#utility.yul\":2024:2033   */\n      dup6\n        /* \"#utility.yul\":2020:2042   */\n      add\n        /* \"#utility.yul\":1991:2052   */\n      tag_66\n      jump\t// in\n    tag_101:\n        /* \"#utility.yul\":1981:2052   */\n      swap2\n      pop\n        /* \"#utility.yul\":1937:2062   */\n      pop\n        /* \"#utility.yul\":1724:2069   */\n      swap3\n      swap2\n      pop\n      pop\n      jump\t// out\n        /* \"#utility.yul\":2075:2171   */\n    tag_67:\n        /* \"#utility.yul\":2112:2119   */\n      0x00\n        /* \"#utility.yul\":2141:2165   */\n      tag_103\n        /* \"#utility.yul\":2159:2164   */\n      dup3\n        /* \"#utility.yul\":2141:2165   */\n      tag_57\n      jump\t// in\n    tag_103:\n        /* \"#utility.yul\":2130:2165   */\n      swap1\n      pop\n        /* \"#utility.yul\":2075:2171   */\n      swap2\n      swap1\n      pop\n      jump\t// out\n        /* \"#utility.yul\":2177:2299   */\n    tag_68:\n        /* \"#utility.yul\":2250:2274   */\n      tag_105\n        /* \"#utility.yul\":2268:2273   */\n      dup2\n        /* \"#utility.yul\":2250:2274   */\n      tag_67\n      jump\t// in\n    tag_105:\n        /* \"#utility.yul\":2243:2248   */\n      dup2\n        /* \"#utility.yul\":2240:2275   */\n      eq\n        /* \"#utility.yul\":2230:2293   */\n      tag_106\n      jumpi\n        /* \"#utility.yul\":2289:2290   */\n      0x00\n        /* \"#utility.yul\":2286:2287   */\n      dup1\n        /* \"#utility.yul\":2279:2291   */\n      revert\n        /* \"#utility.yul\":2230:2293   */\n    tag_106:\n        /* \"#utility.yul\":2177:2299   */\n      pop\n      jump\t// out\n        /* \"#utility.yul\":2305:2444   */\n    tag_69:\n        /* \"#utility.yul\":2351:2356   */\n      0x00\n        /* \"#utility.yul\":2389:2395   */\n      dup2\n        /* \"#utility.yul\":2376:2396   */\n      calldataload\n        /* \"#utility.yul\":2367:2396   */\n      swap1\n      pop\n        /* \"#utility.yul\":2405:2438   */\n      tag_108\n        /* \"#utility.yul\":2432:2437   */\n      dup2\n        /* \"#utility.yul\":2405:2438   */\n      tag_68\n      jump\t// in\n    tag_108:\n        /* \"#utility.yul\":2305:2444   */\n      swap3\n      swap2\n      pop\n      pop\n      jump\t// out\n        /* \"#utility.yul\":2450:2779   */\n    tag_26:\n        /* \"#utility.yul\":2509:2515   */\n      0x00\n        /* \"#utility.yul\":2558:2560   */\n      0x20\n        /* \"#utility.yul\":2546:2555   */\n      dup3\n        /* \"#utility.yul\":2537:2544   */\n      dup5\n        /* \"#utility.yul\":2533:2556   */\n      sub\n        /* \"#utility.yul\":2529:2561   */\n      slt\n        /* \"#utility.yul\":2526:2645   */\n      iszero\n      tag_110\n      jumpi\n        /* \"#utility.yul\":2564:2643   */\n      tag_111\n      tag_63\n      jump\t// in\n    tag_111:\n        /* \"#utility.yul\":2526:2645   */\n    tag_110:\n        /* \"#utility.yul\":2684:2685   */\n      0x00\n        /* \"#utility.yul\":2709:2762   */\n      tag_112\n        /* \"#utility.yul\":2754:2761   */\n      dup5\n        /* \"#utility.yul\":2745:2751   */\n      dup3\n        /* \"#utility.yul\":2734:2743   */\n      dup6\n        /* \"#utility.yul\":2730:2752   */\n      add\n        /* \"#utility.yul\":2709:2762   */\n      tag_69\n      jump\t// in\n    tag_112:\n        /* \"#utility.yul\":2699:2762   */\n      swap2\n      pop\n        /* \"#utility.yul\":2655:2772   */\n      pop\n        /* \"#utility.yul\":2450:2779   */\n      swap3\n      swap2\n      pop\n      pop\n      jump\t// out\n        /* \"#utility.yul\":2785:2907   */\n    tag_70:\n        /* \"#utility.yul\":2858:2882   */\n      tag_114\n        /* \"#utility.yul\":2876:2881   */\n      dup2\n        /* \"#utility.yul\":2858:2882   */\n      tag_60\n      jump\t// in\n    tag_114:\n        /* \"#utility.yul\":2851:2856   */\n      dup2\n        /* \"#utility.yul\":2848:2883   */\n      eq\n        /* \"#utility.yul\":2838:2901   */\n      tag_115\n      jumpi\n        /* \"#utility.yul\":2897:2898   */\n      0x00\n        /* \"#utility.yul\":2894:2895   */\n      dup1\n        /* \"#utility.yul\":2887:2899   */\n      revert\n        /* \"#utility.yul\":2838:2901   */\n    tag_115:\n        /* \"#utility.yul\":2785:2907   */\n      pop\n      jump\t// out\n        /* \"#utility.yul\":2913:3052   */\n    tag_71:\n        /* \"#utility.yul\":2959:2964   */\n      0x00\n        /* \"#utility.yul\":2997:3003   */\n      dup2\n        /* \"#utility.yul\":2984:3004   */\n      calldataload\n        /* \"#utility.yul\":2975:3004   */\n      swap1\n      pop\n        /* \"#utility.yul\":3013:3046   */\n      tag_117\n        /* \"#utility.yul\":3040:3045   */\n      dup2\n        /* \"#utility.yul\":3013:3046   */\n      tag_70\n      jump\t// in\n    tag_117:\n        /* \"#utility.yul\":2913:3052   */\n      swap3\n      swap2\n      pop\n      pop\n      jump\t// out\n        /* \"#utility.yul\":3058:3387   */\n    tag_31:\n        /* \"#utility.yul\":3117:3123   */\n      0x00\n        /* \"#utility.yul\":3166:3168   */\n      0x20\n        /* \"#utility.yul\":3154:3163   */\n      dup3\n        /* \"#utility.yul\":3145:3152   */\n      dup5\n        /* \"#utility.yul\":3141:3164   */\n      sub\n        /* \"#utility.yul\":3137:3169   */\n      slt\n        /* \"#utility.yul\":3134:3253   */\n      iszero\n      tag_119\n      jumpi\n        /* \"#utility.yul\":3172:3251   */\n      tag_120\n      tag_63\n      jump\t// in\n    tag_120:\n        /* \"#utility.yul\":3134:3253   */\n    tag_119:\n        /* \"#utility.yul\":3292:3293   */\n      0x00\n        /* \"#utility.yul\":3317:3370   */\n      tag_121\n        /* \"#utility.yul\":3362:3369   */\n      dup5\n        /* \"#utility.yul\":3353:3359   */\n      dup3\n        /* \"#utility.yul\":3342:3351   */\n      dup6\n        /* \"#utility.yul\":3338:3360   */\n      add\n        /* \"#utility.yul\":3317:3370   */\n      tag_71\n      jump\t// in\n    tag_121:\n        /* \"#utility.yul\":3307:3370   */\n      swap2\n      pop\n        /* \"#utility.yul\":3263:3380   */\n      pop\n        /* \"#utility.yul\":3058:3387   */\n      swap3\n      swap2\n      pop\n      pop\n      jump\t// out\n        /* \"#utility.yul\":3393:3511   */\n    tag_72:\n        /* \"#utility.yul\":3480:3504   */\n      tag_123\n        /* \"#utility.yul\":3498:3503   */\n      dup2\n        /* \"#utility.yul\":3480:3504   */\n      tag_67\n      jump\t// in\n    tag_123:\n        /* \"#utility.yul\":3475:3478   */\n      dup3\n        /* \"#utility.yul\":3468:3505   */\n      mstore\n        /* \"#utility.yul\":3393:3511   */\n      pop\n      pop\n      jump\t// out\n        /* \"#utility.yul\":3517:3849   */\n    tag_34:\n        /* \"#utility.yul\":3638:3642   */\n      0x00\n        /* \"#utility.yul\":3676:3678   */\n      0x40\n        /* \"#utility.yul\":3665:3674   */\n      dup3\n        /* \"#utility.yul\":3661:3679   */\n      add\n        /* \"#utility.yul\":3653:3679   */\n      swap1\n      pop\n        /* \"#utility.yul\":3689:3760   */\n      tag_125\n        /* \"#utility.yul\":3757:3758   */\n      0x00\n        /* \"#utility.yul\":3746:3755   */\n      dup4\n        /* \"#utility.yul\":3742:3759   */\n      add\n        /* \"#utility.yul\":3733:3739   */\n      dup6\n        /* \"#utility.yul\":3689:3760   */\n      tag_72\n      jump\t// in\n    tag_125:\n        /* \"#utility.yul\":3770:3842   */\n      tag_126\n        /* \"#utility.yul\":3838:3840   */\n      0x20\n        /* \"#utility.yul\":3827:3836   */\n      dup4\n        /* \"#utility.yul\":3823:3841   */\n      add\n        /* \"#utility.yul\":3814:3820   */\n      dup5\n        /* \"#utility.yul\":3770:3842   */\n      tag_61\n      jump\t// in\n    tag_126:\n        /* \"#utility.yul\":3517:3849   */\n      swap4\n      swap3\n      pop\n      pop\n      pop\n      jump\t// out\n        /* \"#utility.yul\":3855:4329   */\n    tag_40:\n        /* \"#utility.yul\":3923:3929   */\n      0x00\n        /* \"#utility.yul\":3931:3937   */\n      dup1\n        /* \"#utility.yul\":3980:3982   */\n      0x40\n        /* \"#utility.yul\":3968:3977   */\n      dup4\n        /* \"#utility.yul\":3959:3966   */\n      dup6\n        /* \"#utility.yul\":3955:3978   */\n      sub\n        /* \"#utility.yul\":3951:3983   */\n      slt\n        /* \"#utility.yul\":3948:4067   */\n      iszero\n      tag_128\n      jumpi\n        /* \"#utility.yul\":3986:4065   */\n      tag_129\n      tag_63\n      jump\t// in\n    tag_129:\n        /* \"#utility.yul\":3948:4067   */\n    tag_128:\n        /* \"#utility.yul\":4106:4107   */\n      0x00\n        /* \"#utility.yul\":4131:4184   */\n      tag_130\n        /* \"#utility.yul\":4176:4183   */\n      dup6\n        /* \"#utility.yul\":4167:4173   */\n      dup3\n        /* \"#utility.yul\":4156:4165   */\n      dup7\n        /* \"#utility.yul\":4152:4174   */\n      add\n        /* \"#utility.yul\":4131:4184   */\n      tag_69\n      jump\t// in\n    tag_130:\n        /* \"#utility.yul\":4121:4184   */\n      swap3\n      pop\n        /* \"#utility.yul\":4077:4194   */\n      pop\n        /* \"#utility.yul\":4233:4235   */\n      0x20\n        /* \"#utility.yul\":4259:4312   */\n      tag_131\n        /* \"#utility.yul\":4304:4311   */\n      dup6\n        /* \"#utility.yul\":4295:4301   */\n      dup3\n        /* \"#utility.yul\":4284:4293   */\n      dup7\n        /* \"#utility.yul\":4280:4302   */\n      add\n        /* \"#utility.yul\":4259:4312   */\n      tag_71\n      jump\t// in\n    tag_131:\n        /* \"#utility.yul\":4249:4312   */\n      swap2\n      pop\n        /* \"#utility.yul\":4204:4322   */\n      pop\n        /* \"#utility.yul\":3855:4329   */\n      swap3\n      pop\n      swap3\n      swap1\n      pop\n      jump\t// out\n        /* \"#utility.yul\":4335:4557   */\n    tag_45:\n        /* \"#utility.yul\":4428:4432   */\n      0x00\n        /* \"#utility.yul\":4466:4468   */\n      0x20\n        /* \"#utility.yul\":4455:4464   */\n      dup3\n        /* \"#utility.yul\":4451:4469   */\n      add\n        /* \"#utility.yul\":4443:4469   */\n      swap1\n      pop\n        /* \"#utility.yul\":4479:4550   */\n      tag_133\n        /* \"#utility.yul\":4547:4548   */\n      0x00\n        /* \"#utility.yul\":4536:4545   */\n      dup4\n        /* \"#utility.yul\":4532:4549   */\n      add\n        /* \"#utility.yul\":4523:4529   */\n      dup5\n        /* \"#utility.yul\":4479:4550   */\n      tag_72\n      jump\t// in\n    tag_133:\n        /* \"#utility.yul\":4335:4557   */\n      swap3\n      swap2\n      pop\n      pop\n      jump\t// out\n        /* \"#utility.yul\":4563:4732   */\n    tag_73:\n        /* \"#utility.yul\":4647:4658   */\n      0x00\n        /* \"#utility.yul\":4681:4687   */\n      dup3\n        /* \"#utility.yul\":4676:4679   */\n      dup3\n        /* \"#utility.yul\":4669:4688   */\n      mstore\n        /* \"#utility.yul\":4721:4725   */\n      0x20\n        /* \"#utility.yul\":4716:4719   */\n      dup3\n        /* \"#utility.yul\":4712:4726   */\n      add\n        /* \"#utility.yul\":4697:4726   */\n      swap1\n      pop\n        /* \"#utility.yul\":4563:4732   */\n      swap3\n      swap2\n      pop\n      pop\n      jump\t// out\n        /* \"#utility.yul\":4738:5028   */\n    tag_74:\n        /* \"#utility.yul\":4878:4912   */\n      0x596f7520617265207374696c6c206e6f7420796f756e6720656e6f7567682074\n        /* \"#utility.yul\":4874:4875   */\n      0x00\n        /* \"#utility.yul\":4866:4872   */\n      dup3\n        /* \"#utility.yul\":4862:4876   */\n      add\n        /* \"#utility.yul\":4855:4913   */\n      mstore\n        /* \"#utility.yul\":4947:4981   */\n      0x6f20676574207468652065746865722066726f6d20796f7572206772616e6470\n        /* \"#utility.yul\":4942:4944   */\n      0x20\n        /* \"#utility.yul\":4934:4940   */\n      dup3\n        /* \"#utility.yul\":4930:4945   */\n      add\n        /* \"#utility.yul\":4923:4982   */\n      mstore\n        /* \"#utility.yul\":5016:5020   */\n      0x612e000000000000000000000000000000000000000000000000000000000000\n        /* \"#utility.yul\":5011:5013   */\n      0x40\n        /* \"#utility.yul\":5003:5009   */\n      dup3\n        /* \"#utility.yul\":4999:5014   */\n      add\n        /* \"#utility.yul\":4992:5021   */\n      mstore\n        /* \"#utility.yul\":4738:5028   */\n      pop\n      jump\t// out\n        /* \"#utility.yul\":5034:5400   */\n    tag_75:\n        /* \"#utility.yul\":5176:5179   */\n      0x00\n        /* \"#utility.yul\":5197:5264   */\n      tag_137\n        /* \"#utility.yul\":5261:5263   */\n      0x42\n        /* \"#utility.yul\":5256:5259   */\n      dup4\n        /* \"#utility.yul\":5197:5264   */\n      tag_73\n      jump\t// in\n    tag_137:\n        /* \"#utility.yul\":5190:5264   */\n      swap2\n      pop\n        /* \"#utility.yul\":5273:5366   */\n      tag_138\n        /* \"#utility.yul\":5362:5365   */\n      dup3\n        /* \"#utility.yul\":5273:5366   */\n      tag_74\n      jump\t// in\n    tag_138:\n        /* \"#utility.yul\":5391:5393   */\n      0x60\n        /* \"#utility.yul\":5386:5389   */\n      dup3\n        /* \"#utility.yul\":5382:5394   */\n      add\n        /* \"#utility.yul\":5375:5394   */\n      swap1\n      pop\n        /* \"#utility.yul\":5034:5400   */\n      swap2\n      swap1\n      pop\n      jump\t// out\n        /* \"#utility.yul\":5406:5825   */\n    tag_49:\n        /* \"#utility.yul\":5572:5576   */\n      0x00\n        /* \"#utility.yul\":5610:5612   */\n      0x20\n        /* \"#utility.yul\":5599:5608   */\n      dup3\n        /* \"#utility.yul\":5595:5613   */\n      add\n        /* \"#utility.yul\":5587:5613   */\n      swap1\n      pop\n        /* \"#utility.yul\":5659:5668   */\n      dup2\n        /* \"#utility.yul\":5653:5657   */\n      dup2\n        /* \"#utility.yul\":5649:5669   */\n      sub\n        /* \"#utility.yul\":5645:5646   */\n      0x00\n        /* \"#utility.yul\":5634:5643   */\n      dup4\n        /* \"#utility.yul\":5630:5647   */\n      add\n        /* \"#utility.yul\":5623:5670   */\n      mstore\n        /* \"#utility.yul\":5687:5818   */\n      tag_140\n        /* \"#utility.yul\":5813:5817   */\n      dup2\n        /* \"#utility.yul\":5687:5818   */\n      tag_75\n      jump\t// in\n    tag_140:\n        /* \"#utility.yul\":5679:5818   */\n      swap1\n      pop\n        /* \"#utility.yul\":5406:5825   */\n      swap2\n      swap1\n      pop\n      jump\t// out\n        /* \"#utility.yul\":5831:6011   */\n    tag_76:\n        /* \"#utility.yul\":5879:5956   */\n      0x4e487b7100000000000000000000000000000000000000000000000000000000\n        /* \"#utility.yul\":5876:5877   */\n      0x00\n        /* \"#utility.yul\":5869:5957   */\n      mstore\n        /* \"#utility.yul\":5976:5980   */\n      0x11\n        /* \"#utility.yul\":5973:5974   */\n      0x04\n        /* \"#utility.yul\":5966:5981   */\n      mstore\n        /* \"#utility.yul\":6000:6004   */\n      0x24\n        /* \"#utility.yul\":5997:5998   */\n      0x00\n        /* \"#utility.yul\":5990:6005   */\n      revert\n        /* \"#utility.yul\":6017:6250   */\n    tag_56:\n        /* \"#utility.yul\":6056:6059   */\n      0x00\n        /* \"#utility.yul\":6079:6103   */\n      tag_143\n        /* \"#utility.yul\":6097:6102   */\n      dup3\n        /* \"#utility.yul\":6079:6103   */\n      tag_60\n      jump\t// in\n    tag_143:\n        /* \"#utility.yul\":6070:6103   */\n      swap2\n      pop\n        /* \"#utility.yul\":6125:6191   */\n      0xffffffffffffffffffffffffffffffffffffffffffffffffffffffffffffffff\n        /* \"#utility.yul\":6118:6123   */\n      dup3\n        /* \"#utility.yul\":6115:6192   */\n      sub\n        /* \"#utility.yul\":6112:6215   */\n      tag_144\n      jumpi\n        /* \"#utility.yul\":6195:6213   */\n      tag_145\n      tag_76\n      jump\t// in\n    tag_145:\n        /* \"#utility.yul\":6112:6215   */\n    tag_144:\n        /* \"#utility.yul\":6242:6243   */\n      0x01\n        /* \"#utility.yul\":6235:6240   */\n      dup3\n        /* \"#utility.yul\":6231:6244   */\n      add\n        /* \"#utility.yul\":6224:6244   */\n      swap1\n      pop\n        /* \"#utility.yul\":6017:6250   */\n      swap2\n      swap1\n      pop\n      jump\t// out\n\n    auxdata: 0xa2646970667358221220d42f8491f26a488693c5ce79ae70e0eec439c2f1ccc841abbc4f9b7397240f6c64736f6c634300080d0033\n}\n",
				"bytecode": {
					"linkReferences": {},
					"object": "608060405234801561001057600080fd5b50604051610937380380610937833981810160405281019061003291906100ba565b336000806101000a81548173ffffffffffffffffffffffffffffffffffffffff021916908373ffffffffffffffffffffffffffffffffffffffff16021790555080600581905550506100e7565b600080fd5b6000819050919050565b61009781610084565b81146100a257600080fd5b50565b6000815190506100b48161008e565b92915050565b6000602082840312156100d0576100cf61007f565b5b60006100de848285016100a5565b91505092915050565b610841806100f66000396000f3fe608060405234801561001057600080fd5b50600436106100885760003560e01c806381d12c581161005b57806381d12c58146101155780639fb42b1f14610146578063d42cd5a914610164578063d5ebe7f81461018057610088565b806324ca53c21461008d5780633f5a7d48146100ab57806351cff8d9146100c95780636f6b4069146100e5575b600080fd5b61009561019e565b6040516100a291906104c7565b60405180910390f35b6100b36101c4565b6040516100c091906104fb565b60405180910390f35b6100e360048036038101906100de9190610547565b6101ca565b005b6100ff60048036038101906100fa91906105b2565b6102e2565b60405161010c91906104fb565b60405180910390f35b61012f600480360381019061012a919061060b565b6102fa565b60405161013d929190610647565b60405180910390f35b61014e61033e565b60405161015b91906104fb565b60405180910390f35b61017e60048036038101906101799190610670565b610344565b005b610188610462565b60405161019591906106b0565b60405180910390f35b600160009054906101000a900473ffffffffffffffffffffffffffffffffffffffff1681565b60055481565b600060036000600160009054906101000a900473ffffffffffffffffffffffffffffffffffffffff1673ffffffffffffffffffffffffffffffffffffffff1673ffffffffffffffffffffffffffffffffffffffff16815260200190815260200160002054905060128111610273576040517f08c379a000000000000000000000000000000000000000000000000000000000815260040161026a90610774565b60405180910390fd5b600160009054906101000a900473ffffffffffffffffffffffffffffffffffffffff1673ffffffffffffffffffffffffffffffffffffffff166108fc6005549081150290604051600060405180830381858888f193505050501580156102dd573d6000803e3d6000fd5b505050565b60036020528060005260406000206000915090505481565b60026020528060005260406000206000915090508060000160009054906101000a900473ffffffffffffffffffffffffffffffffffffffff16908060010154905082565b60045481565b60008054906101000a900473ffffffffffffffffffffffffffffffffffffffff1673ffffffffffffffffffffffffffffffffffffffff163373ffffffffffffffffffffffffffffffffffffffff161461039c57600080fd5b60006002600060045481526020019081526020016000209050600460008154809291906103c8906107c3565b9190505550828160000160006101000a81548173ffffffffffffffffffffffffffffffffffffffff021916908373ffffffffffffffffffffffffffffffffffffffff16021790555081816001018190555081600360008573ffffffffffffffffffffffffffffffffffffffff1673ffffffffffffffffffffffffffffffffffffffff16815260200190815260200160002081905550505050565b60008054906101000a900473ffffffffffffffffffffffffffffffffffffffff1681565b600073ffffffffffffffffffffffffffffffffffffffff82169050919050565b60006104b182610486565b9050919050565b6104c1816104a6565b82525050565b60006020820190506104dc60008301846104b8565b92915050565b6000819050919050565b6104f5816104e2565b82525050565b600060208201905061051060008301846104ec565b92915050565b600080fd5b610524816104a6565b811461052f57600080fd5b50565b6000813590506105418161051b565b92915050565b60006020828403121561055d5761055c610516565b5b600061056b84828501610532565b91505092915050565b600061057f82610486565b9050919050565b61058f81610574565b811461059a57600080fd5b50565b6000813590506105ac81610586565b92915050565b6000602082840312156105c8576105c7610516565b5b60006105d68482850161059d565b91505092915050565b6105e8816104e2565b81146105f357600080fd5b50565b600081359050610605816105df565b92915050565b60006020828403121561062157610620610516565b5b600061062f848285016105f6565b91505092915050565b61064181610574565b82525050565b600060408201905061065c6000830185610638565b61066960208301846104ec565b9392505050565b6000806040838503121561068757610686610516565b5b60006106958582860161059d565b92505060206106a6858286016105f6565b9150509250929050565b60006020820190506106c56000830184610638565b92915050565b600082825260208201905092915050565b7f596f7520617265207374696c6c206e6f7420796f756e6720656e6f756768207460008201527f6f20676574207468652065746865722066726f6d20796f7572206772616e647060208201527f612e000000000000000000000000000000000000000000000000000000000000604082015250565b600061075e6042836106cb565b9150610769826106dc565b606082019050919050565b6000602082019050818103600083015261078d81610751565b9050919050565b7f4e487b7100000000000000000000000000000000000000000000000000000000600052601160045260246000fd5b60006107ce826104e2565b91507fffffffffffffffffffffffffffffffffffffffffffffffffffffffffffffffff8203610800576107ff610794565b5b60018201905091905056fea2646970667358221220d42f8491f26a488693c5ce79ae70e0eec439c2f1ccc841abbc4f9b7397240f6c64736f6c634300080d0033",
					"opcodes": "PUSH1 0x80 PUSH1 0x40 MSTORE CALLVALUE DUP1 ISZERO PUSH2 0x10 JUMPI PUSH1 0x0 DUP1 REVERT JUMPDEST POP PUSH1 0x40 MLOAD PUSH2 0x937 CODESIZE SUB DUP1 PUSH2 0x937 DUP4 CODECOPY DUP2 DUP2 ADD PUSH1 0x40 MSTORE DUP2 ADD SWAP1 PUSH2 0x32 SWAP2 SWAP1 PUSH2 0xBA JUMP JUMPDEST CALLER PUSH1 0x0 DUP1 PUSH2 0x100 EXP DUP2 SLOAD DUP2 PUSH20 0xFFFFFFFFFFFFFFFFFFFFFFFFFFFFFFFFFFFFFFFF MUL NOT AND SWAP1 DUP4 PUSH20 0xFFFFFFFFFFFFFFFFFFFFFFFFFFFFFFFFFFFFFFFF AND MUL OR SWAP1 SSTORE POP DUP1 PUSH1 0x5 DUP2 SWAP1 SSTORE POP POP PUSH2 0xE7 JUMP JUMPDEST PUSH1 0x0 DUP1 REVERT JUMPDEST PUSH1 0x0 DUP2 SWAP1 POP SWAP2 SWAP1 POP JUMP JUMPDEST PUSH2 0x97 DUP2 PUSH2 0x84 JUMP JUMPDEST DUP2 EQ PUSH2 0xA2 JUMPI PUSH1 0x0 DUP1 REVERT JUMPDEST POP JUMP JUMPDEST PUSH1 0x0 DUP2 MLOAD SWAP1 POP PUSH2 0xB4 DUP2 PUSH2 0x8E JUMP JUMPDEST SWAP3 SWAP2 POP POP JUMP JUMPDEST PUSH1 0x0 PUSH1 0x20 DUP3 DUP5 SUB SLT ISZERO PUSH2 0xD0 JUMPI PUSH2 0xCF PUSH2 0x7F JUMP JUMPDEST JUMPDEST PUSH1 0x0 PUSH2 0xDE DUP5 DUP3 DUP6 ADD PUSH2 0xA5 JUMP JUMPDEST SWAP2 POP POP SWAP3 SWAP2 POP POP JUMP JUMPDEST PUSH2 0x841 DUP1 PUSH2 0xF6 PUSH1 0x0 CODECOPY PUSH1 0x0 RETURN INVALID PUSH1 0x80 PUSH1 0x40 MSTORE CALLVALUE DUP1 ISZERO PUSH2 0x10 JUMPI PUSH1 0x0 DUP1 REVERT JUMPDEST POP PUSH1 0x4 CALLDATASIZE LT PUSH2 0x88 JUMPI PUSH1 0x0 CALLDATALOAD PUSH1 0xE0 SHR DUP1 PUSH4 0x81D12C58 GT PUSH2 0x5B JUMPI DUP1 PUSH4 0x81D12C58 EQ PUSH2 0x115 JUMPI DUP1 PUSH4 0x9FB42B1F EQ PUSH2 0x146 JUMPI DUP1 PUSH4 0xD42CD5A9 EQ PUSH2 0x164 JUMPI DUP1 PUSH4 0xD5EBE7F8 EQ PUSH2 0x180 JUMPI PUSH2 0x88 JUMP JUMPDEST DUP1 PUSH4 0x24CA53C2 EQ PUSH2 0x8D JUMPI DUP1 PUSH4 0x3F5A7D48 EQ PUSH2 0xAB JUMPI DUP1 PUSH4 0x51CFF8D9 EQ PUSH2 0xC9 JUMPI DUP1 PUSH4 0x6F6B4069 EQ PUSH2 0xE5 JUMPI JUMPDEST PUSH1 0x0 DUP1 REVERT JUMPDEST PUSH2 0x95 PUSH2 0x19E JUMP JUMPDEST PUSH1 0x40 MLOAD PUSH2 0xA2 SWAP2 SWAP1 PUSH2 0x4C7 JUMP JUMPDEST PUSH1 0x40 MLOAD DUP1 SWAP2 SUB SWAP1 RETURN JUMPDEST PUSH2 0xB3 PUSH2 0x1C4 JUMP JUMPDEST PUSH1 0x40 MLOAD PUSH2 0xC0 SWAP2 SWAP1 PUSH2 0x4FB JUMP JUMPDEST PUSH1 0x40 MLOAD DUP1 SWAP2 SUB SWAP1 RETURN JUMPDEST PUSH2 0xE3 PUSH1 0x4 DUP1 CALLDATASIZE SUB DUP2 ADD SWAP1 PUSH2 0xDE SWAP2 SWAP1 PUSH2 0x547 JUMP JUMPDEST PUSH2 0x1CA JUMP JUMPDEST STOP JUMPDEST PUSH2 0xFF PUSH1 0x4 DUP1 CALLDATASIZE SUB DUP2 ADD SWAP1 PUSH2 0xFA SWAP2 SWAP1 PUSH2 0x5B2 JUMP JUMPDEST PUSH2 0x2E2 JUMP JUMPDEST PUSH1 0x40 MLOAD PUSH2 0x10C SWAP2 SWAP1 PUSH2 0x4FB JUMP JUMPDEST PUSH1 0x40 MLOAD DUP1 SWAP2 SUB SWAP1 RETURN JUMPDEST PUSH2 0x12F PUSH1 0x4 DUP1 CALLDATASIZE SUB DUP2 ADD SWAP1 PUSH2 0x12A SWAP2 SWAP1 PUSH2 0x60B JUMP JUMPDEST PUSH2 0x2FA JUMP JUMPDEST PUSH1 0x40 MLOAD PUSH2 0x13D SWAP3 SWAP2 SWAP1 PUSH2 0x647 JUMP JUMPDEST PUSH1 0x40 MLOAD DUP1 SWAP2 SUB SWAP1 RETURN JUMPDEST PUSH2 0x14E PUSH2 0x33E JUMP JUMPDEST PUSH1 0x40 MLOAD PUSH2 0x15B SWAP2 SWAP1 PUSH2 0x4FB JUMP JUMPDEST PUSH1 0x40 MLOAD DUP1 SWAP2 SUB SWAP1 RETURN JUMPDEST PUSH2 0x17E PUSH1 0x4 DUP1 CALLDATASIZE SUB DUP2 ADD SWAP1 PUSH2 0x179 SWAP2 SWAP1 PUSH2 0x670 JUMP JUMPDEST PUSH2 0x344 JUMP JUMPDEST STOP JUMPDEST PUSH2 0x188 PUSH2 0x462 JUMP JUMPDEST PUSH1 0x40 MLOAD PUSH2 0x195 SWAP2 SWAP1 PUSH2 0x6B0 JUMP JUMPDEST PUSH1 0x40 MLOAD DUP1 SWAP2 SUB SWAP1 RETURN JUMPDEST PUSH1 0x1 PUSH1 0x0 SWAP1 SLOAD SWAP1 PUSH2 0x100 EXP SWAP1 DIV PUSH20 0xFFFFFFFFFFFFFFFFFFFFFFFFFFFFFFFFFFFFFFFF AND DUP2 JUMP JUMPDEST PUSH1 0x5 SLOAD DUP2 JUMP JUMPDEST PUSH1 0x0 PUSH1 0x3 PUSH1 0x0 PUSH1 0x1 PUSH1 0x0 SWAP1 SLOAD SWAP1 PUSH2 0x100 EXP SWAP1 DIV PUSH20 0xFFFFFFFFFFFFFFFFFFFFFFFFFFFFFFFFFFFFFFFF AND PUSH20 0xFFFFFFFFFFFFFFFFFFFFFFFFFFFFFFFFFFFFFFFF AND PUSH20 0xFFFFFFFFFFFFFFFFFFFFFFFFFFFFFFFFFFFFFFFF AND DUP2 MSTORE PUSH1 0x20 ADD SWAP1 DUP2 MSTORE PUSH1 0x20 ADD PUSH1 0x0 KECCAK256 SLOAD SWAP1 POP PUSH1 0x12 DUP2 GT PUSH2 0x273 JUMPI PUSH1 0x40 MLOAD PUSH32 0x8C379A000000000000000000000000000000000000000000000000000000000 DUP2 MSTORE PUSH1 0x4 ADD PUSH2 0x26A SWAP1 PUSH2 0x774 JUMP JUMPDEST PUSH1 0x40 MLOAD DUP1 SWAP2 SUB SWAP1 REVERT JUMPDEST PUSH1 0x1 PUSH1 0x0 SWAP1 SLOAD SWAP1 PUSH2 0x100 EXP SWAP1 DIV PUSH20 0xFFFFFFFFFFFFFFFFFFFFFFFFFFFFFFFFFFFFFFFF AND PUSH20 0xFFFFFFFFFFFFFFFFFFFFFFFFFFFFFFFFFFFFFFFF AND PUSH2 0x8FC PUSH1 0x5 SLOAD SWAP1 DUP2 ISZERO MUL SWAP1 PUSH1 0x40 MLOAD PUSH1 0x0 PUSH1 0x40 MLOAD DUP1 DUP4 SUB DUP2 DUP6 DUP9 DUP9 CALL SWAP4 POP POP POP POP ISZERO DUP1 ISZERO PUSH2 0x2DD JUMPI RETURNDATASIZE PUSH1 0x0 DUP1 RETURNDATACOPY RETURNDATASIZE PUSH1 0x0 REVERT JUMPDEST POP POP POP JUMP JUMPDEST PUSH1 0x3 PUSH1 0x20 MSTORE DUP1 PUSH1 0x0 MSTORE PUSH1 0x40 PUSH1 0x0 KECCAK256 PUSH1 0x0 SWAP2 POP SWAP1 POP SLOAD DUP2 JUMP JUMPDEST PUSH1 0x2 PUSH1 0x20 MSTORE DUP1 PUSH1 0x0 MSTORE PUSH1 0x40 PUSH1 0x0 KECCAK256 PUSH1 0x0 SWAP2 POP SWAP1 POP DUP1 PUSH1 0x0 ADD PUSH1 0x0 SWAP1 SLOAD SWAP1 PUSH2 0x100 EXP SWAP1 DIV PUSH20 0xFFFFFFFFFFFFFFFFFFFFFFFFFFFFFFFFFFFFFFFF AND SWAP1 DUP1 PUSH1 0x1 ADD SLOAD SWAP1 POP DUP3 JUMP JUMPDEST PUSH1 0x4 SLOAD DUP2 JUMP JUMPDEST PUSH1 0x0 DUP1 SLOAD SWAP1 PUSH2 0x100 EXP SWAP1 DIV PUSH20 0xFFFFFFFFFFFFFFFFFFFFFFFFFFFFFFFFFFFFFFFF AND PUSH20 0xFFFFFFFFFFFFFFFFFFFFFFFFFFFFFFFFFFFFFFFF AND CALLER PUSH20 0xFFFFFFFFFFFFFFFFFFFFFFFFFFFFFFFFFFFFFFFF AND EQ PUSH2 0x39C JUMPI PUSH1 0x0 DUP1 REVERT JUMPDEST PUSH1 0x0 PUSH1 0x2 PUSH1 0x0 PUSH1 0x4 SLOAD DUP2 MSTORE PUSH1 0x20 ADD SWAP1 DUP2 MSTORE PUSH1 0x20 ADD PUSH1 0x0 KECCAK256 SWAP1 POP PUSH1 0x4 PUSH1 0x0 DUP2 SLOAD DUP1 SWAP3 SWAP2 SWAP1 PUSH2 0x3C8 SWAP1 PUSH2 0x7C3 JUMP JUMPDEST SWAP2 SWAP1 POP SSTORE POP DUP3 DUP2 PUSH1 0x0 ADD PUSH1 0x0 PUSH2 0x100 EXP DUP2 SLOAD DUP2 PUSH20 0xFFFFFFFFFFFFFFFFFFFFFFFFFFFFFFFFFFFFFFFF MUL NOT AND SWAP1 DUP4 PUSH20 0xFFFFFFFFFFFFFFFFFFFFFFFFFFFFFFFFFFFFFFFF AND MUL OR SWAP1 SSTORE POP DUP2 DUP2 PUSH1 0x1 ADD DUP2 SWAP1 SSTORE POP DUP2 PUSH1 0x3 PUSH1 0x0 DUP6 PUSH20 0xFFFFFFFFFFFFFFFFFFFFFFFFFFFFFFFFFFFFFFFF AND PUSH20 0xFFFFFFFFFFFFFFFFFFFFFFFFFFFFFFFFFFFFFFFF AND DUP2 MSTORE PUSH1 0x20 ADD SWAP1 DUP2 MSTORE PUSH1 0x20 ADD PUSH1 0x0 KECCAK256 DUP2 SWAP1 SSTORE POP POP POP POP JUMP JUMPDEST PUSH1 0x0 DUP1 SLOAD SWAP1 PUSH2 0x100 EXP SWAP1 DIV PUSH20 0xFFFFFFFFFFFFFFFFFFFFFFFFFFFFFFFFFFFFFFFF AND DUP2 JUMP JUMPDEST PUSH1 0x0 PUSH20 0xFFFFFFFFFFFFFFFFFFFFFFFFFFFFFFFFFFFFFFFF DUP3 AND SWAP1 POP SWAP2 SWAP1 POP JUMP JUMPDEST PUSH1 0x0 PUSH2 0x4B1 DUP3 PUSH2 0x486 JUMP JUMPDEST SWAP1 POP SWAP2 SWAP1 POP JUMP JUMPDEST PUSH2 0x4C1 DUP2 PUSH2 0x4A6 JUMP JUMPDEST DUP3 MSTORE POP POP JUMP JUMPDEST PUSH1 0x0 PUSH1 0x20 DUP3 ADD SWAP1 POP PUSH2 0x4DC PUSH1 0x0 DUP4 ADD DUP5 PUSH2 0x4B8 JUMP JUMPDEST SWAP3 SWAP2 POP POP JUMP JUMPDEST PUSH1 0x0 DUP2 SWAP1 POP SWAP2 SWAP1 POP JUMP JUMPDEST PUSH2 0x4F5 DUP2 PUSH2 0x4E2 JUMP JUMPDEST DUP3 MSTORE POP POP JUMP JUMPDEST PUSH1 0x0 PUSH1 0x20 DUP3 ADD SWAP1 POP PUSH2 0x510 PUSH1 0x0 DUP4 ADD DUP5 PUSH2 0x4EC JUMP JUMPDEST SWAP3 SWAP2 POP POP JUMP JUMPDEST PUSH1 0x0 DUP1 REVERT JUMPDEST PUSH2 0x524 DUP2 PUSH2 0x4A6 JUMP JUMPDEST DUP2 EQ PUSH2 0x52F JUMPI PUSH1 0x0 DUP1 REVERT JUMPDEST POP JUMP JUMPDEST PUSH1 0x0 DUP2 CALLDATALOAD SWAP1 POP PUSH2 0x541 DUP2 PUSH2 0x51B JUMP JUMPDEST SWAP3 SWAP2 POP POP JUMP JUMPDEST PUSH1 0x0 PUSH1 0x20 DUP3 DUP5 SUB SLT ISZERO PUSH2 0x55D JUMPI PUSH2 0x55C PUSH2 0x516 JUMP JUMPDEST JUMPDEST PUSH1 0x0 PUSH2 0x56B DUP5 DUP3 DUP6 ADD PUSH2 0x532 JUMP JUMPDEST SWAP2 POP POP SWAP3 SWAP2 POP POP JUMP JUMPDEST PUSH1 0x0 PUSH2 0x57F DUP3 PUSH2 0x486 JUMP JUMPDEST SWAP1 POP SWAP2 SWAP1 POP JUMP JUMPDEST PUSH2 0x58F DUP2 PUSH2 0x574 JUMP JUMPDEST DUP2 EQ PUSH2 0x59A JUMPI PUSH1 0x0 DUP1 REVERT JUMPDEST POP JUMP JUMPDEST PUSH1 0x0 DUP2 CALLDATALOAD SWAP1 POP PUSH2 0x5AC DUP2 PUSH2 0x586 JUMP JUMPDEST SWAP3 SWAP2 POP POP JUMP JUMPDEST PUSH1 0x0 PUSH1 0x20 DUP3 DUP5 SUB SLT ISZERO PUSH2 0x5C8 JUMPI PUSH2 0x5C7 PUSH2 0x516 JUMP JUMPDEST JUMPDEST PUSH1 0x0 PUSH2 0x5D6 DUP5 DUP3 DUP6 ADD PUSH2 0x59D JUMP JUMPDEST SWAP2 POP POP SWAP3 SWAP2 POP POP JUMP JUMPDEST PUSH2 0x5E8 DUP2 PUSH2 0x4E2 JUMP JUMPDEST DUP2 EQ PUSH2 0x5F3 JUMPI PUSH1 0x0 DUP1 REVERT JUMPDEST POP JUMP JUMPDEST PUSH1 0x0 DUP2 CALLDATALOAD SWAP1 POP PUSH2 0x605 DUP2 PUSH2 0x5DF JUMP JUMPDEST SWAP3 SWAP2 POP POP JUMP JUMPDEST PUSH1 0x0 PUSH1 0x20 DUP3 DUP5 SUB SLT ISZERO PUSH2 0x621 JUMPI PUSH2 0x620 PUSH2 0x516 JUMP JUMPDEST JUMPDEST PUSH1 0x0 PUSH2 0x62F DUP5 DUP3 DUP6 ADD PUSH2 0x5F6 JUMP JUMPDEST SWAP2 POP POP SWAP3 SWAP2 POP POP JUMP JUMPDEST PUSH2 0x641 DUP2 PUSH2 0x574 JUMP JUMPDEST DUP3 MSTORE POP POP JUMP JUMPDEST PUSH1 0x0 PUSH1 0x40 DUP3 ADD SWAP1 POP PUSH2 0x65C PUSH1 0x0 DUP4 ADD DUP6 PUSH2 0x638 JUMP JUMPDEST PUSH2 0x669 PUSH1 0x20 DUP4 ADD DUP5 PUSH2 0x4EC JUMP JUMPDEST SWAP4 SWAP3 POP POP POP JUMP JUMPDEST PUSH1 0x0 DUP1 PUSH1 0x40 DUP4 DUP6 SUB SLT ISZERO PUSH2 0x687 JUMPI PUSH2 0x686 PUSH2 0x516 JUMP JUMPDEST JUMPDEST PUSH1 0x0 PUSH2 0x695 DUP6 DUP3 DUP7 ADD PUSH2 0x59D JUMP JUMPDEST SWAP3 POP POP PUSH1 0x20 PUSH2 0x6A6 DUP6 DUP3 DUP7 ADD PUSH2 0x5F6 JUMP JUMPDEST SWAP2 POP POP SWAP3 POP SWAP3 SWAP1 POP JUMP JUMPDEST PUSH1 0x0 PUSH1 0x20 DUP3 ADD SWAP1 POP PUSH2 0x6C5 PUSH1 0x0 DUP4 ADD DUP5 PUSH2 0x638 JUMP JUMPDEST SWAP3 SWAP2 POP POP JUMP JUMPDEST PUSH1 0x0 DUP3 DUP3 MSTORE PUSH1 0x20 DUP3 ADD SWAP1 POP SWAP3 SWAP2 POP POP JUMP JUMPDEST PUSH32 0x596F7520617265207374696C6C206E6F7420796F756E6720656E6F7567682074 PUSH1 0x0 DUP3 ADD MSTORE PUSH32 0x6F20676574207468652065746865722066726F6D20796F7572206772616E6470 PUSH1 0x20 DUP3 ADD MSTORE PUSH32 0x612E000000000000000000000000000000000000000000000000000000000000 PUSH1 0x40 DUP3 ADD MSTORE POP JUMP JUMPDEST PUSH1 0x0 PUSH2 0x75E PUSH1 0x42 DUP4 PUSH2 0x6CB JUMP JUMPDEST SWAP2 POP PUSH2 0x769 DUP3 PUSH2 0x6DC JUMP JUMPDEST PUSH1 0x60 DUP3 ADD SWAP1 POP SWAP2 SWAP1 POP JUMP JUMPDEST PUSH1 0x0 PUSH1 0x20 DUP3 ADD SWAP1 POP DUP2 DUP2 SUB PUSH1 0x0 DUP4 ADD MSTORE PUSH2 0x78D DUP2 PUSH2 0x751 JUMP JUMPDEST SWAP1 POP SWAP2 SWAP1 POP JUMP JUMPDEST PUSH32 0x4E487B7100000000000000000000000000000000000000000000000000000000 PUSH1 0x0 MSTORE PUSH1 0x11 PUSH1 0x4 MSTORE PUSH1 0x24 PUSH1 0x0 REVERT JUMPDEST PUSH1 0x0 PUSH2 0x7CE DUP3 PUSH2 0x4E2 JUMP JUMPDEST SWAP2 POP PUSH32 0xFFFFFFFFFFFFFFFFFFFFFFFFFFFFFFFFFFFFFFFFFFFFFFFFFFFFFFFFFFFFFFFF DUP3 SUB PUSH2 0x800 JUMPI PUSH2 0x7FF PUSH2 0x794 JUMP JUMPDEST JUMPDEST PUSH1 0x1 DUP3 ADD SWAP1 POP SWAP2 SWAP1 POP JUMP INVALID LOG2 PUSH5 0x6970667358 0x22 SLT KECCAK256 0xD4 0x2F DUP5 SWAP2 CALLCODE PUSH11 0x488693C5CE79AE70E0EEC4 CODECOPY 0xC2 CALL 0xCC 0xC8 COINBASE 0xAB 0xBC 0x4F SWAP12 PUSH20 0x97240F6C64736F6C634300080D00330000000000 "
				},
				"gasEstimates": {
					"creation": {
						"codeDepositCost": "422600",
						"executionCost": "infinite",
						"totalCost": "infinite"
					},
					"external": {
						"address_kid()": "2515",
						"grandpa()": "2577",
						"kid(address)": "2881",
						"kids_entry(address,uint256)": "infinite",
						"numRequests()": "2451",
						"requests(uint256)": "infinite",
						"transferingAmount()": "2452",
						"withdraw(address)": "infinite"
					}
				},
				"methodIdentifiers": {
					"address_kid()": "24ca53c2",
					"grandpa()": "d5ebe7f8",
					"kid(address)": "6f6b4069",
					"kids_entry(address,uint256)": "d42cd5a9",
					"numRequests()": "9fb42b1f",
					"requests(uint256)": "81d12c58",
					"transferingAmount()": "3f5a7d48",
					"withdraw(address)": "51cff8d9"
				}
			},
			"userdoc": {
				"kind": "user",
				"methods": {},
				"version": 1
			}
		}
	}
}